{"contracts/PredictionBattleV6_1.sol":{"PredictionBattleV6_1":{"abi":[{"inputs":[{"internalType":"address","name":"_usdcAddress","type":"address"},{"internalType":"address","name":"_initialAdmin","type":"address"},{"internalType":"address","name":"_treasury","type":"address"}],"stateMutability":"nonpayable","type":"constructor"},{"anonymous":false,"inputs":[{"indexed":false,"internalType":"address","name":"oldAdmin","type":"address"},{"indexed":false,"internalType":"address","name":"newAdmin","type":"address"}],"name":"AdminUpdated","type":"event"},{"anonymous":false,"inputs":[{"indexed":false,"internalType":"string","name":"id","type":"string"},{"indexed":false,"internalType":"address","name":"user","type":"address"},{"indexed":false,"internalType":"bool","name":"vote","type":"bool"},{"indexed":false,"internalType":"uint256","name":"amount","type":"uint256"},{"indexed":false,"internalType":"uint256","name":"shares","type":"uint256"},{"indexed":false,"internalType":"address","name":"referrer","type":"address"},{"indexed":false,"internalType":"uint256","name":"weight","type":"uint256"}],"name":"BetPlaced","type":"event"},{"anonymous":false,"inputs":[{"indexed":false,"internalType":"address","name":"user","type":"address"},{"indexed":false,"internalType":"uint256","name":"amount","type":"uint256"}],"name":"BondWithdrawn","type":"event"},{"anonymous":false,"inputs":[{"indexed":false,"internalType":"string","name":"id","type":"string"},{"indexed":false,"internalType":"address","name":"winner","type":"address"},{"indexed":false,"internalType":"uint256","name":"totalBondReward","type":"uint256"},{"indexed":false,"internalType":"bool","name":"finalResult","type":"bool"}],"name":"DisputeResolved","type":"event"},{"anonymous":false,"inputs":[{"indexed":false,"internalType":"address","name":"treasury","type":"address"},{"indexed":false,"internalType":"uint256","name":"amount","type":"uint256"}],"name":"HouseFeeWithdrawn","type":"event"},{"anonymous":false,"inputs":[{"indexed":false,"internalType":"string","name":"id","type":"string"},{"indexed":false,"internalType":"address","name":"creator","type":"address"},{"indexed":false,"internalType":"uint256","name":"deadline","type":"uint256"},{"indexed":false,"internalType":"uint256","name":"bonusDuration","type":"uint256"}],"name":"MarketCreated","type":"event"},{"anonymous":false,"inputs":[{"indexed":false,"internalType":"string","name":"id","type":"string"},{"indexed":false,"internalType":"bool","name":"result","type":"bool"},{"indexed":false,"internalType":"uint256","name":"winnerPool","type":"uint256"}],"name":"MarketResolved","type":"event"},{"anonymous":false,"inputs":[{"indexed":false,"internalType":"string","name":"id","type":"string"}],"name":"MarketVoided","type":"event"},{"anonymous":false,"inputs":[{"indexed":false,"internalType":"string","name":"id","type":"string"},{"indexed":false,"internalType":"address","name":"challenger","type":"address"},{"indexed":false,"internalType":"uint256","name":"bond","type":"uint256"},{"indexed":false,"internalType":"string","name":"evidence","type":"string"}],"name":"OutcomeChallenged","type":"event"},{"anonymous":false,"inputs":[{"indexed":false,"internalType":"string","name":"id","type":"string"},{"indexed":false,"internalType":"address","name":"proposer","type":"address"},{"indexed":false,"internalType":"uint256","name":"reward","type":"uint256"}],"name":"OutcomeFinalized","type":"event"},{"anonymous":false,"inputs":[{"indexed":false,"internalType":"string","name":"id","type":"string"},{"indexed":false,"internalType":"address","name":"proposer","type":"address"},{"indexed":false,"internalType":"bool","name":"result","type":"bool"},{"indexed":false,"internalType":"uint256","name":"bond","type":"uint256"},{"indexed":false,"internalType":"uint256","name":"disputeEnd","type":"uint256"},{"indexed":false,"internalType":"string","name":"evidence","type":"string"}],"name":"OutcomeProposed","type":"event"},{"anonymous":false,"inputs":[{"indexed":false,"internalType":"string","name":"id","type":"string"},{"indexed":false,"internalType":"address","name":"user","type":"address"},{"indexed":false,"internalType":"uint256","name":"amount","type":"uint256"}],"name":"PayoutClaimed","type":"event"},{"anonymous":false,"inputs":[{"indexed":false,"internalType":"string","name":"id","type":"string"},{"indexed":false,"internalType":"uint256","name":"yesAmount","type":"uint256"},{"indexed":false,"internalType":"uint256","name":"noAmount","type":"uint256"}],"name":"SeedAdded","type":"event"},{"anonymous":false,"inputs":[{"indexed":false,"internalType":"string","name":"id","type":"string"},{"indexed":false,"internalType":"address","name":"creator","type":"address"},{"indexed":false,"internalType":"uint256","name":"amount","type":"uint256"}],"name":"SeedWithdrawn","type":"event"},{"anonymous":false,"inputs":[{"indexed":false,"internalType":"address","name":"oldTreasury","type":"address"},{"indexed":false,"internalType":"address","name":"newTreasury","type":"address"}],"name":"TreasuryUpdated","type":"event"},{"inputs":[],"name":"DISPUTE_WINDOW","outputs":[{"internalType":"uint256","name":"","type":"uint256"}],"stateMutability":"view","type":"function"},{"inputs":[],"name":"FEE_DENOMINATOR","outputs":[{"internalType":"uint256","name":"","type":"uint256"}],"stateMutability":"view","type":"function"},{"inputs":[],"name":"MAX_WEIGHT","outputs":[{"internalType":"uint256","name":"","type":"uint256"}],"stateMutability":"view","type":"function"},{"inputs":[],"name":"MIN_WEIGHT","outputs":[{"internalType":"uint256","name":"","type":"uint256"}],"stateMutability":"view","type":"function"},{"inputs":[],"name":"SHARE_PRECISION","outputs":[{"internalType":"uint256","name":"","type":"uint256"}],"stateMutability":"view","type":"function"},{"inputs":[],"name":"admin","outputs":[{"internalType":"address","name":"","type":"address"}],"stateMutability":"view","type":"function"},{"inputs":[{"internalType":"string","name":"_marketId","type":"string"},{"internalType":"bool","name":"_result","type":"bool"}],"name":"adminResolve","outputs":[],"stateMutability":"nonpayable","type":"function"},{"inputs":[{"internalType":"address","name":"","type":"address"}],"name":"bondBalance","outputs":[{"internalType":"uint256","name":"","type":"uint256"}],"stateMutability":"view","type":"function"},{"inputs":[{"internalType":"string","name":"_marketId","type":"string"},{"internalType":"string","name":"_evidenceUrl","type":"string"}],"name":"challengeOutcome","outputs":[],"stateMutability":"nonpayable","type":"function"},{"inputs":[{"internalType":"string","name":"_id","type":"string"}],"name":"claimWinnings","outputs":[],"stateMutability":"nonpayable","type":"function"},{"inputs":[{"internalType":"address","name":"","type":"address"}],"name":"claimableBonds","outputs":[{"internalType":"uint256","name":"","type":"uint256"}],"stateMutability":"view","type":"function"},{"inputs":[{"internalType":"string","name":"_id","type":"string"},{"internalType":"string","name":"_question","type":"string"},{"internalType":"uint256","name":"_usdcSeedAmount","type":"uint256"},{"internalType":"uint256","name":"_duration","type":"uint256"},{"internalType":"uint256","name":"_bonusDuration","type":"uint256"}],"name":"createMarket","outputs":[],"stateMutability":"nonpayable","type":"function"},{"inputs":[{"internalType":"address","name":"","type":"address"}],"name":"creatorBalance","outputs":[{"internalType":"uint256","name":"","type":"uint256"}],"stateMutability":"view","type":"function"},{"inputs":[],"name":"creatorFeeBps","outputs":[{"internalType":"uint256","name":"","type":"uint256"}],"stateMutability":"view","type":"function"},{"inputs":[{"internalType":"string","name":"_marketId","type":"string"}],"name":"finalizeOutcome","outputs":[],"stateMutability":"nonpayable","type":"function"},{"inputs":[{"internalType":"string","name":"_id","type":"string"}],"name":"getRequiredBond","outputs":[{"internalType":"uint256","name":"","type":"uint256"}],"stateMutability":"view","type":"function"},{"inputs":[{"internalType":"string","name":"","type":"string"},{"internalType":"address","name":"","type":"address"}],"name":"hasClaimed","outputs":[{"internalType":"bool","name":"","type":"bool"}],"stateMutability":"view","type":"function"},{"inputs":[],"name":"houseBalance","outputs":[{"internalType":"uint256","name":"","type":"uint256"}],"stateMutability":"view","type":"function"},{"inputs":[],"name":"houseFeeBps","outputs":[{"internalType":"uint256","name":"","type":"uint256"}],"stateMutability":"view","type":"function"},{"inputs":[{"internalType":"string","name":"","type":"string"}],"name":"marketExists","outputs":[{"internalType":"bool","name":"","type":"bool"}],"stateMutability":"view","type":"function"},{"inputs":[{"internalType":"string","name":"","type":"string"}],"name":"markets","outputs":[{"internalType":"string","name":"id","type":"string"},{"internalType":"address","name":"creator","type":"address"},{"internalType":"string","name":"question","type":"string"},{"internalType":"uint256","name":"creationTime","type":"uint256"},{"internalType":"uint256","name":"bonusDuration","type":"uint256"},{"internalType":"uint256","name":"deadline","type":"uint256"},{"internalType":"enum PredictionBattleV6_1.MarketState","name":"state","type":"uint8"},{"internalType":"bool","name":"result","type":"bool"},{"internalType":"bool","name":"isVoid","type":"bool"},{"internalType":"address","name":"proposer","type":"address"},{"internalType":"bool","name":"proposedResult","type":"bool"},{"internalType":"uint256","name":"proposalTime","type":"uint256"},{"internalType":"uint256","name":"bondAmount","type":"uint256"},{"internalType":"string","name":"evidenceUrl","type":"string"},{"internalType":"address","name":"challenger","type":"address"},{"internalType":"uint256","name":"challengeBondAmount","type":"uint256"},{"internalType":"string","name":"challengeEvidenceUrl","type":"string"},{"internalType":"uint256","name":"challengeTime","type":"uint256"},{"internalType":"uint256","name":"totalYes","type":"uint256"},{"internalType":"uint256","name":"totalNo","type":"uint256"},{"internalType":"uint256","name":"seedYes","type":"uint256"},{"internalType":"uint256","name":"seedNo","type":"uint256"},{"internalType":"uint256","name":"totalSharesYes","type":"uint256"},{"internalType":"uint256","name":"totalSharesNo","type":"uint256"}],"stateMutability":"view","type":"function"},{"inputs":[{"internalType":"string","name":"","type":"string"},{"internalType":"address","name":"","type":"address"}],"name":"noBets","outputs":[{"internalType":"uint256","name":"amount","type":"uint256"},{"internalType":"uint256","name":"shares","type":"uint256"},{"internalType":"address","name":"referrer","type":"address"},{"internalType":"bool","name":"claimed","type":"bool"}],"stateMutability":"view","type":"function"},{"inputs":[{"internalType":"string","name":"_marketId","type":"string"},{"internalType":"bool","name":"_side","type":"bool"},{"internalType":"uint256","name":"_usdcAmount","type":"uint256"},{"internalType":"address","name":"_referrer","type":"address"}],"name":"placeBet","outputs":[],"stateMutability":"nonpayable","type":"function"},{"inputs":[{"internalType":"string","name":"_marketId","type":"string"},{"internalType":"bool","name":"_result","type":"bool"},{"internalType":"string","name":"_evidenceUrl","type":"string"}],"name":"proposeOutcome","outputs":[],"stateMutability":"nonpayable","type":"function"},{"inputs":[],"name":"referrerFeeBps","outputs":[{"internalType":"uint256","name":"","type":"uint256"}],"stateMutability":"view","type":"function"},{"inputs":[{"internalType":"string","name":"_marketId","type":"string"},{"internalType":"address","name":"_winnerAddress","type":"address"},{"internalType":"bool","name":"_finalResult","type":"bool"}],"name":"resolveDispute","outputs":[],"stateMutability":"nonpayable","type":"function"},{"inputs":[{"internalType":"address","name":"","type":"address"}],"name":"rewardsBalance","outputs":[{"internalType":"uint256","name":"","type":"uint256"}],"stateMutability":"view","type":"function"},{"inputs":[{"internalType":"address","name":"_newAdmin","type":"address"}],"name":"setAdmin","outputs":[],"stateMutability":"nonpayable","type":"function"},{"inputs":[{"internalType":"address","name":"_newTreasury","type":"address"}],"name":"setTreasury","outputs":[],"stateMutability":"nonpayable","type":"function"},{"inputs":[],"name":"treasury","outputs":[{"internalType":"address","name":"","type":"address"}],"stateMutability":"view","type":"function"},{"inputs":[],"name":"usdcToken","outputs":[{"internalType":"contract IERC20","name":"","type":"address"}],"stateMutability":"view","type":"function"},{"inputs":[{"internalType":"string","name":"_marketId","type":"string"}],"name":"voidMarket","outputs":[],"stateMutability":"nonpayable","type":"function"},{"inputs":[],"name":"withdrawBond","outputs":[],"stateMutability":"nonpayable","type":"function"},{"inputs":[],"name":"withdrawCreatorFees","outputs":[],"stateMutability":"nonpayable","type":"function"},{"inputs":[],"name":"withdrawHouseFees","outputs":[],"stateMutability":"nonpayable","type":"function"},{"inputs":[],"name":"withdrawReferrerFees","outputs":[],"stateMutability":"nonpayable","type":"function"},{"inputs":[{"internalType":"string","name":"_id","type":"string"}],"name":"withdrawSeed","outputs":[],"stateMutability":"nonpayable","type":"function"},{"inputs":[{"internalType":"string","name":"","type":"string"},{"internalType":"address","name":"","type":"address"}],"name":"yesBets","outputs":[{"internalType":"uint256","name":"amount","type":"uint256"},{"internalType":"uint256","name":"shares","type":"uint256"},{"internalType":"address","name":"referrer","type":"address"},{"internalType":"bool","name":"claimed","type":"bool"}],"stateMutability":"view","type":"function"}],"evm":{"bytecode":{"linkReferences":{},"object":"6080346200013a57601f620033bd38819003918201601f19168301916001600160401b038311848410176200013f578084926060946040528339810103126200013a576200004d8162000155565b906200006a6040620000626020840162000155565b920162000155565b6103e86003556101f460048190556005556001600160a01b0391821692908315620001055782168015620000cd5760018060a01b0319938460005416176000558360015416176001551690600254161760025560405161325290816200016b8239f35b60405162461bcd60e51b815260206004820152601060248201526f496e76616c696420547265617375727960801b6044820152606490fd5b60405162461bcd60e51b815260206004820152600d60248201526c24b73b30b634b21020b236b4b760991b6044820152606490fd5b600080fd5b634e487b7160e01b600052604160045260246000fd5b51906001600160a01b03821682036200013a5756fe61014080604052600436101561001457600080fd5b60e0600035811c9182626fb9ff14612c0e575081630e90aeb214612bcc57816311eac85514612ba357816317773ebb14612b855781632023115d14612966578163218b53821461294a578163245e272f14612910578163287137b1146125415781633cff3549146125005781633fed6ced1461249f5781635fc5e0201461247c57816361d027b31461245357816366eb9cec1461235557816367084eb314612337578163704b6c02146122a85781637226405614611f655781637d191e0614611a91578163896bdac814611a575781639a826eb7146119eb5781639bd1d513146114c4578163a07c1633146114a6578163c8eaef1914611324578163d73792a914611307578163dbeae54c14611286578163dfdc5f771461120b578163e1cd04b414611155578163e1e90ab314610ec0578163e4a28a5214610ea4578163e6cd7ab614610e6a578163e7785ffb14610cb0578163ee59d24014610c92578163ef03c10e146109bc578163efbda6611461076657508063f0f44260146106d2578063f585dc57146106b5578063f677b4d4146105b0578063f851a440146105875763fdbcf125146101c357600080fd5b3461058257602080600319360112610582576004356001600160401b038111610582576101f4903690600401612c7b565b6040519061022260ff82519385818186019661021181838a612d12565b8101600b8152030190205416612f43565b60405183818351610234818388612d12565b8101600a81520301902060068101549060ff8216600581101561056c57600461025d9114613174565b6040518581855161026f81838a612d12565b8101600e81520301902033600052855260ff60406000205416610535576000604051868186516102a081838b612d12565b8101600c815203019020336000528652604060002091604051878187516102c881838c612d12565b8101600d81520301902033600052875260406000209360ff8160101c16600014610476575050506102fc8154835490612f16565b935b841561043e578561031a91604051809381928851928391612d12565b8101600e8152030190203360005285526040600020600160ff198254161790558054610424575b50805461040a575b5060025460405163a9059cbb60e01b81523360048201526024810184905293908190859060449082906000906001600160a01b03165af180156103fe577f2f0b27a029bcea8b4cd6e1f002ba498bd37b903b56578a04f1576cd25c09de53946103bb926000926103d1575b5050612ed8565b6103cc604051928392339084613148565b0390a1005b6103f09250803d106103f7575b6103e88183612c5a565b810190612ec0565b38806103b4565b503d6103de565b6040513d6000823e3d90fd5b600201805460ff60a01b1916600160a01b17905538610349565b600201805460ff60a01b1916600160a01b17905538610341565b60405162461bcd60e51b815260048101879052601060248201526f4e6f7468696e6720746f20636c61696d60801b6044820152606490fd5b91959160081c60ff16801561052e5783915b8254151580610521575b61049f575b5050506102fe565b6104e36104b5600e830154600f84015490612f16565b6127106104dc6104d66104cd60035460045490612f16565b60055490612f16565b83612f7b565b0490612f8e565b91156105175760120154915b82156104975761050e939750906001610509920154612f7b565b612f23565b93388080610497565b60130154916104ef565b5060018301541515610492565b8491610488565b60405162461bcd60e51b815260048101869052600f60248201526e105b1c9958591e4818db185a5b5959608a1b6044820152606490fd5b634e487b7160e01b600052602160045260246000fd5b600080fd5b34610582576000366003190112610582576000546040516001600160a01b039091168152602090f35b346105825760003660031901126105825761063060018060a01b036105da81600054163314612e49565b600654906105e98215156131af565b6000600681905560025460015460405163a9059cbb60e01b81529084166001600160a01b031660048201526024810185905294602092869285169183919082906044820190565b03925af19283156103fe577f19f7a31ae4185f3274e252a5a78ec36ba85c01300bc8a800d41d79be74662a8e9361066f91600091610697575b50612ed8565b60015460408051929091166001600160a01b03168252602082019290925290819081016103cc565b6106af915060203d81116103f7576103e88183612c5a565b85610669565b3461058257600036600319011261058257602060405161a8c08152f35b34610582576020366003190112610582576106eb612c44565b6000546001600160a01b03906107049082163314612e49565b7f4ab5be82436d353e61ca18726e984e561f5c1cc7c6d38b29d2553c790434705a81831692610734841515612e82565b600154604080519482166001600160a01b03908116865292909216602085015292a16001600160a01b03191617600155005b34610582576020366003190112610582576004356001600160401b03811161058257610796903690600401612c7b565b60405181818093516020819301916107ad92612d12565b8101600a815203602001902080806107c481612d7e565b60018201546001600160a01b0316610100526107e260028301612d7e565b6003830154600484015460058501546006860154600787015460805260088701549492938a939261081560098a01612d7e565b90600160a01b60019003600a8b01541696600b8b015495600c8c0161083990612d7e565b97600d8d01549052600e8c01549a600f8d01549c601001549d601101549e601281015460a0526013015460c0526040518061012052610300809152610120510161088291612e24565b6101005161012051602001526101205180820390604001526108a391612e24565b93610120516060015261012051608001526101205160a0015260ff831696600588101561056c5760ff610946948e61096b9a60c0610120510152828260081c16151590610120510152818160101c16151561010061012051015260018060a01b038160181c166101208051015260b81c161515610140610120510152608051610160610120510152610180610120510152610120516101a0818403910152612e24565b926101c06101205101526101e061012051015261012051610200818403910152612e24565b94516102206101205101526102406101205101526102606101205101526102806101205101526102a061012051015260a0516102c061012051015260c0516102e06101205101526101205180910390f35b34610582576060366003190112610582576004356001600160401b038111610582576109ec903690600401612c7b565b6001600160a01b039060243582811681036105825760443515156044350361058257610a1d83600054163314612e49565b610a4f6020604051610a3e60ff8651928481818a0195610211818389612d12565b604051809381928751928391612d12565b8101600a81520301902090600682015460ff8116600581101561056c57600303610c5c5760181c841681851681148015610c4b575b15610c15577f175b08e6ee8bbceb85780e790adca99ec4fbd3bb124ffbf50bd35ed4375a69ac947f38b360c485b4bed5c0c2e2ab639b104b4e002dbf7351d0d4431e48b6d9e2bfce926008850154610ae0600b87015482612f16565b93600052600f602052610af96040600020918254612f8e565b9055600b85015482600a87015416600052600f602052610b1f6040600020918254612f8e565b90556064610b36600e870154600f88015490612f16565b0480151580610c09575b610be9575b5081811660005260096020526040600020610b61848254612f16565b905560068501805461ffff1916604435151560081b61ff0016176004179055600060088601556000600b86015560405192839260808452610ba56080850189612e24565b921660208401526040830152604435151560608301520390a160443515610bdf57600e0154905b6103cc6040519283926044359084613124565b600f015490610bcc565b610c029193610bfa82600654612f8e565b600655612f16565b9187610b45565b50806006541015610b40565b60405162461bcd60e51b815260206004820152600e60248201526d24b73b30b634b2103bb4b73732b960911b6044820152606490fd5b5084600a8401541685831614610a84565b60405162461bcd60e51b815260206004820152600e60248201526d4e6f7420696e206469737075746560901b6044820152606490fd5b34610582576000366003190112610582576020600354604051908152f35b34610582576040366003190112610582576004356001600160401b03811161058257610ce0903690600401612c7b565b610ce8612d35565b60005490916001600160a01b0391610d039083163314612e49565b6040519283825160209581610d1c889383858901612d12565b8101600a815203019020936006850180549060ff821690600582101561056c577f175b08e6ee8bbceb85780e790adca99ec4fbd3bb124ffbf50bd35ed4375a69ac97610dc997610db594610d746004899614156131e5565b60088301908282549182610e23575b50505050600b820180549283610ddc575b5050825461ffff191693151560081b61ff0016939093176004179091555050565b604051938493606085526060850190612e24565b91151590830152600060408301520390a1005b600a019282845416600052600f8852610dfb6040600020918254612f8e565b90555491541660005260098552610e186040600020918254612f16565b905588808080610d94565b60181c16600052600f8852610e3e6040600020918254612f8e565b90555481845460181c1660005260098752610e5f6040600020918254612f16565b90558a808281610d83565b34610582576020366003190112610582576001600160a01b03610e8b612c44565b1660005260076020526020604060002054604051908152f35b3461058257600036600319011261058257602060405160968152f35b3461058257602080600319360112610582576004356001600160401b03811161058257610ef1903690600401612c7b565b60405190610f0e60ff82519385818186019661021181838a612d12565b60405183818351610f20818388612d12565b8101600a815203019020600681015460ff811690600582101561056c57610f4b600460ff9314613174565b60101c161561111e5760018101546001600160a01b039190821633036110ea5760405185818551610f7d81838a612d12565b8101600e81520301902033600052855260ff604060002054166110b1578060116010610fae93015491015490612f16565b9283156110825784610fcb91604051809381928751928391612d12565b8101600e8152030190203360005284526040600020600160ff19825416179055600254169280604051809563a9059cbb60e01b82528160008161102789336004840160209093929193604081019460018060a01b031681520152565b03925af180156103fe577f3ff50bb01a71ba44b43b95e691fe785159d1c403efd991b82f3b5f62a2d8148a946103bb92600092611065575050612ed8565b61107b9250803d106103f7576103e88183612c5a565b85806103b4565b60405162461bcd60e51b8152600481018690526007602482015266139bc81cd9595960ca1b6044820152606490fd5b60405162461bcd60e51b815260048101869052601160248201527020b63932b0b23c903bb4ba34323930bbb760791b6044820152606490fd5b60405162461bcd60e51b815260048101869052600c60248201526b27b7363c9031b932b0ba37b960a11b6044820152606490fd5b60405162461bcd60e51b815260048101859052600f60248201526e13585c9ad95d081b9bdd081d9bda59608a1b6044820152606490fd5b3461058257600036600319011261058257336000526007602052600060206111d060408320546111868115156131af565b33808552600784526040808620869055600254905163a9059cbb60e01b8152600481019290925260248201929092529384926001600160a01b039092169183919082906044820190565b03925af180156103fe576111eb916000916111ed5750612ed8565b005b611205915060203d81116103f7576103e88183612c5a565b82610669565b3461058257600036600319011261058257336000526008602052600060206111d0604083205461123c8115156131af565b33808552600884526040808620869055600254905163a9059cbb60e01b8152600481019290925260248201929092529384926001600160a01b039092169183919082906044820190565b346105825760206112ae61129936612cd1565b92908160405193828580945193849201612d12565b600c908201908152030190206001600160a01b0391821660009081526020918252604090819020805460018201546002909201548351918252938101919091529282169083015260a01c60ff1615156060820152608090f35b346105825760003660031901126105825760206040516127108152f35b3461058257602080600319360112610582576004356001600160401b03811161058257611355903690600401612c7b565b6000546001600160a01b03929061136f9084163314612e49565b604051818184516113838183858901612d12565b8101600a815203019020600681019081549460ff861695600587101561056c576113d160047f1e9a51575531367c4323c60efe8c5b980af66cd0509c86d8f4e1a3d9c90017009814156131e5565b6008830190828254918261145f575b50505050600b820180549283611418575b505050506201000462ff00ff198254161790556103cc604051928284938452830190612e24565b600a019282845416600052600f86526114376040600020918254612f8e565b905554915416600052600983526114546040600020918254612f16565b9055848080806113f1565b60181c16600052600f865261147a6040600020918254612f8e565b90555481845460181c166000526009855261149b6040600020918254612f16565b9055868082816113e0565b34610582576000366003190112610582576020600554604051908152f35b346105825760a0366003190112610582576001600160401b03600435818111610582576114f5903690600401612c7b565b906024358181116105825761150e903690600401612c7b565b9060ff60405160208186516115268183858b01612d12565b8101600b81520301902054166119bd576044351515806119b0575b1561197c576002546040516323b872dd60e01b8152336004820152306024820152604480359082015290602090829060649082906000906001600160a01b03165af180156103fe5761159a916000916119635750612ed8565b60405160208185516115af8183858a01612d12565b8101600a815203019020918351828111611896576115cd8454612d44565b601f811161191b575b50806020601f82116001146118b7576000916118ac575b508160011b916000199060031b1c19161783555b6001830180546001600160a01b0319163317905580519182116118965761162b6002840154612d44565b601f811161184d575b50602090601f83116001146117965761177293837fff36ff50e65334f5ea64776f95ec82ce2fbd32a145dd5258689e2027c1c61b3a96946011947fccdee9db8c345dd53026f5dedbf3e8b723ceddd2ad8eeb96b00ce37fddd58b649460009261178b575b50508160011b916000199060031b1c19161760028201555b42600382015560843590811561178357815b60048201556116d360643542612f16565b9060058101918255600681019060ff199182815416905560443560011c958187600e8194015582600f82015582601082015501556001604051602081816117208b83815193849201612d12565b8101600b8152030190209182541617905554906040519182916080835261174a6080840188612e24565b91336020850152604084015260608301520390a1604051928392606084526060840190612e24565b9080602084015260408301520390a1005b6064356116c2565b015190508880611698565b90600284016000526020600020916000601f198516905b8181106118355750846011947fccdee9db8c345dd53026f5dedbf3e8b723ceddd2ad8eeb96b00ce37fddd58b649461177298947fff36ff50e65334f5ea64776f95ec82ce2fbd32a145dd5258689e2027c1c61b3a9a986001951061181c575b505050811b0160028201556116b0565b015160001960f88460031b161c1916905588808061180c565b929360206001819287860151815501950193016117ad565b600284016000526020600020601f840160051c81016020851061188f575b601f90920160051c01905b8181106118835750611634565b60008155600101611876565b508061186b565b634e487b7160e01b600052604160045260246000fd5b9050850151866115ed565b6000868152602081209250601f198416905b818110611903575090836001949392106118ea575b5050811b018355611601565b87015160001960f88460031b161c1916905586806118de565b9192602060018192868c0151815501940192016118c9565b846000526020600020601f830160051c81019160208410611959575b601f0160051c01905b81811061194d57506115d6565b60008155600101611940565b9091508190611937565b6106af915060203d6020116103f7576103e88183612c5a565b60405162461bcd60e51b815260206004820152600c60248201526b125b9d985b1a59081cd9595960a21b6044820152606490fd5b5060016044351615611541565b60405162461bcd60e51b815260206004820152600660248201526545786973747360d01b6044820152606490fd5b346105825760206119fe61129936612cd1565b600d908201908152030190206001600160a01b0391821660009081526020918252604090819020805460018201546002909201548351918252938101919091529282169083015260a01c60ff1615156060820152608090f35b34610582576020366003190112610582576001600160a01b03611a78612c44565b1660005260086020526020604060002054604051908152f35b34610582576080366003190112610582576004356001600160401b03811161058257611ac1903690600401612c7b565b611ac9612d35565b916044356001600160a01b03606435818116908190036105825760405192855190611b0360ff6020968781818c019661021181838a612d12565b60405185818951611b15818388612d12565b8101600a8152030190209360ff600686015416600581101561056c57611f35576005850154421015611f06578115611ed3576002546040516323b872dd60e01b815233600482015230602482015260448101849052919087908390606490829060009086165af19182156103fe57611c3492611b9891600091611eb65750612ed8565b61271080611ba860035486612f7b565b0481611bb660045487612f7b565b0491600088151580611eac575b15611e865750611c2f9291611c2f91611bde60055489612f7b565b04948960005260088c526040600020611bf8878254612f16565b90555b611c0782600654612f16565b60065560018b01541660005260078b526040600020611c27848254612f16565b905586612f8e565b612f8e565b97611c486003860154600487015490612ffd565b94611c53868b612f7b565b90670de0b6b3a764000091828102928184041490151715611e70577fa994696d1a657073ceaa15fbacd649938053ce8bee7de30ec1c28d337cc37b239a60648993049584600014611dac5783611d1b918d601296604051809251611cb8818387612d12565b8101600c81520301902033600052825260406000205415611d9a575b8d82604051809251611ce7818387612d12565b8101600c8152030190203360005282526040600020611d07858254612f16565b90558d604051938492839251928391612d12565b8101600c8152030190203360005289526001604060002001611d3e878254612f16565b9055611d4f600e8301918254612f16565b905501611d5d848254612f16565b90555b611d7460405198888a998a52890190612e24565b953390880152151560408701526060860152608085015260a084015260c08301520390a1005b611da73360148701612f9b565b611cd4565b83611e15918d601396604051809251611dc6818387612d12565b8101600d81520301902033600052825260406000205415611e5e575b8d82604051809251611df5818387612d12565b8101600d8152030190203360005282526040600020611d07858254612f16565b8101600d8152030190203360005289526001604060002001611e38878254612f16565b9055611e49600f8301918254612f16565b905501611e57848254612f16565b9055611d60565b611e6b3360158701612f9b565b611de2565b634e487b7160e01b600052601160045260246000fd5b93611ea6611c2f9493611c2f93611e9f6005548b612f7b565b0490612f16565b90611bfb565b5033891415611bc3565b611ecd9150893d8b116103f7576103e88183612c5a565b8c610669565b60405162461bcd60e51b815260048101879052600b60248201526a16995c9bc8185b5bdd5b9d60aa1b6044820152606490fd5b60405162461bcd60e51b8152600481018790526007602482015266115e1c1a5c995960ca1b6044820152606490fd5b60405162461bcd60e51b81526004810187905260086024820152672737ba1037b832b760c11b6044820152606490fd5b34610582576060366003190112610582576001600160401b0360043581811161058257611f96903690600401612c7b565b90611f9f612d35565b9160443582811161058257611fb8903690600401612c7b565b9260ff611fed6040518451611fdc60209483868095818b0195610211818389612d12565b604051809381928851928391612d12565b8101600a81520301902093600685019060ff825416600581101561056c57801590811561229d575b501561226b5760006120268661305a565b6002546040516323b872dd60e01b81523360048201523060248201526044810183905291989192869184916064918391906001600160a01b03165af19182156103fe5760099261207e9160009161224e575b506130a6565b83546301000000600160c01b0319163360181b6301000000600160b81b03161795151560b881901b60ff60b81b169690961784554260078201556008810188905588519101918111611896576120d48254612d44565b601f8111612208575b508084601f82116001146121a457600091612199575b508160011b916000199060031b1c19161790555b600260ff1982541617905533600052600f8152604060002061212a858254612f16565b905561a8c0420194854211611e70577f5247f2366f7e70fc0b5fc61f486408d977047c08d356ffb76c3d35832ceeaf2695612177956103cc9460405197889760c0895260c0890190612e24565b94339088015260408701526060860152608085015283820360a0850152612e24565b9050880151896120f3565b60008481528681209250601f198416905b878c8383106121f35750505090836001949392106121da575b5050811b019055612107565b8a015160001960f88460031b161c1916905589806121ce565b840151855560019094019392830192016121b5565b8260005284600020601f830160051c810191868410612244575b601f0160051c01905b81811061223857506120dd565b6000815560010161222b565b9091508190612222565b6122659150873d89116103f7576103e88183612c5a565b8b612078565b60405162461bcd60e51b815260048101849052600a6024820152694e6f742061637469766560b01b6044820152606490fd5b600191501488612015565b34610582576020366003190112610582576122c1612c44565b6000546001600160a01b03808216927f101b8081ff3b56bbf45deb824d86a3b0fd38b7e3dd42421105cf8abe9106db0b916122fd338614612e49565b81169361230b851515612e82565b604080516001600160a01b03928316815292909116602083015290a16001600160a01b03191617600055005b34610582576000366003190112610582576020600654604051908152f35b346105825760003660031901126105825733600052602060098152604060002054801561241a57336000818152600984526040808220829055600254905163a9059cbb60e01b81526004810193909352602483018490529192918491849160449183916001600160a01b03165af19283156103fe577f0d41118e36df44efb77a471fc49fb9c0be0406d802ef95520e9fbf606e65b455936103cc9361240292600092611065575050612ed8565b60408051338152602081019290925290918291820190565b60405162461bcd60e51b81526004810183905260116024820152704e6f20626f6e647320746f20636c61696d60781b6044820152606490fd5b34610582576000366003190112610582576001546040516001600160a01b039091168152602090f35b34610582576000366003190112610582576020604051670de0b6b3a76400008152f35b34610582576020366003190112610582576004356001600160401b0381116105825760ff6124ea60206124d781943690600401612c7b565b8160405193828580945193849201612d12565b8101600b81520301902054166040519015158152f35b3461058257602061251361129936612cd1565b8101600e8152030190209060018060a01b0316600052602052602060ff604060002054166040519015158152f35b34610582576040366003190112610582576001600160401b0360043581811161058257612572903690600401612c7b565b60248035928084116105825761258e60ff943690600401612c7b565b916125c160405185516125b0602098838a8095818c0195610211818389612d12565b604051809381928951928391612d12565b8101600a815203019020600681019182549360ff851660058110156128fb5760026125ec91146130e9565b600783015461a8c081018091116128e65742116128aa576001600160a01b039460181c8516331461286e5760088301546002546040516323b872dd60e01b81523360048201523060248201526044810183905291968a9183916064918391600091165af180156103fe576126679160009161285157506130a6565b600a8301336bffffffffffffffffffffffff60a01b82541617905584600b840155600c830191865191821161283d57506126a18254612d44565b601f81116127f7575b5087601f821160011461276657926103cc9592827f4bd7c92eba598ee7ab038ac4a59ab8feb6d65703229128829d6cdd17959b121f9a96936127439a999660009161275b575b508160011b916000199060031b1c19161790555b600d4291015533600052600f84526040600020612722838254612f16565b9055600360ff19825416179055604051958695608087526080870190612e24565b92339086015260408501528382036060850152612e24565b90508601518c6126f0565b601f1982169083600052896000209160005b8181106127e05750836127439a9996936103cc9996937f4bd7c92eba598ee7ab038ac4a59ab8feb6d65703229128829d6cdd17959b121f9d9996600194106127c7575b5050811b019055612704565b88015160001960f88460031b161c191690558c806127bb565b91928b60018192868d015181550194019201612778565b8260005288600020601f830160051c8101918a8410612833575b601f0160051c01905b81811061282757506126aa565b6000815560010161281a565b9091508190612811565b634e487b7160e01b60009081526041600452fd5b61286891508a3d8c116103f7576103e88183612c5a565b8a612078565b60405162461bcd60e51b8152600481018990526015818401527421b0b73737ba1031b430b63632b733b29039b2b63360591b6044820152606490fd5b60405162461bcd60e51b81526004810189905260158184015274111a5cdc1d5d19481dda5b991bddc818db1bdcd959605a1b6044820152606490fd5b82634e487b7160e01b60005260116004526000fd5b82634e487b7160e01b60005260216004526000fd5b34610582576020366003190112610582576001600160a01b03612931612c44565b16600052600f6020526020604060002054604051908152f35b3461058257600036600319011261058257602060405160648152f35b3461058257602080600319360112610582576004356001600160401b03811161058257612997903690600401612c7b565b6129c8826040516129b760ff855192848181890195610211818389612d12565b604051809381928651928391612d12565b8101600a8152030190209060068201805460ff8116600581101561056c5760026129f291146130e9565b600784015461a8c08101809111611e7057421115612b50579360ff6103cc927fe2b1d963f1ec20d10d097a5196a0a9e7b5ff982020b428f20918fe52a2234edf7f175b08e6ee8bbceb85780e790adca99ec4fbd3bb124ffbf50bd35ed4375a69ac9760018060a01b039060181c169360088801549480600052600f82526040600020612a7f878254612f8e565b9055600e8901956064612a9a600f89549c019b8c5490612f16565b0492838281151580612b44575b612b24575b50506009908360005252612ac66040600020918254612f16565b9055835461ff001986199190911660041790811660b89190911c8616151560081b61ff0016178455612afe6040519283928a84613148565b0390a15460081c16938415612b1c5750545b60405193849384613124565b905054612b10565b600992935090612b3a91610bfa82600654612f8e565b919050838d612aac565b50816006541015612aa7565b60405162461bcd60e51b815260048101869052600d60248201526c57696e646f772061637469766560981b6044820152606490fd5b34610582576000366003190112610582576020600454604051908152f35b34610582576000366003190112610582576002546040516001600160a01b039091168152602090f35b34610582576020366003190112610582576004356001600160401b03811161058257612c06612c016020923690600401612c7b565b61305a565b604051908152f35b34610582576020366003190112610582576020906001600160a01b03612c32612c44565b16600052600982526040600020548152f35b600435906001600160a01b038216820361058257565b90601f801991011681019081106001600160401b0382111761189657604052565b81601f82011215610582578035906001600160401b0382116118965760405192612caf601f8401601f191660200185612c5a565b8284526020838301011161058257816000926020809301838601378301015290565b604060031982011261058257600435906001600160401b03821161058257612cfb91600401612c7b565b906024356001600160a01b03811681036105825790565b60005b838110612d255750506000910152565b8181015183820152602001612d15565b60243590811515820361058257565b90600182811c92168015612d74575b6020831014612d5e57565b634e487b7160e01b600052602260045260246000fd5b91607f1691612d53565b9060405191826000825492612d9284612d44565b908184526001948581169081600014612e015750600114612dbe575b5050612dbc92500383612c5a565b565b9093915060005260209081600020936000915b818310612de9575050612dbc93508201013880612dae565b85548884018501529485019487945091830191612dd1565b915050612dbc94506020925060ff191682840152151560051b8201013880612dae565b90602091612e3d81518092818552858086019101612d12565b601f01601f1916010190565b15612e5057565b60405162461bcd60e51b815260206004820152600a60248201526927b7363c9030b236b4b760b11b6044820152606490fd5b15612e8957565b60405162461bcd60e51b815260206004820152600f60248201526e496e76616c6964206164647265737360881b6044820152606490fd5b90816020910312610582575180151581036105825790565b15612edf57565b60405162461bcd60e51b815260206004820152600f60248201526e151c985b9cd9995c8819985a5b1959608a1b6044820152606490fd5b91908201809211611e7057565b8115612f2d570490565b634e487b7160e01b600052601260045260246000fd5b15612f4a57565b60405162461bcd60e51b8152602060048201526009602482015268139bc81b585c9ad95d60ba1b6044820152606490fd5b81810292918115918404141715611e7057565b91908203918211611e7057565b805490680100000000000000008210156118965760018201808255821015612fe7576000526020600020019060018060a01b03166bffffffffffffffffffffffff60a01b825416179055565b634e487b7160e01b600052603260045260246000fd5b60009080421160001461305457613015915042612f8e565b8181101561304d576130279082612f8e565b9081603202916032830403611e705761303f91612f23565b60640180606411611e705790565b5050606490565b50613015565b6130916130786020600a938160405193828580945193849201612d12565b810185815203019020600f600e82015491015490612f16565b04624c4b408082106130a1575090565b905090565b156130ad57565b60405162461bcd60e51b8152602060048201526014602482015273109bdb99081d1c985b9cd9995c8819985a5b195960621b6044820152606490fd5b156130f057565b60405162461bcd60e51b815260206004820152600c60248201526b139bdd081c1c9bdc1bdcd95960a21b6044820152606490fd5b61313c60409295949395606083526060830190612e24565b94151560208201520152565b61316060409295949395606083526060830190612e24565b6001600160a01b0390951660208201520152565b1561317b57565b60405162461bcd60e51b815260206004820152600c60248201526b139bdd081c995cdbdb1d995960a21b6044820152606490fd5b156131b657565b60405162461bcd60e51b81526020600482015260076024820152664e6f206665657360c81b6044820152606490fd5b156131ec57565b60405162461bcd60e51b815260206004820152600860248201526714995cdbdb1d995960c21b6044820152606490fdfea2646970667358221220e139467f49fd16ce651a4ed770ff3530c68bfee7c33abff293a39dfdadb6df5264736f6c63430008140033","opcodes":"PUSH1 0x80 CALLVALUE PUSH3 0x13A JUMPI PUSH1 0x1F PUSH3 0x33BD CODESIZE DUP2 SWAP1 SUB SWAP2 DUP3 ADD PUSH1 0x1F NOT AND DUP4 ADD SWAP2 PUSH1 0x1 PUSH1 0x1 PUSH1 0x40 SHL SUB DUP4 GT DUP5 DUP5 LT OR PUSH3 0x13F JUMPI DUP1 DUP5 SWAP3 PUSH1 0x60 SWAP5 PUSH1 0x40 MSTORE DUP4 CODECOPY DUP2 ADD SUB SLT PUSH3 0x13A JUMPI PUSH3 0x4D DUP2 PUSH3 0x155 JUMP JUMPDEST SWAP1 PUSH3 0x6A PUSH1 0x40 PUSH3 0x62 PUSH1 0x20 DUP5 ADD PUSH3 0x155 JUMP JUMPDEST SWAP3 ADD PUSH3 0x155 JUMP JUMPDEST PUSH2 0x3E8 PUSH1 0x3 SSTORE PUSH2 0x1F4 PUSH1 0x4 DUP2 SWAP1 SSTORE PUSH1 0x5 SSTORE PUSH1 0x1 PUSH1 0x1 PUSH1 0xA0 SHL SUB SWAP2 DUP3 AND SWAP3 SWAP1 DUP4 ISZERO PUSH3 0x105 JUMPI DUP3 AND DUP1 ISZERO PUSH3 0xCD JUMPI PUSH1 0x1 DUP1 PUSH1 0xA0 SHL SUB NOT SWAP4 DUP5 PUSH1 0x0 SLOAD AND OR PUSH1 0x0 SSTORE DUP4 PUSH1 0x1 SLOAD AND OR PUSH1 0x1 SSTORE AND SWAP1 PUSH1 0x2 SLOAD AND OR PUSH1 0x2 SSTORE PUSH1 0x40 MLOAD PUSH2 0x3252 SWAP1 DUP2 PUSH3 0x16B DUP3 CODECOPY RETURN JUMPDEST PUSH1 0x40 MLOAD PUSH3 0x461BCD PUSH1 0xE5 SHL DUP2 MSTORE PUSH1 0x20 PUSH1 0x4 DUP3 ADD MSTORE PUSH1 0x10 PUSH1 0x24 DUP3 ADD MSTORE PUSH16 0x496E76616C6964205472656173757279 PUSH1 0x80 SHL PUSH1 0x44 DUP3 ADD MSTORE PUSH1 0x64 SWAP1 REVERT JUMPDEST PUSH1 0x40 MLOAD PUSH3 0x461BCD PUSH1 0xE5 SHL DUP2 MSTORE PUSH1 0x20 PUSH1 0x4 DUP3 ADD MSTORE PUSH1 0xD PUSH1 0x24 DUP3 ADD MSTORE PUSH13 0x24B73B30B634B21020B236B4B7 PUSH1 0x99 SHL PUSH1 0x44 DUP3 ADD MSTORE PUSH1 0x64 SWAP1 REVERT JUMPDEST PUSH1 0x0 DUP1 REVERT JUMPDEST PUSH4 0x4E487B71 PUSH1 0xE0 SHL PUSH1 0x0 MSTORE PUSH1 0x41 PUSH1 0x4 MSTORE PUSH1 0x24 PUSH1 0x0 REVERT JUMPDEST MLOAD SWAP1 PUSH1 0x1 PUSH1 0x1 PUSH1 0xA0 SHL SUB DUP3 AND DUP3 SUB PUSH3 0x13A JUMPI JUMP INVALID PUSH2 0x140 DUP1 PUSH1 0x40 MSTORE PUSH1 0x4 CALLDATASIZE LT ISZERO PUSH2 0x14 JUMPI PUSH1 0x0 DUP1 REVERT JUMPDEST PUSH1 0xE0 PUSH1 0x0 CALLDATALOAD DUP2 SHR SWAP2 DUP3 PUSH3 0x6FB9FF EQ PUSH2 0x2C0E JUMPI POP DUP2 PUSH4 0xE90AEB2 EQ PUSH2 0x2BCC JUMPI DUP2 PUSH4 0x11EAC855 EQ PUSH2 0x2BA3 JUMPI DUP2 PUSH4 0x17773EBB EQ PUSH2 0x2B85 JUMPI DUP2 PUSH4 0x2023115D EQ PUSH2 0x2966 JUMPI DUP2 PUSH4 0x218B5382 EQ PUSH2 0x294A JUMPI DUP2 PUSH4 0x245E272F EQ PUSH2 0x2910 JUMPI DUP2 PUSH4 0x287137B1 EQ PUSH2 0x2541 JUMPI DUP2 PUSH4 0x3CFF3549 EQ PUSH2 0x2500 JUMPI DUP2 PUSH4 0x3FED6CED EQ PUSH2 0x249F JUMPI DUP2 PUSH4 0x5FC5E020 EQ PUSH2 0x247C JUMPI DUP2 PUSH4 0x61D027B3 EQ PUSH2 0x2453 JUMPI DUP2 PUSH4 0x66EB9CEC EQ PUSH2 0x2355 JUMPI DUP2 PUSH4 0x67084EB3 EQ PUSH2 0x2337 JUMPI DUP2 PUSH4 0x704B6C02 EQ PUSH2 0x22A8 JUMPI DUP2 PUSH4 0x72264056 EQ PUSH2 0x1F65 JUMPI DUP2 PUSH4 0x7D191E06 EQ PUSH2 0x1A91 JUMPI DUP2 PUSH4 0x896BDAC8 EQ PUSH2 0x1A57 JUMPI DUP2 PUSH4 0x9A826EB7 EQ PUSH2 0x19EB JUMPI DUP2 PUSH4 0x9BD1D513 EQ PUSH2 0x14C4 JUMPI DUP2 PUSH4 0xA07C1633 EQ PUSH2 0x14A6 JUMPI DUP2 PUSH4 0xC8EAEF19 EQ PUSH2 0x1324 JUMPI DUP2 PUSH4 0xD73792A9 EQ PUSH2 0x1307 JUMPI DUP2 PUSH4 0xDBEAE54C EQ PUSH2 0x1286 JUMPI DUP2 PUSH4 0xDFDC5F77 EQ PUSH2 0x120B JUMPI DUP2 PUSH4 0xE1CD04B4 EQ PUSH2 0x1155 JUMPI DUP2 PUSH4 0xE1E90AB3 EQ PUSH2 0xEC0 JUMPI DUP2 PUSH4 0xE4A28A52 EQ PUSH2 0xEA4 JUMPI DUP2 PUSH4 0xE6CD7AB6 EQ PUSH2 0xE6A JUMPI DUP2 PUSH4 0xE7785FFB EQ PUSH2 0xCB0 JUMPI DUP2 PUSH4 0xEE59D240 EQ PUSH2 0xC92 JUMPI DUP2 PUSH4 0xEF03C10E EQ PUSH2 0x9BC JUMPI DUP2 PUSH4 0xEFBDA661 EQ PUSH2 0x766 JUMPI POP DUP1 PUSH4 0xF0F44260 EQ PUSH2 0x6D2 JUMPI DUP1 PUSH4 0xF585DC57 EQ PUSH2 0x6B5 JUMPI DUP1 PUSH4 0xF677B4D4 EQ PUSH2 0x5B0 JUMPI DUP1 PUSH4 0xF851A440 EQ PUSH2 0x587 JUMPI PUSH4 0xFDBCF125 EQ PUSH2 0x1C3 JUMPI PUSH1 0x0 DUP1 REVERT JUMPDEST CALLVALUE PUSH2 0x582 JUMPI PUSH1 0x20 DUP1 PUSH1 0x3 NOT CALLDATASIZE ADD SLT PUSH2 0x582 JUMPI PUSH1 0x4 CALLDATALOAD PUSH1 0x1 PUSH1 0x1 PUSH1 0x40 SHL SUB DUP2 GT PUSH2 0x582 JUMPI PUSH2 0x1F4 SWAP1 CALLDATASIZE SWAP1 PUSH1 0x4 ADD PUSH2 0x2C7B JUMP JUMPDEST PUSH1 0x40 MLOAD SWAP1 PUSH2 0x222 PUSH1 0xFF DUP3 MLOAD SWAP4 DUP6 DUP2 DUP2 DUP7 ADD SWAP7 PUSH2 0x211 DUP2 DUP4 DUP11 PUSH2 0x2D12 JUMP JUMPDEST DUP2 ADD PUSH1 0xB DUP2 MSTORE SUB ADD SWAP1 KECCAK256 SLOAD AND PUSH2 0x2F43 JUMP JUMPDEST PUSH1 0x40 MLOAD DUP4 DUP2 DUP4 MLOAD PUSH2 0x234 DUP2 DUP4 DUP9 PUSH2 0x2D12 JUMP JUMPDEST DUP2 ADD PUSH1 0xA DUP2 MSTORE SUB ADD SWAP1 KECCAK256 PUSH1 0x6 DUP2 ADD SLOAD SWAP1 PUSH1 0xFF DUP3 AND PUSH1 0x5 DUP2 LT ISZERO PUSH2 0x56C JUMPI PUSH1 0x4 PUSH2 0x25D SWAP2 EQ PUSH2 0x3174 JUMP JUMPDEST PUSH1 0x40 MLOAD DUP6 DUP2 DUP6 MLOAD PUSH2 0x26F DUP2 DUP4 DUP11 PUSH2 0x2D12 JUMP JUMPDEST DUP2 ADD PUSH1 0xE DUP2 MSTORE SUB ADD SWAP1 KECCAK256 CALLER PUSH1 0x0 MSTORE DUP6 MSTORE PUSH1 0xFF PUSH1 0x40 PUSH1 0x0 KECCAK256 SLOAD AND PUSH2 0x535 JUMPI PUSH1 0x0 PUSH1 0x40 MLOAD DUP7 DUP2 DUP7 MLOAD PUSH2 0x2A0 DUP2 DUP4 DUP12 PUSH2 0x2D12 JUMP JUMPDEST DUP2 ADD PUSH1 0xC DUP2 MSTORE SUB ADD SWAP1 KECCAK256 CALLER PUSH1 0x0 MSTORE DUP7 MSTORE PUSH1 0x40 PUSH1 0x0 KECCAK256 SWAP2 PUSH1 0x40 MLOAD DUP8 DUP2 DUP8 MLOAD PUSH2 0x2C8 DUP2 DUP4 DUP13 PUSH2 0x2D12 JUMP JUMPDEST DUP2 ADD PUSH1 0xD DUP2 MSTORE SUB ADD SWAP1 KECCAK256 CALLER PUSH1 0x0 MSTORE DUP8 MSTORE PUSH1 0x40 PUSH1 0x0 KECCAK256 SWAP4 PUSH1 0xFF DUP2 PUSH1 0x10 SHR AND PUSH1 0x0 EQ PUSH2 0x476 JUMPI POP POP POP PUSH2 0x2FC DUP2 SLOAD DUP4 SLOAD SWAP1 PUSH2 0x2F16 JUMP JUMPDEST SWAP4 JUMPDEST DUP5 ISZERO PUSH2 0x43E JUMPI DUP6 PUSH2 0x31A SWAP2 PUSH1 0x40 MLOAD DUP1 SWAP4 DUP2 SWAP3 DUP9 MLOAD SWAP3 DUP4 SWAP2 PUSH2 0x2D12 JUMP JUMPDEST DUP2 ADD PUSH1 0xE DUP2 MSTORE SUB ADD SWAP1 KECCAK256 CALLER PUSH1 0x0 MSTORE DUP6 MSTORE PUSH1 0x40 PUSH1 0x0 KECCAK256 PUSH1 0x1 PUSH1 0xFF NOT DUP3 SLOAD AND OR SWAP1 SSTORE DUP1 SLOAD PUSH2 0x424 JUMPI JUMPDEST POP DUP1 SLOAD PUSH2 0x40A JUMPI JUMPDEST POP PUSH1 0x2 SLOAD PUSH1 0x40 MLOAD PUSH4 0xA9059CBB PUSH1 0xE0 SHL DUP2 MSTORE CALLER PUSH1 0x4 DUP3 ADD MSTORE PUSH1 0x24 DUP2 ADD DUP5 SWAP1 MSTORE SWAP4 SWAP1 DUP2 SWAP1 DUP6 SWAP1 PUSH1 0x44 SWAP1 DUP3 SWAP1 PUSH1 0x0 SWAP1 PUSH1 0x1 PUSH1 0x1 PUSH1 0xA0 SHL SUB AND GAS CALL DUP1 ISZERO PUSH2 0x3FE JUMPI PUSH32 0x2F0B27A029BCEA8B4CD6E1F002BA498BD37B903B56578A04F1576CD25C09DE53 SWAP5 PUSH2 0x3BB SWAP3 PUSH1 0x0 SWAP3 PUSH2 0x3D1 JUMPI JUMPDEST POP POP PUSH2 0x2ED8 JUMP JUMPDEST PUSH2 0x3CC PUSH1 0x40 MLOAD SWAP3 DUP4 SWAP3 CALLER SWAP1 DUP5 PUSH2 0x3148 JUMP JUMPDEST SUB SWAP1 LOG1 STOP JUMPDEST PUSH2 0x3F0 SWAP3 POP DUP1 RETURNDATASIZE LT PUSH2 0x3F7 JUMPI JUMPDEST PUSH2 0x3E8 DUP2 DUP4 PUSH2 0x2C5A JUMP JUMPDEST DUP2 ADD SWAP1 PUSH2 0x2EC0 JUMP JUMPDEST CODESIZE DUP1 PUSH2 0x3B4 JUMP JUMPDEST POP RETURNDATASIZE PUSH2 0x3DE JUMP JUMPDEST PUSH1 0x40 MLOAD RETURNDATASIZE PUSH1 0x0 DUP3 RETURNDATACOPY RETURNDATASIZE SWAP1 REVERT JUMPDEST PUSH1 0x2 ADD DUP1 SLOAD PUSH1 0xFF PUSH1 0xA0 SHL NOT AND PUSH1 0x1 PUSH1 0xA0 SHL OR SWAP1 SSTORE CODESIZE PUSH2 0x349 JUMP JUMPDEST PUSH1 0x2 ADD DUP1 SLOAD PUSH1 0xFF PUSH1 0xA0 SHL NOT AND PUSH1 0x1 PUSH1 0xA0 SHL OR SWAP1 SSTORE CODESIZE PUSH2 0x341 JUMP JUMPDEST PUSH1 0x40 MLOAD PUSH3 0x461BCD PUSH1 0xE5 SHL DUP2 MSTORE PUSH1 0x4 DUP2 ADD DUP8 SWAP1 MSTORE PUSH1 0x10 PUSH1 0x24 DUP3 ADD MSTORE PUSH16 0x4E6F7468696E6720746F20636C61696D PUSH1 0x80 SHL PUSH1 0x44 DUP3 ADD MSTORE PUSH1 0x64 SWAP1 REVERT JUMPDEST SWAP2 SWAP6 SWAP2 PUSH1 0x8 SHR PUSH1 0xFF AND DUP1 ISZERO PUSH2 0x52E JUMPI DUP4 SWAP2 JUMPDEST DUP3 SLOAD ISZERO ISZERO DUP1 PUSH2 0x521 JUMPI JUMPDEST PUSH2 0x49F JUMPI JUMPDEST POP POP POP PUSH2 0x2FE JUMP JUMPDEST PUSH2 0x4E3 PUSH2 0x4B5 PUSH1 0xE DUP4 ADD SLOAD PUSH1 0xF DUP5 ADD SLOAD SWAP1 PUSH2 0x2F16 JUMP JUMPDEST PUSH2 0x2710 PUSH2 0x4DC PUSH2 0x4D6 PUSH2 0x4CD PUSH1 0x3 SLOAD PUSH1 0x4 SLOAD SWAP1 PUSH2 0x2F16 JUMP JUMPDEST PUSH1 0x5 SLOAD SWAP1 PUSH2 0x2F16 JUMP JUMPDEST DUP4 PUSH2 0x2F7B JUMP JUMPDEST DIV SWAP1 PUSH2 0x2F8E JUMP JUMPDEST SWAP2 ISZERO PUSH2 0x517 JUMPI PUSH1 0x12 ADD SLOAD SWAP2 JUMPDEST DUP3 ISZERO PUSH2 0x497 JUMPI PUSH2 0x50E SWAP4 SWAP8 POP SWAP1 PUSH1 0x1 PUSH2 0x509 SWAP3 ADD SLOAD PUSH2 0x2F7B JUMP JUMPDEST PUSH2 0x2F23 JUMP JUMPDEST SWAP4 CODESIZE DUP1 DUP1 PUSH2 0x497 JUMP JUMPDEST PUSH1 0x13 ADD SLOAD SWAP2 PUSH2 0x4EF JUMP JUMPDEST POP PUSH1 0x1 DUP4 ADD SLOAD ISZERO ISZERO PUSH2 0x492 JUMP JUMPDEST DUP5 SWAP2 PUSH2 0x488 JUMP JUMPDEST PUSH1 0x40 MLOAD PUSH3 0x461BCD PUSH1 0xE5 SHL DUP2 MSTORE PUSH1 0x4 DUP2 ADD DUP7 SWAP1 MSTORE PUSH1 0xF PUSH1 0x24 DUP3 ADD MSTORE PUSH15 0x105B1C9958591E4818DB185A5B5959 PUSH1 0x8A SHL PUSH1 0x44 DUP3 ADD MSTORE PUSH1 0x64 SWAP1 REVERT JUMPDEST PUSH4 0x4E487B71 PUSH1 0xE0 SHL PUSH1 0x0 MSTORE PUSH1 0x21 PUSH1 0x4 MSTORE PUSH1 0x24 PUSH1 0x0 REVERT JUMPDEST PUSH1 0x0 DUP1 REVERT JUMPDEST CALLVALUE PUSH2 0x582 JUMPI PUSH1 0x0 CALLDATASIZE PUSH1 0x3 NOT ADD SLT PUSH2 0x582 JUMPI PUSH1 0x0 SLOAD PUSH1 0x40 MLOAD PUSH1 0x1 PUSH1 0x1 PUSH1 0xA0 SHL SUB SWAP1 SWAP2 AND DUP2 MSTORE PUSH1 0x20 SWAP1 RETURN JUMPDEST CALLVALUE PUSH2 0x582 JUMPI PUSH1 0x0 CALLDATASIZE PUSH1 0x3 NOT ADD SLT PUSH2 0x582 JUMPI PUSH2 0x630 PUSH1 0x1 DUP1 PUSH1 0xA0 SHL SUB PUSH2 0x5DA DUP2 PUSH1 0x0 SLOAD AND CALLER EQ PUSH2 0x2E49 JUMP JUMPDEST PUSH1 0x6 SLOAD SWAP1 PUSH2 0x5E9 DUP3 ISZERO ISZERO PUSH2 0x31AF JUMP JUMPDEST PUSH1 0x0 PUSH1 0x6 DUP2 SWAP1 SSTORE PUSH1 0x2 SLOAD PUSH1 0x1 SLOAD PUSH1 0x40 MLOAD PUSH4 0xA9059CBB PUSH1 0xE0 SHL DUP2 MSTORE SWAP1 DUP5 AND PUSH1 0x1 PUSH1 0x1 PUSH1 0xA0 SHL SUB AND PUSH1 0x4 DUP3 ADD MSTORE PUSH1 0x24 DUP2 ADD DUP6 SWAP1 MSTORE SWAP5 PUSH1 0x20 SWAP3 DUP7 SWAP3 DUP6 AND SWAP2 DUP4 SWAP2 SWAP1 DUP3 SWAP1 PUSH1 0x44 DUP3 ADD SWAP1 JUMP JUMPDEST SUB SWAP3 GAS CALL SWAP3 DUP4 ISZERO PUSH2 0x3FE JUMPI PUSH32 0x19F7A31AE4185F3274E252A5A78EC36BA85C01300BC8A800D41D79BE74662A8E SWAP4 PUSH2 0x66F SWAP2 PUSH1 0x0 SWAP2 PUSH2 0x697 JUMPI JUMPDEST POP PUSH2 0x2ED8 JUMP JUMPDEST PUSH1 0x1 SLOAD PUSH1 0x40 DUP1 MLOAD SWAP3 SWAP1 SWAP2 AND PUSH1 0x1 PUSH1 0x1 PUSH1 0xA0 SHL SUB AND DUP3 MSTORE PUSH1 0x20 DUP3 ADD SWAP3 SWAP1 SWAP3 MSTORE SWAP1 DUP2 SWAP1 DUP2 ADD PUSH2 0x3CC JUMP JUMPDEST PUSH2 0x6AF SWAP2 POP PUSH1 0x20 RETURNDATASIZE DUP2 GT PUSH2 0x3F7 JUMPI PUSH2 0x3E8 DUP2 DUP4 PUSH2 0x2C5A JUMP JUMPDEST DUP6 PUSH2 0x669 JUMP JUMPDEST CALLVALUE PUSH2 0x582 JUMPI PUSH1 0x0 CALLDATASIZE PUSH1 0x3 NOT ADD SLT PUSH2 0x582 JUMPI PUSH1 0x20 PUSH1 0x40 MLOAD PUSH2 0xA8C0 DUP2 MSTORE RETURN JUMPDEST CALLVALUE PUSH2 0x582 JUMPI PUSH1 0x20 CALLDATASIZE PUSH1 0x3 NOT ADD SLT PUSH2 0x582 JUMPI PUSH2 0x6EB PUSH2 0x2C44 JUMP JUMPDEST PUSH1 0x0 SLOAD PUSH1 0x1 PUSH1 0x1 PUSH1 0xA0 SHL SUB SWAP1 PUSH2 0x704 SWAP1 DUP3 AND CALLER EQ PUSH2 0x2E49 JUMP JUMPDEST PUSH32 0x4AB5BE82436D353E61CA18726E984E561F5C1CC7C6D38B29D2553C790434705A DUP2 DUP4 AND SWAP3 PUSH2 0x734 DUP5 ISZERO ISZERO PUSH2 0x2E82 JUMP JUMPDEST PUSH1 0x1 SLOAD PUSH1 0x40 DUP1 MLOAD SWAP5 DUP3 AND PUSH1 0x1 PUSH1 0x1 PUSH1 0xA0 SHL SUB SWAP1 DUP2 AND DUP7 MSTORE SWAP3 SWAP1 SWAP3 AND PUSH1 0x20 DUP6 ADD MSTORE SWAP3 LOG1 PUSH1 0x1 PUSH1 0x1 PUSH1 0xA0 SHL SUB NOT AND OR PUSH1 0x1 SSTORE STOP JUMPDEST CALLVALUE PUSH2 0x582 JUMPI PUSH1 0x20 CALLDATASIZE PUSH1 0x3 NOT ADD SLT PUSH2 0x582 JUMPI PUSH1 0x4 CALLDATALOAD PUSH1 0x1 PUSH1 0x1 PUSH1 0x40 SHL SUB DUP2 GT PUSH2 0x582 JUMPI PUSH2 0x796 SWAP1 CALLDATASIZE SWAP1 PUSH1 0x4 ADD PUSH2 0x2C7B JUMP JUMPDEST PUSH1 0x40 MLOAD DUP2 DUP2 DUP1 SWAP4 MLOAD PUSH1 0x20 DUP2 SWAP4 ADD SWAP2 PUSH2 0x7AD SWAP3 PUSH2 0x2D12 JUMP JUMPDEST DUP2 ADD PUSH1 0xA DUP2 MSTORE SUB PUSH1 0x20 ADD SWAP1 KECCAK256 DUP1 DUP1 PUSH2 0x7C4 DUP2 PUSH2 0x2D7E JUMP JUMPDEST PUSH1 0x1 DUP3 ADD SLOAD PUSH1 0x1 PUSH1 0x1 PUSH1 0xA0 SHL SUB AND PUSH2 0x100 MSTORE PUSH2 0x7E2 PUSH1 0x2 DUP4 ADD PUSH2 0x2D7E JUMP JUMPDEST PUSH1 0x3 DUP4 ADD SLOAD PUSH1 0x4 DUP5 ADD SLOAD PUSH1 0x5 DUP6 ADD SLOAD PUSH1 0x6 DUP7 ADD SLOAD PUSH1 0x7 DUP8 ADD SLOAD PUSH1 0x80 MSTORE PUSH1 0x8 DUP8 ADD SLOAD SWAP5 SWAP3 SWAP4 DUP11 SWAP4 SWAP3 PUSH2 0x815 PUSH1 0x9 DUP11 ADD PUSH2 0x2D7E JUMP JUMPDEST SWAP1 PUSH1 0x1 PUSH1 0xA0 SHL PUSH1 0x1 SWAP1 SUB PUSH1 0xA DUP12 ADD SLOAD AND SWAP7 PUSH1 0xB DUP12 ADD SLOAD SWAP6 PUSH1 0xC DUP13 ADD PUSH2 0x839 SWAP1 PUSH2 0x2D7E JUMP JUMPDEST SWAP8 PUSH1 0xD DUP14 ADD SLOAD SWAP1 MSTORE PUSH1 0xE DUP13 ADD SLOAD SWAP11 PUSH1 0xF DUP14 ADD SLOAD SWAP13 PUSH1 0x10 ADD SLOAD SWAP14 PUSH1 0x11 ADD SLOAD SWAP15 PUSH1 0x12 DUP2 ADD SLOAD PUSH1 0xA0 MSTORE PUSH1 0x13 ADD SLOAD PUSH1 0xC0 MSTORE PUSH1 0x40 MLOAD DUP1 PUSH2 0x120 MSTORE PUSH2 0x300 DUP1 SWAP2 MSTORE PUSH2 0x120 MLOAD ADD PUSH2 0x882 SWAP2 PUSH2 0x2E24 JUMP JUMPDEST PUSH2 0x100 MLOAD PUSH2 0x120 MLOAD PUSH1 0x20 ADD MSTORE PUSH2 0x120 MLOAD DUP1 DUP3 SUB SWAP1 PUSH1 0x40 ADD MSTORE PUSH2 0x8A3 SWAP2 PUSH2 0x2E24 JUMP JUMPDEST SWAP4 PUSH2 0x120 MLOAD PUSH1 0x60 ADD MSTORE PUSH2 0x120 MLOAD PUSH1 0x80 ADD MSTORE PUSH2 0x120 MLOAD PUSH1 0xA0 ADD MSTORE PUSH1 0xFF DUP4 AND SWAP7 PUSH1 0x5 DUP9 LT ISZERO PUSH2 0x56C JUMPI PUSH1 0xFF PUSH2 0x946 SWAP5 DUP15 PUSH2 0x96B SWAP11 PUSH1 0xC0 PUSH2 0x120 MLOAD ADD MSTORE DUP3 DUP3 PUSH1 0x8 SHR AND ISZERO ISZERO SWAP1 PUSH2 0x120 MLOAD ADD MSTORE DUP2 DUP2 PUSH1 0x10 SHR AND ISZERO ISZERO PUSH2 0x100 PUSH2 0x120 MLOAD ADD MSTORE PUSH1 0x1 DUP1 PUSH1 0xA0 SHL SUB DUP2 PUSH1 0x18 SHR AND PUSH2 0x120 DUP1 MLOAD ADD MSTORE PUSH1 0xB8 SHR AND ISZERO ISZERO PUSH2 0x140 PUSH2 0x120 MLOAD ADD MSTORE PUSH1 0x80 MLOAD PUSH2 0x160 PUSH2 0x120 MLOAD ADD MSTORE PUSH2 0x180 PUSH2 0x120 MLOAD ADD MSTORE PUSH2 0x120 MLOAD PUSH2 0x1A0 DUP2 DUP5 SUB SWAP2 ADD MSTORE PUSH2 0x2E24 JUMP JUMPDEST SWAP3 PUSH2 0x1C0 PUSH2 0x120 MLOAD ADD MSTORE PUSH2 0x1E0 PUSH2 0x120 MLOAD ADD MSTORE PUSH2 0x120 MLOAD PUSH2 0x200 DUP2 DUP5 SUB SWAP2 ADD MSTORE PUSH2 0x2E24 JUMP JUMPDEST SWAP5 MLOAD PUSH2 0x220 PUSH2 0x120 MLOAD ADD MSTORE PUSH2 0x240 PUSH2 0x120 MLOAD ADD MSTORE PUSH2 0x260 PUSH2 0x120 MLOAD ADD MSTORE PUSH2 0x280 PUSH2 0x120 MLOAD ADD MSTORE PUSH2 0x2A0 PUSH2 0x120 MLOAD ADD MSTORE PUSH1 0xA0 MLOAD PUSH2 0x2C0 PUSH2 0x120 MLOAD ADD MSTORE PUSH1 0xC0 MLOAD PUSH2 0x2E0 PUSH2 0x120 MLOAD ADD MSTORE PUSH2 0x120 MLOAD DUP1 SWAP2 SUB SWAP1 RETURN JUMPDEST CALLVALUE PUSH2 0x582 JUMPI PUSH1 0x60 CALLDATASIZE PUSH1 0x3 NOT ADD SLT PUSH2 0x582 JUMPI PUSH1 0x4 CALLDATALOAD PUSH1 0x1 PUSH1 0x1 PUSH1 0x40 SHL SUB DUP2 GT PUSH2 0x582 JUMPI PUSH2 0x9EC SWAP1 CALLDATASIZE SWAP1 PUSH1 0x4 ADD PUSH2 0x2C7B JUMP JUMPDEST PUSH1 0x1 PUSH1 0x1 PUSH1 0xA0 SHL SUB SWAP1 PUSH1 0x24 CALLDATALOAD DUP3 DUP2 AND DUP2 SUB PUSH2 0x582 JUMPI PUSH1 0x44 CALLDATALOAD ISZERO ISZERO PUSH1 0x44 CALLDATALOAD SUB PUSH2 0x582 JUMPI PUSH2 0xA1D DUP4 PUSH1 0x0 SLOAD AND CALLER EQ PUSH2 0x2E49 JUMP JUMPDEST PUSH2 0xA4F PUSH1 0x20 PUSH1 0x40 MLOAD PUSH2 0xA3E PUSH1 0xFF DUP7 MLOAD SWAP3 DUP5 DUP2 DUP2 DUP11 ADD SWAP6 PUSH2 0x211 DUP2 DUP4 DUP10 PUSH2 0x2D12 JUMP JUMPDEST PUSH1 0x40 MLOAD DUP1 SWAP4 DUP2 SWAP3 DUP8 MLOAD SWAP3 DUP4 SWAP2 PUSH2 0x2D12 JUMP JUMPDEST DUP2 ADD PUSH1 0xA DUP2 MSTORE SUB ADD SWAP1 KECCAK256 SWAP1 PUSH1 0x6 DUP3 ADD SLOAD PUSH1 0xFF DUP2 AND PUSH1 0x5 DUP2 LT ISZERO PUSH2 0x56C JUMPI PUSH1 0x3 SUB PUSH2 0xC5C JUMPI PUSH1 0x18 SHR DUP5 AND DUP2 DUP6 AND DUP2 EQ DUP1 ISZERO PUSH2 0xC4B JUMPI JUMPDEST ISZERO PUSH2 0xC15 JUMPI PUSH32 0x175B08E6EE8BBCEB85780E790ADCA99EC4FBD3BB124FFBF50BD35ED4375A69AC SWAP5 PUSH32 0x38B360C485B4BED5C0C2E2AB639B104B4E002DBF7351D0D4431E48B6D9E2BFCE SWAP3 PUSH1 0x8 DUP6 ADD SLOAD PUSH2 0xAE0 PUSH1 0xB DUP8 ADD SLOAD DUP3 PUSH2 0x2F16 JUMP JUMPDEST SWAP4 PUSH1 0x0 MSTORE PUSH1 0xF PUSH1 0x20 MSTORE PUSH2 0xAF9 PUSH1 0x40 PUSH1 0x0 KECCAK256 SWAP2 DUP3 SLOAD PUSH2 0x2F8E JUMP JUMPDEST SWAP1 SSTORE PUSH1 0xB DUP6 ADD SLOAD DUP3 PUSH1 0xA DUP8 ADD SLOAD AND PUSH1 0x0 MSTORE PUSH1 0xF PUSH1 0x20 MSTORE PUSH2 0xB1F PUSH1 0x40 PUSH1 0x0 KECCAK256 SWAP2 DUP3 SLOAD PUSH2 0x2F8E JUMP JUMPDEST SWAP1 SSTORE PUSH1 0x64 PUSH2 0xB36 PUSH1 0xE DUP8 ADD SLOAD PUSH1 0xF DUP9 ADD SLOAD SWAP1 PUSH2 0x2F16 JUMP JUMPDEST DIV DUP1 ISZERO ISZERO DUP1 PUSH2 0xC09 JUMPI JUMPDEST PUSH2 0xBE9 JUMPI JUMPDEST POP DUP2 DUP2 AND PUSH1 0x0 MSTORE PUSH1 0x9 PUSH1 0x20 MSTORE PUSH1 0x40 PUSH1 0x0 KECCAK256 PUSH2 0xB61 DUP5 DUP3 SLOAD PUSH2 0x2F16 JUMP JUMPDEST SWAP1 SSTORE PUSH1 0x6 DUP6 ADD DUP1 SLOAD PUSH2 0xFFFF NOT AND PUSH1 0x44 CALLDATALOAD ISZERO ISZERO PUSH1 0x8 SHL PUSH2 0xFF00 AND OR PUSH1 0x4 OR SWAP1 SSTORE PUSH1 0x0 PUSH1 0x8 DUP7 ADD SSTORE PUSH1 0x0 PUSH1 0xB DUP7 ADD SSTORE PUSH1 0x40 MLOAD SWAP3 DUP4 SWAP3 PUSH1 0x80 DUP5 MSTORE PUSH2 0xBA5 PUSH1 0x80 DUP6 ADD DUP10 PUSH2 0x2E24 JUMP JUMPDEST SWAP3 AND PUSH1 0x20 DUP5 ADD MSTORE PUSH1 0x40 DUP4 ADD MSTORE PUSH1 0x44 CALLDATALOAD ISZERO ISZERO PUSH1 0x60 DUP4 ADD MSTORE SUB SWAP1 LOG1 PUSH1 0x44 CALLDATALOAD ISZERO PUSH2 0xBDF JUMPI PUSH1 0xE ADD SLOAD SWAP1 JUMPDEST PUSH2 0x3CC PUSH1 0x40 MLOAD SWAP3 DUP4 SWAP3 PUSH1 0x44 CALLDATALOAD SWAP1 DUP5 PUSH2 0x3124 JUMP JUMPDEST PUSH1 0xF ADD SLOAD SWAP1 PUSH2 0xBCC JUMP JUMPDEST PUSH2 0xC02 SWAP2 SWAP4 PUSH2 0xBFA DUP3 PUSH1 0x6 SLOAD PUSH2 0x2F8E JUMP JUMPDEST PUSH1 0x6 SSTORE PUSH2 0x2F16 JUMP JUMPDEST SWAP2 DUP8 PUSH2 0xB45 JUMP JUMPDEST POP DUP1 PUSH1 0x6 SLOAD LT ISZERO PUSH2 0xB40 JUMP JUMPDEST PUSH1 0x40 MLOAD PUSH3 0x461BCD PUSH1 0xE5 SHL DUP2 MSTORE PUSH1 0x20 PUSH1 0x4 DUP3 ADD MSTORE PUSH1 0xE PUSH1 0x24 DUP3 ADD MSTORE PUSH14 0x24B73B30B634B2103BB4B73732B9 PUSH1 0x91 SHL PUSH1 0x44 DUP3 ADD MSTORE PUSH1 0x64 SWAP1 REVERT JUMPDEST POP DUP5 PUSH1 0xA DUP5 ADD SLOAD AND DUP6 DUP4 AND EQ PUSH2 0xA84 JUMP JUMPDEST PUSH1 0x40 MLOAD PUSH3 0x461BCD PUSH1 0xE5 SHL DUP2 MSTORE PUSH1 0x20 PUSH1 0x4 DUP3 ADD MSTORE PUSH1 0xE PUSH1 0x24 DUP3 ADD MSTORE PUSH14 0x4E6F7420696E2064697370757465 PUSH1 0x90 SHL PUSH1 0x44 DUP3 ADD MSTORE PUSH1 0x64 SWAP1 REVERT JUMPDEST CALLVALUE PUSH2 0x582 JUMPI PUSH1 0x0 CALLDATASIZE PUSH1 0x3 NOT ADD SLT PUSH2 0x582 JUMPI PUSH1 0x20 PUSH1 0x3 SLOAD PUSH1 0x40 MLOAD SWAP1 DUP2 MSTORE RETURN JUMPDEST CALLVALUE PUSH2 0x582 JUMPI PUSH1 0x40 CALLDATASIZE PUSH1 0x3 NOT ADD SLT PUSH2 0x582 JUMPI PUSH1 0x4 CALLDATALOAD PUSH1 0x1 PUSH1 0x1 PUSH1 0x40 SHL SUB DUP2 GT PUSH2 0x582 JUMPI PUSH2 0xCE0 SWAP1 CALLDATASIZE SWAP1 PUSH1 0x4 ADD PUSH2 0x2C7B JUMP JUMPDEST PUSH2 0xCE8 PUSH2 0x2D35 JUMP JUMPDEST PUSH1 0x0 SLOAD SWAP1 SWAP2 PUSH1 0x1 PUSH1 0x1 PUSH1 0xA0 SHL SUB SWAP2 PUSH2 0xD03 SWAP1 DUP4 AND CALLER EQ PUSH2 0x2E49 JUMP JUMPDEST PUSH1 0x40 MLOAD SWAP3 DUP4 DUP3 MLOAD PUSH1 0x20 SWAP6 DUP2 PUSH2 0xD1C DUP9 SWAP4 DUP4 DUP6 DUP10 ADD PUSH2 0x2D12 JUMP JUMPDEST DUP2 ADD PUSH1 0xA DUP2 MSTORE SUB ADD SWAP1 KECCAK256 SWAP4 PUSH1 0x6 DUP6 ADD DUP1 SLOAD SWAP1 PUSH1 0xFF DUP3 AND SWAP1 PUSH1 0x5 DUP3 LT ISZERO PUSH2 0x56C JUMPI PUSH32 0x175B08E6EE8BBCEB85780E790ADCA99EC4FBD3BB124FFBF50BD35ED4375A69AC SWAP8 PUSH2 0xDC9 SWAP8 PUSH2 0xDB5 SWAP5 PUSH2 0xD74 PUSH1 0x4 DUP10 SWAP7 EQ ISZERO PUSH2 0x31E5 JUMP JUMPDEST PUSH1 0x8 DUP4 ADD SWAP1 DUP3 DUP3 SLOAD SWAP2 DUP3 PUSH2 0xE23 JUMPI JUMPDEST POP POP POP POP PUSH1 0xB DUP3 ADD DUP1 SLOAD SWAP3 DUP4 PUSH2 0xDDC JUMPI JUMPDEST POP POP DUP3 SLOAD PUSH2 0xFFFF NOT AND SWAP4 ISZERO ISZERO PUSH1 0x8 SHL PUSH2 0xFF00 AND SWAP4 SWAP1 SWAP4 OR PUSH1 0x4 OR SWAP1 SWAP2 SSTORE POP POP JUMP JUMPDEST PUSH1 0x40 MLOAD SWAP4 DUP5 SWAP4 PUSH1 0x60 DUP6 MSTORE PUSH1 0x60 DUP6 ADD SWAP1 PUSH2 0x2E24 JUMP JUMPDEST SWAP2 ISZERO ISZERO SWAP1 DUP4 ADD MSTORE PUSH1 0x0 PUSH1 0x40 DUP4 ADD MSTORE SUB SWAP1 LOG1 STOP JUMPDEST PUSH1 0xA ADD SWAP3 DUP3 DUP5 SLOAD AND PUSH1 0x0 MSTORE PUSH1 0xF DUP9 MSTORE PUSH2 0xDFB PUSH1 0x40 PUSH1 0x0 KECCAK256 SWAP2 DUP3 SLOAD PUSH2 0x2F8E JUMP JUMPDEST SWAP1 SSTORE SLOAD SWAP2 SLOAD AND PUSH1 0x0 MSTORE PUSH1 0x9 DUP6 MSTORE PUSH2 0xE18 PUSH1 0x40 PUSH1 0x0 KECCAK256 SWAP2 DUP3 SLOAD PUSH2 0x2F16 JUMP JUMPDEST SWAP1 SSTORE DUP9 DUP1 DUP1 DUP1 PUSH2 0xD94 JUMP JUMPDEST PUSH1 0x18 SHR AND PUSH1 0x0 MSTORE PUSH1 0xF DUP9 MSTORE PUSH2 0xE3E PUSH1 0x40 PUSH1 0x0 KECCAK256 SWAP2 DUP3 SLOAD PUSH2 0x2F8E JUMP JUMPDEST SWAP1 SSTORE SLOAD DUP2 DUP5 SLOAD PUSH1 0x18 SHR AND PUSH1 0x0 MSTORE PUSH1 0x9 DUP8 MSTORE PUSH2 0xE5F PUSH1 0x40 PUSH1 0x0 KECCAK256 SWAP2 DUP3 SLOAD PUSH2 0x2F16 JUMP JUMPDEST SWAP1 SSTORE DUP11 DUP1 DUP3 DUP2 PUSH2 0xD83 JUMP JUMPDEST CALLVALUE PUSH2 0x582 JUMPI PUSH1 0x20 CALLDATASIZE PUSH1 0x3 NOT ADD SLT PUSH2 0x582 JUMPI PUSH1 0x1 PUSH1 0x1 PUSH1 0xA0 SHL SUB PUSH2 0xE8B PUSH2 0x2C44 JUMP JUMPDEST AND PUSH1 0x0 MSTORE PUSH1 0x7 PUSH1 0x20 MSTORE PUSH1 0x20 PUSH1 0x40 PUSH1 0x0 KECCAK256 SLOAD PUSH1 0x40 MLOAD SWAP1 DUP2 MSTORE RETURN JUMPDEST CALLVALUE PUSH2 0x582 JUMPI PUSH1 0x0 CALLDATASIZE PUSH1 0x3 NOT ADD SLT PUSH2 0x582 JUMPI PUSH1 0x20 PUSH1 0x40 MLOAD PUSH1 0x96 DUP2 MSTORE RETURN JUMPDEST CALLVALUE PUSH2 0x582 JUMPI PUSH1 0x20 DUP1 PUSH1 0x3 NOT CALLDATASIZE ADD SLT PUSH2 0x582 JUMPI PUSH1 0x4 CALLDATALOAD PUSH1 0x1 PUSH1 0x1 PUSH1 0x40 SHL SUB DUP2 GT PUSH2 0x582 JUMPI PUSH2 0xEF1 SWAP1 CALLDATASIZE SWAP1 PUSH1 0x4 ADD PUSH2 0x2C7B JUMP JUMPDEST PUSH1 0x40 MLOAD SWAP1 PUSH2 0xF0E PUSH1 0xFF DUP3 MLOAD SWAP4 DUP6 DUP2 DUP2 DUP7 ADD SWAP7 PUSH2 0x211 DUP2 DUP4 DUP11 PUSH2 0x2D12 JUMP JUMPDEST PUSH1 0x40 MLOAD DUP4 DUP2 DUP4 MLOAD PUSH2 0xF20 DUP2 DUP4 DUP9 PUSH2 0x2D12 JUMP JUMPDEST DUP2 ADD PUSH1 0xA DUP2 MSTORE SUB ADD SWAP1 KECCAK256 PUSH1 0x6 DUP2 ADD SLOAD PUSH1 0xFF DUP2 AND SWAP1 PUSH1 0x5 DUP3 LT ISZERO PUSH2 0x56C JUMPI PUSH2 0xF4B PUSH1 0x4 PUSH1 0xFF SWAP4 EQ PUSH2 0x3174 JUMP JUMPDEST PUSH1 0x10 SHR AND ISZERO PUSH2 0x111E JUMPI PUSH1 0x1 DUP2 ADD SLOAD PUSH1 0x1 PUSH1 0x1 PUSH1 0xA0 SHL SUB SWAP2 SWAP1 DUP3 AND CALLER SUB PUSH2 0x10EA JUMPI PUSH1 0x40 MLOAD DUP6 DUP2 DUP6 MLOAD PUSH2 0xF7D DUP2 DUP4 DUP11 PUSH2 0x2D12 JUMP JUMPDEST DUP2 ADD PUSH1 0xE DUP2 MSTORE SUB ADD SWAP1 KECCAK256 CALLER PUSH1 0x0 MSTORE DUP6 MSTORE PUSH1 0xFF PUSH1 0x40 PUSH1 0x0 KECCAK256 SLOAD AND PUSH2 0x10B1 JUMPI DUP1 PUSH1 0x11 PUSH1 0x10 PUSH2 0xFAE SWAP4 ADD SLOAD SWAP2 ADD SLOAD SWAP1 PUSH2 0x2F16 JUMP JUMPDEST SWAP3 DUP4 ISZERO PUSH2 0x1082 JUMPI DUP5 PUSH2 0xFCB SWAP2 PUSH1 0x40 MLOAD DUP1 SWAP4 DUP2 SWAP3 DUP8 MLOAD SWAP3 DUP4 SWAP2 PUSH2 0x2D12 JUMP JUMPDEST DUP2 ADD PUSH1 0xE DUP2 MSTORE SUB ADD SWAP1 KECCAK256 CALLER PUSH1 0x0 MSTORE DUP5 MSTORE PUSH1 0x40 PUSH1 0x0 KECCAK256 PUSH1 0x1 PUSH1 0xFF NOT DUP3 SLOAD AND OR SWAP1 SSTORE PUSH1 0x2 SLOAD AND SWAP3 DUP1 PUSH1 0x40 MLOAD DUP1 SWAP6 PUSH4 0xA9059CBB PUSH1 0xE0 SHL DUP3 MSTORE DUP2 PUSH1 0x0 DUP2 PUSH2 0x1027 DUP10 CALLER PUSH1 0x4 DUP5 ADD PUSH1 0x20 SWAP1 SWAP4 SWAP3 SWAP2 SWAP4 PUSH1 0x40 DUP2 ADD SWAP5 PUSH1 0x1 DUP1 PUSH1 0xA0 SHL SUB AND DUP2 MSTORE ADD MSTORE JUMP JUMPDEST SUB SWAP3 GAS CALL DUP1 ISZERO PUSH2 0x3FE JUMPI PUSH32 0x3FF50BB01A71BA44B43B95E691FE785159D1C403EFD991B82F3B5F62A2D8148A SWAP5 PUSH2 0x3BB SWAP3 PUSH1 0x0 SWAP3 PUSH2 0x1065 JUMPI POP POP PUSH2 0x2ED8 JUMP JUMPDEST PUSH2 0x107B SWAP3 POP DUP1 RETURNDATASIZE LT PUSH2 0x3F7 JUMPI PUSH2 0x3E8 DUP2 DUP4 PUSH2 0x2C5A JUMP JUMPDEST DUP6 DUP1 PUSH2 0x3B4 JUMP JUMPDEST PUSH1 0x40 MLOAD PUSH3 0x461BCD PUSH1 0xE5 SHL DUP2 MSTORE PUSH1 0x4 DUP2 ADD DUP7 SWAP1 MSTORE PUSH1 0x7 PUSH1 0x24 DUP3 ADD MSTORE PUSH7 0x139BC81CD95959 PUSH1 0xCA SHL PUSH1 0x44 DUP3 ADD MSTORE PUSH1 0x64 SWAP1 REVERT JUMPDEST PUSH1 0x40 MLOAD PUSH3 0x461BCD PUSH1 0xE5 SHL DUP2 MSTORE PUSH1 0x4 DUP2 ADD DUP7 SWAP1 MSTORE PUSH1 0x11 PUSH1 0x24 DUP3 ADD MSTORE PUSH17 0x20B63932B0B23C903BB4BA34323930BBB7 PUSH1 0x79 SHL PUSH1 0x44 DUP3 ADD MSTORE PUSH1 0x64 SWAP1 REVERT JUMPDEST PUSH1 0x40 MLOAD PUSH3 0x461BCD PUSH1 0xE5 SHL DUP2 MSTORE PUSH1 0x4 DUP2 ADD DUP7 SWAP1 MSTORE PUSH1 0xC PUSH1 0x24 DUP3 ADD MSTORE PUSH12 0x27B7363C9031B932B0BA37B9 PUSH1 0xA1 SHL PUSH1 0x44 DUP3 ADD MSTORE PUSH1 0x64 SWAP1 REVERT JUMPDEST PUSH1 0x40 MLOAD PUSH3 0x461BCD PUSH1 0xE5 SHL DUP2 MSTORE PUSH1 0x4 DUP2 ADD DUP6 SWAP1 MSTORE PUSH1 0xF PUSH1 0x24 DUP3 ADD MSTORE PUSH15 0x13585C9AD95D081B9BDD081D9BDA59 PUSH1 0x8A SHL PUSH1 0x44 DUP3 ADD MSTORE PUSH1 0x64 SWAP1 REVERT JUMPDEST CALLVALUE PUSH2 0x582 JUMPI PUSH1 0x0 CALLDATASIZE PUSH1 0x3 NOT ADD SLT PUSH2 0x582 JUMPI CALLER PUSH1 0x0 MSTORE PUSH1 0x7 PUSH1 0x20 MSTORE PUSH1 0x0 PUSH1 0x20 PUSH2 0x11D0 PUSH1 0x40 DUP4 KECCAK256 SLOAD PUSH2 0x1186 DUP2 ISZERO ISZERO PUSH2 0x31AF JUMP JUMPDEST CALLER DUP1 DUP6 MSTORE PUSH1 0x7 DUP5 MSTORE PUSH1 0x40 DUP1 DUP7 KECCAK256 DUP7 SWAP1 SSTORE PUSH1 0x2 SLOAD SWAP1 MLOAD PUSH4 0xA9059CBB PUSH1 0xE0 SHL DUP2 MSTORE PUSH1 0x4 DUP2 ADD SWAP3 SWAP1 SWAP3 MSTORE PUSH1 0x24 DUP3 ADD SWAP3 SWAP1 SWAP3 MSTORE SWAP4 DUP5 SWAP3 PUSH1 0x1 PUSH1 0x1 PUSH1 0xA0 SHL SUB SWAP1 SWAP3 AND SWAP2 DUP4 SWAP2 SWAP1 DUP3 SWAP1 PUSH1 0x44 DUP3 ADD SWAP1 JUMP JUMPDEST SUB SWAP3 GAS CALL DUP1 ISZERO PUSH2 0x3FE JUMPI PUSH2 0x11EB SWAP2 PUSH1 0x0 SWAP2 PUSH2 0x11ED JUMPI POP PUSH2 0x2ED8 JUMP JUMPDEST STOP JUMPDEST PUSH2 0x1205 SWAP2 POP PUSH1 0x20 RETURNDATASIZE DUP2 GT PUSH2 0x3F7 JUMPI PUSH2 0x3E8 DUP2 DUP4 PUSH2 0x2C5A JUMP JUMPDEST DUP3 PUSH2 0x669 JUMP JUMPDEST CALLVALUE PUSH2 0x582 JUMPI PUSH1 0x0 CALLDATASIZE PUSH1 0x3 NOT ADD SLT PUSH2 0x582 JUMPI CALLER PUSH1 0x0 MSTORE PUSH1 0x8 PUSH1 0x20 MSTORE PUSH1 0x0 PUSH1 0x20 PUSH2 0x11D0 PUSH1 0x40 DUP4 KECCAK256 SLOAD PUSH2 0x123C DUP2 ISZERO ISZERO PUSH2 0x31AF JUMP JUMPDEST CALLER DUP1 DUP6 MSTORE PUSH1 0x8 DUP5 MSTORE PUSH1 0x40 DUP1 DUP7 KECCAK256 DUP7 SWAP1 SSTORE PUSH1 0x2 SLOAD SWAP1 MLOAD PUSH4 0xA9059CBB PUSH1 0xE0 SHL DUP2 MSTORE PUSH1 0x4 DUP2 ADD SWAP3 SWAP1 SWAP3 MSTORE PUSH1 0x24 DUP3 ADD SWAP3 SWAP1 SWAP3 MSTORE SWAP4 DUP5 SWAP3 PUSH1 0x1 PUSH1 0x1 PUSH1 0xA0 SHL SUB SWAP1 SWAP3 AND SWAP2 DUP4 SWAP2 SWAP1 DUP3 SWAP1 PUSH1 0x44 DUP3 ADD SWAP1 JUMP JUMPDEST CALLVALUE PUSH2 0x582 JUMPI PUSH1 0x20 PUSH2 0x12AE PUSH2 0x1299 CALLDATASIZE PUSH2 0x2CD1 JUMP JUMPDEST SWAP3 SWAP1 DUP2 PUSH1 0x40 MLOAD SWAP4 DUP3 DUP6 DUP1 SWAP5 MLOAD SWAP4 DUP5 SWAP3 ADD PUSH2 0x2D12 JUMP JUMPDEST PUSH1 0xC SWAP1 DUP3 ADD SWAP1 DUP2 MSTORE SUB ADD SWAP1 KECCAK256 PUSH1 0x1 PUSH1 0x1 PUSH1 0xA0 SHL SUB SWAP2 DUP3 AND PUSH1 0x0 SWAP1 DUP2 MSTORE PUSH1 0x20 SWAP2 DUP3 MSTORE PUSH1 0x40 SWAP1 DUP2 SWAP1 KECCAK256 DUP1 SLOAD PUSH1 0x1 DUP3 ADD SLOAD PUSH1 0x2 SWAP1 SWAP3 ADD SLOAD DUP4 MLOAD SWAP2 DUP3 MSTORE SWAP4 DUP2 ADD SWAP2 SWAP1 SWAP2 MSTORE SWAP3 DUP3 AND SWAP1 DUP4 ADD MSTORE PUSH1 0xA0 SHR PUSH1 0xFF AND ISZERO ISZERO PUSH1 0x60 DUP3 ADD MSTORE PUSH1 0x80 SWAP1 RETURN JUMPDEST CALLVALUE PUSH2 0x582 JUMPI PUSH1 0x0 CALLDATASIZE PUSH1 0x3 NOT ADD SLT PUSH2 0x582 JUMPI PUSH1 0x20 PUSH1 0x40 MLOAD PUSH2 0x2710 DUP2 MSTORE RETURN JUMPDEST CALLVALUE PUSH2 0x582 JUMPI PUSH1 0x20 DUP1 PUSH1 0x3 NOT CALLDATASIZE ADD SLT PUSH2 0x582 JUMPI PUSH1 0x4 CALLDATALOAD PUSH1 0x1 PUSH1 0x1 PUSH1 0x40 SHL SUB DUP2 GT PUSH2 0x582 JUMPI PUSH2 0x1355 SWAP1 CALLDATASIZE SWAP1 PUSH1 0x4 ADD PUSH2 0x2C7B JUMP JUMPDEST PUSH1 0x0 SLOAD PUSH1 0x1 PUSH1 0x1 PUSH1 0xA0 SHL SUB SWAP3 SWAP1 PUSH2 0x136F SWAP1 DUP5 AND CALLER EQ PUSH2 0x2E49 JUMP JUMPDEST PUSH1 0x40 MLOAD DUP2 DUP2 DUP5 MLOAD PUSH2 0x1383 DUP2 DUP4 DUP6 DUP10 ADD PUSH2 0x2D12 JUMP JUMPDEST DUP2 ADD PUSH1 0xA DUP2 MSTORE SUB ADD SWAP1 KECCAK256 PUSH1 0x6 DUP2 ADD SWAP1 DUP2 SLOAD SWAP5 PUSH1 0xFF DUP7 AND SWAP6 PUSH1 0x5 DUP8 LT ISZERO PUSH2 0x56C JUMPI PUSH2 0x13D1 PUSH1 0x4 PUSH32 0x1E9A51575531367C4323C60EFE8C5B980AF66CD0509C86D8F4E1A3D9C9001700 SWAP9 EQ ISZERO PUSH2 0x31E5 JUMP JUMPDEST PUSH1 0x8 DUP4 ADD SWAP1 DUP3 DUP3 SLOAD SWAP2 DUP3 PUSH2 0x145F JUMPI JUMPDEST POP POP POP POP PUSH1 0xB DUP3 ADD DUP1 SLOAD SWAP3 DUP4 PUSH2 0x1418 JUMPI JUMPDEST POP POP POP POP PUSH3 0x10004 PUSH3 0xFF00FF NOT DUP3 SLOAD AND OR SWAP1 SSTORE PUSH2 0x3CC PUSH1 0x40 MLOAD SWAP3 DUP3 DUP5 SWAP4 DUP5 MSTORE DUP4 ADD SWAP1 PUSH2 0x2E24 JUMP JUMPDEST PUSH1 0xA ADD SWAP3 DUP3 DUP5 SLOAD AND PUSH1 0x0 MSTORE PUSH1 0xF DUP7 MSTORE PUSH2 0x1437 PUSH1 0x40 PUSH1 0x0 KECCAK256 SWAP2 DUP3 SLOAD PUSH2 0x2F8E JUMP JUMPDEST SWAP1 SSTORE SLOAD SWAP2 SLOAD AND PUSH1 0x0 MSTORE PUSH1 0x9 DUP4 MSTORE PUSH2 0x1454 PUSH1 0x40 PUSH1 0x0 KECCAK256 SWAP2 DUP3 SLOAD PUSH2 0x2F16 JUMP JUMPDEST SWAP1 SSTORE DUP5 DUP1 DUP1 DUP1 PUSH2 0x13F1 JUMP JUMPDEST PUSH1 0x18 SHR AND PUSH1 0x0 MSTORE PUSH1 0xF DUP7 MSTORE PUSH2 0x147A PUSH1 0x40 PUSH1 0x0 KECCAK256 SWAP2 DUP3 SLOAD PUSH2 0x2F8E JUMP JUMPDEST SWAP1 SSTORE SLOAD DUP2 DUP5 SLOAD PUSH1 0x18 SHR AND PUSH1 0x0 MSTORE PUSH1 0x9 DUP6 MSTORE PUSH2 0x149B PUSH1 0x40 PUSH1 0x0 KECCAK256 SWAP2 DUP3 SLOAD PUSH2 0x2F16 JUMP JUMPDEST SWAP1 SSTORE DUP7 DUP1 DUP3 DUP2 PUSH2 0x13E0 JUMP JUMPDEST CALLVALUE PUSH2 0x582 JUMPI PUSH1 0x0 CALLDATASIZE PUSH1 0x3 NOT ADD SLT PUSH2 0x582 JUMPI PUSH1 0x20 PUSH1 0x5 SLOAD PUSH1 0x40 MLOAD SWAP1 DUP2 MSTORE RETURN JUMPDEST CALLVALUE PUSH2 0x582 JUMPI PUSH1 0xA0 CALLDATASIZE PUSH1 0x3 NOT ADD SLT PUSH2 0x582 JUMPI PUSH1 0x1 PUSH1 0x1 PUSH1 0x40 SHL SUB PUSH1 0x4 CALLDATALOAD DUP2 DUP2 GT PUSH2 0x582 JUMPI PUSH2 0x14F5 SWAP1 CALLDATASIZE SWAP1 PUSH1 0x4 ADD PUSH2 0x2C7B JUMP JUMPDEST SWAP1 PUSH1 0x24 CALLDATALOAD DUP2 DUP2 GT PUSH2 0x582 JUMPI PUSH2 0x150E SWAP1 CALLDATASIZE SWAP1 PUSH1 0x4 ADD PUSH2 0x2C7B JUMP JUMPDEST SWAP1 PUSH1 0xFF PUSH1 0x40 MLOAD PUSH1 0x20 DUP2 DUP7 MLOAD PUSH2 0x1526 DUP2 DUP4 DUP6 DUP12 ADD PUSH2 0x2D12 JUMP JUMPDEST DUP2 ADD PUSH1 0xB DUP2 MSTORE SUB ADD SWAP1 KECCAK256 SLOAD AND PUSH2 0x19BD JUMPI PUSH1 0x44 CALLDATALOAD ISZERO ISZERO DUP1 PUSH2 0x19B0 JUMPI JUMPDEST ISZERO PUSH2 0x197C JUMPI PUSH1 0x2 SLOAD PUSH1 0x40 MLOAD PUSH4 0x23B872DD PUSH1 0xE0 SHL DUP2 MSTORE CALLER PUSH1 0x4 DUP3 ADD MSTORE ADDRESS PUSH1 0x24 DUP3 ADD MSTORE PUSH1 0x44 DUP1 CALLDATALOAD SWAP1 DUP3 ADD MSTORE SWAP1 PUSH1 0x20 SWAP1 DUP3 SWAP1 PUSH1 0x64 SWAP1 DUP3 SWAP1 PUSH1 0x0 SWAP1 PUSH1 0x1 PUSH1 0x1 PUSH1 0xA0 SHL SUB AND GAS CALL DUP1 ISZERO PUSH2 0x3FE JUMPI PUSH2 0x159A SWAP2 PUSH1 0x0 SWAP2 PUSH2 0x1963 JUMPI POP PUSH2 0x2ED8 JUMP JUMPDEST PUSH1 0x40 MLOAD PUSH1 0x20 DUP2 DUP6 MLOAD PUSH2 0x15AF DUP2 DUP4 DUP6 DUP11 ADD PUSH2 0x2D12 JUMP JUMPDEST DUP2 ADD PUSH1 0xA DUP2 MSTORE SUB ADD SWAP1 KECCAK256 SWAP2 DUP4 MLOAD DUP3 DUP2 GT PUSH2 0x1896 JUMPI PUSH2 0x15CD DUP5 SLOAD PUSH2 0x2D44 JUMP JUMPDEST PUSH1 0x1F DUP2 GT PUSH2 0x191B JUMPI JUMPDEST POP DUP1 PUSH1 0x20 PUSH1 0x1F DUP3 GT PUSH1 0x1 EQ PUSH2 0x18B7 JUMPI PUSH1 0x0 SWAP2 PUSH2 0x18AC JUMPI JUMPDEST POP DUP2 PUSH1 0x1 SHL SWAP2 PUSH1 0x0 NOT SWAP1 PUSH1 0x3 SHL SHR NOT AND OR DUP4 SSTORE JUMPDEST PUSH1 0x1 DUP4 ADD DUP1 SLOAD PUSH1 0x1 PUSH1 0x1 PUSH1 0xA0 SHL SUB NOT AND CALLER OR SWAP1 SSTORE DUP1 MLOAD SWAP2 DUP3 GT PUSH2 0x1896 JUMPI PUSH2 0x162B PUSH1 0x2 DUP5 ADD SLOAD PUSH2 0x2D44 JUMP JUMPDEST PUSH1 0x1F DUP2 GT PUSH2 0x184D JUMPI JUMPDEST POP PUSH1 0x20 SWAP1 PUSH1 0x1F DUP4 GT PUSH1 0x1 EQ PUSH2 0x1796 JUMPI PUSH2 0x1772 SWAP4 DUP4 PUSH32 0xFF36FF50E65334F5EA64776F95EC82CE2FBD32A145DD5258689E2027C1C61B3A SWAP7 SWAP5 PUSH1 0x11 SWAP5 PUSH32 0xCCDEE9DB8C345DD53026F5DEDBF3E8B723CEDDD2AD8EEB96B00CE37FDDD58B64 SWAP5 PUSH1 0x0 SWAP3 PUSH2 0x178B JUMPI JUMPDEST POP POP DUP2 PUSH1 0x1 SHL SWAP2 PUSH1 0x0 NOT SWAP1 PUSH1 0x3 SHL SHR NOT AND OR PUSH1 0x2 DUP3 ADD SSTORE JUMPDEST TIMESTAMP PUSH1 0x3 DUP3 ADD SSTORE PUSH1 0x84 CALLDATALOAD SWAP1 DUP2 ISZERO PUSH2 0x1783 JUMPI DUP2 JUMPDEST PUSH1 0x4 DUP3 ADD SSTORE PUSH2 0x16D3 PUSH1 0x64 CALLDATALOAD TIMESTAMP PUSH2 0x2F16 JUMP JUMPDEST SWAP1 PUSH1 0x5 DUP2 ADD SWAP2 DUP3 SSTORE PUSH1 0x6 DUP2 ADD SWAP1 PUSH1 0xFF NOT SWAP2 DUP3 DUP2 SLOAD AND SWAP1 SSTORE PUSH1 0x44 CALLDATALOAD PUSH1 0x1 SHR SWAP6 DUP2 DUP8 PUSH1 0xE DUP2 SWAP5 ADD SSTORE DUP3 PUSH1 0xF DUP3 ADD SSTORE DUP3 PUSH1 0x10 DUP3 ADD SSTORE ADD SSTORE PUSH1 0x1 PUSH1 0x40 MLOAD PUSH1 0x20 DUP2 DUP2 PUSH2 0x1720 DUP12 DUP4 DUP2 MLOAD SWAP4 DUP5 SWAP3 ADD PUSH2 0x2D12 JUMP JUMPDEST DUP2 ADD PUSH1 0xB DUP2 MSTORE SUB ADD SWAP1 KECCAK256 SWAP2 DUP3 SLOAD AND OR SWAP1 SSTORE SLOAD SWAP1 PUSH1 0x40 MLOAD SWAP2 DUP3 SWAP2 PUSH1 0x80 DUP4 MSTORE PUSH2 0x174A PUSH1 0x80 DUP5 ADD DUP9 PUSH2 0x2E24 JUMP JUMPDEST SWAP2 CALLER PUSH1 0x20 DUP6 ADD MSTORE PUSH1 0x40 DUP5 ADD MSTORE PUSH1 0x60 DUP4 ADD MSTORE SUB SWAP1 LOG1 PUSH1 0x40 MLOAD SWAP3 DUP4 SWAP3 PUSH1 0x60 DUP5 MSTORE PUSH1 0x60 DUP5 ADD SWAP1 PUSH2 0x2E24 JUMP JUMPDEST SWAP1 DUP1 PUSH1 0x20 DUP5 ADD MSTORE PUSH1 0x40 DUP4 ADD MSTORE SUB SWAP1 LOG1 STOP JUMPDEST PUSH1 0x64 CALLDATALOAD PUSH2 0x16C2 JUMP JUMPDEST ADD MLOAD SWAP1 POP DUP9 DUP1 PUSH2 0x1698 JUMP JUMPDEST SWAP1 PUSH1 0x2 DUP5 ADD PUSH1 0x0 MSTORE PUSH1 0x20 PUSH1 0x0 KECCAK256 SWAP2 PUSH1 0x0 PUSH1 0x1F NOT DUP6 AND SWAP1 JUMPDEST DUP2 DUP2 LT PUSH2 0x1835 JUMPI POP DUP5 PUSH1 0x11 SWAP5 PUSH32 0xCCDEE9DB8C345DD53026F5DEDBF3E8B723CEDDD2AD8EEB96B00CE37FDDD58B64 SWAP5 PUSH2 0x1772 SWAP9 SWAP5 PUSH32 0xFF36FF50E65334F5EA64776F95EC82CE2FBD32A145DD5258689E2027C1C61B3A SWAP11 SWAP9 PUSH1 0x1 SWAP6 LT PUSH2 0x181C JUMPI JUMPDEST POP POP POP DUP2 SHL ADD PUSH1 0x2 DUP3 ADD SSTORE PUSH2 0x16B0 JUMP JUMPDEST ADD MLOAD PUSH1 0x0 NOT PUSH1 0xF8 DUP5 PUSH1 0x3 SHL AND SHR NOT AND SWAP1 SSTORE DUP9 DUP1 DUP1 PUSH2 0x180C JUMP JUMPDEST SWAP3 SWAP4 PUSH1 0x20 PUSH1 0x1 DUP2 SWAP3 DUP8 DUP7 ADD MLOAD DUP2 SSTORE ADD SWAP6 ADD SWAP4 ADD PUSH2 0x17AD JUMP JUMPDEST PUSH1 0x2 DUP5 ADD PUSH1 0x0 MSTORE PUSH1 0x20 PUSH1 0x0 KECCAK256 PUSH1 0x1F DUP5 ADD PUSH1 0x5 SHR DUP2 ADD PUSH1 0x20 DUP6 LT PUSH2 0x188F JUMPI JUMPDEST PUSH1 0x1F SWAP1 SWAP3 ADD PUSH1 0x5 SHR ADD SWAP1 JUMPDEST DUP2 DUP2 LT PUSH2 0x1883 JUMPI POP PUSH2 0x1634 JUMP JUMPDEST PUSH1 0x0 DUP2 SSTORE PUSH1 0x1 ADD PUSH2 0x1876 JUMP JUMPDEST POP DUP1 PUSH2 0x186B JUMP JUMPDEST PUSH4 0x4E487B71 PUSH1 0xE0 SHL PUSH1 0x0 MSTORE PUSH1 0x41 PUSH1 0x4 MSTORE PUSH1 0x24 PUSH1 0x0 REVERT JUMPDEST SWAP1 POP DUP6 ADD MLOAD DUP7 PUSH2 0x15ED JUMP JUMPDEST PUSH1 0x0 DUP7 DUP2 MSTORE PUSH1 0x20 DUP2 KECCAK256 SWAP3 POP PUSH1 0x1F NOT DUP5 AND SWAP1 JUMPDEST DUP2 DUP2 LT PUSH2 0x1903 JUMPI POP SWAP1 DUP4 PUSH1 0x1 SWAP5 SWAP4 SWAP3 LT PUSH2 0x18EA JUMPI JUMPDEST POP POP DUP2 SHL ADD DUP4 SSTORE PUSH2 0x1601 JUMP JUMPDEST DUP8 ADD MLOAD PUSH1 0x0 NOT PUSH1 0xF8 DUP5 PUSH1 0x3 SHL AND SHR NOT AND SWAP1 SSTORE DUP7 DUP1 PUSH2 0x18DE JUMP JUMPDEST SWAP2 SWAP3 PUSH1 0x20 PUSH1 0x1 DUP2 SWAP3 DUP7 DUP13 ADD MLOAD DUP2 SSTORE ADD SWAP5 ADD SWAP3 ADD PUSH2 0x18C9 JUMP JUMPDEST DUP5 PUSH1 0x0 MSTORE PUSH1 0x20 PUSH1 0x0 KECCAK256 PUSH1 0x1F DUP4 ADD PUSH1 0x5 SHR DUP2 ADD SWAP2 PUSH1 0x20 DUP5 LT PUSH2 0x1959 JUMPI JUMPDEST PUSH1 0x1F ADD PUSH1 0x5 SHR ADD SWAP1 JUMPDEST DUP2 DUP2 LT PUSH2 0x194D JUMPI POP PUSH2 0x15D6 JUMP JUMPDEST PUSH1 0x0 DUP2 SSTORE PUSH1 0x1 ADD PUSH2 0x1940 JUMP JUMPDEST SWAP1 SWAP2 POP DUP2 SWAP1 PUSH2 0x1937 JUMP JUMPDEST PUSH2 0x6AF SWAP2 POP PUSH1 0x20 RETURNDATASIZE PUSH1 0x20 GT PUSH2 0x3F7 JUMPI PUSH2 0x3E8 DUP2 DUP4 PUSH2 0x2C5A JUMP JUMPDEST PUSH1 0x40 MLOAD PUSH3 0x461BCD PUSH1 0xE5 SHL DUP2 MSTORE PUSH1 0x20 PUSH1 0x4 DUP3 ADD MSTORE PUSH1 0xC PUSH1 0x24 DUP3 ADD MSTORE PUSH12 0x125B9D985B1A59081CD95959 PUSH1 0xA2 SHL PUSH1 0x44 DUP3 ADD MSTORE PUSH1 0x64 SWAP1 REVERT JUMPDEST POP PUSH1 0x1 PUSH1 0x44 CALLDATALOAD AND ISZERO PUSH2 0x1541 JUMP JUMPDEST PUSH1 0x40 MLOAD PUSH3 0x461BCD PUSH1 0xE5 SHL DUP2 MSTORE PUSH1 0x20 PUSH1 0x4 DUP3 ADD MSTORE PUSH1 0x6 PUSH1 0x24 DUP3 ADD MSTORE PUSH6 0x457869737473 PUSH1 0xD0 SHL PUSH1 0x44 DUP3 ADD MSTORE PUSH1 0x64 SWAP1 REVERT JUMPDEST CALLVALUE PUSH2 0x582 JUMPI PUSH1 0x20 PUSH2 0x19FE PUSH2 0x1299 CALLDATASIZE PUSH2 0x2CD1 JUMP JUMPDEST PUSH1 0xD SWAP1 DUP3 ADD SWAP1 DUP2 MSTORE SUB ADD SWAP1 KECCAK256 PUSH1 0x1 PUSH1 0x1 PUSH1 0xA0 SHL SUB SWAP2 DUP3 AND PUSH1 0x0 SWAP1 DUP2 MSTORE PUSH1 0x20 SWAP2 DUP3 MSTORE PUSH1 0x40 SWAP1 DUP2 SWAP1 KECCAK256 DUP1 SLOAD PUSH1 0x1 DUP3 ADD SLOAD PUSH1 0x2 SWAP1 SWAP3 ADD SLOAD DUP4 MLOAD SWAP2 DUP3 MSTORE SWAP4 DUP2 ADD SWAP2 SWAP1 SWAP2 MSTORE SWAP3 DUP3 AND SWAP1 DUP4 ADD MSTORE PUSH1 0xA0 SHR PUSH1 0xFF AND ISZERO ISZERO PUSH1 0x60 DUP3 ADD MSTORE PUSH1 0x80 SWAP1 RETURN JUMPDEST CALLVALUE PUSH2 0x582 JUMPI PUSH1 0x20 CALLDATASIZE PUSH1 0x3 NOT ADD SLT PUSH2 0x582 JUMPI PUSH1 0x1 PUSH1 0x1 PUSH1 0xA0 SHL SUB PUSH2 0x1A78 PUSH2 0x2C44 JUMP JUMPDEST AND PUSH1 0x0 MSTORE PUSH1 0x8 PUSH1 0x20 MSTORE PUSH1 0x20 PUSH1 0x40 PUSH1 0x0 KECCAK256 SLOAD PUSH1 0x40 MLOAD SWAP1 DUP2 MSTORE RETURN JUMPDEST CALLVALUE PUSH2 0x582 JUMPI PUSH1 0x80 CALLDATASIZE PUSH1 0x3 NOT ADD SLT PUSH2 0x582 JUMPI PUSH1 0x4 CALLDATALOAD PUSH1 0x1 PUSH1 0x1 PUSH1 0x40 SHL SUB DUP2 GT PUSH2 0x582 JUMPI PUSH2 0x1AC1 SWAP1 CALLDATASIZE SWAP1 PUSH1 0x4 ADD PUSH2 0x2C7B JUMP JUMPDEST PUSH2 0x1AC9 PUSH2 0x2D35 JUMP JUMPDEST SWAP2 PUSH1 0x44 CALLDATALOAD PUSH1 0x1 PUSH1 0x1 PUSH1 0xA0 SHL SUB PUSH1 0x64 CALLDATALOAD DUP2 DUP2 AND SWAP1 DUP2 SWAP1 SUB PUSH2 0x582 JUMPI PUSH1 0x40 MLOAD SWAP3 DUP6 MLOAD SWAP1 PUSH2 0x1B03 PUSH1 0xFF PUSH1 0x20 SWAP7 DUP8 DUP2 DUP2 DUP13 ADD SWAP7 PUSH2 0x211 DUP2 DUP4 DUP11 PUSH2 0x2D12 JUMP JUMPDEST PUSH1 0x40 MLOAD DUP6 DUP2 DUP10 MLOAD PUSH2 0x1B15 DUP2 DUP4 DUP9 PUSH2 0x2D12 JUMP JUMPDEST DUP2 ADD PUSH1 0xA DUP2 MSTORE SUB ADD SWAP1 KECCAK256 SWAP4 PUSH1 0xFF PUSH1 0x6 DUP7 ADD SLOAD AND PUSH1 0x5 DUP2 LT ISZERO PUSH2 0x56C JUMPI PUSH2 0x1F35 JUMPI PUSH1 0x5 DUP6 ADD SLOAD TIMESTAMP LT ISZERO PUSH2 0x1F06 JUMPI DUP2 ISZERO PUSH2 0x1ED3 JUMPI PUSH1 0x2 SLOAD PUSH1 0x40 MLOAD PUSH4 0x23B872DD PUSH1 0xE0 SHL DUP2 MSTORE CALLER PUSH1 0x4 DUP3 ADD MSTORE ADDRESS PUSH1 0x24 DUP3 ADD MSTORE PUSH1 0x44 DUP2 ADD DUP5 SWAP1 MSTORE SWAP2 SWAP1 DUP8 SWAP1 DUP4 SWAP1 PUSH1 0x64 SWAP1 DUP3 SWAP1 PUSH1 0x0 SWAP1 DUP7 AND GAS CALL SWAP2 DUP3 ISZERO PUSH2 0x3FE JUMPI PUSH2 0x1C34 SWAP3 PUSH2 0x1B98 SWAP2 PUSH1 0x0 SWAP2 PUSH2 0x1EB6 JUMPI POP PUSH2 0x2ED8 JUMP JUMPDEST PUSH2 0x2710 DUP1 PUSH2 0x1BA8 PUSH1 0x3 SLOAD DUP7 PUSH2 0x2F7B JUMP JUMPDEST DIV DUP2 PUSH2 0x1BB6 PUSH1 0x4 SLOAD DUP8 PUSH2 0x2F7B JUMP JUMPDEST DIV SWAP2 PUSH1 0x0 DUP9 ISZERO ISZERO DUP1 PUSH2 0x1EAC JUMPI JUMPDEST ISZERO PUSH2 0x1E86 JUMPI POP PUSH2 0x1C2F SWAP3 SWAP2 PUSH2 0x1C2F SWAP2 PUSH2 0x1BDE PUSH1 0x5 SLOAD DUP10 PUSH2 0x2F7B JUMP JUMPDEST DIV SWAP5 DUP10 PUSH1 0x0 MSTORE PUSH1 0x8 DUP13 MSTORE PUSH1 0x40 PUSH1 0x0 KECCAK256 PUSH2 0x1BF8 DUP8 DUP3 SLOAD PUSH2 0x2F16 JUMP JUMPDEST SWAP1 SSTORE JUMPDEST PUSH2 0x1C07 DUP3 PUSH1 0x6 SLOAD PUSH2 0x2F16 JUMP JUMPDEST PUSH1 0x6 SSTORE PUSH1 0x1 DUP12 ADD SLOAD AND PUSH1 0x0 MSTORE PUSH1 0x7 DUP12 MSTORE PUSH1 0x40 PUSH1 0x0 KECCAK256 PUSH2 0x1C27 DUP5 DUP3 SLOAD PUSH2 0x2F16 JUMP JUMPDEST SWAP1 SSTORE DUP7 PUSH2 0x2F8E JUMP JUMPDEST PUSH2 0x2F8E JUMP JUMPDEST SWAP8 PUSH2 0x1C48 PUSH1 0x3 DUP7 ADD SLOAD PUSH1 0x4 DUP8 ADD SLOAD SWAP1 PUSH2 0x2FFD JUMP JUMPDEST SWAP5 PUSH2 0x1C53 DUP7 DUP12 PUSH2 0x2F7B JUMP JUMPDEST SWAP1 PUSH8 0xDE0B6B3A7640000 SWAP2 DUP3 DUP2 MUL SWAP3 DUP2 DUP5 DIV EQ SWAP1 ISZERO OR ISZERO PUSH2 0x1E70 JUMPI PUSH32 0xA994696D1A657073CEAA15FBACD649938053CE8BEE7DE30EC1C28D337CC37B23 SWAP11 PUSH1 0x64 DUP10 SWAP4 DIV SWAP6 DUP5 PUSH1 0x0 EQ PUSH2 0x1DAC JUMPI DUP4 PUSH2 0x1D1B SWAP2 DUP14 PUSH1 0x12 SWAP7 PUSH1 0x40 MLOAD DUP1 SWAP3 MLOAD PUSH2 0x1CB8 DUP2 DUP4 DUP8 PUSH2 0x2D12 JUMP JUMPDEST DUP2 ADD PUSH1 0xC DUP2 MSTORE SUB ADD SWAP1 KECCAK256 CALLER PUSH1 0x0 MSTORE DUP3 MSTORE PUSH1 0x40 PUSH1 0x0 KECCAK256 SLOAD ISZERO PUSH2 0x1D9A JUMPI JUMPDEST DUP14 DUP3 PUSH1 0x40 MLOAD DUP1 SWAP3 MLOAD PUSH2 0x1CE7 DUP2 DUP4 DUP8 PUSH2 0x2D12 JUMP JUMPDEST DUP2 ADD PUSH1 0xC DUP2 MSTORE SUB ADD SWAP1 KECCAK256 CALLER PUSH1 0x0 MSTORE DUP3 MSTORE PUSH1 0x40 PUSH1 0x0 KECCAK256 PUSH2 0x1D07 DUP6 DUP3 SLOAD PUSH2 0x2F16 JUMP JUMPDEST SWAP1 SSTORE DUP14 PUSH1 0x40 MLOAD SWAP4 DUP5 SWAP3 DUP4 SWAP3 MLOAD SWAP3 DUP4 SWAP2 PUSH2 0x2D12 JUMP JUMPDEST DUP2 ADD PUSH1 0xC DUP2 MSTORE SUB ADD SWAP1 KECCAK256 CALLER PUSH1 0x0 MSTORE DUP10 MSTORE PUSH1 0x1 PUSH1 0x40 PUSH1 0x0 KECCAK256 ADD PUSH2 0x1D3E DUP8 DUP3 SLOAD PUSH2 0x2F16 JUMP JUMPDEST SWAP1 SSTORE PUSH2 0x1D4F PUSH1 0xE DUP4 ADD SWAP2 DUP3 SLOAD PUSH2 0x2F16 JUMP JUMPDEST SWAP1 SSTORE ADD PUSH2 0x1D5D DUP5 DUP3 SLOAD PUSH2 0x2F16 JUMP JUMPDEST SWAP1 SSTORE JUMPDEST PUSH2 0x1D74 PUSH1 0x40 MLOAD SWAP9 DUP9 DUP11 SWAP10 DUP11 MSTORE DUP10 ADD SWAP1 PUSH2 0x2E24 JUMP JUMPDEST SWAP6 CALLER SWAP1 DUP9 ADD MSTORE ISZERO ISZERO PUSH1 0x40 DUP8 ADD MSTORE PUSH1 0x60 DUP7 ADD MSTORE PUSH1 0x80 DUP6 ADD MSTORE PUSH1 0xA0 DUP5 ADD MSTORE PUSH1 0xC0 DUP4 ADD MSTORE SUB SWAP1 LOG1 STOP JUMPDEST PUSH2 0x1DA7 CALLER PUSH1 0x14 DUP8 ADD PUSH2 0x2F9B JUMP JUMPDEST PUSH2 0x1CD4 JUMP JUMPDEST DUP4 PUSH2 0x1E15 SWAP2 DUP14 PUSH1 0x13 SWAP7 PUSH1 0x40 MLOAD DUP1 SWAP3 MLOAD PUSH2 0x1DC6 DUP2 DUP4 DUP8 PUSH2 0x2D12 JUMP JUMPDEST DUP2 ADD PUSH1 0xD DUP2 MSTORE SUB ADD SWAP1 KECCAK256 CALLER PUSH1 0x0 MSTORE DUP3 MSTORE PUSH1 0x40 PUSH1 0x0 KECCAK256 SLOAD ISZERO PUSH2 0x1E5E JUMPI JUMPDEST DUP14 DUP3 PUSH1 0x40 MLOAD DUP1 SWAP3 MLOAD PUSH2 0x1DF5 DUP2 DUP4 DUP8 PUSH2 0x2D12 JUMP JUMPDEST DUP2 ADD PUSH1 0xD DUP2 MSTORE SUB ADD SWAP1 KECCAK256 CALLER PUSH1 0x0 MSTORE DUP3 MSTORE PUSH1 0x40 PUSH1 0x0 KECCAK256 PUSH2 0x1D07 DUP6 DUP3 SLOAD PUSH2 0x2F16 JUMP JUMPDEST DUP2 ADD PUSH1 0xD DUP2 MSTORE SUB ADD SWAP1 KECCAK256 CALLER PUSH1 0x0 MSTORE DUP10 MSTORE PUSH1 0x1 PUSH1 0x40 PUSH1 0x0 KECCAK256 ADD PUSH2 0x1E38 DUP8 DUP3 SLOAD PUSH2 0x2F16 JUMP JUMPDEST SWAP1 SSTORE PUSH2 0x1E49 PUSH1 0xF DUP4 ADD SWAP2 DUP3 SLOAD PUSH2 0x2F16 JUMP JUMPDEST SWAP1 SSTORE ADD PUSH2 0x1E57 DUP5 DUP3 SLOAD PUSH2 0x2F16 JUMP JUMPDEST SWAP1 SSTORE PUSH2 0x1D60 JUMP JUMPDEST PUSH2 0x1E6B CALLER PUSH1 0x15 DUP8 ADD PUSH2 0x2F9B JUMP JUMPDEST PUSH2 0x1DE2 JUMP JUMPDEST PUSH4 0x4E487B71 PUSH1 0xE0 SHL PUSH1 0x0 MSTORE PUSH1 0x11 PUSH1 0x4 MSTORE PUSH1 0x24 PUSH1 0x0 REVERT JUMPDEST SWAP4 PUSH2 0x1EA6 PUSH2 0x1C2F SWAP5 SWAP4 PUSH2 0x1C2F SWAP4 PUSH2 0x1E9F PUSH1 0x5 SLOAD DUP12 PUSH2 0x2F7B JUMP JUMPDEST DIV SWAP1 PUSH2 0x2F16 JUMP JUMPDEST SWAP1 PUSH2 0x1BFB JUMP JUMPDEST POP CALLER DUP10 EQ ISZERO PUSH2 0x1BC3 JUMP JUMPDEST PUSH2 0x1ECD SWAP2 POP DUP10 RETURNDATASIZE DUP12 GT PUSH2 0x3F7 JUMPI PUSH2 0x3E8 DUP2 DUP4 PUSH2 0x2C5A JUMP JUMPDEST DUP13 PUSH2 0x669 JUMP JUMPDEST PUSH1 0x40 MLOAD PUSH3 0x461BCD PUSH1 0xE5 SHL DUP2 MSTORE PUSH1 0x4 DUP2 ADD DUP8 SWAP1 MSTORE PUSH1 0xB PUSH1 0x24 DUP3 ADD MSTORE PUSH11 0x16995C9BC8185B5BDD5B9D PUSH1 0xAA SHL PUSH1 0x44 DUP3 ADD MSTORE PUSH1 0x64 SWAP1 REVERT JUMPDEST PUSH1 0x40 MLOAD PUSH3 0x461BCD PUSH1 0xE5 SHL DUP2 MSTORE PUSH1 0x4 DUP2 ADD DUP8 SWAP1 MSTORE PUSH1 0x7 PUSH1 0x24 DUP3 ADD MSTORE PUSH7 0x115E1C1A5C9959 PUSH1 0xCA SHL PUSH1 0x44 DUP3 ADD MSTORE PUSH1 0x64 SWAP1 REVERT JUMPDEST PUSH1 0x40 MLOAD PUSH3 0x461BCD PUSH1 0xE5 SHL DUP2 MSTORE PUSH1 0x4 DUP2 ADD DUP8 SWAP1 MSTORE PUSH1 0x8 PUSH1 0x24 DUP3 ADD MSTORE PUSH8 0x2737BA1037B832B7 PUSH1 0xC1 SHL PUSH1 0x44 DUP3 ADD MSTORE PUSH1 0x64 SWAP1 REVERT JUMPDEST CALLVALUE PUSH2 0x582 JUMPI PUSH1 0x60 CALLDATASIZE PUSH1 0x3 NOT ADD SLT PUSH2 0x582 JUMPI PUSH1 0x1 PUSH1 0x1 PUSH1 0x40 SHL SUB PUSH1 0x4 CALLDATALOAD DUP2 DUP2 GT PUSH2 0x582 JUMPI PUSH2 0x1F96 SWAP1 CALLDATASIZE SWAP1 PUSH1 0x4 ADD PUSH2 0x2C7B JUMP JUMPDEST SWAP1 PUSH2 0x1F9F PUSH2 0x2D35 JUMP JUMPDEST SWAP2 PUSH1 0x44 CALLDATALOAD DUP3 DUP2 GT PUSH2 0x582 JUMPI PUSH2 0x1FB8 SWAP1 CALLDATASIZE SWAP1 PUSH1 0x4 ADD PUSH2 0x2C7B JUMP JUMPDEST SWAP3 PUSH1 0xFF PUSH2 0x1FED PUSH1 0x40 MLOAD DUP5 MLOAD PUSH2 0x1FDC PUSH1 0x20 SWAP5 DUP4 DUP7 DUP1 SWAP6 DUP2 DUP12 ADD SWAP6 PUSH2 0x211 DUP2 DUP4 DUP10 PUSH2 0x2D12 JUMP JUMPDEST PUSH1 0x40 MLOAD DUP1 SWAP4 DUP2 SWAP3 DUP9 MLOAD SWAP3 DUP4 SWAP2 PUSH2 0x2D12 JUMP JUMPDEST DUP2 ADD PUSH1 0xA DUP2 MSTORE SUB ADD SWAP1 KECCAK256 SWAP4 PUSH1 0x6 DUP6 ADD SWAP1 PUSH1 0xFF DUP3 SLOAD AND PUSH1 0x5 DUP2 LT ISZERO PUSH2 0x56C JUMPI DUP1 ISZERO SWAP1 DUP2 ISZERO PUSH2 0x229D JUMPI JUMPDEST POP ISZERO PUSH2 0x226B JUMPI PUSH1 0x0 PUSH2 0x2026 DUP7 PUSH2 0x305A JUMP JUMPDEST PUSH1 0x2 SLOAD PUSH1 0x40 MLOAD PUSH4 0x23B872DD PUSH1 0xE0 SHL DUP2 MSTORE CALLER PUSH1 0x4 DUP3 ADD MSTORE ADDRESS PUSH1 0x24 DUP3 ADD MSTORE PUSH1 0x44 DUP2 ADD DUP4 SWAP1 MSTORE SWAP2 SWAP9 SWAP2 SWAP3 DUP7 SWAP2 DUP5 SWAP2 PUSH1 0x64 SWAP2 DUP4 SWAP2 SWAP1 PUSH1 0x1 PUSH1 0x1 PUSH1 0xA0 SHL SUB AND GAS CALL SWAP2 DUP3 ISZERO PUSH2 0x3FE JUMPI PUSH1 0x9 SWAP3 PUSH2 0x207E SWAP2 PUSH1 0x0 SWAP2 PUSH2 0x224E JUMPI JUMPDEST POP PUSH2 0x30A6 JUMP JUMPDEST DUP4 SLOAD PUSH4 0x1000000 PUSH1 0x1 PUSH1 0xC0 SHL SUB NOT AND CALLER PUSH1 0x18 SHL PUSH4 0x1000000 PUSH1 0x1 PUSH1 0xB8 SHL SUB AND OR SWAP6 ISZERO ISZERO PUSH1 0xB8 DUP2 SWAP1 SHL PUSH1 0xFF PUSH1 0xB8 SHL AND SWAP7 SWAP1 SWAP7 OR DUP5 SSTORE TIMESTAMP PUSH1 0x7 DUP3 ADD SSTORE PUSH1 0x8 DUP2 ADD DUP9 SWAP1 SSTORE DUP9 MLOAD SWAP2 ADD SWAP2 DUP2 GT PUSH2 0x1896 JUMPI PUSH2 0x20D4 DUP3 SLOAD PUSH2 0x2D44 JUMP JUMPDEST PUSH1 0x1F DUP2 GT PUSH2 0x2208 JUMPI JUMPDEST POP DUP1 DUP5 PUSH1 0x1F DUP3 GT PUSH1 0x1 EQ PUSH2 0x21A4 JUMPI PUSH1 0x0 SWAP2 PUSH2 0x2199 JUMPI JUMPDEST POP DUP2 PUSH1 0x1 SHL SWAP2 PUSH1 0x0 NOT SWAP1 PUSH1 0x3 SHL SHR NOT AND OR SWAP1 SSTORE JUMPDEST PUSH1 0x2 PUSH1 0xFF NOT DUP3 SLOAD AND OR SWAP1 SSTORE CALLER PUSH1 0x0 MSTORE PUSH1 0xF DUP2 MSTORE PUSH1 0x40 PUSH1 0x0 KECCAK256 PUSH2 0x212A DUP6 DUP3 SLOAD PUSH2 0x2F16 JUMP JUMPDEST SWAP1 SSTORE PUSH2 0xA8C0 TIMESTAMP ADD SWAP5 DUP6 TIMESTAMP GT PUSH2 0x1E70 JUMPI PUSH32 0x5247F2366F7E70FC0B5FC61F486408D977047C08D356FFB76C3D35832CEEAF26 SWAP6 PUSH2 0x2177 SWAP6 PUSH2 0x3CC SWAP5 PUSH1 0x40 MLOAD SWAP8 DUP9 SWAP8 PUSH1 0xC0 DUP10 MSTORE PUSH1 0xC0 DUP10 ADD SWAP1 PUSH2 0x2E24 JUMP JUMPDEST SWAP5 CALLER SWAP1 DUP9 ADD MSTORE PUSH1 0x40 DUP8 ADD MSTORE PUSH1 0x60 DUP7 ADD MSTORE PUSH1 0x80 DUP6 ADD MSTORE DUP4 DUP3 SUB PUSH1 0xA0 DUP6 ADD MSTORE PUSH2 0x2E24 JUMP JUMPDEST SWAP1 POP DUP9 ADD MLOAD DUP10 PUSH2 0x20F3 JUMP JUMPDEST PUSH1 0x0 DUP5 DUP2 MSTORE DUP7 DUP2 KECCAK256 SWAP3 POP PUSH1 0x1F NOT DUP5 AND SWAP1 JUMPDEST DUP8 DUP13 DUP4 DUP4 LT PUSH2 0x21F3 JUMPI POP POP POP SWAP1 DUP4 PUSH1 0x1 SWAP5 SWAP4 SWAP3 LT PUSH2 0x21DA JUMPI JUMPDEST POP POP DUP2 SHL ADD SWAP1 SSTORE PUSH2 0x2107 JUMP JUMPDEST DUP11 ADD MLOAD PUSH1 0x0 NOT PUSH1 0xF8 DUP5 PUSH1 0x3 SHL AND SHR NOT AND SWAP1 SSTORE DUP10 DUP1 PUSH2 0x21CE JUMP JUMPDEST DUP5 ADD MLOAD DUP6 SSTORE PUSH1 0x1 SWAP1 SWAP5 ADD SWAP4 SWAP3 DUP4 ADD SWAP3 ADD PUSH2 0x21B5 JUMP JUMPDEST DUP3 PUSH1 0x0 MSTORE DUP5 PUSH1 0x0 KECCAK256 PUSH1 0x1F DUP4 ADD PUSH1 0x5 SHR DUP2 ADD SWAP2 DUP7 DUP5 LT PUSH2 0x2244 JUMPI JUMPDEST PUSH1 0x1F ADD PUSH1 0x5 SHR ADD SWAP1 JUMPDEST DUP2 DUP2 LT PUSH2 0x2238 JUMPI POP PUSH2 0x20DD JUMP JUMPDEST PUSH1 0x0 DUP2 SSTORE PUSH1 0x1 ADD PUSH2 0x222B JUMP JUMPDEST SWAP1 SWAP2 POP DUP2 SWAP1 PUSH2 0x2222 JUMP JUMPDEST PUSH2 0x2265 SWAP2 POP DUP8 RETURNDATASIZE DUP10 GT PUSH2 0x3F7 JUMPI PUSH2 0x3E8 DUP2 DUP4 PUSH2 0x2C5A JUMP JUMPDEST DUP12 PUSH2 0x2078 JUMP JUMPDEST PUSH1 0x40 MLOAD PUSH3 0x461BCD PUSH1 0xE5 SHL DUP2 MSTORE PUSH1 0x4 DUP2 ADD DUP5 SWAP1 MSTORE PUSH1 0xA PUSH1 0x24 DUP3 ADD MSTORE PUSH10 0x4E6F7420616374697665 PUSH1 0xB0 SHL PUSH1 0x44 DUP3 ADD MSTORE PUSH1 0x64 SWAP1 REVERT JUMPDEST PUSH1 0x1 SWAP2 POP EQ DUP9 PUSH2 0x2015 JUMP JUMPDEST CALLVALUE PUSH2 0x582 JUMPI PUSH1 0x20 CALLDATASIZE PUSH1 0x3 NOT ADD SLT PUSH2 0x582 JUMPI PUSH2 0x22C1 PUSH2 0x2C44 JUMP JUMPDEST PUSH1 0x0 SLOAD PUSH1 0x1 PUSH1 0x1 PUSH1 0xA0 SHL SUB DUP1 DUP3 AND SWAP3 PUSH32 0x101B8081FF3B56BBF45DEB824D86A3B0FD38B7E3DD42421105CF8ABE9106DB0B SWAP2 PUSH2 0x22FD CALLER DUP7 EQ PUSH2 0x2E49 JUMP JUMPDEST DUP2 AND SWAP4 PUSH2 0x230B DUP6 ISZERO ISZERO PUSH2 0x2E82 JUMP JUMPDEST PUSH1 0x40 DUP1 MLOAD PUSH1 0x1 PUSH1 0x1 PUSH1 0xA0 SHL SUB SWAP3 DUP4 AND DUP2 MSTORE SWAP3 SWAP1 SWAP2 AND PUSH1 0x20 DUP4 ADD MSTORE SWAP1 LOG1 PUSH1 0x1 PUSH1 0x1 PUSH1 0xA0 SHL SUB NOT AND OR PUSH1 0x0 SSTORE STOP JUMPDEST CALLVALUE PUSH2 0x582 JUMPI PUSH1 0x0 CALLDATASIZE PUSH1 0x3 NOT ADD SLT PUSH2 0x582 JUMPI PUSH1 0x20 PUSH1 0x6 SLOAD PUSH1 0x40 MLOAD SWAP1 DUP2 MSTORE RETURN JUMPDEST CALLVALUE PUSH2 0x582 JUMPI PUSH1 0x0 CALLDATASIZE PUSH1 0x3 NOT ADD SLT PUSH2 0x582 JUMPI CALLER PUSH1 0x0 MSTORE PUSH1 0x20 PUSH1 0x9 DUP2 MSTORE PUSH1 0x40 PUSH1 0x0 KECCAK256 SLOAD DUP1 ISZERO PUSH2 0x241A JUMPI CALLER PUSH1 0x0 DUP2 DUP2 MSTORE PUSH1 0x9 DUP5 MSTORE PUSH1 0x40 DUP1 DUP3 KECCAK256 DUP3 SWAP1 SSTORE PUSH1 0x2 SLOAD SWAP1 MLOAD PUSH4 0xA9059CBB PUSH1 0xE0 SHL DUP2 MSTORE PUSH1 0x4 DUP2 ADD SWAP4 SWAP1 SWAP4 MSTORE PUSH1 0x24 DUP4 ADD DUP5 SWAP1 MSTORE SWAP2 SWAP3 SWAP2 DUP5 SWAP2 DUP5 SWAP2 PUSH1 0x44 SWAP2 DUP4 SWAP2 PUSH1 0x1 PUSH1 0x1 PUSH1 0xA0 SHL SUB AND GAS CALL SWAP3 DUP4 ISZERO PUSH2 0x3FE JUMPI PUSH32 0xD41118E36DF44EFB77A471FC49FB9C0BE0406D802EF95520E9FBF606E65B455 SWAP4 PUSH2 0x3CC SWAP4 PUSH2 0x2402 SWAP3 PUSH1 0x0 SWAP3 PUSH2 0x1065 JUMPI POP POP PUSH2 0x2ED8 JUMP JUMPDEST PUSH1 0x40 DUP1 MLOAD CALLER DUP2 MSTORE PUSH1 0x20 DUP2 ADD SWAP3 SWAP1 SWAP3 MSTORE SWAP1 SWAP2 DUP3 SWAP2 DUP3 ADD SWAP1 JUMP JUMPDEST PUSH1 0x40 MLOAD PUSH3 0x461BCD PUSH1 0xE5 SHL DUP2 MSTORE PUSH1 0x4 DUP2 ADD DUP4 SWAP1 MSTORE PUSH1 0x11 PUSH1 0x24 DUP3 ADD MSTORE PUSH17 0x4E6F20626F6E647320746F20636C61696D PUSH1 0x78 SHL PUSH1 0x44 DUP3 ADD MSTORE PUSH1 0x64 SWAP1 REVERT JUMPDEST CALLVALUE PUSH2 0x582 JUMPI PUSH1 0x0 CALLDATASIZE PUSH1 0x3 NOT ADD SLT PUSH2 0x582 JUMPI PUSH1 0x1 SLOAD PUSH1 0x40 MLOAD PUSH1 0x1 PUSH1 0x1 PUSH1 0xA0 SHL SUB SWAP1 SWAP2 AND DUP2 MSTORE PUSH1 0x20 SWAP1 RETURN JUMPDEST CALLVALUE PUSH2 0x582 JUMPI PUSH1 0x0 CALLDATASIZE PUSH1 0x3 NOT ADD SLT PUSH2 0x582 JUMPI PUSH1 0x20 PUSH1 0x40 MLOAD PUSH8 0xDE0B6B3A7640000 DUP2 MSTORE RETURN JUMPDEST CALLVALUE PUSH2 0x582 JUMPI PUSH1 0x20 CALLDATASIZE PUSH1 0x3 NOT ADD SLT PUSH2 0x582 JUMPI PUSH1 0x4 CALLDATALOAD PUSH1 0x1 PUSH1 0x1 PUSH1 0x40 SHL SUB DUP2 GT PUSH2 0x582 JUMPI PUSH1 0xFF PUSH2 0x24EA PUSH1 0x20 PUSH2 0x24D7 DUP2 SWAP5 CALLDATASIZE SWAP1 PUSH1 0x4 ADD PUSH2 0x2C7B JUMP JUMPDEST DUP2 PUSH1 0x40 MLOAD SWAP4 DUP3 DUP6 DUP1 SWAP5 MLOAD SWAP4 DUP5 SWAP3 ADD PUSH2 0x2D12 JUMP JUMPDEST DUP2 ADD PUSH1 0xB DUP2 MSTORE SUB ADD SWAP1 KECCAK256 SLOAD AND PUSH1 0x40 MLOAD SWAP1 ISZERO ISZERO DUP2 MSTORE RETURN JUMPDEST CALLVALUE PUSH2 0x582 JUMPI PUSH1 0x20 PUSH2 0x2513 PUSH2 0x1299 CALLDATASIZE PUSH2 0x2CD1 JUMP JUMPDEST DUP2 ADD PUSH1 0xE DUP2 MSTORE SUB ADD SWAP1 KECCAK256 SWAP1 PUSH1 0x1 DUP1 PUSH1 0xA0 SHL SUB AND PUSH1 0x0 MSTORE PUSH1 0x20 MSTORE PUSH1 0x20 PUSH1 0xFF PUSH1 0x40 PUSH1 0x0 KECCAK256 SLOAD AND PUSH1 0x40 MLOAD SWAP1 ISZERO ISZERO DUP2 MSTORE RETURN JUMPDEST CALLVALUE PUSH2 0x582 JUMPI PUSH1 0x40 CALLDATASIZE PUSH1 0x3 NOT ADD SLT PUSH2 0x582 JUMPI PUSH1 0x1 PUSH1 0x1 PUSH1 0x40 SHL SUB PUSH1 0x4 CALLDATALOAD DUP2 DUP2 GT PUSH2 0x582 JUMPI PUSH2 0x2572 SWAP1 CALLDATASIZE SWAP1 PUSH1 0x4 ADD PUSH2 0x2C7B JUMP JUMPDEST PUSH1 0x24 DUP1 CALLDATALOAD SWAP3 DUP1 DUP5 GT PUSH2 0x582 JUMPI PUSH2 0x258E PUSH1 0xFF SWAP5 CALLDATASIZE SWAP1 PUSH1 0x4 ADD PUSH2 0x2C7B JUMP JUMPDEST SWAP2 PUSH2 0x25C1 PUSH1 0x40 MLOAD DUP6 MLOAD PUSH2 0x25B0 PUSH1 0x20 SWAP9 DUP4 DUP11 DUP1 SWAP6 DUP2 DUP13 ADD SWAP6 PUSH2 0x211 DUP2 DUP4 DUP10 PUSH2 0x2D12 JUMP JUMPDEST PUSH1 0x40 MLOAD DUP1 SWAP4 DUP2 SWAP3 DUP10 MLOAD SWAP3 DUP4 SWAP2 PUSH2 0x2D12 JUMP JUMPDEST DUP2 ADD PUSH1 0xA DUP2 MSTORE SUB ADD SWAP1 KECCAK256 PUSH1 0x6 DUP2 ADD SWAP2 DUP3 SLOAD SWAP4 PUSH1 0xFF DUP6 AND PUSH1 0x5 DUP2 LT ISZERO PUSH2 0x28FB JUMPI PUSH1 0x2 PUSH2 0x25EC SWAP2 EQ PUSH2 0x30E9 JUMP JUMPDEST PUSH1 0x7 DUP4 ADD SLOAD PUSH2 0xA8C0 DUP2 ADD DUP1 SWAP2 GT PUSH2 0x28E6 JUMPI TIMESTAMP GT PUSH2 0x28AA JUMPI PUSH1 0x1 PUSH1 0x1 PUSH1 0xA0 SHL SUB SWAP5 PUSH1 0x18 SHR DUP6 AND CALLER EQ PUSH2 0x286E JUMPI PUSH1 0x8 DUP4 ADD SLOAD PUSH1 0x2 SLOAD PUSH1 0x40 MLOAD PUSH4 0x23B872DD PUSH1 0xE0 SHL DUP2 MSTORE CALLER PUSH1 0x4 DUP3 ADD MSTORE ADDRESS PUSH1 0x24 DUP3 ADD MSTORE PUSH1 0x44 DUP2 ADD DUP4 SWAP1 MSTORE SWAP2 SWAP7 DUP11 SWAP2 DUP4 SWAP2 PUSH1 0x64 SWAP2 DUP4 SWAP2 PUSH1 0x0 SWAP2 AND GAS CALL DUP1 ISZERO PUSH2 0x3FE JUMPI PUSH2 0x2667 SWAP2 PUSH1 0x0 SWAP2 PUSH2 0x2851 JUMPI POP PUSH2 0x30A6 JUMP JUMPDEST PUSH1 0xA DUP4 ADD CALLER PUSH12 0xFFFFFFFFFFFFFFFFFFFFFFFF PUSH1 0xA0 SHL DUP3 SLOAD AND OR SWAP1 SSTORE DUP5 PUSH1 0xB DUP5 ADD SSTORE PUSH1 0xC DUP4 ADD SWAP2 DUP7 MLOAD SWAP2 DUP3 GT PUSH2 0x283D JUMPI POP PUSH2 0x26A1 DUP3 SLOAD PUSH2 0x2D44 JUMP JUMPDEST PUSH1 0x1F DUP2 GT PUSH2 0x27F7 JUMPI JUMPDEST POP DUP8 PUSH1 0x1F DUP3 GT PUSH1 0x1 EQ PUSH2 0x2766 JUMPI SWAP3 PUSH2 0x3CC SWAP6 SWAP3 DUP3 PUSH32 0x4BD7C92EBA598EE7AB038AC4A59AB8FEB6D65703229128829D6CDD17959B121F SWAP11 SWAP7 SWAP4 PUSH2 0x2743 SWAP11 SWAP10 SWAP7 PUSH1 0x0 SWAP2 PUSH2 0x275B JUMPI JUMPDEST POP DUP2 PUSH1 0x1 SHL SWAP2 PUSH1 0x0 NOT SWAP1 PUSH1 0x3 SHL SHR NOT AND OR SWAP1 SSTORE JUMPDEST PUSH1 0xD TIMESTAMP SWAP2 ADD SSTORE CALLER PUSH1 0x0 MSTORE PUSH1 0xF DUP5 MSTORE PUSH1 0x40 PUSH1 0x0 KECCAK256 PUSH2 0x2722 DUP4 DUP3 SLOAD PUSH2 0x2F16 JUMP JUMPDEST SWAP1 SSTORE PUSH1 0x3 PUSH1 0xFF NOT DUP3 SLOAD AND OR SWAP1 SSTORE PUSH1 0x40 MLOAD SWAP6 DUP7 SWAP6 PUSH1 0x80 DUP8 MSTORE PUSH1 0x80 DUP8 ADD SWAP1 PUSH2 0x2E24 JUMP JUMPDEST SWAP3 CALLER SWAP1 DUP7 ADD MSTORE PUSH1 0x40 DUP6 ADD MSTORE DUP4 DUP3 SUB PUSH1 0x60 DUP6 ADD MSTORE PUSH2 0x2E24 JUMP JUMPDEST SWAP1 POP DUP7 ADD MLOAD DUP13 PUSH2 0x26F0 JUMP JUMPDEST PUSH1 0x1F NOT DUP3 AND SWAP1 DUP4 PUSH1 0x0 MSTORE DUP10 PUSH1 0x0 KECCAK256 SWAP2 PUSH1 0x0 JUMPDEST DUP2 DUP2 LT PUSH2 0x27E0 JUMPI POP DUP4 PUSH2 0x2743 SWAP11 SWAP10 SWAP7 SWAP4 PUSH2 0x3CC SWAP10 SWAP7 SWAP4 PUSH32 0x4BD7C92EBA598EE7AB038AC4A59AB8FEB6D65703229128829D6CDD17959B121F SWAP14 SWAP10 SWAP7 PUSH1 0x1 SWAP5 LT PUSH2 0x27C7 JUMPI JUMPDEST POP POP DUP2 SHL ADD SWAP1 SSTORE PUSH2 0x2704 JUMP JUMPDEST DUP9 ADD MLOAD PUSH1 0x0 NOT PUSH1 0xF8 DUP5 PUSH1 0x3 SHL AND SHR NOT AND SWAP1 SSTORE DUP13 DUP1 PUSH2 0x27BB JUMP JUMPDEST SWAP2 SWAP3 DUP12 PUSH1 0x1 DUP2 SWAP3 DUP7 DUP14 ADD MLOAD DUP2 SSTORE ADD SWAP5 ADD SWAP3 ADD PUSH2 0x2778 JUMP JUMPDEST DUP3 PUSH1 0x0 MSTORE DUP9 PUSH1 0x0 KECCAK256 PUSH1 0x1F DUP4 ADD PUSH1 0x5 SHR DUP2 ADD SWAP2 DUP11 DUP5 LT PUSH2 0x2833 JUMPI JUMPDEST PUSH1 0x1F ADD PUSH1 0x5 SHR ADD SWAP1 JUMPDEST DUP2 DUP2 LT PUSH2 0x2827 JUMPI POP PUSH2 0x26AA JUMP JUMPDEST PUSH1 0x0 DUP2 SSTORE PUSH1 0x1 ADD PUSH2 0x281A JUMP JUMPDEST SWAP1 SWAP2 POP DUP2 SWAP1 PUSH2 0x2811 JUMP JUMPDEST PUSH4 0x4E487B71 PUSH1 0xE0 SHL PUSH1 0x0 SWAP1 DUP2 MSTORE PUSH1 0x41 PUSH1 0x4 MSTORE REVERT JUMPDEST PUSH2 0x2868 SWAP2 POP DUP11 RETURNDATASIZE DUP13 GT PUSH2 0x3F7 JUMPI PUSH2 0x3E8 DUP2 DUP4 PUSH2 0x2C5A JUMP JUMPDEST DUP11 PUSH2 0x2078 JUMP JUMPDEST PUSH1 0x40 MLOAD PUSH3 0x461BCD PUSH1 0xE5 SHL DUP2 MSTORE PUSH1 0x4 DUP2 ADD DUP10 SWAP1 MSTORE PUSH1 0x15 DUP2 DUP5 ADD MSTORE PUSH21 0x21B0B73737BA1031B430B63632B733B29039B2B633 PUSH1 0x59 SHL PUSH1 0x44 DUP3 ADD MSTORE PUSH1 0x64 SWAP1 REVERT JUMPDEST PUSH1 0x40 MLOAD PUSH3 0x461BCD PUSH1 0xE5 SHL DUP2 MSTORE PUSH1 0x4 DUP2 ADD DUP10 SWAP1 MSTORE PUSH1 0x15 DUP2 DUP5 ADD MSTORE PUSH21 0x111A5CDC1D5D19481DDA5B991BDDC818DB1BDCD959 PUSH1 0x5A SHL PUSH1 0x44 DUP3 ADD MSTORE PUSH1 0x64 SWAP1 REVERT JUMPDEST DUP3 PUSH4 0x4E487B71 PUSH1 0xE0 SHL PUSH1 0x0 MSTORE PUSH1 0x11 PUSH1 0x4 MSTORE PUSH1 0x0 REVERT JUMPDEST DUP3 PUSH4 0x4E487B71 PUSH1 0xE0 SHL PUSH1 0x0 MSTORE PUSH1 0x21 PUSH1 0x4 MSTORE PUSH1 0x0 REVERT JUMPDEST CALLVALUE PUSH2 0x582 JUMPI PUSH1 0x20 CALLDATASIZE PUSH1 0x3 NOT ADD SLT PUSH2 0x582 JUMPI PUSH1 0x1 PUSH1 0x1 PUSH1 0xA0 SHL SUB PUSH2 0x2931 PUSH2 0x2C44 JUMP JUMPDEST AND PUSH1 0x0 MSTORE PUSH1 0xF PUSH1 0x20 MSTORE PUSH1 0x20 PUSH1 0x40 PUSH1 0x0 KECCAK256 SLOAD PUSH1 0x40 MLOAD SWAP1 DUP2 MSTORE RETURN JUMPDEST CALLVALUE PUSH2 0x582 JUMPI PUSH1 0x0 CALLDATASIZE PUSH1 0x3 NOT ADD SLT PUSH2 0x582 JUMPI PUSH1 0x20 PUSH1 0x40 MLOAD PUSH1 0x64 DUP2 MSTORE RETURN JUMPDEST CALLVALUE PUSH2 0x582 JUMPI PUSH1 0x20 DUP1 PUSH1 0x3 NOT CALLDATASIZE ADD SLT PUSH2 0x582 JUMPI PUSH1 0x4 CALLDATALOAD PUSH1 0x1 PUSH1 0x1 PUSH1 0x40 SHL SUB DUP2 GT PUSH2 0x582 JUMPI PUSH2 0x2997 SWAP1 CALLDATASIZE SWAP1 PUSH1 0x4 ADD PUSH2 0x2C7B JUMP JUMPDEST PUSH2 0x29C8 DUP3 PUSH1 0x40 MLOAD PUSH2 0x29B7 PUSH1 0xFF DUP6 MLOAD SWAP3 DUP5 DUP2 DUP2 DUP10 ADD SWAP6 PUSH2 0x211 DUP2 DUP4 DUP10 PUSH2 0x2D12 JUMP JUMPDEST PUSH1 0x40 MLOAD DUP1 SWAP4 DUP2 SWAP3 DUP7 MLOAD SWAP3 DUP4 SWAP2 PUSH2 0x2D12 JUMP JUMPDEST DUP2 ADD PUSH1 0xA DUP2 MSTORE SUB ADD SWAP1 KECCAK256 SWAP1 PUSH1 0x6 DUP3 ADD DUP1 SLOAD PUSH1 0xFF DUP2 AND PUSH1 0x5 DUP2 LT ISZERO PUSH2 0x56C JUMPI PUSH1 0x2 PUSH2 0x29F2 SWAP2 EQ PUSH2 0x30E9 JUMP JUMPDEST PUSH1 0x7 DUP5 ADD SLOAD PUSH2 0xA8C0 DUP2 ADD DUP1 SWAP2 GT PUSH2 0x1E70 JUMPI TIMESTAMP GT ISZERO PUSH2 0x2B50 JUMPI SWAP4 PUSH1 0xFF PUSH2 0x3CC SWAP3 PUSH32 0xE2B1D963F1EC20D10D097A5196A0A9E7B5FF982020B428F20918FE52A2234EDF PUSH32 0x175B08E6EE8BBCEB85780E790ADCA99EC4FBD3BB124FFBF50BD35ED4375A69AC SWAP8 PUSH1 0x1 DUP1 PUSH1 0xA0 SHL SUB SWAP1 PUSH1 0x18 SHR AND SWAP4 PUSH1 0x8 DUP9 ADD SLOAD SWAP5 DUP1 PUSH1 0x0 MSTORE PUSH1 0xF DUP3 MSTORE PUSH1 0x40 PUSH1 0x0 KECCAK256 PUSH2 0x2A7F DUP8 DUP3 SLOAD PUSH2 0x2F8E JUMP JUMPDEST SWAP1 SSTORE PUSH1 0xE DUP10 ADD SWAP6 PUSH1 0x64 PUSH2 0x2A9A PUSH1 0xF DUP10 SLOAD SWAP13 ADD SWAP12 DUP13 SLOAD SWAP1 PUSH2 0x2F16 JUMP JUMPDEST DIV SWAP3 DUP4 DUP3 DUP2 ISZERO ISZERO DUP1 PUSH2 0x2B44 JUMPI JUMPDEST PUSH2 0x2B24 JUMPI JUMPDEST POP POP PUSH1 0x9 SWAP1 DUP4 PUSH1 0x0 MSTORE MSTORE PUSH2 0x2AC6 PUSH1 0x40 PUSH1 0x0 KECCAK256 SWAP2 DUP3 SLOAD PUSH2 0x2F16 JUMP JUMPDEST SWAP1 SSTORE DUP4 SLOAD PUSH2 0xFF00 NOT DUP7 NOT SWAP2 SWAP1 SWAP2 AND PUSH1 0x4 OR SWAP1 DUP2 AND PUSH1 0xB8 SWAP2 SWAP1 SWAP2 SHR DUP7 AND ISZERO ISZERO PUSH1 0x8 SHL PUSH2 0xFF00 AND OR DUP5 SSTORE PUSH2 0x2AFE PUSH1 0x40 MLOAD SWAP3 DUP4 SWAP3 DUP11 DUP5 PUSH2 0x3148 JUMP JUMPDEST SUB SWAP1 LOG1 SLOAD PUSH1 0x8 SHR AND SWAP4 DUP5 ISZERO PUSH2 0x2B1C JUMPI POP SLOAD JUMPDEST PUSH1 0x40 MLOAD SWAP4 DUP5 SWAP4 DUP5 PUSH2 0x3124 JUMP JUMPDEST SWAP1 POP SLOAD PUSH2 0x2B10 JUMP JUMPDEST PUSH1 0x9 SWAP3 SWAP4 POP SWAP1 PUSH2 0x2B3A SWAP2 PUSH2 0xBFA DUP3 PUSH1 0x6 SLOAD PUSH2 0x2F8E JUMP JUMPDEST SWAP2 SWAP1 POP DUP4 DUP14 PUSH2 0x2AAC JUMP JUMPDEST POP DUP2 PUSH1 0x6 SLOAD LT ISZERO PUSH2 0x2AA7 JUMP JUMPDEST PUSH1 0x40 MLOAD PUSH3 0x461BCD PUSH1 0xE5 SHL DUP2 MSTORE PUSH1 0x4 DUP2 ADD DUP7 SWAP1 MSTORE PUSH1 0xD PUSH1 0x24 DUP3 ADD MSTORE PUSH13 0x57696E646F7720616374697665 PUSH1 0x98 SHL PUSH1 0x44 DUP3 ADD MSTORE PUSH1 0x64 SWAP1 REVERT JUMPDEST CALLVALUE PUSH2 0x582 JUMPI PUSH1 0x0 CALLDATASIZE PUSH1 0x3 NOT ADD SLT PUSH2 0x582 JUMPI PUSH1 0x20 PUSH1 0x4 SLOAD PUSH1 0x40 MLOAD SWAP1 DUP2 MSTORE RETURN JUMPDEST CALLVALUE PUSH2 0x582 JUMPI PUSH1 0x0 CALLDATASIZE PUSH1 0x3 NOT ADD SLT PUSH2 0x582 JUMPI PUSH1 0x2 SLOAD PUSH1 0x40 MLOAD PUSH1 0x1 PUSH1 0x1 PUSH1 0xA0 SHL SUB SWAP1 SWAP2 AND DUP2 MSTORE PUSH1 0x20 SWAP1 RETURN JUMPDEST CALLVALUE PUSH2 0x582 JUMPI PUSH1 0x20 CALLDATASIZE PUSH1 0x3 NOT ADD SLT PUSH2 0x582 JUMPI PUSH1 0x4 CALLDATALOAD PUSH1 0x1 PUSH1 0x1 PUSH1 0x40 SHL SUB DUP2 GT PUSH2 0x582 JUMPI PUSH2 0x2C06 PUSH2 0x2C01 PUSH1 0x20 SWAP3 CALLDATASIZE SWAP1 PUSH1 0x4 ADD PUSH2 0x2C7B JUMP JUMPDEST PUSH2 0x305A JUMP JUMPDEST PUSH1 0x40 MLOAD SWAP1 DUP2 MSTORE RETURN JUMPDEST CALLVALUE PUSH2 0x582 JUMPI PUSH1 0x20 CALLDATASIZE PUSH1 0x3 NOT ADD SLT PUSH2 0x582 JUMPI PUSH1 0x20 SWAP1 PUSH1 0x1 PUSH1 0x1 PUSH1 0xA0 SHL SUB PUSH2 0x2C32 PUSH2 0x2C44 JUMP JUMPDEST AND PUSH1 0x0 MSTORE PUSH1 0x9 DUP3 MSTORE PUSH1 0x40 PUSH1 0x0 KECCAK256 SLOAD DUP2 MSTORE RETURN JUMPDEST PUSH1 0x4 CALLDATALOAD SWAP1 PUSH1 0x1 PUSH1 0x1 PUSH1 0xA0 SHL SUB DUP3 AND DUP3 SUB PUSH2 0x582 JUMPI JUMP JUMPDEST SWAP1 PUSH1 0x1F DUP1 NOT SWAP2 ADD AND DUP2 ADD SWAP1 DUP2 LT PUSH1 0x1 PUSH1 0x1 PUSH1 0x40 SHL SUB DUP3 GT OR PUSH2 0x1896 JUMPI PUSH1 0x40 MSTORE JUMP JUMPDEST DUP2 PUSH1 0x1F DUP3 ADD SLT ISZERO PUSH2 0x582 JUMPI DUP1 CALLDATALOAD SWAP1 PUSH1 0x1 PUSH1 0x1 PUSH1 0x40 SHL SUB DUP3 GT PUSH2 0x1896 JUMPI PUSH1 0x40 MLOAD SWAP3 PUSH2 0x2CAF PUSH1 0x1F DUP5 ADD PUSH1 0x1F NOT AND PUSH1 0x20 ADD DUP6 PUSH2 0x2C5A JUMP JUMPDEST DUP3 DUP5 MSTORE PUSH1 0x20 DUP4 DUP4 ADD ADD GT PUSH2 0x582 JUMPI DUP2 PUSH1 0x0 SWAP3 PUSH1 0x20 DUP1 SWAP4 ADD DUP4 DUP7 ADD CALLDATACOPY DUP4 ADD ADD MSTORE SWAP1 JUMP JUMPDEST PUSH1 0x40 PUSH1 0x3 NOT DUP3 ADD SLT PUSH2 0x582 JUMPI PUSH1 0x4 CALLDATALOAD SWAP1 PUSH1 0x1 PUSH1 0x1 PUSH1 0x40 SHL SUB DUP3 GT PUSH2 0x582 JUMPI PUSH2 0x2CFB SWAP2 PUSH1 0x4 ADD PUSH2 0x2C7B JUMP JUMPDEST SWAP1 PUSH1 0x24 CALLDATALOAD PUSH1 0x1 PUSH1 0x1 PUSH1 0xA0 SHL SUB DUP2 AND DUP2 SUB PUSH2 0x582 JUMPI SWAP1 JUMP JUMPDEST PUSH1 0x0 JUMPDEST DUP4 DUP2 LT PUSH2 0x2D25 JUMPI POP POP PUSH1 0x0 SWAP2 ADD MSTORE JUMP JUMPDEST DUP2 DUP2 ADD MLOAD DUP4 DUP3 ADD MSTORE PUSH1 0x20 ADD PUSH2 0x2D15 JUMP JUMPDEST PUSH1 0x24 CALLDATALOAD SWAP1 DUP2 ISZERO ISZERO DUP3 SUB PUSH2 0x582 JUMPI JUMP JUMPDEST SWAP1 PUSH1 0x1 DUP3 DUP2 SHR SWAP3 AND DUP1 ISZERO PUSH2 0x2D74 JUMPI JUMPDEST PUSH1 0x20 DUP4 LT EQ PUSH2 0x2D5E JUMPI JUMP JUMPDEST PUSH4 0x4E487B71 PUSH1 0xE0 SHL PUSH1 0x0 MSTORE PUSH1 0x22 PUSH1 0x4 MSTORE PUSH1 0x24 PUSH1 0x0 REVERT JUMPDEST SWAP2 PUSH1 0x7F AND SWAP2 PUSH2 0x2D53 JUMP JUMPDEST SWAP1 PUSH1 0x40 MLOAD SWAP2 DUP3 PUSH1 0x0 DUP3 SLOAD SWAP3 PUSH2 0x2D92 DUP5 PUSH2 0x2D44 JUMP JUMPDEST SWAP1 DUP2 DUP5 MSTORE PUSH1 0x1 SWAP5 DUP6 DUP2 AND SWAP1 DUP2 PUSH1 0x0 EQ PUSH2 0x2E01 JUMPI POP PUSH1 0x1 EQ PUSH2 0x2DBE JUMPI JUMPDEST POP POP PUSH2 0x2DBC SWAP3 POP SUB DUP4 PUSH2 0x2C5A JUMP JUMPDEST JUMP JUMPDEST SWAP1 SWAP4 SWAP2 POP PUSH1 0x0 MSTORE PUSH1 0x20 SWAP1 DUP2 PUSH1 0x0 KECCAK256 SWAP4 PUSH1 0x0 SWAP2 JUMPDEST DUP2 DUP4 LT PUSH2 0x2DE9 JUMPI POP POP PUSH2 0x2DBC SWAP4 POP DUP3 ADD ADD CODESIZE DUP1 PUSH2 0x2DAE JUMP JUMPDEST DUP6 SLOAD DUP9 DUP5 ADD DUP6 ADD MSTORE SWAP5 DUP6 ADD SWAP5 DUP8 SWAP5 POP SWAP2 DUP4 ADD SWAP2 PUSH2 0x2DD1 JUMP JUMPDEST SWAP2 POP POP PUSH2 0x2DBC SWAP5 POP PUSH1 0x20 SWAP3 POP PUSH1 0xFF NOT AND DUP3 DUP5 ADD MSTORE ISZERO ISZERO PUSH1 0x5 SHL DUP3 ADD ADD CODESIZE DUP1 PUSH2 0x2DAE JUMP JUMPDEST SWAP1 PUSH1 0x20 SWAP2 PUSH2 0x2E3D DUP2 MLOAD DUP1 SWAP3 DUP2 DUP6 MSTORE DUP6 DUP1 DUP7 ADD SWAP2 ADD PUSH2 0x2D12 JUMP JUMPDEST PUSH1 0x1F ADD PUSH1 0x1F NOT AND ADD ADD SWAP1 JUMP JUMPDEST ISZERO PUSH2 0x2E50 JUMPI JUMP JUMPDEST PUSH1 0x40 MLOAD PUSH3 0x461BCD PUSH1 0xE5 SHL DUP2 MSTORE PUSH1 0x20 PUSH1 0x4 DUP3 ADD MSTORE PUSH1 0xA PUSH1 0x24 DUP3 ADD MSTORE PUSH10 0x27B7363C9030B236B4B7 PUSH1 0xB1 SHL PUSH1 0x44 DUP3 ADD MSTORE PUSH1 0x64 SWAP1 REVERT JUMPDEST ISZERO PUSH2 0x2E89 JUMPI JUMP JUMPDEST PUSH1 0x40 MLOAD PUSH3 0x461BCD PUSH1 0xE5 SHL DUP2 MSTORE PUSH1 0x20 PUSH1 0x4 DUP3 ADD MSTORE PUSH1 0xF PUSH1 0x24 DUP3 ADD MSTORE PUSH15 0x496E76616C69642061646472657373 PUSH1 0x88 SHL PUSH1 0x44 DUP3 ADD MSTORE PUSH1 0x64 SWAP1 REVERT JUMPDEST SWAP1 DUP2 PUSH1 0x20 SWAP2 SUB SLT PUSH2 0x582 JUMPI MLOAD DUP1 ISZERO ISZERO DUP2 SUB PUSH2 0x582 JUMPI SWAP1 JUMP JUMPDEST ISZERO PUSH2 0x2EDF JUMPI JUMP JUMPDEST PUSH1 0x40 MLOAD PUSH3 0x461BCD PUSH1 0xE5 SHL DUP2 MSTORE PUSH1 0x20 PUSH1 0x4 DUP3 ADD MSTORE PUSH1 0xF PUSH1 0x24 DUP3 ADD MSTORE PUSH15 0x151C985B9CD9995C8819985A5B1959 PUSH1 0x8A SHL PUSH1 0x44 DUP3 ADD MSTORE PUSH1 0x64 SWAP1 REVERT JUMPDEST SWAP2 SWAP1 DUP3 ADD DUP1 SWAP3 GT PUSH2 0x1E70 JUMPI JUMP JUMPDEST DUP2 ISZERO PUSH2 0x2F2D JUMPI DIV SWAP1 JUMP JUMPDEST PUSH4 0x4E487B71 PUSH1 0xE0 SHL PUSH1 0x0 MSTORE PUSH1 0x12 PUSH1 0x4 MSTORE PUSH1 0x24 PUSH1 0x0 REVERT JUMPDEST ISZERO PUSH2 0x2F4A JUMPI JUMP JUMPDEST PUSH1 0x40 MLOAD PUSH3 0x461BCD PUSH1 0xE5 SHL DUP2 MSTORE PUSH1 0x20 PUSH1 0x4 DUP3 ADD MSTORE PUSH1 0x9 PUSH1 0x24 DUP3 ADD MSTORE PUSH9 0x139BC81B585C9AD95D PUSH1 0xBA SHL PUSH1 0x44 DUP3 ADD MSTORE PUSH1 0x64 SWAP1 REVERT JUMPDEST DUP2 DUP2 MUL SWAP3 SWAP2 DUP2 ISZERO SWAP2 DUP5 DIV EQ OR ISZERO PUSH2 0x1E70 JUMPI JUMP JUMPDEST SWAP2 SWAP1 DUP3 SUB SWAP2 DUP3 GT PUSH2 0x1E70 JUMPI JUMP JUMPDEST DUP1 SLOAD SWAP1 PUSH9 0x10000000000000000 DUP3 LT ISZERO PUSH2 0x1896 JUMPI PUSH1 0x1 DUP3 ADD DUP1 DUP3 SSTORE DUP3 LT ISZERO PUSH2 0x2FE7 JUMPI PUSH1 0x0 MSTORE PUSH1 0x20 PUSH1 0x0 KECCAK256 ADD SWAP1 PUSH1 0x1 DUP1 PUSH1 0xA0 SHL SUB AND PUSH12 0xFFFFFFFFFFFFFFFFFFFFFFFF PUSH1 0xA0 SHL DUP3 SLOAD AND OR SWAP1 SSTORE JUMP JUMPDEST PUSH4 0x4E487B71 PUSH1 0xE0 SHL PUSH1 0x0 MSTORE PUSH1 0x32 PUSH1 0x4 MSTORE PUSH1 0x24 PUSH1 0x0 REVERT JUMPDEST PUSH1 0x0 SWAP1 DUP1 TIMESTAMP GT PUSH1 0x0 EQ PUSH2 0x3054 JUMPI PUSH2 0x3015 SWAP2 POP TIMESTAMP PUSH2 0x2F8E JUMP JUMPDEST DUP2 DUP2 LT ISZERO PUSH2 0x304D JUMPI PUSH2 0x3027 SWAP1 DUP3 PUSH2 0x2F8E JUMP JUMPDEST SWAP1 DUP2 PUSH1 0x32 MUL SWAP2 PUSH1 0x32 DUP4 DIV SUB PUSH2 0x1E70 JUMPI PUSH2 0x303F SWAP2 PUSH2 0x2F23 JUMP JUMPDEST PUSH1 0x64 ADD DUP1 PUSH1 0x64 GT PUSH2 0x1E70 JUMPI SWAP1 JUMP JUMPDEST POP POP PUSH1 0x64 SWAP1 JUMP JUMPDEST POP PUSH2 0x3015 JUMP JUMPDEST PUSH2 0x3091 PUSH2 0x3078 PUSH1 0x20 PUSH1 0xA SWAP4 DUP2 PUSH1 0x40 MLOAD SWAP4 DUP3 DUP6 DUP1 SWAP5 MLOAD SWAP4 DUP5 SWAP3 ADD PUSH2 0x2D12 JUMP JUMPDEST DUP2 ADD DUP6 DUP2 MSTORE SUB ADD SWAP1 KECCAK256 PUSH1 0xF PUSH1 0xE DUP3 ADD SLOAD SWAP2 ADD SLOAD SWAP1 PUSH2 0x2F16 JUMP JUMPDEST DIV PUSH3 0x4C4B40 DUP1 DUP3 LT PUSH2 0x30A1 JUMPI POP SWAP1 JUMP JUMPDEST SWAP1 POP SWAP1 JUMP JUMPDEST ISZERO PUSH2 0x30AD JUMPI JUMP JUMPDEST PUSH1 0x40 MLOAD PUSH3 0x461BCD PUSH1 0xE5 SHL DUP2 MSTORE PUSH1 0x20 PUSH1 0x4 DUP3 ADD MSTORE PUSH1 0x14 PUSH1 0x24 DUP3 ADD MSTORE PUSH20 0x109BDB99081D1C985B9CD9995C8819985A5B1959 PUSH1 0x62 SHL PUSH1 0x44 DUP3 ADD MSTORE PUSH1 0x64 SWAP1 REVERT JUMPDEST ISZERO PUSH2 0x30F0 JUMPI JUMP JUMPDEST PUSH1 0x40 MLOAD PUSH3 0x461BCD PUSH1 0xE5 SHL DUP2 MSTORE PUSH1 0x20 PUSH1 0x4 DUP3 ADD MSTORE PUSH1 0xC PUSH1 0x24 DUP3 ADD MSTORE PUSH12 0x139BDD081C1C9BDC1BDCD959 PUSH1 0xA2 SHL PUSH1 0x44 DUP3 ADD MSTORE PUSH1 0x64 SWAP1 REVERT JUMPDEST PUSH2 0x313C PUSH1 0x40 SWAP3 SWAP6 SWAP5 SWAP4 SWAP6 PUSH1 0x60 DUP4 MSTORE PUSH1 0x60 DUP4 ADD SWAP1 PUSH2 0x2E24 JUMP JUMPDEST SWAP5 ISZERO ISZERO PUSH1 0x20 DUP3 ADD MSTORE ADD MSTORE JUMP JUMPDEST PUSH2 0x3160 PUSH1 0x40 SWAP3 SWAP6 SWAP5 SWAP4 SWAP6 PUSH1 0x60 DUP4 MSTORE PUSH1 0x60 DUP4 ADD SWAP1 PUSH2 0x2E24 JUMP JUMPDEST PUSH1 0x1 PUSH1 0x1 PUSH1 0xA0 SHL SUB SWAP1 SWAP6 AND PUSH1 0x20 DUP3 ADD MSTORE ADD MSTORE JUMP JUMPDEST ISZERO PUSH2 0x317B JUMPI JUMP JUMPDEST PUSH1 0x40 MLOAD PUSH3 0x461BCD PUSH1 0xE5 SHL DUP2 MSTORE PUSH1 0x20 PUSH1 0x4 DUP3 ADD MSTORE PUSH1 0xC PUSH1 0x24 DUP3 ADD MSTORE PUSH12 0x139BDD081C995CDBDB1D9959 PUSH1 0xA2 SHL PUSH1 0x44 DUP3 ADD MSTORE PUSH1 0x64 SWAP1 REVERT JUMPDEST ISZERO PUSH2 0x31B6 JUMPI JUMP JUMPDEST PUSH1 0x40 MLOAD PUSH3 0x461BCD PUSH1 0xE5 SHL DUP2 MSTORE PUSH1 0x20 PUSH1 0x4 DUP3 ADD MSTORE PUSH1 0x7 PUSH1 0x24 DUP3 ADD MSTORE PUSH7 0x4E6F2066656573 PUSH1 0xC8 SHL PUSH1 0x44 DUP3 ADD MSTORE PUSH1 0x64 SWAP1 REVERT JUMPDEST ISZERO PUSH2 0x31EC JUMPI JUMP JUMPDEST PUSH1 0x40 MLOAD PUSH3 0x461BCD PUSH1 0xE5 SHL DUP2 MSTORE PUSH1 0x20 PUSH1 0x4 DUP3 ADD MSTORE PUSH1 0x8 PUSH1 0x24 DUP3 ADD MSTORE PUSH8 0x14995CDBDB1D9959 PUSH1 0xC2 SHL PUSH1 0x44 DUP3 ADD MSTORE PUSH1 0x64 SWAP1 REVERT INVALID LOG2 PUSH5 0x6970667358 0x22 SLT KECCAK256 0xE1 CODECOPY CHAINID PUSH32 0x49FD16CE651A4ED770FF3530C68BFEE7C33ABFF293A39DFDADB6DF5264736F6C PUSH4 0x43000814 STOP CALLER "},"methodIdentifiers":{"DISPUTE_WINDOW()":"f585dc57","FEE_DENOMINATOR()":"d73792a9","MAX_WEIGHT()":"e4a28a52","MIN_WEIGHT()":"218b5382","SHARE_PRECISION()":"5fc5e020","admin()":"f851a440","adminResolve(string,bool)":"e7785ffb","bondBalance(address)":"245e272f","challengeOutcome(string,string)":"287137b1","claimWinnings(string)":"fdbcf125","claimableBonds(address)":"006fb9ff","createMarket(string,string,uint256,uint256,uint256)":"9bd1d513","creatorBalance(address)":"e6cd7ab6","creatorFeeBps()":"17773ebb","finalizeOutcome(string)":"2023115d","getRequiredBond(string)":"0e90aeb2","hasClaimed(string,address)":"3cff3549","houseBalance()":"67084eb3","houseFeeBps()":"ee59d240","marketExists(string)":"3fed6ced","markets(string)":"efbda661","noBets(string,address)":"9a826eb7","placeBet(string,bool,uint256,address)":"7d191e06","proposeOutcome(string,bool,string)":"72264056","referrerFeeBps()":"a07c1633","resolveDispute(string,address,bool)":"ef03c10e","rewardsBalance(address)":"896bdac8","setAdmin(address)":"704b6c02","setTreasury(address)":"f0f44260","treasury()":"61d027b3","usdcToken()":"11eac855","voidMarket(string)":"c8eaef19","withdrawBond()":"66eb9cec","withdrawCreatorFees()":"e1cd04b4","withdrawHouseFees()":"f677b4d4","withdrawReferrerFees()":"dfdc5f77","withdrawSeed(string)":"e1e90ab3","yesBets(string,address)":"dbeae54c"}}}}}