{"contracts/PredictionBattleV6.sol":{"PredictionBattleV6":{"abi":[{"inputs":[{"internalType":"address","name":"_usdcAddress","type":"address"}],"stateMutability":"nonpayable","type":"constructor"},{"anonymous":false,"inputs":[{"indexed":false,"internalType":"string","name":"id","type":"string"},{"indexed":false,"internalType":"address","name":"user","type":"address"},{"indexed":false,"internalType":"bool","name":"vote","type":"bool"},{"indexed":false,"internalType":"uint256","name":"amount","type":"uint256"},{"indexed":false,"internalType":"uint256","name":"shares","type":"uint256"},{"indexed":false,"internalType":"address","name":"referrer","type":"address"},{"indexed":false,"internalType":"uint256","name":"weight","type":"uint256"}],"name":"BetPlaced","type":"event"},{"anonymous":false,"inputs":[{"indexed":false,"internalType":"string","name":"id","type":"string"},{"indexed":false,"internalType":"address","name":"winner","type":"address"},{"indexed":false,"internalType":"uint256","name":"totalBondReward","type":"uint256"},{"indexed":false,"internalType":"bool","name":"finalResult","type":"bool"}],"name":"DisputeResolved","type":"event"},{"anonymous":false,"inputs":[{"indexed":false,"internalType":"string","name":"id","type":"string"},{"indexed":false,"internalType":"address","name":"creator","type":"address"},{"indexed":false,"internalType":"uint256","name":"deadline","type":"uint256"},{"indexed":false,"internalType":"uint256","name":"bonusDuration","type":"uint256"}],"name":"MarketCreated","type":"event"},{"anonymous":false,"inputs":[{"indexed":false,"internalType":"string","name":"id","type":"string"},{"indexed":false,"internalType":"bool","name":"result","type":"bool"},{"indexed":false,"internalType":"uint256","name":"winnerPool","type":"uint256"}],"name":"MarketResolved","type":"event"},{"anonymous":false,"inputs":[{"indexed":false,"internalType":"string","name":"id","type":"string"}],"name":"MarketVoided","type":"event"},{"anonymous":false,"inputs":[{"indexed":false,"internalType":"string","name":"id","type":"string"},{"indexed":false,"internalType":"address","name":"challenger","type":"address"},{"indexed":false,"internalType":"uint256","name":"bond","type":"uint256"},{"indexed":false,"internalType":"string","name":"evidence","type":"string"}],"name":"OutcomeChallenged","type":"event"},{"anonymous":false,"inputs":[{"indexed":false,"internalType":"string","name":"id","type":"string"},{"indexed":false,"internalType":"address","name":"proposer","type":"address"},{"indexed":false,"internalType":"uint256","name":"reward","type":"uint256"}],"name":"OutcomeFinalized","type":"event"},{"anonymous":false,"inputs":[{"indexed":false,"internalType":"string","name":"id","type":"string"},{"indexed":false,"internalType":"address","name":"proposer","type":"address"},{"indexed":false,"internalType":"bool","name":"result","type":"bool"},{"indexed":false,"internalType":"uint256","name":"bond","type":"uint256"},{"indexed":false,"internalType":"uint256","name":"disputeEnd","type":"uint256"},{"indexed":false,"internalType":"string","name":"evidence","type":"string"}],"name":"OutcomeProposed","type":"event"},{"anonymous":false,"inputs":[{"indexed":false,"internalType":"string","name":"id","type":"string"},{"indexed":false,"internalType":"address","name":"user","type":"address"},{"indexed":false,"internalType":"uint256","name":"amount","type":"uint256"}],"name":"PayoutClaimed","type":"event"},{"anonymous":false,"inputs":[{"indexed":false,"internalType":"string","name":"id","type":"string"},{"indexed":false,"internalType":"uint256","name":"yesAmount","type":"uint256"},{"indexed":false,"internalType":"uint256","name":"noAmount","type":"uint256"}],"name":"SeedAdded","type":"event"},{"anonymous":false,"inputs":[{"indexed":false,"internalType":"string","name":"id","type":"string"},{"indexed":false,"internalType":"address","name":"creator","type":"address"},{"indexed":false,"internalType":"uint256","name":"amount","type":"uint256"}],"name":"SeedWithdrawn","type":"event"},{"inputs":[],"name":"DISPUTE_WINDOW","outputs":[{"internalType":"uint256","name":"","type":"uint256"}],"stateMutability":"view","type":"function"},{"inputs":[],"name":"FEE_DENOMINATOR","outputs":[{"internalType":"uint256","name":"","type":"uint256"}],"stateMutability":"view","type":"function"},{"inputs":[],"name":"MAX_WEIGHT","outputs":[{"internalType":"uint256","name":"","type":"uint256"}],"stateMutability":"view","type":"function"},{"inputs":[],"name":"MIN_WEIGHT","outputs":[{"internalType":"uint256","name":"","type":"uint256"}],"stateMutability":"view","type":"function"},{"inputs":[],"name":"SHARE_PRECISION","outputs":[{"internalType":"uint256","name":"","type":"uint256"}],"stateMutability":"view","type":"function"},{"inputs":[],"name":"admin","outputs":[{"internalType":"address","name":"","type":"address"}],"stateMutability":"view","type":"function"},{"inputs":[{"internalType":"string","name":"_marketId","type":"string"},{"internalType":"bool","name":"_result","type":"bool"}],"name":"adminResolve","outputs":[],"stateMutability":"nonpayable","type":"function"},{"inputs":[{"internalType":"address","name":"","type":"address"}],"name":"bondBalance","outputs":[{"internalType":"uint256","name":"","type":"uint256"}],"stateMutability":"view","type":"function"},{"inputs":[{"internalType":"string","name":"_marketId","type":"string"},{"internalType":"string","name":"_evidenceUrl","type":"string"}],"name":"challengeOutcome","outputs":[],"stateMutability":"nonpayable","type":"function"},{"inputs":[{"internalType":"string","name":"_id","type":"string"}],"name":"claimWinnings","outputs":[],"stateMutability":"nonpayable","type":"function"},{"inputs":[{"internalType":"string","name":"_id","type":"string"},{"internalType":"string","name":"_question","type":"string"},{"internalType":"uint256","name":"_usdcSeedAmount","type":"uint256"},{"internalType":"uint256","name":"_duration","type":"uint256"},{"internalType":"uint256","name":"_bonusDuration","type":"uint256"}],"name":"createMarket","outputs":[],"stateMutability":"nonpayable","type":"function"},{"inputs":[{"internalType":"address","name":"","type":"address"}],"name":"creatorBalance","outputs":[{"internalType":"uint256","name":"","type":"uint256"}],"stateMutability":"view","type":"function"},{"inputs":[],"name":"creatorFeeBps","outputs":[{"internalType":"uint256","name":"","type":"uint256"}],"stateMutability":"view","type":"function"},{"inputs":[{"internalType":"string","name":"_marketId","type":"string"}],"name":"finalizeOutcome","outputs":[],"stateMutability":"nonpayable","type":"function"},{"inputs":[{"internalType":"string","name":"_id","type":"string"}],"name":"getRequiredBond","outputs":[{"internalType":"uint256","name":"","type":"uint256"}],"stateMutability":"view","type":"function"},{"inputs":[{"internalType":"string","name":"","type":"string"},{"internalType":"address","name":"","type":"address"}],"name":"hasClaimed","outputs":[{"internalType":"bool","name":"","type":"bool"}],"stateMutability":"view","type":"function"},{"inputs":[],"name":"houseBalance","outputs":[{"internalType":"uint256","name":"","type":"uint256"}],"stateMutability":"view","type":"function"},{"inputs":[],"name":"houseFeeBps","outputs":[{"internalType":"uint256","name":"","type":"uint256"}],"stateMutability":"view","type":"function"},{"inputs":[{"internalType":"string","name":"","type":"string"}],"name":"marketExists","outputs":[{"internalType":"bool","name":"","type":"bool"}],"stateMutability":"view","type":"function"},{"inputs":[{"internalType":"string","name":"","type":"string"}],"name":"markets","outputs":[{"internalType":"string","name":"id","type":"string"},{"internalType":"address","name":"creator","type":"address"},{"internalType":"string","name":"question","type":"string"},{"internalType":"uint256","name":"creationTime","type":"uint256"},{"internalType":"uint256","name":"bonusDuration","type":"uint256"},{"internalType":"uint256","name":"deadline","type":"uint256"},{"internalType":"enum PredictionBattleV6.MarketState","name":"state","type":"uint8"},{"internalType":"bool","name":"result","type":"bool"},{"internalType":"bool","name":"isVoid","type":"bool"},{"internalType":"address","name":"proposer","type":"address"},{"internalType":"bool","name":"proposedResult","type":"bool"},{"internalType":"uint256","name":"proposalTime","type":"uint256"},{"internalType":"uint256","name":"bondAmount","type":"uint256"},{"internalType":"string","name":"evidenceUrl","type":"string"},{"internalType":"address","name":"challenger","type":"address"},{"internalType":"uint256","name":"challengeBondAmount","type":"uint256"},{"internalType":"string","name":"challengeEvidenceUrl","type":"string"},{"internalType":"uint256","name":"challengeTime","type":"uint256"},{"internalType":"uint256","name":"totalYes","type":"uint256"},{"internalType":"uint256","name":"totalNo","type":"uint256"},{"internalType":"uint256","name":"seedYes","type":"uint256"},{"internalType":"uint256","name":"seedNo","type":"uint256"},{"internalType":"uint256","name":"totalSharesYes","type":"uint256"},{"internalType":"uint256","name":"totalSharesNo","type":"uint256"}],"stateMutability":"view","type":"function"},{"inputs":[{"internalType":"string","name":"","type":"string"},{"internalType":"address","name":"","type":"address"}],"name":"noBets","outputs":[{"internalType":"uint256","name":"amount","type":"uint256"},{"internalType":"uint256","name":"shares","type":"uint256"},{"internalType":"address","name":"referrer","type":"address"},{"internalType":"bool","name":"claimed","type":"bool"}],"stateMutability":"view","type":"function"},{"inputs":[{"internalType":"string","name":"_marketId","type":"string"},{"internalType":"bool","name":"_side","type":"bool"},{"internalType":"uint256","name":"_usdcAmount","type":"uint256"},{"internalType":"address","name":"_referrer","type":"address"}],"name":"placeBet","outputs":[],"stateMutability":"nonpayable","type":"function"},{"inputs":[{"internalType":"string","name":"_marketId","type":"string"},{"internalType":"bool","name":"_result","type":"bool"},{"internalType":"string","name":"_evidenceUrl","type":"string"}],"name":"proposeOutcome","outputs":[],"stateMutability":"nonpayable","type":"function"},{"inputs":[],"name":"referrerFeeBps","outputs":[{"internalType":"uint256","name":"","type":"uint256"}],"stateMutability":"view","type":"function"},{"inputs":[{"internalType":"string","name":"_marketId","type":"string"},{"internalType":"address","name":"_winnerAddress","type":"address"},{"internalType":"bool","name":"_finalResult","type":"bool"}],"name":"resolveDispute","outputs":[],"stateMutability":"nonpayable","type":"function"},{"inputs":[{"internalType":"address","name":"","type":"address"}],"name":"rewardsBalance","outputs":[{"internalType":"uint256","name":"","type":"uint256"}],"stateMutability":"view","type":"function"},{"inputs":[],"name":"usdcToken","outputs":[{"internalType":"contract IERC20","name":"","type":"address"}],"stateMutability":"view","type":"function"},{"inputs":[{"internalType":"string","name":"_marketId","type":"string"}],"name":"voidMarket","outputs":[],"stateMutability":"nonpayable","type":"function"},{"inputs":[],"name":"withdrawCreatorFees","outputs":[],"stateMutability":"nonpayable","type":"function"},{"inputs":[],"name":"withdrawReferrerFees","outputs":[],"stateMutability":"nonpayable","type":"function"},{"inputs":[{"internalType":"string","name":"_id","type":"string"}],"name":"withdrawSeed","outputs":[],"stateMutability":"nonpayable","type":"function"},{"inputs":[{"internalType":"string","name":"","type":"string"},{"internalType":"address","name":"","type":"address"}],"name":"yesBets","outputs":[{"internalType":"uint256","name":"amount","type":"uint256"},{"internalType":"uint256","name":"shares","type":"uint256"},{"internalType":"address","name":"referrer","type":"address"},{"internalType":"bool","name":"claimed","type":"bool"}],"stateMutability":"view","type":"function"}],"evm":{"bytecode":{"linkReferences":{},"object":"60803461008c57601f6200321338819003918201601f19168301916001600160401b038311848410176100915780849260209460405283398101031261008c57516001600160a01b0381169081900361008c576103e86002556101f48060035560045560018060a01b031933816000541617600055600154161760015560405161316b9081620000a88239f35b600080fd5b634e487b7160e01b600052604160045260246000fdfe610140604052600436101561001357600080fd5b60003560e01c80630e90aeb214612b3857806311eac85514612b0f57806317773ebb14612af15780632023115d146127a4578063218b538214612788578063245e272f1461274e578063287137b1146123795780633cff3549146123385780633fed6ced146122d75780635fc5e020146122b457806367084eb3146122965780637226405614611f4b5780637d191e0614611a6b578063896bdac814611a315780639a826eb7146119c55780639bd1d5131461149a578063a07c16331461147c578063c8eaef1914611234578063d73792a914611217578063dbeae54c14611196578063dfdc5f771461111b578063e1cd04b414611064578063e1e90ab314610dcf578063e4a28a5214610db3578063e6cd7ab614610d79578063e7785ffb14610b17578063ee59d24014610af9578063ef03c10e146107cb578063efbda66114610587578063f585dc571461056a578063f851a440146105415763fdbcf1251461017d57600080fd5b3461053c5760208060031936011261053c576004356001600160401b03811161053c576101ae903690600401612b9b565b604051906101dc60ff8251938581818601966101cb81838a612c48565b810160098152030190205416612e02565b604051838183516101ee818388612c48565b8101600881520301902060068101549060ff82166005811015610526576004610217911461306d565b6040518581855161022981838a612c48565b8101600c81520301902033600052855260ff604060002054166104ef5760006040518681865161025a81838b612c48565b8101600a8152030190203360005286526040600020916040518781875161028281838c612c48565b8101600b81520301902033600052875260406000209360ff8160101c16600014610430575050506102b68154835490612dd5565b935b84156103f857856102d491604051809381928851928391612c48565b8101600c8152030190203360005285526040600020600160ff1982541617905580546103de575b5080546103c4575b5060015460405163a9059cbb60e01b81523360048201526024810184905293908190859060449082906000906001600160a01b03165af180156103b8577f2f0b27a029bcea8b4cd6e1f002ba498bd37b903b56578a04f1576cd25c09de53946103759260009261038b575b5050612d97565b610386604051928392339084613041565b0390a1005b6103aa9250803d106103b1575b6103a28183612b7a565b810190612d7f565b388061036e565b503d610398565b6040513d6000823e3d90fd5b600201805460ff60a01b1916600160a01b17905538610303565b600201805460ff60a01b1916600160a01b179055386102fb565b60405162461bcd60e51b815260048101879052601060248201526f4e6f7468696e6720746f20636c61696d60801b6044820152606490fd5b91959160081c60ff1680156104e85783915b82541515806104db575b610459575b5050506102b8565b61049d61046f600e830154600f84015490612dd5565b61271061049661049061048760025460035490612dd5565b60045490612dd5565b83612e3a565b0490612e4d565b91156104d15760120154915b8215610451576104c89397509060016104c3920154612e3a565b612de2565b93388080610451565b60130154916104a9565b506001830154151561044c565b8491610442565b60405162461bcd60e51b815260048101869052600f60248201526e105b1c9958591e4818db185a5b5959608a1b6044820152606490fd5b634e487b7160e01b600052602160045260246000fd5b600080fd5b3461053c57600036600319011261053c576000546040516001600160a01b039091168152602090f35b3461053c57600036600319011261053c57602060405161a8c08152f35b3461053c57602036600319011261053c576004356001600160401b03811161053c576105b7903690600401612b9b565b60405181818093516020819301916105ce92612c48565b8101600881520360200190206105e381612cb4565b60018201546001600160a01b031660e052908061060260028201612cb4565b9260038201546004830154906005840154916006850154926007860154610100526008860154936009870161063690612cb4565b93600160a01b60019003600a8901541694600b89015493600c8a0161065a90612cb4565b95600d8b015460c052600e8b01549c600f8c01549a60108d01549c601101549d601281015461012052601301546080526040518060a05261030080915260a051016106a491612d5a565b60e05160a0516020015260a05180820390604001526106c291612d5a565b9360a0516060015260a0516080015260a05160a0015260ff83169660058810156105265760ff61075d9461077f9960c060a0510152818160081c16151560e060a0510152818160101c16151561010060a051015260018060a01b038160181c1661012060a051015260b81c16151561014060a05101526101005161016060a051015261018060a051015260a0516101a0818403910152612d5a565b926101c060a05101526101e060a051015260a051610200818403910152612d5a565b9360c05161022060a051015261024060a051015261026060a051015261028060a05101526102a060a0510152610120516102c060a05101526080516102e060a051015260a05180910390f35b3461053c57606036600319011261053c576004356001600160401b03811161053c576107fb903690600401612b9b565b6024356001600160a01b038116900361053c57604435801515810361053c5761082f60018060a01b03600054163314612fe4565b610861602060405161085060ff8651928481818a01956101cb818389612c48565b604051809381928751928391612c48565b8101600881520301902091600683015460ff8116600581101561052657600303610ac3576024356001600160a01b03908116601883901c909116148015610aa7575b15610a715760088401546108bb600b86015482612dd5565b9160018060a01b039060181c16600052600d6020526108e06040600020918254612e4d565b9055600b84015460018060a01b03600a86015416600052600d60205261090c6040600020918254612e4d565b905560015460405163a9059cbb60e01b81526001600160a01b03602480358216600484015282018490529091602091839116816000816044810103925af19081156103b857600091610a52575b5015610a185760068401805461ffff191684151560081b61ff001617600417905560008051602061311683398151915293610386917f38b360c485b4bed5c0c2e2ab639b104b4e002dbf7351d0d4431e48b6d9e2bfce90600060088401556000600b8401556040518091608082526109d46080830188612d5a565b6024356001600160a01b03166020840152604083019190915287151560608301520390a18315610a0f57600e01545b6040519384938461301d565b600f0154610a03565b60405162461bcd60e51b8152602060048201526012602482015271109bdb99081c995dd85c990819985a5b195960721b6044820152606490fd5b610a6b915060203d6020116103b1576103a28183612b7a565b85610959565b60405162461bcd60e51b815260206004820152600e60248201526d24b73b30b634b2103bb4b73732b960911b6044820152606490fd5b50600a8401546024356001600160a01b039081169116146108a3565b60405162461bcd60e51b815260206004820152600e60248201526d4e6f7420696e206469737075746560901b6044820152606490fd5b3461053c57600036600319011261053c576020600254604051908152f35b3461053c57604036600319011261053c576004356001600160401b03811161053c57610b47903690600401612b9b565b610b4f612c6b565b9060018060a01b03610b6681600054163314612fe4565b6040519081835160209381610b7f869383858a01612c48565b81016008815203019020906006820191825460ff81166005811015610526576004610bab9114156130de565b846008830180548581610cdf575b5050505050600b81019182549182610c20575b845461ffff191688151560081b61ff0016176004178555600080516020613116833981519152610c0d888a895b604051938493606085526060850190612d5a565b91151590830152600060408301520390a1005b91859391600a610c8d9996989794019181835416600052600d8552610c4b6040600020918254612e4d565b90556001549154925460405163a9059cbb60e01b81529382166001600160a01b0316600485015260248401529197889290911690829060009082906044820190565b03925af19485156103b85782610c0d95610bf99260008051602061311683398151915298610cc2575b50939683959650610bcc565b610cd890853d87116103b1576103a28183612b7a565b5088610cb6565b610d449460181c16600052600d8352610cfe6040600020918254612e4d565b90556001548654915460405163a9059cbb60e01b815260189390931c87166001600160a01b03166004840152602483015290928391861690829060009082906044820190565b03925af180156103b857610d5c575b84818085610bb9565b610d7290853d87116103b1576103a28183612b7a565b5086610d53565b3461053c57602036600319011261053c576001600160a01b03610d9a612bf1565b1660005260066020526020604060002054604051908152f35b3461053c57600036600319011261053c57602060405160968152f35b3461053c5760208060031936011261053c576004356001600160401b03811161053c57610e00903690600401612b9b565b60405190610e1d60ff8251938581818601966101cb81838a612c48565b60405183818351610e2f818388612c48565b81016008815203019020600681015460ff811690600582101561052657610e5a600460ff931461306d565b60101c161561102d5760018101546001600160a01b03919082163303610ff95760405185818551610e8c81838a612c48565b8101600c81520301902033600052855260ff60406000205416610fc0578060116010610ebd93015491015490612dd5565b928315610f915784610eda91604051809381928751928391612c48565b8101600c8152030190203360005284526040600020600160ff19825416179055600154169280604051809563a9059cbb60e01b825281600081610f3689336004840160209093929193604081019460018060a01b031681520152565b03925af180156103b8577f3ff50bb01a71ba44b43b95e691fe785159d1c403efd991b82f3b5f62a2d8148a9461037592600092610f74575050612d97565b610f8a9250803d106103b1576103a28183612b7a565b858061036e565b60405162461bcd60e51b8152600481018690526007602482015266139bc81cd9595960ca1b6044820152606490fd5b60405162461bcd60e51b815260048101869052601160248201527020b63932b0b23c903bb4ba34323930bbb760791b6044820152606490fd5b60405162461bcd60e51b815260048101869052600c60248201526b27b7363c9031b932b0ba37b960a11b6044820152606490fd5b60405162461bcd60e51b815260048101859052600f60248201526e13585c9ad95d081b9bdd081d9bda59608a1b6044820152606490fd5b3461053c57600036600319011261053c57336000526006602052600060206110df60408320546110958115156130a8565b33808552600684526040808620869055600154905163a9059cbb60e01b8152600481019290925260248201929092529384926001600160a01b039092169183919082906044820190565b03925af180156103b8576110fb916000916110fd575b50612d97565b005b611115915060203d81116103b1576103a28183612b7a565b826110f5565b3461053c57600036600319011261053c57336000526007602052600060206110df604083205461114c8115156130a8565b33808552600784526040808620869055600154905163a9059cbb60e01b8152600481019290925260248201929092529384926001600160a01b039092169183919082906044820190565b3461053c5760206111be6111a936612c07565b92908160405193828580945193849201612c48565b600a908201908152030190206001600160a01b0391821660009081526020918252604090819020805460018201546002909201548351918252938101919091529282169083015260a01c60ff1615156060820152608090f35b3461053c57600036600319011261053c5760206040516127108152f35b3461053c5760208060031936011261053c576004356001600160401b03811161053c57611265903690600401612b9b565b6000546001600160a01b03929061127f9084163314612fe4565b604051818184516112938183858901612c48565b810160088152030190206006810190815460ff811660058110156105265760046112be9114156130de565b8360088301805488816113e2575b5050505050600b81019485549182611323575b835462ff00ff1916620100041784556040518581527f1e9a51575531367c4323c60efe8c5b980af66cd0509c86d8f4e1a3d9c900170090806103868189018a612d5a565b9161138c9691600a8694019181835416600052600d855261134a6040600020918254612e4d565b90556001549154925460405163a9059cbb60e01b81529382166001600160a01b0316600485015260248401529196879290911690829060009082906044820190565b03925af19384156103b8577f1e9a51575531367c4323c60efe8c5b980af66cd0509c86d8f4e1a3d9c9001700946113c5575b80806112df565b6113db90833d85116103b1576103a28183612b7a565b50846113be565b6114479460181c16600052600d83526114016040600020918254612e4d565b90556001548554915460405163a9059cbb60e01b815260189390931c8a166001600160a01b03166004840152602483015290928391891690829060009082906044820190565b03925af180156103b85761145f575b838180886112cc565b61147590843d86116103b1576103a28183612b7a565b5085611456565b3461053c57600036600319011261053c576020600454604051908152f35b3461053c5760a036600319011261053c576001600160401b0360043581811161053c576114cb903690600401612b9b565b9060243581811161053c576114e4903690600401612b9b565b9060ff60405160208186516114fc8183858b01612c48565b8101600981520301902054166119975760443515158061198a575b15611956576001546040516323b872dd60e01b8152336004820152306024820152604480359082015290602090829060649082906000906001600160a01b03165af180156103b857611570916000916119375750612d97565b60405160208185516115858183858a01612c48565b8101600881520301902091835182811161186c576115a38454612c7a565b601f81116118f1575b50806020601f821160011461188d57600091611882575b508160011b916000199060031b1c19161783555b6001830180546001600160a01b03191633179055805191821161186c576116016002840154612c7a565b601f8111611823575b50602090601f831160011461176c5761174893837fff36ff50e65334f5ea64776f95ec82ce2fbd32a145dd5258689e2027c1c61b3a96946011947fccdee9db8c345dd53026f5dedbf3e8b723ceddd2ad8eeb96b00ce37fddd58b6494600092611761575b50508160011b916000199060031b1c19161760028201555b42600382015560843590811561175957815b60048201556116a960643542612dd5565b9060058101918255600681019060ff199182815416905560443560011c958187600e8194015582600f82015582601082015501556001604051602081816116f68b83815193849201612c48565b81016009815203019020918254161790555490604051918291608083526117206080840188612d5a565b91336020850152604084015260608301520390a1604051928392606084526060840190612d5a565b9080602084015260408301520390a1005b606435611698565b01519050888061166e565b90600284016000526020600020916000601f198516905b81811061180b5750846011947fccdee9db8c345dd53026f5dedbf3e8b723ceddd2ad8eeb96b00ce37fddd58b649461174898947fff36ff50e65334f5ea64776f95ec82ce2fbd32a145dd5258689e2027c1c61b3a9a98600195106117f2575b505050811b016002820155611686565b015160001960f88460031b161c191690558880806117e2565b92936020600181928786015181550195019301611783565b600284016000526020600020601f840160051c810160208510611865575b601f90920160051c01905b818110611859575061160a565b6000815560010161184c565b5080611841565b634e487b7160e01b600052604160045260246000fd5b9050850151866115c3565b6000868152602081209250601f198416905b8181106118d9575090836001949392106118c0575b5050811b0183556115d7565b87015160001960f88460031b161c1916905586806118b4565b9192602060018192868c01518155019401920161189f565b846000526020600020601f830160051c810160208410611930575b601f90920160051c01905b81811061192457506115ac565b60008155600101611917565b508061190c565b611950915060203d6020116103b1576103a28183612b7a565b856110f5565b60405162461bcd60e51b815260206004820152600c60248201526b125b9d985b1a59081cd9595960a21b6044820152606490fd5b5060016044351615611517565b60405162461bcd60e51b815260206004820152600660248201526545786973747360d01b6044820152606490fd5b3461053c5760206119d86111a936612c07565b600b908201908152030190206001600160a01b0391821660009081526020918252604090819020805460018201546002909201548351918252938101919091529282169083015260a01c60ff1615156060820152608090f35b3461053c57602036600319011261053c576001600160a01b03611a52612bf1565b1660005260076020526020604060002054604051908152f35b3461053c57608036600319011261053c576004356001600160401b03811161053c57611a9b903690600401612b9b565b611aa3612c6b565b6001600160a01b039160443591606435848116919082900361053c57604051918351611ade60ff6020958681818a01956101cb818389612c48565b60405184818751611af0818387612c48565b810160088152030190209660ff600689015416600581101561052657611f1b576005880154421015611eec578615611eb9576001546040516323b872dd60e01b815233600482015230602482015260448101899052919086908390606490829060009086165af19182156103b857611c1392611b7391600091611e9c5750612d97565b8861271080611b846002548c612e3a565b049281611b936003548d612e3a565b04918b600089151580611e92575b15611e685750916001611c0e959692611bc0611c0e9560045490612e3a565b04968a60005260078d526040600020611bda898254612dd5565b90555b611be984600554612dd5565b60055501541660005260068a526040600020611c06848254612dd5565b90558b612e4d565b612e4d565b95611c27600389015460048a015490612ebc565b93611c328589612e3a565b670de0b6b3a764000090818102918183041490151715611e52577fa994696d1a657073ceaa15fbacd649938053ce8bee7de30ec1c28d337cc37b2399611d569960648993049584600014611d8e5783611cfd918c601296604051809251611c9a818387612c48565b8101600a81520301902033600052825260406000205415611d7c575b8c82604051809251611cc9818387612c48565b8101600a8152030190203360005282526040600020611ce9858254612dd5565b90558c604051938492839251928391612c48565b8101600a8152030190203360005289526001604060002001611d20878254612dd5565b9055611d31600e8301918254612dd5565b905501611d3f848254612dd5565b90555b60405197889760e0895260e0890190612d5a565b953390880152151560408701526060860152608085015260a084015260c08301520390a1005b611d893360148701612e5a565b611cb6565b83611df7918c601396604051809251611da8818387612c48565b8101600b81520301902033600052825260406000205415611e40575b8c82604051809251611dd7818387612c48565b8101600b8152030190203360005282526040600020611ce9858254612dd5565b8101600b8152030190203360005289526001604060002001611e1a878254612dd5565b9055611e2b600f8301918254612dd5565b905501611e39848254612dd5565b9055611d42565b611e4d3360158701612e5a565b611dc4565b634e487b7160e01b600052601160045260246000fd5b95611e8c600191611c0e9794611e85611c0e979560045490612e3a565b0490612dd5565b92611bdd565b50338a1415611ba1565b611eb39150883d8a116103b1576103a28183612b7a565b8b6110f5565b60405162461bcd60e51b815260048101869052600b60248201526a16995c9bc8185b5bdd5b9d60aa1b6044820152606490fd5b60405162461bcd60e51b8152600481018690526007602482015266115e1c1a5c995960ca1b6044820152606490fd5b60405162461bcd60e51b81526004810186905260086024820152672737ba1037b832b760c11b6044820152606490fd5b3461053c57606036600319011261053c576001600160401b0360043581811161053c57611f7c903690600401612b9b565b90611f85612c6b565b9160443582811161053c57611f9e903690600401612b9b565b9260ff611fd36040518451611fc260209483868095818b01956101cb818389612c48565b604051809381928851928391612c48565b8101600881520301902093600685019060ff825416600581101561052657801590811561228b575b50156122595761200a85612f19565b600180546040516323b872dd60e01b8152336004820152306024820152604481018490529298919291908690839060649082906000906001600160a01b03165af19182156103b8576009926120679160009161223c575b50612f66565b84546301000000600160c01b0319163360181b6301000000600160b81b03161796151560b881901b60ff60b81b16979097178555426007820155600881018990558951910192811161186c576120bd8354612c7a565b601f81116121f3575b5084601f821160011461218d5781928291600093612182575b501b916000199060031b1c19161790555b600260ff1982541617905533600052600d81526040600020612113858254612dd5565b905561a8c0420194854211611e52577f5247f2366f7e70fc0b5fc61f486408d977047c08d356ffb76c3d35832ceeaf2695612160956103869460405197889760c0895260c0890190612d5a565b94339088015260408701526060860152608085015283820360a0850152612d5a565b8b015192508b6120df565b601f19821690846000528287600020928c89876000925b8484106121da5750505050106121c1575b5050811b0190556120f0565b8a015160001960f88460031b161c1916905589806121b5565b860151875590950194938401938693500189878f6121a4565b8360005285600020601f830160051c810191878410612232575b601f0160051c019083905b8281106122265750506120c6565b60008155018390612218565b909150819061220d565b6122539150883d8a116103b1576103a28183612b7a565b8c612061565b60405162461bcd60e51b815260048101849052600a6024820152694e6f742061637469766560b01b6044820152606490fd5b600191501488611ffb565b3461053c57600036600319011261053c576020600554604051908152f35b3461053c57600036600319011261053c576020604051670de0b6b3a76400008152f35b3461053c57602036600319011261053c576004356001600160401b03811161053c5760ff612322602061230f81943690600401612b9b565b8160405193828580945193849201612c48565b8101600981520301902054166040519015158152f35b3461053c57602061234b6111a936612c07565b8101600c8152030190209060018060a01b0316600052602052602060ff604060002054166040519015158152f35b3461053c57604036600319011261053c576001600160401b0360043581811161053c576123aa903690600401612b9b565b602480359280841161053c576123c660ff943690600401612b9b565b916123f960405185516123e8602098838a8095818c01956101cb818389612c48565b604051809381928951928391612c48565b81016008815203019020600681019182549360ff851660058110156127395760026124249114612fa9565b600783015461a8c081018091116127245742116126e8576001600160a01b039460181c851633146126ac576008830154600180546040516323b872dd60e01b81523360048201523060248201526044810184905292979192918b9183916064918391600091165af180156103b8576124a39160009161268f5750612f66565b600a8401336bffffffffffffffffffffffff60a01b82541617905585600b850155600c840192875192831161267b57506124dd8354612c7a565b601f8111612632575b5088601f83116001146125a1579282807f4bd7c92eba598ee7ab038ac4a59ab8feb6d65703229128829d6cdd17959b121f9b979461257e9b9a97946103869a97600093612596575b501b916000199060031b1c19161790555b600d4291015533600052600d8452604060002061255d838254612dd5565b9055600360ff19825416179055604051958695608087526080870190612d5a565b92339086015260408501528382036060850152612d5a565b89015192508e61252e565b601f92919219821690846000528a6000209160005b81811061261d5750926103869895927f4bd7c92eba598ee7ab038ac4a59ab8feb6d65703229128829d6cdd17959b121f9c9895928261257e9d9c999610612604575b5050811b01905561253f565b88015160001960f88460031b161c191690558c806125f8565b8a830151845592850192918c01918c016125b6565b8360005289600020601f840160051c8101918b8510612671575b601f0160051c019082905b8281106126655750506124e6565b60008155018290612657565b909150819061264c565b634e487b7160e01b60009081526041600452fd5b6126a691508b3d8d116103b1576103a28183612b7a565b8b612061565b60405162461bcd60e51b8152600481018990526015818401527421b0b73737ba1031b430b63632b733b29039b2b63360591b6044820152606490fd5b60405162461bcd60e51b81526004810189905260158184015274111a5cdc1d5d19481dda5b991bddc818db1bdcd959605a1b6044820152606490fd5b82634e487b7160e01b60005260116004526000fd5b82634e487b7160e01b60005260216004526000fd5b3461053c57602036600319011261053c576001600160a01b0361276f612bf1565b16600052600d6020526020604060002054604051908152f35b3461053c57600036600319011261053c57602060405160648152f35b3461053c5760208060031936011261053c576004356001600160401b03811161053c576127d5903690600401612b9b565b612806826040516127f560ff8551928481818901956101cb818389612c48565b604051809381928651928391612c48565b8101600881520301902090600682019283549360ff851660058110156105265760026128329114612fa9565b600784015461a8c08101809111611e5257421115612abc5760018060a01b03809560181c169482600087946128ba6008890154878452600d83526040842061287b828254612e4d565b905560015460405163a9059cbb60e01b8082526001600160a01b03909a1660048201526024810192909252909384929187169183919082906044820190565b03925af19081156103b857600091612a9f575b5015612a6657600e86019360646128ec600f8754990198895490612dd5565b049283151580612a5a575b612999575b50505061038692917fe2b1d963f1ec20d10d097a5196a0a9e7b5ff982020b428f20918fe52a2234edf60ff926000805160206131168339815191529861296485600481198754161780875560b81c16859061ff00825491151560081b169061ff001916179055565b6129746040519283928a84613041565b0390a15460081c169384156129915750546040519384938461301d565b905054610a03565b918380928a6000849998966129b36129e599600554612e4d565b60055560015416926040519889958694859384526004840160209093929193604081019460018060a01b031681520152565b03925af19081156103b857600080516020613116833981519152986103869660ff957fe2b1d963f1ec20d10d097a5196a0a9e7b5ff982020b428f20918fe52a2234edf94612a3c575b5050985092829495506128fc565b81612a5292903d106103b1576103a28183612b7a565b508a80612a2e565b508360055410156128f7565b6064906040519062461bcd60e51b825260048201526012602482015271109bdb99081c995d1d5c9b8819985a5b195960721b6044820152fd5b612ab69150823d84116103b1576103a28183612b7a565b886128cd565b60405162461bcd60e51b815260048101839052600d60248201526c57696e646f772061637469766560981b6044820152606490fd5b3461053c57600036600319011261053c576020600354604051908152f35b3461053c57600036600319011261053c576001546040516001600160a01b039091168152602090f35b3461053c57602036600319011261053c576004356001600160401b03811161053c57612b72612b6d6020923690600401612b9b565b612f19565b604051908152f35b90601f801991011681019081106001600160401b0382111761186c57604052565b81601f8201121561053c578035906001600160401b03821161186c5760405192612bcf601f8401601f191660200185612b7a565b8284526020838301011161053c57816000926020809301838601378301015290565b600435906001600160a01b038216820361053c57565b604060031982011261053c57600435906001600160401b03821161053c57612c3191600401612b9b565b906024356001600160a01b038116810361053c5790565b60005b838110612c5b5750506000910152565b8181015183820152602001612c4b565b60243590811515820361053c57565b90600182811c92168015612caa575b6020831014612c9457565b634e487b7160e01b600052602260045260246000fd5b91607f1691612c89565b9060405191826000825492612cc884612c7a565b908184526001948581169081600014612d375750600114612cf4575b5050612cf292500383612b7a565b565b9093915060005260209081600020936000915b818310612d1f575050612cf293508201013880612ce4565b85548884018501529485019487945091830191612d07565b915050612cf294506020925060ff191682840152151560051b8201013880612ce4565b90602091612d7381518092818552858086019101612c48565b601f01601f1916010190565b9081602091031261053c5751801515810361053c5790565b15612d9e57565b60405162461bcd60e51b815260206004820152600f60248201526e151c985b9cd9995c8819985a5b1959608a1b6044820152606490fd5b91908201809211611e5257565b8115612dec570490565b634e487b7160e01b600052601260045260246000fd5b15612e0957565b60405162461bcd60e51b8152602060048201526009602482015268139bc81b585c9ad95d60ba1b6044820152606490fd5b81810292918115918404141715611e5257565b91908203918211611e5257565b8054906801000000000000000082101561186c5760018201808255821015612ea6576000526020600020019060018060a01b03166bffffffffffffffffffffffff60a01b825416179055565b634e487b7160e01b600052603260045260246000fd5b600090804211600014612f1357612ed4915042612e4d565b81811015612f0c57612ee69082612e4d565b9081603202916032830403611e5257612efe91612de2565b60640180606411611e525790565b5050606490565b50612ed4565b612f51612f376020600a938160405193828580945193849201612c48565b81016008815203019020600f600e82015491015490612dd5565b04624c4b40808210612f61575090565b905090565b15612f6d57565b60405162461bcd60e51b8152602060048201526014602482015273109bdb99081d1c985b9cd9995c8819985a5b195960621b6044820152606490fd5b15612fb057565b60405162461bcd60e51b815260206004820152600c60248201526b139bdd081c1c9bdc1bdcd95960a21b6044820152606490fd5b15612feb57565b60405162461bcd60e51b815260206004820152600a60248201526927b7363c9030b236b4b760b11b6044820152606490fd5b61303560409295949395606083526060830190612d5a565b94151560208201520152565b61305960409295949395606083526060830190612d5a565b6001600160a01b0390951660208201520152565b1561307457565b60405162461bcd60e51b815260206004820152600c60248201526b139bdd081c995cdbdb1d995960a21b6044820152606490fd5b156130af57565b60405162461bcd60e51b81526020600482015260076024820152664e6f206665657360c81b6044820152606490fd5b156130e557565b60405162461bcd60e51b815260206004820152600860248201526714995cdbdb1d995960c21b6044820152606490fdfe175b08e6ee8bbceb85780e790adca99ec4fbd3bb124ffbf50bd35ed4375a69aca26469706673582212207894ba031b4fcbee2eff8d0dd2d08cc9add28f04e536da5108feb286d292a3f564736f6c63430008140033","opcodes":"PUSH1 0x80 CALLVALUE PUSH2 0x8C JUMPI PUSH1 0x1F PUSH3 0x3213 CODESIZE DUP2 SWAP1 SUB SWAP2 DUP3 ADD PUSH1 0x1F NOT AND DUP4 ADD SWAP2 PUSH1 0x1 PUSH1 0x1 PUSH1 0x40 SHL SUB DUP4 GT DUP5 DUP5 LT OR PUSH2 0x91 JUMPI DUP1 DUP5 SWAP3 PUSH1 0x20 SWAP5 PUSH1 0x40 MSTORE DUP4 CODECOPY DUP2 ADD SUB SLT PUSH2 0x8C JUMPI MLOAD PUSH1 0x1 PUSH1 0x1 PUSH1 0xA0 SHL SUB DUP2 AND SWAP1 DUP2 SWAP1 SUB PUSH2 0x8C JUMPI PUSH2 0x3E8 PUSH1 0x2 SSTORE PUSH2 0x1F4 DUP1 PUSH1 0x3 SSTORE PUSH1 0x4 SSTORE PUSH1 0x1 DUP1 PUSH1 0xA0 SHL SUB NOT CALLER DUP2 PUSH1 0x0 SLOAD AND OR PUSH1 0x0 SSTORE PUSH1 0x1 SLOAD AND OR PUSH1 0x1 SSTORE PUSH1 0x40 MLOAD PUSH2 0x316B SWAP1 DUP2 PUSH3 0xA8 DUP3 CODECOPY RETURN JUMPDEST PUSH1 0x0 DUP1 REVERT JUMPDEST PUSH4 0x4E487B71 PUSH1 0xE0 SHL PUSH1 0x0 MSTORE PUSH1 0x41 PUSH1 0x4 MSTORE PUSH1 0x24 PUSH1 0x0 REVERT INVALID PUSH2 0x140 PUSH1 0x40 MSTORE PUSH1 0x4 CALLDATASIZE LT ISZERO PUSH2 0x13 JUMPI PUSH1 0x0 DUP1 REVERT JUMPDEST PUSH1 0x0 CALLDATALOAD PUSH1 0xE0 SHR DUP1 PUSH4 0xE90AEB2 EQ PUSH2 0x2B38 JUMPI DUP1 PUSH4 0x11EAC855 EQ PUSH2 0x2B0F JUMPI DUP1 PUSH4 0x17773EBB EQ PUSH2 0x2AF1 JUMPI DUP1 PUSH4 0x2023115D EQ PUSH2 0x27A4 JUMPI DUP1 PUSH4 0x218B5382 EQ PUSH2 0x2788 JUMPI DUP1 PUSH4 0x245E272F EQ PUSH2 0x274E JUMPI DUP1 PUSH4 0x287137B1 EQ PUSH2 0x2379 JUMPI DUP1 PUSH4 0x3CFF3549 EQ PUSH2 0x2338 JUMPI DUP1 PUSH4 0x3FED6CED EQ PUSH2 0x22D7 JUMPI DUP1 PUSH4 0x5FC5E020 EQ PUSH2 0x22B4 JUMPI DUP1 PUSH4 0x67084EB3 EQ PUSH2 0x2296 JUMPI DUP1 PUSH4 0x72264056 EQ PUSH2 0x1F4B JUMPI DUP1 PUSH4 0x7D191E06 EQ PUSH2 0x1A6B JUMPI DUP1 PUSH4 0x896BDAC8 EQ PUSH2 0x1A31 JUMPI DUP1 PUSH4 0x9A826EB7 EQ PUSH2 0x19C5 JUMPI DUP1 PUSH4 0x9BD1D513 EQ PUSH2 0x149A JUMPI DUP1 PUSH4 0xA07C1633 EQ PUSH2 0x147C JUMPI DUP1 PUSH4 0xC8EAEF19 EQ PUSH2 0x1234 JUMPI DUP1 PUSH4 0xD73792A9 EQ PUSH2 0x1217 JUMPI DUP1 PUSH4 0xDBEAE54C EQ PUSH2 0x1196 JUMPI DUP1 PUSH4 0xDFDC5F77 EQ PUSH2 0x111B JUMPI DUP1 PUSH4 0xE1CD04B4 EQ PUSH2 0x1064 JUMPI DUP1 PUSH4 0xE1E90AB3 EQ PUSH2 0xDCF JUMPI DUP1 PUSH4 0xE4A28A52 EQ PUSH2 0xDB3 JUMPI DUP1 PUSH4 0xE6CD7AB6 EQ PUSH2 0xD79 JUMPI DUP1 PUSH4 0xE7785FFB EQ PUSH2 0xB17 JUMPI DUP1 PUSH4 0xEE59D240 EQ PUSH2 0xAF9 JUMPI DUP1 PUSH4 0xEF03C10E EQ PUSH2 0x7CB JUMPI DUP1 PUSH4 0xEFBDA661 EQ PUSH2 0x587 JUMPI DUP1 PUSH4 0xF585DC57 EQ PUSH2 0x56A JUMPI DUP1 PUSH4 0xF851A440 EQ PUSH2 0x541 JUMPI PUSH4 0xFDBCF125 EQ PUSH2 0x17D JUMPI PUSH1 0x0 DUP1 REVERT JUMPDEST CALLVALUE PUSH2 0x53C JUMPI PUSH1 0x20 DUP1 PUSH1 0x3 NOT CALLDATASIZE ADD SLT PUSH2 0x53C JUMPI PUSH1 0x4 CALLDATALOAD PUSH1 0x1 PUSH1 0x1 PUSH1 0x40 SHL SUB DUP2 GT PUSH2 0x53C JUMPI PUSH2 0x1AE SWAP1 CALLDATASIZE SWAP1 PUSH1 0x4 ADD PUSH2 0x2B9B JUMP JUMPDEST PUSH1 0x40 MLOAD SWAP1 PUSH2 0x1DC PUSH1 0xFF DUP3 MLOAD SWAP4 DUP6 DUP2 DUP2 DUP7 ADD SWAP7 PUSH2 0x1CB DUP2 DUP4 DUP11 PUSH2 0x2C48 JUMP JUMPDEST DUP2 ADD PUSH1 0x9 DUP2 MSTORE SUB ADD SWAP1 KECCAK256 SLOAD AND PUSH2 0x2E02 JUMP JUMPDEST PUSH1 0x40 MLOAD DUP4 DUP2 DUP4 MLOAD PUSH2 0x1EE DUP2 DUP4 DUP9 PUSH2 0x2C48 JUMP JUMPDEST DUP2 ADD PUSH1 0x8 DUP2 MSTORE SUB ADD SWAP1 KECCAK256 PUSH1 0x6 DUP2 ADD SLOAD SWAP1 PUSH1 0xFF DUP3 AND PUSH1 0x5 DUP2 LT ISZERO PUSH2 0x526 JUMPI PUSH1 0x4 PUSH2 0x217 SWAP2 EQ PUSH2 0x306D JUMP JUMPDEST PUSH1 0x40 MLOAD DUP6 DUP2 DUP6 MLOAD PUSH2 0x229 DUP2 DUP4 DUP11 PUSH2 0x2C48 JUMP JUMPDEST DUP2 ADD PUSH1 0xC DUP2 MSTORE SUB ADD SWAP1 KECCAK256 CALLER PUSH1 0x0 MSTORE DUP6 MSTORE PUSH1 0xFF PUSH1 0x40 PUSH1 0x0 KECCAK256 SLOAD AND PUSH2 0x4EF JUMPI PUSH1 0x0 PUSH1 0x40 MLOAD DUP7 DUP2 DUP7 MLOAD PUSH2 0x25A DUP2 DUP4 DUP12 PUSH2 0x2C48 JUMP JUMPDEST DUP2 ADD PUSH1 0xA DUP2 MSTORE SUB ADD SWAP1 KECCAK256 CALLER PUSH1 0x0 MSTORE DUP7 MSTORE PUSH1 0x40 PUSH1 0x0 KECCAK256 SWAP2 PUSH1 0x40 MLOAD DUP8 DUP2 DUP8 MLOAD PUSH2 0x282 DUP2 DUP4 DUP13 PUSH2 0x2C48 JUMP JUMPDEST DUP2 ADD PUSH1 0xB DUP2 MSTORE SUB ADD SWAP1 KECCAK256 CALLER PUSH1 0x0 MSTORE DUP8 MSTORE PUSH1 0x40 PUSH1 0x0 KECCAK256 SWAP4 PUSH1 0xFF DUP2 PUSH1 0x10 SHR AND PUSH1 0x0 EQ PUSH2 0x430 JUMPI POP POP POP PUSH2 0x2B6 DUP2 SLOAD DUP4 SLOAD SWAP1 PUSH2 0x2DD5 JUMP JUMPDEST SWAP4 JUMPDEST DUP5 ISZERO PUSH2 0x3F8 JUMPI DUP6 PUSH2 0x2D4 SWAP2 PUSH1 0x40 MLOAD DUP1 SWAP4 DUP2 SWAP3 DUP9 MLOAD SWAP3 DUP4 SWAP2 PUSH2 0x2C48 JUMP JUMPDEST DUP2 ADD PUSH1 0xC DUP2 MSTORE SUB ADD SWAP1 KECCAK256 CALLER PUSH1 0x0 MSTORE DUP6 MSTORE PUSH1 0x40 PUSH1 0x0 KECCAK256 PUSH1 0x1 PUSH1 0xFF NOT DUP3 SLOAD AND OR SWAP1 SSTORE DUP1 SLOAD PUSH2 0x3DE JUMPI JUMPDEST POP DUP1 SLOAD PUSH2 0x3C4 JUMPI JUMPDEST POP PUSH1 0x1 SLOAD PUSH1 0x40 MLOAD PUSH4 0xA9059CBB PUSH1 0xE0 SHL DUP2 MSTORE CALLER PUSH1 0x4 DUP3 ADD MSTORE PUSH1 0x24 DUP2 ADD DUP5 SWAP1 MSTORE SWAP4 SWAP1 DUP2 SWAP1 DUP6 SWAP1 PUSH1 0x44 SWAP1 DUP3 SWAP1 PUSH1 0x0 SWAP1 PUSH1 0x1 PUSH1 0x1 PUSH1 0xA0 SHL SUB AND GAS CALL DUP1 ISZERO PUSH2 0x3B8 JUMPI PUSH32 0x2F0B27A029BCEA8B4CD6E1F002BA498BD37B903B56578A04F1576CD25C09DE53 SWAP5 PUSH2 0x375 SWAP3 PUSH1 0x0 SWAP3 PUSH2 0x38B JUMPI JUMPDEST POP POP PUSH2 0x2D97 JUMP JUMPDEST PUSH2 0x386 PUSH1 0x40 MLOAD SWAP3 DUP4 SWAP3 CALLER SWAP1 DUP5 PUSH2 0x3041 JUMP JUMPDEST SUB SWAP1 LOG1 STOP JUMPDEST PUSH2 0x3AA SWAP3 POP DUP1 RETURNDATASIZE LT PUSH2 0x3B1 JUMPI JUMPDEST PUSH2 0x3A2 DUP2 DUP4 PUSH2 0x2B7A JUMP JUMPDEST DUP2 ADD SWAP1 PUSH2 0x2D7F JUMP JUMPDEST CODESIZE DUP1 PUSH2 0x36E JUMP JUMPDEST POP RETURNDATASIZE PUSH2 0x398 JUMP JUMPDEST PUSH1 0x40 MLOAD RETURNDATASIZE PUSH1 0x0 DUP3 RETURNDATACOPY RETURNDATASIZE SWAP1 REVERT JUMPDEST PUSH1 0x2 ADD DUP1 SLOAD PUSH1 0xFF PUSH1 0xA0 SHL NOT AND PUSH1 0x1 PUSH1 0xA0 SHL OR SWAP1 SSTORE CODESIZE PUSH2 0x303 JUMP JUMPDEST PUSH1 0x2 ADD DUP1 SLOAD PUSH1 0xFF PUSH1 0xA0 SHL NOT AND PUSH1 0x1 PUSH1 0xA0 SHL OR SWAP1 SSTORE CODESIZE PUSH2 0x2FB JUMP JUMPDEST PUSH1 0x40 MLOAD PUSH3 0x461BCD PUSH1 0xE5 SHL DUP2 MSTORE PUSH1 0x4 DUP2 ADD DUP8 SWAP1 MSTORE PUSH1 0x10 PUSH1 0x24 DUP3 ADD MSTORE PUSH16 0x4E6F7468696E6720746F20636C61696D PUSH1 0x80 SHL PUSH1 0x44 DUP3 ADD MSTORE PUSH1 0x64 SWAP1 REVERT JUMPDEST SWAP2 SWAP6 SWAP2 PUSH1 0x8 SHR PUSH1 0xFF AND DUP1 ISZERO PUSH2 0x4E8 JUMPI DUP4 SWAP2 JUMPDEST DUP3 SLOAD ISZERO ISZERO DUP1 PUSH2 0x4DB JUMPI JUMPDEST PUSH2 0x459 JUMPI JUMPDEST POP POP POP PUSH2 0x2B8 JUMP JUMPDEST PUSH2 0x49D PUSH2 0x46F PUSH1 0xE DUP4 ADD SLOAD PUSH1 0xF DUP5 ADD SLOAD SWAP1 PUSH2 0x2DD5 JUMP JUMPDEST PUSH2 0x2710 PUSH2 0x496 PUSH2 0x490 PUSH2 0x487 PUSH1 0x2 SLOAD PUSH1 0x3 SLOAD SWAP1 PUSH2 0x2DD5 JUMP JUMPDEST PUSH1 0x4 SLOAD SWAP1 PUSH2 0x2DD5 JUMP JUMPDEST DUP4 PUSH2 0x2E3A JUMP JUMPDEST DIV SWAP1 PUSH2 0x2E4D JUMP JUMPDEST SWAP2 ISZERO PUSH2 0x4D1 JUMPI PUSH1 0x12 ADD SLOAD SWAP2 JUMPDEST DUP3 ISZERO PUSH2 0x451 JUMPI PUSH2 0x4C8 SWAP4 SWAP8 POP SWAP1 PUSH1 0x1 PUSH2 0x4C3 SWAP3 ADD SLOAD PUSH2 0x2E3A JUMP JUMPDEST PUSH2 0x2DE2 JUMP JUMPDEST SWAP4 CODESIZE DUP1 DUP1 PUSH2 0x451 JUMP JUMPDEST PUSH1 0x13 ADD SLOAD SWAP2 PUSH2 0x4A9 JUMP JUMPDEST POP PUSH1 0x1 DUP4 ADD SLOAD ISZERO ISZERO PUSH2 0x44C JUMP JUMPDEST DUP5 SWAP2 PUSH2 0x442 JUMP JUMPDEST PUSH1 0x40 MLOAD PUSH3 0x461BCD PUSH1 0xE5 SHL DUP2 MSTORE PUSH1 0x4 DUP2 ADD DUP7 SWAP1 MSTORE PUSH1 0xF PUSH1 0x24 DUP3 ADD MSTORE PUSH15 0x105B1C9958591E4818DB185A5B5959 PUSH1 0x8A SHL PUSH1 0x44 DUP3 ADD MSTORE PUSH1 0x64 SWAP1 REVERT JUMPDEST PUSH4 0x4E487B71 PUSH1 0xE0 SHL PUSH1 0x0 MSTORE PUSH1 0x21 PUSH1 0x4 MSTORE PUSH1 0x24 PUSH1 0x0 REVERT JUMPDEST PUSH1 0x0 DUP1 REVERT JUMPDEST CALLVALUE PUSH2 0x53C JUMPI PUSH1 0x0 CALLDATASIZE PUSH1 0x3 NOT ADD SLT PUSH2 0x53C JUMPI PUSH1 0x0 SLOAD PUSH1 0x40 MLOAD PUSH1 0x1 PUSH1 0x1 PUSH1 0xA0 SHL SUB SWAP1 SWAP2 AND DUP2 MSTORE PUSH1 0x20 SWAP1 RETURN JUMPDEST CALLVALUE PUSH2 0x53C JUMPI PUSH1 0x0 CALLDATASIZE PUSH1 0x3 NOT ADD SLT PUSH2 0x53C JUMPI PUSH1 0x20 PUSH1 0x40 MLOAD PUSH2 0xA8C0 DUP2 MSTORE RETURN JUMPDEST CALLVALUE PUSH2 0x53C JUMPI PUSH1 0x20 CALLDATASIZE PUSH1 0x3 NOT ADD SLT PUSH2 0x53C JUMPI PUSH1 0x4 CALLDATALOAD PUSH1 0x1 PUSH1 0x1 PUSH1 0x40 SHL SUB DUP2 GT PUSH2 0x53C JUMPI PUSH2 0x5B7 SWAP1 CALLDATASIZE SWAP1 PUSH1 0x4 ADD PUSH2 0x2B9B JUMP JUMPDEST PUSH1 0x40 MLOAD DUP2 DUP2 DUP1 SWAP4 MLOAD PUSH1 0x20 DUP2 SWAP4 ADD SWAP2 PUSH2 0x5CE SWAP3 PUSH2 0x2C48 JUMP JUMPDEST DUP2 ADD PUSH1 0x8 DUP2 MSTORE SUB PUSH1 0x20 ADD SWAP1 KECCAK256 PUSH2 0x5E3 DUP2 PUSH2 0x2CB4 JUMP JUMPDEST PUSH1 0x1 DUP3 ADD SLOAD PUSH1 0x1 PUSH1 0x1 PUSH1 0xA0 SHL SUB AND PUSH1 0xE0 MSTORE SWAP1 DUP1 PUSH2 0x602 PUSH1 0x2 DUP3 ADD PUSH2 0x2CB4 JUMP JUMPDEST SWAP3 PUSH1 0x3 DUP3 ADD SLOAD PUSH1 0x4 DUP4 ADD SLOAD SWAP1 PUSH1 0x5 DUP5 ADD SLOAD SWAP2 PUSH1 0x6 DUP6 ADD SLOAD SWAP3 PUSH1 0x7 DUP7 ADD SLOAD PUSH2 0x100 MSTORE PUSH1 0x8 DUP7 ADD SLOAD SWAP4 PUSH1 0x9 DUP8 ADD PUSH2 0x636 SWAP1 PUSH2 0x2CB4 JUMP JUMPDEST SWAP4 PUSH1 0x1 PUSH1 0xA0 SHL PUSH1 0x1 SWAP1 SUB PUSH1 0xA DUP10 ADD SLOAD AND SWAP5 PUSH1 0xB DUP10 ADD SLOAD SWAP4 PUSH1 0xC DUP11 ADD PUSH2 0x65A SWAP1 PUSH2 0x2CB4 JUMP JUMPDEST SWAP6 PUSH1 0xD DUP12 ADD SLOAD PUSH1 0xC0 MSTORE PUSH1 0xE DUP12 ADD SLOAD SWAP13 PUSH1 0xF DUP13 ADD SLOAD SWAP11 PUSH1 0x10 DUP14 ADD SLOAD SWAP13 PUSH1 0x11 ADD SLOAD SWAP14 PUSH1 0x12 DUP2 ADD SLOAD PUSH2 0x120 MSTORE PUSH1 0x13 ADD SLOAD PUSH1 0x80 MSTORE PUSH1 0x40 MLOAD DUP1 PUSH1 0xA0 MSTORE PUSH2 0x300 DUP1 SWAP2 MSTORE PUSH1 0xA0 MLOAD ADD PUSH2 0x6A4 SWAP2 PUSH2 0x2D5A JUMP JUMPDEST PUSH1 0xE0 MLOAD PUSH1 0xA0 MLOAD PUSH1 0x20 ADD MSTORE PUSH1 0xA0 MLOAD DUP1 DUP3 SUB SWAP1 PUSH1 0x40 ADD MSTORE PUSH2 0x6C2 SWAP2 PUSH2 0x2D5A JUMP JUMPDEST SWAP4 PUSH1 0xA0 MLOAD PUSH1 0x60 ADD MSTORE PUSH1 0xA0 MLOAD PUSH1 0x80 ADD MSTORE PUSH1 0xA0 MLOAD PUSH1 0xA0 ADD MSTORE PUSH1 0xFF DUP4 AND SWAP7 PUSH1 0x5 DUP9 LT ISZERO PUSH2 0x526 JUMPI PUSH1 0xFF PUSH2 0x75D SWAP5 PUSH2 0x77F SWAP10 PUSH1 0xC0 PUSH1 0xA0 MLOAD ADD MSTORE DUP2 DUP2 PUSH1 0x8 SHR AND ISZERO ISZERO PUSH1 0xE0 PUSH1 0xA0 MLOAD ADD MSTORE DUP2 DUP2 PUSH1 0x10 SHR AND ISZERO ISZERO PUSH2 0x100 PUSH1 0xA0 MLOAD ADD MSTORE PUSH1 0x1 DUP1 PUSH1 0xA0 SHL SUB DUP2 PUSH1 0x18 SHR AND PUSH2 0x120 PUSH1 0xA0 MLOAD ADD MSTORE PUSH1 0xB8 SHR AND ISZERO ISZERO PUSH2 0x140 PUSH1 0xA0 MLOAD ADD MSTORE PUSH2 0x100 MLOAD PUSH2 0x160 PUSH1 0xA0 MLOAD ADD MSTORE PUSH2 0x180 PUSH1 0xA0 MLOAD ADD MSTORE PUSH1 0xA0 MLOAD PUSH2 0x1A0 DUP2 DUP5 SUB SWAP2 ADD MSTORE PUSH2 0x2D5A JUMP JUMPDEST SWAP3 PUSH2 0x1C0 PUSH1 0xA0 MLOAD ADD MSTORE PUSH2 0x1E0 PUSH1 0xA0 MLOAD ADD MSTORE PUSH1 0xA0 MLOAD PUSH2 0x200 DUP2 DUP5 SUB SWAP2 ADD MSTORE PUSH2 0x2D5A JUMP JUMPDEST SWAP4 PUSH1 0xC0 MLOAD PUSH2 0x220 PUSH1 0xA0 MLOAD ADD MSTORE PUSH2 0x240 PUSH1 0xA0 MLOAD ADD MSTORE PUSH2 0x260 PUSH1 0xA0 MLOAD ADD MSTORE PUSH2 0x280 PUSH1 0xA0 MLOAD ADD MSTORE PUSH2 0x2A0 PUSH1 0xA0 MLOAD ADD MSTORE PUSH2 0x120 MLOAD PUSH2 0x2C0 PUSH1 0xA0 MLOAD ADD MSTORE PUSH1 0x80 MLOAD PUSH2 0x2E0 PUSH1 0xA0 MLOAD ADD MSTORE PUSH1 0xA0 MLOAD DUP1 SWAP2 SUB SWAP1 RETURN JUMPDEST CALLVALUE PUSH2 0x53C JUMPI PUSH1 0x60 CALLDATASIZE PUSH1 0x3 NOT ADD SLT PUSH2 0x53C JUMPI PUSH1 0x4 CALLDATALOAD PUSH1 0x1 PUSH1 0x1 PUSH1 0x40 SHL SUB DUP2 GT PUSH2 0x53C JUMPI PUSH2 0x7FB SWAP1 CALLDATASIZE SWAP1 PUSH1 0x4 ADD PUSH2 0x2B9B JUMP JUMPDEST PUSH1 0x24 CALLDATALOAD PUSH1 0x1 PUSH1 0x1 PUSH1 0xA0 SHL SUB DUP2 AND SWAP1 SUB PUSH2 0x53C JUMPI PUSH1 0x44 CALLDATALOAD DUP1 ISZERO ISZERO DUP2 SUB PUSH2 0x53C JUMPI PUSH2 0x82F PUSH1 0x1 DUP1 PUSH1 0xA0 SHL SUB PUSH1 0x0 SLOAD AND CALLER EQ PUSH2 0x2FE4 JUMP JUMPDEST PUSH2 0x861 PUSH1 0x20 PUSH1 0x40 MLOAD PUSH2 0x850 PUSH1 0xFF DUP7 MLOAD SWAP3 DUP5 DUP2 DUP2 DUP11 ADD SWAP6 PUSH2 0x1CB DUP2 DUP4 DUP10 PUSH2 0x2C48 JUMP JUMPDEST PUSH1 0x40 MLOAD DUP1 SWAP4 DUP2 SWAP3 DUP8 MLOAD SWAP3 DUP4 SWAP2 PUSH2 0x2C48 JUMP JUMPDEST DUP2 ADD PUSH1 0x8 DUP2 MSTORE SUB ADD SWAP1 KECCAK256 SWAP2 PUSH1 0x6 DUP4 ADD SLOAD PUSH1 0xFF DUP2 AND PUSH1 0x5 DUP2 LT ISZERO PUSH2 0x526 JUMPI PUSH1 0x3 SUB PUSH2 0xAC3 JUMPI PUSH1 0x24 CALLDATALOAD PUSH1 0x1 PUSH1 0x1 PUSH1 0xA0 SHL SUB SWAP1 DUP2 AND PUSH1 0x18 DUP4 SWAP1 SHR SWAP1 SWAP2 AND EQ DUP1 ISZERO PUSH2 0xAA7 JUMPI JUMPDEST ISZERO PUSH2 0xA71 JUMPI PUSH1 0x8 DUP5 ADD SLOAD PUSH2 0x8BB PUSH1 0xB DUP7 ADD SLOAD DUP3 PUSH2 0x2DD5 JUMP JUMPDEST SWAP2 PUSH1 0x1 DUP1 PUSH1 0xA0 SHL SUB SWAP1 PUSH1 0x18 SHR AND PUSH1 0x0 MSTORE PUSH1 0xD PUSH1 0x20 MSTORE PUSH2 0x8E0 PUSH1 0x40 PUSH1 0x0 KECCAK256 SWAP2 DUP3 SLOAD PUSH2 0x2E4D JUMP JUMPDEST SWAP1 SSTORE PUSH1 0xB DUP5 ADD SLOAD PUSH1 0x1 DUP1 PUSH1 0xA0 SHL SUB PUSH1 0xA DUP7 ADD SLOAD AND PUSH1 0x0 MSTORE PUSH1 0xD PUSH1 0x20 MSTORE PUSH2 0x90C PUSH1 0x40 PUSH1 0x0 KECCAK256 SWAP2 DUP3 SLOAD PUSH2 0x2E4D JUMP JUMPDEST SWAP1 SSTORE PUSH1 0x1 SLOAD PUSH1 0x40 MLOAD PUSH4 0xA9059CBB PUSH1 0xE0 SHL DUP2 MSTORE PUSH1 0x1 PUSH1 0x1 PUSH1 0xA0 SHL SUB PUSH1 0x24 DUP1 CALLDATALOAD DUP3 AND PUSH1 0x4 DUP5 ADD MSTORE DUP3 ADD DUP5 SWAP1 MSTORE SWAP1 SWAP2 PUSH1 0x20 SWAP2 DUP4 SWAP2 AND DUP2 PUSH1 0x0 DUP2 PUSH1 0x44 DUP2 ADD SUB SWAP3 GAS CALL SWAP1 DUP2 ISZERO PUSH2 0x3B8 JUMPI PUSH1 0x0 SWAP2 PUSH2 0xA52 JUMPI JUMPDEST POP ISZERO PUSH2 0xA18 JUMPI PUSH1 0x6 DUP5 ADD DUP1 SLOAD PUSH2 0xFFFF NOT AND DUP5 ISZERO ISZERO PUSH1 0x8 SHL PUSH2 0xFF00 AND OR PUSH1 0x4 OR SWAP1 SSTORE PUSH1 0x0 DUP1 MLOAD PUSH1 0x20 PUSH2 0x3116 DUP4 CODECOPY DUP2 MLOAD SWAP2 MSTORE SWAP4 PUSH2 0x386 SWAP2 PUSH32 0x38B360C485B4BED5C0C2E2AB639B104B4E002DBF7351D0D4431E48B6D9E2BFCE SWAP1 PUSH1 0x0 PUSH1 0x8 DUP5 ADD SSTORE PUSH1 0x0 PUSH1 0xB DUP5 ADD SSTORE PUSH1 0x40 MLOAD DUP1 SWAP2 PUSH1 0x80 DUP3 MSTORE PUSH2 0x9D4 PUSH1 0x80 DUP4 ADD DUP9 PUSH2 0x2D5A JUMP JUMPDEST PUSH1 0x24 CALLDATALOAD PUSH1 0x1 PUSH1 0x1 PUSH1 0xA0 SHL SUB AND PUSH1 0x20 DUP5 ADD MSTORE PUSH1 0x40 DUP4 ADD SWAP2 SWAP1 SWAP2 MSTORE DUP8 ISZERO ISZERO PUSH1 0x60 DUP4 ADD MSTORE SUB SWAP1 LOG1 DUP4 ISZERO PUSH2 0xA0F JUMPI PUSH1 0xE ADD SLOAD JUMPDEST PUSH1 0x40 MLOAD SWAP4 DUP5 SWAP4 DUP5 PUSH2 0x301D JUMP JUMPDEST PUSH1 0xF ADD SLOAD PUSH2 0xA03 JUMP JUMPDEST PUSH1 0x40 MLOAD PUSH3 0x461BCD PUSH1 0xE5 SHL DUP2 MSTORE PUSH1 0x20 PUSH1 0x4 DUP3 ADD MSTORE PUSH1 0x12 PUSH1 0x24 DUP3 ADD MSTORE PUSH18 0x109BDB99081C995DD85C990819985A5B1959 PUSH1 0x72 SHL PUSH1 0x44 DUP3 ADD MSTORE PUSH1 0x64 SWAP1 REVERT JUMPDEST PUSH2 0xA6B SWAP2 POP PUSH1 0x20 RETURNDATASIZE PUSH1 0x20 GT PUSH2 0x3B1 JUMPI PUSH2 0x3A2 DUP2 DUP4 PUSH2 0x2B7A JUMP JUMPDEST DUP6 PUSH2 0x959 JUMP JUMPDEST PUSH1 0x40 MLOAD PUSH3 0x461BCD PUSH1 0xE5 SHL DUP2 MSTORE PUSH1 0x20 PUSH1 0x4 DUP3 ADD MSTORE PUSH1 0xE PUSH1 0x24 DUP3 ADD MSTORE PUSH14 0x24B73B30B634B2103BB4B73732B9 PUSH1 0x91 SHL PUSH1 0x44 DUP3 ADD MSTORE PUSH1 0x64 SWAP1 REVERT JUMPDEST POP PUSH1 0xA DUP5 ADD SLOAD PUSH1 0x24 CALLDATALOAD PUSH1 0x1 PUSH1 0x1 PUSH1 0xA0 SHL SUB SWAP1 DUP2 AND SWAP2 AND EQ PUSH2 0x8A3 JUMP JUMPDEST PUSH1 0x40 MLOAD PUSH3 0x461BCD PUSH1 0xE5 SHL DUP2 MSTORE PUSH1 0x20 PUSH1 0x4 DUP3 ADD MSTORE PUSH1 0xE PUSH1 0x24 DUP3 ADD MSTORE PUSH14 0x4E6F7420696E2064697370757465 PUSH1 0x90 SHL PUSH1 0x44 DUP3 ADD MSTORE PUSH1 0x64 SWAP1 REVERT JUMPDEST CALLVALUE PUSH2 0x53C JUMPI PUSH1 0x0 CALLDATASIZE PUSH1 0x3 NOT ADD SLT PUSH2 0x53C JUMPI PUSH1 0x20 PUSH1 0x2 SLOAD PUSH1 0x40 MLOAD SWAP1 DUP2 MSTORE RETURN JUMPDEST CALLVALUE PUSH2 0x53C JUMPI PUSH1 0x40 CALLDATASIZE PUSH1 0x3 NOT ADD SLT PUSH2 0x53C JUMPI PUSH1 0x4 CALLDATALOAD PUSH1 0x1 PUSH1 0x1 PUSH1 0x40 SHL SUB DUP2 GT PUSH2 0x53C JUMPI PUSH2 0xB47 SWAP1 CALLDATASIZE SWAP1 PUSH1 0x4 ADD PUSH2 0x2B9B JUMP JUMPDEST PUSH2 0xB4F PUSH2 0x2C6B JUMP JUMPDEST SWAP1 PUSH1 0x1 DUP1 PUSH1 0xA0 SHL SUB PUSH2 0xB66 DUP2 PUSH1 0x0 SLOAD AND CALLER EQ PUSH2 0x2FE4 JUMP JUMPDEST PUSH1 0x40 MLOAD SWAP1 DUP2 DUP4 MLOAD PUSH1 0x20 SWAP4 DUP2 PUSH2 0xB7F DUP7 SWAP4 DUP4 DUP6 DUP11 ADD PUSH2 0x2C48 JUMP JUMPDEST DUP2 ADD PUSH1 0x8 DUP2 MSTORE SUB ADD SWAP1 KECCAK256 SWAP1 PUSH1 0x6 DUP3 ADD SWAP2 DUP3 SLOAD PUSH1 0xFF DUP2 AND PUSH1 0x5 DUP2 LT ISZERO PUSH2 0x526 JUMPI PUSH1 0x4 PUSH2 0xBAB SWAP2 EQ ISZERO PUSH2 0x30DE JUMP JUMPDEST DUP5 PUSH1 0x8 DUP4 ADD DUP1 SLOAD DUP6 DUP2 PUSH2 0xCDF JUMPI JUMPDEST POP POP POP POP POP PUSH1 0xB DUP2 ADD SWAP2 DUP3 SLOAD SWAP2 DUP3 PUSH2 0xC20 JUMPI JUMPDEST DUP5 SLOAD PUSH2 0xFFFF NOT AND DUP9 ISZERO ISZERO PUSH1 0x8 SHL PUSH2 0xFF00 AND OR PUSH1 0x4 OR DUP6 SSTORE PUSH1 0x0 DUP1 MLOAD PUSH1 0x20 PUSH2 0x3116 DUP4 CODECOPY DUP2 MLOAD SWAP2 MSTORE PUSH2 0xC0D DUP9 DUP11 DUP10 JUMPDEST PUSH1 0x40 MLOAD SWAP4 DUP5 SWAP4 PUSH1 0x60 DUP6 MSTORE PUSH1 0x60 DUP6 ADD SWAP1 PUSH2 0x2D5A JUMP JUMPDEST SWAP2 ISZERO ISZERO SWAP1 DUP4 ADD MSTORE PUSH1 0x0 PUSH1 0x40 DUP4 ADD MSTORE SUB SWAP1 LOG1 STOP JUMPDEST SWAP2 DUP6 SWAP4 SWAP2 PUSH1 0xA PUSH2 0xC8D SWAP10 SWAP7 SWAP9 SWAP8 SWAP5 ADD SWAP2 DUP2 DUP4 SLOAD AND PUSH1 0x0 MSTORE PUSH1 0xD DUP6 MSTORE PUSH2 0xC4B PUSH1 0x40 PUSH1 0x0 KECCAK256 SWAP2 DUP3 SLOAD PUSH2 0x2E4D JUMP JUMPDEST SWAP1 SSTORE PUSH1 0x1 SLOAD SWAP2 SLOAD SWAP3 SLOAD PUSH1 0x40 MLOAD PUSH4 0xA9059CBB PUSH1 0xE0 SHL DUP2 MSTORE SWAP4 DUP3 AND PUSH1 0x1 PUSH1 0x1 PUSH1 0xA0 SHL SUB AND PUSH1 0x4 DUP6 ADD MSTORE PUSH1 0x24 DUP5 ADD MSTORE SWAP2 SWAP8 DUP9 SWAP3 SWAP1 SWAP2 AND SWAP1 DUP3 SWAP1 PUSH1 0x0 SWAP1 DUP3 SWAP1 PUSH1 0x44 DUP3 ADD SWAP1 JUMP JUMPDEST SUB SWAP3 GAS CALL SWAP5 DUP6 ISZERO PUSH2 0x3B8 JUMPI DUP3 PUSH2 0xC0D SWAP6 PUSH2 0xBF9 SWAP3 PUSH1 0x0 DUP1 MLOAD PUSH1 0x20 PUSH2 0x3116 DUP4 CODECOPY DUP2 MLOAD SWAP2 MSTORE SWAP9 PUSH2 0xCC2 JUMPI JUMPDEST POP SWAP4 SWAP7 DUP4 SWAP6 SWAP7 POP PUSH2 0xBCC JUMP JUMPDEST PUSH2 0xCD8 SWAP1 DUP6 RETURNDATASIZE DUP8 GT PUSH2 0x3B1 JUMPI PUSH2 0x3A2 DUP2 DUP4 PUSH2 0x2B7A JUMP JUMPDEST POP DUP9 PUSH2 0xCB6 JUMP JUMPDEST PUSH2 0xD44 SWAP5 PUSH1 0x18 SHR AND PUSH1 0x0 MSTORE PUSH1 0xD DUP4 MSTORE PUSH2 0xCFE PUSH1 0x40 PUSH1 0x0 KECCAK256 SWAP2 DUP3 SLOAD PUSH2 0x2E4D JUMP JUMPDEST SWAP1 SSTORE PUSH1 0x1 SLOAD DUP7 SLOAD SWAP2 SLOAD PUSH1 0x40 MLOAD PUSH4 0xA9059CBB PUSH1 0xE0 SHL DUP2 MSTORE PUSH1 0x18 SWAP4 SWAP1 SWAP4 SHR DUP8 AND PUSH1 0x1 PUSH1 0x1 PUSH1 0xA0 SHL SUB AND PUSH1 0x4 DUP5 ADD MSTORE PUSH1 0x24 DUP4 ADD MSTORE SWAP1 SWAP3 DUP4 SWAP2 DUP7 AND SWAP1 DUP3 SWAP1 PUSH1 0x0 SWAP1 DUP3 SWAP1 PUSH1 0x44 DUP3 ADD SWAP1 JUMP JUMPDEST SUB SWAP3 GAS CALL DUP1 ISZERO PUSH2 0x3B8 JUMPI PUSH2 0xD5C JUMPI JUMPDEST DUP5 DUP2 DUP1 DUP6 PUSH2 0xBB9 JUMP JUMPDEST PUSH2 0xD72 SWAP1 DUP6 RETURNDATASIZE DUP8 GT PUSH2 0x3B1 JUMPI PUSH2 0x3A2 DUP2 DUP4 PUSH2 0x2B7A JUMP JUMPDEST POP DUP7 PUSH2 0xD53 JUMP JUMPDEST CALLVALUE PUSH2 0x53C JUMPI PUSH1 0x20 CALLDATASIZE PUSH1 0x3 NOT ADD SLT PUSH2 0x53C JUMPI PUSH1 0x1 PUSH1 0x1 PUSH1 0xA0 SHL SUB PUSH2 0xD9A PUSH2 0x2BF1 JUMP JUMPDEST AND PUSH1 0x0 MSTORE PUSH1 0x6 PUSH1 0x20 MSTORE PUSH1 0x20 PUSH1 0x40 PUSH1 0x0 KECCAK256 SLOAD PUSH1 0x40 MLOAD SWAP1 DUP2 MSTORE RETURN JUMPDEST CALLVALUE PUSH2 0x53C JUMPI PUSH1 0x0 CALLDATASIZE PUSH1 0x3 NOT ADD SLT PUSH2 0x53C JUMPI PUSH1 0x20 PUSH1 0x40 MLOAD PUSH1 0x96 DUP2 MSTORE RETURN JUMPDEST CALLVALUE PUSH2 0x53C JUMPI PUSH1 0x20 DUP1 PUSH1 0x3 NOT CALLDATASIZE ADD SLT PUSH2 0x53C JUMPI PUSH1 0x4 CALLDATALOAD PUSH1 0x1 PUSH1 0x1 PUSH1 0x40 SHL SUB DUP2 GT PUSH2 0x53C JUMPI PUSH2 0xE00 SWAP1 CALLDATASIZE SWAP1 PUSH1 0x4 ADD PUSH2 0x2B9B JUMP JUMPDEST PUSH1 0x40 MLOAD SWAP1 PUSH2 0xE1D PUSH1 0xFF DUP3 MLOAD SWAP4 DUP6 DUP2 DUP2 DUP7 ADD SWAP7 PUSH2 0x1CB DUP2 DUP4 DUP11 PUSH2 0x2C48 JUMP JUMPDEST PUSH1 0x40 MLOAD DUP4 DUP2 DUP4 MLOAD PUSH2 0xE2F DUP2 DUP4 DUP9 PUSH2 0x2C48 JUMP JUMPDEST DUP2 ADD PUSH1 0x8 DUP2 MSTORE SUB ADD SWAP1 KECCAK256 PUSH1 0x6 DUP2 ADD SLOAD PUSH1 0xFF DUP2 AND SWAP1 PUSH1 0x5 DUP3 LT ISZERO PUSH2 0x526 JUMPI PUSH2 0xE5A PUSH1 0x4 PUSH1 0xFF SWAP4 EQ PUSH2 0x306D JUMP JUMPDEST PUSH1 0x10 SHR AND ISZERO PUSH2 0x102D JUMPI PUSH1 0x1 DUP2 ADD SLOAD PUSH1 0x1 PUSH1 0x1 PUSH1 0xA0 SHL SUB SWAP2 SWAP1 DUP3 AND CALLER SUB PUSH2 0xFF9 JUMPI PUSH1 0x40 MLOAD DUP6 DUP2 DUP6 MLOAD PUSH2 0xE8C DUP2 DUP4 DUP11 PUSH2 0x2C48 JUMP JUMPDEST DUP2 ADD PUSH1 0xC DUP2 MSTORE SUB ADD SWAP1 KECCAK256 CALLER PUSH1 0x0 MSTORE DUP6 MSTORE PUSH1 0xFF PUSH1 0x40 PUSH1 0x0 KECCAK256 SLOAD AND PUSH2 0xFC0 JUMPI DUP1 PUSH1 0x11 PUSH1 0x10 PUSH2 0xEBD SWAP4 ADD SLOAD SWAP2 ADD SLOAD SWAP1 PUSH2 0x2DD5 JUMP JUMPDEST SWAP3 DUP4 ISZERO PUSH2 0xF91 JUMPI DUP5 PUSH2 0xEDA SWAP2 PUSH1 0x40 MLOAD DUP1 SWAP4 DUP2 SWAP3 DUP8 MLOAD SWAP3 DUP4 SWAP2 PUSH2 0x2C48 JUMP JUMPDEST DUP2 ADD PUSH1 0xC DUP2 MSTORE SUB ADD SWAP1 KECCAK256 CALLER PUSH1 0x0 MSTORE DUP5 MSTORE PUSH1 0x40 PUSH1 0x0 KECCAK256 PUSH1 0x1 PUSH1 0xFF NOT DUP3 SLOAD AND OR SWAP1 SSTORE PUSH1 0x1 SLOAD AND SWAP3 DUP1 PUSH1 0x40 MLOAD DUP1 SWAP6 PUSH4 0xA9059CBB PUSH1 0xE0 SHL DUP3 MSTORE DUP2 PUSH1 0x0 DUP2 PUSH2 0xF36 DUP10 CALLER PUSH1 0x4 DUP5 ADD PUSH1 0x20 SWAP1 SWAP4 SWAP3 SWAP2 SWAP4 PUSH1 0x40 DUP2 ADD SWAP5 PUSH1 0x1 DUP1 PUSH1 0xA0 SHL SUB AND DUP2 MSTORE ADD MSTORE JUMP JUMPDEST SUB SWAP3 GAS CALL DUP1 ISZERO PUSH2 0x3B8 JUMPI PUSH32 0x3FF50BB01A71BA44B43B95E691FE785159D1C403EFD991B82F3B5F62A2D8148A SWAP5 PUSH2 0x375 SWAP3 PUSH1 0x0 SWAP3 PUSH2 0xF74 JUMPI POP POP PUSH2 0x2D97 JUMP JUMPDEST PUSH2 0xF8A SWAP3 POP DUP1 RETURNDATASIZE LT PUSH2 0x3B1 JUMPI PUSH2 0x3A2 DUP2 DUP4 PUSH2 0x2B7A JUMP JUMPDEST DUP6 DUP1 PUSH2 0x36E JUMP JUMPDEST PUSH1 0x40 MLOAD PUSH3 0x461BCD PUSH1 0xE5 SHL DUP2 MSTORE PUSH1 0x4 DUP2 ADD DUP7 SWAP1 MSTORE PUSH1 0x7 PUSH1 0x24 DUP3 ADD MSTORE PUSH7 0x139BC81CD95959 PUSH1 0xCA SHL PUSH1 0x44 DUP3 ADD MSTORE PUSH1 0x64 SWAP1 REVERT JUMPDEST PUSH1 0x40 MLOAD PUSH3 0x461BCD PUSH1 0xE5 SHL DUP2 MSTORE PUSH1 0x4 DUP2 ADD DUP7 SWAP1 MSTORE PUSH1 0x11 PUSH1 0x24 DUP3 ADD MSTORE PUSH17 0x20B63932B0B23C903BB4BA34323930BBB7 PUSH1 0x79 SHL PUSH1 0x44 DUP3 ADD MSTORE PUSH1 0x64 SWAP1 REVERT JUMPDEST PUSH1 0x40 MLOAD PUSH3 0x461BCD PUSH1 0xE5 SHL DUP2 MSTORE PUSH1 0x4 DUP2 ADD DUP7 SWAP1 MSTORE PUSH1 0xC PUSH1 0x24 DUP3 ADD MSTORE PUSH12 0x27B7363C9031B932B0BA37B9 PUSH1 0xA1 SHL PUSH1 0x44 DUP3 ADD MSTORE PUSH1 0x64 SWAP1 REVERT JUMPDEST PUSH1 0x40 MLOAD PUSH3 0x461BCD PUSH1 0xE5 SHL DUP2 MSTORE PUSH1 0x4 DUP2 ADD DUP6 SWAP1 MSTORE PUSH1 0xF PUSH1 0x24 DUP3 ADD MSTORE PUSH15 0x13585C9AD95D081B9BDD081D9BDA59 PUSH1 0x8A SHL PUSH1 0x44 DUP3 ADD MSTORE PUSH1 0x64 SWAP1 REVERT JUMPDEST CALLVALUE PUSH2 0x53C JUMPI PUSH1 0x0 CALLDATASIZE PUSH1 0x3 NOT ADD SLT PUSH2 0x53C JUMPI CALLER PUSH1 0x0 MSTORE PUSH1 0x6 PUSH1 0x20 MSTORE PUSH1 0x0 PUSH1 0x20 PUSH2 0x10DF PUSH1 0x40 DUP4 KECCAK256 SLOAD PUSH2 0x1095 DUP2 ISZERO ISZERO PUSH2 0x30A8 JUMP JUMPDEST CALLER DUP1 DUP6 MSTORE PUSH1 0x6 DUP5 MSTORE PUSH1 0x40 DUP1 DUP7 KECCAK256 DUP7 SWAP1 SSTORE PUSH1 0x1 SLOAD SWAP1 MLOAD PUSH4 0xA9059CBB PUSH1 0xE0 SHL DUP2 MSTORE PUSH1 0x4 DUP2 ADD SWAP3 SWAP1 SWAP3 MSTORE PUSH1 0x24 DUP3 ADD SWAP3 SWAP1 SWAP3 MSTORE SWAP4 DUP5 SWAP3 PUSH1 0x1 PUSH1 0x1 PUSH1 0xA0 SHL SUB SWAP1 SWAP3 AND SWAP2 DUP4 SWAP2 SWAP1 DUP3 SWAP1 PUSH1 0x44 DUP3 ADD SWAP1 JUMP JUMPDEST SUB SWAP3 GAS CALL DUP1 ISZERO PUSH2 0x3B8 JUMPI PUSH2 0x10FB SWAP2 PUSH1 0x0 SWAP2 PUSH2 0x10FD JUMPI JUMPDEST POP PUSH2 0x2D97 JUMP JUMPDEST STOP JUMPDEST PUSH2 0x1115 SWAP2 POP PUSH1 0x20 RETURNDATASIZE DUP2 GT PUSH2 0x3B1 JUMPI PUSH2 0x3A2 DUP2 DUP4 PUSH2 0x2B7A JUMP JUMPDEST DUP3 PUSH2 0x10F5 JUMP JUMPDEST CALLVALUE PUSH2 0x53C JUMPI PUSH1 0x0 CALLDATASIZE PUSH1 0x3 NOT ADD SLT PUSH2 0x53C JUMPI CALLER PUSH1 0x0 MSTORE PUSH1 0x7 PUSH1 0x20 MSTORE PUSH1 0x0 PUSH1 0x20 PUSH2 0x10DF PUSH1 0x40 DUP4 KECCAK256 SLOAD PUSH2 0x114C DUP2 ISZERO ISZERO PUSH2 0x30A8 JUMP JUMPDEST CALLER DUP1 DUP6 MSTORE PUSH1 0x7 DUP5 MSTORE PUSH1 0x40 DUP1 DUP7 KECCAK256 DUP7 SWAP1 SSTORE PUSH1 0x1 SLOAD SWAP1 MLOAD PUSH4 0xA9059CBB PUSH1 0xE0 SHL DUP2 MSTORE PUSH1 0x4 DUP2 ADD SWAP3 SWAP1 SWAP3 MSTORE PUSH1 0x24 DUP3 ADD SWAP3 SWAP1 SWAP3 MSTORE SWAP4 DUP5 SWAP3 PUSH1 0x1 PUSH1 0x1 PUSH1 0xA0 SHL SUB SWAP1 SWAP3 AND SWAP2 DUP4 SWAP2 SWAP1 DUP3 SWAP1 PUSH1 0x44 DUP3 ADD SWAP1 JUMP JUMPDEST CALLVALUE PUSH2 0x53C JUMPI PUSH1 0x20 PUSH2 0x11BE PUSH2 0x11A9 CALLDATASIZE PUSH2 0x2C07 JUMP JUMPDEST SWAP3 SWAP1 DUP2 PUSH1 0x40 MLOAD SWAP4 DUP3 DUP6 DUP1 SWAP5 MLOAD SWAP4 DUP5 SWAP3 ADD PUSH2 0x2C48 JUMP JUMPDEST PUSH1 0xA SWAP1 DUP3 ADD SWAP1 DUP2 MSTORE SUB ADD SWAP1 KECCAK256 PUSH1 0x1 PUSH1 0x1 PUSH1 0xA0 SHL SUB SWAP2 DUP3 AND PUSH1 0x0 SWAP1 DUP2 MSTORE PUSH1 0x20 SWAP2 DUP3 MSTORE PUSH1 0x40 SWAP1 DUP2 SWAP1 KECCAK256 DUP1 SLOAD PUSH1 0x1 DUP3 ADD SLOAD PUSH1 0x2 SWAP1 SWAP3 ADD SLOAD DUP4 MLOAD SWAP2 DUP3 MSTORE SWAP4 DUP2 ADD SWAP2 SWAP1 SWAP2 MSTORE SWAP3 DUP3 AND SWAP1 DUP4 ADD MSTORE PUSH1 0xA0 SHR PUSH1 0xFF AND ISZERO ISZERO PUSH1 0x60 DUP3 ADD MSTORE PUSH1 0x80 SWAP1 RETURN JUMPDEST CALLVALUE PUSH2 0x53C JUMPI PUSH1 0x0 CALLDATASIZE PUSH1 0x3 NOT ADD SLT PUSH2 0x53C JUMPI PUSH1 0x20 PUSH1 0x40 MLOAD PUSH2 0x2710 DUP2 MSTORE RETURN JUMPDEST CALLVALUE PUSH2 0x53C JUMPI PUSH1 0x20 DUP1 PUSH1 0x3 NOT CALLDATASIZE ADD SLT PUSH2 0x53C JUMPI PUSH1 0x4 CALLDATALOAD PUSH1 0x1 PUSH1 0x1 PUSH1 0x40 SHL SUB DUP2 GT PUSH2 0x53C JUMPI PUSH2 0x1265 SWAP1 CALLDATASIZE SWAP1 PUSH1 0x4 ADD PUSH2 0x2B9B JUMP JUMPDEST PUSH1 0x0 SLOAD PUSH1 0x1 PUSH1 0x1 PUSH1 0xA0 SHL SUB SWAP3 SWAP1 PUSH2 0x127F SWAP1 DUP5 AND CALLER EQ PUSH2 0x2FE4 JUMP JUMPDEST PUSH1 0x40 MLOAD DUP2 DUP2 DUP5 MLOAD PUSH2 0x1293 DUP2 DUP4 DUP6 DUP10 ADD PUSH2 0x2C48 JUMP JUMPDEST DUP2 ADD PUSH1 0x8 DUP2 MSTORE SUB ADD SWAP1 KECCAK256 PUSH1 0x6 DUP2 ADD SWAP1 DUP2 SLOAD PUSH1 0xFF DUP2 AND PUSH1 0x5 DUP2 LT ISZERO PUSH2 0x526 JUMPI PUSH1 0x4 PUSH2 0x12BE SWAP2 EQ ISZERO PUSH2 0x30DE JUMP JUMPDEST DUP4 PUSH1 0x8 DUP4 ADD DUP1 SLOAD DUP9 DUP2 PUSH2 0x13E2 JUMPI JUMPDEST POP POP POP POP POP PUSH1 0xB DUP2 ADD SWAP5 DUP6 SLOAD SWAP2 DUP3 PUSH2 0x1323 JUMPI JUMPDEST DUP4 SLOAD PUSH3 0xFF00FF NOT AND PUSH3 0x10004 OR DUP5 SSTORE PUSH1 0x40 MLOAD DUP6 DUP2 MSTORE PUSH32 0x1E9A51575531367C4323C60EFE8C5B980AF66CD0509C86D8F4E1A3D9C9001700 SWAP1 DUP1 PUSH2 0x386 DUP2 DUP10 ADD DUP11 PUSH2 0x2D5A JUMP JUMPDEST SWAP2 PUSH2 0x138C SWAP7 SWAP2 PUSH1 0xA DUP7 SWAP5 ADD SWAP2 DUP2 DUP4 SLOAD AND PUSH1 0x0 MSTORE PUSH1 0xD DUP6 MSTORE PUSH2 0x134A PUSH1 0x40 PUSH1 0x0 KECCAK256 SWAP2 DUP3 SLOAD PUSH2 0x2E4D JUMP JUMPDEST SWAP1 SSTORE PUSH1 0x1 SLOAD SWAP2 SLOAD SWAP3 SLOAD PUSH1 0x40 MLOAD PUSH4 0xA9059CBB PUSH1 0xE0 SHL DUP2 MSTORE SWAP4 DUP3 AND PUSH1 0x1 PUSH1 0x1 PUSH1 0xA0 SHL SUB AND PUSH1 0x4 DUP6 ADD MSTORE PUSH1 0x24 DUP5 ADD MSTORE SWAP2 SWAP7 DUP8 SWAP3 SWAP1 SWAP2 AND SWAP1 DUP3 SWAP1 PUSH1 0x0 SWAP1 DUP3 SWAP1 PUSH1 0x44 DUP3 ADD SWAP1 JUMP JUMPDEST SUB SWAP3 GAS CALL SWAP4 DUP5 ISZERO PUSH2 0x3B8 JUMPI PUSH32 0x1E9A51575531367C4323C60EFE8C5B980AF66CD0509C86D8F4E1A3D9C9001700 SWAP5 PUSH2 0x13C5 JUMPI JUMPDEST DUP1 DUP1 PUSH2 0x12DF JUMP JUMPDEST PUSH2 0x13DB SWAP1 DUP4 RETURNDATASIZE DUP6 GT PUSH2 0x3B1 JUMPI PUSH2 0x3A2 DUP2 DUP4 PUSH2 0x2B7A JUMP JUMPDEST POP DUP5 PUSH2 0x13BE JUMP JUMPDEST PUSH2 0x1447 SWAP5 PUSH1 0x18 SHR AND PUSH1 0x0 MSTORE PUSH1 0xD DUP4 MSTORE PUSH2 0x1401 PUSH1 0x40 PUSH1 0x0 KECCAK256 SWAP2 DUP3 SLOAD PUSH2 0x2E4D JUMP JUMPDEST SWAP1 SSTORE PUSH1 0x1 SLOAD DUP6 SLOAD SWAP2 SLOAD PUSH1 0x40 MLOAD PUSH4 0xA9059CBB PUSH1 0xE0 SHL DUP2 MSTORE PUSH1 0x18 SWAP4 SWAP1 SWAP4 SHR DUP11 AND PUSH1 0x1 PUSH1 0x1 PUSH1 0xA0 SHL SUB AND PUSH1 0x4 DUP5 ADD MSTORE PUSH1 0x24 DUP4 ADD MSTORE SWAP1 SWAP3 DUP4 SWAP2 DUP10 AND SWAP1 DUP3 SWAP1 PUSH1 0x0 SWAP1 DUP3 SWAP1 PUSH1 0x44 DUP3 ADD SWAP1 JUMP JUMPDEST SUB SWAP3 GAS CALL DUP1 ISZERO PUSH2 0x3B8 JUMPI PUSH2 0x145F JUMPI JUMPDEST DUP4 DUP2 DUP1 DUP9 PUSH2 0x12CC JUMP JUMPDEST PUSH2 0x1475 SWAP1 DUP5 RETURNDATASIZE DUP7 GT PUSH2 0x3B1 JUMPI PUSH2 0x3A2 DUP2 DUP4 PUSH2 0x2B7A JUMP JUMPDEST POP DUP6 PUSH2 0x1456 JUMP JUMPDEST CALLVALUE PUSH2 0x53C JUMPI PUSH1 0x0 CALLDATASIZE PUSH1 0x3 NOT ADD SLT PUSH2 0x53C JUMPI PUSH1 0x20 PUSH1 0x4 SLOAD PUSH1 0x40 MLOAD SWAP1 DUP2 MSTORE RETURN JUMPDEST CALLVALUE PUSH2 0x53C JUMPI PUSH1 0xA0 CALLDATASIZE PUSH1 0x3 NOT ADD SLT PUSH2 0x53C JUMPI PUSH1 0x1 PUSH1 0x1 PUSH1 0x40 SHL SUB PUSH1 0x4 CALLDATALOAD DUP2 DUP2 GT PUSH2 0x53C JUMPI PUSH2 0x14CB SWAP1 CALLDATASIZE SWAP1 PUSH1 0x4 ADD PUSH2 0x2B9B JUMP JUMPDEST SWAP1 PUSH1 0x24 CALLDATALOAD DUP2 DUP2 GT PUSH2 0x53C JUMPI PUSH2 0x14E4 SWAP1 CALLDATASIZE SWAP1 PUSH1 0x4 ADD PUSH2 0x2B9B JUMP JUMPDEST SWAP1 PUSH1 0xFF PUSH1 0x40 MLOAD PUSH1 0x20 DUP2 DUP7 MLOAD PUSH2 0x14FC DUP2 DUP4 DUP6 DUP12 ADD PUSH2 0x2C48 JUMP JUMPDEST DUP2 ADD PUSH1 0x9 DUP2 MSTORE SUB ADD SWAP1 KECCAK256 SLOAD AND PUSH2 0x1997 JUMPI PUSH1 0x44 CALLDATALOAD ISZERO ISZERO DUP1 PUSH2 0x198A JUMPI JUMPDEST ISZERO PUSH2 0x1956 JUMPI PUSH1 0x1 SLOAD PUSH1 0x40 MLOAD PUSH4 0x23B872DD PUSH1 0xE0 SHL DUP2 MSTORE CALLER PUSH1 0x4 DUP3 ADD MSTORE ADDRESS PUSH1 0x24 DUP3 ADD MSTORE PUSH1 0x44 DUP1 CALLDATALOAD SWAP1 DUP3 ADD MSTORE SWAP1 PUSH1 0x20 SWAP1 DUP3 SWAP1 PUSH1 0x64 SWAP1 DUP3 SWAP1 PUSH1 0x0 SWAP1 PUSH1 0x1 PUSH1 0x1 PUSH1 0xA0 SHL SUB AND GAS CALL DUP1 ISZERO PUSH2 0x3B8 JUMPI PUSH2 0x1570 SWAP2 PUSH1 0x0 SWAP2 PUSH2 0x1937 JUMPI POP PUSH2 0x2D97 JUMP JUMPDEST PUSH1 0x40 MLOAD PUSH1 0x20 DUP2 DUP6 MLOAD PUSH2 0x1585 DUP2 DUP4 DUP6 DUP11 ADD PUSH2 0x2C48 JUMP JUMPDEST DUP2 ADD PUSH1 0x8 DUP2 MSTORE SUB ADD SWAP1 KECCAK256 SWAP2 DUP4 MLOAD DUP3 DUP2 GT PUSH2 0x186C JUMPI PUSH2 0x15A3 DUP5 SLOAD PUSH2 0x2C7A JUMP JUMPDEST PUSH1 0x1F DUP2 GT PUSH2 0x18F1 JUMPI JUMPDEST POP DUP1 PUSH1 0x20 PUSH1 0x1F DUP3 GT PUSH1 0x1 EQ PUSH2 0x188D JUMPI PUSH1 0x0 SWAP2 PUSH2 0x1882 JUMPI JUMPDEST POP DUP2 PUSH1 0x1 SHL SWAP2 PUSH1 0x0 NOT SWAP1 PUSH1 0x3 SHL SHR NOT AND OR DUP4 SSTORE JUMPDEST PUSH1 0x1 DUP4 ADD DUP1 SLOAD PUSH1 0x1 PUSH1 0x1 PUSH1 0xA0 SHL SUB NOT AND CALLER OR SWAP1 SSTORE DUP1 MLOAD SWAP2 DUP3 GT PUSH2 0x186C JUMPI PUSH2 0x1601 PUSH1 0x2 DUP5 ADD SLOAD PUSH2 0x2C7A JUMP JUMPDEST PUSH1 0x1F DUP2 GT PUSH2 0x1823 JUMPI JUMPDEST POP PUSH1 0x20 SWAP1 PUSH1 0x1F DUP4 GT PUSH1 0x1 EQ PUSH2 0x176C JUMPI PUSH2 0x1748 SWAP4 DUP4 PUSH32 0xFF36FF50E65334F5EA64776F95EC82CE2FBD32A145DD5258689E2027C1C61B3A SWAP7 SWAP5 PUSH1 0x11 SWAP5 PUSH32 0xCCDEE9DB8C345DD53026F5DEDBF3E8B723CEDDD2AD8EEB96B00CE37FDDD58B64 SWAP5 PUSH1 0x0 SWAP3 PUSH2 0x1761 JUMPI JUMPDEST POP POP DUP2 PUSH1 0x1 SHL SWAP2 PUSH1 0x0 NOT SWAP1 PUSH1 0x3 SHL SHR NOT AND OR PUSH1 0x2 DUP3 ADD SSTORE JUMPDEST TIMESTAMP PUSH1 0x3 DUP3 ADD SSTORE PUSH1 0x84 CALLDATALOAD SWAP1 DUP2 ISZERO PUSH2 0x1759 JUMPI DUP2 JUMPDEST PUSH1 0x4 DUP3 ADD SSTORE PUSH2 0x16A9 PUSH1 0x64 CALLDATALOAD TIMESTAMP PUSH2 0x2DD5 JUMP JUMPDEST SWAP1 PUSH1 0x5 DUP2 ADD SWAP2 DUP3 SSTORE PUSH1 0x6 DUP2 ADD SWAP1 PUSH1 0xFF NOT SWAP2 DUP3 DUP2 SLOAD AND SWAP1 SSTORE PUSH1 0x44 CALLDATALOAD PUSH1 0x1 SHR SWAP6 DUP2 DUP8 PUSH1 0xE DUP2 SWAP5 ADD SSTORE DUP3 PUSH1 0xF DUP3 ADD SSTORE DUP3 PUSH1 0x10 DUP3 ADD SSTORE ADD SSTORE PUSH1 0x1 PUSH1 0x40 MLOAD PUSH1 0x20 DUP2 DUP2 PUSH2 0x16F6 DUP12 DUP4 DUP2 MLOAD SWAP4 DUP5 SWAP3 ADD PUSH2 0x2C48 JUMP JUMPDEST DUP2 ADD PUSH1 0x9 DUP2 MSTORE SUB ADD SWAP1 KECCAK256 SWAP2 DUP3 SLOAD AND OR SWAP1 SSTORE SLOAD SWAP1 PUSH1 0x40 MLOAD SWAP2 DUP3 SWAP2 PUSH1 0x80 DUP4 MSTORE PUSH2 0x1720 PUSH1 0x80 DUP5 ADD DUP9 PUSH2 0x2D5A JUMP JUMPDEST SWAP2 CALLER PUSH1 0x20 DUP6 ADD MSTORE PUSH1 0x40 DUP5 ADD MSTORE PUSH1 0x60 DUP4 ADD MSTORE SUB SWAP1 LOG1 PUSH1 0x40 MLOAD SWAP3 DUP4 SWAP3 PUSH1 0x60 DUP5 MSTORE PUSH1 0x60 DUP5 ADD SWAP1 PUSH2 0x2D5A JUMP JUMPDEST SWAP1 DUP1 PUSH1 0x20 DUP5 ADD MSTORE PUSH1 0x40 DUP4 ADD MSTORE SUB SWAP1 LOG1 STOP JUMPDEST PUSH1 0x64 CALLDATALOAD PUSH2 0x1698 JUMP JUMPDEST ADD MLOAD SWAP1 POP DUP9 DUP1 PUSH2 0x166E JUMP JUMPDEST SWAP1 PUSH1 0x2 DUP5 ADD PUSH1 0x0 MSTORE PUSH1 0x20 PUSH1 0x0 KECCAK256 SWAP2 PUSH1 0x0 PUSH1 0x1F NOT DUP6 AND SWAP1 JUMPDEST DUP2 DUP2 LT PUSH2 0x180B JUMPI POP DUP5 PUSH1 0x11 SWAP5 PUSH32 0xCCDEE9DB8C345DD53026F5DEDBF3E8B723CEDDD2AD8EEB96B00CE37FDDD58B64 SWAP5 PUSH2 0x1748 SWAP9 SWAP5 PUSH32 0xFF36FF50E65334F5EA64776F95EC82CE2FBD32A145DD5258689E2027C1C61B3A SWAP11 SWAP9 PUSH1 0x1 SWAP6 LT PUSH2 0x17F2 JUMPI JUMPDEST POP POP POP DUP2 SHL ADD PUSH1 0x2 DUP3 ADD SSTORE PUSH2 0x1686 JUMP JUMPDEST ADD MLOAD PUSH1 0x0 NOT PUSH1 0xF8 DUP5 PUSH1 0x3 SHL AND SHR NOT AND SWAP1 SSTORE DUP9 DUP1 DUP1 PUSH2 0x17E2 JUMP JUMPDEST SWAP3 SWAP4 PUSH1 0x20 PUSH1 0x1 DUP2 SWAP3 DUP8 DUP7 ADD MLOAD DUP2 SSTORE ADD SWAP6 ADD SWAP4 ADD PUSH2 0x1783 JUMP JUMPDEST PUSH1 0x2 DUP5 ADD PUSH1 0x0 MSTORE PUSH1 0x20 PUSH1 0x0 KECCAK256 PUSH1 0x1F DUP5 ADD PUSH1 0x5 SHR DUP2 ADD PUSH1 0x20 DUP6 LT PUSH2 0x1865 JUMPI JUMPDEST PUSH1 0x1F SWAP1 SWAP3 ADD PUSH1 0x5 SHR ADD SWAP1 JUMPDEST DUP2 DUP2 LT PUSH2 0x1859 JUMPI POP PUSH2 0x160A JUMP JUMPDEST PUSH1 0x0 DUP2 SSTORE PUSH1 0x1 ADD PUSH2 0x184C JUMP JUMPDEST POP DUP1 PUSH2 0x1841 JUMP JUMPDEST PUSH4 0x4E487B71 PUSH1 0xE0 SHL PUSH1 0x0 MSTORE PUSH1 0x41 PUSH1 0x4 MSTORE PUSH1 0x24 PUSH1 0x0 REVERT JUMPDEST SWAP1 POP DUP6 ADD MLOAD DUP7 PUSH2 0x15C3 JUMP JUMPDEST PUSH1 0x0 DUP7 DUP2 MSTORE PUSH1 0x20 DUP2 KECCAK256 SWAP3 POP PUSH1 0x1F NOT DUP5 AND SWAP1 JUMPDEST DUP2 DUP2 LT PUSH2 0x18D9 JUMPI POP SWAP1 DUP4 PUSH1 0x1 SWAP5 SWAP4 SWAP3 LT PUSH2 0x18C0 JUMPI JUMPDEST POP POP DUP2 SHL ADD DUP4 SSTORE PUSH2 0x15D7 JUMP JUMPDEST DUP8 ADD MLOAD PUSH1 0x0 NOT PUSH1 0xF8 DUP5 PUSH1 0x3 SHL AND SHR NOT AND SWAP1 SSTORE DUP7 DUP1 PUSH2 0x18B4 JUMP JUMPDEST SWAP2 SWAP3 PUSH1 0x20 PUSH1 0x1 DUP2 SWAP3 DUP7 DUP13 ADD MLOAD DUP2 SSTORE ADD SWAP5 ADD SWAP3 ADD PUSH2 0x189F JUMP JUMPDEST DUP5 PUSH1 0x0 MSTORE PUSH1 0x20 PUSH1 0x0 KECCAK256 PUSH1 0x1F DUP4 ADD PUSH1 0x5 SHR DUP2 ADD PUSH1 0x20 DUP5 LT PUSH2 0x1930 JUMPI JUMPDEST PUSH1 0x1F SWAP1 SWAP3 ADD PUSH1 0x5 SHR ADD SWAP1 JUMPDEST DUP2 DUP2 LT PUSH2 0x1924 JUMPI POP PUSH2 0x15AC JUMP JUMPDEST PUSH1 0x0 DUP2 SSTORE PUSH1 0x1 ADD PUSH2 0x1917 JUMP JUMPDEST POP DUP1 PUSH2 0x190C JUMP JUMPDEST PUSH2 0x1950 SWAP2 POP PUSH1 0x20 RETURNDATASIZE PUSH1 0x20 GT PUSH2 0x3B1 JUMPI PUSH2 0x3A2 DUP2 DUP4 PUSH2 0x2B7A JUMP JUMPDEST DUP6 PUSH2 0x10F5 JUMP JUMPDEST PUSH1 0x40 MLOAD PUSH3 0x461BCD PUSH1 0xE5 SHL DUP2 MSTORE PUSH1 0x20 PUSH1 0x4 DUP3 ADD MSTORE PUSH1 0xC PUSH1 0x24 DUP3 ADD MSTORE PUSH12 0x125B9D985B1A59081CD95959 PUSH1 0xA2 SHL PUSH1 0x44 DUP3 ADD MSTORE PUSH1 0x64 SWAP1 REVERT JUMPDEST POP PUSH1 0x1 PUSH1 0x44 CALLDATALOAD AND ISZERO PUSH2 0x1517 JUMP JUMPDEST PUSH1 0x40 MLOAD PUSH3 0x461BCD PUSH1 0xE5 SHL DUP2 MSTORE PUSH1 0x20 PUSH1 0x4 DUP3 ADD MSTORE PUSH1 0x6 PUSH1 0x24 DUP3 ADD MSTORE PUSH6 0x457869737473 PUSH1 0xD0 SHL PUSH1 0x44 DUP3 ADD MSTORE PUSH1 0x64 SWAP1 REVERT JUMPDEST CALLVALUE PUSH2 0x53C JUMPI PUSH1 0x20 PUSH2 0x19D8 PUSH2 0x11A9 CALLDATASIZE PUSH2 0x2C07 JUMP JUMPDEST PUSH1 0xB SWAP1 DUP3 ADD SWAP1 DUP2 MSTORE SUB ADD SWAP1 KECCAK256 PUSH1 0x1 PUSH1 0x1 PUSH1 0xA0 SHL SUB SWAP2 DUP3 AND PUSH1 0x0 SWAP1 DUP2 MSTORE PUSH1 0x20 SWAP2 DUP3 MSTORE PUSH1 0x40 SWAP1 DUP2 SWAP1 KECCAK256 DUP1 SLOAD PUSH1 0x1 DUP3 ADD SLOAD PUSH1 0x2 SWAP1 SWAP3 ADD SLOAD DUP4 MLOAD SWAP2 DUP3 MSTORE SWAP4 DUP2 ADD SWAP2 SWAP1 SWAP2 MSTORE SWAP3 DUP3 AND SWAP1 DUP4 ADD MSTORE PUSH1 0xA0 SHR PUSH1 0xFF AND ISZERO ISZERO PUSH1 0x60 DUP3 ADD MSTORE PUSH1 0x80 SWAP1 RETURN JUMPDEST CALLVALUE PUSH2 0x53C JUMPI PUSH1 0x20 CALLDATASIZE PUSH1 0x3 NOT ADD SLT PUSH2 0x53C JUMPI PUSH1 0x1 PUSH1 0x1 PUSH1 0xA0 SHL SUB PUSH2 0x1A52 PUSH2 0x2BF1 JUMP JUMPDEST AND PUSH1 0x0 MSTORE PUSH1 0x7 PUSH1 0x20 MSTORE PUSH1 0x20 PUSH1 0x40 PUSH1 0x0 KECCAK256 SLOAD PUSH1 0x40 MLOAD SWAP1 DUP2 MSTORE RETURN JUMPDEST CALLVALUE PUSH2 0x53C JUMPI PUSH1 0x80 CALLDATASIZE PUSH1 0x3 NOT ADD SLT PUSH2 0x53C JUMPI PUSH1 0x4 CALLDATALOAD PUSH1 0x1 PUSH1 0x1 PUSH1 0x40 SHL SUB DUP2 GT PUSH2 0x53C JUMPI PUSH2 0x1A9B SWAP1 CALLDATASIZE SWAP1 PUSH1 0x4 ADD PUSH2 0x2B9B JUMP JUMPDEST PUSH2 0x1AA3 PUSH2 0x2C6B JUMP JUMPDEST PUSH1 0x1 PUSH1 0x1 PUSH1 0xA0 SHL SUB SWAP2 PUSH1 0x44 CALLDATALOAD SWAP2 PUSH1 0x64 CALLDATALOAD DUP5 DUP2 AND SWAP2 SWAP1 DUP3 SWAP1 SUB PUSH2 0x53C JUMPI PUSH1 0x40 MLOAD SWAP2 DUP4 MLOAD PUSH2 0x1ADE PUSH1 0xFF PUSH1 0x20 SWAP6 DUP7 DUP2 DUP2 DUP11 ADD SWAP6 PUSH2 0x1CB DUP2 DUP4 DUP10 PUSH2 0x2C48 JUMP JUMPDEST PUSH1 0x40 MLOAD DUP5 DUP2 DUP8 MLOAD PUSH2 0x1AF0 DUP2 DUP4 DUP8 PUSH2 0x2C48 JUMP JUMPDEST DUP2 ADD PUSH1 0x8 DUP2 MSTORE SUB ADD SWAP1 KECCAK256 SWAP7 PUSH1 0xFF PUSH1 0x6 DUP10 ADD SLOAD AND PUSH1 0x5 DUP2 LT ISZERO PUSH2 0x526 JUMPI PUSH2 0x1F1B JUMPI PUSH1 0x5 DUP9 ADD SLOAD TIMESTAMP LT ISZERO PUSH2 0x1EEC JUMPI DUP7 ISZERO PUSH2 0x1EB9 JUMPI PUSH1 0x1 SLOAD PUSH1 0x40 MLOAD PUSH4 0x23B872DD PUSH1 0xE0 SHL DUP2 MSTORE CALLER PUSH1 0x4 DUP3 ADD MSTORE ADDRESS PUSH1 0x24 DUP3 ADD MSTORE PUSH1 0x44 DUP2 ADD DUP10 SWAP1 MSTORE SWAP2 SWAP1 DUP7 SWAP1 DUP4 SWAP1 PUSH1 0x64 SWAP1 DUP3 SWAP1 PUSH1 0x0 SWAP1 DUP7 AND GAS CALL SWAP2 DUP3 ISZERO PUSH2 0x3B8 JUMPI PUSH2 0x1C13 SWAP3 PUSH2 0x1B73 SWAP2 PUSH1 0x0 SWAP2 PUSH2 0x1E9C JUMPI POP PUSH2 0x2D97 JUMP JUMPDEST DUP9 PUSH2 0x2710 DUP1 PUSH2 0x1B84 PUSH1 0x2 SLOAD DUP13 PUSH2 0x2E3A JUMP JUMPDEST DIV SWAP3 DUP2 PUSH2 0x1B93 PUSH1 0x3 SLOAD DUP14 PUSH2 0x2E3A JUMP JUMPDEST DIV SWAP2 DUP12 PUSH1 0x0 DUP10 ISZERO ISZERO DUP1 PUSH2 0x1E92 JUMPI JUMPDEST ISZERO PUSH2 0x1E68 JUMPI POP SWAP2 PUSH1 0x1 PUSH2 0x1C0E SWAP6 SWAP7 SWAP3 PUSH2 0x1BC0 PUSH2 0x1C0E SWAP6 PUSH1 0x4 SLOAD SWAP1 PUSH2 0x2E3A JUMP JUMPDEST DIV SWAP7 DUP11 PUSH1 0x0 MSTORE PUSH1 0x7 DUP14 MSTORE PUSH1 0x40 PUSH1 0x0 KECCAK256 PUSH2 0x1BDA DUP10 DUP3 SLOAD PUSH2 0x2DD5 JUMP JUMPDEST SWAP1 SSTORE JUMPDEST PUSH2 0x1BE9 DUP5 PUSH1 0x5 SLOAD PUSH2 0x2DD5 JUMP JUMPDEST PUSH1 0x5 SSTORE ADD SLOAD AND PUSH1 0x0 MSTORE PUSH1 0x6 DUP11 MSTORE PUSH1 0x40 PUSH1 0x0 KECCAK256 PUSH2 0x1C06 DUP5 DUP3 SLOAD PUSH2 0x2DD5 JUMP JUMPDEST SWAP1 SSTORE DUP12 PUSH2 0x2E4D JUMP JUMPDEST PUSH2 0x2E4D JUMP JUMPDEST SWAP6 PUSH2 0x1C27 PUSH1 0x3 DUP10 ADD SLOAD PUSH1 0x4 DUP11 ADD SLOAD SWAP1 PUSH2 0x2EBC JUMP JUMPDEST SWAP4 PUSH2 0x1C32 DUP6 DUP10 PUSH2 0x2E3A JUMP JUMPDEST PUSH8 0xDE0B6B3A7640000 SWAP1 DUP2 DUP2 MUL SWAP2 DUP2 DUP4 DIV EQ SWAP1 ISZERO OR ISZERO PUSH2 0x1E52 JUMPI PUSH32 0xA994696D1A657073CEAA15FBACD649938053CE8BEE7DE30EC1C28D337CC37B23 SWAP10 PUSH2 0x1D56 SWAP10 PUSH1 0x64 DUP10 SWAP4 DIV SWAP6 DUP5 PUSH1 0x0 EQ PUSH2 0x1D8E JUMPI DUP4 PUSH2 0x1CFD SWAP2 DUP13 PUSH1 0x12 SWAP7 PUSH1 0x40 MLOAD DUP1 SWAP3 MLOAD PUSH2 0x1C9A DUP2 DUP4 DUP8 PUSH2 0x2C48 JUMP JUMPDEST DUP2 ADD PUSH1 0xA DUP2 MSTORE SUB ADD SWAP1 KECCAK256 CALLER PUSH1 0x0 MSTORE DUP3 MSTORE PUSH1 0x40 PUSH1 0x0 KECCAK256 SLOAD ISZERO PUSH2 0x1D7C JUMPI JUMPDEST DUP13 DUP3 PUSH1 0x40 MLOAD DUP1 SWAP3 MLOAD PUSH2 0x1CC9 DUP2 DUP4 DUP8 PUSH2 0x2C48 JUMP JUMPDEST DUP2 ADD PUSH1 0xA DUP2 MSTORE SUB ADD SWAP1 KECCAK256 CALLER PUSH1 0x0 MSTORE DUP3 MSTORE PUSH1 0x40 PUSH1 0x0 KECCAK256 PUSH2 0x1CE9 DUP6 DUP3 SLOAD PUSH2 0x2DD5 JUMP JUMPDEST SWAP1 SSTORE DUP13 PUSH1 0x40 MLOAD SWAP4 DUP5 SWAP3 DUP4 SWAP3 MLOAD SWAP3 DUP4 SWAP2 PUSH2 0x2C48 JUMP JUMPDEST DUP2 ADD PUSH1 0xA DUP2 MSTORE SUB ADD SWAP1 KECCAK256 CALLER PUSH1 0x0 MSTORE DUP10 MSTORE PUSH1 0x1 PUSH1 0x40 PUSH1 0x0 KECCAK256 ADD PUSH2 0x1D20 DUP8 DUP3 SLOAD PUSH2 0x2DD5 JUMP JUMPDEST SWAP1 SSTORE PUSH2 0x1D31 PUSH1 0xE DUP4 ADD SWAP2 DUP3 SLOAD PUSH2 0x2DD5 JUMP JUMPDEST SWAP1 SSTORE ADD PUSH2 0x1D3F DUP5 DUP3 SLOAD PUSH2 0x2DD5 JUMP JUMPDEST SWAP1 SSTORE JUMPDEST PUSH1 0x40 MLOAD SWAP8 DUP9 SWAP8 PUSH1 0xE0 DUP10 MSTORE PUSH1 0xE0 DUP10 ADD SWAP1 PUSH2 0x2D5A JUMP JUMPDEST SWAP6 CALLER SWAP1 DUP9 ADD MSTORE ISZERO ISZERO PUSH1 0x40 DUP8 ADD MSTORE PUSH1 0x60 DUP7 ADD MSTORE PUSH1 0x80 DUP6 ADD MSTORE PUSH1 0xA0 DUP5 ADD MSTORE PUSH1 0xC0 DUP4 ADD MSTORE SUB SWAP1 LOG1 STOP JUMPDEST PUSH2 0x1D89 CALLER PUSH1 0x14 DUP8 ADD PUSH2 0x2E5A JUMP JUMPDEST PUSH2 0x1CB6 JUMP JUMPDEST DUP4 PUSH2 0x1DF7 SWAP2 DUP13 PUSH1 0x13 SWAP7 PUSH1 0x40 MLOAD DUP1 SWAP3 MLOAD PUSH2 0x1DA8 DUP2 DUP4 DUP8 PUSH2 0x2C48 JUMP JUMPDEST DUP2 ADD PUSH1 0xB DUP2 MSTORE SUB ADD SWAP1 KECCAK256 CALLER PUSH1 0x0 MSTORE DUP3 MSTORE PUSH1 0x40 PUSH1 0x0 KECCAK256 SLOAD ISZERO PUSH2 0x1E40 JUMPI JUMPDEST DUP13 DUP3 PUSH1 0x40 MLOAD DUP1 SWAP3 MLOAD PUSH2 0x1DD7 DUP2 DUP4 DUP8 PUSH2 0x2C48 JUMP JUMPDEST DUP2 ADD PUSH1 0xB DUP2 MSTORE SUB ADD SWAP1 KECCAK256 CALLER PUSH1 0x0 MSTORE DUP3 MSTORE PUSH1 0x40 PUSH1 0x0 KECCAK256 PUSH2 0x1CE9 DUP6 DUP3 SLOAD PUSH2 0x2DD5 JUMP JUMPDEST DUP2 ADD PUSH1 0xB DUP2 MSTORE SUB ADD SWAP1 KECCAK256 CALLER PUSH1 0x0 MSTORE DUP10 MSTORE PUSH1 0x1 PUSH1 0x40 PUSH1 0x0 KECCAK256 ADD PUSH2 0x1E1A DUP8 DUP3 SLOAD PUSH2 0x2DD5 JUMP JUMPDEST SWAP1 SSTORE PUSH2 0x1E2B PUSH1 0xF DUP4 ADD SWAP2 DUP3 SLOAD PUSH2 0x2DD5 JUMP JUMPDEST SWAP1 SSTORE ADD PUSH2 0x1E39 DUP5 DUP3 SLOAD PUSH2 0x2DD5 JUMP JUMPDEST SWAP1 SSTORE PUSH2 0x1D42 JUMP JUMPDEST PUSH2 0x1E4D CALLER PUSH1 0x15 DUP8 ADD PUSH2 0x2E5A JUMP JUMPDEST PUSH2 0x1DC4 JUMP JUMPDEST PUSH4 0x4E487B71 PUSH1 0xE0 SHL PUSH1 0x0 MSTORE PUSH1 0x11 PUSH1 0x4 MSTORE PUSH1 0x24 PUSH1 0x0 REVERT JUMPDEST SWAP6 PUSH2 0x1E8C PUSH1 0x1 SWAP2 PUSH2 0x1C0E SWAP8 SWAP5 PUSH2 0x1E85 PUSH2 0x1C0E SWAP8 SWAP6 PUSH1 0x4 SLOAD SWAP1 PUSH2 0x2E3A JUMP JUMPDEST DIV SWAP1 PUSH2 0x2DD5 JUMP JUMPDEST SWAP3 PUSH2 0x1BDD JUMP JUMPDEST POP CALLER DUP11 EQ ISZERO PUSH2 0x1BA1 JUMP JUMPDEST PUSH2 0x1EB3 SWAP2 POP DUP9 RETURNDATASIZE DUP11 GT PUSH2 0x3B1 JUMPI PUSH2 0x3A2 DUP2 DUP4 PUSH2 0x2B7A JUMP JUMPDEST DUP12 PUSH2 0x10F5 JUMP JUMPDEST PUSH1 0x40 MLOAD PUSH3 0x461BCD PUSH1 0xE5 SHL DUP2 MSTORE PUSH1 0x4 DUP2 ADD DUP7 SWAP1 MSTORE PUSH1 0xB PUSH1 0x24 DUP3 ADD MSTORE PUSH11 0x16995C9BC8185B5BDD5B9D PUSH1 0xAA SHL PUSH1 0x44 DUP3 ADD MSTORE PUSH1 0x64 SWAP1 REVERT JUMPDEST PUSH1 0x40 MLOAD PUSH3 0x461BCD PUSH1 0xE5 SHL DUP2 MSTORE PUSH1 0x4 DUP2 ADD DUP7 SWAP1 MSTORE PUSH1 0x7 PUSH1 0x24 DUP3 ADD MSTORE PUSH7 0x115E1C1A5C9959 PUSH1 0xCA SHL PUSH1 0x44 DUP3 ADD MSTORE PUSH1 0x64 SWAP1 REVERT JUMPDEST PUSH1 0x40 MLOAD PUSH3 0x461BCD PUSH1 0xE5 SHL DUP2 MSTORE PUSH1 0x4 DUP2 ADD DUP7 SWAP1 MSTORE PUSH1 0x8 PUSH1 0x24 DUP3 ADD MSTORE PUSH8 0x2737BA1037B832B7 PUSH1 0xC1 SHL PUSH1 0x44 DUP3 ADD MSTORE PUSH1 0x64 SWAP1 REVERT JUMPDEST CALLVALUE PUSH2 0x53C JUMPI PUSH1 0x60 CALLDATASIZE PUSH1 0x3 NOT ADD SLT PUSH2 0x53C JUMPI PUSH1 0x1 PUSH1 0x1 PUSH1 0x40 SHL SUB PUSH1 0x4 CALLDATALOAD DUP2 DUP2 GT PUSH2 0x53C JUMPI PUSH2 0x1F7C SWAP1 CALLDATASIZE SWAP1 PUSH1 0x4 ADD PUSH2 0x2B9B JUMP JUMPDEST SWAP1 PUSH2 0x1F85 PUSH2 0x2C6B JUMP JUMPDEST SWAP2 PUSH1 0x44 CALLDATALOAD DUP3 DUP2 GT PUSH2 0x53C JUMPI PUSH2 0x1F9E SWAP1 CALLDATASIZE SWAP1 PUSH1 0x4 ADD PUSH2 0x2B9B JUMP JUMPDEST SWAP3 PUSH1 0xFF PUSH2 0x1FD3 PUSH1 0x40 MLOAD DUP5 MLOAD PUSH2 0x1FC2 PUSH1 0x20 SWAP5 DUP4 DUP7 DUP1 SWAP6 DUP2 DUP12 ADD SWAP6 PUSH2 0x1CB DUP2 DUP4 DUP10 PUSH2 0x2C48 JUMP JUMPDEST PUSH1 0x40 MLOAD DUP1 SWAP4 DUP2 SWAP3 DUP9 MLOAD SWAP3 DUP4 SWAP2 PUSH2 0x2C48 JUMP JUMPDEST DUP2 ADD PUSH1 0x8 DUP2 MSTORE SUB ADD SWAP1 KECCAK256 SWAP4 PUSH1 0x6 DUP6 ADD SWAP1 PUSH1 0xFF DUP3 SLOAD AND PUSH1 0x5 DUP2 LT ISZERO PUSH2 0x526 JUMPI DUP1 ISZERO SWAP1 DUP2 ISZERO PUSH2 0x228B JUMPI JUMPDEST POP ISZERO PUSH2 0x2259 JUMPI PUSH2 0x200A DUP6 PUSH2 0x2F19 JUMP JUMPDEST PUSH1 0x1 DUP1 SLOAD PUSH1 0x40 MLOAD PUSH4 0x23B872DD PUSH1 0xE0 SHL DUP2 MSTORE CALLER PUSH1 0x4 DUP3 ADD MSTORE ADDRESS PUSH1 0x24 DUP3 ADD MSTORE PUSH1 0x44 DUP2 ADD DUP5 SWAP1 MSTORE SWAP3 SWAP9 SWAP2 SWAP3 SWAP2 SWAP1 DUP7 SWAP1 DUP4 SWAP1 PUSH1 0x64 SWAP1 DUP3 SWAP1 PUSH1 0x0 SWAP1 PUSH1 0x1 PUSH1 0x1 PUSH1 0xA0 SHL SUB AND GAS CALL SWAP2 DUP3 ISZERO PUSH2 0x3B8 JUMPI PUSH1 0x9 SWAP3 PUSH2 0x2067 SWAP2 PUSH1 0x0 SWAP2 PUSH2 0x223C JUMPI JUMPDEST POP PUSH2 0x2F66 JUMP JUMPDEST DUP5 SLOAD PUSH4 0x1000000 PUSH1 0x1 PUSH1 0xC0 SHL SUB NOT AND CALLER PUSH1 0x18 SHL PUSH4 0x1000000 PUSH1 0x1 PUSH1 0xB8 SHL SUB AND OR SWAP7 ISZERO ISZERO PUSH1 0xB8 DUP2 SWAP1 SHL PUSH1 0xFF PUSH1 0xB8 SHL AND SWAP8 SWAP1 SWAP8 OR DUP6 SSTORE TIMESTAMP PUSH1 0x7 DUP3 ADD SSTORE PUSH1 0x8 DUP2 ADD DUP10 SWAP1 SSTORE DUP10 MLOAD SWAP2 ADD SWAP3 DUP2 GT PUSH2 0x186C JUMPI PUSH2 0x20BD DUP4 SLOAD PUSH2 0x2C7A JUMP JUMPDEST PUSH1 0x1F DUP2 GT PUSH2 0x21F3 JUMPI JUMPDEST POP DUP5 PUSH1 0x1F DUP3 GT PUSH1 0x1 EQ PUSH2 0x218D JUMPI DUP2 SWAP3 DUP3 SWAP2 PUSH1 0x0 SWAP4 PUSH2 0x2182 JUMPI JUMPDEST POP SHL SWAP2 PUSH1 0x0 NOT SWAP1 PUSH1 0x3 SHL SHR NOT AND OR SWAP1 SSTORE JUMPDEST PUSH1 0x2 PUSH1 0xFF NOT DUP3 SLOAD AND OR SWAP1 SSTORE CALLER PUSH1 0x0 MSTORE PUSH1 0xD DUP2 MSTORE PUSH1 0x40 PUSH1 0x0 KECCAK256 PUSH2 0x2113 DUP6 DUP3 SLOAD PUSH2 0x2DD5 JUMP JUMPDEST SWAP1 SSTORE PUSH2 0xA8C0 TIMESTAMP ADD SWAP5 DUP6 TIMESTAMP GT PUSH2 0x1E52 JUMPI PUSH32 0x5247F2366F7E70FC0B5FC61F486408D977047C08D356FFB76C3D35832CEEAF26 SWAP6 PUSH2 0x2160 SWAP6 PUSH2 0x386 SWAP5 PUSH1 0x40 MLOAD SWAP8 DUP9 SWAP8 PUSH1 0xC0 DUP10 MSTORE PUSH1 0xC0 DUP10 ADD SWAP1 PUSH2 0x2D5A JUMP JUMPDEST SWAP5 CALLER SWAP1 DUP9 ADD MSTORE PUSH1 0x40 DUP8 ADD MSTORE PUSH1 0x60 DUP7 ADD MSTORE PUSH1 0x80 DUP6 ADD MSTORE DUP4 DUP3 SUB PUSH1 0xA0 DUP6 ADD MSTORE PUSH2 0x2D5A JUMP JUMPDEST DUP12 ADD MLOAD SWAP3 POP DUP12 PUSH2 0x20DF JUMP JUMPDEST PUSH1 0x1F NOT DUP3 AND SWAP1 DUP5 PUSH1 0x0 MSTORE DUP3 DUP8 PUSH1 0x0 KECCAK256 SWAP3 DUP13 DUP10 DUP8 PUSH1 0x0 SWAP3 JUMPDEST DUP5 DUP5 LT PUSH2 0x21DA JUMPI POP POP POP POP LT PUSH2 0x21C1 JUMPI JUMPDEST POP POP DUP2 SHL ADD SWAP1 SSTORE PUSH2 0x20F0 JUMP JUMPDEST DUP11 ADD MLOAD PUSH1 0x0 NOT PUSH1 0xF8 DUP5 PUSH1 0x3 SHL AND SHR NOT AND SWAP1 SSTORE DUP10 DUP1 PUSH2 0x21B5 JUMP JUMPDEST DUP7 ADD MLOAD DUP8 SSTORE SWAP1 SWAP6 ADD SWAP5 SWAP4 DUP5 ADD SWAP4 DUP7 SWAP4 POP ADD DUP10 DUP8 DUP16 PUSH2 0x21A4 JUMP JUMPDEST DUP4 PUSH1 0x0 MSTORE DUP6 PUSH1 0x0 KECCAK256 PUSH1 0x1F DUP4 ADD PUSH1 0x5 SHR DUP2 ADD SWAP2 DUP8 DUP5 LT PUSH2 0x2232 JUMPI JUMPDEST PUSH1 0x1F ADD PUSH1 0x5 SHR ADD SWAP1 DUP4 SWAP1 JUMPDEST DUP3 DUP2 LT PUSH2 0x2226 JUMPI POP POP PUSH2 0x20C6 JUMP JUMPDEST PUSH1 0x0 DUP2 SSTORE ADD DUP4 SWAP1 PUSH2 0x2218 JUMP JUMPDEST SWAP1 SWAP2 POP DUP2 SWAP1 PUSH2 0x220D JUMP JUMPDEST PUSH2 0x2253 SWAP2 POP DUP9 RETURNDATASIZE DUP11 GT PUSH2 0x3B1 JUMPI PUSH2 0x3A2 DUP2 DUP4 PUSH2 0x2B7A JUMP JUMPDEST DUP13 PUSH2 0x2061 JUMP JUMPDEST PUSH1 0x40 MLOAD PUSH3 0x461BCD PUSH1 0xE5 SHL DUP2 MSTORE PUSH1 0x4 DUP2 ADD DUP5 SWAP1 MSTORE PUSH1 0xA PUSH1 0x24 DUP3 ADD MSTORE PUSH10 0x4E6F7420616374697665 PUSH1 0xB0 SHL PUSH1 0x44 DUP3 ADD MSTORE PUSH1 0x64 SWAP1 REVERT JUMPDEST PUSH1 0x1 SWAP2 POP EQ DUP9 PUSH2 0x1FFB JUMP JUMPDEST CALLVALUE PUSH2 0x53C JUMPI PUSH1 0x0 CALLDATASIZE PUSH1 0x3 NOT ADD SLT PUSH2 0x53C JUMPI PUSH1 0x20 PUSH1 0x5 SLOAD PUSH1 0x40 MLOAD SWAP1 DUP2 MSTORE RETURN JUMPDEST CALLVALUE PUSH2 0x53C JUMPI PUSH1 0x0 CALLDATASIZE PUSH1 0x3 NOT ADD SLT PUSH2 0x53C JUMPI PUSH1 0x20 PUSH1 0x40 MLOAD PUSH8 0xDE0B6B3A7640000 DUP2 MSTORE RETURN JUMPDEST CALLVALUE PUSH2 0x53C JUMPI PUSH1 0x20 CALLDATASIZE PUSH1 0x3 NOT ADD SLT PUSH2 0x53C JUMPI PUSH1 0x4 CALLDATALOAD PUSH1 0x1 PUSH1 0x1 PUSH1 0x40 SHL SUB DUP2 GT PUSH2 0x53C JUMPI PUSH1 0xFF PUSH2 0x2322 PUSH1 0x20 PUSH2 0x230F DUP2 SWAP5 CALLDATASIZE SWAP1 PUSH1 0x4 ADD PUSH2 0x2B9B JUMP JUMPDEST DUP2 PUSH1 0x40 MLOAD SWAP4 DUP3 DUP6 DUP1 SWAP5 MLOAD SWAP4 DUP5 SWAP3 ADD PUSH2 0x2C48 JUMP JUMPDEST DUP2 ADD PUSH1 0x9 DUP2 MSTORE SUB ADD SWAP1 KECCAK256 SLOAD AND PUSH1 0x40 MLOAD SWAP1 ISZERO ISZERO DUP2 MSTORE RETURN JUMPDEST CALLVALUE PUSH2 0x53C JUMPI PUSH1 0x20 PUSH2 0x234B PUSH2 0x11A9 CALLDATASIZE PUSH2 0x2C07 JUMP JUMPDEST DUP2 ADD PUSH1 0xC DUP2 MSTORE SUB ADD SWAP1 KECCAK256 SWAP1 PUSH1 0x1 DUP1 PUSH1 0xA0 SHL SUB AND PUSH1 0x0 MSTORE PUSH1 0x20 MSTORE PUSH1 0x20 PUSH1 0xFF PUSH1 0x40 PUSH1 0x0 KECCAK256 SLOAD AND PUSH1 0x40 MLOAD SWAP1 ISZERO ISZERO DUP2 MSTORE RETURN JUMPDEST CALLVALUE PUSH2 0x53C JUMPI PUSH1 0x40 CALLDATASIZE PUSH1 0x3 NOT ADD SLT PUSH2 0x53C JUMPI PUSH1 0x1 PUSH1 0x1 PUSH1 0x40 SHL SUB PUSH1 0x4 CALLDATALOAD DUP2 DUP2 GT PUSH2 0x53C JUMPI PUSH2 0x23AA SWAP1 CALLDATASIZE SWAP1 PUSH1 0x4 ADD PUSH2 0x2B9B JUMP JUMPDEST PUSH1 0x24 DUP1 CALLDATALOAD SWAP3 DUP1 DUP5 GT PUSH2 0x53C JUMPI PUSH2 0x23C6 PUSH1 0xFF SWAP5 CALLDATASIZE SWAP1 PUSH1 0x4 ADD PUSH2 0x2B9B JUMP JUMPDEST SWAP2 PUSH2 0x23F9 PUSH1 0x40 MLOAD DUP6 MLOAD PUSH2 0x23E8 PUSH1 0x20 SWAP9 DUP4 DUP11 DUP1 SWAP6 DUP2 DUP13 ADD SWAP6 PUSH2 0x1CB DUP2 DUP4 DUP10 PUSH2 0x2C48 JUMP JUMPDEST PUSH1 0x40 MLOAD DUP1 SWAP4 DUP2 SWAP3 DUP10 MLOAD SWAP3 DUP4 SWAP2 PUSH2 0x2C48 JUMP JUMPDEST DUP2 ADD PUSH1 0x8 DUP2 MSTORE SUB ADD SWAP1 KECCAK256 PUSH1 0x6 DUP2 ADD SWAP2 DUP3 SLOAD SWAP4 PUSH1 0xFF DUP6 AND PUSH1 0x5 DUP2 LT ISZERO PUSH2 0x2739 JUMPI PUSH1 0x2 PUSH2 0x2424 SWAP2 EQ PUSH2 0x2FA9 JUMP JUMPDEST PUSH1 0x7 DUP4 ADD SLOAD PUSH2 0xA8C0 DUP2 ADD DUP1 SWAP2 GT PUSH2 0x2724 JUMPI TIMESTAMP GT PUSH2 0x26E8 JUMPI PUSH1 0x1 PUSH1 0x1 PUSH1 0xA0 SHL SUB SWAP5 PUSH1 0x18 SHR DUP6 AND CALLER EQ PUSH2 0x26AC JUMPI PUSH1 0x8 DUP4 ADD SLOAD PUSH1 0x1 DUP1 SLOAD PUSH1 0x40 MLOAD PUSH4 0x23B872DD PUSH1 0xE0 SHL DUP2 MSTORE CALLER PUSH1 0x4 DUP3 ADD MSTORE ADDRESS PUSH1 0x24 DUP3 ADD MSTORE PUSH1 0x44 DUP2 ADD DUP5 SWAP1 MSTORE SWAP3 SWAP8 SWAP2 SWAP3 SWAP2 DUP12 SWAP2 DUP4 SWAP2 PUSH1 0x64 SWAP2 DUP4 SWAP2 PUSH1 0x0 SWAP2 AND GAS CALL DUP1 ISZERO PUSH2 0x3B8 JUMPI PUSH2 0x24A3 SWAP2 PUSH1 0x0 SWAP2 PUSH2 0x268F JUMPI POP PUSH2 0x2F66 JUMP JUMPDEST PUSH1 0xA DUP5 ADD CALLER PUSH12 0xFFFFFFFFFFFFFFFFFFFFFFFF PUSH1 0xA0 SHL DUP3 SLOAD AND OR SWAP1 SSTORE DUP6 PUSH1 0xB DUP6 ADD SSTORE PUSH1 0xC DUP5 ADD SWAP3 DUP8 MLOAD SWAP3 DUP4 GT PUSH2 0x267B JUMPI POP PUSH2 0x24DD DUP4 SLOAD PUSH2 0x2C7A JUMP JUMPDEST PUSH1 0x1F DUP2 GT PUSH2 0x2632 JUMPI JUMPDEST POP DUP9 PUSH1 0x1F DUP4 GT PUSH1 0x1 EQ PUSH2 0x25A1 JUMPI SWAP3 DUP3 DUP1 PUSH32 0x4BD7C92EBA598EE7AB038AC4A59AB8FEB6D65703229128829D6CDD17959B121F SWAP12 SWAP8 SWAP5 PUSH2 0x257E SWAP12 SWAP11 SWAP8 SWAP5 PUSH2 0x386 SWAP11 SWAP8 PUSH1 0x0 SWAP4 PUSH2 0x2596 JUMPI JUMPDEST POP SHL SWAP2 PUSH1 0x0 NOT SWAP1 PUSH1 0x3 SHL SHR NOT AND OR SWAP1 SSTORE JUMPDEST PUSH1 0xD TIMESTAMP SWAP2 ADD SSTORE CALLER PUSH1 0x0 MSTORE PUSH1 0xD DUP5 MSTORE PUSH1 0x40 PUSH1 0x0 KECCAK256 PUSH2 0x255D DUP4 DUP3 SLOAD PUSH2 0x2DD5 JUMP JUMPDEST SWAP1 SSTORE PUSH1 0x3 PUSH1 0xFF NOT DUP3 SLOAD AND OR SWAP1 SSTORE PUSH1 0x40 MLOAD SWAP6 DUP7 SWAP6 PUSH1 0x80 DUP8 MSTORE PUSH1 0x80 DUP8 ADD SWAP1 PUSH2 0x2D5A JUMP JUMPDEST SWAP3 CALLER SWAP1 DUP7 ADD MSTORE PUSH1 0x40 DUP6 ADD MSTORE DUP4 DUP3 SUB PUSH1 0x60 DUP6 ADD MSTORE PUSH2 0x2D5A JUMP JUMPDEST DUP10 ADD MLOAD SWAP3 POP DUP15 PUSH2 0x252E JUMP JUMPDEST PUSH1 0x1F SWAP3 SWAP2 SWAP3 NOT DUP3 AND SWAP1 DUP5 PUSH1 0x0 MSTORE DUP11 PUSH1 0x0 KECCAK256 SWAP2 PUSH1 0x0 JUMPDEST DUP2 DUP2 LT PUSH2 0x261D JUMPI POP SWAP3 PUSH2 0x386 SWAP9 SWAP6 SWAP3 PUSH32 0x4BD7C92EBA598EE7AB038AC4A59AB8FEB6D65703229128829D6CDD17959B121F SWAP13 SWAP9 SWAP6 SWAP3 DUP3 PUSH2 0x257E SWAP14 SWAP13 SWAP10 SWAP7 LT PUSH2 0x2604 JUMPI JUMPDEST POP POP DUP2 SHL ADD SWAP1 SSTORE PUSH2 0x253F JUMP JUMPDEST DUP9 ADD MLOAD PUSH1 0x0 NOT PUSH1 0xF8 DUP5 PUSH1 0x3 SHL AND SHR NOT AND SWAP1 SSTORE DUP13 DUP1 PUSH2 0x25F8 JUMP JUMPDEST DUP11 DUP4 ADD MLOAD DUP5 SSTORE SWAP3 DUP6 ADD SWAP3 SWAP2 DUP13 ADD SWAP2 DUP13 ADD PUSH2 0x25B6 JUMP JUMPDEST DUP4 PUSH1 0x0 MSTORE DUP10 PUSH1 0x0 KECCAK256 PUSH1 0x1F DUP5 ADD PUSH1 0x5 SHR DUP2 ADD SWAP2 DUP12 DUP6 LT PUSH2 0x2671 JUMPI JUMPDEST PUSH1 0x1F ADD PUSH1 0x5 SHR ADD SWAP1 DUP3 SWAP1 JUMPDEST DUP3 DUP2 LT PUSH2 0x2665 JUMPI POP POP PUSH2 0x24E6 JUMP JUMPDEST PUSH1 0x0 DUP2 SSTORE ADD DUP3 SWAP1 PUSH2 0x2657 JUMP JUMPDEST SWAP1 SWAP2 POP DUP2 SWAP1 PUSH2 0x264C JUMP JUMPDEST PUSH4 0x4E487B71 PUSH1 0xE0 SHL PUSH1 0x0 SWAP1 DUP2 MSTORE PUSH1 0x41 PUSH1 0x4 MSTORE REVERT JUMPDEST PUSH2 0x26A6 SWAP2 POP DUP12 RETURNDATASIZE DUP14 GT PUSH2 0x3B1 JUMPI PUSH2 0x3A2 DUP2 DUP4 PUSH2 0x2B7A JUMP JUMPDEST DUP12 PUSH2 0x2061 JUMP JUMPDEST PUSH1 0x40 MLOAD PUSH3 0x461BCD PUSH1 0xE5 SHL DUP2 MSTORE PUSH1 0x4 DUP2 ADD DUP10 SWAP1 MSTORE PUSH1 0x15 DUP2 DUP5 ADD MSTORE PUSH21 0x21B0B73737BA1031B430B63632B733B29039B2B633 PUSH1 0x59 SHL PUSH1 0x44 DUP3 ADD MSTORE PUSH1 0x64 SWAP1 REVERT JUMPDEST PUSH1 0x40 MLOAD PUSH3 0x461BCD PUSH1 0xE5 SHL DUP2 MSTORE PUSH1 0x4 DUP2 ADD DUP10 SWAP1 MSTORE PUSH1 0x15 DUP2 DUP5 ADD MSTORE PUSH21 0x111A5CDC1D5D19481DDA5B991BDDC818DB1BDCD959 PUSH1 0x5A SHL PUSH1 0x44 DUP3 ADD MSTORE PUSH1 0x64 SWAP1 REVERT JUMPDEST DUP3 PUSH4 0x4E487B71 PUSH1 0xE0 SHL PUSH1 0x0 MSTORE PUSH1 0x11 PUSH1 0x4 MSTORE PUSH1 0x0 REVERT JUMPDEST DUP3 PUSH4 0x4E487B71 PUSH1 0xE0 SHL PUSH1 0x0 MSTORE PUSH1 0x21 PUSH1 0x4 MSTORE PUSH1 0x0 REVERT JUMPDEST CALLVALUE PUSH2 0x53C JUMPI PUSH1 0x20 CALLDATASIZE PUSH1 0x3 NOT ADD SLT PUSH2 0x53C JUMPI PUSH1 0x1 PUSH1 0x1 PUSH1 0xA0 SHL SUB PUSH2 0x276F PUSH2 0x2BF1 JUMP JUMPDEST AND PUSH1 0x0 MSTORE PUSH1 0xD PUSH1 0x20 MSTORE PUSH1 0x20 PUSH1 0x40 PUSH1 0x0 KECCAK256 SLOAD PUSH1 0x40 MLOAD SWAP1 DUP2 MSTORE RETURN JUMPDEST CALLVALUE PUSH2 0x53C JUMPI PUSH1 0x0 CALLDATASIZE PUSH1 0x3 NOT ADD SLT PUSH2 0x53C JUMPI PUSH1 0x20 PUSH1 0x40 MLOAD PUSH1 0x64 DUP2 MSTORE RETURN JUMPDEST CALLVALUE PUSH2 0x53C JUMPI PUSH1 0x20 DUP1 PUSH1 0x3 NOT CALLDATASIZE ADD SLT PUSH2 0x53C JUMPI PUSH1 0x4 CALLDATALOAD PUSH1 0x1 PUSH1 0x1 PUSH1 0x40 SHL SUB DUP2 GT PUSH2 0x53C JUMPI PUSH2 0x27D5 SWAP1 CALLDATASIZE SWAP1 PUSH1 0x4 ADD PUSH2 0x2B9B JUMP JUMPDEST PUSH2 0x2806 DUP3 PUSH1 0x40 MLOAD PUSH2 0x27F5 PUSH1 0xFF DUP6 MLOAD SWAP3 DUP5 DUP2 DUP2 DUP10 ADD SWAP6 PUSH2 0x1CB DUP2 DUP4 DUP10 PUSH2 0x2C48 JUMP JUMPDEST PUSH1 0x40 MLOAD DUP1 SWAP4 DUP2 SWAP3 DUP7 MLOAD SWAP3 DUP4 SWAP2 PUSH2 0x2C48 JUMP JUMPDEST DUP2 ADD PUSH1 0x8 DUP2 MSTORE SUB ADD SWAP1 KECCAK256 SWAP1 PUSH1 0x6 DUP3 ADD SWAP3 DUP4 SLOAD SWAP4 PUSH1 0xFF DUP6 AND PUSH1 0x5 DUP2 LT ISZERO PUSH2 0x526 JUMPI PUSH1 0x2 PUSH2 0x2832 SWAP2 EQ PUSH2 0x2FA9 JUMP JUMPDEST PUSH1 0x7 DUP5 ADD SLOAD PUSH2 0xA8C0 DUP2 ADD DUP1 SWAP2 GT PUSH2 0x1E52 JUMPI TIMESTAMP GT ISZERO PUSH2 0x2ABC JUMPI PUSH1 0x1 DUP1 PUSH1 0xA0 SHL SUB DUP1 SWAP6 PUSH1 0x18 SHR AND SWAP5 DUP3 PUSH1 0x0 DUP8 SWAP5 PUSH2 0x28BA PUSH1 0x8 DUP10 ADD SLOAD DUP8 DUP5 MSTORE PUSH1 0xD DUP4 MSTORE PUSH1 0x40 DUP5 KECCAK256 PUSH2 0x287B DUP3 DUP3 SLOAD PUSH2 0x2E4D JUMP JUMPDEST SWAP1 SSTORE PUSH1 0x1 SLOAD PUSH1 0x40 MLOAD PUSH4 0xA9059CBB PUSH1 0xE0 SHL DUP1 DUP3 MSTORE PUSH1 0x1 PUSH1 0x1 PUSH1 0xA0 SHL SUB SWAP1 SWAP11 AND PUSH1 0x4 DUP3 ADD MSTORE PUSH1 0x24 DUP2 ADD SWAP3 SWAP1 SWAP3 MSTORE SWAP1 SWAP4 DUP5 SWAP3 SWAP2 DUP8 AND SWAP2 DUP4 SWAP2 SWAP1 DUP3 SWAP1 PUSH1 0x44 DUP3 ADD SWAP1 JUMP JUMPDEST SUB SWAP3 GAS CALL SWAP1 DUP2 ISZERO PUSH2 0x3B8 JUMPI PUSH1 0x0 SWAP2 PUSH2 0x2A9F JUMPI JUMPDEST POP ISZERO PUSH2 0x2A66 JUMPI PUSH1 0xE DUP7 ADD SWAP4 PUSH1 0x64 PUSH2 0x28EC PUSH1 0xF DUP8 SLOAD SWAP10 ADD SWAP9 DUP10 SLOAD SWAP1 PUSH2 0x2DD5 JUMP JUMPDEST DIV SWAP3 DUP4 ISZERO ISZERO DUP1 PUSH2 0x2A5A JUMPI JUMPDEST PUSH2 0x2999 JUMPI JUMPDEST POP POP POP PUSH2 0x386 SWAP3 SWAP2 PUSH32 0xE2B1D963F1EC20D10D097A5196A0A9E7B5FF982020B428F20918FE52A2234EDF PUSH1 0xFF SWAP3 PUSH1 0x0 DUP1 MLOAD PUSH1 0x20 PUSH2 0x3116 DUP4 CODECOPY DUP2 MLOAD SWAP2 MSTORE SWAP9 PUSH2 0x2964 DUP6 PUSH1 0x4 DUP2 NOT DUP8 SLOAD AND OR DUP1 DUP8 SSTORE PUSH1 0xB8 SHR AND DUP6 SWAP1 PUSH2 0xFF00 DUP3 SLOAD SWAP2 ISZERO ISZERO PUSH1 0x8 SHL AND SWAP1 PUSH2 0xFF00 NOT AND OR SWAP1 SSTORE JUMP JUMPDEST PUSH2 0x2974 PUSH1 0x40 MLOAD SWAP3 DUP4 SWAP3 DUP11 DUP5 PUSH2 0x3041 JUMP JUMPDEST SUB SWAP1 LOG1 SLOAD PUSH1 0x8 SHR AND SWAP4 DUP5 ISZERO PUSH2 0x2991 JUMPI POP SLOAD PUSH1 0x40 MLOAD SWAP4 DUP5 SWAP4 DUP5 PUSH2 0x301D JUMP JUMPDEST SWAP1 POP SLOAD PUSH2 0xA03 JUMP JUMPDEST SWAP2 DUP4 DUP1 SWAP3 DUP11 PUSH1 0x0 DUP5 SWAP10 SWAP9 SWAP7 PUSH2 0x29B3 PUSH2 0x29E5 SWAP10 PUSH1 0x5 SLOAD PUSH2 0x2E4D JUMP JUMPDEST PUSH1 0x5 SSTORE PUSH1 0x1 SLOAD AND SWAP3 PUSH1 0x40 MLOAD SWAP9 DUP10 SWAP6 DUP7 SWAP5 DUP6 SWAP4 DUP5 MSTORE PUSH1 0x4 DUP5 ADD PUSH1 0x20 SWAP1 SWAP4 SWAP3 SWAP2 SWAP4 PUSH1 0x40 DUP2 ADD SWAP5 PUSH1 0x1 DUP1 PUSH1 0xA0 SHL SUB AND DUP2 MSTORE ADD MSTORE JUMP JUMPDEST SUB SWAP3 GAS CALL SWAP1 DUP2 ISZERO PUSH2 0x3B8 JUMPI PUSH1 0x0 DUP1 MLOAD PUSH1 0x20 PUSH2 0x3116 DUP4 CODECOPY DUP2 MLOAD SWAP2 MSTORE SWAP9 PUSH2 0x386 SWAP7 PUSH1 0xFF SWAP6 PUSH32 0xE2B1D963F1EC20D10D097A5196A0A9E7B5FF982020B428F20918FE52A2234EDF SWAP5 PUSH2 0x2A3C JUMPI JUMPDEST POP POP SWAP9 POP SWAP3 DUP3 SWAP5 SWAP6 POP PUSH2 0x28FC JUMP JUMPDEST DUP2 PUSH2 0x2A52 SWAP3 SWAP1 RETURNDATASIZE LT PUSH2 0x3B1 JUMPI PUSH2 0x3A2 DUP2 DUP4 PUSH2 0x2B7A JUMP JUMPDEST POP DUP11 DUP1 PUSH2 0x2A2E JUMP JUMPDEST POP DUP4 PUSH1 0x5 SLOAD LT ISZERO PUSH2 0x28F7 JUMP JUMPDEST PUSH1 0x64 SWAP1 PUSH1 0x40 MLOAD SWAP1 PUSH3 0x461BCD PUSH1 0xE5 SHL DUP3 MSTORE PUSH1 0x4 DUP3 ADD MSTORE PUSH1 0x12 PUSH1 0x24 DUP3 ADD MSTORE PUSH18 0x109BDB99081C995D1D5C9B8819985A5B1959 PUSH1 0x72 SHL PUSH1 0x44 DUP3 ADD MSTORE REVERT JUMPDEST PUSH2 0x2AB6 SWAP2 POP DUP3 RETURNDATASIZE DUP5 GT PUSH2 0x3B1 JUMPI PUSH2 0x3A2 DUP2 DUP4 PUSH2 0x2B7A JUMP JUMPDEST DUP9 PUSH2 0x28CD JUMP JUMPDEST PUSH1 0x40 MLOAD PUSH3 0x461BCD PUSH1 0xE5 SHL DUP2 MSTORE PUSH1 0x4 DUP2 ADD DUP4 SWAP1 MSTORE PUSH1 0xD PUSH1 0x24 DUP3 ADD MSTORE PUSH13 0x57696E646F7720616374697665 PUSH1 0x98 SHL PUSH1 0x44 DUP3 ADD MSTORE PUSH1 0x64 SWAP1 REVERT JUMPDEST CALLVALUE PUSH2 0x53C JUMPI PUSH1 0x0 CALLDATASIZE PUSH1 0x3 NOT ADD SLT PUSH2 0x53C JUMPI PUSH1 0x20 PUSH1 0x3 SLOAD PUSH1 0x40 MLOAD SWAP1 DUP2 MSTORE RETURN JUMPDEST CALLVALUE PUSH2 0x53C JUMPI PUSH1 0x0 CALLDATASIZE PUSH1 0x3 NOT ADD SLT PUSH2 0x53C JUMPI PUSH1 0x1 SLOAD PUSH1 0x40 MLOAD PUSH1 0x1 PUSH1 0x1 PUSH1 0xA0 SHL SUB SWAP1 SWAP2 AND DUP2 MSTORE PUSH1 0x20 SWAP1 RETURN JUMPDEST CALLVALUE PUSH2 0x53C JUMPI PUSH1 0x20 CALLDATASIZE PUSH1 0x3 NOT ADD SLT PUSH2 0x53C JUMPI PUSH1 0x4 CALLDATALOAD PUSH1 0x1 PUSH1 0x1 PUSH1 0x40 SHL SUB DUP2 GT PUSH2 0x53C JUMPI PUSH2 0x2B72 PUSH2 0x2B6D PUSH1 0x20 SWAP3 CALLDATASIZE SWAP1 PUSH1 0x4 ADD PUSH2 0x2B9B JUMP JUMPDEST PUSH2 0x2F19 JUMP JUMPDEST PUSH1 0x40 MLOAD SWAP1 DUP2 MSTORE RETURN JUMPDEST SWAP1 PUSH1 0x1F DUP1 NOT SWAP2 ADD AND DUP2 ADD SWAP1 DUP2 LT PUSH1 0x1 PUSH1 0x1 PUSH1 0x40 SHL SUB DUP3 GT OR PUSH2 0x186C JUMPI PUSH1 0x40 MSTORE JUMP JUMPDEST DUP2 PUSH1 0x1F DUP3 ADD SLT ISZERO PUSH2 0x53C JUMPI DUP1 CALLDATALOAD SWAP1 PUSH1 0x1 PUSH1 0x1 PUSH1 0x40 SHL SUB DUP3 GT PUSH2 0x186C JUMPI PUSH1 0x40 MLOAD SWAP3 PUSH2 0x2BCF PUSH1 0x1F DUP5 ADD PUSH1 0x1F NOT AND PUSH1 0x20 ADD DUP6 PUSH2 0x2B7A JUMP JUMPDEST DUP3 DUP5 MSTORE PUSH1 0x20 DUP4 DUP4 ADD ADD GT PUSH2 0x53C JUMPI DUP2 PUSH1 0x0 SWAP3 PUSH1 0x20 DUP1 SWAP4 ADD DUP4 DUP7 ADD CALLDATACOPY DUP4 ADD ADD MSTORE SWAP1 JUMP JUMPDEST PUSH1 0x4 CALLDATALOAD SWAP1 PUSH1 0x1 PUSH1 0x1 PUSH1 0xA0 SHL SUB DUP3 AND DUP3 SUB PUSH2 0x53C JUMPI JUMP JUMPDEST PUSH1 0x40 PUSH1 0x3 NOT DUP3 ADD SLT PUSH2 0x53C JUMPI PUSH1 0x4 CALLDATALOAD SWAP1 PUSH1 0x1 PUSH1 0x1 PUSH1 0x40 SHL SUB DUP3 GT PUSH2 0x53C JUMPI PUSH2 0x2C31 SWAP2 PUSH1 0x4 ADD PUSH2 0x2B9B JUMP JUMPDEST SWAP1 PUSH1 0x24 CALLDATALOAD PUSH1 0x1 PUSH1 0x1 PUSH1 0xA0 SHL SUB DUP2 AND DUP2 SUB PUSH2 0x53C JUMPI SWAP1 JUMP JUMPDEST PUSH1 0x0 JUMPDEST DUP4 DUP2 LT PUSH2 0x2C5B JUMPI POP POP PUSH1 0x0 SWAP2 ADD MSTORE JUMP JUMPDEST DUP2 DUP2 ADD MLOAD DUP4 DUP3 ADD MSTORE PUSH1 0x20 ADD PUSH2 0x2C4B JUMP JUMPDEST PUSH1 0x24 CALLDATALOAD SWAP1 DUP2 ISZERO ISZERO DUP3 SUB PUSH2 0x53C JUMPI JUMP JUMPDEST SWAP1 PUSH1 0x1 DUP3 DUP2 SHR SWAP3 AND DUP1 ISZERO PUSH2 0x2CAA JUMPI JUMPDEST PUSH1 0x20 DUP4 LT EQ PUSH2 0x2C94 JUMPI JUMP JUMPDEST PUSH4 0x4E487B71 PUSH1 0xE0 SHL PUSH1 0x0 MSTORE PUSH1 0x22 PUSH1 0x4 MSTORE PUSH1 0x24 PUSH1 0x0 REVERT JUMPDEST SWAP2 PUSH1 0x7F AND SWAP2 PUSH2 0x2C89 JUMP JUMPDEST SWAP1 PUSH1 0x40 MLOAD SWAP2 DUP3 PUSH1 0x0 DUP3 SLOAD SWAP3 PUSH2 0x2CC8 DUP5 PUSH2 0x2C7A JUMP JUMPDEST SWAP1 DUP2 DUP5 MSTORE PUSH1 0x1 SWAP5 DUP6 DUP2 AND SWAP1 DUP2 PUSH1 0x0 EQ PUSH2 0x2D37 JUMPI POP PUSH1 0x1 EQ PUSH2 0x2CF4 JUMPI JUMPDEST POP POP PUSH2 0x2CF2 SWAP3 POP SUB DUP4 PUSH2 0x2B7A JUMP JUMPDEST JUMP JUMPDEST SWAP1 SWAP4 SWAP2 POP PUSH1 0x0 MSTORE PUSH1 0x20 SWAP1 DUP2 PUSH1 0x0 KECCAK256 SWAP4 PUSH1 0x0 SWAP2 JUMPDEST DUP2 DUP4 LT PUSH2 0x2D1F JUMPI POP POP PUSH2 0x2CF2 SWAP4 POP DUP3 ADD ADD CODESIZE DUP1 PUSH2 0x2CE4 JUMP JUMPDEST DUP6 SLOAD DUP9 DUP5 ADD DUP6 ADD MSTORE SWAP5 DUP6 ADD SWAP5 DUP8 SWAP5 POP SWAP2 DUP4 ADD SWAP2 PUSH2 0x2D07 JUMP JUMPDEST SWAP2 POP POP PUSH2 0x2CF2 SWAP5 POP PUSH1 0x20 SWAP3 POP PUSH1 0xFF NOT AND DUP3 DUP5 ADD MSTORE ISZERO ISZERO PUSH1 0x5 SHL DUP3 ADD ADD CODESIZE DUP1 PUSH2 0x2CE4 JUMP JUMPDEST SWAP1 PUSH1 0x20 SWAP2 PUSH2 0x2D73 DUP2 MLOAD DUP1 SWAP3 DUP2 DUP6 MSTORE DUP6 DUP1 DUP7 ADD SWAP2 ADD PUSH2 0x2C48 JUMP JUMPDEST PUSH1 0x1F ADD PUSH1 0x1F NOT AND ADD ADD SWAP1 JUMP JUMPDEST SWAP1 DUP2 PUSH1 0x20 SWAP2 SUB SLT PUSH2 0x53C JUMPI MLOAD DUP1 ISZERO ISZERO DUP2 SUB PUSH2 0x53C JUMPI SWAP1 JUMP JUMPDEST ISZERO PUSH2 0x2D9E JUMPI JUMP JUMPDEST PUSH1 0x40 MLOAD PUSH3 0x461BCD PUSH1 0xE5 SHL DUP2 MSTORE PUSH1 0x20 PUSH1 0x4 DUP3 ADD MSTORE PUSH1 0xF PUSH1 0x24 DUP3 ADD MSTORE PUSH15 0x151C985B9CD9995C8819985A5B1959 PUSH1 0x8A SHL PUSH1 0x44 DUP3 ADD MSTORE PUSH1 0x64 SWAP1 REVERT JUMPDEST SWAP2 SWAP1 DUP3 ADD DUP1 SWAP3 GT PUSH2 0x1E52 JUMPI JUMP JUMPDEST DUP2 ISZERO PUSH2 0x2DEC JUMPI DIV SWAP1 JUMP JUMPDEST PUSH4 0x4E487B71 PUSH1 0xE0 SHL PUSH1 0x0 MSTORE PUSH1 0x12 PUSH1 0x4 MSTORE PUSH1 0x24 PUSH1 0x0 REVERT JUMPDEST ISZERO PUSH2 0x2E09 JUMPI JUMP JUMPDEST PUSH1 0x40 MLOAD PUSH3 0x461BCD PUSH1 0xE5 SHL DUP2 MSTORE PUSH1 0x20 PUSH1 0x4 DUP3 ADD MSTORE PUSH1 0x9 PUSH1 0x24 DUP3 ADD MSTORE PUSH9 0x139BC81B585C9AD95D PUSH1 0xBA SHL PUSH1 0x44 DUP3 ADD MSTORE PUSH1 0x64 SWAP1 REVERT JUMPDEST DUP2 DUP2 MUL SWAP3 SWAP2 DUP2 ISZERO SWAP2 DUP5 DIV EQ OR ISZERO PUSH2 0x1E52 JUMPI JUMP JUMPDEST SWAP2 SWAP1 DUP3 SUB SWAP2 DUP3 GT PUSH2 0x1E52 JUMPI JUMP JUMPDEST DUP1 SLOAD SWAP1 PUSH9 0x10000000000000000 DUP3 LT ISZERO PUSH2 0x186C JUMPI PUSH1 0x1 DUP3 ADD DUP1 DUP3 SSTORE DUP3 LT ISZERO PUSH2 0x2EA6 JUMPI PUSH1 0x0 MSTORE PUSH1 0x20 PUSH1 0x0 KECCAK256 ADD SWAP1 PUSH1 0x1 DUP1 PUSH1 0xA0 SHL SUB AND PUSH12 0xFFFFFFFFFFFFFFFFFFFFFFFF PUSH1 0xA0 SHL DUP3 SLOAD AND OR SWAP1 SSTORE JUMP JUMPDEST PUSH4 0x4E487B71 PUSH1 0xE0 SHL PUSH1 0x0 MSTORE PUSH1 0x32 PUSH1 0x4 MSTORE PUSH1 0x24 PUSH1 0x0 REVERT JUMPDEST PUSH1 0x0 SWAP1 DUP1 TIMESTAMP GT PUSH1 0x0 EQ PUSH2 0x2F13 JUMPI PUSH2 0x2ED4 SWAP2 POP TIMESTAMP PUSH2 0x2E4D JUMP JUMPDEST DUP2 DUP2 LT ISZERO PUSH2 0x2F0C JUMPI PUSH2 0x2EE6 SWAP1 DUP3 PUSH2 0x2E4D JUMP JUMPDEST SWAP1 DUP2 PUSH1 0x32 MUL SWAP2 PUSH1 0x32 DUP4 DIV SUB PUSH2 0x1E52 JUMPI PUSH2 0x2EFE SWAP2 PUSH2 0x2DE2 JUMP JUMPDEST PUSH1 0x64 ADD DUP1 PUSH1 0x64 GT PUSH2 0x1E52 JUMPI SWAP1 JUMP JUMPDEST POP POP PUSH1 0x64 SWAP1 JUMP JUMPDEST POP PUSH2 0x2ED4 JUMP JUMPDEST PUSH2 0x2F51 PUSH2 0x2F37 PUSH1 0x20 PUSH1 0xA SWAP4 DUP2 PUSH1 0x40 MLOAD SWAP4 DUP3 DUP6 DUP1 SWAP5 MLOAD SWAP4 DUP5 SWAP3 ADD PUSH2 0x2C48 JUMP JUMPDEST DUP2 ADD PUSH1 0x8 DUP2 MSTORE SUB ADD SWAP1 KECCAK256 PUSH1 0xF PUSH1 0xE DUP3 ADD SLOAD SWAP2 ADD SLOAD SWAP1 PUSH2 0x2DD5 JUMP JUMPDEST DIV PUSH3 0x4C4B40 DUP1 DUP3 LT PUSH2 0x2F61 JUMPI POP SWAP1 JUMP JUMPDEST SWAP1 POP SWAP1 JUMP JUMPDEST ISZERO PUSH2 0x2F6D JUMPI JUMP JUMPDEST PUSH1 0x40 MLOAD PUSH3 0x461BCD PUSH1 0xE5 SHL DUP2 MSTORE PUSH1 0x20 PUSH1 0x4 DUP3 ADD MSTORE PUSH1 0x14 PUSH1 0x24 DUP3 ADD MSTORE PUSH20 0x109BDB99081D1C985B9CD9995C8819985A5B1959 PUSH1 0x62 SHL PUSH1 0x44 DUP3 ADD MSTORE PUSH1 0x64 SWAP1 REVERT JUMPDEST ISZERO PUSH2 0x2FB0 JUMPI JUMP JUMPDEST PUSH1 0x40 MLOAD PUSH3 0x461BCD PUSH1 0xE5 SHL DUP2 MSTORE PUSH1 0x20 PUSH1 0x4 DUP3 ADD MSTORE PUSH1 0xC PUSH1 0x24 DUP3 ADD MSTORE PUSH12 0x139BDD081C1C9BDC1BDCD959 PUSH1 0xA2 SHL PUSH1 0x44 DUP3 ADD MSTORE PUSH1 0x64 SWAP1 REVERT JUMPDEST ISZERO PUSH2 0x2FEB JUMPI JUMP JUMPDEST PUSH1 0x40 MLOAD PUSH3 0x461BCD PUSH1 0xE5 SHL DUP2 MSTORE PUSH1 0x20 PUSH1 0x4 DUP3 ADD MSTORE PUSH1 0xA PUSH1 0x24 DUP3 ADD MSTORE PUSH10 0x27B7363C9030B236B4B7 PUSH1 0xB1 SHL PUSH1 0x44 DUP3 ADD MSTORE PUSH1 0x64 SWAP1 REVERT JUMPDEST PUSH2 0x3035 PUSH1 0x40 SWAP3 SWAP6 SWAP5 SWAP4 SWAP6 PUSH1 0x60 DUP4 MSTORE PUSH1 0x60 DUP4 ADD SWAP1 PUSH2 0x2D5A JUMP JUMPDEST SWAP5 ISZERO ISZERO PUSH1 0x20 DUP3 ADD MSTORE ADD MSTORE JUMP JUMPDEST PUSH2 0x3059 PUSH1 0x40 SWAP3 SWAP6 SWAP5 SWAP4 SWAP6 PUSH1 0x60 DUP4 MSTORE PUSH1 0x60 DUP4 ADD SWAP1 PUSH2 0x2D5A JUMP JUMPDEST PUSH1 0x1 PUSH1 0x1 PUSH1 0xA0 SHL SUB SWAP1 SWAP6 AND PUSH1 0x20 DUP3 ADD MSTORE ADD MSTORE JUMP JUMPDEST ISZERO PUSH2 0x3074 JUMPI JUMP JUMPDEST PUSH1 0x40 MLOAD PUSH3 0x461BCD PUSH1 0xE5 SHL DUP2 MSTORE PUSH1 0x20 PUSH1 0x4 DUP3 ADD MSTORE PUSH1 0xC PUSH1 0x24 DUP3 ADD MSTORE PUSH12 0x139BDD081C995CDBDB1D9959 PUSH1 0xA2 SHL PUSH1 0x44 DUP3 ADD MSTORE PUSH1 0x64 SWAP1 REVERT JUMPDEST ISZERO PUSH2 0x30AF JUMPI JUMP JUMPDEST PUSH1 0x40 MLOAD PUSH3 0x461BCD PUSH1 0xE5 SHL DUP2 MSTORE PUSH1 0x20 PUSH1 0x4 DUP3 ADD MSTORE PUSH1 0x7 PUSH1 0x24 DUP3 ADD MSTORE PUSH7 0x4E6F2066656573 PUSH1 0xC8 SHL PUSH1 0x44 DUP3 ADD MSTORE PUSH1 0x64 SWAP1 REVERT JUMPDEST ISZERO PUSH2 0x30E5 JUMPI JUMP JUMPDEST PUSH1 0x40 MLOAD PUSH3 0x461BCD PUSH1 0xE5 SHL DUP2 MSTORE PUSH1 0x20 PUSH1 0x4 DUP3 ADD MSTORE PUSH1 0x8 PUSH1 0x24 DUP3 ADD MSTORE PUSH8 0x14995CDBDB1D9959 PUSH1 0xC2 SHL PUSH1 0x44 DUP3 ADD MSTORE PUSH1 0x64 SWAP1 REVERT INVALID OR JUMPDEST ADDMOD 0xE6 0xEE DUP12 0xBC 0xEB DUP6 PUSH25 0xE790ADCA99EC4FBD3BB124FFBF50BD35ED4375A69ACA26469 PUSH17 0x6673582212207894BA031B4FCBEE2EFF8D 0xD 0xD2 0xD0 DUP13 0xC9 0xAD 0xD2 DUP16 DIV 0xE5 CALLDATASIZE 0xDA MLOAD ADDMOD INVALID 0xB2 DUP7 0xD2 SWAP3 LOG3 CREATE2 PUSH5 0x736F6C6343 STOP ADDMOD EQ STOP CALLER "},"methodIdentifiers":{"DISPUTE_WINDOW()":"f585dc57","FEE_DENOMINATOR()":"d73792a9","MAX_WEIGHT()":"e4a28a52","MIN_WEIGHT()":"218b5382","SHARE_PRECISION()":"5fc5e020","admin()":"f851a440","adminResolve(string,bool)":"e7785ffb","bondBalance(address)":"245e272f","challengeOutcome(string,string)":"287137b1","claimWinnings(string)":"fdbcf125","createMarket(string,string,uint256,uint256,uint256)":"9bd1d513","creatorBalance(address)":"e6cd7ab6","creatorFeeBps()":"17773ebb","finalizeOutcome(string)":"2023115d","getRequiredBond(string)":"0e90aeb2","hasClaimed(string,address)":"3cff3549","houseBalance()":"67084eb3","houseFeeBps()":"ee59d240","marketExists(string)":"3fed6ced","markets(string)":"efbda661","noBets(string,address)":"9a826eb7","placeBet(string,bool,uint256,address)":"7d191e06","proposeOutcome(string,bool,string)":"72264056","referrerFeeBps()":"a07c1633","resolveDispute(string,address,bool)":"ef03c10e","rewardsBalance(address)":"896bdac8","usdcToken()":"11eac855","voidMarket(string)":"c8eaef19","withdrawCreatorFees()":"e1cd04b4","withdrawReferrerFees()":"dfdc5f77","withdrawSeed(string)":"e1e90ab3","yesBets(string,address)":"dbeae54c"}}}}}