{"contracts/PredictionBattle.sol":{"PredictionBattle":{"abi":[{"inputs":[],"stateMutability":"nonpayable","type":"constructor"},{"anonymous":false,"inputs":[{"indexed":false,"internalType":"string","name":"id","type":"string"},{"indexed":false,"internalType":"address","name":"user","type":"address"},{"indexed":false,"internalType":"bool","name":"vote","type":"bool"},{"indexed":false,"internalType":"uint256","name":"amount","type":"uint256"}],"name":"BetPlaced","type":"event"},{"anonymous":false,"inputs":[{"indexed":false,"internalType":"string","name":"id","type":"string"}],"name":"DistributionCompleted","type":"event"},{"anonymous":false,"inputs":[{"indexed":false,"internalType":"address","name":"operator","type":"address"},{"indexed":false,"internalType":"bool","name":"status","type":"bool"}],"name":"OperatorUpdated","type":"event"},{"anonymous":false,"inputs":[{"indexed":false,"internalType":"string","name":"id","type":"string"},{"indexed":false,"internalType":"address","name":"user","type":"address"},{"indexed":false,"internalType":"uint256","name":"amount","type":"uint256"}],"name":"PayoutDistributed","type":"event"},{"anonymous":false,"inputs":[{"indexed":false,"internalType":"string","name":"id","type":"string"},{"indexed":false,"internalType":"address","name":"creator","type":"address"},{"indexed":false,"internalType":"uint256","name":"target","type":"uint256"},{"indexed":false,"internalType":"uint256","name":"deadline","type":"uint256"}],"name":"PredictionCreated","type":"event"},{"anonymous":false,"inputs":[{"indexed":false,"internalType":"string","name":"id","type":"string"},{"indexed":false,"internalType":"bool","name":"result","type":"bool"},{"indexed":false,"internalType":"uint256","name":"winnerPool","type":"uint256"},{"indexed":false,"internalType":"uint256","name":"platformFee","type":"uint256"},{"indexed":false,"internalType":"uint256","name":"creatorFee","type":"uint256"}],"name":"PredictionResolved","type":"event"},{"anonymous":false,"inputs":[{"indexed":false,"internalType":"string","name":"id","type":"string"},{"indexed":false,"internalType":"uint256","name":"totalPool","type":"uint256"},{"indexed":false,"internalType":"uint256","name":"platformFee","type":"uint256"}],"name":"PredictionVoided","type":"event"},{"anonymous":false,"inputs":[{"indexed":false,"internalType":"string","name":"id","type":"string"},{"indexed":false,"internalType":"uint256","name":"seedYes","type":"uint256"},{"indexed":false,"internalType":"uint256","name":"seedNo","type":"uint256"}],"name":"SeedAdded","type":"event"},{"inputs":[],"name":"admin","outputs":[{"internalType":"address","name":"","type":"address"}],"stateMutability":"view","type":"function"},{"inputs":[{"internalType":"string","name":"_id","type":"string"},{"internalType":"uint256","name":"_target","type":"uint256"},{"internalType":"uint256","name":"_duration","type":"uint256"}],"name":"createPrediction","outputs":[],"stateMutability":"payable","type":"function"},{"inputs":[],"name":"creatorFeeBps","outputs":[{"internalType":"uint256","name":"","type":"uint256"}],"stateMutability":"view","type":"function"},{"inputs":[{"internalType":"string","name":"_id","type":"string"},{"internalType":"uint256","name":"_batchSize","type":"uint256"}],"name":"distributeWinnings","outputs":[],"stateMutability":"nonpayable","type":"function"},{"inputs":[{"internalType":"address","name":"","type":"address"}],"name":"operators","outputs":[{"internalType":"bool","name":"","type":"bool"}],"stateMutability":"view","type":"function"},{"inputs":[{"internalType":"string","name":"_id","type":"string"},{"internalType":"bool","name":"_vote","type":"bool"}],"name":"placeBet","outputs":[],"stateMutability":"payable","type":"function"},{"inputs":[],"name":"platformFeeBps","outputs":[{"internalType":"uint256","name":"","type":"uint256"}],"stateMutability":"view","type":"function"},{"inputs":[{"internalType":"string","name":"","type":"string"}],"name":"predictionExists","outputs":[{"internalType":"bool","name":"","type":"bool"}],"stateMutability":"view","type":"function"},{"inputs":[{"internalType":"string","name":"","type":"string"}],"name":"predictions","outputs":[{"internalType":"string","name":"id","type":"string"},{"internalType":"address","name":"creator","type":"address"},{"internalType":"uint256","name":"target","type":"uint256"},{"internalType":"uint256","name":"deadline","type":"uint256"},{"internalType":"bool","name":"resolved","type":"bool"},{"internalType":"bool","name":"result","type":"bool"},{"internalType":"uint256","name":"totalYes","type":"uint256"},{"internalType":"uint256","name":"totalNo","type":"uint256"},{"internalType":"uint256","name":"seedYes","type":"uint256"},{"internalType":"uint256","name":"seedNo","type":"uint256"},{"internalType":"bool","name":"isVoid","type":"bool"},{"internalType":"uint256","name":"processedIndex","type":"uint256"},{"internalType":"bool","name":"paidOut","type":"bool"}],"stateMutability":"view","type":"function"},{"inputs":[{"internalType":"string","name":"_id","type":"string"},{"internalType":"bool","name":"_result","type":"bool"}],"name":"resolvePrediction","outputs":[],"stateMutability":"nonpayable","type":"function"},{"inputs":[{"internalType":"string","name":"_id","type":"string"}],"name":"resolveVoid","outputs":[],"stateMutability":"nonpayable","type":"function"},{"inputs":[{"internalType":"string","name":"_id","type":"string"}],"name":"seedPrediction","outputs":[],"stateMutability":"payable","type":"function"},{"inputs":[{"internalType":"address","name":"_operator","type":"address"},{"internalType":"bool","name":"_status","type":"bool"}],"name":"setOperator","outputs":[],"stateMutability":"nonpayable","type":"function"}],"evm":{"bytecode":{"linkReferences":{},"object":"60808060405234610034576101f46001556103e8600255600080546001600160a01b03191633179055611883908161003a8239f35b600080fdfe60a060408181526004918236101561001657600080fd5b600092833560e01c91826313e7c9d814610e6f5750816317773ebb14610e5057816322dcd13e14610e315781634a90004814610d23578163558a729714610c995781637321c829146109f55781637b4fd3e31461085957816385495028146107f357838263964289fc146106c457508163af69bdce1461064b578163b99f0db01461045a578163f33c109d146100e0575063f851a440146100b657600080fd5b346100dc57816003193601126100dc57905490516001600160a01b039091168152602090f35b5080fd5b905060603660031901126104565767ffffffffffffffff9181358381116104525761010e9036908401610f19565b9160243582519184519060ff6020948581818a019561012e818389610f9b565b810185815203019020541661040f5734151580610404575b61014f90611074565b845184818851610160818388610f9b565b810160038152030190209686519081116103f157908892916101828954610fbe565b601f81116103a1575b5085601f82116001146102e4579884600161028f897f80587d5a515a1daed27dd118e79e2901c44ac8c1448c2ac0004ff6efa35ea08c976102d39b977fff36ff50e65334f5ea64776f95ec82ce2fbd32a145dd5258689e2027c1c61b3a9f97879f9e9b8f9960089e9a836102d9575b5050600019600383901b1c191690861b1787555b86850180546001600160a01b0319163317905560028701889055600f610236604435426110c0565b97600381019889558281019760ff1998898154169055600d8201898154169055600e8201550186815416905534851c9e8f9c818e60058194015582600682015582600782015501558d8b51948593849251928391610f9b565b8201908152030190209182541617905554918451928392608084526102b7608085018b610ff8565b9233908501528684015260608301520390a15193849384611103565b0390a180f35b015190508f806101fa565b89855286852090601f198316865b818110610387575061028f897f80587d5a515a1daed27dd118e79e2901c44ac8c1448c2ac0004ff6efa35ea08c976102d39b977fff36ff50e65334f5ea64776f95ec82ce2fbd32a145dd5258689e2027c1c61b3a9f9e9d9a958f97988f996001979260089f9b838a951061036e575b505050811b01875561020e565b015160001960f88460031b161c191690558f3881610361565b8b83015184558d97506001909301929189019189016102f2565b90919293899052858a20601f830160051c8101918784106103e7575b90601f8c96959493920160051c01905b8181106103da575061018b565b9485558a946001016103cd565b90915081906103bd565b634e487b7160e01b895260418252602489fd5b503460011615610146565b845162461bcd60e51b8152908101849052601c60248201527f50726564696374696f6e20494420616c726561647920657869737473000000006044820152606490fd5b8480fd5b8280fd5b9160ff915061046836610f60565b90936104aa8351865161049a60209783898095818d019561048a818389610f9b565b8101898152030190205416611125565b8551809381928a51928391610f9b565b8101600381520301902090600382015442101561060f5734156105c2575091817ff1b5b55d4eb3da18fbbffc43e6e34b06f94fcb6316aead707ad556bf22aee40c959361054795936000146105715780600b60059201338a52808652848a20541561055f575b338a5285528389206105233482546110c0565b9055016105313482546110c0565b90555b8151948594608086526080860190610ff8565b9233908501521515908301523460608301520390a180f35b61056c336009840161119f565b610510565b80600c60069201338a52808652848a2054156105b0575b338a52855283892061059b3482546110c0565b9055016105a93482546110c0565b9055610534565b6105bd33600a840161119f565b610588565b835162461bcd60e51b8152908101859052602160248201527f42657420616d6f756e74206d7573742062652067726561746572207468616e206044820152600360fc1b6064820152608490fd5b835162461bcd60e51b8152908101859052601660248201527510995d1d1a5b99c81c195c9a5bd908195e1c1a5c995960521b6044820152606490fd5b9190503461045657806003193601126104565781359167ffffffffffffffff83116106c05761068361069e916106a794369101610f19565b9160018060a01b0385541633149081156106aa575b506111df565b602435906113ca565b80f35b60ff915033865260056020528520541638610698565b8380fd5b929150346107ef5760203660031901126107ef57803567ffffffffffffffff81116107ea577fa3ce321670cf1577a276bea0d3a7f932314dff3e9fb3266a1e2435bd79d91d02936107df61071e6102d39336908601610f19565b936107ad60018060a01b039161073883865416331461101d565b61076860208861075860ff8c51848181865196019561048a818389610f9b565b8a51809381928c51928391610f9b565b8101600381520301902090810180549061078560ff83161561121c565b600160ff198093161790556001600d83019182541617905560066005820154910154906110c0565b6107da8480806127106107c26002548761125b565b04978880978254165af16107d461126e565b5061129e565b6112ea565b935193849384611103565b505050fd5b5050fd5b8284346108565760203660031901126108565782359067ffffffffffffffff821161085657506108426020809461082f60ff9436908301610f19565b9082865194838680955193849201610f9b565b820190815203019020541690519015158152f35b80fd5b82843461085657602091826003193601126100dc57833567ffffffffffffffff811161045657836108906108a29236908801610f19565b81845193828580945193849201610f9b565b8101600381520301902081519283818354926108bd84610fbe565b908184526001948986821691826000146109d95750506001146109a0575b5050036108e89085610ec5565b600160a01b600190039082015416946002820154906003830154908301546005840154600685015490600786015492600887015494600d88015460ff1696600e89015498600f015460ff169980519d8e9d8e9d8e6101a0908181520161094d91610ff8565b9d01528c015260608b015260ff8116151560808b015260081c60ff16151560a08a015260c089015260e0880152610100870152610120860152151561014085015261016084015215156101808301520390f35b90889250858252848383205b8284106109c05750505082010188806108db565b8054848b018601528995508a94909301928691016109ac565b925093505060ff191682840152151560051b82010188806108db565b9050346104565782610a0636610f60565b92909360018060a01b038084541633148015610c84575b610a26906111df565b815192848080808a51888c60209a8b80920193610a44818387610f9b565b8101898152030190205460ff16610a5a90611125565b888c895180938192518092610a6e92610f9b565b8101600381520301902095858701805460ff811615610a8c9061121c565b8c151560081b61ff00169061ffff191617600117905560058701546006880154610ab5916110c0565b968280806127109d8e8c600254610acb9161125b565b049e8f908d600154610adc9161125b565b04608052868254165af1610aee61126e565b50610af89061129e565b60010190808254168015159081610c76575b5015610bdb576080519154165af1610b2061126e565b5015610b985750917f65be36b964ee454ce90da3ae5de836b70cdcb2fccd458dbcc7171e7ce655b27e959391610b67610b7b96945b610b61608051866110c0565b906112ea565b91815196879660a0885260a0880190610ff8565b94151590860152840152606083015260805160808301520390a180f35b825162461bcd60e51b8152908101849052601a60248201527f4661696c656420746f2073656e642063726561746f72206665650000000000006044820152606490fd5b9050608051908254165af1610bee61126e565b5015610c275750917f65be36b964ee454ce90da3ae5de836b70cdcb2fccd458dbcc7171e7ce655b27e959391610b67610b7b9694610b55565b825162461bcd60e51b8152908101849052602360248201527f4661696c656420746f2073656e642063726561746f722066656520746f20616460448201526236b4b760e91b6064820152608490fd5b905081845416141538610b0a565b5033845260056020528184205460ff16610a1d565b5050346100dc57806003193601126100dc57610cb3610eaa565b906024358015158091036106c05783547f966c160e1c4dbc7df8d69af4ace01e9297c3cf016397b7914971f2fbfa32672d936001600160a01b0391610cfb908316331461101d565b1690818552600560205282852060ff1981541660ff831617905582519182526020820152a180f35b905060203660031901126104565780359167ffffffffffffffff83116106c0576102d3602092610d777fff36ff50e65334f5ea64776f95ec82ce2fbd32a145dd5258689e2027c1c61b3a9536908301610f19565b92610da360ff82518781885196828a0197610d9381848b610f9b565b8201908152030190205416611125565b34151580610e26575b610db590611074565b6008610dd13460011c9687948451809381928a51928391610f9b565b8101600381520301902060058101610dea8582546110c0565b905560068101610dfb8582546110c0565b905560078101610e0c8582546110c0565b905501610e1a8382546110c0565b90555193849384611103565b503460011615610dac565b5050346100dc57816003193601126100dc576020906002549051908152f35b5050346100dc57816003193601126100dc576020906001549051908152f35b849084346104565760203660031901126104565760209260ff91906001600160a01b03610e9a610eaa565b1681526005855220541615158152f35b600435906001600160a01b0382168203610ec057565b600080fd5b90601f8019910116810190811067ffffffffffffffff821117610ee757604052565b634e487b7160e01b600052604160045260246000fd5b67ffffffffffffffff8111610ee757601f01601f191660200190565b81601f82011215610ec057803590610f3082610efd565b92610f3e6040519485610ec5565b82845260208383010111610ec057816000926020809301838601378301015290565b6040600319820112610ec0576004359067ffffffffffffffff8211610ec057610f8b91600401610f19565b906024358015158103610ec05790565b60005b838110610fae5750506000910152565b8181015183820152602001610f9e565b90600182811c92168015610fee575b6020831014610fd857565b634e487b7160e01b600052602260045260246000fd5b91607f1691610fcd565b9060209161101181518092818552858086019101610f9b565b601f01601f1916010190565b1561102457565b60405162461bcd60e51b815260206004820152602260248201527f4f6e6c792061646d696e2063616e20706572666f726d2074686973206163746960448201526137b760f11b6064820152608490fd5b1561107b57565b60405162461bcd60e51b815260206004820152601960248201527f53656564206d757374206265203e203020616e64206576656e000000000000006044820152606490fd5b919082018092116110cd57565b634e487b7160e01b600052601160045260246000fd5b81156110ed570490565b634e487b7160e01b600052601260045260246000fd5b61111b60409295949395606083526060830190610ff8565b9460208201520152565b1561112c57565b60405162461bcd60e51b815260206004820152601960248201527f50726564696374696f6e20646f6573206e6f74206578697374000000000000006044820152606490fd5b80548210156111895760005260206000200190600090565b634e487b7160e01b600052603260045260246000fd5b805468010000000000000000811015610ee7576111c191600182018155611171565b819291549060031b9160018060a01b03809116831b921b1916179055565b156111e657565b60405162461bcd60e51b815260206004820152600e60248201526d139bdd08185d5d1a1bdc9a5e995960921b6044820152606490fd5b1561122357565b60405162461bcd60e51b815260206004820152601060248201526f105b1c9958591e481c995cdbdb1d995960821b6044820152606490fd5b818102929181159184041417156110cd57565b3d15611299573d9061127f82610efd565b9161128d6040519384610ec5565b82523d6000602084013e565b606090565b156112a557565b60405162461bcd60e51b815260206004820152601b60248201527f4661696c656420746f2073656e6420706c6174666f726d2066656500000000006044820152606490fd5b919082039182116110cd57565b60001981146110cd5760010190565b1561130d57565b60405162461bcd60e51b815260206004820152600f60248201526e151c985b9cd9995c8819985a5b1959608a1b6044820152606490fd5b61135c60409295949395606083526060830190610ff8565b6001600160a01b0390951660208201520152565b9060405191828154918282526020928383019160005283600020936000905b8282106113a7575050506113a592500383610ec5565b565b85546001600160a01b03168452600195860195889550938101939091019061138f565b9060405160208184516113e08183858901610f9b565b810160038152030190209060ff600483015416156118085760ff600f830154166117ca5760009060058301805461141d60068601918254906110c0565b9361144a6127106107da816114346002548a61125b565b04916114426001548a61125b565b0491886112ea565b9460ff600d88015416611644575050600485015460081c60ff1615611626575061148661147960098601611370565b91546007860154906112ea565b928151938415801561161e575b611606576114a6600e87015494856110c0565b938585116115fe575b848110611516575050505080600e84015510156114ca575050565b600f01805460ff1916600117905560405160208082527f9ec2be866260137327142d7404b7fcc5cc8498409bc29470d3e480b6104318589282916115119190830190610ff8565b0390a1565b835181101561118957611576908260018060a01b0360208360051b88010151168a600060ff60048d015460081c166000146115e557505080600052600b8a016020528a60406000206000815491555b878161157b575b50505050506112f7565b6114af565b7f1dbdb822c5640c362e09f214d7cbc87a4c65998f48cbef088e5bb6f702032839946115ad6115b2926115d89461125b565b6110e3565b6115cc600080808085895af16115c661126e565b50611306565b60405193849384611344565b0390a182388a818761156c565b808360409252600c8d0160205220600081549155611565565b8594506114af565b505050600f909201805460ff19166001179055505050565b508015611493565b9050611486611637600a8601611370565b91546008860154906112ea565b94925090506009850191825494600a8701926116618454886110c0565b96600e890195611673875498896110c0565b978989116117c2575b9088979695949392915b88811061169f57505050505050505510156114ca575050565b836116f792939495969798995050838110600014611784578b8d6116c38386611171565b60018060a01b0391549060031b1c1690818852600b8301602052604088209288845494555b83611705575b505050506112f7565b908897969594939291611686565b80600861171960076117229401548d6112ea565b910154906112ea565b928a84611732575b50508e6116ee565b7f1dbdb822c5640c362e09f214d7cbc87a4c65998f48cbef088e5bb6f702032839946115ad611764926117779461125b565b6115cc8a80808085895af16115c661126e565b0390a138808e818a61172a565b8b8d61179961179387856112ea565b8b611171565b60018060a01b0391549060031b1c1690818852600c8301602052604088209288845494556116e8565b89985061167c565b60405162461bcd60e51b8152602060048201526016602482015275105b1c9958591e48199d5b1b1e481c185a59081bdd5d60521b6044820152606490fd5b60405162461bcd60e51b815260206004820152601b60248201527f50726564696374696f6e206e6f74207265736f6c7665642079657400000000006044820152606490fdfea26469706673582212205cfe341c94111f0536d7e28cdeb342a8dea52f574ee90b92df32dddd3ed5edbe64736f6c63430008140033","opcodes":"PUSH1 0x80 DUP1 PUSH1 0x40 MSTORE CALLVALUE PUSH2 0x34 JUMPI PUSH2 0x1F4 PUSH1 0x1 SSTORE PUSH2 0x3E8 PUSH1 0x2 SSTORE PUSH1 0x0 DUP1 SLOAD PUSH1 0x1 PUSH1 0x1 PUSH1 0xA0 SHL SUB NOT AND CALLER OR SWAP1 SSTORE PUSH2 0x1883 SWAP1 DUP2 PUSH2 0x3A DUP3 CODECOPY RETURN JUMPDEST PUSH1 0x0 DUP1 REVERT INVALID PUSH1 0xA0 PUSH1 0x40 DUP2 DUP2 MSTORE PUSH1 0x4 SWAP2 DUP3 CALLDATASIZE LT ISZERO PUSH2 0x16 JUMPI PUSH1 0x0 DUP1 REVERT JUMPDEST PUSH1 0x0 SWAP3 DUP4 CALLDATALOAD PUSH1 0xE0 SHR SWAP2 DUP3 PUSH4 0x13E7C9D8 EQ PUSH2 0xE6F JUMPI POP DUP2 PUSH4 0x17773EBB EQ PUSH2 0xE50 JUMPI DUP2 PUSH4 0x22DCD13E EQ PUSH2 0xE31 JUMPI DUP2 PUSH4 0x4A900048 EQ PUSH2 0xD23 JUMPI DUP2 PUSH4 0x558A7297 EQ PUSH2 0xC99 JUMPI DUP2 PUSH4 0x7321C829 EQ PUSH2 0x9F5 JUMPI DUP2 PUSH4 0x7B4FD3E3 EQ PUSH2 0x859 JUMPI DUP2 PUSH4 0x85495028 EQ PUSH2 0x7F3 JUMPI DUP4 DUP3 PUSH4 0x964289FC EQ PUSH2 0x6C4 JUMPI POP DUP2 PUSH4 0xAF69BDCE EQ PUSH2 0x64B JUMPI DUP2 PUSH4 0xB99F0DB0 EQ PUSH2 0x45A JUMPI DUP2 PUSH4 0xF33C109D EQ PUSH2 0xE0 JUMPI POP PUSH4 0xF851A440 EQ PUSH2 0xB6 JUMPI PUSH1 0x0 DUP1 REVERT JUMPDEST CALLVALUE PUSH2 0xDC JUMPI DUP2 PUSH1 0x3 NOT CALLDATASIZE ADD SLT PUSH2 0xDC JUMPI SWAP1 SLOAD SWAP1 MLOAD PUSH1 0x1 PUSH1 0x1 PUSH1 0xA0 SHL SUB SWAP1 SWAP2 AND DUP2 MSTORE PUSH1 0x20 SWAP1 RETURN JUMPDEST POP DUP1 REVERT JUMPDEST SWAP1 POP PUSH1 0x60 CALLDATASIZE PUSH1 0x3 NOT ADD SLT PUSH2 0x456 JUMPI PUSH8 0xFFFFFFFFFFFFFFFF SWAP2 DUP2 CALLDATALOAD DUP4 DUP2 GT PUSH2 0x452 JUMPI PUSH2 0x10E SWAP1 CALLDATASIZE SWAP1 DUP5 ADD PUSH2 0xF19 JUMP JUMPDEST SWAP2 PUSH1 0x24 CALLDATALOAD DUP3 MLOAD SWAP2 DUP5 MLOAD SWAP1 PUSH1 0xFF PUSH1 0x20 SWAP5 DUP6 DUP2 DUP2 DUP11 ADD SWAP6 PUSH2 0x12E DUP2 DUP4 DUP10 PUSH2 0xF9B JUMP JUMPDEST DUP2 ADD DUP6 DUP2 MSTORE SUB ADD SWAP1 KECCAK256 SLOAD AND PUSH2 0x40F JUMPI CALLVALUE ISZERO ISZERO DUP1 PUSH2 0x404 JUMPI JUMPDEST PUSH2 0x14F SWAP1 PUSH2 0x1074 JUMP JUMPDEST DUP5 MLOAD DUP5 DUP2 DUP9 MLOAD PUSH2 0x160 DUP2 DUP4 DUP9 PUSH2 0xF9B JUMP JUMPDEST DUP2 ADD PUSH1 0x3 DUP2 MSTORE SUB ADD SWAP1 KECCAK256 SWAP7 DUP7 MLOAD SWAP1 DUP2 GT PUSH2 0x3F1 JUMPI SWAP1 DUP9 SWAP3 SWAP2 PUSH2 0x182 DUP10 SLOAD PUSH2 0xFBE JUMP JUMPDEST PUSH1 0x1F DUP2 GT PUSH2 0x3A1 JUMPI JUMPDEST POP DUP6 PUSH1 0x1F DUP3 GT PUSH1 0x1 EQ PUSH2 0x2E4 JUMPI SWAP9 DUP5 PUSH1 0x1 PUSH2 0x28F DUP10 PUSH32 0x80587D5A515A1DAED27DD118E79E2901C44AC8C1448C2AC0004FF6EFA35EA08C SWAP8 PUSH2 0x2D3 SWAP12 SWAP8 PUSH32 0xFF36FF50E65334F5EA64776F95EC82CE2FBD32A145DD5258689E2027C1C61B3A SWAP16 SWAP8 DUP8 SWAP16 SWAP15 SWAP12 DUP16 SWAP10 PUSH1 0x8 SWAP15 SWAP11 DUP4 PUSH2 0x2D9 JUMPI JUMPDEST POP POP PUSH1 0x0 NOT PUSH1 0x3 DUP4 SWAP1 SHL SHR NOT AND SWAP1 DUP7 SHL OR DUP8 SSTORE JUMPDEST DUP7 DUP6 ADD DUP1 SLOAD PUSH1 0x1 PUSH1 0x1 PUSH1 0xA0 SHL SUB NOT AND CALLER OR SWAP1 SSTORE PUSH1 0x2 DUP8 ADD DUP9 SWAP1 SSTORE PUSH1 0xF PUSH2 0x236 PUSH1 0x44 CALLDATALOAD TIMESTAMP PUSH2 0x10C0 JUMP JUMPDEST SWAP8 PUSH1 0x3 DUP2 ADD SWAP9 DUP10 SSTORE DUP3 DUP2 ADD SWAP8 PUSH1 0xFF NOT SWAP9 DUP10 DUP2 SLOAD AND SWAP1 SSTORE PUSH1 0xD DUP3 ADD DUP10 DUP2 SLOAD AND SWAP1 SSTORE PUSH1 0xE DUP3 ADD SSTORE ADD DUP7 DUP2 SLOAD AND SWAP1 SSTORE CALLVALUE DUP6 SHR SWAP15 DUP16 SWAP13 DUP2 DUP15 PUSH1 0x5 DUP2 SWAP5 ADD SSTORE DUP3 PUSH1 0x6 DUP3 ADD SSTORE DUP3 PUSH1 0x7 DUP3 ADD SSTORE ADD SSTORE DUP14 DUP12 MLOAD SWAP5 DUP6 SWAP4 DUP5 SWAP3 MLOAD SWAP3 DUP4 SWAP2 PUSH2 0xF9B JUMP JUMPDEST DUP3 ADD SWAP1 DUP2 MSTORE SUB ADD SWAP1 KECCAK256 SWAP2 DUP3 SLOAD AND OR SWAP1 SSTORE SLOAD SWAP2 DUP5 MLOAD SWAP3 DUP4 SWAP3 PUSH1 0x80 DUP5 MSTORE PUSH2 0x2B7 PUSH1 0x80 DUP6 ADD DUP12 PUSH2 0xFF8 JUMP JUMPDEST SWAP3 CALLER SWAP1 DUP6 ADD MSTORE DUP7 DUP5 ADD MSTORE PUSH1 0x60 DUP4 ADD MSTORE SUB SWAP1 LOG1 MLOAD SWAP4 DUP5 SWAP4 DUP5 PUSH2 0x1103 JUMP JUMPDEST SUB SWAP1 LOG1 DUP1 RETURN JUMPDEST ADD MLOAD SWAP1 POP DUP16 DUP1 PUSH2 0x1FA JUMP JUMPDEST DUP10 DUP6 MSTORE DUP7 DUP6 KECCAK256 SWAP1 PUSH1 0x1F NOT DUP4 AND DUP7 JUMPDEST DUP2 DUP2 LT PUSH2 0x387 JUMPI POP PUSH2 0x28F DUP10 PUSH32 0x80587D5A515A1DAED27DD118E79E2901C44AC8C1448C2AC0004FF6EFA35EA08C SWAP8 PUSH2 0x2D3 SWAP12 SWAP8 PUSH32 0xFF36FF50E65334F5EA64776F95EC82CE2FBD32A145DD5258689E2027C1C61B3A SWAP16 SWAP15 SWAP14 SWAP11 SWAP6 DUP16 SWAP8 SWAP9 DUP16 SWAP10 PUSH1 0x1 SWAP8 SWAP3 PUSH1 0x8 SWAP16 SWAP12 DUP4 DUP11 SWAP6 LT PUSH2 0x36E JUMPI JUMPDEST POP POP POP DUP2 SHL ADD DUP8 SSTORE PUSH2 0x20E JUMP JUMPDEST ADD MLOAD PUSH1 0x0 NOT PUSH1 0xF8 DUP5 PUSH1 0x3 SHL AND SHR NOT AND SWAP1 SSTORE DUP16 CODESIZE DUP2 PUSH2 0x361 JUMP JUMPDEST DUP12 DUP4 ADD MLOAD DUP5 SSTORE DUP14 SWAP8 POP PUSH1 0x1 SWAP1 SWAP4 ADD SWAP3 SWAP2 DUP10 ADD SWAP2 DUP10 ADD PUSH2 0x2F2 JUMP JUMPDEST SWAP1 SWAP2 SWAP3 SWAP4 DUP10 SWAP1 MSTORE DUP6 DUP11 KECCAK256 PUSH1 0x1F DUP4 ADD PUSH1 0x5 SHR DUP2 ADD SWAP2 DUP8 DUP5 LT PUSH2 0x3E7 JUMPI JUMPDEST SWAP1 PUSH1 0x1F DUP13 SWAP7 SWAP6 SWAP5 SWAP4 SWAP3 ADD PUSH1 0x5 SHR ADD SWAP1 JUMPDEST DUP2 DUP2 LT PUSH2 0x3DA JUMPI POP PUSH2 0x18B JUMP JUMPDEST SWAP5 DUP6 SSTORE DUP11 SWAP5 PUSH1 0x1 ADD PUSH2 0x3CD JUMP JUMPDEST SWAP1 SWAP2 POP DUP2 SWAP1 PUSH2 0x3BD JUMP JUMPDEST PUSH4 0x4E487B71 PUSH1 0xE0 SHL DUP10 MSTORE PUSH1 0x41 DUP3 MSTORE PUSH1 0x24 DUP10 REVERT JUMPDEST POP CALLVALUE PUSH1 0x1 AND ISZERO PUSH2 0x146 JUMP JUMPDEST DUP5 MLOAD PUSH3 0x461BCD PUSH1 0xE5 SHL DUP2 MSTORE SWAP1 DUP2 ADD DUP5 SWAP1 MSTORE PUSH1 0x1C PUSH1 0x24 DUP3 ADD MSTORE PUSH32 0x50726564696374696F6E20494420616C72656164792065786973747300000000 PUSH1 0x44 DUP3 ADD MSTORE PUSH1 0x64 SWAP1 REVERT JUMPDEST DUP5 DUP1 REVERT JUMPDEST DUP3 DUP1 REVERT JUMPDEST SWAP2 PUSH1 0xFF SWAP2 POP PUSH2 0x468 CALLDATASIZE PUSH2 0xF60 JUMP JUMPDEST SWAP1 SWAP4 PUSH2 0x4AA DUP4 MLOAD DUP7 MLOAD PUSH2 0x49A PUSH1 0x20 SWAP8 DUP4 DUP10 DUP1 SWAP6 DUP2 DUP14 ADD SWAP6 PUSH2 0x48A DUP2 DUP4 DUP10 PUSH2 0xF9B JUMP JUMPDEST DUP2 ADD DUP10 DUP2 MSTORE SUB ADD SWAP1 KECCAK256 SLOAD AND PUSH2 0x1125 JUMP JUMPDEST DUP6 MLOAD DUP1 SWAP4 DUP2 SWAP3 DUP11 MLOAD SWAP3 DUP4 SWAP2 PUSH2 0xF9B JUMP JUMPDEST DUP2 ADD PUSH1 0x3 DUP2 MSTORE SUB ADD SWAP1 KECCAK256 SWAP1 PUSH1 0x3 DUP3 ADD SLOAD TIMESTAMP LT ISZERO PUSH2 0x60F JUMPI CALLVALUE ISZERO PUSH2 0x5C2 JUMPI POP SWAP2 DUP2 PUSH32 0xF1B5B55D4EB3DA18FBBFFC43E6E34B06F94FCB6316AEAD707AD556BF22AEE40C SWAP6 SWAP4 PUSH2 0x547 SWAP6 SWAP4 PUSH1 0x0 EQ PUSH2 0x571 JUMPI DUP1 PUSH1 0xB PUSH1 0x5 SWAP3 ADD CALLER DUP11 MSTORE DUP1 DUP7 MSTORE DUP5 DUP11 KECCAK256 SLOAD ISZERO PUSH2 0x55F JUMPI JUMPDEST CALLER DUP11 MSTORE DUP6 MSTORE DUP4 DUP10 KECCAK256 PUSH2 0x523 CALLVALUE DUP3 SLOAD PUSH2 0x10C0 JUMP JUMPDEST SWAP1 SSTORE ADD PUSH2 0x531 CALLVALUE DUP3 SLOAD PUSH2 0x10C0 JUMP JUMPDEST SWAP1 SSTORE JUMPDEST DUP2 MLOAD SWAP5 DUP6 SWAP5 PUSH1 0x80 DUP7 MSTORE PUSH1 0x80 DUP7 ADD SWAP1 PUSH2 0xFF8 JUMP JUMPDEST SWAP3 CALLER SWAP1 DUP6 ADD MSTORE ISZERO ISZERO SWAP1 DUP4 ADD MSTORE CALLVALUE PUSH1 0x60 DUP4 ADD MSTORE SUB SWAP1 LOG1 DUP1 RETURN JUMPDEST PUSH2 0x56C CALLER PUSH1 0x9 DUP5 ADD PUSH2 0x119F JUMP JUMPDEST PUSH2 0x510 JUMP JUMPDEST DUP1 PUSH1 0xC PUSH1 0x6 SWAP3 ADD CALLER DUP11 MSTORE DUP1 DUP7 MSTORE DUP5 DUP11 KECCAK256 SLOAD ISZERO PUSH2 0x5B0 JUMPI JUMPDEST CALLER DUP11 MSTORE DUP6 MSTORE DUP4 DUP10 KECCAK256 PUSH2 0x59B CALLVALUE DUP3 SLOAD PUSH2 0x10C0 JUMP JUMPDEST SWAP1 SSTORE ADD PUSH2 0x5A9 CALLVALUE DUP3 SLOAD PUSH2 0x10C0 JUMP JUMPDEST SWAP1 SSTORE PUSH2 0x534 JUMP JUMPDEST PUSH2 0x5BD CALLER PUSH1 0xA DUP5 ADD PUSH2 0x119F JUMP JUMPDEST PUSH2 0x588 JUMP JUMPDEST DUP4 MLOAD PUSH3 0x461BCD PUSH1 0xE5 SHL DUP2 MSTORE SWAP1 DUP2 ADD DUP6 SWAP1 MSTORE PUSH1 0x21 PUSH1 0x24 DUP3 ADD MSTORE PUSH32 0x42657420616D6F756E74206D7573742062652067726561746572207468616E20 PUSH1 0x44 DUP3 ADD MSTORE PUSH1 0x3 PUSH1 0xFC SHL PUSH1 0x64 DUP3 ADD MSTORE PUSH1 0x84 SWAP1 REVERT JUMPDEST DUP4 MLOAD PUSH3 0x461BCD PUSH1 0xE5 SHL DUP2 MSTORE SWAP1 DUP2 ADD DUP6 SWAP1 MSTORE PUSH1 0x16 PUSH1 0x24 DUP3 ADD MSTORE PUSH22 0x10995D1D1A5B99C81C195C9A5BD908195E1C1A5C9959 PUSH1 0x52 SHL PUSH1 0x44 DUP3 ADD MSTORE PUSH1 0x64 SWAP1 REVERT JUMPDEST SWAP2 SWAP1 POP CALLVALUE PUSH2 0x456 JUMPI DUP1 PUSH1 0x3 NOT CALLDATASIZE ADD SLT PUSH2 0x456 JUMPI DUP2 CALLDATALOAD SWAP2 PUSH8 0xFFFFFFFFFFFFFFFF DUP4 GT PUSH2 0x6C0 JUMPI PUSH2 0x683 PUSH2 0x69E SWAP2 PUSH2 0x6A7 SWAP5 CALLDATASIZE SWAP2 ADD PUSH2 0xF19 JUMP JUMPDEST SWAP2 PUSH1 0x1 DUP1 PUSH1 0xA0 SHL SUB DUP6 SLOAD AND CALLER EQ SWAP1 DUP2 ISZERO PUSH2 0x6AA JUMPI JUMPDEST POP PUSH2 0x11DF JUMP JUMPDEST PUSH1 0x24 CALLDATALOAD SWAP1 PUSH2 0x13CA JUMP JUMPDEST DUP1 RETURN JUMPDEST PUSH1 0xFF SWAP2 POP CALLER DUP7 MSTORE PUSH1 0x5 PUSH1 0x20 MSTORE DUP6 KECCAK256 SLOAD AND CODESIZE PUSH2 0x698 JUMP JUMPDEST DUP4 DUP1 REVERT JUMPDEST SWAP3 SWAP2 POP CALLVALUE PUSH2 0x7EF JUMPI PUSH1 0x20 CALLDATASIZE PUSH1 0x3 NOT ADD SLT PUSH2 0x7EF JUMPI DUP1 CALLDATALOAD PUSH8 0xFFFFFFFFFFFFFFFF DUP2 GT PUSH2 0x7EA JUMPI PUSH32 0xA3CE321670CF1577A276BEA0D3A7F932314DFF3E9FB3266A1E2435BD79D91D02 SWAP4 PUSH2 0x7DF PUSH2 0x71E PUSH2 0x2D3 SWAP4 CALLDATASIZE SWAP1 DUP7 ADD PUSH2 0xF19 JUMP JUMPDEST SWAP4 PUSH2 0x7AD PUSH1 0x1 DUP1 PUSH1 0xA0 SHL SUB SWAP2 PUSH2 0x738 DUP4 DUP7 SLOAD AND CALLER EQ PUSH2 0x101D JUMP JUMPDEST PUSH2 0x768 PUSH1 0x20 DUP9 PUSH2 0x758 PUSH1 0xFF DUP13 MLOAD DUP5 DUP2 DUP2 DUP7 MLOAD SWAP7 ADD SWAP6 PUSH2 0x48A DUP2 DUP4 DUP10 PUSH2 0xF9B JUMP JUMPDEST DUP11 MLOAD DUP1 SWAP4 DUP2 SWAP3 DUP13 MLOAD SWAP3 DUP4 SWAP2 PUSH2 0xF9B JUMP JUMPDEST DUP2 ADD PUSH1 0x3 DUP2 MSTORE SUB ADD SWAP1 KECCAK256 SWAP1 DUP2 ADD DUP1 SLOAD SWAP1 PUSH2 0x785 PUSH1 0xFF DUP4 AND ISZERO PUSH2 0x121C JUMP JUMPDEST PUSH1 0x1 PUSH1 0xFF NOT DUP1 SWAP4 AND OR SWAP1 SSTORE PUSH1 0x1 PUSH1 0xD DUP4 ADD SWAP2 DUP3 SLOAD AND OR SWAP1 SSTORE PUSH1 0x6 PUSH1 0x5 DUP3 ADD SLOAD SWAP2 ADD SLOAD SWAP1 PUSH2 0x10C0 JUMP JUMPDEST PUSH2 0x7DA DUP5 DUP1 DUP1 PUSH2 0x2710 PUSH2 0x7C2 PUSH1 0x2 SLOAD DUP8 PUSH2 0x125B JUMP JUMPDEST DIV SWAP8 DUP9 DUP1 SWAP8 DUP3 SLOAD AND GAS CALL PUSH2 0x7D4 PUSH2 0x126E JUMP JUMPDEST POP PUSH2 0x129E JUMP JUMPDEST PUSH2 0x12EA JUMP JUMPDEST SWAP4 MLOAD SWAP4 DUP5 SWAP4 DUP5 PUSH2 0x1103 JUMP JUMPDEST POP POP POP REVERT JUMPDEST POP POP REVERT JUMPDEST DUP3 DUP5 CALLVALUE PUSH2 0x856 JUMPI PUSH1 0x20 CALLDATASIZE PUSH1 0x3 NOT ADD SLT PUSH2 0x856 JUMPI DUP3 CALLDATALOAD SWAP1 PUSH8 0xFFFFFFFFFFFFFFFF DUP3 GT PUSH2 0x856 JUMPI POP PUSH2 0x842 PUSH1 0x20 DUP1 SWAP5 PUSH2 0x82F PUSH1 0xFF SWAP5 CALLDATASIZE SWAP1 DUP4 ADD PUSH2 0xF19 JUMP JUMPDEST SWAP1 DUP3 DUP7 MLOAD SWAP5 DUP4 DUP7 DUP1 SWAP6 MLOAD SWAP4 DUP5 SWAP3 ADD PUSH2 0xF9B JUMP JUMPDEST DUP3 ADD SWAP1 DUP2 MSTORE SUB ADD SWAP1 KECCAK256 SLOAD AND SWAP1 MLOAD SWAP1 ISZERO ISZERO DUP2 MSTORE RETURN JUMPDEST DUP1 REVERT JUMPDEST DUP3 DUP5 CALLVALUE PUSH2 0x856 JUMPI PUSH1 0x20 SWAP2 DUP3 PUSH1 0x3 NOT CALLDATASIZE ADD SLT PUSH2 0xDC JUMPI DUP4 CALLDATALOAD PUSH8 0xFFFFFFFFFFFFFFFF DUP2 GT PUSH2 0x456 JUMPI DUP4 PUSH2 0x890 PUSH2 0x8A2 SWAP3 CALLDATASIZE SWAP1 DUP9 ADD PUSH2 0xF19 JUMP JUMPDEST DUP2 DUP5 MLOAD SWAP4 DUP3 DUP6 DUP1 SWAP5 MLOAD SWAP4 DUP5 SWAP3 ADD PUSH2 0xF9B JUMP JUMPDEST DUP2 ADD PUSH1 0x3 DUP2 MSTORE SUB ADD SWAP1 KECCAK256 DUP2 MLOAD SWAP3 DUP4 DUP2 DUP4 SLOAD SWAP3 PUSH2 0x8BD DUP5 PUSH2 0xFBE JUMP JUMPDEST SWAP1 DUP2 DUP5 MSTORE PUSH1 0x1 SWAP5 DUP10 DUP7 DUP3 AND SWAP2 DUP3 PUSH1 0x0 EQ PUSH2 0x9D9 JUMPI POP POP PUSH1 0x1 EQ PUSH2 0x9A0 JUMPI JUMPDEST POP POP SUB PUSH2 0x8E8 SWAP1 DUP6 PUSH2 0xEC5 JUMP JUMPDEST PUSH1 0x1 PUSH1 0xA0 SHL PUSH1 0x1 SWAP1 SUB SWAP1 DUP3 ADD SLOAD AND SWAP5 PUSH1 0x2 DUP3 ADD SLOAD SWAP1 PUSH1 0x3 DUP4 ADD SLOAD SWAP1 DUP4 ADD SLOAD PUSH1 0x5 DUP5 ADD SLOAD PUSH1 0x6 DUP6 ADD SLOAD SWAP1 PUSH1 0x7 DUP7 ADD SLOAD SWAP3 PUSH1 0x8 DUP8 ADD SLOAD SWAP5 PUSH1 0xD DUP9 ADD SLOAD PUSH1 0xFF AND SWAP7 PUSH1 0xE DUP10 ADD SLOAD SWAP9 PUSH1 0xF ADD SLOAD PUSH1 0xFF AND SWAP10 DUP1 MLOAD SWAP14 DUP15 SWAP14 DUP15 SWAP14 DUP15 PUSH2 0x1A0 SWAP1 DUP2 DUP2 MSTORE ADD PUSH2 0x94D SWAP2 PUSH2 0xFF8 JUMP JUMPDEST SWAP14 ADD MSTORE DUP13 ADD MSTORE PUSH1 0x60 DUP12 ADD MSTORE PUSH1 0xFF DUP2 AND ISZERO ISZERO PUSH1 0x80 DUP12 ADD MSTORE PUSH1 0x8 SHR PUSH1 0xFF AND ISZERO ISZERO PUSH1 0xA0 DUP11 ADD MSTORE PUSH1 0xC0 DUP10 ADD MSTORE PUSH1 0xE0 DUP9 ADD MSTORE PUSH2 0x100 DUP8 ADD MSTORE PUSH2 0x120 DUP7 ADD MSTORE ISZERO ISZERO PUSH2 0x140 DUP6 ADD MSTORE PUSH2 0x160 DUP5 ADD MSTORE ISZERO ISZERO PUSH2 0x180 DUP4 ADD MSTORE SUB SWAP1 RETURN JUMPDEST SWAP1 DUP9 SWAP3 POP DUP6 DUP3 MSTORE DUP5 DUP4 DUP4 KECCAK256 JUMPDEST DUP3 DUP5 LT PUSH2 0x9C0 JUMPI POP POP POP DUP3 ADD ADD DUP9 DUP1 PUSH2 0x8DB JUMP JUMPDEST DUP1 SLOAD DUP5 DUP12 ADD DUP7 ADD MSTORE DUP10 SWAP6 POP DUP11 SWAP5 SWAP1 SWAP4 ADD SWAP3 DUP7 SWAP2 ADD PUSH2 0x9AC JUMP JUMPDEST SWAP3 POP SWAP4 POP POP PUSH1 0xFF NOT AND DUP3 DUP5 ADD MSTORE ISZERO ISZERO PUSH1 0x5 SHL DUP3 ADD ADD DUP9 DUP1 PUSH2 0x8DB JUMP JUMPDEST SWAP1 POP CALLVALUE PUSH2 0x456 JUMPI DUP3 PUSH2 0xA06 CALLDATASIZE PUSH2 0xF60 JUMP JUMPDEST SWAP3 SWAP1 SWAP4 PUSH1 0x1 DUP1 PUSH1 0xA0 SHL SUB DUP1 DUP5 SLOAD AND CALLER EQ DUP1 ISZERO PUSH2 0xC84 JUMPI JUMPDEST PUSH2 0xA26 SWAP1 PUSH2 0x11DF JUMP JUMPDEST DUP2 MLOAD SWAP3 DUP5 DUP1 DUP1 DUP1 DUP11 MLOAD DUP9 DUP13 PUSH1 0x20 SWAP11 DUP12 DUP1 SWAP3 ADD SWAP4 PUSH2 0xA44 DUP2 DUP4 DUP8 PUSH2 0xF9B JUMP JUMPDEST DUP2 ADD DUP10 DUP2 MSTORE SUB ADD SWAP1 KECCAK256 SLOAD PUSH1 0xFF AND PUSH2 0xA5A SWAP1 PUSH2 0x1125 JUMP JUMPDEST DUP9 DUP13 DUP10 MLOAD DUP1 SWAP4 DUP2 SWAP3 MLOAD DUP1 SWAP3 PUSH2 0xA6E SWAP3 PUSH2 0xF9B JUMP JUMPDEST DUP2 ADD PUSH1 0x3 DUP2 MSTORE SUB ADD SWAP1 KECCAK256 SWAP6 DUP6 DUP8 ADD DUP1 SLOAD PUSH1 0xFF DUP2 AND ISZERO PUSH2 0xA8C SWAP1 PUSH2 0x121C JUMP JUMPDEST DUP13 ISZERO ISZERO PUSH1 0x8 SHL PUSH2 0xFF00 AND SWAP1 PUSH2 0xFFFF NOT AND OR PUSH1 0x1 OR SWAP1 SSTORE PUSH1 0x5 DUP8 ADD SLOAD PUSH1 0x6 DUP9 ADD SLOAD PUSH2 0xAB5 SWAP2 PUSH2 0x10C0 JUMP JUMPDEST SWAP7 DUP3 DUP1 DUP1 PUSH2 0x2710 SWAP14 DUP15 DUP13 PUSH1 0x2 SLOAD PUSH2 0xACB SWAP2 PUSH2 0x125B JUMP JUMPDEST DIV SWAP15 DUP16 SWAP1 DUP14 PUSH1 0x1 SLOAD PUSH2 0xADC SWAP2 PUSH2 0x125B JUMP JUMPDEST DIV PUSH1 0x80 MSTORE DUP7 DUP3 SLOAD AND GAS CALL PUSH2 0xAEE PUSH2 0x126E JUMP JUMPDEST POP PUSH2 0xAF8 SWAP1 PUSH2 0x129E JUMP JUMPDEST PUSH1 0x1 ADD SWAP1 DUP1 DUP3 SLOAD AND DUP1 ISZERO ISZERO SWAP1 DUP2 PUSH2 0xC76 JUMPI JUMPDEST POP ISZERO PUSH2 0xBDB JUMPI PUSH1 0x80 MLOAD SWAP2 SLOAD AND GAS CALL PUSH2 0xB20 PUSH2 0x126E JUMP JUMPDEST POP ISZERO PUSH2 0xB98 JUMPI POP SWAP2 PUSH32 0x65BE36B964EE454CE90DA3AE5DE836B70CDCB2FCCD458DBCC7171E7CE655B27E SWAP6 SWAP4 SWAP2 PUSH2 0xB67 PUSH2 0xB7B SWAP7 SWAP5 JUMPDEST PUSH2 0xB61 PUSH1 0x80 MLOAD DUP7 PUSH2 0x10C0 JUMP JUMPDEST SWAP1 PUSH2 0x12EA JUMP JUMPDEST SWAP2 DUP2 MLOAD SWAP7 DUP8 SWAP7 PUSH1 0xA0 DUP9 MSTORE PUSH1 0xA0 DUP9 ADD SWAP1 PUSH2 0xFF8 JUMP JUMPDEST SWAP5 ISZERO ISZERO SWAP1 DUP7 ADD MSTORE DUP5 ADD MSTORE PUSH1 0x60 DUP4 ADD MSTORE PUSH1 0x80 MLOAD PUSH1 0x80 DUP4 ADD MSTORE SUB SWAP1 LOG1 DUP1 RETURN JUMPDEST DUP3 MLOAD PUSH3 0x461BCD PUSH1 0xE5 SHL DUP2 MSTORE SWAP1 DUP2 ADD DUP5 SWAP1 MSTORE PUSH1 0x1A PUSH1 0x24 DUP3 ADD MSTORE PUSH32 0x4661696C656420746F2073656E642063726561746F7220666565000000000000 PUSH1 0x44 DUP3 ADD MSTORE PUSH1 0x64 SWAP1 REVERT JUMPDEST SWAP1 POP PUSH1 0x80 MLOAD SWAP1 DUP3 SLOAD AND GAS CALL PUSH2 0xBEE PUSH2 0x126E JUMP JUMPDEST POP ISZERO PUSH2 0xC27 JUMPI POP SWAP2 PUSH32 0x65BE36B964EE454CE90DA3AE5DE836B70CDCB2FCCD458DBCC7171E7CE655B27E SWAP6 SWAP4 SWAP2 PUSH2 0xB67 PUSH2 0xB7B SWAP7 SWAP5 PUSH2 0xB55 JUMP JUMPDEST DUP3 MLOAD PUSH3 0x461BCD PUSH1 0xE5 SHL DUP2 MSTORE SWAP1 DUP2 ADD DUP5 SWAP1 MSTORE PUSH1 0x23 PUSH1 0x24 DUP3 ADD MSTORE PUSH32 0x4661696C656420746F2073656E642063726561746F722066656520746F206164 PUSH1 0x44 DUP3 ADD MSTORE PUSH3 0x36B4B7 PUSH1 0xE9 SHL PUSH1 0x64 DUP3 ADD MSTORE PUSH1 0x84 SWAP1 REVERT JUMPDEST SWAP1 POP DUP2 DUP5 SLOAD AND EQ ISZERO CODESIZE PUSH2 0xB0A JUMP JUMPDEST POP CALLER DUP5 MSTORE PUSH1 0x5 PUSH1 0x20 MSTORE DUP2 DUP5 KECCAK256 SLOAD PUSH1 0xFF AND PUSH2 0xA1D JUMP JUMPDEST POP POP CALLVALUE PUSH2 0xDC JUMPI DUP1 PUSH1 0x3 NOT CALLDATASIZE ADD SLT PUSH2 0xDC JUMPI PUSH2 0xCB3 PUSH2 0xEAA JUMP JUMPDEST SWAP1 PUSH1 0x24 CALLDATALOAD DUP1 ISZERO ISZERO DUP1 SWAP2 SUB PUSH2 0x6C0 JUMPI DUP4 SLOAD PUSH32 0x966C160E1C4DBC7DF8D69AF4ACE01E9297C3CF016397B7914971F2FBFA32672D SWAP4 PUSH1 0x1 PUSH1 0x1 PUSH1 0xA0 SHL SUB SWAP2 PUSH2 0xCFB SWAP1 DUP4 AND CALLER EQ PUSH2 0x101D JUMP JUMPDEST AND SWAP1 DUP2 DUP6 MSTORE PUSH1 0x5 PUSH1 0x20 MSTORE DUP3 DUP6 KECCAK256 PUSH1 0xFF NOT DUP2 SLOAD AND PUSH1 0xFF DUP4 AND OR SWAP1 SSTORE DUP3 MLOAD SWAP2 DUP3 MSTORE PUSH1 0x20 DUP3 ADD MSTORE LOG1 DUP1 RETURN JUMPDEST SWAP1 POP PUSH1 0x20 CALLDATASIZE PUSH1 0x3 NOT ADD SLT PUSH2 0x456 JUMPI DUP1 CALLDATALOAD SWAP2 PUSH8 0xFFFFFFFFFFFFFFFF DUP4 GT PUSH2 0x6C0 JUMPI PUSH2 0x2D3 PUSH1 0x20 SWAP3 PUSH2 0xD77 PUSH32 0xFF36FF50E65334F5EA64776F95EC82CE2FBD32A145DD5258689E2027C1C61B3A SWAP6 CALLDATASIZE SWAP1 DUP4 ADD PUSH2 0xF19 JUMP JUMPDEST SWAP3 PUSH2 0xDA3 PUSH1 0xFF DUP3 MLOAD DUP8 DUP2 DUP9 MLOAD SWAP7 DUP3 DUP11 ADD SWAP8 PUSH2 0xD93 DUP2 DUP5 DUP12 PUSH2 0xF9B JUMP JUMPDEST DUP3 ADD SWAP1 DUP2 MSTORE SUB ADD SWAP1 KECCAK256 SLOAD AND PUSH2 0x1125 JUMP JUMPDEST CALLVALUE ISZERO ISZERO DUP1 PUSH2 0xE26 JUMPI JUMPDEST PUSH2 0xDB5 SWAP1 PUSH2 0x1074 JUMP JUMPDEST PUSH1 0x8 PUSH2 0xDD1 CALLVALUE PUSH1 0x1 SHR SWAP7 DUP8 SWAP5 DUP5 MLOAD DUP1 SWAP4 DUP2 SWAP3 DUP11 MLOAD SWAP3 DUP4 SWAP2 PUSH2 0xF9B JUMP JUMPDEST DUP2 ADD PUSH1 0x3 DUP2 MSTORE SUB ADD SWAP1 KECCAK256 PUSH1 0x5 DUP2 ADD PUSH2 0xDEA DUP6 DUP3 SLOAD PUSH2 0x10C0 JUMP JUMPDEST SWAP1 SSTORE PUSH1 0x6 DUP2 ADD PUSH2 0xDFB DUP6 DUP3 SLOAD PUSH2 0x10C0 JUMP JUMPDEST SWAP1 SSTORE PUSH1 0x7 DUP2 ADD PUSH2 0xE0C DUP6 DUP3 SLOAD PUSH2 0x10C0 JUMP JUMPDEST SWAP1 SSTORE ADD PUSH2 0xE1A DUP4 DUP3 SLOAD PUSH2 0x10C0 JUMP JUMPDEST SWAP1 SSTORE MLOAD SWAP4 DUP5 SWAP4 DUP5 PUSH2 0x1103 JUMP JUMPDEST POP CALLVALUE PUSH1 0x1 AND ISZERO PUSH2 0xDAC JUMP JUMPDEST POP POP CALLVALUE PUSH2 0xDC JUMPI DUP2 PUSH1 0x3 NOT CALLDATASIZE ADD SLT PUSH2 0xDC JUMPI PUSH1 0x20 SWAP1 PUSH1 0x2 SLOAD SWAP1 MLOAD SWAP1 DUP2 MSTORE RETURN JUMPDEST POP POP CALLVALUE PUSH2 0xDC JUMPI DUP2 PUSH1 0x3 NOT CALLDATASIZE ADD SLT PUSH2 0xDC JUMPI PUSH1 0x20 SWAP1 PUSH1 0x1 SLOAD SWAP1 MLOAD SWAP1 DUP2 MSTORE RETURN JUMPDEST DUP5 SWAP1 DUP5 CALLVALUE PUSH2 0x456 JUMPI PUSH1 0x20 CALLDATASIZE PUSH1 0x3 NOT ADD SLT PUSH2 0x456 JUMPI PUSH1 0x20 SWAP3 PUSH1 0xFF SWAP2 SWAP1 PUSH1 0x1 PUSH1 0x1 PUSH1 0xA0 SHL SUB PUSH2 0xE9A PUSH2 0xEAA JUMP JUMPDEST AND DUP2 MSTORE PUSH1 0x5 DUP6 MSTORE KECCAK256 SLOAD AND ISZERO ISZERO DUP2 MSTORE RETURN JUMPDEST PUSH1 0x4 CALLDATALOAD SWAP1 PUSH1 0x1 PUSH1 0x1 PUSH1 0xA0 SHL SUB DUP3 AND DUP3 SUB PUSH2 0xEC0 JUMPI JUMP JUMPDEST PUSH1 0x0 DUP1 REVERT JUMPDEST SWAP1 PUSH1 0x1F DUP1 NOT SWAP2 ADD AND DUP2 ADD SWAP1 DUP2 LT PUSH8 0xFFFFFFFFFFFFFFFF DUP3 GT OR PUSH2 0xEE7 JUMPI PUSH1 0x40 MSTORE JUMP JUMPDEST PUSH4 0x4E487B71 PUSH1 0xE0 SHL PUSH1 0x0 MSTORE PUSH1 0x41 PUSH1 0x4 MSTORE PUSH1 0x24 PUSH1 0x0 REVERT JUMPDEST PUSH8 0xFFFFFFFFFFFFFFFF DUP2 GT PUSH2 0xEE7 JUMPI PUSH1 0x1F ADD PUSH1 0x1F NOT AND PUSH1 0x20 ADD SWAP1 JUMP JUMPDEST DUP2 PUSH1 0x1F DUP3 ADD SLT ISZERO PUSH2 0xEC0 JUMPI DUP1 CALLDATALOAD SWAP1 PUSH2 0xF30 DUP3 PUSH2 0xEFD JUMP JUMPDEST SWAP3 PUSH2 0xF3E PUSH1 0x40 MLOAD SWAP5 DUP6 PUSH2 0xEC5 JUMP JUMPDEST DUP3 DUP5 MSTORE PUSH1 0x20 DUP4 DUP4 ADD ADD GT PUSH2 0xEC0 JUMPI DUP2 PUSH1 0x0 SWAP3 PUSH1 0x20 DUP1 SWAP4 ADD DUP4 DUP7 ADD CALLDATACOPY DUP4 ADD ADD MSTORE SWAP1 JUMP JUMPDEST PUSH1 0x40 PUSH1 0x3 NOT DUP3 ADD SLT PUSH2 0xEC0 JUMPI PUSH1 0x4 CALLDATALOAD SWAP1 PUSH8 0xFFFFFFFFFFFFFFFF DUP3 GT PUSH2 0xEC0 JUMPI PUSH2 0xF8B SWAP2 PUSH1 0x4 ADD PUSH2 0xF19 JUMP JUMPDEST SWAP1 PUSH1 0x24 CALLDATALOAD DUP1 ISZERO ISZERO DUP2 SUB PUSH2 0xEC0 JUMPI SWAP1 JUMP JUMPDEST PUSH1 0x0 JUMPDEST DUP4 DUP2 LT PUSH2 0xFAE JUMPI POP POP PUSH1 0x0 SWAP2 ADD MSTORE JUMP JUMPDEST DUP2 DUP2 ADD MLOAD DUP4 DUP3 ADD MSTORE PUSH1 0x20 ADD PUSH2 0xF9E JUMP JUMPDEST SWAP1 PUSH1 0x1 DUP3 DUP2 SHR SWAP3 AND DUP1 ISZERO PUSH2 0xFEE JUMPI JUMPDEST PUSH1 0x20 DUP4 LT EQ PUSH2 0xFD8 JUMPI JUMP JUMPDEST PUSH4 0x4E487B71 PUSH1 0xE0 SHL PUSH1 0x0 MSTORE PUSH1 0x22 PUSH1 0x4 MSTORE PUSH1 0x24 PUSH1 0x0 REVERT JUMPDEST SWAP2 PUSH1 0x7F AND SWAP2 PUSH2 0xFCD JUMP JUMPDEST SWAP1 PUSH1 0x20 SWAP2 PUSH2 0x1011 DUP2 MLOAD DUP1 SWAP3 DUP2 DUP6 MSTORE DUP6 DUP1 DUP7 ADD SWAP2 ADD PUSH2 0xF9B JUMP JUMPDEST PUSH1 0x1F ADD PUSH1 0x1F NOT AND ADD ADD SWAP1 JUMP JUMPDEST ISZERO PUSH2 0x1024 JUMPI JUMP JUMPDEST PUSH1 0x40 MLOAD PUSH3 0x461BCD PUSH1 0xE5 SHL DUP2 MSTORE PUSH1 0x20 PUSH1 0x4 DUP3 ADD MSTORE PUSH1 0x22 PUSH1 0x24 DUP3 ADD MSTORE PUSH32 0x4F6E6C792061646D696E2063616E20706572666F726D20746869732061637469 PUSH1 0x44 DUP3 ADD MSTORE PUSH2 0x37B7 PUSH1 0xF1 SHL PUSH1 0x64 DUP3 ADD MSTORE PUSH1 0x84 SWAP1 REVERT JUMPDEST ISZERO PUSH2 0x107B JUMPI JUMP JUMPDEST PUSH1 0x40 MLOAD PUSH3 0x461BCD PUSH1 0xE5 SHL DUP2 MSTORE PUSH1 0x20 PUSH1 0x4 DUP3 ADD MSTORE PUSH1 0x19 PUSH1 0x24 DUP3 ADD MSTORE PUSH32 0x53656564206D757374206265203E203020616E64206576656E00000000000000 PUSH1 0x44 DUP3 ADD MSTORE PUSH1 0x64 SWAP1 REVERT JUMPDEST SWAP2 SWAP1 DUP3 ADD DUP1 SWAP3 GT PUSH2 0x10CD JUMPI JUMP JUMPDEST PUSH4 0x4E487B71 PUSH1 0xE0 SHL PUSH1 0x0 MSTORE PUSH1 0x11 PUSH1 0x4 MSTORE PUSH1 0x24 PUSH1 0x0 REVERT JUMPDEST DUP2 ISZERO PUSH2 0x10ED JUMPI DIV SWAP1 JUMP JUMPDEST PUSH4 0x4E487B71 PUSH1 0xE0 SHL PUSH1 0x0 MSTORE PUSH1 0x12 PUSH1 0x4 MSTORE PUSH1 0x24 PUSH1 0x0 REVERT JUMPDEST PUSH2 0x111B PUSH1 0x40 SWAP3 SWAP6 SWAP5 SWAP4 SWAP6 PUSH1 0x60 DUP4 MSTORE PUSH1 0x60 DUP4 ADD SWAP1 PUSH2 0xFF8 JUMP JUMPDEST SWAP5 PUSH1 0x20 DUP3 ADD MSTORE ADD MSTORE JUMP JUMPDEST ISZERO PUSH2 0x112C JUMPI JUMP JUMPDEST PUSH1 0x40 MLOAD PUSH3 0x461BCD PUSH1 0xE5 SHL DUP2 MSTORE PUSH1 0x20 PUSH1 0x4 DUP3 ADD MSTORE PUSH1 0x19 PUSH1 0x24 DUP3 ADD MSTORE PUSH32 0x50726564696374696F6E20646F6573206E6F7420657869737400000000000000 PUSH1 0x44 DUP3 ADD MSTORE PUSH1 0x64 SWAP1 REVERT JUMPDEST DUP1 SLOAD DUP3 LT ISZERO PUSH2 0x1189 JUMPI PUSH1 0x0 MSTORE PUSH1 0x20 PUSH1 0x0 KECCAK256 ADD SWAP1 PUSH1 0x0 SWAP1 JUMP JUMPDEST PUSH4 0x4E487B71 PUSH1 0xE0 SHL PUSH1 0x0 MSTORE PUSH1 0x32 PUSH1 0x4 MSTORE PUSH1 0x24 PUSH1 0x0 REVERT JUMPDEST DUP1 SLOAD PUSH9 0x10000000000000000 DUP2 LT ISZERO PUSH2 0xEE7 JUMPI PUSH2 0x11C1 SWAP2 PUSH1 0x1 DUP3 ADD DUP2 SSTORE PUSH2 0x1171 JUMP JUMPDEST DUP2 SWAP3 SWAP2 SLOAD SWAP1 PUSH1 0x3 SHL SWAP2 PUSH1 0x1 DUP1 PUSH1 0xA0 SHL SUB DUP1 SWAP2 AND DUP4 SHL SWAP3 SHL NOT AND OR SWAP1 SSTORE JUMP JUMPDEST ISZERO PUSH2 0x11E6 JUMPI JUMP JUMPDEST PUSH1 0x40 MLOAD PUSH3 0x461BCD PUSH1 0xE5 SHL DUP2 MSTORE PUSH1 0x20 PUSH1 0x4 DUP3 ADD MSTORE PUSH1 0xE PUSH1 0x24 DUP3 ADD MSTORE PUSH14 0x139BDD08185D5D1A1BDC9A5E9959 PUSH1 0x92 SHL PUSH1 0x44 DUP3 ADD MSTORE PUSH1 0x64 SWAP1 REVERT JUMPDEST ISZERO PUSH2 0x1223 JUMPI JUMP JUMPDEST PUSH1 0x40 MLOAD PUSH3 0x461BCD PUSH1 0xE5 SHL DUP2 MSTORE PUSH1 0x20 PUSH1 0x4 DUP3 ADD MSTORE PUSH1 0x10 PUSH1 0x24 DUP3 ADD MSTORE PUSH16 0x105B1C9958591E481C995CDBDB1D9959 PUSH1 0x82 SHL PUSH1 0x44 DUP3 ADD MSTORE PUSH1 0x64 SWAP1 REVERT JUMPDEST DUP2 DUP2 MUL SWAP3 SWAP2 DUP2 ISZERO SWAP2 DUP5 DIV EQ OR ISZERO PUSH2 0x10CD JUMPI JUMP JUMPDEST RETURNDATASIZE ISZERO PUSH2 0x1299 JUMPI RETURNDATASIZE SWAP1 PUSH2 0x127F DUP3 PUSH2 0xEFD JUMP JUMPDEST SWAP2 PUSH2 0x128D PUSH1 0x40 MLOAD SWAP4 DUP5 PUSH2 0xEC5 JUMP JUMPDEST DUP3 MSTORE RETURNDATASIZE PUSH1 0x0 PUSH1 0x20 DUP5 ADD RETURNDATACOPY JUMP JUMPDEST PUSH1 0x60 SWAP1 JUMP JUMPDEST ISZERO PUSH2 0x12A5 JUMPI JUMP JUMPDEST PUSH1 0x40 MLOAD PUSH3 0x461BCD PUSH1 0xE5 SHL DUP2 MSTORE PUSH1 0x20 PUSH1 0x4 DUP3 ADD MSTORE PUSH1 0x1B PUSH1 0x24 DUP3 ADD MSTORE PUSH32 0x4661696C656420746F2073656E6420706C6174666F726D206665650000000000 PUSH1 0x44 DUP3 ADD MSTORE PUSH1 0x64 SWAP1 REVERT JUMPDEST SWAP2 SWAP1 DUP3 SUB SWAP2 DUP3 GT PUSH2 0x10CD JUMPI JUMP JUMPDEST PUSH1 0x0 NOT DUP2 EQ PUSH2 0x10CD JUMPI PUSH1 0x1 ADD SWAP1 JUMP JUMPDEST ISZERO PUSH2 0x130D JUMPI JUMP JUMPDEST PUSH1 0x40 MLOAD PUSH3 0x461BCD PUSH1 0xE5 SHL DUP2 MSTORE PUSH1 0x20 PUSH1 0x4 DUP3 ADD MSTORE PUSH1 0xF PUSH1 0x24 DUP3 ADD MSTORE PUSH15 0x151C985B9CD9995C8819985A5B1959 PUSH1 0x8A SHL PUSH1 0x44 DUP3 ADD MSTORE PUSH1 0x64 SWAP1 REVERT JUMPDEST PUSH2 0x135C PUSH1 0x40 SWAP3 SWAP6 SWAP5 SWAP4 SWAP6 PUSH1 0x60 DUP4 MSTORE PUSH1 0x60 DUP4 ADD SWAP1 PUSH2 0xFF8 JUMP JUMPDEST PUSH1 0x1 PUSH1 0x1 PUSH1 0xA0 SHL SUB SWAP1 SWAP6 AND PUSH1 0x20 DUP3 ADD MSTORE ADD MSTORE JUMP JUMPDEST SWAP1 PUSH1 0x40 MLOAD SWAP2 DUP3 DUP2 SLOAD SWAP2 DUP3 DUP3 MSTORE PUSH1 0x20 SWAP3 DUP4 DUP4 ADD SWAP2 PUSH1 0x0 MSTORE DUP4 PUSH1 0x0 KECCAK256 SWAP4 PUSH1 0x0 SWAP1 JUMPDEST DUP3 DUP3 LT PUSH2 0x13A7 JUMPI POP POP POP PUSH2 0x13A5 SWAP3 POP SUB DUP4 PUSH2 0xEC5 JUMP JUMPDEST JUMP JUMPDEST DUP6 SLOAD PUSH1 0x1 PUSH1 0x1 PUSH1 0xA0 SHL SUB AND DUP5 MSTORE PUSH1 0x1 SWAP6 DUP7 ADD SWAP6 DUP9 SWAP6 POP SWAP4 DUP2 ADD SWAP4 SWAP1 SWAP2 ADD SWAP1 PUSH2 0x138F JUMP JUMPDEST SWAP1 PUSH1 0x40 MLOAD PUSH1 0x20 DUP2 DUP5 MLOAD PUSH2 0x13E0 DUP2 DUP4 DUP6 DUP10 ADD PUSH2 0xF9B JUMP JUMPDEST DUP2 ADD PUSH1 0x3 DUP2 MSTORE SUB ADD SWAP1 KECCAK256 SWAP1 PUSH1 0xFF PUSH1 0x4 DUP4 ADD SLOAD AND ISZERO PUSH2 0x1808 JUMPI PUSH1 0xFF PUSH1 0xF DUP4 ADD SLOAD AND PUSH2 0x17CA JUMPI PUSH1 0x0 SWAP1 PUSH1 0x5 DUP4 ADD DUP1 SLOAD PUSH2 0x141D PUSH1 0x6 DUP7 ADD SWAP2 DUP3 SLOAD SWAP1 PUSH2 0x10C0 JUMP JUMPDEST SWAP4 PUSH2 0x144A PUSH2 0x2710 PUSH2 0x7DA DUP2 PUSH2 0x1434 PUSH1 0x2 SLOAD DUP11 PUSH2 0x125B JUMP JUMPDEST DIV SWAP2 PUSH2 0x1442 PUSH1 0x1 SLOAD DUP11 PUSH2 0x125B JUMP JUMPDEST DIV SWAP2 DUP9 PUSH2 0x12EA JUMP JUMPDEST SWAP5 PUSH1 0xFF PUSH1 0xD DUP9 ADD SLOAD AND PUSH2 0x1644 JUMPI POP POP PUSH1 0x4 DUP6 ADD SLOAD PUSH1 0x8 SHR PUSH1 0xFF AND ISZERO PUSH2 0x1626 JUMPI POP PUSH2 0x1486 PUSH2 0x1479 PUSH1 0x9 DUP7 ADD PUSH2 0x1370 JUMP JUMPDEST SWAP2 SLOAD PUSH1 0x7 DUP7 ADD SLOAD SWAP1 PUSH2 0x12EA JUMP JUMPDEST SWAP3 DUP2 MLOAD SWAP4 DUP5 ISZERO DUP1 ISZERO PUSH2 0x161E JUMPI JUMPDEST PUSH2 0x1606 JUMPI PUSH2 0x14A6 PUSH1 0xE DUP8 ADD SLOAD SWAP5 DUP6 PUSH2 0x10C0 JUMP JUMPDEST SWAP4 DUP6 DUP6 GT PUSH2 0x15FE JUMPI JUMPDEST DUP5 DUP2 LT PUSH2 0x1516 JUMPI POP POP POP POP DUP1 PUSH1 0xE DUP5 ADD SSTORE LT ISZERO PUSH2 0x14CA JUMPI POP POP JUMP JUMPDEST PUSH1 0xF ADD DUP1 SLOAD PUSH1 0xFF NOT AND PUSH1 0x1 OR SWAP1 SSTORE PUSH1 0x40 MLOAD PUSH1 0x20 DUP1 DUP3 MSTORE PUSH32 0x9EC2BE866260137327142D7404B7FCC5CC8498409BC29470D3E480B610431858 SWAP3 DUP3 SWAP2 PUSH2 0x1511 SWAP2 SWAP1 DUP4 ADD SWAP1 PUSH2 0xFF8 JUMP JUMPDEST SUB SWAP1 LOG1 JUMP JUMPDEST DUP4 MLOAD DUP2 LT ISZERO PUSH2 0x1189 JUMPI PUSH2 0x1576 SWAP1 DUP3 PUSH1 0x1 DUP1 PUSH1 0xA0 SHL SUB PUSH1 0x20 DUP4 PUSH1 0x5 SHL DUP9 ADD ADD MLOAD AND DUP11 PUSH1 0x0 PUSH1 0xFF PUSH1 0x4 DUP14 ADD SLOAD PUSH1 0x8 SHR AND PUSH1 0x0 EQ PUSH2 0x15E5 JUMPI POP POP DUP1 PUSH1 0x0 MSTORE PUSH1 0xB DUP11 ADD PUSH1 0x20 MSTORE DUP11 PUSH1 0x40 PUSH1 0x0 KECCAK256 PUSH1 0x0 DUP2 SLOAD SWAP2 SSTORE JUMPDEST DUP8 DUP2 PUSH2 0x157B JUMPI JUMPDEST POP POP POP POP POP PUSH2 0x12F7 JUMP JUMPDEST PUSH2 0x14AF JUMP JUMPDEST PUSH32 0x1DBDB822C5640C362E09F214D7CBC87A4C65998F48CBEF088E5BB6F702032839 SWAP5 PUSH2 0x15AD PUSH2 0x15B2 SWAP3 PUSH2 0x15D8 SWAP5 PUSH2 0x125B JUMP JUMPDEST PUSH2 0x10E3 JUMP JUMPDEST PUSH2 0x15CC PUSH1 0x0 DUP1 DUP1 DUP1 DUP6 DUP10 GAS CALL PUSH2 0x15C6 PUSH2 0x126E JUMP JUMPDEST POP PUSH2 0x1306 JUMP JUMPDEST PUSH1 0x40 MLOAD SWAP4 DUP5 SWAP4 DUP5 PUSH2 0x1344 JUMP JUMPDEST SUB SWAP1 LOG1 DUP3 CODESIZE DUP11 DUP2 DUP8 PUSH2 0x156C JUMP JUMPDEST DUP1 DUP4 PUSH1 0x40 SWAP3 MSTORE PUSH1 0xC DUP14 ADD PUSH1 0x20 MSTORE KECCAK256 PUSH1 0x0 DUP2 SLOAD SWAP2 SSTORE PUSH2 0x1565 JUMP JUMPDEST DUP6 SWAP5 POP PUSH2 0x14AF JUMP JUMPDEST POP POP POP PUSH1 0xF SWAP1 SWAP3 ADD DUP1 SLOAD PUSH1 0xFF NOT AND PUSH1 0x1 OR SWAP1 SSTORE POP POP POP JUMP JUMPDEST POP DUP1 ISZERO PUSH2 0x1493 JUMP JUMPDEST SWAP1 POP PUSH2 0x1486 PUSH2 0x1637 PUSH1 0xA DUP7 ADD PUSH2 0x1370 JUMP JUMPDEST SWAP2 SLOAD PUSH1 0x8 DUP7 ADD SLOAD SWAP1 PUSH2 0x12EA JUMP JUMPDEST SWAP5 SWAP3 POP SWAP1 POP PUSH1 0x9 DUP6 ADD SWAP2 DUP3 SLOAD SWAP5 PUSH1 0xA DUP8 ADD SWAP3 PUSH2 0x1661 DUP5 SLOAD DUP9 PUSH2 0x10C0 JUMP JUMPDEST SWAP7 PUSH1 0xE DUP10 ADD SWAP6 PUSH2 0x1673 DUP8 SLOAD SWAP9 DUP10 PUSH2 0x10C0 JUMP JUMPDEST SWAP8 DUP10 DUP10 GT PUSH2 0x17C2 JUMPI JUMPDEST SWAP1 DUP9 SWAP8 SWAP7 SWAP6 SWAP5 SWAP4 SWAP3 SWAP2 JUMPDEST DUP9 DUP2 LT PUSH2 0x169F JUMPI POP POP POP POP POP POP POP SSTORE LT ISZERO PUSH2 0x14CA JUMPI POP POP JUMP JUMPDEST DUP4 PUSH2 0x16F7 SWAP3 SWAP4 SWAP5 SWAP6 SWAP7 SWAP8 SWAP9 SWAP10 POP POP DUP4 DUP2 LT PUSH1 0x0 EQ PUSH2 0x1784 JUMPI DUP12 DUP14 PUSH2 0x16C3 DUP4 DUP7 PUSH2 0x1171 JUMP JUMPDEST PUSH1 0x1 DUP1 PUSH1 0xA0 SHL SUB SWAP2 SLOAD SWAP1 PUSH1 0x3 SHL SHR AND SWAP1 DUP2 DUP9 MSTORE PUSH1 0xB DUP4 ADD PUSH1 0x20 MSTORE PUSH1 0x40 DUP9 KECCAK256 SWAP3 DUP9 DUP5 SLOAD SWAP5 SSTORE JUMPDEST DUP4 PUSH2 0x1705 JUMPI JUMPDEST POP POP POP POP PUSH2 0x12F7 JUMP JUMPDEST SWAP1 DUP9 SWAP8 SWAP7 SWAP6 SWAP5 SWAP4 SWAP3 SWAP2 PUSH2 0x1686 JUMP JUMPDEST DUP1 PUSH1 0x8 PUSH2 0x1719 PUSH1 0x7 PUSH2 0x1722 SWAP5 ADD SLOAD DUP14 PUSH2 0x12EA JUMP JUMPDEST SWAP2 ADD SLOAD SWAP1 PUSH2 0x12EA JUMP JUMPDEST SWAP3 DUP11 DUP5 PUSH2 0x1732 JUMPI JUMPDEST POP POP DUP15 PUSH2 0x16EE JUMP JUMPDEST PUSH32 0x1DBDB822C5640C362E09F214D7CBC87A4C65998F48CBEF088E5BB6F702032839 SWAP5 PUSH2 0x15AD PUSH2 0x1764 SWAP3 PUSH2 0x1777 SWAP5 PUSH2 0x125B JUMP JUMPDEST PUSH2 0x15CC DUP11 DUP1 DUP1 DUP1 DUP6 DUP10 GAS CALL PUSH2 0x15C6 PUSH2 0x126E JUMP JUMPDEST SUB SWAP1 LOG1 CODESIZE DUP1 DUP15 DUP2 DUP11 PUSH2 0x172A JUMP JUMPDEST DUP12 DUP14 PUSH2 0x1799 PUSH2 0x1793 DUP8 DUP6 PUSH2 0x12EA JUMP JUMPDEST DUP12 PUSH2 0x1171 JUMP JUMPDEST PUSH1 0x1 DUP1 PUSH1 0xA0 SHL SUB SWAP2 SLOAD SWAP1 PUSH1 0x3 SHL SHR AND SWAP1 DUP2 DUP9 MSTORE PUSH1 0xC DUP4 ADD PUSH1 0x20 MSTORE PUSH1 0x40 DUP9 KECCAK256 SWAP3 DUP9 DUP5 SLOAD SWAP5 SSTORE PUSH2 0x16E8 JUMP JUMPDEST DUP10 SWAP9 POP PUSH2 0x167C JUMP JUMPDEST PUSH1 0x40 MLOAD PUSH3 0x461BCD PUSH1 0xE5 SHL DUP2 MSTORE PUSH1 0x20 PUSH1 0x4 DUP3 ADD MSTORE PUSH1 0x16 PUSH1 0x24 DUP3 ADD MSTORE PUSH22 0x105B1C9958591E48199D5B1B1E481C185A59081BDD5D PUSH1 0x52 SHL PUSH1 0x44 DUP3 ADD MSTORE PUSH1 0x64 SWAP1 REVERT JUMPDEST PUSH1 0x40 MLOAD PUSH3 0x461BCD PUSH1 0xE5 SHL DUP2 MSTORE PUSH1 0x20 PUSH1 0x4 DUP3 ADD MSTORE PUSH1 0x1B PUSH1 0x24 DUP3 ADD MSTORE PUSH32 0x50726564696374696F6E206E6F74207265736F6C766564207965740000000000 PUSH1 0x44 DUP3 ADD MSTORE PUSH1 0x64 SWAP1 REVERT INVALID LOG2 PUSH5 0x6970667358 0x22 SLT KECCAK256 0x5C INVALID CALLVALUE SHR SWAP5 GT 0x1F SDIV CALLDATASIZE 0xD7 0xE2 DUP13 0xDE 0xB3 TIMESTAMP 0xA8 0xDE 0xA5 0x2F JUMPI 0x4E 0xE9 SIGNEXTEND SWAP3 0xDF ORIGIN 0xDD 0xDD RETURNDATACOPY 0xD5 0xED 0xBE PUSH5 0x736F6C6343 STOP ADDMOD EQ STOP CALLER "},"methodIdentifiers":{"admin()":"f851a440","createPrediction(string,uint256,uint256)":"f33c109d","creatorFeeBps()":"17773ebb","distributeWinnings(string,uint256)":"af69bdce","operators(address)":"13e7c9d8","placeBet(string,bool)":"b99f0db0","platformFeeBps()":"22dcd13e","predictionExists(string)":"85495028","predictions(string)":"7b4fd3e3","resolvePrediction(string,bool)":"7321c829","resolveVoid(string)":"964289fc","seedPrediction(string)":"4a900048","setOperator(address,bool)":"558a7297"}}}}}