{
  "_format": "hh-sol-artifact-1",
  "contractName": "PredictionBattleV9",
  "sourceName": "contracts/PredictionBattleV9.sol",
  "abi": [
    {
      "inputs": [
        {
          "internalType": "address",
          "name": "_admin",
          "type": "address"
        },
        {
          "internalType": "address",
          "name": "_operator",
          "type": "address"
        },
        {
          "internalType": "address",
          "name": "_treasury",
          "type": "address"
        },
        {
          "internalType": "address",
          "name": "_usdcToken",
          "type": "address"
        }
      ],
      "stateMutability": "nonpayable",
      "type": "constructor"
    },
    {
      "inputs": [],
      "name": "AccessControlBadConfirmation",
      "type": "error"
    },
    {
      "inputs": [
        {
          "internalType": "address",
          "name": "account",
          "type": "address"
        },
        {
          "internalType": "bytes32",
          "name": "neededRole",
          "type": "bytes32"
        }
      ],
      "name": "AccessControlUnauthorizedAccount",
      "type": "error"
    },
    {
      "inputs": [],
      "name": "EnforcedPause",
      "type": "error"
    },
    {
      "inputs": [],
      "name": "ExpectedPause",
      "type": "error"
    },
    {
      "inputs": [],
      "name": "ReentrancyGuardReentrantCall",
      "type": "error"
    },
    {
      "inputs": [
        {
          "internalType": "address",
          "name": "token",
          "type": "address"
        }
      ],
      "name": "SafeERC20FailedOperation",
      "type": "error"
    },
    {
      "anonymous": false,
      "inputs": [
        {
          "indexed": true,
          "internalType": "string",
          "name": "id",
          "type": "string"
        },
        {
          "indexed": true,
          "internalType": "address",
          "name": "user",
          "type": "address"
        },
        {
          "indexed": false,
          "internalType": "bool",
          "name": "side",
          "type": "bool"
        },
        {
          "indexed": false,
          "internalType": "uint256",
          "name": "amount",
          "type": "uint256"
        },
        {
          "indexed": false,
          "internalType": "uint256",
          "name": "shares",
          "type": "uint256"
        },
        {
          "indexed": false,
          "internalType": "address",
          "name": "referrer",
          "type": "address"
        },
        {
          "indexed": false,
          "internalType": "uint256",
          "name": "weight",
          "type": "uint256"
        }
      ],
      "name": "BetPlaced",
      "type": "event"
    },
    {
      "anonymous": false,
      "inputs": [
        {
          "indexed": true,
          "internalType": "address",
          "name": "user",
          "type": "address"
        },
        {
          "indexed": false,
          "internalType": "uint256",
          "name": "amount",
          "type": "uint256"
        }
      ],
      "name": "BondWithdrawn",
      "type": "event"
    },
    {
      "anonymous": false,
      "inputs": [
        {
          "indexed": true,
          "internalType": "address",
          "name": "creator",
          "type": "address"
        },
        {
          "indexed": false,
          "internalType": "uint256",
          "name": "amount",
          "type": "uint256"
        }
      ],
      "name": "CreatorFeesWithdrawn",
      "type": "event"
    },
    {
      "anonymous": false,
      "inputs": [
        {
          "indexed": true,
          "internalType": "string",
          "name": "id",
          "type": "string"
        },
        {
          "indexed": true,
          "internalType": "address",
          "name": "winner",
          "type": "address"
        },
        {
          "indexed": false,
          "internalType": "uint256",
          "name": "totalBondReward",
          "type": "uint256"
        },
        {
          "indexed": false,
          "internalType": "bool",
          "name": "finalResult",
          "type": "bool"
        }
      ],
      "name": "DisputeResolved",
      "type": "event"
    },
    {
      "anonymous": false,
      "inputs": [
        {
          "indexed": true,
          "internalType": "address",
          "name": "treasury",
          "type": "address"
        },
        {
          "indexed": false,
          "internalType": "uint256",
          "name": "amount",
          "type": "uint256"
        }
      ],
      "name": "HouseFeeWithdrawn",
      "type": "event"
    },
    {
      "anonymous": false,
      "inputs": [
        {
          "indexed": true,
          "internalType": "string",
          "name": "id",
          "type": "string"
        },
        {
          "indexed": true,
          "internalType": "address",
          "name": "creator",
          "type": "address"
        },
        {
          "indexed": false,
          "internalType": "uint256",
          "name": "deadlineTime",
          "type": "uint256"
        },
        {
          "indexed": false,
          "internalType": "uint256",
          "name": "seedAmount",
          "type": "uint256"
        }
      ],
      "name": "MarketCreated",
      "type": "event"
    },
    {
      "anonymous": false,
      "inputs": [
        {
          "indexed": true,
          "internalType": "string",
          "name": "id",
          "type": "string"
        },
        {
          "indexed": false,
          "internalType": "bool",
          "name": "result",
          "type": "bool"
        },
        {
          "indexed": false,
          "internalType": "uint256",
          "name": "winnerPool",
          "type": "uint256"
        }
      ],
      "name": "MarketResolved",
      "type": "event"
    },
    {
      "anonymous": false,
      "inputs": [
        {
          "indexed": true,
          "internalType": "string",
          "name": "marketId",
          "type": "string"
        },
        {
          "indexed": false,
          "internalType": "enum PredictionBattleV9.MarketState",
          "name": "oldState",
          "type": "uint8"
        },
        {
          "indexed": false,
          "internalType": "enum PredictionBattleV9.MarketState",
          "name": "newState",
          "type": "uint8"
        }
      ],
      "name": "MarketStateChanged",
      "type": "event"
    },
    {
      "anonymous": false,
      "inputs": [
        {
          "indexed": true,
          "internalType": "string",
          "name": "id",
          "type": "string"
        }
      ],
      "name": "MarketVoided",
      "type": "event"
    },
    {
      "anonymous": false,
      "inputs": [
        {
          "indexed": true,
          "internalType": "string",
          "name": "id",
          "type": "string"
        },
        {
          "indexed": true,
          "internalType": "address",
          "name": "challenger",
          "type": "address"
        },
        {
          "indexed": false,
          "internalType": "uint256",
          "name": "bond",
          "type": "uint256"
        },
        {
          "indexed": false,
          "internalType": "string",
          "name": "evidence",
          "type": "string"
        }
      ],
      "name": "OutcomeChallenged",
      "type": "event"
    },
    {
      "anonymous": false,
      "inputs": [
        {
          "indexed": true,
          "internalType": "string",
          "name": "id",
          "type": "string"
        },
        {
          "indexed": true,
          "internalType": "address",
          "name": "proposer",
          "type": "address"
        },
        {
          "indexed": false,
          "internalType": "uint256",
          "name": "reward",
          "type": "uint256"
        }
      ],
      "name": "OutcomeFinalized",
      "type": "event"
    },
    {
      "anonymous": false,
      "inputs": [
        {
          "indexed": true,
          "internalType": "string",
          "name": "id",
          "type": "string"
        },
        {
          "indexed": true,
          "internalType": "address",
          "name": "proposer",
          "type": "address"
        },
        {
          "indexed": false,
          "internalType": "bool",
          "name": "result",
          "type": "bool"
        },
        {
          "indexed": false,
          "internalType": "uint256",
          "name": "bond",
          "type": "uint256"
        },
        {
          "indexed": false,
          "internalType": "uint256",
          "name": "disputeEndTime",
          "type": "uint256"
        },
        {
          "indexed": false,
          "internalType": "string",
          "name": "evidence",
          "type": "string"
        }
      ],
      "name": "OutcomeProposed",
      "type": "event"
    },
    {
      "anonymous": false,
      "inputs": [
        {
          "indexed": false,
          "internalType": "address",
          "name": "account",
          "type": "address"
        }
      ],
      "name": "Paused",
      "type": "event"
    },
    {
      "anonymous": false,
      "inputs": [
        {
          "indexed": true,
          "internalType": "string",
          "name": "id",
          "type": "string"
        },
        {
          "indexed": true,
          "internalType": "address",
          "name": "user",
          "type": "address"
        },
        {
          "indexed": false,
          "internalType": "uint256",
          "name": "amount",
          "type": "uint256"
        }
      ],
      "name": "PayoutClaimed",
      "type": "event"
    },
    {
      "anonymous": false,
      "inputs": [
        {
          "indexed": true,
          "internalType": "address",
          "name": "referrer",
          "type": "address"
        },
        {
          "indexed": false,
          "internalType": "uint256",
          "name": "amount",
          "type": "uint256"
        }
      ],
      "name": "ReferrerFeesWithdrawn",
      "type": "event"
    },
    {
      "anonymous": false,
      "inputs": [
        {
          "indexed": true,
          "internalType": "string",
          "name": "marketId",
          "type": "string"
        },
        {
          "indexed": true,
          "internalType": "address",
          "name": "proposer",
          "type": "address"
        },
        {
          "indexed": false,
          "internalType": "uint256",
          "name": "reward",
          "type": "uint256"
        }
      ],
      "name": "ReporterRewardClaimed",
      "type": "event"
    },
    {
      "anonymous": false,
      "inputs": [
        {
          "indexed": true,
          "internalType": "bytes32",
          "name": "role",
          "type": "bytes32"
        },
        {
          "indexed": true,
          "internalType": "bytes32",
          "name": "previousAdminRole",
          "type": "bytes32"
        },
        {
          "indexed": true,
          "internalType": "bytes32",
          "name": "newAdminRole",
          "type": "bytes32"
        }
      ],
      "name": "RoleAdminChanged",
      "type": "event"
    },
    {
      "anonymous": false,
      "inputs": [
        {
          "indexed": true,
          "internalType": "bytes32",
          "name": "role",
          "type": "bytes32"
        },
        {
          "indexed": true,
          "internalType": "address",
          "name": "account",
          "type": "address"
        },
        {
          "indexed": true,
          "internalType": "address",
          "name": "sender",
          "type": "address"
        }
      ],
      "name": "RoleGranted",
      "type": "event"
    },
    {
      "anonymous": false,
      "inputs": [
        {
          "indexed": true,
          "internalType": "bytes32",
          "name": "role",
          "type": "bytes32"
        },
        {
          "indexed": true,
          "internalType": "address",
          "name": "account",
          "type": "address"
        },
        {
          "indexed": true,
          "internalType": "address",
          "name": "sender",
          "type": "address"
        }
      ],
      "name": "RoleRevoked",
      "type": "event"
    },
    {
      "anonymous": false,
      "inputs": [
        {
          "indexed": true,
          "internalType": "string",
          "name": "id",
          "type": "string"
        },
        {
          "indexed": true,
          "internalType": "address",
          "name": "creator",
          "type": "address"
        },
        {
          "indexed": false,
          "internalType": "uint256",
          "name": "amount",
          "type": "uint256"
        }
      ],
      "name": "SeedWithdrawn",
      "type": "event"
    },
    {
      "anonymous": false,
      "inputs": [
        {
          "indexed": true,
          "internalType": "address",
          "name": "newTreasury",
          "type": "address"
        },
        {
          "indexed": false,
          "internalType": "uint256",
          "name": "executeTime",
          "type": "uint256"
        }
      ],
      "name": "TreasuryChangeProposed",
      "type": "event"
    },
    {
      "anonymous": false,
      "inputs": [
        {
          "indexed": true,
          "internalType": "address",
          "name": "oldTreasury",
          "type": "address"
        },
        {
          "indexed": true,
          "internalType": "address",
          "name": "newTreasury",
          "type": "address"
        }
      ],
      "name": "TreasuryUpdated",
      "type": "event"
    },
    {
      "anonymous": false,
      "inputs": [
        {
          "indexed": false,
          "internalType": "address",
          "name": "account",
          "type": "address"
        }
      ],
      "name": "Unpaused",
      "type": "event"
    },
    {
      "inputs": [],
      "name": "DEFAULT_ADMIN_ROLE",
      "outputs": [
        {
          "internalType": "bytes32",
          "name": "",
          "type": "bytes32"
        }
      ],
      "stateMutability": "view",
      "type": "function"
    },
    {
      "inputs": [],
      "name": "DISPUTE_WINDOW",
      "outputs": [
        {
          "internalType": "uint256",
          "name": "",
          "type": "uint256"
        }
      ],
      "stateMutability": "view",
      "type": "function"
    },
    {
      "inputs": [],
      "name": "EMERGENCY_TIMEOUT",
      "outputs": [
        {
          "internalType": "uint256",
          "name": "",
          "type": "uint256"
        }
      ],
      "stateMutability": "view",
      "type": "function"
    },
    {
      "inputs": [],
      "name": "FEE_DENOMINATOR",
      "outputs": [
        {
          "internalType": "uint256",
          "name": "",
          "type": "uint256"
        }
      ],
      "stateMutability": "view",
      "type": "function"
    },
    {
      "inputs": [],
      "name": "MAX_BETTORS_PER_SIDE",
      "outputs": [
        {
          "internalType": "uint256",
          "name": "",
          "type": "uint256"
        }
      ],
      "stateMutability": "view",
      "type": "function"
    },
    {
      "inputs": [],
      "name": "MAX_WEIGHT",
      "outputs": [
        {
          "internalType": "uint256",
          "name": "",
          "type": "uint256"
        }
      ],
      "stateMutability": "view",
      "type": "function"
    },
    {
      "inputs": [],
      "name": "MIN_BET_AMOUNT",
      "outputs": [
        {
          "internalType": "uint256",
          "name": "",
          "type": "uint256"
        }
      ],
      "stateMutability": "view",
      "type": "function"
    },
    {
      "inputs": [],
      "name": "MIN_BOND",
      "outputs": [
        {
          "internalType": "uint256",
          "name": "",
          "type": "uint256"
        }
      ],
      "stateMutability": "view",
      "type": "function"
    },
    {
      "inputs": [],
      "name": "MIN_MARKET_INTERVAL",
      "outputs": [
        {
          "internalType": "uint256",
          "name": "",
          "type": "uint256"
        }
      ],
      "stateMutability": "view",
      "type": "function"
    },
    {
      "inputs": [],
      "name": "MIN_WEIGHT",
      "outputs": [
        {
          "internalType": "uint256",
          "name": "",
          "type": "uint256"
        }
      ],
      "stateMutability": "view",
      "type": "function"
    },
    {
      "inputs": [],
      "name": "OPERATOR_ROLE",
      "outputs": [
        {
          "internalType": "bytes32",
          "name": "",
          "type": "bytes32"
        }
      ],
      "stateMutability": "view",
      "type": "function"
    },
    {
      "inputs": [],
      "name": "REPORTER_REWARD_BPS",
      "outputs": [
        {
          "internalType": "uint256",
          "name": "",
          "type": "uint256"
        }
      ],
      "stateMutability": "view",
      "type": "function"
    },
    {
      "inputs": [],
      "name": "SHARE_PRECISION",
      "outputs": [
        {
          "internalType": "uint256",
          "name": "",
          "type": "uint256"
        }
      ],
      "stateMutability": "view",
      "type": "function"
    },
    {
      "inputs": [],
      "name": "TREASURY_TIMELOCK",
      "outputs": [
        {
          "internalType": "uint256",
          "name": "",
          "type": "uint256"
        }
      ],
      "stateMutability": "view",
      "type": "function"
    },
    {
      "inputs": [
        {
          "internalType": "string",
          "name": "_marketId",
          "type": "string"
        },
        {
          "internalType": "enum PredictionBattleV9.MarketOutcome",
          "name": "_outcome",
          "type": "uint8"
        },
        {
          "internalType": "bool",
          "name": "_slashCreator",
          "type": "bool"
        }
      ],
      "name": "adminResolve",
      "outputs": [],
      "stateMutability": "nonpayable",
      "type": "function"
    },
    {
      "inputs": [
        {
          "internalType": "string",
          "name": "_marketId",
          "type": "string"
        },
        {
          "internalType": "string",
          "name": "_evidenceUrl",
          "type": "string"
        },
        {
          "internalType": "uint256",
          "name": "_bondAmount",
          "type": "uint256"
        }
      ],
      "name": "challengeOutcome",
      "outputs": [],
      "stateMutability": "nonpayable",
      "type": "function"
    },
    {
      "inputs": [
        {
          "internalType": "string",
          "name": "_marketId",
          "type": "string"
        }
      ],
      "name": "claimFallback",
      "outputs": [],
      "stateMutability": "nonpayable",
      "type": "function"
    },
    {
      "inputs": [
        {
          "internalType": "string",
          "name": "_marketId",
          "type": "string"
        }
      ],
      "name": "claimReporterReward",
      "outputs": [],
      "stateMutability": "nonpayable",
      "type": "function"
    },
    {
      "inputs": [
        {
          "internalType": "string",
          "name": "_marketId",
          "type": "string"
        }
      ],
      "name": "claimWinnings",
      "outputs": [],
      "stateMutability": "nonpayable",
      "type": "function"
    },
    {
      "inputs": [
        {
          "internalType": "address",
          "name": "",
          "type": "address"
        }
      ],
      "name": "claimableBonds",
      "outputs": [
        {
          "internalType": "uint256",
          "name": "",
          "type": "uint256"
        }
      ],
      "stateMutability": "view",
      "type": "function"
    },
    {
      "inputs": [
        {
          "internalType": "string",
          "name": "_question",
          "type": "string"
        },
        {
          "internalType": "uint256",
          "name": "_usdcSeedAmount",
          "type": "uint256"
        },
        {
          "internalType": "uint256",
          "name": "_durationSeconds",
          "type": "uint256"
        },
        {
          "internalType": "uint256",
          "name": "_bonusDurationSeconds",
          "type": "uint256"
        }
      ],
      "name": "createMarket",
      "outputs": [
        {
          "internalType": "string",
          "name": "",
          "type": "string"
        }
      ],
      "stateMutability": "nonpayable",
      "type": "function"
    },
    {
      "inputs": [
        {
          "internalType": "address",
          "name": "",
          "type": "address"
        }
      ],
      "name": "creatorBalance",
      "outputs": [
        {
          "internalType": "uint256",
          "name": "",
          "type": "uint256"
        }
      ],
      "stateMutability": "view",
      "type": "function"
    },
    {
      "inputs": [],
      "name": "creatorFeeBps",
      "outputs": [
        {
          "internalType": "uint256",
          "name": "",
          "type": "uint256"
        }
      ],
      "stateMutability": "view",
      "type": "function"
    },
    {
      "inputs": [],
      "name": "currentOperator",
      "outputs": [
        {
          "internalType": "address",
          "name": "",
          "type": "address"
        }
      ],
      "stateMutability": "view",
      "type": "function"
    },
    {
      "inputs": [
        {
          "internalType": "string",
          "name": "_marketId",
          "type": "string"
        }
      ],
      "name": "emergencyResolve",
      "outputs": [],
      "stateMutability": "nonpayable",
      "type": "function"
    },
    {
      "inputs": [
        {
          "internalType": "address",
          "name": "_newTreasury",
          "type": "address"
        }
      ],
      "name": "executeTreasuryChange",
      "outputs": [],
      "stateMutability": "nonpayable",
      "type": "function"
    },
    {
      "inputs": [
        {
          "internalType": "string",
          "name": "_marketId",
          "type": "string"
        }
      ],
      "name": "finalizeOutcome",
      "outputs": [],
      "stateMutability": "nonpayable",
      "type": "function"
    },
    {
      "inputs": [
        {
          "internalType": "string",
          "name": "_marketId",
          "type": "string"
        }
      ],
      "name": "getMarketDetails",
      "outputs": [
        {
          "internalType": "enum PredictionBattleV9.MarketState",
          "name": "state",
          "type": "uint8"
        },
        {
          "internalType": "enum PredictionBattleV9.MarketOutcome",
          "name": "outcome",
          "type": "uint8"
        },
        {
          "internalType": "uint256",
          "name": "totalYes",
          "type": "uint256"
        },
        {
          "internalType": "uint256",
          "name": "totalNo",
          "type": "uint256"
        },
        {
          "internalType": "uint256",
          "name": "deadlineTime",
          "type": "uint256"
        },
        {
          "internalType": "address",
          "name": "creator",
          "type": "address"
        },
        {
          "internalType": "uint256",
          "name": "seedAmount",
          "type": "uint256"
        }
      ],
      "stateMutability": "view",
      "type": "function"
    },
    {
      "inputs": [
        {
          "internalType": "bytes32",
          "name": "role",
          "type": "bytes32"
        }
      ],
      "name": "getRoleAdmin",
      "outputs": [
        {
          "internalType": "bytes32",
          "name": "",
          "type": "bytes32"
        }
      ],
      "stateMutability": "view",
      "type": "function"
    },
    {
      "inputs": [
        {
          "internalType": "bytes32",
          "name": "role",
          "type": "bytes32"
        },
        {
          "internalType": "address",
          "name": "account",
          "type": "address"
        }
      ],
      "name": "grantRole",
      "outputs": [],
      "stateMutability": "nonpayable",
      "type": "function"
    },
    {
      "inputs": [
        {
          "internalType": "string",
          "name": "",
          "type": "string"
        },
        {
          "internalType": "address",
          "name": "",
          "type": "address"
        }
      ],
      "name": "hasClaimed",
      "outputs": [
        {
          "internalType": "bool",
          "name": "",
          "type": "bool"
        }
      ],
      "stateMutability": "view",
      "type": "function"
    },
    {
      "inputs": [
        {
          "internalType": "bytes32",
          "name": "role",
          "type": "bytes32"
        },
        {
          "internalType": "address",
          "name": "account",
          "type": "address"
        }
      ],
      "name": "hasRole",
      "outputs": [
        {
          "internalType": "bool",
          "name": "",
          "type": "bool"
        }
      ],
      "stateMutability": "view",
      "type": "function"
    },
    {
      "inputs": [],
      "name": "houseBalance",
      "outputs": [
        {
          "internalType": "uint256",
          "name": "",
          "type": "uint256"
        }
      ],
      "stateMutability": "view",
      "type": "function"
    },
    {
      "inputs": [],
      "name": "houseFeeBps",
      "outputs": [
        {
          "internalType": "uint256",
          "name": "",
          "type": "uint256"
        }
      ],
      "stateMutability": "view",
      "type": "function"
    },
    {
      "inputs": [
        {
          "internalType": "string",
          "name": "",
          "type": "string"
        }
      ],
      "name": "lastBetTime",
      "outputs": [
        {
          "internalType": "uint256",
          "name": "",
          "type": "uint256"
        }
      ],
      "stateMutability": "view",
      "type": "function"
    },
    {
      "inputs": [
        {
          "internalType": "address",
          "name": "",
          "type": "address"
        }
      ],
      "name": "lastMarketCreation",
      "outputs": [
        {
          "internalType": "uint256",
          "name": "",
          "type": "uint256"
        }
      ],
      "stateMutability": "view",
      "type": "function"
    },
    {
      "inputs": [
        {
          "internalType": "string",
          "name": "",
          "type": "string"
        }
      ],
      "name": "marketExists",
      "outputs": [
        {
          "internalType": "bool",
          "name": "",
          "type": "bool"
        }
      ],
      "stateMutability": "view",
      "type": "function"
    },
    {
      "inputs": [
        {
          "internalType": "string",
          "name": "",
          "type": "string"
        }
      ],
      "name": "markets",
      "outputs": [
        {
          "internalType": "string",
          "name": "id",
          "type": "string"
        },
        {
          "internalType": "address",
          "name": "creator",
          "type": "address"
        },
        {
          "internalType": "string",
          "name": "question",
          "type": "string"
        },
        {
          "internalType": "uint256",
          "name": "creationTime",
          "type": "uint256"
        },
        {
          "internalType": "uint256",
          "name": "bonusDuration",
          "type": "uint256"
        },
        {
          "internalType": "uint256",
          "name": "deadlineTime",
          "type": "uint256"
        },
        {
          "internalType": "enum PredictionBattleV9.MarketState",
          "name": "state",
          "type": "uint8"
        },
        {
          "internalType": "enum PredictionBattleV9.MarketOutcome",
          "name": "outcome",
          "type": "uint8"
        },
        {
          "internalType": "uint256",
          "name": "seedAmount",
          "type": "uint256"
        },
        {
          "internalType": "bool",
          "name": "seedWithdrawn",
          "type": "bool"
        },
        {
          "internalType": "address",
          "name": "proposer",
          "type": "address"
        },
        {
          "internalType": "bool",
          "name": "proposedResult",
          "type": "bool"
        },
        {
          "internalType": "uint256",
          "name": "proposalTime",
          "type": "uint256"
        },
        {
          "internalType": "uint256",
          "name": "bondAmount",
          "type": "uint256"
        },
        {
          "internalType": "string",
          "name": "evidenceUrl",
          "type": "string"
        },
        {
          "internalType": "address",
          "name": "challenger",
          "type": "address"
        },
        {
          "internalType": "uint256",
          "name": "challengeBondAmount",
          "type": "uint256"
        },
        {
          "internalType": "string",
          "name": "challengeEvidenceUrl",
          "type": "string"
        },
        {
          "internalType": "uint256",
          "name": "challengeTime",
          "type": "uint256"
        },
        {
          "internalType": "uint256",
          "name": "totalYes",
          "type": "uint256"
        },
        {
          "internalType": "uint256",
          "name": "totalNo",
          "type": "uint256"
        },
        {
          "internalType": "uint256",
          "name": "totalSharesYes",
          "type": "uint256"
        },
        {
          "internalType": "uint256",
          "name": "totalSharesNo",
          "type": "uint256"
        },
        {
          "internalType": "uint256",
          "name": "yesBettorsCount",
          "type": "uint256"
        },
        {
          "internalType": "uint256",
          "name": "noBettorsCount",
          "type": "uint256"
        }
      ],
      "stateMutability": "view",
      "type": "function"
    },
    {
      "inputs": [],
      "name": "maxBetAmount",
      "outputs": [
        {
          "internalType": "uint256",
          "name": "",
          "type": "uint256"
        }
      ],
      "stateMutability": "view",
      "type": "function"
    },
    {
      "inputs": [],
      "name": "maxMarketPool",
      "outputs": [
        {
          "internalType": "uint256",
          "name": "",
          "type": "uint256"
        }
      ],
      "stateMutability": "view",
      "type": "function"
    },
    {
      "inputs": [
        {
          "internalType": "string",
          "name": "",
          "type": "string"
        },
        {
          "internalType": "address",
          "name": "",
          "type": "address"
        }
      ],
      "name": "noBets",
      "outputs": [
        {
          "internalType": "uint256",
          "name": "amount",
          "type": "uint256"
        },
        {
          "internalType": "uint256",
          "name": "shares",
          "type": "uint256"
        },
        {
          "internalType": "address",
          "name": "referrer",
          "type": "address"
        }
      ],
      "stateMutability": "view",
      "type": "function"
    },
    {
      "inputs": [],
      "name": "pause",
      "outputs": [],
      "stateMutability": "nonpayable",
      "type": "function"
    },
    {
      "inputs": [],
      "name": "paused",
      "outputs": [
        {
          "internalType": "bool",
          "name": "",
          "type": "bool"
        }
      ],
      "stateMutability": "view",
      "type": "function"
    },
    {
      "inputs": [
        {
          "internalType": "bytes32",
          "name": "",
          "type": "bytes32"
        }
      ],
      "name": "pendingTreasuryChange",
      "outputs": [
        {
          "internalType": "uint256",
          "name": "",
          "type": "uint256"
        }
      ],
      "stateMutability": "view",
      "type": "function"
    },
    {
      "inputs": [
        {
          "internalType": "string",
          "name": "_marketId",
          "type": "string"
        },
        {
          "internalType": "bool",
          "name": "_side",
          "type": "bool"
        },
        {
          "internalType": "uint256",
          "name": "_usdcAmount",
          "type": "uint256"
        },
        {
          "internalType": "uint256",
          "name": "_minSharesOut",
          "type": "uint256"
        },
        {
          "internalType": "address",
          "name": "_referrer",
          "type": "address"
        }
      ],
      "name": "placeBet",
      "outputs": [],
      "stateMutability": "nonpayable",
      "type": "function"
    },
    {
      "inputs": [
        {
          "internalType": "string",
          "name": "_marketId",
          "type": "string"
        },
        {
          "internalType": "bool",
          "name": "_result",
          "type": "bool"
        },
        {
          "internalType": "string",
          "name": "_evidenceUrl",
          "type": "string"
        },
        {
          "internalType": "uint256",
          "name": "_bondAmount",
          "type": "uint256"
        }
      ],
      "name": "proposeOutcome",
      "outputs": [],
      "stateMutability": "nonpayable",
      "type": "function"
    },
    {
      "inputs": [
        {
          "internalType": "address",
          "name": "_newTreasury",
          "type": "address"
        }
      ],
      "name": "proposeTreasuryChange",
      "outputs": [],
      "stateMutability": "nonpayable",
      "type": "function"
    },
    {
      "inputs": [],
      "name": "referrerFeeBps",
      "outputs": [
        {
          "internalType": "uint256",
          "name": "",
          "type": "uint256"
        }
      ],
      "stateMutability": "view",
      "type": "function"
    },
    {
      "inputs": [
        {
          "internalType": "bytes32",
          "name": "role",
          "type": "bytes32"
        },
        {
          "internalType": "address",
          "name": "callerConfirmation",
          "type": "address"
        }
      ],
      "name": "renounceRole",
      "outputs": [],
      "stateMutability": "nonpayable",
      "type": "function"
    },
    {
      "inputs": [
        {
          "internalType": "string",
          "name": "",
          "type": "string"
        }
      ],
      "name": "reporterRewardClaimed",
      "outputs": [
        {
          "internalType": "bool",
          "name": "",
          "type": "bool"
        }
      ],
      "stateMutability": "view",
      "type": "function"
    },
    {
      "inputs": [
        {
          "internalType": "string",
          "name": "_marketId",
          "type": "string"
        },
        {
          "internalType": "address",
          "name": "_winnerAddress",
          "type": "address"
        }
      ],
      "name": "resolveDispute",
      "outputs": [],
      "stateMutability": "nonpayable",
      "type": "function"
    },
    {
      "inputs": [
        {
          "internalType": "bytes32",
          "name": "role",
          "type": "bytes32"
        },
        {
          "internalType": "address",
          "name": "account",
          "type": "address"
        }
      ],
      "name": "revokeRole",
      "outputs": [],
      "stateMutability": "nonpayable",
      "type": "function"
    },
    {
      "inputs": [
        {
          "internalType": "address",
          "name": "",
          "type": "address"
        }
      ],
      "name": "rewardsBalance",
      "outputs": [
        {
          "internalType": "uint256",
          "name": "",
          "type": "uint256"
        }
      ],
      "stateMutability": "view",
      "type": "function"
    },
    {
      "inputs": [
        {
          "internalType": "address",
          "name": "_newOperator",
          "type": "address"
        }
      ],
      "name": "setOperator",
      "outputs": [],
      "stateMutability": "nonpayable",
      "type": "function"
    },
    {
      "inputs": [
        {
          "internalType": "bytes4",
          "name": "interfaceId",
          "type": "bytes4"
        }
      ],
      "name": "supportsInterface",
      "outputs": [
        {
          "internalType": "bool",
          "name": "",
          "type": "bool"
        }
      ],
      "stateMutability": "view",
      "type": "function"
    },
    {
      "inputs": [],
      "name": "sweepDust",
      "outputs": [],
      "stateMutability": "nonpayable",
      "type": "function"
    },
    {
      "inputs": [],
      "name": "totalLockedAmount",
      "outputs": [
        {
          "internalType": "uint256",
          "name": "",
          "type": "uint256"
        }
      ],
      "stateMutability": "view",
      "type": "function"
    },
    {
      "inputs": [],
      "name": "treasury",
      "outputs": [
        {
          "internalType": "address",
          "name": "",
          "type": "address"
        }
      ],
      "stateMutability": "view",
      "type": "function"
    },
    {
      "inputs": [],
      "name": "unpause",
      "outputs": [],
      "stateMutability": "nonpayable",
      "type": "function"
    },
    {
      "inputs": [],
      "name": "usdcToken",
      "outputs": [
        {
          "internalType": "contract IERC20",
          "name": "",
          "type": "address"
        }
      ],
      "stateMutability": "view",
      "type": "function"
    },
    {
      "inputs": [
        {
          "internalType": "string",
          "name": "_marketId",
          "type": "string"
        }
      ],
      "name": "voidAbandonedMarket",
      "outputs": [],
      "stateMutability": "nonpayable",
      "type": "function"
    },
    {
      "inputs": [
        {
          "internalType": "string",
          "name": "_marketId",
          "type": "string"
        }
      ],
      "name": "voidMarket",
      "outputs": [],
      "stateMutability": "nonpayable",
      "type": "function"
    },
    {
      "inputs": [],
      "name": "withdrawBond",
      "outputs": [],
      "stateMutability": "nonpayable",
      "type": "function"
    },
    {
      "inputs": [],
      "name": "withdrawCreatorFees",
      "outputs": [],
      "stateMutability": "nonpayable",
      "type": "function"
    },
    {
      "inputs": [],
      "name": "withdrawHouseFees",
      "outputs": [],
      "stateMutability": "nonpayable",
      "type": "function"
    },
    {
      "inputs": [],
      "name": "withdrawReferrerFees",
      "outputs": [],
      "stateMutability": "nonpayable",
      "type": "function"
    },
    {
      "inputs": [
        {
          "internalType": "string",
          "name": "_marketId",
          "type": "string"
        }
      ],
      "name": "withdrawSeed",
      "outputs": [],
      "stateMutability": "nonpayable",
      "type": "function"
    },
    {
      "inputs": [
        {
          "internalType": "string",
          "name": "",
          "type": "string"
        },
        {
          "internalType": "address",
          "name": "",
          "type": "address"
        }
      ],
      "name": "yesBets",
      "outputs": [
        {
          "internalType": "uint256",
          "name": "amount",
          "type": "uint256"
        },
        {
          "internalType": "uint256",
          "name": "shares",
          "type": "uint256"
        },
        {
          "internalType": "address",
          "name": "referrer",
          "type": "address"
        }
      ],
      "stateMutability": "view",
      "type": "function"
    }
  ],
  "bytecode": "0x60a0346200024a57601f6200503738819003918201601f191683019291906001600160401b038411838510176200024f5781608092849260409687528339810103126200024a57620000518162000265565b6200005f6020830162000265565b6200007a60606200007286860162000265565b940162000265565b60016000556103e86004556101f4600581905560065564174876e80060075564e8d4a51000600855916001600160a01b03808216156200021657808316948515620001df578116938415620001a8571680156200017557600380546001600160a01b03199081169095179055608052620001019190620000fa906200027a565b50620002fb565b50601754161760175551614c7890816200039f823960805181818161054f01528181610b7501528181610ece015281816114090152818161155c0152818161192a01528181611d6801528181612424015281816124cf0152818161266f01528181612c53015281816131950152613fd20152f35b855162461bcd60e51b815260206004820152600c60248201526b496e76616c6964205553444360a01b6044820152606490fd5b865162461bcd60e51b815260206004820152601060248201526f496e76616c696420547265617375727960801b6044820152606490fd5b865162461bcd60e51b815260206004820152601060248201526f24b73b30b634b21027b832b930ba37b960811b6044820152606490fd5b855162461bcd60e51b815260206004820152600d60248201526c24b73b30b634b21020b236b4b760991b6044820152606490fd5b600080fd5b634e487b7160e01b600052604160045260246000fd5b51906001600160a01b03821682036200024a57565b6001600160a01b031660008181527fac33ff75c19e70fe83507db0d683fd3465c996598dc972688b7ace676c89077b602052604081205490919060ff16620002f75781805260026020526040822081835260205260408220600160ff198254161790553391600080516020620050178339815191528180a4600190565b5090565b6001600160a01b031660008181527f6bc781d8c7f9885ebbb3cefbc18932c491038e2ae5c5b56447891e0bd98ea16360205260408120549091907f97667070c54ef182b0f5858b034beac1b6f3089aa2d3188bb1e8929f4fa9b9299060ff16620003995780835260026020526040832082845260205260408320600160ff1982541617905560008051602062005017833981519152339380a4600190565b50509056fe61020080604052600436101561001457600080fd5b60003560e01c9081626fb9ff146140755750806301ffc9a71461401f57806305a9f2741461400157806311eac85514613fbc57806317773ebb14613f9e5780631caed77c14613f645780632023115d14613cde578063214529ad14613cc0578063218b53821461394c578063248a9ca314613c9157806329a3a0d6146139905780632f2ff15d14613951578063327abb481461394c57806336568abe1461390557806337b150da146138e85780633aae04741461366f5780633bc6f606146135735780633cff3549146135325780633f4ba83a146134c85780633fed6ced1461347a57806345d98ccb1461162f5780634a5bfc5b1461337b57806359f5a41f1461335d5780635c975abb1461333a5780635e578a56146132855780635fc5e0201461326257806361d027b3146132395780636475e3d31461321c57806366eb9cec1461314157806367084eb3146131235780637988a63014612add5780637f26407614612abf5780637f98a3f7146129065780638456cb59146128ad578063896bdac81461287357806391d1485414612826578063941c7734146127d85780639a826eb714612775578063a07c163314612757578063a217fddf1461273b578063a53df2e214612639578063b3ab15fb1461258c578063bb353221146120db578063c227955a14611c48578063c5479faf146117dd578063c8eaef19146116bf578063cab11d5d146116a1578063d031639b14611675578063d547741f14611634578063d73792a91461162f578063dbeae54c146115b3578063dfdc5f7714611503578063e0de0fee146114e5578063e0ffbac5146114bc578063e129d04114611460578063e1cd04b4146113b0578063e1e90ab314611256578063e4a28a521461123a578063e6cd7ab614611200578063ee59d240146111e2578063efbda66114610f4b578063f585dc5714610f2e578063f5b541a614610f05578063f677b4d414610e56578063f69be50214610a6a578063fc9cd8d0146108ba578063fdbcf125146103c05763fe1140a31461030b57600080fd5b346103bb5760203660031901126103bb576103246140ab565b61032c614367565b6001600160a01b0316610340811515614612565b60405160208101908282526020815261035881614120565b5190206202a3004201908142116103a5577f2fdb8aa18e3708b0dfed4acb0de7452e85e7f833b1b055880cef38e8bee690b591602091600052600f825280604060002055604051908152a2005b634e487b7160e01b600052601160045260246000fd5b600080fd5b346103bb576020806003193601126103bb576004356001600160401b0381116103bb576103f19036906004016140d7565b6103fc9291926147ba565b61041c60ff604051838682378481858101601281520301902054166147dd565b604051818482378281838101601181520301902060068101549061044e600460ff841661044881614233565b14614a3a565b604051838682378481858101601581520301902033600052845261047a60ff6040600020541615614a75565b60006040518487823785818681016013815203019020336000528552604060002091604051858882378681878101601481520301902033600052865260ff60406000209460081c166104cb81614233565b600481036105ce57505050906104e49154905490614650565b925b831561059657907f2f0b27a029bcea8b4cd6e1f002ba498bd37b903b56578a04f1576cd25c09de539160405182828237848184810160158152030190203360005284526040600020600160ff19825416179055610545856010546149de565b60105561057385337f00000000000000000000000000000000000000000000000000000000000000006149eb565b816040519283928337810160008152039020916040519384523393a36001600055005b60405162461bcd60e51b815260048101849052601060248201526f4e6f7468696e6720746f20636c61696d60801b6044820152606490fd5b6105dd81989594929398614233565b6003810361070d5750906105f48254845490614650565b80610603575b505050506104e6565b60045460055494985091926106188584614650565b98610626600654809b614650565b606481018091116103a5576127109586610641819387614ab3565b0461064c90866149de565b9b600160a01b600190039788806001819501541696600201541694818615156000146106a59761069b966106949461068c936107005750509a5b8a614ab3565b049a88614ab3565b0495614ab3565b0495600b54614650565b600b55600052600c87526106bf6040600020918254614650565b90551680156106eb57600052600d84526106df6040600020918254614650565b90555b848080806105fa565b506106f890600b54614650565b600b556106e2565b60020154169b9050610686565b80610719600192614233565b149283156108b25750915b82541515806108a5575b61073b575b5050506104e6565b909195506107526010830154601184015490614650565b901561089a576012820154905b811561086157610773906001880154614ab3565b049060045495600554926107878489614650565b906107956006548093614650565b90606482018092116103a55761271080806107b1819585614ab3565b046107bc90846149de565b9b6107c79084614ab3565b04966107d39083614ab3565b04926107de91614ab3565b0493600b54906107ed91614650565b600b55600160a01b6001900360018194015416600052600c875260406000209081549061081991614650565b9055600201805482161561084b575416600052600d84526108406040600020918254614650565b90555b848080610733565b505061085990600b54614650565b600b55610843565b60405162461bcd60e51b81526004810187905260116024820152704e6f2077696e6e696e672073686172657360781b6044820152606490fd5b60138201549061075f565b506001830154151561072e565b905091610724565b346103bb576020806003193601126103bb576004356001600160401b0381116103bb576108eb9036906004016140d7565b916108f46147ba565b61091460ff604051858582378381878101601281520301902054166147dd565b60405183838237818185810160118152030190206006810191610946600360ff85541661094081614233565b14614984565b600f82015462278d0081018091116103a557421115610a33579061098791600a820180549081610a01575b5050600d82018054806109d2575b505050614b37565b61040061ff00198254161790558160405192839283378101600081520390207f1e9a51575531367c4323c60efe8c5b980af66cd0509c86d8f4e1a3d9c9001700600080a26001600055005b600e60009360018060a01b03600c870154168552526109f660408420918254614650565b90555585808061097f565b60009160018060a01b03600886015460081c168352600e8452610a2960408420918254614650565b9055558680610971565b6064906040519062461bcd60e51b82526004820152601060248201526f54696d65206c6f636b2061637469766560801b6044820152fd5b346103bb5760603660031901126103bb576004356001600160401b0381116103bb57610a9a9036906004016140d7565b6024356001600160401b0381116103bb57610ab99036906004016140d7565b91610ac2614698565b610aca6147ba565b610aeb60ff60405183878237602081858101601281520301902054166147dd565b610af9610200841115614866565b60405181858237602081838101601181520301902093610b2b600260ff600688015416610b2581614233565b1461465d565b600985015461a8c081018091116103a5574211610e2157610b54600a86015460443510156148e6565b60088581015433911c6001600160a01b031614610de457610b9960443530337f000000000000000000000000000000000000000000000000000000000000000061470a565b610ba7604435601054614650565b601055600685015460405160008754610bbf81614287565b9060018116908115610dcf5750600114610d9b575b50908060039392039020600080516020614c038339815191526040805160ff8516610bfe81614233565b8152856020820152a260ff1916176006860155600c850180546001600160a01b03191633179055604435600d860155600e8501946001600160401b038511610d8557610c5485610c4e8854614287565b886146b6565b600095601f8611600114610cf65790610ce1939291867f4bd7c92eba598ee7ab038ac4a59ab8feb6d65703229128829d6cdd17959b121f969798600091610ceb575b508860011b906000198a60031b1c19161790555b600f429101558160405192839283378101600081520390209260405191829160443583526040602084015233966040840191614926565b0390a36001600055005b905087013589610c96565b601f1986168160005260206000209060005b818110610d6d57509087987f4bd7c92eba598ee7ab038ac4a59ab8feb6d65703229128829d6cdd17959b121f9798610ce1979695949310610d53575b5050600188811b019055610caa565b88013560001960038b901b60f8161c191690558880610d44565b878a013583556020998a019960019093019201610d08565b634e487b7160e01b600052604160045260246000fd5b90508760005260206000206000905b828210610dbb575050810181610bd4565b600181602092548487015201910190610daa565b60ff1916845250801515028201905081610bd4565b60405162461bcd60e51b815260206004820152601560248201527443616e6e6f742073656c662d6368616c6c656e676560581b6044820152606490fd5b60405162461bcd60e51b815260206004820152600d60248201526c15da5b991bddc818db1bdcd959609a1b6044820152606490fd5b346103bb5760003660031901126103bb57610e6f614367565b610e776147ba565b600b54610e85811515614b01565b6000600b55610e96816010546149de565b6010557f19f7a31ae4185f3274e252a5a78ec36ba85c01300bc8a800d41d79be74662a8e602060018060a01b03610ef28482600354167f00000000000000000000000000000000000000000000000000000000000000006149eb565b6003541692604051908152a26001600055005b346103bb5760003660031901126103bb576020604051600080516020614c238339815191528152f35b346103bb5760003660031901126103bb57602060405161a8c08152f35b346103bb5760203660031901126103bb576004356001600160401b0381116103bb57610f7b90369060040161415c565b6040518181809351602081930191610f92926141f3565b8101601181520360200190208061016052610fac906142c1565b6101605160018101546001600160a01b031660a052610fcd906002016142c1565b6080526101605160038101549060048101546101e052600581015461012052600681015491600782015491600881015491600982015491600a81015490600b01611016906142c1565b926101605194600160a01b60019003600c8701541696600d87015496600e0161103e906142c1565b98610160519a600f8c01546101c05260108c01549b601181015460e052601281015461014052601381015461010052601481015461018052601501546101a0526040518060c05261032080915260c0510161109891614253565b60a05160c0516020015260c0518082039060400152608051906110ba91614253565b9560c051606001526101e05160c051608001526101205160c05160a0015260ff81166110e581614233565b60c05160c0015260081c60ff166110fb81614233565b60c05160e0015260c051610100015260ff8116151560c0516101200152600160a01b600190038160081c1660c051610140015260a81c60ff16151560c051610160015260c051610180015260c0516101a0015260c051808203906101c0015261116391614253565b9160c0516101e0015260c051610200015260c05180820390610220015261118991614253565b906101c05160c051610240015260c051610260015260e05160c05161028001526101405160c0516102a001526101005160c0516102c001526101805160c0516102e001526101a05160c051610300015260c05180910390f35b346103bb5760003660031901126103bb576020600454604051908152f35b346103bb5760203660031901126103bb576001600160a01b036112216140ab565b16600052600c6020526020604060002054604051908152f35b346103bb5760003660031901126103bb57602060405160788152f35b346103bb576020806003193601126103bb576004356001600160401b0381116103bb576112879036906004016140d7565b6112929291926147ba565b6112b260ff604051838682378481858101601281520301902054166147dd565b6040518184823782818381016011815203019020926112dd600460ff60068701541661044881614233565b6112f460018060a01b036001860154163314614ac6565b6008840180549460ff86166113775760070154948515611348579060017f3ff50bb01a71ba44b43b95e691fe785159d1c403efd991b82f3b5f62a2d8148a94939260ff1916179055610545856010546149de565b60405162461bcd60e51b8152600481018690526007602482015266139bc81cd9595960ca1b6044820152606490fd5b60405162461bcd60e51b815260048101869052601160248201527020b63932b0b23c903bb4ba34323930bbb760791b6044820152606490fd5b346103bb5760003660031901126103bb576113c96147ba565b33600052600c6020526040600020546113e3811515614b01565b33600052600c602052600060408120556113ff816010546149de565b60105561142d81337f00000000000000000000000000000000000000000000000000000000000000006149eb565b6040519081527f7f0b212761a7abe7ec4d2adea5a7fa1fea58234aabf0c01c0e63403fe62013ff60203392a26001600055005b346103bb5760203660031901126103bb576004356001600160401b0381116103bb576114a960206114968193369060040161415c565b81604051938285809451938492016141f3565b8101600a81520301902054604051908152f35b346103bb5760003660031901126103bb576017546040516001600160a01b039091168152602090f35b346103bb5760003660031901126103bb576020604051624c4b408152f35b346103bb5760003660031901126103bb5761151c6147ba565b33600052600d602052604060002054611536811515614b01565b33600052600d60205260006040812055611552816010546149de565b60105561158081337f00000000000000000000000000000000000000000000000000000000000000006149eb565b6040519081527f3c4f6499c168416bb9b014d9d1e1d8132e5aaafd7bbcfc48d49ee1d5a2d90f5260203392a26001600055005b346103bb5760206115db6115c6366141b2565b929081604051938285809451938492016141f3565b6013908201908152030190206001600160a01b0391821660009081526020918252604090819020805460018201546002909201548351918252938101919091529190921691810191909152606090f35b0390f35b614216565b346103bb5760403660031901126103bb576116736004356116536140c1565b9080600052600260205261166e6001604060002001546143bf565b61459b565b005b346103bb5760203660031901126103bb57600435600052600f6020526020604060002054604051908152f35b346103bb5760003660031901126103bb576020600754604051908152f35b346103bb576020806003193601126103bb576004356001600160401b0381116103bb576116f09036906004016140d7565b916116f96147ba565b600080516020614c2383398151915260005260028152604060002033600052815260ff6040600020541680156117be575b61173390614947565b60405183838237818185810160118152030190206006810191600460ff84541661175c81614233565b14611787579061098791600a820180549081610a01575050600d82018054806109d257505050614b37565b6064906040519062461bcd60e51b82526004820152601060248201526f105b1c9958591e481c995cdbdb1d995960821b6044820152fd5b506000808052600282526040808220338352835290205460ff1661172a565b346103bb5760803660031901126103bb576004356001600160401b0381116103bb5761180d9036906004016140d7565b611815614278565b906044356001600160401b0381116103bb576118359036906004016140d7565b939092611840614698565b6118486147ba565b61186960ff60405185858237602081878101601281520301902054166147dd565b611877610200861115614866565b6040518383823760208185810160118152030190206118b060ff6006830154166118a081614233565b8015908115611c34575b506148aa565b60018101546001600160a01b03163314611be2575b60405184848237602081868101600a8152030190205461070881018091116103a5574210611b915760646119026010830154601184015490614650565b04624c4b409080820182116103a557611920910160643510156148e6565b61194e60643530337f000000000000000000000000000000000000000000000000000000000000000061470a565b61195c606435601054614650565b60105560068101546040516000835461197481614287565b9060018116908115611b7c5750600114611b48575b509181600292600b9594039020600080516020614c038339815191526040805160ff85166119b681614233565b8152856020820152a260ff191617600682015560088082018054610100600160a81b0319163390921b610100600160a81b031691909117815592835460ff60a81b191690151560a881901b60ff60a81b1691909117909355426009820155606435600a820155016001600160401b038611610d8557611a3f86611a398354614287565b836146b6565b856000601f8211600114611ae257600091611ad7575b508660011b906000198860031b1c19161790555b61a8c04201918242116103a55783610ce1917f5247f2366f7e70fc0b5fc61f486408d977047c08d356ffb76c3d35832ceeaf26956040519283928337810160008152039020946040519384938452606435602085015260408401526080606084015233966080840191614926565b905085013587611a55565b60008381526020812092508890601f198216905b818110611b2d575010611b13575b5050600186811b019055611a69565b860135600019600389901b60f8161c191690558680611b04565b8984013585556001909401936020938401938b935001611af6565b90508360005260206000206000905b828210611b68575050810181611989565b600181602092548487015201910190611b57565b60ff1916845250801515028201905081611989565b60405162461bcd60e51b8152602060048201526024808201527f436f6f6c2d646f776e3a20776169742033306d696e206166746572206c6173746044820152630818995d60e21b6064820152608490fd5b60038101546201518081018091116103a5574210156118c55760405162461bcd60e51b8152602060048201526011602482015270086e4cac2e8dee47440eec2d2e8406468d607b1b6044820152606490fd5b60019150611c4181614233565b14886118aa565b346103bb5760a03660031901126103bb576004356001600160401b0381116103bb57611c789036906004016140d7565b611c80614278565b916084356001600160a01b038116906044908135908390036103bb57611ca4614698565b611cac6147ba565b6040519480858737611cd160ff87838101601281526020998a910301902054166147dd565b604051818682378681838101601181520301902060ff600682015416611cf681614233565b6120ac57600581015442101561207e5761c350831061204a576007548311612016576040518287823782810190600a82528881429303019020556010810190815491611d5185611d4c6011850195865490614650565b614650565b60085410611fdc57338714611fa457611d8c8530337f000000000000000000000000000000000000000000000000000000000000000061470a565b611d9885601054614650565b601055611dae6003830154600484015490614650565b4210928315611f9a57611dc360785b87614ab3565b670de0b6b3a7640000908181029181830414901517156103a55760649004966064358810611f5e57508a15611f395750611dfe858254614650565b905560128101611e0f868254614650565b90555b8815611f13576040518388823788818581016013815203019020336000528852600260406000205b611e45868254614650565b815560018101611e56888254614650565b90550180546001600160a01b031916871790558815611ef757601401611e898154611e846127108210614815565b614857565b90555b15611eef576078945b8160405192839283378101600081520390209460405196151587528601526040850152606084015260808301527fa994696d1a657073ceaa15fbacd649938053ce8bee7de30ec1c28d337cc37b2360a03393a36001600055005b606494611e95565b601501611f0c8154611e846127108210614815565b9055611e8c565b604051838882378881858101601481520301902033600052885260026040600020611e3a565b9050611f46858254614650565b905560138101611f57868254614650565b9055611e12565b8a7514db1a5c1c1859d94e8813d9191cc818da185b99d95960521b6064926040519262461bcd60e51b8452600484015260166024840152820152fd5b611dc36064611dbd565b60405162461bcd60e51b8152600481018a9052601160248201527021b0b73737ba1039b2b63316b932b332b960791b81880152606490fd5b60405162461bcd60e51b8152600481018a90526013602482015272141bdbdb081b1a5b5a5d08195e18d959591959606a1b81880152606490fd5b60405162461bcd60e51b815260048101889052600d60248201526c42657420746f6f206c6172676560981b81860152606490fd5b60405162461bcd60e51b815260048101889052600d60248201526c10995d081d1bdbc81cdb585b1b609a1b81860152606490fd5b60405162461bcd60e51b8152600481018890526007602482015266115e1c1a5c995960ca1b81860152606490fd5b60405162461bcd60e51b81526004810188905260086024820152672737ba1037b832b760c11b81860152606490fd5b346103bb5760603660031901126103bb576004356001600160401b0381116103bb5761210b9036906004016140d7565b600560243510156103bb576044359182151583036103bb5761212b6147ba565b3360009081527fac33ff75c19e70fe83507db0d683fd3465c996598dc972688b7ace676c89077b602052604090205460ff161561255b577f175b08e6ee8bbceb85780e790adca99ec4fbd3bb124ffbf50bd35ed4375a69ac916121a560ff60405183858237602081858101601281520301902054166147dd565b604051818382376020818381016011815203019020936121e060ff6006870154166121cf81614233565b6003811490811561254757506148aa565b8061253a575b6124a0575b600a8401546121fe600d86015482614650565b9060008061220d602435614233565b6001602435148061248a575b612482575b612229602435614233565b60026024351480612470575b612468575b612245602435614233565b6004602435148015612451575b156123605750505050600a84015480612330575b50600d84015480612303575b505b6000600a8501556000600d85015561228b84614b37565b61229a602435600686016149bf565b600160ff600686015460081c166122b081614233565b149384156122f95760100154915b816040519283928337810160008152039020926122ef60405192839283602090939291936040810194151581520152565b0390a26001600055005b60110154916122be565b60018060a01b03600c86015416600052600e6020526123286040600020918254614650565b905584612272565b60018060a01b03600886015460081c16600052600e6020526123586040600020918254614650565b905584612266565b156123c1575050600885810154901c6001600160a01b03165b6001600160a01b0316801515806123b8575b612397575b5050612274565b600052600e6020526123af6040600020918254614650565b90558480612390565b5081151561238b565b600c870180546001600160a01b039391929190841680156123e75750505054165b612379565b9091939250600260ff60068b0154166123ff81614233565b036124485750906124156123e2926010546149de565b60105560035416600a880154907f00000000000000000000000000000000000000000000000000000000000000006149eb565b92505050612379565b5061245d602435614233565b600360243514612252565b50600161223a565b5060ff600889015460a81c1615612235565b50600161221e565b50600160ff60088a015460a81c16151514612219565b600784016000815491556124b6816010546149de565b6010556003546001600160a01b03906124f390839083167f00000000000000000000000000000000000000000000000000000000000000006149eb565b60035416907f3ff50bb01a71ba44b43b95e691fe785159d1c403efd991b82f3b5f62a2d8148a602060405185878237808681016000815203902092604051908152a36121eb565b50600784015415156121e6565b6002915061255481614233565b14876118aa565b60405162461bcd60e51b81526020600482015260096024820152682737ba1030b236b4b760b91b6044820152606490fd5b346103bb5760203660031901126103bb576125a56140ab565b6125ad614367565b6001600160a01b0381811691906125c5831515614612565b6017541690818314612601576125dd6125e392614501565b506143e5565b506bffffffffffffffffffffffff60a01b6017541617601755600080f35b60405162461bcd60e51b815260206004820152601060248201526f20b63932b0b23c9037b832b930ba37b960811b6044820152606490fd5b346103bb5760003660031901126103bb57612652614367565b6040516370a0823160e01b81523060048201526001600160a01b037f00000000000000000000000000000000000000000000000000000000000000006020836024818585165afa92831561272f576000936126fc575b5060105492838111156126cd57611673936126c2916149de565b9160035416906149eb565b60405162461bcd60e51b8152602060048201526007602482015266139bc8191d5cdd60ca1b6044820152606490fd5b9092506020813d8211612727575b816127176020938361413b565b810103126103bb575191836126a8565b3d915061270a565b6040513d6000823e3d90fd5b346103bb5760003660031901126103bb57602060405160008152f35b346103bb5760003660031901126103bb576020600654604051908152f35b346103bb5760206127886115c6366141b2565b6014908201908152030190206001600160a01b0391821660009081526020918252604090819020805460018201546002909201548351918252938101919091529190921691810191909152606090f35b346103bb5760203660031901126103bb576004356001600160401b0381116103bb5760ff61281060206114968194369060040161415c565b8101601681520301902054166040519015158152f35b346103bb5760403660031901126103bb5761283f6140c1565b600435600052600260205260406000209060018060a01b0316600052602052602060ff604060002054166040519015158152f35b346103bb5760203660031901126103bb576001600160a01b036128946140ab565b16600052600d6020526020604060002054604051908152f35b346103bb5760003660031901126103bb576128c6614367565b6128ce614698565b600160ff19815416176001557f62e78cea01bee320cd4e420270b5ea74000d11b0c9f74754ebdbfc544b05a2586020604051338152a1005b346103bb576020806003193601126103bb576004356001600160401b0381116103bb576129379036906004016140d7565b6129429291926147ba565b61296260ff604051838682378481858101601281520301902054166147dd565b6040518184823782818381016011815203019020600460ff600683015461298f8383831661044881614233565b60081c1661299c81614233565b14612a8757600881810154901c6001600160a01b03163303612a53576129ed906129dd60ff6040518588823786818781016016815203019020541615614a75565b6011601082015491015490614650565b906064820291808304606414901517156103a5576127107f8324cae916d4cce50ee31a76930f77226846d2070fb9ae521d41eac167bed93d9204936040518282823784818481016016815203019020600160ff19825416179055610545856010546149de565b60405162461bcd60e51b815260048101849052600c60248201526b2737ba10383937b837b9b2b960a11b6044820152606490fd5b60405162461bcd60e51b815260048101849052601060248201526f13585c9ad95d0818d85b98d95b1b195960821b6044820152606490fd5b346103bb5760003660031901126103bb57602060405162278d008152f35b346103bb5760803660031901126103bb576004356001600160401b0381116103bb57612b0d9036906004016140d7565b90612b16614698565b612b1e6147ba565b60405160208101903360601b825283836034830137612b5060548286810142603482015203603481018452018261413b565b51902090604051606081018181106001600160401b03821117610d855760405260408152602081019260403685376040805b6130ba5750613076576022612bc291612bb29460405195869261060f60f31b6020850152518092858501906141f3565b810103600281018552018361413b565b600a8310158061306a575b156130255760ff6040516020818551612be98183858a016141f3565b810160128152030190205416612ff057620f424060243510612fb85760085460243511612f825760443515612f4a57336000526009602052604060002054610e1081018091116103a5574210612f185733600052600960205242604060002055612c7760243530337f000000000000000000000000000000000000000000000000000000000000000061470a565b612c85602435601054614650565b6010556040516020818451612c9d81838589016141f3565b8101601181520301902082516001600160401b038111610d8557612ccb81612cc58454614287565b846146b6565b806020601f8211600114612eb157600091612ea6575b508160011b916000199060031b1c19161781555b600181810180546001600160a01b03191633179055916001600160401b038511610d85576002820190612d2c86612cc58454614287565b600090601f8711600114612e3c5761162b969160009183612e31575b5050600019600383901b1c191690841b1790555b4260038201556064358015612e28575b6004820155612d7d60443542614650565b9060058101918255600681019060ff19918281541690556007602435910155826040516020818751612db28183858c016141f3565b810160128152030190209182541617905554604051808451612dd88183602089016141f3565b810103902060405191825260243560208301527fccdee9db8c345dd53026f5dedbf3e8b723ceddd2ad8eeb96b00ce37fddd58b6460403393a3600055604051918291602083526020830190614253565b50604435612d6c565b013590508780612d48565b8260005260206000209160005b601f1989168110612e905750918791869361162b99601f19811610612e76575b505050811b019055612d5c565b0135600019600384901b60f8161c19169055878080612e69565b8282013584559286019260209182019101612e49565b905084015186612ce1565b91508260005260206000206000925b601f1983168410612f00576001935082601f19811610612ee7575b5050811b018155612cf5565b86015160001960f88460031b161c191690558680612edb565b86810151825560209384019360019092019101612ec0565b60405162461bcd60e51b815260206004820152600a60248201526914985d19481b1a5b5a5d60b21b6044820152606490fd5b60405162461bcd60e51b815260206004820152601060248201526f24b73b30b634b210323ab930ba34b7b760811b6044820152606490fd5b60405162461bcd60e51b815260206004820152600e60248201526d5365656420746f6f206c6172676560901b6044820152606490fd5b60405162461bcd60e51b815260206004820152601060248201526f4d696e20736565643a2031205553444360801b6044820152606490fd5b60405162461bcd60e51b815260206004820152600d60248201526c4d61726b65742065786973747360981b6044820152606490fd5b60405162461bcd60e51b815260206004820152601760248201527f496e76616c6964207175657374696f6e206c656e6774680000000000000000006044820152606490fd5b506101f4831115612bcd565b606460405162461bcd60e51b815260206004820152602060248201527f537472696e67733a20686578206c656e67746820696e73756666696369656e746044820152fd5b90600f8116601081101561310d5760001983018381116103a5578451111561310d576f181899199a1a9b1b9c1cb0b131b232b360811b901a838301601f015360041c9080156103a5576000190180612b82565b634e487b7160e01b600052603260045260246000fd5b346103bb5760003660031901126103bb576020600b54604051908152f35b346103bb5760003660031901126103bb5761315a6147ba565b33600052600e60205260406000205480156131ec5733600052600e6020526000604081205561318b816010546149de565b6010556131b981337f00000000000000000000000000000000000000000000000000000000000000006149eb565b6040519081527f0d41118e36df44efb77a471fc49fb9c0be0406d802ef95520e9fbf606e65b45560203392a26001600055005b60405162461bcd60e51b81526020600482015260086024820152674e6f20626f6e647360c01b6044820152606490fd5b346103bb5760003660031901126103bb57602060405161c3508152f35b346103bb5760003660031901126103bb576003546040516001600160a01b039091168152602090f35b346103bb5760003660031901126103bb576020604051670de0b6b3a76400008152f35b346103bb5760203660031901126103bb576004356001600160401b0381116103bb5760206132b960e09236906004016140d7565b91908260405193849283378101601181520301902060068101549060ff8083169260081c169060108101546011820154600583015491600760018060a01b03600186015416940154946040519661330f81614233565b875261331a81614233565b602087015260408601526060850152608084015260a083015260c0820152f35b346103bb5760003660031901126103bb57602060ff600154166040519015158152f35b346103bb5760003660031901126103bb576020600854604051908152f35b346103bb5760203660031901126103bb576004356001600160401b0381116103bb576133ab9036906004016140d7565b906133b46147ba565b6133d560ff60405184848237602081868101601281520301902054166147dd565b604051828282376020818481016011815203019020600681019061340f60ff83541661340081614233565b801590811561346657506148aa565b600581015462278d0081018091116103a5574211156134315761098790614b37565b60405162461bcd60e51b815260206004820152600d60248201526c139bdd081858985b991bdb9959609a1b6044820152606490fd5b6001915061347381614233565b14866118aa565b346103bb5760203660031901126103bb576004356001600160401b0381116103bb5760ff6134b260206114968194369060040161415c565b8101601281520301902054166040519015158152f35b346103bb5760003660031901126103bb576134e1614367565b60015460ff8116156135205760ff19166001557f5db9ee0a495bf2e6ff9c91a7834c1ba4fdd244a5e8aa4e537bd38aeae4b073aa6020604051338152a1005b604051638dfc202b60e01b8152600490fd5b346103bb5760206135456115c6366141b2565b810160158152030190209060018060a01b0316600052602052602060ff604060002054166040519015158152f35b346103bb576020806003193601126103bb5761358d6140ab565b613595614367565b6040516001600160a01b039182168382018181528483529093916135b881614120565b5190209081600052600f81526135d4604060002054151561465d565b81600052600f8152604060002054421061363957600f9060035492856bffffffffffffffffffffffff60a01b8516176003556000525260006040812055167f4ab5be82436d353e61ca18726e984e561f5c1cc7c6d38b29d2553c790434705a600080a3005b6064906040519062461bcd60e51b82526004820152600f60248201526e54696d656c6f636b2061637469766560881b6044820152fd5b346103bb576020806003193601126103bb576004356001600160401b0381116103bb576136a09036906004016140d7565b91906136aa6147ba565b6136ca60ff604051858482378481878101601281520301902054166147dd565b60405183828237828185810160118152030190209260ff60068501546136f7600483831661044881614233565b60081c1661370481614233565b60018114908180156138d5575b1561389e5761371f90614233565b156138945760128401545b61385f57600184019161377860018060a01b039561374c878654163314614ac6565b60405184848237868186810160158152030190203360005286526129dd60ff6040600020541615614a75565b600454956005549461378a8689614650565b956137986006548098614650565b606481018091116103a55761380161380b926137e7926137fa6137f47f2f0b27a029bcea8b4cd6e1f002ba498bd37b903b56578a04f1576cd25c09de539c6137ee8b6127109889968792614ab3565b048c6149de565b9f614650565b89614ab3565b0496614ab3565b0493600b54614650565b600b555416600052600c85526138276040600020918254614650565b905560405182828237848184810160158152030190203360005284526040600020600160ff19825416179055610545856010546149de565b60405162461bcd60e51b815260048101849052600d60248201526c15da5b9b995c9cc8195e1a5cdd609a1b6044820152606490fd5b601384015461372a565b60405162461bcd60e51b815260048101869052600f60248201526e496e76616c6964206f7574636f6d6560881b6044820152606490fd5b506138df81614233565b60028114613711565b346103bb5760003660031901126103bb576020604051610e108152f35b346103bb5760403660031901126103bb5761391e6140c1565b336001600160a01b0382160361393a576116739060043561459b565b60405163334bd91960e11b8152600490fd5b614104565b346103bb5760403660031901126103bb576116736004356139706140c1565b9080600052600260205261398b6001604060002001546143bf565b614486565b346103bb5760403660031901126103bb576004356001600160401b0381116103bb576139c09036906004016140d7565b906139c96140c1565b906139d26147ba565b3360009081527f6bc781d8c7f9885ebbb3cefbc18932c491038e2ae5c5b56447891e0bd98ea163602052604090205460ff168015613c59575b613a1490614947565b613a3560ff60405185848237602081878101601281520301902054166147dd565b60405183828237602081858101601181520301902092613a61600360ff60068701541661094081614233565b6008848101546001600160a01b0395911c8516848616148015613c48575b15613c12577f175b08e6ee8bbceb85780e790adca99ec4fbd3bb124ffbf50bd35ed4375a69ac93613ab9600a830154600d84015490614650565b90868116600052600e6020526040600020613ad5838254614650565b905560088381018054610100600160a81b0319169183901b610100600160a81b0316919091179055613b0683614b37565b6008830154878160081c1688831614600014613beb5750600883015460a81c60ff1615613be157613b3c60015b600685016149bf565b6000600a8401556000600d8401557f38b360c485b4bed5c0c2e2ab639b104b4e002dbf7351d0d4431e48b6d9e2bfce6040600160ff600687015460081c16613b8381614233565b149881518789823780888101600081520390209382519586528a60208701521693a384156122f9576010015491816040519283928337810160008152039020926122ef60405192839283602090939291936040810194151581520152565b613b3c6002613b33565b60a81c60ff16613c0857613c036001600685016149bf565b613b3c565b613c036002613b33565b60405162461bcd60e51b815260206004820152600e60248201526d24b73b30b634b2103bb4b73732b960911b6044820152606490fd5b5084600c8201541685851614613a7f565b503360009081527fac33ff75c19e70fe83507db0d683fd3465c996598dc972688b7ace676c89077b602052604090205460ff16613a0b565b346103bb5760203660031901126103bb5760043560005260026020526020600160406000200154604051908152f35b346103bb5760003660031901126103bb5760206040516202a3008152f35b346103bb576020806003193601126103bb576004356001600160401b0381116103bb57613d0f9036906004016140d7565b90613d186147ba565b613d3860ff604051848482378581868101601281520301902054166147dd565b6040518282823783818481016011815203019020916006830192613d65600260ff865416610b2581614233565b600981015461a8c081018091116103a557421115613f2f5760018060a01b03600882015460081c16600a82015481600052600e8752613daa6040600020918254614650565b9055845460405160008454613dbe81614287565b9060018116908115613f195750600114613ee4575b509660046001938360ff947f175b08e6ee8bbceb85780e790adca99ec4fbd3bb124ffbf50bd35ed4375a69ac9b039020600080516020614c0383398151915260408d85825191898716613e2581614233565b8352820152a2831916178155600885015460a81c821615613eda57613e4b835b826149bf565b6000600a8601555460081c16613e6081614233565b14957fe2b1d963f1ec20d10d097a5196a0a9e7b5ff982020b428f20918fe52a2234edf6040518587823780868101600081520390209160405160008152a384156122f9576010015491816040519283928337810160008152039020926122ef60405192839283602090939291936040810194151581520152565b613e4b6002613e45565b90508460005288600020896000915b838310613f065750505081016004613dd3565b8054858401529101908a90600101613ef3565b60ff191684525080151502820190506004613dd3565b60405162461bcd60e51b815260048101869052600d60248201526c57696e646f772061637469766560981b6044820152606490fd5b346103bb5760203660031901126103bb576001600160a01b03613f856140ab565b1660005260096020526020604060002054604051908152f35b346103bb5760003660031901126103bb576020600554604051908152f35b346103bb5760003660031901126103bb576040517f00000000000000000000000000000000000000000000000000000000000000006001600160a01b03168152602090f35b346103bb5760003660031901126103bb576020601054604051908152f35b346103bb5760203660031901126103bb5760043563ffffffff60e01b81168091036103bb57602090637965db0b60e01b8114908115614064575b506040519015158152f35b6301ffc9a760e01b14905082614059565b346103bb5760203660031901126103bb576020906001600160a01b036140996140ab565b16600052600e82526040600020548152f35b600435906001600160a01b03821682036103bb57565b602435906001600160a01b03821682036103bb57565b9181601f840112156103bb578235916001600160401b0383116103bb57602083818601950101116103bb57565b346103bb5760003660031901126103bb57602060405160648152f35b604081019081106001600160401b03821117610d8557604052565b90601f801991011681019081106001600160401b03821117610d8557604052565b81601f820112156103bb578035906001600160401b038211610d855760405192614190601f8401601f19166020018561413b565b828452602083830101116103bb57816000926020809301838601378301015290565b60406003198201126103bb57600435906001600160401b0382116103bb576141dc9160040161415c565b906024356001600160a01b03811681036103bb5790565b60005b8381106142065750506000910152565b81810151838201526020016141f6565b346103bb5760003660031901126103bb5760206040516127108152f35b6005111561423d57565b634e487b7160e01b600052602160045260246000fd5b9060209161426c815180928185528580860191016141f3565b601f01601f1916010190565b6024359081151582036103bb57565b90600182811c921680156142b7575b60208310146142a157565b634e487b7160e01b600052602260045260246000fd5b91607f1691614296565b90604051918260008254926142d584614287565b9081845260019485811690816000146143445750600114614301575b50506142ff9250038361413b565b565b9093915060005260209081600020936000915b81831061432c5750506142ff935082010138806142f1565b85548884018501529485019487945091830191614314565b9150506142ff94506020925060ff191682840152151560051b82010138806142f1565b3360009081527fac33ff75c19e70fe83507db0d683fd3465c996598dc972688b7ace676c89077b602052604081205460ff16156143a15750565b6044906040519063e2517d3f60e01b82523360048301526024820152fd5b80600052600260205260406000203360005260205260ff60406000205416156143a15750565b6001600160a01b031660008181527f6bc781d8c7f9885ebbb3cefbc18932c491038e2ae5c5b56447891e0bd98ea1636020526040812054909190600080516020614c238339815191529060ff166144815780835260026020526040832082845260205260408320600160ff198254161790557f2f8788117e7eff1d82e926ec794901d17c78024a50270940304540a733656f0d339380a4600190565b505090565b906000918083526002602052604083209160018060a01b03169182845260205260ff604084205416156000146144815780835260026020526040832082845260205260408320600160ff198254161790557f2f8788117e7eff1d82e926ec794901d17c78024a50270940304540a733656f0d339380a4600190565b6001600160a01b031660008181527f6bc781d8c7f9885ebbb3cefbc18932c491038e2ae5c5b56447891e0bd98ea1636020526040812054909190600080516020614c238339815191529060ff1615614481578083526002602052604083208284526020526040832060ff1981541690557ff6391f5c32d9c69d2a47ea670b442974b53935d1edc7fd64eb21e047a839171b339380a4600190565b906000918083526002602052604083209160018060a01b03169182845260205260ff604084205416600014614481578083526002602052604083208284526020526040832060ff1981541690557ff6391f5c32d9c69d2a47ea670b442974b53935d1edc7fd64eb21e047a839171b339380a4600190565b1561461957565b60405162461bcd60e51b815260206004820152600f60248201526e496e76616c6964206164647265737360881b6044820152606490fd5b919082018092116103a557565b1561466457565b60405162461bcd60e51b815260206004820152600c60248201526b139bdd081c1c9bdc1bdcd95960a21b6044820152606490fd5b60ff600154166146a457565b60405163d93c066560e01b8152600490fd5b90601f81116146c457505050565b600091825260208220906020601f850160051c83019410614700575b601f0160051c01915b8281106146f557505050565b8181556001016146e9565b90925082906146e0565b6040516323b872dd60e01b60208201526001600160a01b03928316602482015292909116604483015260648083019390935291815260a08101918183106001600160401b03841117610d85576142ff926040525b906000602091828151910182855af11561272f576000513d6147b157506001600160a01b0381163b155b61478f5750565b604051635274afe760e01b81526001600160a01b039091166004820152602490fd5b60011415614788565b6002600054146147cb576002600055565b604051633ee5aeb560e01b8152600490fd5b156147e457565b60405162461bcd60e51b8152602060048201526009602482015268139bc81b585c9ad95d60ba1b6044820152606490fd5b1561481c57565b60405162461bcd60e51b815260206004820152601360248201527213585e0818995d1d1bdc9cc81c995858da1959606a1b6044820152606490fd5b60001981146103a55760010190565b1561486d57565b60405162461bcd60e51b815260206004820152601560248201527445766964656e63652055524c20746f6f206c6f6e6760581b6044820152606490fd5b156148b157565b60405162461bcd60e51b815260206004820152600d60248201526c496e76616c696420737461746560981b6044820152606490fd5b156148ed57565b60405162461bcd60e51b8152602060048201526011602482015270125b9cdd59999a58da595b9d08189bdb99607a1b6044820152606490fd5b908060209392818452848401376000828201840152601f01601f1916010190565b1561494e57565b60405162461bcd60e51b815260206004820152600e60248201526d139bdd08185d5d1a1bdc9a5e995960921b6044820152606490fd5b1561498b57565b60405162461bcd60e51b815260206004820152600c60248201526b139bdd08191a5cdc1d5d195960a21b6044820152606490fd5b906149c981614233565b61ff0082549160081b169061ff001916179055565b919082039182116103a557565b60405163a9059cbb60e01b60208201526001600160a01b03909216602483015260448083019390935291815260808101916001600160401b03831182841017610d85576142ff9260405261475e565b15614a4157565b60405162461bcd60e51b815260206004820152600c60248201526b139bdd081c995cdbdb1d995960a21b6044820152606490fd5b15614a7c57565b60405162461bcd60e51b815260206004820152600f60248201526e105b1c9958591e4818db185a5b5959608a1b6044820152606490fd5b818102929181159184041417156103a557565b15614acd57565b60405162461bcd60e51b815260206004820152600c60248201526b27b7363c9031b932b0ba37b960a11b6044820152606490fd5b15614b0857565b60405162461bcd60e51b81526020600482015260076024820152664e6f206665657360c81b6044820152606490fd5b600681019081549060ff821690604051906000908054614b5681614287565b91600191808316908115614be75750600114614baa575b5050506040826004959493600080516020614c038339815191529303902092815190614b9881614233565b8152856020820152a260ff1916179055565b9091925060005260209081600020906000915b848310614bd65750505090820190506040826004614b6d565b805486840152918301918101614bbd565b60ff1916865250505080151502820190506040826004614b6d56fea76c3b7423c609f9756b55905a211a402af319118a555928e75d689b642bdba597667070c54ef182b0f5858b034beac1b6f3089aa2d3188bb1e8929f4fa9b929a2646970667358221220e77aca9d1d19476b44dce4e105af98aecf0217aaa197fdd04189f776532e3f1c64736f6c634300081400332f8788117e7eff1d82e926ec794901d17c78024a50270940304540a733656f0d",
  "linkReferences": {},
  "deployedLinkReferences": {}
}