{
  "_format": "hh-sol-artifact-1",
  "contractName": "PredictionBattleV9",
  "sourceName": "contracts/PredictionBattleV9.sol",
  "abi": [
    {
      "inputs": [
        {
          "internalType": "address",
          "name": "_admin",
          "type": "address"
        },
        {
          "internalType": "address",
          "name": "_operator",
          "type": "address"
        },
        {
          "internalType": "address",
          "name": "_treasury",
          "type": "address"
        }
      ],
      "stateMutability": "nonpayable",
      "type": "constructor"
    },
    {
      "inputs": [],
      "name": "AccessControlBadConfirmation",
      "type": "error"
    },
    {
      "inputs": [
        {
          "internalType": "address",
          "name": "account",
          "type": "address"
        },
        {
          "internalType": "bytes32",
          "name": "neededRole",
          "type": "bytes32"
        }
      ],
      "name": "AccessControlUnauthorizedAccount",
      "type": "error"
    },
    {
      "inputs": [],
      "name": "EnforcedPause",
      "type": "error"
    },
    {
      "inputs": [],
      "name": "ExpectedPause",
      "type": "error"
    },
    {
      "inputs": [],
      "name": "ReentrancyGuardReentrantCall",
      "type": "error"
    },
    {
      "inputs": [
        {
          "internalType": "address",
          "name": "token",
          "type": "address"
        }
      ],
      "name": "SafeERC20FailedOperation",
      "type": "error"
    },
    {
      "anonymous": false,
      "inputs": [
        {
          "indexed": true,
          "internalType": "string",
          "name": "id",
          "type": "string"
        },
        {
          "indexed": true,
          "internalType": "address",
          "name": "user",
          "type": "address"
        },
        {
          "indexed": false,
          "internalType": "bool",
          "name": "side",
          "type": "bool"
        },
        {
          "indexed": false,
          "internalType": "uint256",
          "name": "amount",
          "type": "uint256"
        },
        {
          "indexed": false,
          "internalType": "uint256",
          "name": "shares",
          "type": "uint256"
        },
        {
          "indexed": false,
          "internalType": "address",
          "name": "referrer",
          "type": "address"
        },
        {
          "indexed": false,
          "internalType": "uint256",
          "name": "weight",
          "type": "uint256"
        }
      ],
      "name": "BetPlaced",
      "type": "event"
    },
    {
      "anonymous": false,
      "inputs": [
        {
          "indexed": true,
          "internalType": "address",
          "name": "user",
          "type": "address"
        },
        {
          "indexed": false,
          "internalType": "uint256",
          "name": "amount",
          "type": "uint256"
        }
      ],
      "name": "BondWithdrawn",
      "type": "event"
    },
    {
      "anonymous": false,
      "inputs": [
        {
          "indexed": true,
          "internalType": "address",
          "name": "creator",
          "type": "address"
        },
        {
          "indexed": false,
          "internalType": "uint256",
          "name": "amount",
          "type": "uint256"
        }
      ],
      "name": "CreatorFeesWithdrawn",
      "type": "event"
    },
    {
      "anonymous": false,
      "inputs": [
        {
          "indexed": true,
          "internalType": "string",
          "name": "id",
          "type": "string"
        },
        {
          "indexed": true,
          "internalType": "address",
          "name": "winner",
          "type": "address"
        },
        {
          "indexed": false,
          "internalType": "uint256",
          "name": "totalBondReward",
          "type": "uint256"
        },
        {
          "indexed": false,
          "internalType": "bool",
          "name": "finalResult",
          "type": "bool"
        }
      ],
      "name": "DisputeResolved",
      "type": "event"
    },
    {
      "anonymous": false,
      "inputs": [
        {
          "indexed": true,
          "internalType": "address",
          "name": "treasury",
          "type": "address"
        },
        {
          "indexed": false,
          "internalType": "uint256",
          "name": "amount",
          "type": "uint256"
        }
      ],
      "name": "HouseFeeWithdrawn",
      "type": "event"
    },
    {
      "anonymous": false,
      "inputs": [
        {
          "indexed": true,
          "internalType": "string",
          "name": "id",
          "type": "string"
        },
        {
          "indexed": true,
          "internalType": "address",
          "name": "creator",
          "type": "address"
        },
        {
          "indexed": false,
          "internalType": "uint256",
          "name": "deadlineTime",
          "type": "uint256"
        },
        {
          "indexed": false,
          "internalType": "uint256",
          "name": "seedAmount",
          "type": "uint256"
        }
      ],
      "name": "MarketCreated",
      "type": "event"
    },
    {
      "anonymous": false,
      "inputs": [
        {
          "indexed": true,
          "internalType": "string",
          "name": "id",
          "type": "string"
        },
        {
          "indexed": false,
          "internalType": "bool",
          "name": "result",
          "type": "bool"
        },
        {
          "indexed": false,
          "internalType": "uint256",
          "name": "winnerPool",
          "type": "uint256"
        }
      ],
      "name": "MarketResolved",
      "type": "event"
    },
    {
      "anonymous": false,
      "inputs": [
        {
          "indexed": true,
          "internalType": "string",
          "name": "marketId",
          "type": "string"
        },
        {
          "indexed": false,
          "internalType": "enum PredictionBattleV9.MarketState",
          "name": "oldState",
          "type": "uint8"
        },
        {
          "indexed": false,
          "internalType": "enum PredictionBattleV9.MarketState",
          "name": "newState",
          "type": "uint8"
        }
      ],
      "name": "MarketStateChanged",
      "type": "event"
    },
    {
      "anonymous": false,
      "inputs": [
        {
          "indexed": true,
          "internalType": "string",
          "name": "id",
          "type": "string"
        }
      ],
      "name": "MarketVoided",
      "type": "event"
    },
    {
      "anonymous": false,
      "inputs": [
        {
          "indexed": true,
          "internalType": "string",
          "name": "id",
          "type": "string"
        },
        {
          "indexed": true,
          "internalType": "address",
          "name": "challenger",
          "type": "address"
        },
        {
          "indexed": false,
          "internalType": "uint256",
          "name": "bond",
          "type": "uint256"
        },
        {
          "indexed": false,
          "internalType": "string",
          "name": "evidence",
          "type": "string"
        }
      ],
      "name": "OutcomeChallenged",
      "type": "event"
    },
    {
      "anonymous": false,
      "inputs": [
        {
          "indexed": true,
          "internalType": "string",
          "name": "id",
          "type": "string"
        },
        {
          "indexed": true,
          "internalType": "address",
          "name": "proposer",
          "type": "address"
        },
        {
          "indexed": false,
          "internalType": "uint256",
          "name": "reward",
          "type": "uint256"
        }
      ],
      "name": "OutcomeFinalized",
      "type": "event"
    },
    {
      "anonymous": false,
      "inputs": [
        {
          "indexed": true,
          "internalType": "string",
          "name": "id",
          "type": "string"
        },
        {
          "indexed": true,
          "internalType": "address",
          "name": "proposer",
          "type": "address"
        },
        {
          "indexed": false,
          "internalType": "bool",
          "name": "result",
          "type": "bool"
        },
        {
          "indexed": false,
          "internalType": "uint256",
          "name": "bond",
          "type": "uint256"
        },
        {
          "indexed": false,
          "internalType": "uint256",
          "name": "disputeEndTime",
          "type": "uint256"
        },
        {
          "indexed": false,
          "internalType": "string",
          "name": "evidence",
          "type": "string"
        }
      ],
      "name": "OutcomeProposed",
      "type": "event"
    },
    {
      "anonymous": false,
      "inputs": [
        {
          "indexed": false,
          "internalType": "address",
          "name": "account",
          "type": "address"
        }
      ],
      "name": "Paused",
      "type": "event"
    },
    {
      "anonymous": false,
      "inputs": [
        {
          "indexed": true,
          "internalType": "string",
          "name": "id",
          "type": "string"
        },
        {
          "indexed": true,
          "internalType": "address",
          "name": "user",
          "type": "address"
        },
        {
          "indexed": false,
          "internalType": "uint256",
          "name": "amount",
          "type": "uint256"
        }
      ],
      "name": "PayoutClaimed",
      "type": "event"
    },
    {
      "anonymous": false,
      "inputs": [
        {
          "indexed": true,
          "internalType": "address",
          "name": "referrer",
          "type": "address"
        },
        {
          "indexed": false,
          "internalType": "uint256",
          "name": "amount",
          "type": "uint256"
        }
      ],
      "name": "ReferrerFeesWithdrawn",
      "type": "event"
    },
    {
      "anonymous": false,
      "inputs": [
        {
          "indexed": true,
          "internalType": "string",
          "name": "marketId",
          "type": "string"
        },
        {
          "indexed": true,
          "internalType": "address",
          "name": "proposer",
          "type": "address"
        },
        {
          "indexed": false,
          "internalType": "uint256",
          "name": "reward",
          "type": "uint256"
        }
      ],
      "name": "ReporterRewardClaimed",
      "type": "event"
    },
    {
      "anonymous": false,
      "inputs": [
        {
          "indexed": true,
          "internalType": "bytes32",
          "name": "role",
          "type": "bytes32"
        },
        {
          "indexed": true,
          "internalType": "bytes32",
          "name": "previousAdminRole",
          "type": "bytes32"
        },
        {
          "indexed": true,
          "internalType": "bytes32",
          "name": "newAdminRole",
          "type": "bytes32"
        }
      ],
      "name": "RoleAdminChanged",
      "type": "event"
    },
    {
      "anonymous": false,
      "inputs": [
        {
          "indexed": true,
          "internalType": "bytes32",
          "name": "role",
          "type": "bytes32"
        },
        {
          "indexed": true,
          "internalType": "address",
          "name": "account",
          "type": "address"
        },
        {
          "indexed": true,
          "internalType": "address",
          "name": "sender",
          "type": "address"
        }
      ],
      "name": "RoleGranted",
      "type": "event"
    },
    {
      "anonymous": false,
      "inputs": [
        {
          "indexed": true,
          "internalType": "bytes32",
          "name": "role",
          "type": "bytes32"
        },
        {
          "indexed": true,
          "internalType": "address",
          "name": "account",
          "type": "address"
        },
        {
          "indexed": true,
          "internalType": "address",
          "name": "sender",
          "type": "address"
        }
      ],
      "name": "RoleRevoked",
      "type": "event"
    },
    {
      "anonymous": false,
      "inputs": [
        {
          "indexed": true,
          "internalType": "string",
          "name": "id",
          "type": "string"
        },
        {
          "indexed": true,
          "internalType": "address",
          "name": "creator",
          "type": "address"
        },
        {
          "indexed": false,
          "internalType": "uint256",
          "name": "amount",
          "type": "uint256"
        }
      ],
      "name": "SeedWithdrawn",
      "type": "event"
    },
    {
      "anonymous": false,
      "inputs": [
        {
          "indexed": true,
          "internalType": "address",
          "name": "newTreasury",
          "type": "address"
        },
        {
          "indexed": false,
          "internalType": "uint256",
          "name": "executeTime",
          "type": "uint256"
        }
      ],
      "name": "TreasuryChangeProposed",
      "type": "event"
    },
    {
      "anonymous": false,
      "inputs": [
        {
          "indexed": true,
          "internalType": "address",
          "name": "oldTreasury",
          "type": "address"
        },
        {
          "indexed": true,
          "internalType": "address",
          "name": "newTreasury",
          "type": "address"
        }
      ],
      "name": "TreasuryUpdated",
      "type": "event"
    },
    {
      "anonymous": false,
      "inputs": [
        {
          "indexed": false,
          "internalType": "address",
          "name": "account",
          "type": "address"
        }
      ],
      "name": "Unpaused",
      "type": "event"
    },
    {
      "inputs": [],
      "name": "DEFAULT_ADMIN_ROLE",
      "outputs": [
        {
          "internalType": "bytes32",
          "name": "",
          "type": "bytes32"
        }
      ],
      "stateMutability": "view",
      "type": "function"
    },
    {
      "inputs": [],
      "name": "DISPUTE_WINDOW",
      "outputs": [
        {
          "internalType": "uint256",
          "name": "",
          "type": "uint256"
        }
      ],
      "stateMutability": "view",
      "type": "function"
    },
    {
      "inputs": [],
      "name": "EMERGENCY_TIMEOUT",
      "outputs": [
        {
          "internalType": "uint256",
          "name": "",
          "type": "uint256"
        }
      ],
      "stateMutability": "view",
      "type": "function"
    },
    {
      "inputs": [],
      "name": "FEE_DENOMINATOR",
      "outputs": [
        {
          "internalType": "uint256",
          "name": "",
          "type": "uint256"
        }
      ],
      "stateMutability": "view",
      "type": "function"
    },
    {
      "inputs": [],
      "name": "MAX_BETTORS_PER_SIDE",
      "outputs": [
        {
          "internalType": "uint256",
          "name": "",
          "type": "uint256"
        }
      ],
      "stateMutability": "view",
      "type": "function"
    },
    {
      "inputs": [],
      "name": "MAX_WEIGHT",
      "outputs": [
        {
          "internalType": "uint256",
          "name": "",
          "type": "uint256"
        }
      ],
      "stateMutability": "view",
      "type": "function"
    },
    {
      "inputs": [],
      "name": "MIN_BET_AMOUNT",
      "outputs": [
        {
          "internalType": "uint256",
          "name": "",
          "type": "uint256"
        }
      ],
      "stateMutability": "view",
      "type": "function"
    },
    {
      "inputs": [],
      "name": "MIN_BOND",
      "outputs": [
        {
          "internalType": "uint256",
          "name": "",
          "type": "uint256"
        }
      ],
      "stateMutability": "view",
      "type": "function"
    },
    {
      "inputs": [],
      "name": "MIN_MARKET_INTERVAL",
      "outputs": [
        {
          "internalType": "uint256",
          "name": "",
          "type": "uint256"
        }
      ],
      "stateMutability": "view",
      "type": "function"
    },
    {
      "inputs": [],
      "name": "MIN_WEIGHT",
      "outputs": [
        {
          "internalType": "uint256",
          "name": "",
          "type": "uint256"
        }
      ],
      "stateMutability": "view",
      "type": "function"
    },
    {
      "inputs": [],
      "name": "OPERATOR_ROLE",
      "outputs": [
        {
          "internalType": "bytes32",
          "name": "",
          "type": "bytes32"
        }
      ],
      "stateMutability": "view",
      "type": "function"
    },
    {
      "inputs": [],
      "name": "REPORTER_REWARD_BPS",
      "outputs": [
        {
          "internalType": "uint256",
          "name": "",
          "type": "uint256"
        }
      ],
      "stateMutability": "view",
      "type": "function"
    },
    {
      "inputs": [],
      "name": "SHARE_PRECISION",
      "outputs": [
        {
          "internalType": "uint256",
          "name": "",
          "type": "uint256"
        }
      ],
      "stateMutability": "view",
      "type": "function"
    },
    {
      "inputs": [],
      "name": "TREASURY_TIMELOCK",
      "outputs": [
        {
          "internalType": "uint256",
          "name": "",
          "type": "uint256"
        }
      ],
      "stateMutability": "view",
      "type": "function"
    },
    {
      "inputs": [
        {
          "internalType": "string",
          "name": "_marketId",
          "type": "string"
        },
        {
          "internalType": "enum PredictionBattleV9.MarketOutcome",
          "name": "_outcome",
          "type": "uint8"
        }
      ],
      "name": "adminResolve",
      "outputs": [],
      "stateMutability": "nonpayable",
      "type": "function"
    },
    {
      "inputs": [
        {
          "internalType": "string",
          "name": "_marketId",
          "type": "string"
        },
        {
          "internalType": "string",
          "name": "_evidenceUrl",
          "type": "string"
        },
        {
          "internalType": "uint256",
          "name": "_bondAmount",
          "type": "uint256"
        }
      ],
      "name": "challengeOutcome",
      "outputs": [],
      "stateMutability": "nonpayable",
      "type": "function"
    },
    {
      "inputs": [
        {
          "internalType": "string",
          "name": "_marketId",
          "type": "string"
        }
      ],
      "name": "claimFallback",
      "outputs": [],
      "stateMutability": "nonpayable",
      "type": "function"
    },
    {
      "inputs": [
        {
          "internalType": "string",
          "name": "_marketId",
          "type": "string"
        }
      ],
      "name": "claimReporterReward",
      "outputs": [],
      "stateMutability": "nonpayable",
      "type": "function"
    },
    {
      "inputs": [
        {
          "internalType": "string",
          "name": "_marketId",
          "type": "string"
        }
      ],
      "name": "claimWinnings",
      "outputs": [],
      "stateMutability": "nonpayable",
      "type": "function"
    },
    {
      "inputs": [
        {
          "internalType": "address",
          "name": "",
          "type": "address"
        }
      ],
      "name": "claimableBonds",
      "outputs": [
        {
          "internalType": "uint256",
          "name": "",
          "type": "uint256"
        }
      ],
      "stateMutability": "view",
      "type": "function"
    },
    {
      "inputs": [
        {
          "internalType": "string",
          "name": "_id",
          "type": "string"
        },
        {
          "internalType": "string",
          "name": "_question",
          "type": "string"
        },
        {
          "internalType": "uint256",
          "name": "_usdcSeedAmount",
          "type": "uint256"
        },
        {
          "internalType": "uint256",
          "name": "_durationSeconds",
          "type": "uint256"
        },
        {
          "internalType": "uint256",
          "name": "_bonusDurationSeconds",
          "type": "uint256"
        }
      ],
      "name": "createMarket",
      "outputs": [],
      "stateMutability": "nonpayable",
      "type": "function"
    },
    {
      "inputs": [
        {
          "internalType": "address",
          "name": "",
          "type": "address"
        }
      ],
      "name": "creatorBalance",
      "outputs": [
        {
          "internalType": "uint256",
          "name": "",
          "type": "uint256"
        }
      ],
      "stateMutability": "view",
      "type": "function"
    },
    {
      "inputs": [],
      "name": "creatorFeeBps",
      "outputs": [
        {
          "internalType": "uint256",
          "name": "",
          "type": "uint256"
        }
      ],
      "stateMutability": "view",
      "type": "function"
    },
    {
      "inputs": [],
      "name": "currentOperator",
      "outputs": [
        {
          "internalType": "address",
          "name": "",
          "type": "address"
        }
      ],
      "stateMutability": "view",
      "type": "function"
    },
    {
      "inputs": [
        {
          "internalType": "string",
          "name": "_marketId",
          "type": "string"
        }
      ],
      "name": "emergencyResolve",
      "outputs": [],
      "stateMutability": "nonpayable",
      "type": "function"
    },
    {
      "inputs": [
        {
          "internalType": "address",
          "name": "_newTreasury",
          "type": "address"
        }
      ],
      "name": "executeTreasuryChange",
      "outputs": [],
      "stateMutability": "nonpayable",
      "type": "function"
    },
    {
      "inputs": [
        {
          "internalType": "string",
          "name": "_marketId",
          "type": "string"
        }
      ],
      "name": "finalizeOutcome",
      "outputs": [],
      "stateMutability": "nonpayable",
      "type": "function"
    },
    {
      "inputs": [
        {
          "internalType": "string",
          "name": "_marketId",
          "type": "string"
        }
      ],
      "name": "getMarketDetails",
      "outputs": [
        {
          "internalType": "enum PredictionBattleV9.MarketState",
          "name": "state",
          "type": "uint8"
        },
        {
          "internalType": "enum PredictionBattleV9.MarketOutcome",
          "name": "outcome",
          "type": "uint8"
        },
        {
          "internalType": "uint256",
          "name": "totalYes",
          "type": "uint256"
        },
        {
          "internalType": "uint256",
          "name": "totalNo",
          "type": "uint256"
        },
        {
          "internalType": "uint256",
          "name": "deadlineTime",
          "type": "uint256"
        },
        {
          "internalType": "address",
          "name": "creator",
          "type": "address"
        },
        {
          "internalType": "uint256",
          "name": "seedAmount",
          "type": "uint256"
        }
      ],
      "stateMutability": "view",
      "type": "function"
    },
    {
      "inputs": [
        {
          "internalType": "bytes32",
          "name": "role",
          "type": "bytes32"
        }
      ],
      "name": "getRoleAdmin",
      "outputs": [
        {
          "internalType": "bytes32",
          "name": "",
          "type": "bytes32"
        }
      ],
      "stateMutability": "view",
      "type": "function"
    },
    {
      "inputs": [
        {
          "internalType": "bytes32",
          "name": "role",
          "type": "bytes32"
        },
        {
          "internalType": "address",
          "name": "account",
          "type": "address"
        }
      ],
      "name": "grantRole",
      "outputs": [],
      "stateMutability": "nonpayable",
      "type": "function"
    },
    {
      "inputs": [
        {
          "internalType": "string",
          "name": "",
          "type": "string"
        },
        {
          "internalType": "address",
          "name": "",
          "type": "address"
        }
      ],
      "name": "hasClaimed",
      "outputs": [
        {
          "internalType": "bool",
          "name": "",
          "type": "bool"
        }
      ],
      "stateMutability": "view",
      "type": "function"
    },
    {
      "inputs": [
        {
          "internalType": "bytes32",
          "name": "role",
          "type": "bytes32"
        },
        {
          "internalType": "address",
          "name": "account",
          "type": "address"
        }
      ],
      "name": "hasRole",
      "outputs": [
        {
          "internalType": "bool",
          "name": "",
          "type": "bool"
        }
      ],
      "stateMutability": "view",
      "type": "function"
    },
    {
      "inputs": [],
      "name": "houseBalance",
      "outputs": [
        {
          "internalType": "uint256",
          "name": "",
          "type": "uint256"
        }
      ],
      "stateMutability": "view",
      "type": "function"
    },
    {
      "inputs": [],
      "name": "houseFeeBps",
      "outputs": [
        {
          "internalType": "uint256",
          "name": "",
          "type": "uint256"
        }
      ],
      "stateMutability": "view",
      "type": "function"
    },
    {
      "inputs": [
        {
          "internalType": "string",
          "name": "",
          "type": "string"
        }
      ],
      "name": "lastBetTime",
      "outputs": [
        {
          "internalType": "uint256",
          "name": "",
          "type": "uint256"
        }
      ],
      "stateMutability": "view",
      "type": "function"
    },
    {
      "inputs": [
        {
          "internalType": "address",
          "name": "",
          "type": "address"
        }
      ],
      "name": "lastMarketCreation",
      "outputs": [
        {
          "internalType": "uint256",
          "name": "",
          "type": "uint256"
        }
      ],
      "stateMutability": "view",
      "type": "function"
    },
    {
      "inputs": [
        {
          "internalType": "string",
          "name": "",
          "type": "string"
        }
      ],
      "name": "marketExists",
      "outputs": [
        {
          "internalType": "bool",
          "name": "",
          "type": "bool"
        }
      ],
      "stateMutability": "view",
      "type": "function"
    },
    {
      "inputs": [
        {
          "internalType": "string",
          "name": "",
          "type": "string"
        }
      ],
      "name": "markets",
      "outputs": [
        {
          "internalType": "string",
          "name": "id",
          "type": "string"
        },
        {
          "internalType": "address",
          "name": "creator",
          "type": "address"
        },
        {
          "internalType": "string",
          "name": "question",
          "type": "string"
        },
        {
          "internalType": "uint256",
          "name": "creationTime",
          "type": "uint256"
        },
        {
          "internalType": "uint256",
          "name": "bonusDuration",
          "type": "uint256"
        },
        {
          "internalType": "uint256",
          "name": "deadlineTime",
          "type": "uint256"
        },
        {
          "internalType": "enum PredictionBattleV9.MarketState",
          "name": "state",
          "type": "uint8"
        },
        {
          "internalType": "enum PredictionBattleV9.MarketOutcome",
          "name": "outcome",
          "type": "uint8"
        },
        {
          "internalType": "uint256",
          "name": "seedAmount",
          "type": "uint256"
        },
        {
          "internalType": "bool",
          "name": "seedWithdrawn",
          "type": "bool"
        },
        {
          "internalType": "address",
          "name": "proposer",
          "type": "address"
        },
        {
          "internalType": "bool",
          "name": "proposedResult",
          "type": "bool"
        },
        {
          "internalType": "uint256",
          "name": "proposalTime",
          "type": "uint256"
        },
        {
          "internalType": "uint256",
          "name": "bondAmount",
          "type": "uint256"
        },
        {
          "internalType": "string",
          "name": "evidenceUrl",
          "type": "string"
        },
        {
          "internalType": "address",
          "name": "challenger",
          "type": "address"
        },
        {
          "internalType": "uint256",
          "name": "challengeBondAmount",
          "type": "uint256"
        },
        {
          "internalType": "string",
          "name": "challengeEvidenceUrl",
          "type": "string"
        },
        {
          "internalType": "uint256",
          "name": "challengeTime",
          "type": "uint256"
        },
        {
          "internalType": "uint256",
          "name": "totalYes",
          "type": "uint256"
        },
        {
          "internalType": "uint256",
          "name": "totalNo",
          "type": "uint256"
        },
        {
          "internalType": "uint256",
          "name": "totalSharesYes",
          "type": "uint256"
        },
        {
          "internalType": "uint256",
          "name": "totalSharesNo",
          "type": "uint256"
        },
        {
          "internalType": "uint256",
          "name": "yesBettorsCount",
          "type": "uint256"
        },
        {
          "internalType": "uint256",
          "name": "noBettorsCount",
          "type": "uint256"
        }
      ],
      "stateMutability": "view",
      "type": "function"
    },
    {
      "inputs": [],
      "name": "maxBetAmount",
      "outputs": [
        {
          "internalType": "uint256",
          "name": "",
          "type": "uint256"
        }
      ],
      "stateMutability": "view",
      "type": "function"
    },
    {
      "inputs": [],
      "name": "maxMarketPool",
      "outputs": [
        {
          "internalType": "uint256",
          "name": "",
          "type": "uint256"
        }
      ],
      "stateMutability": "view",
      "type": "function"
    },
    {
      "inputs": [
        {
          "internalType": "string",
          "name": "",
          "type": "string"
        },
        {
          "internalType": "address",
          "name": "",
          "type": "address"
        }
      ],
      "name": "noBets",
      "outputs": [
        {
          "internalType": "uint256",
          "name": "amount",
          "type": "uint256"
        },
        {
          "internalType": "uint256",
          "name": "shares",
          "type": "uint256"
        },
        {
          "internalType": "address",
          "name": "referrer",
          "type": "address"
        }
      ],
      "stateMutability": "view",
      "type": "function"
    },
    {
      "inputs": [],
      "name": "pause",
      "outputs": [],
      "stateMutability": "nonpayable",
      "type": "function"
    },
    {
      "inputs": [],
      "name": "paused",
      "outputs": [
        {
          "internalType": "bool",
          "name": "",
          "type": "bool"
        }
      ],
      "stateMutability": "view",
      "type": "function"
    },
    {
      "inputs": [
        {
          "internalType": "bytes32",
          "name": "",
          "type": "bytes32"
        }
      ],
      "name": "pendingTreasuryChange",
      "outputs": [
        {
          "internalType": "uint256",
          "name": "",
          "type": "uint256"
        }
      ],
      "stateMutability": "view",
      "type": "function"
    },
    {
      "inputs": [
        {
          "internalType": "string",
          "name": "_marketId",
          "type": "string"
        },
        {
          "internalType": "bool",
          "name": "_side",
          "type": "bool"
        },
        {
          "internalType": "uint256",
          "name": "_usdcAmount",
          "type": "uint256"
        },
        {
          "internalType": "uint256",
          "name": "_minSharesOut",
          "type": "uint256"
        },
        {
          "internalType": "address",
          "name": "_referrer",
          "type": "address"
        }
      ],
      "name": "placeBet",
      "outputs": [],
      "stateMutability": "nonpayable",
      "type": "function"
    },
    {
      "inputs": [
        {
          "internalType": "string",
          "name": "_marketId",
          "type": "string"
        },
        {
          "internalType": "bool",
          "name": "_result",
          "type": "bool"
        },
        {
          "internalType": "string",
          "name": "_evidenceUrl",
          "type": "string"
        },
        {
          "internalType": "uint256",
          "name": "_bondAmount",
          "type": "uint256"
        }
      ],
      "name": "proposeOutcome",
      "outputs": [],
      "stateMutability": "nonpayable",
      "type": "function"
    },
    {
      "inputs": [
        {
          "internalType": "address",
          "name": "_newTreasury",
          "type": "address"
        }
      ],
      "name": "proposeTreasuryChange",
      "outputs": [],
      "stateMutability": "nonpayable",
      "type": "function"
    },
    {
      "inputs": [],
      "name": "referrerFeeBps",
      "outputs": [
        {
          "internalType": "uint256",
          "name": "",
          "type": "uint256"
        }
      ],
      "stateMutability": "view",
      "type": "function"
    },
    {
      "inputs": [
        {
          "internalType": "bytes32",
          "name": "role",
          "type": "bytes32"
        },
        {
          "internalType": "address",
          "name": "callerConfirmation",
          "type": "address"
        }
      ],
      "name": "renounceRole",
      "outputs": [],
      "stateMutability": "nonpayable",
      "type": "function"
    },
    {
      "inputs": [
        {
          "internalType": "string",
          "name": "",
          "type": "string"
        }
      ],
      "name": "reporterRewardClaimed",
      "outputs": [
        {
          "internalType": "bool",
          "name": "",
          "type": "bool"
        }
      ],
      "stateMutability": "view",
      "type": "function"
    },
    {
      "inputs": [
        {
          "internalType": "string",
          "name": "_marketId",
          "type": "string"
        },
        {
          "internalType": "address",
          "name": "_winnerAddress",
          "type": "address"
        }
      ],
      "name": "resolveDispute",
      "outputs": [],
      "stateMutability": "nonpayable",
      "type": "function"
    },
    {
      "inputs": [
        {
          "internalType": "bytes32",
          "name": "role",
          "type": "bytes32"
        },
        {
          "internalType": "address",
          "name": "account",
          "type": "address"
        }
      ],
      "name": "revokeRole",
      "outputs": [],
      "stateMutability": "nonpayable",
      "type": "function"
    },
    {
      "inputs": [
        {
          "internalType": "address",
          "name": "",
          "type": "address"
        }
      ],
      "name": "rewardsBalance",
      "outputs": [
        {
          "internalType": "uint256",
          "name": "",
          "type": "uint256"
        }
      ],
      "stateMutability": "view",
      "type": "function"
    },
    {
      "inputs": [
        {
          "internalType": "address",
          "name": "_newOperator",
          "type": "address"
        }
      ],
      "name": "setOperator",
      "outputs": [],
      "stateMutability": "nonpayable",
      "type": "function"
    },
    {
      "inputs": [
        {
          "internalType": "bytes4",
          "name": "interfaceId",
          "type": "bytes4"
        }
      ],
      "name": "supportsInterface",
      "outputs": [
        {
          "internalType": "bool",
          "name": "",
          "type": "bool"
        }
      ],
      "stateMutability": "view",
      "type": "function"
    },
    {
      "inputs": [],
      "name": "sweepDust",
      "outputs": [],
      "stateMutability": "nonpayable",
      "type": "function"
    },
    {
      "inputs": [],
      "name": "totalLockedAmount",
      "outputs": [
        {
          "internalType": "uint256",
          "name": "",
          "type": "uint256"
        }
      ],
      "stateMutability": "view",
      "type": "function"
    },
    {
      "inputs": [],
      "name": "treasury",
      "outputs": [
        {
          "internalType": "address",
          "name": "",
          "type": "address"
        }
      ],
      "stateMutability": "view",
      "type": "function"
    },
    {
      "inputs": [],
      "name": "unpause",
      "outputs": [],
      "stateMutability": "nonpayable",
      "type": "function"
    },
    {
      "inputs": [],
      "name": "usdcToken",
      "outputs": [
        {
          "internalType": "contract IERC20",
          "name": "",
          "type": "address"
        }
      ],
      "stateMutability": "view",
      "type": "function"
    },
    {
      "inputs": [
        {
          "internalType": "string",
          "name": "_marketId",
          "type": "string"
        }
      ],
      "name": "voidAbandonedMarket",
      "outputs": [],
      "stateMutability": "nonpayable",
      "type": "function"
    },
    {
      "inputs": [
        {
          "internalType": "string",
          "name": "_marketId",
          "type": "string"
        }
      ],
      "name": "voidMarket",
      "outputs": [],
      "stateMutability": "nonpayable",
      "type": "function"
    },
    {
      "inputs": [],
      "name": "withdrawBond",
      "outputs": [],
      "stateMutability": "nonpayable",
      "type": "function"
    },
    {
      "inputs": [],
      "name": "withdrawCreatorFees",
      "outputs": [],
      "stateMutability": "nonpayable",
      "type": "function"
    },
    {
      "inputs": [],
      "name": "withdrawHouseFees",
      "outputs": [],
      "stateMutability": "nonpayable",
      "type": "function"
    },
    {
      "inputs": [],
      "name": "withdrawReferrerFees",
      "outputs": [],
      "stateMutability": "nonpayable",
      "type": "function"
    },
    {
      "inputs": [
        {
          "internalType": "string",
          "name": "_marketId",
          "type": "string"
        }
      ],
      "name": "withdrawSeed",
      "outputs": [],
      "stateMutability": "nonpayable",
      "type": "function"
    },
    {
      "inputs": [
        {
          "internalType": "string",
          "name": "",
          "type": "string"
        },
        {
          "internalType": "address",
          "name": "",
          "type": "address"
        }
      ],
      "name": "yesBets",
      "outputs": [
        {
          "internalType": "uint256",
          "name": "amount",
          "type": "uint256"
        },
        {
          "internalType": "uint256",
          "name": "shares",
          "type": "uint256"
        },
        {
          "internalType": "address",
          "name": "referrer",
          "type": "address"
        }
      ],
      "stateMutability": "view",
      "type": "function"
    }
  ],
  "bytecode": "0x608034620001a057601f62004c0a38819003918201601f191683019291906001600160401b03841183851017620001a5578160609284926040968752833981010312620001a0576200005181620001bb565b6200006c836200006460208501620001bb565b9301620001bb565b60016000556103e86004556101f4600581905560065564174876e80060075564e8d4a51000600855916001600160a01b03828116156200016c57808216938415620001355716918215620000fe57600380546001600160a01b03199081169094179055620000e79190620000e090620001d0565b5062000251565b506017541617601755516148f59081620002f58239f35b845162461bcd60e51b815260206004820152601060248201526f496e76616c696420547265617375727960801b6044820152606490fd5b855162461bcd60e51b815260206004820152601060248201526f24b73b30b634b21027b832b930ba37b960811b6044820152606490fd5b845162461bcd60e51b815260206004820152600d60248201526c24b73b30b634b21020b236b4b760991b6044820152606490fd5b600080fd5b634e487b7160e01b600052604160045260246000fd5b51906001600160a01b0382168203620001a057565b6001600160a01b031660008181527fac33ff75c19e70fe83507db0d683fd3465c996598dc972688b7ace676c89077b602052604081205490919060ff166200024d5781805260026020526040822081835260205260408220600160ff19825416179055339160008051602062004bea8339815191528180a4600190565b5090565b6001600160a01b031660008181527f6bc781d8c7f9885ebbb3cefbc18932c491038e2ae5c5b56447891e0bd98ea16360205260408120549091907f97667070c54ef182b0f5858b034beac1b6f3089aa2d3188bb1e8929f4fa9b9299060ff16620002ef5780835260026020526040832082845260205260408320600160ff1982541617905560008051602062004bea833981519152339380a4600190565b50509056fe61020080604052600436101561001457600080fd5b60003560e01c9081626fb9ff14613c665750806301ffc9a714613c1057806305a9f27414613bf257806311eac85514613bc357806317773ebb14613ba55780631caed77c14613b6b5780632023115d14613988578063214529ad1461396a578063218b5382146135f6578063248a9ca31461393b57806329a3a0d61461363a5780632f2ff15d146135fb578063327abb48146135f657806336568abe146135af57806337b150da146135925780633aae0474146133195780633bc6f6061461321d5780633cff3549146131dc5780633f4ba83a146131725780633fed6ced1461312457806345d98ccb146115f85780634a5bfc5b1461302557806359f5a41f146130075780635c975abb14612fe45780635e578a5614612f2f5780635fc5e02014612f0c57806361d027b314612ee35780636475e3d314612ec657806366eb9cec14612e0c57806367084eb314612dee5780637f26407614612dd05780637f98a3f714612c175780638456cb5914612bbe578063896bdac814612b8457806391d1485414612b37578063941c773414612ae95780639522eb49146128ae5780639a826eb71461284b5780639bd1d5131461229d578063a07c16331461227f578063a217fddf14612263578063a53df2e214612174578063b3ab15fb146120c7578063c227955a14611c4a578063c5479faf146117a6578063c8eaef1914611688578063cab11d5d1461166a578063d031639b1461163e578063d547741f146115fd578063d73792a9146115f8578063dbeae54c14611580578063dfdc5f77146114f1578063e0de0fee146114d3578063e0ffbac5146114aa578063e129d0411461144e578063e1cd04b4146113bf578063e1e90ab314611265578063e4a28a5214611249578063e6cd7ab61461120f578063ee59d240146111f1578063efbda66114610f41578063f585dc5714610f24578063f5b541a614610efb578063f677b4d414610e6d578063f69be50214610a48578063fc9cd8d014610898578063fdbcf125146103c05763fe1140a31461030b57600080fd5b346103bb5760203660031901126103bb57610324613c9c565b61032c613f58565b6001600160a01b0316610340811515614203565b60405160208101908282526020815261035881613d11565b5190206202a3004201908142116103a5577f2fdb8aa18e3708b0dfed4acb0de7452e85e7f833b1b055880cef38e8bee690b591602091600052600f825280604060002055604051908152a2005b634e487b7160e01b600052601160045260246000fd5b600080fd5b346103bb576020806003193601126103bb576004356001600160401b0381116103bb576103f1903690600401613cc8565b6103fc929192614355565b61041c60ff60405183868237848185810160128152030190205416614378565b604051818482378281838101601181520301902060068101549061044e600460ff841661044881613e24565b14614579565b604051838682378481858101601581520301902033600052845261047a60ff60406000205416156145b4565b60006040518487823785818681016013815203019020336000528552604060002091604051858882378681878101601481520301902033600052865260ff60406000209460081c166104cb81613e24565b600481036105ad57505050906104e49154905490614241565b925b831561057557907f2f0b27a029bcea8b4cd6e1f002ba498bd37b903b56578a04f1576cd25c09de539160405182828237848184810160158152030190203360005284526040600020600160ff1982541617905561054585601054614625565b6010556105528533614632565b816040519283928337810160008152039020916040519384523393a36001600055005b60405162461bcd60e51b815260048101849052601060248201526f4e6f7468696e6720746f20636c61696d60801b6044820152606490fd5b6105bc81989594929398613e24565b600381036106e35750906105d38254845490614241565b806105e2575b505050506104e6565b60045460055494985091926105f78584614241565b98600654998a9561271061060d81988294614241565b61061790876145f2565b046106229086614625565b9b600160a01b6001900397888060018195015416966002015416948186151560001461067b976106719661066a94610662936106d65750509a5b8a6145f2565b049a886145f2565b04956145f2565b0495600b54614241565b600b55600052600c87526106956040600020918254614241565b90551680156106c157600052600d84526106b56040600020918254614241565b90555b848080806105d9565b506106ce90600b54614241565b600b556106b8565b60020154169b905061065c565b806106ef600192613e24565b149283156108905750915b8254151580610883575b610711575b5050506104e6565b909195506107286010830154601184015490614241565b9015610878576012820154905b811561083f579061074d6107529260018901546145f2565b614605565b9060045495600554926107658489614241565b906107736006548093614241565b90606482018092116103a557612710808061078f8195856145f2565b0461079a9084614625565b9b6107a590846145f2565b04966107b190836145f2565b04926107bc916145f2565b0493600b54906107cb91614241565b600b55600160a01b6001900360018194015416600052600c87526040600020908154906107f791614241565b90556002018054821615610829575416600052600d845261081e6040600020918254614241565b90555b848080610709565b505061083790600b54614241565b600b55610821565b60405162461bcd60e51b81526004810187905260116024820152704e6f2077696e6e696e672073686172657360781b6044820152606490fd5b601382015490610735565b5060018301541515610704565b9050916106fa565b346103bb576020806003193601126103bb576004356001600160401b0381116103bb576108c9903690600401613cc8565b916108d2614355565b6108f260ff60405185858237838187810160128152030190205416614378565b60405183838237818185810160118152030190206006810191610924600360ff85541661091e81613e24565b1461451f565b600f82015462278d0081018091116103a557421115610a11579061096591600a8201805490816109df575b5050600d82018054806109b0575b5050506147c2565b61040061ff00198254161790558160405192839283378101600081520390207f1e9a51575531367c4323c60efe8c5b980af66cd0509c86d8f4e1a3d9c9001700600080a26001600055005b600e60009360018060a01b03600c870154168552526109d460408420918254614241565b90555585808061095d565b60009160018060a01b03600886015460081c168352600e8452610a0760408420918254614241565b905555868061094f565b6064906040519062461bcd60e51b82526004820152601060248201526f54696d65206c6f636b2061637469766560801b6044820152fd5b346103bb5760603660031901126103bb576004356001600160401b0381116103bb57610a78903690600401613cc8565b6024356001600160401b0381116103bb57610a97903690600401613cc8565b91610aa0614289565b610aa8614355565b610ac960ff6040518387823760208185810160128152030190205416614378565b610ad7610200841115614401565b60405181858237602081838101601181520301902093610b09600260ff600688015416610b0381613e24565b1461424e565b600985015461a8c081018091116103a5574211610e3857610b32600a8601546044351015614481565b60088581015433911c6001600160a01b031614610dfb57610b5660443530336142a7565b610b64604435601054614241565b601055600685015460405160008754610b7c81613e53565b9060018116908115610de65750600114610db2575b509080600393920390207fa76c3b7423c609f9756b55905a211a402af319118a555928e75d689b642bdba56040805160ff8516610bcd81613e24565b8152856020820152a260ff1916176006860155600c850180546001600160a01b03191633179055604435600d860155600e8501946001600160401b038511610d9c57610c198654613e53565b601f8111610d54575b50600095601f8611600114610cc55790610cb0939291867f4bd7c92eba598ee7ab038ac4a59ab8feb6d65703229128829d6cdd17959b121f969798600091610cba575b508860011b906000198a60031b1c19161790555b600f4291015581604051928392833781016000815203902092604051918291604435835260406020840152339660408401916144c1565b0390a36001600055005b905087013589610c65565b601f1986168160005260206000209060005b818110610d3c57509087987f4bd7c92eba598ee7ab038ac4a59ab8feb6d65703229128829d6cdd17959b121f9798610cb0979695949310610d22575b5050600188811b019055610c79565b88013560001960038b901b60f8161c191690558880610d13565b878a013583556020998a019960019093019201610cd7565b866000526020600020601f870160051c81019160208810610d92575b601f0160051c01905b818110610d865750610c22565b60008155600101610d79565b9091508190610d70565b634e487b7160e01b600052604160045260246000fd5b90508760005260206000206000905b828210610dd2575050810181610b91565b600181602092548487015201910190610dc1565b60ff1916845250801515028201905081610b91565b60405162461bcd60e51b815260206004820152601560248201527443616e6e6f742073656c662d6368616c6c656e676560581b6044820152606490fd5b60405162461bcd60e51b815260206004820152600d60248201526c15da5b991bddc818db1bdcd959609a1b6044820152606490fd5b346103bb5760003660031901126103bb57610e86613f58565b610e8e614355565b600b54610e9c8115156146bc565b6000600b55610ead81601054614625565b6010557f19f7a31ae4185f3274e252a5a78ec36ba85c01300bc8a800d41d79be74662a8e602060018060a01b03610ee8848260035416614632565b6003541692604051908152a26001600055005b346103bb5760003660031901126103bb5760206040516000805160206148a08339815191528152f35b346103bb5760003660031901126103bb57602060405161a8c08152f35b346103bb5760203660031901126103bb576004356001600160401b0381116103bb57610f71903690600401613d4d565b6040518181809351602081930191610f8892613de4565b810160118152036020019020806101c052610fa290613e8d565b6101c05160018101546001600160a01b031660e052610fc390600201613e8d565b610100526101c05160038101549060048101546101a052600581015460c052600681015491600782015491600881015491600982015491600a81015490600b0161100c90613e8d565b926101c05194600160a01b60019003600c8701541696600d87015496600e0161103490613e8d565b986101c0519a600f8c01546101405260108c01549b60118101546101605260128101546101e052601381015460a052601481015461018052601501546080526040518061012052610320809152610120510161108f91613f33565b60e051610120516020015261012051808203906040015261010051906110b491613f33565b9561012051606001526101a051610120516080015260c0516101205160a0015260ff81166110e181613e24565b6101205160c0015260081c60ff166110f881613e24565b6101205160e0015261012051610100015260ff81161515610120516101200152600160a01b600190038160081c1661012051610140015260a81c60ff161515610120516101600152610120516101800152610120516101a0015261012051808203906101c0015261116891613f33565b91610120516101e001526101205161020001526101205180820390610220015261119191613f33565b9061014051610120516102400152610120516102600152610160516101205161028001526101e051610120516102a0015260a051610120516102c0015261018051610120516102e001526080516101205161030001526101205180910390f35b346103bb5760003660031901126103bb576020600454604051908152f35b346103bb5760203660031901126103bb576001600160a01b03611230613c9c565b16600052600c6020526020604060002054604051908152f35b346103bb5760003660031901126103bb57602060405160968152f35b346103bb576020806003193601126103bb576004356001600160401b0381116103bb57611296903690600401613cc8565b6112a1929192614355565b6112c160ff60405183868237848185810160128152030190205416614378565b6040518184823782818381016011815203019020926112ec600460ff60068701541661044881613e24565b61130360018060a01b036001860154163314614681565b6008840180549460ff86166113865760070154948515611357579060017f3ff50bb01a71ba44b43b95e691fe785159d1c403efd991b82f3b5f62a2d8148a94939260ff191617905561054585601054614625565b60405162461bcd60e51b8152600481018690526007602482015266139bc81cd9595960ca1b6044820152606490fd5b60405162461bcd60e51b815260048101869052601160248201527020b63932b0b23c903bb4ba34323930bbb760791b6044820152606490fd5b346103bb5760003660031901126103bb576113d8614355565b33600052600c6020526040600020546113f28115156146bc565b33600052600c6020526000604081205561140e81601054614625565b60105561141b8133614632565b6040519081527f7f0b212761a7abe7ec4d2adea5a7fa1fea58234aabf0c01c0e63403fe62013ff60203392a26001600055005b346103bb5760203660031901126103bb576004356001600160401b0381116103bb57611497602061148481933690600401613d4d565b8160405193828580945193849201613de4565b8101600a81520301902054604051908152f35b346103bb5760003660031901126103bb576017546040516001600160a01b039091168152602090f35b346103bb5760003660031901126103bb576020604051624c4b408152f35b346103bb5760003660031901126103bb5761150a614355565b33600052600d6020526040600020546115248115156146bc565b33600052600d6020526000604081205561154081601054614625565b60105561154d8133614632565b6040519081527f3c4f6499c168416bb9b014d9d1e1d8132e5aaafd7bbcfc48d49ee1d5a2d90f5260203392a26001600055005b346103bb5760206115a861159336613da3565b92908160405193828580945193849201613de4565b6013908201908152030190206001600160a01b0391821660009081526020918252604090819020805460018201546002909201548351918252938101919091529190921691810191909152606090f35b613e07565b346103bb5760403660031901126103bb5761163c60043561161c613cb2565b90806000526002602052611637600160406000200154613fb0565b61418c565b005b346103bb5760203660031901126103bb57600435600052600f6020526020604060002054604051908152f35b346103bb5760003660031901126103bb576020600754604051908152f35b346103bb576020806003193601126103bb576004356001600160401b0381116103bb576116b9903690600401613cc8565b916116c2614355565b6000805160206148a083398151915260005260028152604060002033600052815260ff604060002054168015611787575b6116fc906144e2565b60405183838237818185810160118152030190206006810191600460ff84541661172581613e24565b14611750579061096591600a8201805490816109df575050600d82018054806109b0575050506147c2565b6064906040519062461bcd60e51b82526004820152601060248201526f105b1c9958591e481c995cdbdb1d995960821b6044820152fd5b506000808052600282526040808220338352835290205460ff166116f3565b346103bb5760803660031901126103bb576004356001600160401b0381116103bb576117d6903690600401613cc8565b6117de613e44565b906044356001600160401b0381116103bb576117fe903690600401613cc8565b939092611809614289565b611811614355565b61183260ff6040518585823760208187810160128152030190205416614378565b611840610200861115614401565b60405183838237602081858101601181520301902061187960ff60068301541661186981613e24565b8015908115611c36575b50614445565b60018101546001600160a01b03163314611be4575b60405184848237602081868101600a8152030190205461070881018091116103a5574210611b935760646118cb6010830154601184015490614241565b04624c4b409080820182116103a5576118e991016064351015614481565b6118f660643530336142a7565b611904606435601054614241565b60105560068101546040516000835461191c81613e53565b9060018116908115611b7e5750600114611b4a575b509181600292600b95940390207fa76c3b7423c609f9756b55905a211a402af319118a555928e75d689b642bdba56040805160ff851661197081613e24565b8152856020820152a260ff191617600682015560088082018054610100600160a81b0319163390921b610100600160a81b031691909117815592835460ff60a81b191690151560a881901b60ff60a81b1691909117909355426009820155606435600a820155016001600160401b038611610d9c576119ef8154613e53565b601f8111611b02575b50856000601f8211600114611a9c57600091611a91575b508660011b906000198860031b1c19161790555b61a8c04201918242116103a55783610cb0917f5247f2366f7e70fc0b5fc61f486408d977047c08d356ffb76c3d35832ceeaf269560405192839283378101600081520390209460405193849384526064356020850152604084015260806060840152339660808401916144c1565b905085013587611a0f565b60008381526020812092508890601f198216905b818110611ae7575010611acd575b5050600186811b019055611a23565b860135600019600389901b60f8161c191690558680611abe565b8984013585556001909401936020938401938b935001611ab0565b816000526020600020601f880160051c81019160208910611b40575b601f0160051c01905b818110611b3457506119f8565b60008155600101611b27565b9091508190611b1e565b90508360005260206000206000905b828210611b6a575050810181611931565b600181602092548487015201910190611b59565b60ff1916845250801515028201905081611931565b60405162461bcd60e51b8152602060048201526024808201527f436f6f6c2d646f776e3a20776169742033306d696e206166746572206c6173746044820152630818995d60e21b6064820152608490fd5b60038101546201518081018091116103a55742101561188e5760405162461bcd60e51b8152602060048201526011602482015270086e4cac2e8dee47440eec2d2e8406468d607b1b6044820152606490fd5b60019150611c4381613e24565b1488611873565b346103bb5760a03660031901126103bb576004356001600160401b0381116103bb57611c7a903690600401613cc8565b611c82613e44565b916084356001600160a01b038116906044908135908390036103bb57611ca6614289565b611cae614355565b6040519480858737611cd360ff87838101601281526020998a91030190205416614378565b604051818682378681838101601181520301902060ff600682015416611cf881613e24565b61209857600581015442101561206a5761c3508310612036576007548311612002576040518287823782810190600a825288814293030190205560108101805491611d5285611d4d6011840195865490614241565b614241565b60085410611fc857338714611f9057611d6c8530336142a7565b611d7885601054614241565b601055611dab611d916003830154600484015490614241565b42108b15611f88578684545b8d15611f80578654906146f2565b956064358710611f445750611e739291908a15611f2157611dcd868354614241565b825560128101611dde888254614241565b90555b8a15611efb57604051858a82378a818781016013815203019020336000528a52600260406000205b611e14888254614241565b815560018101611e258a8254614241565b90550180546001600160a01b031916891790558a15611edf57601401611e588154611e5361271082106143b0565b6143f2565b90555b8915611ed7578154915b8a15611ece5750549061477c565b948160405192839283378101600081520390209460405196151587528601526040850152606084015260808301527fa994696d1a657073ceaa15fbacd649938053ce8bee7de30ec1c28d337cc37b2360a03393a36001600055005b9050549061477c565b805491611e65565b601501611ef48154611e5361271082106143b0565b9055611e5b565b604051858a82378a818781016014815203019020336000528a5260026040600020611e09565b611f2c868454614241565b835560138101611f3d888254614241565b9055611de1565b897514db1a5c1c1859d94e8813d9191cc818da185b99d95960521b6064926040519262461bcd60e51b8452600484015260166024840152820152fd5b8554906146f2565b868554611d9d565b60405162461bcd60e51b8152600481018a9052601160248201527021b0b73737ba1039b2b63316b932b332b960791b81880152606490fd5b60405162461bcd60e51b8152600481018a90526013602482015272141bdbdb081b1a5b5a5d08195e18d959591959606a1b81880152606490fd5b60405162461bcd60e51b815260048101889052600d60248201526c42657420746f6f206c6172676560981b81860152606490fd5b60405162461bcd60e51b815260048101889052600d60248201526c10995d081d1bdbc81cdb585b1b609a1b81860152606490fd5b60405162461bcd60e51b8152600481018890526007602482015266115e1c1a5c995960ca1b81860152606490fd5b60405162461bcd60e51b81526004810188905260086024820152672737ba1037b832b760c11b81860152606490fd5b346103bb5760203660031901126103bb576120e0613c9c565b6120e8613f58565b6001600160a01b038181169190612100831515614203565b601754169081831461213c5761211861211e926140f2565b50613fd6565b506bffffffffffffffffffffffff60a01b6017541617601755600080f35b60405162461bcd60e51b815260206004820152601060248201526f20b63932b0b23c9037b832b930ba37b960811b6044820152606490fd5b346103bb5760003660031901126103bb5761218d613f58565b6040516370a0823160e01b815230600482015260208160248173036cbd53842c5426634e7929541ec2318f3dcf7e5afa90811561225757600091612226575b5060105490818111156121f75761163c916121e691614625565b6003546001600160a01b0316614632565b60405162461bcd60e51b8152602060048201526007602482015266139bc8191d5cdd60ca1b6044820152606490fd5b90506020813d821161224f575b8161224060209383613d2c565b810103126103bb5751816121cc565b3d9150612233565b6040513d6000823e3d90fd5b346103bb5760003660031901126103bb57602060405160008152f35b346103bb5760003660031901126103bb576020600654604051908152f35b346103bb5760a03660031901126103bb576004356001600160401b0381116103bb576122cd903690600401613cc8565b6024356001600160401b0381116103bb576122ec903690600401613cc8565b6122f4614289565b6122fc614355565b82151580612840575b1561280757600a811015806127fb575b156127b65760ff604051848682376020818681016012815203019020541661278157620f424060443510612749576008546044351161271357606435156126db57336000526009602052604060002054610e1081018091116103a55742106126a9573360005260096020524260406000205561239460443530336142a7565b6123a2604435601054614241565b601055604051838582376020818581016011815203019020916001600160401b038411610d9c576123d38354613e53565b601f8111612663575b50836000601f82116001146125fe576000916125f3575b508460011b906000198660031b1c19161783555b6001830180546001600160a01b031916331790556001600160401b038211610d9c5781906124386002850154613e53565b601f81116125a2575b50600090601f831160011461253157600092612526575b50508160011b916000199060031b1c19161760028201555b426003820155608435801561251d575b600482015561249160643542614241565b9060058101918255600681019060ff19918281541690556007604435910155600160405184868237602081868101601281520301902091825416179055549181604051928392833781016000815203902060405191825260443560208301527fccdee9db8c345dd53026f5dedbf3e8b723ceddd2ad8eeb96b00ce37fddd58b6460403393a36001600055005b50606435612480565b013590508580612458565b909250600284016000526020600020906000935b601f198416851061258a576001945083601f19811610612570575b505050811b016002820155612470565b0135600019600384901b60f8161c19169055858080612560565b81810135835560209485019460019093019201612545565b909150600284016000526020600020601f840160051c8101602085106125ec575b90601f8594930160051c01905b8181106125dd5750612441565b600081558493506001016125d0565b50806125c3565b9050850135866123f3565b60008581526020812092505b601f198716811061264b575085601f19811610612631575b5050600184811b018355612407565b860135600019600387901b60f8161c191690558580612622565b9091602060018192858b01358155019301910161260a565b836000526020600020601f860160051c8101602087106126a2575b601f90920160051c01905b81811061269657506123dc565b60008155600101612689565b508061267e565b60405162461bcd60e51b815260206004820152600a60248201526914985d19481b1a5b5a5d60b21b6044820152606490fd5b60405162461bcd60e51b815260206004820152601060248201526f24b73b30b634b210323ab930ba34b7b760811b6044820152606490fd5b60405162461bcd60e51b815260206004820152600e60248201526d5365656420746f6f206c6172676560901b6044820152606490fd5b60405162461bcd60e51b815260206004820152601060248201526f4d696e20736565643a2031205553444360801b6044820152606490fd5b60405162461bcd60e51b815260206004820152600d60248201526c4d61726b65742065786973747360981b6044820152606490fd5b60405162461bcd60e51b815260206004820152601760248201527f496e76616c6964207175657374696f6e206c656e6774680000000000000000006044820152606490fd5b506101f4811115612315565b60405162461bcd60e51b8152602060048201526011602482015270092dcecc2d8d2c840928840d8cadccee8d607b1b6044820152606490fd5b506040831115612305565b346103bb57602061285e61159336613da3565b6014908201908152030190206001600160a01b0391821660009081526020918252604090819020805460018201546002909201548351918252938101919091529190921691810191909152606090f35b346103bb5760403660031901126103bb576004356001600160401b0381116103bb576128de903690600401613cc8565b906024359060058210156103bb576128f4614355565b3360009081527fac33ff75c19e70fe83507db0d683fd3465c996598dc972688b7ace676c89077b602090815260409091205490939060ff1615612ab857600160ff7f175b08e6ee8bbceb85780e790adca99ec4fbd3bb124ffbf50bd35ed4375a69ac94956129778260405186888237838188810160128152030190205416614378565b6129e260405185878237828187810160118152030190209760068901926129b5858554166129a481613e24565b60038114908115612aa45750614445565b600a8a0180549081612a72575b5050600d8a01805480612a43575b5050506129dc896147c2565b8261455a565b5460081c166129f081613e24565b14938415612a395760100154915b81604051928392833781016000815203902092612a2f60405192839283602090939291936040810194151581520152565b0390a26001600055005b60110154916129fe565b600e6000938d600c8b8060a01b0391015416855252612a6760408420918254614241565b9055558980806129d0565b6000918c60088a8060a01b0391015460081c168352600e8452612a9a60408420918254614241565b9055558a806129c2565b60029150612ab181613e24565b148c611873565b60405162461bcd60e51b81526004810185905260096024820152682737ba1030b236b4b760b91b6044820152606490fd5b346103bb5760203660031901126103bb576004356001600160401b0381116103bb5760ff612b21602061148481943690600401613d4d565b8101601681520301902054166040519015158152f35b346103bb5760403660031901126103bb57612b50613cb2565b600435600052600260205260406000209060018060a01b0316600052602052602060ff604060002054166040519015158152f35b346103bb5760203660031901126103bb576001600160a01b03612ba5613c9c565b16600052600d6020526020604060002054604051908152f35b346103bb5760003660031901126103bb57612bd7613f58565b612bdf614289565b600160ff19815416176001557f62e78cea01bee320cd4e420270b5ea74000d11b0c9f74754ebdbfc544b05a2586020604051338152a1005b346103bb576020806003193601126103bb576004356001600160401b0381116103bb57612c48903690600401613cc8565b612c53929192614355565b612c7360ff60405183868237848185810160128152030190205416614378565b6040518184823782818381016011815203019020600460ff6006830154612ca08383831661044881613e24565b60081c16612cad81613e24565b14612d9857600881810154901c6001600160a01b03163303612d6457612cfe90612cee60ff60405185888237868187810160168152030190205416156145b4565b6011601082015491015490614241565b906064820291808304606414901517156103a5576127107f8324cae916d4cce50ee31a76930f77226846d2070fb9ae521d41eac167bed93d9204936040518282823784818481016016815203019020600160ff1982541617905561054585601054614625565b60405162461bcd60e51b815260048101849052600c60248201526b2737ba10383937b837b9b2b960a11b6044820152606490fd5b60405162461bcd60e51b815260048101849052601060248201526f13585c9ad95d0818d85b98d95b1b195960821b6044820152606490fd5b346103bb5760003660031901126103bb57602060405162278d008152f35b346103bb5760003660031901126103bb576020600b54604051908152f35b346103bb5760003660031901126103bb57612e25614355565b33600052600e6020526040600020548015612e965733600052600e60205260006040812055612e5681601054614625565b601055612e638133614632565b6040519081527f0d41118e36df44efb77a471fc49fb9c0be0406d802ef95520e9fbf606e65b45560203392a26001600055005b60405162461bcd60e51b81526020600482015260086024820152674e6f20626f6e647360c01b6044820152606490fd5b346103bb5760003660031901126103bb57602060405161c3508152f35b346103bb5760003660031901126103bb576003546040516001600160a01b039091168152602090f35b346103bb5760003660031901126103bb576020604051670de0b6b3a76400008152f35b346103bb5760203660031901126103bb576004356001600160401b0381116103bb576020612f6360e0923690600401613cc8565b91908260405193849283378101601181520301902060068101549060ff8083169260081c169060108101546011820154600583015491600760018060a01b036001860154169401549460405196612fb981613e24565b8752612fc481613e24565b602087015260408601526060850152608084015260a083015260c0820152f35b346103bb5760003660031901126103bb57602060ff600154166040519015158152f35b346103bb5760003660031901126103bb576020600854604051908152f35b346103bb5760203660031901126103bb576004356001600160401b0381116103bb57613055903690600401613cc8565b9061305e614355565b61307f60ff6040518484823760208186810160128152030190205416614378565b60405182828237602081848101601181520301902060068101906130b960ff8354166130aa81613e24565b80159081156131105750614445565b600581015462278d0081018091116103a5574211156130db57610965906147c2565b60405162461bcd60e51b815260206004820152600d60248201526c139bdd081858985b991bdb9959609a1b6044820152606490fd5b6001915061311d81613e24565b1486611873565b346103bb5760203660031901126103bb576004356001600160401b0381116103bb5760ff61315c602061148481943690600401613d4d565b8101601281520301902054166040519015158152f35b346103bb5760003660031901126103bb5761318b613f58565b60015460ff8116156131ca5760ff19166001557f5db9ee0a495bf2e6ff9c91a7834c1ba4fdd244a5e8aa4e537bd38aeae4b073aa6020604051338152a1005b604051638dfc202b60e01b8152600490fd5b346103bb5760206131ef61159336613da3565b810160158152030190209060018060a01b0316600052602052602060ff604060002054166040519015158152f35b346103bb576020806003193601126103bb57613237613c9c565b61323f613f58565b6040516001600160a01b0391821683820181815284835290939161326281613d11565b5190209081600052600f815261327e604060002054151561424e565b81600052600f815260406000205442106132e357600f9060035492856bffffffffffffffffffffffff60a01b8516176003556000525260006040812055167f4ab5be82436d353e61ca18726e984e561f5c1cc7c6d38b29d2553c790434705a600080a3005b6064906040519062461bcd60e51b82526004820152600f60248201526e54696d656c6f636b2061637469766560881b6044820152fd5b346103bb576020806003193601126103bb576004356001600160401b0381116103bb5761334a903690600401613cc8565b9190613354614355565b61337460ff60405185848237848187810160128152030190205416614378565b60405183828237828185810160118152030190209260ff60068501546133a1600483831661044881613e24565b60081c166133ae81613e24565b600181149081801561357f575b15613548576133c990613e24565b1561353e5760128401545b61350957600184019161342260018060a01b03956133f6878654163314614681565b6040518484823786818681016015815203019020336000528652612cee60ff60406000205416156145b4565b60045495600554946134348689614241565b956134426006548098614241565b606481018091116103a5576134ab6134b592613491926134a461349e7f2f0b27a029bcea8b4cd6e1f002ba498bd37b903b56578a04f1576cd25c09de539c6134988b61271098899687926145f2565b048c614625565b9f614241565b896145f2565b04966145f2565b0493600b54614241565b600b555416600052600c85526134d16040600020918254614241565b905560405182828237848184810160158152030190203360005284526040600020600160ff1982541617905561054585601054614625565b60405162461bcd60e51b815260048101849052600d60248201526c15da5b9b995c9cc8195e1a5cdd609a1b6044820152606490fd5b60138401546133d4565b60405162461bcd60e51b815260048101869052600f60248201526e496e76616c6964206f7574636f6d6560881b6044820152606490fd5b5061358981613e24565b600281146133bb565b346103bb5760003660031901126103bb576020604051610e108152f35b346103bb5760403660031901126103bb576135c8613cb2565b336001600160a01b038216036135e45761163c9060043561418c565b60405163334bd91960e11b8152600490fd5b613cf5565b346103bb5760403660031901126103bb5761163c60043561361a613cb2565b90806000526002602052613635600160406000200154613fb0565b614077565b346103bb5760403660031901126103bb576004356001600160401b0381116103bb5761366a903690600401613cc8565b90613673613cb2565b9061367c614355565b3360009081527f6bc781d8c7f9885ebbb3cefbc18932c491038e2ae5c5b56447891e0bd98ea163602052604090205460ff168015613903575b6136be906144e2565b6136df60ff6040518584823760208187810160128152030190205416614378565b6040518382823760208185810160118152030190209261370b600360ff60068701541661091e81613e24565b6008848101546001600160a01b0395911c85168486161480156138f2575b156138bc577f175b08e6ee8bbceb85780e790adca99ec4fbd3bb124ffbf50bd35ed4375a69ac93613763600a830154600d84015490614241565b90868116600052600e602052604060002061377f838254614241565b905560088381018054610100600160a81b0319169183901b610100600160a81b03169190911790556137b0836147c2565b6008830154878160081c16888316146000146138955750600883015460a81c60ff161561388b576137e660015b6006850161455a565b6000600a8401556000600d8401557f38b360c485b4bed5c0c2e2ab639b104b4e002dbf7351d0d4431e48b6d9e2bfce6040600160ff600687015460081c1661382d81613e24565b149881518789823780888101600081520390209382519586528a60208701521693a38415612a3957601001549181604051928392833781016000815203902092612a2f60405192839283602090939291936040810194151581520152565b6137e660026137dd565b60a81c60ff166138b2576138ad60016006850161455a565b6137e6565b6138ad60026137dd565b60405162461bcd60e51b815260206004820152600e60248201526d24b73b30b634b2103bb4b73732b960911b6044820152606490fd5b5084600c8201541685851614613729565b503360009081527fac33ff75c19e70fe83507db0d683fd3465c996598dc972688b7ace676c89077b602052604090205460ff166136b5565b346103bb5760203660031901126103bb5760043560005260026020526020600160406000200154604051908152f35b346103bb5760003660031901126103bb5760206040516202a3008152f35b346103bb576020806003193601126103bb576004356001600160401b0381116103bb576139b9903690600401613cc8565b91906139c3614355565b6139e360ff60405185848237848187810160128152030190205416614378565b6040518382823782818581016011815203019020926006840193613a10600260ff875416610b0381613e24565b600981015461a8c081018091116103a557421115613b36577f175b08e6ee8bbceb85780e790adca99ec4fbd3bb124ffbf50bd35ed4375a69ac9394600160ff60088401926000838060a01b03855460081c169483600a8801918c600e8454918a875252613a8260408620918254614241565b9055613a8d896147c2565b5460a81c168214613b2c57613aa3855b8461455a565b555460081c16613ab281613e24565b14957fe2b1d963f1ec20d10d097a5196a0a9e7b5ff982020b428f20918fe52a2234edf6040518587823780868101600081520390209160405160008152a38415612a3957601001549181604051928392833781016000815203902092612a2f60405192839283602090939291936040810194151581520152565b613aa36002613a9d565b60405162461bcd60e51b815260048101859052600d60248201526c57696e646f772061637469766560981b6044820152606490fd5b346103bb5760203660031901126103bb576001600160a01b03613b8c613c9c565b1660005260096020526020604060002054604051908152f35b346103bb5760003660031901126103bb576020600554604051908152f35b346103bb5760003660031901126103bb57602060405173036cbd53842c5426634e7929541ec2318f3dcf7e8152f35b346103bb5760003660031901126103bb576020601054604051908152f35b346103bb5760203660031901126103bb5760043563ffffffff60e01b81168091036103bb57602090637965db0b60e01b8114908115613c55575b506040519015158152f35b6301ffc9a760e01b14905082613c4a565b346103bb5760203660031901126103bb576020906001600160a01b03613c8a613c9c565b16600052600e82526040600020548152f35b600435906001600160a01b03821682036103bb57565b602435906001600160a01b03821682036103bb57565b9181601f840112156103bb578235916001600160401b0383116103bb57602083818601950101116103bb57565b346103bb5760003660031901126103bb57602060405160648152f35b604081019081106001600160401b03821117610d9c57604052565b90601f801991011681019081106001600160401b03821117610d9c57604052565b81601f820112156103bb578035906001600160401b038211610d9c5760405192613d81601f8401601f191660200185613d2c565b828452602083830101116103bb57816000926020809301838601378301015290565b60406003198201126103bb57600435906001600160401b0382116103bb57613dcd91600401613d4d565b906024356001600160a01b03811681036103bb5790565b60005b838110613df75750506000910152565b8181015183820152602001613de7565b346103bb5760003660031901126103bb5760206040516127108152f35b60051115613e2e57565b634e487b7160e01b600052602160045260246000fd5b6024359081151582036103bb57565b90600182811c92168015613e83575b6020831014613e6d57565b634e487b7160e01b600052602260045260246000fd5b91607f1691613e62565b9060405191826000825492613ea184613e53565b908184526001948581169081600014613f105750600114613ecd575b5050613ecb92500383613d2c565b565b9093915060005260209081600020936000915b818310613ef8575050613ecb93508201013880613ebd565b85548884018501529485019487945091830191613ee0565b915050613ecb94506020925060ff191682840152151560051b8201013880613ebd565b90602091613f4c81518092818552858086019101613de4565b601f01601f1916010190565b3360009081527fac33ff75c19e70fe83507db0d683fd3465c996598dc972688b7ace676c89077b602052604081205460ff1615613f925750565b6044906040519063e2517d3f60e01b82523360048301526024820152fd5b80600052600260205260406000203360005260205260ff6040600020541615613f925750565b6001600160a01b031660008181527f6bc781d8c7f9885ebbb3cefbc18932c491038e2ae5c5b56447891e0bd98ea16360205260408120549091906000805160206148a08339815191529060ff166140725780835260026020526040832082845260205260408320600160ff198254161790557f2f8788117e7eff1d82e926ec794901d17c78024a50270940304540a733656f0d339380a4600190565b505090565b906000918083526002602052604083209160018060a01b03169182845260205260ff604084205416156000146140725780835260026020526040832082845260205260408320600160ff198254161790557f2f8788117e7eff1d82e926ec794901d17c78024a50270940304540a733656f0d339380a4600190565b6001600160a01b031660008181527f6bc781d8c7f9885ebbb3cefbc18932c491038e2ae5c5b56447891e0bd98ea16360205260408120549091906000805160206148a08339815191529060ff1615614072578083526002602052604083208284526020526040832060ff1981541690557ff6391f5c32d9c69d2a47ea670b442974b53935d1edc7fd64eb21e047a839171b339380a4600190565b906000918083526002602052604083209160018060a01b03169182845260205260ff604084205416600014614072578083526002602052604083208284526020526040832060ff1981541690557ff6391f5c32d9c69d2a47ea670b442974b53935d1edc7fd64eb21e047a839171b339380a4600190565b1561420a57565b60405162461bcd60e51b815260206004820152600f60248201526e496e76616c6964206164647265737360881b6044820152606490fd5b919082018092116103a557565b1561425557565b60405162461bcd60e51b815260206004820152600c60248201526b139bdd081c1c9bdc1bdcd95960a21b6044820152606490fd5b60ff6001541661429557565b60405163d93c066560e01b8152600490fd5b6040516323b872dd60e01b60208201526001600160a01b0391821660248201529116604482015260648082019290925290815260a08101906001600160401b03821181831017610d9c57613ecb916040525b6020600082518273036cbd53842c5426634e7929541ec2318f3dcf7e940182855af115612257576000513d61434c5750803b155b6143345750565b60249060405190635274afe760e01b82526004820152fd5b6001141561432d565b600260005414614366576002600055565b604051633ee5aeb560e01b8152600490fd5b1561437f57565b60405162461bcd60e51b8152602060048201526009602482015268139bc81b585c9ad95d60ba1b6044820152606490fd5b156143b757565b60405162461bcd60e51b815260206004820152601360248201527213585e0818995d1d1bdc9cc81c995858da1959606a1b6044820152606490fd5b60001981146103a55760010190565b1561440857565b60405162461bcd60e51b815260206004820152601560248201527445766964656e63652055524c20746f6f206c6f6e6760581b6044820152606490fd5b1561444c57565b60405162461bcd60e51b815260206004820152600d60248201526c496e76616c696420737461746560981b6044820152606490fd5b1561448857565b60405162461bcd60e51b8152602060048201526011602482015270125b9cdd59999a58da595b9d08189bdb99607a1b6044820152606490fd5b908060209392818452848401376000828201840152601f01601f1916010190565b156144e957565b60405162461bcd60e51b815260206004820152600e60248201526d139bdd08185d5d1a1bdc9a5e995960921b6044820152606490fd5b1561452657565b60405162461bcd60e51b815260206004820152600c60248201526b139bdd08191a5cdc1d5d195960a21b6044820152606490fd5b9061456481613e24565b61ff0082549160081b169061ff001916179055565b1561458057565b60405162461bcd60e51b815260206004820152600c60248201526b139bdd081c995cdbdb1d995960a21b6044820152606490fd5b156145bb57565b60405162461bcd60e51b815260206004820152600f60248201526e105b1c9958591e4818db185a5b5959608a1b6044820152606490fd5b818102929181159184041417156103a557565b811561460f570490565b634e487b7160e01b600052601260045260246000fd5b919082039182116103a557565b60405163a9059cbb60e01b60208201526001600160a01b03909116602482015260448082019290925290815260808101906001600160401b03821181831017610d9c57613ecb916040526142f9565b1561468857565b60405162461bcd60e51b815260206004820152600c60248201526b27b7363c9031b932b0ba37b960a11b6044820152606490fd5b156146c357565b60405162461bcd60e51b81526020600482015260076024820152664e6f206665657360c81b6044820152606490fd5b9192821561475c57156147515761470c6096915b83614241565b91670de0b6b3a7640000928381029381850414901517156103a55768056bc75e2d63100000936147426147489261474d95614605565b906145f2565b6145f2565b0490565b61470c606491614706565b505050670de0b6b3a7640000908181029181830414901517156103a55790565b8015908180156147ba575b6147b257606481029181830460641417156103a5576147af926147a991614241565b90614605565b90565b505050603290565b508215614787565b600681019081549060ff8216906040519060009080546147e181613e53565b916001918083169081156148845750600114614847575b50505060408260049594937fa76c3b7423c609f9756b55905a211a402af319118a555928e75d689b642bdba5930390209281519061483581613e24565b8152856020820152a260ff1916179055565b9091925060005260209081600020906000915b84831061487357505050908201905060408260046147f8565b80548684015291830191810161485a565b60ff19168652505050801515028201905060408260046147f856fe97667070c54ef182b0f5858b034beac1b6f3089aa2d3188bb1e8929f4fa9b929a2646970667358221220080026f777bb0f9ff7b622dd64f13a24b4d01ab29a796a7a3bd39c44d656e85264736f6c634300081400332f8788117e7eff1d82e926ec794901d17c78024a50270940304540a733656f0d",
  "linkReferences": {},
  "deployedLinkReferences": {}
}