{
  "_format": "hh-sol-artifact-1",
  "contractName": "PredictionBattleV10",
  "sourceName": "contracts/PredictionBattleV10.sol",
  "abi": [
    {
      "inputs": [
        {
          "internalType": "address",
          "name": "_admin",
          "type": "address"
        },
        {
          "internalType": "address",
          "name": "_operator",
          "type": "address"
        },
        {
          "internalType": "address",
          "name": "_treasury",
          "type": "address"
        },
        {
          "internalType": "address",
          "name": "_usdcToken",
          "type": "address"
        }
      ],
      "stateMutability": "nonpayable",
      "type": "constructor"
    },
    {
      "inputs": [],
      "name": "AccessControlBadConfirmation",
      "type": "error"
    },
    {
      "inputs": [
        {
          "internalType": "address",
          "name": "account",
          "type": "address"
        },
        {
          "internalType": "bytes32",
          "name": "neededRole",
          "type": "bytes32"
        }
      ],
      "name": "AccessControlUnauthorizedAccount",
      "type": "error"
    },
    {
      "inputs": [],
      "name": "EnforcedPause",
      "type": "error"
    },
    {
      "inputs": [],
      "name": "ExpectedPause",
      "type": "error"
    },
    {
      "inputs": [],
      "name": "ReentrancyGuardReentrantCall",
      "type": "error"
    },
    {
      "inputs": [
        {
          "internalType": "address",
          "name": "token",
          "type": "address"
        }
      ],
      "name": "SafeERC20FailedOperation",
      "type": "error"
    },
    {
      "anonymous": false,
      "inputs": [
        {
          "indexed": true,
          "internalType": "string",
          "name": "marketId",
          "type": "string"
        },
        {
          "indexed": false,
          "internalType": "enum PredictionBattleV10.MarketOutcome",
          "name": "originalOutcome",
          "type": "uint8"
        },
        {
          "indexed": false,
          "internalType": "enum PredictionBattleV10.MarketOutcome",
          "name": "forcedOutcome",
          "type": "uint8"
        }
      ],
      "name": "AdminResolveNoWinners",
      "type": "event"
    },
    {
      "anonymous": false,
      "inputs": [
        {
          "indexed": true,
          "internalType": "string",
          "name": "id",
          "type": "string"
        },
        {
          "indexed": true,
          "internalType": "address",
          "name": "user",
          "type": "address"
        },
        {
          "indexed": false,
          "internalType": "bool",
          "name": "side",
          "type": "bool"
        },
        {
          "indexed": false,
          "internalType": "uint256",
          "name": "amount",
          "type": "uint256"
        },
        {
          "indexed": false,
          "internalType": "uint256",
          "name": "shares",
          "type": "uint256"
        },
        {
          "indexed": false,
          "internalType": "address",
          "name": "referrer",
          "type": "address"
        },
        {
          "indexed": false,
          "internalType": "uint256",
          "name": "weight",
          "type": "uint256"
        }
      ],
      "name": "BetPlaced",
      "type": "event"
    },
    {
      "anonymous": false,
      "inputs": [
        {
          "indexed": true,
          "internalType": "address",
          "name": "user",
          "type": "address"
        },
        {
          "indexed": false,
          "internalType": "uint256",
          "name": "amount",
          "type": "uint256"
        }
      ],
      "name": "BondWithdrawn",
      "type": "event"
    },
    {
      "anonymous": false,
      "inputs": [
        {
          "indexed": true,
          "internalType": "address",
          "name": "creator",
          "type": "address"
        },
        {
          "indexed": false,
          "internalType": "uint256",
          "name": "amount",
          "type": "uint256"
        }
      ],
      "name": "CreatorFeesWithdrawn",
      "type": "event"
    },
    {
      "anonymous": false,
      "inputs": [
        {
          "indexed": true,
          "internalType": "string",
          "name": "id",
          "type": "string"
        },
        {
          "indexed": true,
          "internalType": "address",
          "name": "winner",
          "type": "address"
        },
        {
          "indexed": false,
          "internalType": "uint256",
          "name": "totalBondReward",
          "type": "uint256"
        },
        {
          "indexed": false,
          "internalType": "bool",
          "name": "finalResult",
          "type": "bool"
        }
      ],
      "name": "DisputeResolved",
      "type": "event"
    },
    {
      "anonymous": false,
      "inputs": [
        {
          "indexed": true,
          "internalType": "address",
          "name": "treasury",
          "type": "address"
        },
        {
          "indexed": false,
          "internalType": "uint256",
          "name": "amount",
          "type": "uint256"
        }
      ],
      "name": "HouseFeeWithdrawn",
      "type": "event"
    },
    {
      "anonymous": false,
      "inputs": [
        {
          "indexed": true,
          "internalType": "string",
          "name": "id",
          "type": "string"
        },
        {
          "indexed": true,
          "internalType": "address",
          "name": "creator",
          "type": "address"
        },
        {
          "indexed": false,
          "internalType": "uint256",
          "name": "deadlineTime",
          "type": "uint256"
        },
        {
          "indexed": false,
          "internalType": "uint256",
          "name": "seedAmount",
          "type": "uint256"
        }
      ],
      "name": "MarketCreated",
      "type": "event"
    },
    {
      "anonymous": false,
      "inputs": [
        {
          "indexed": true,
          "internalType": "string",
          "name": "id",
          "type": "string"
        },
        {
          "indexed": false,
          "internalType": "uint256",
          "name": "newDeadline",
          "type": "uint256"
        }
      ],
      "name": "MarketReopened",
      "type": "event"
    },
    {
      "anonymous": false,
      "inputs": [
        {
          "indexed": true,
          "internalType": "string",
          "name": "id",
          "type": "string"
        },
        {
          "indexed": false,
          "internalType": "bool",
          "name": "result",
          "type": "bool"
        },
        {
          "indexed": false,
          "internalType": "uint256",
          "name": "winnerPool",
          "type": "uint256"
        }
      ],
      "name": "MarketResolved",
      "type": "event"
    },
    {
      "anonymous": false,
      "inputs": [
        {
          "indexed": true,
          "internalType": "string",
          "name": "marketId",
          "type": "string"
        },
        {
          "indexed": false,
          "internalType": "enum PredictionBattleV10.MarketState",
          "name": "oldState",
          "type": "uint8"
        },
        {
          "indexed": false,
          "internalType": "enum PredictionBattleV10.MarketState",
          "name": "newState",
          "type": "uint8"
        }
      ],
      "name": "MarketStateChanged",
      "type": "event"
    },
    {
      "anonymous": false,
      "inputs": [
        {
          "indexed": true,
          "internalType": "string",
          "name": "id",
          "type": "string"
        }
      ],
      "name": "MarketVoided",
      "type": "event"
    },
    {
      "anonymous": false,
      "inputs": [
        {
          "indexed": true,
          "internalType": "string",
          "name": "id",
          "type": "string"
        },
        {
          "indexed": true,
          "internalType": "address",
          "name": "challenger",
          "type": "address"
        },
        {
          "indexed": false,
          "internalType": "uint256",
          "name": "bond",
          "type": "uint256"
        },
        {
          "indexed": false,
          "internalType": "string",
          "name": "evidence",
          "type": "string"
        }
      ],
      "name": "OutcomeChallenged",
      "type": "event"
    },
    {
      "anonymous": false,
      "inputs": [
        {
          "indexed": true,
          "internalType": "string",
          "name": "id",
          "type": "string"
        },
        {
          "indexed": true,
          "internalType": "address",
          "name": "proposer",
          "type": "address"
        },
        {
          "indexed": false,
          "internalType": "uint256",
          "name": "reward",
          "type": "uint256"
        }
      ],
      "name": "OutcomeFinalized",
      "type": "event"
    },
    {
      "anonymous": false,
      "inputs": [
        {
          "indexed": true,
          "internalType": "string",
          "name": "id",
          "type": "string"
        },
        {
          "indexed": true,
          "internalType": "address",
          "name": "proposer",
          "type": "address"
        },
        {
          "indexed": false,
          "internalType": "bool",
          "name": "result",
          "type": "bool"
        },
        {
          "indexed": false,
          "internalType": "uint256",
          "name": "bond",
          "type": "uint256"
        },
        {
          "indexed": false,
          "internalType": "uint256",
          "name": "disputeEndTime",
          "type": "uint256"
        },
        {
          "indexed": false,
          "internalType": "string",
          "name": "evidence",
          "type": "string"
        }
      ],
      "name": "OutcomeProposed",
      "type": "event"
    },
    {
      "anonymous": false,
      "inputs": [
        {
          "indexed": false,
          "internalType": "address",
          "name": "account",
          "type": "address"
        }
      ],
      "name": "Paused",
      "type": "event"
    },
    {
      "anonymous": false,
      "inputs": [
        {
          "indexed": true,
          "internalType": "string",
          "name": "id",
          "type": "string"
        },
        {
          "indexed": true,
          "internalType": "address",
          "name": "user",
          "type": "address"
        },
        {
          "indexed": false,
          "internalType": "uint256",
          "name": "amount",
          "type": "uint256"
        }
      ],
      "name": "PayoutClaimed",
      "type": "event"
    },
    {
      "anonymous": false,
      "inputs": [
        {
          "indexed": true,
          "internalType": "address",
          "name": "referrer",
          "type": "address"
        },
        {
          "indexed": false,
          "internalType": "uint256",
          "name": "amount",
          "type": "uint256"
        }
      ],
      "name": "ReferrerFeesWithdrawn",
      "type": "event"
    },
    {
      "anonymous": false,
      "inputs": [
        {
          "indexed": true,
          "internalType": "string",
          "name": "marketId",
          "type": "string"
        },
        {
          "indexed": true,
          "internalType": "address",
          "name": "proposer",
          "type": "address"
        },
        {
          "indexed": false,
          "internalType": "uint256",
          "name": "reward",
          "type": "uint256"
        }
      ],
      "name": "ReporterRewardClaimed",
      "type": "event"
    },
    {
      "anonymous": false,
      "inputs": [
        {
          "indexed": true,
          "internalType": "bytes32",
          "name": "role",
          "type": "bytes32"
        },
        {
          "indexed": true,
          "internalType": "bytes32",
          "name": "previousAdminRole",
          "type": "bytes32"
        },
        {
          "indexed": true,
          "internalType": "bytes32",
          "name": "newAdminRole",
          "type": "bytes32"
        }
      ],
      "name": "RoleAdminChanged",
      "type": "event"
    },
    {
      "anonymous": false,
      "inputs": [
        {
          "indexed": true,
          "internalType": "bytes32",
          "name": "role",
          "type": "bytes32"
        },
        {
          "indexed": true,
          "internalType": "address",
          "name": "account",
          "type": "address"
        },
        {
          "indexed": true,
          "internalType": "address",
          "name": "sender",
          "type": "address"
        }
      ],
      "name": "RoleGranted",
      "type": "event"
    },
    {
      "anonymous": false,
      "inputs": [
        {
          "indexed": true,
          "internalType": "bytes32",
          "name": "role",
          "type": "bytes32"
        },
        {
          "indexed": true,
          "internalType": "address",
          "name": "account",
          "type": "address"
        },
        {
          "indexed": true,
          "internalType": "address",
          "name": "sender",
          "type": "address"
        }
      ],
      "name": "RoleRevoked",
      "type": "event"
    },
    {
      "anonymous": false,
      "inputs": [
        {
          "indexed": true,
          "internalType": "string",
          "name": "marketId",
          "type": "string"
        },
        {
          "indexed": true,
          "internalType": "address",
          "name": "creator",
          "type": "address"
        },
        {
          "indexed": true,
          "internalType": "address",
          "name": "treasury",
          "type": "address"
        },
        {
          "indexed": false,
          "internalType": "uint256",
          "name": "amount",
          "type": "uint256"
        }
      ],
      "name": "SeedConfiscated",
      "type": "event"
    },
    {
      "anonymous": false,
      "inputs": [
        {
          "indexed": true,
          "internalType": "string",
          "name": "id",
          "type": "string"
        },
        {
          "indexed": true,
          "internalType": "address",
          "name": "creator",
          "type": "address"
        },
        {
          "indexed": false,
          "internalType": "uint256",
          "name": "amount",
          "type": "uint256"
        }
      ],
      "name": "SeedWithdrawn",
      "type": "event"
    },
    {
      "anonymous": false,
      "inputs": [
        {
          "indexed": true,
          "internalType": "address",
          "name": "newTreasury",
          "type": "address"
        },
        {
          "indexed": false,
          "internalType": "uint256",
          "name": "executeTime",
          "type": "uint256"
        }
      ],
      "name": "TreasuryChangeProposed",
      "type": "event"
    },
    {
      "anonymous": false,
      "inputs": [
        {
          "indexed": true,
          "internalType": "address",
          "name": "oldTreasury",
          "type": "address"
        },
        {
          "indexed": true,
          "internalType": "address",
          "name": "newTreasury",
          "type": "address"
        }
      ],
      "name": "TreasuryUpdated",
      "type": "event"
    },
    {
      "anonymous": false,
      "inputs": [
        {
          "indexed": false,
          "internalType": "address",
          "name": "account",
          "type": "address"
        }
      ],
      "name": "Unpaused",
      "type": "event"
    },
    {
      "inputs": [],
      "name": "DEFAULT_ADMIN_ROLE",
      "outputs": [
        {
          "internalType": "bytes32",
          "name": "",
          "type": "bytes32"
        }
      ],
      "stateMutability": "view",
      "type": "function"
    },
    {
      "inputs": [],
      "name": "DISPUTE_WINDOW",
      "outputs": [
        {
          "internalType": "uint256",
          "name": "",
          "type": "uint256"
        }
      ],
      "stateMutability": "view",
      "type": "function"
    },
    {
      "inputs": [],
      "name": "EMERGENCY_TIMEOUT",
      "outputs": [
        {
          "internalType": "uint256",
          "name": "",
          "type": "uint256"
        }
      ],
      "stateMutability": "view",
      "type": "function"
    },
    {
      "inputs": [],
      "name": "FEE_DENOMINATOR",
      "outputs": [
        {
          "internalType": "uint256",
          "name": "",
          "type": "uint256"
        }
      ],
      "stateMutability": "view",
      "type": "function"
    },
    {
      "inputs": [],
      "name": "MAX_WEIGHT",
      "outputs": [
        {
          "internalType": "uint256",
          "name": "",
          "type": "uint256"
        }
      ],
      "stateMutability": "view",
      "type": "function"
    },
    {
      "inputs": [],
      "name": "MIN_BET_AMOUNT",
      "outputs": [
        {
          "internalType": "uint256",
          "name": "",
          "type": "uint256"
        }
      ],
      "stateMutability": "view",
      "type": "function"
    },
    {
      "inputs": [],
      "name": "MIN_BOND",
      "outputs": [
        {
          "internalType": "uint256",
          "name": "",
          "type": "uint256"
        }
      ],
      "stateMutability": "view",
      "type": "function"
    },
    {
      "inputs": [],
      "name": "MIN_MARKET_INTERVAL",
      "outputs": [
        {
          "internalType": "uint256",
          "name": "",
          "type": "uint256"
        }
      ],
      "stateMutability": "view",
      "type": "function"
    },
    {
      "inputs": [],
      "name": "MIN_WEIGHT",
      "outputs": [
        {
          "internalType": "uint256",
          "name": "",
          "type": "uint256"
        }
      ],
      "stateMutability": "view",
      "type": "function"
    },
    {
      "inputs": [],
      "name": "OPERATOR_ROLE",
      "outputs": [
        {
          "internalType": "bytes32",
          "name": "",
          "type": "bytes32"
        }
      ],
      "stateMutability": "view",
      "type": "function"
    },
    {
      "inputs": [],
      "name": "REPORTER_REWARD_BPS",
      "outputs": [
        {
          "internalType": "uint256",
          "name": "",
          "type": "uint256"
        }
      ],
      "stateMutability": "view",
      "type": "function"
    },
    {
      "inputs": [],
      "name": "SHARE_PRECISION",
      "outputs": [
        {
          "internalType": "uint256",
          "name": "",
          "type": "uint256"
        }
      ],
      "stateMutability": "view",
      "type": "function"
    },
    {
      "inputs": [],
      "name": "TREASURY_TIMELOCK",
      "outputs": [
        {
          "internalType": "uint256",
          "name": "",
          "type": "uint256"
        }
      ],
      "stateMutability": "view",
      "type": "function"
    },
    {
      "inputs": [
        {
          "internalType": "string",
          "name": "_marketId",
          "type": "string"
        },
        {
          "internalType": "enum PredictionBattleV10.MarketOutcome",
          "name": "_outcome",
          "type": "uint8"
        },
        {
          "internalType": "bool",
          "name": "_slashCreator",
          "type": "bool"
        }
      ],
      "name": "adminResolve",
      "outputs": [],
      "stateMutability": "nonpayable",
      "type": "function"
    },
    {
      "inputs": [
        {
          "internalType": "string",
          "name": "_marketId",
          "type": "string"
        },
        {
          "internalType": "string",
          "name": "_evidenceUrl",
          "type": "string"
        },
        {
          "internalType": "uint256",
          "name": "_bondAmount",
          "type": "uint256"
        }
      ],
      "name": "challengeOutcome",
      "outputs": [],
      "stateMutability": "nonpayable",
      "type": "function"
    },
    {
      "inputs": [
        {
          "internalType": "string",
          "name": "_marketId",
          "type": "string"
        }
      ],
      "name": "claimFallback",
      "outputs": [],
      "stateMutability": "nonpayable",
      "type": "function"
    },
    {
      "inputs": [
        {
          "internalType": "string",
          "name": "_marketId",
          "type": "string"
        }
      ],
      "name": "claimWinnings",
      "outputs": [],
      "stateMutability": "nonpayable",
      "type": "function"
    },
    {
      "inputs": [
        {
          "internalType": "address",
          "name": "",
          "type": "address"
        }
      ],
      "name": "claimableBonds",
      "outputs": [
        {
          "internalType": "uint256",
          "name": "",
          "type": "uint256"
        }
      ],
      "stateMutability": "view",
      "type": "function"
    },
    {
      "inputs": [
        {
          "internalType": "string",
          "name": "_question",
          "type": "string"
        },
        {
          "internalType": "uint256",
          "name": "_usdcSeedAmount",
          "type": "uint256"
        },
        {
          "internalType": "uint256",
          "name": "_durationSeconds",
          "type": "uint256"
        },
        {
          "internalType": "uint256",
          "name": "_bonusDurationSeconds",
          "type": "uint256"
        }
      ],
      "name": "createMarket",
      "outputs": [
        {
          "internalType": "string",
          "name": "",
          "type": "string"
        }
      ],
      "stateMutability": "nonpayable",
      "type": "function"
    },
    {
      "inputs": [
        {
          "internalType": "address",
          "name": "",
          "type": "address"
        }
      ],
      "name": "creatorBalance",
      "outputs": [
        {
          "internalType": "uint256",
          "name": "",
          "type": "uint256"
        }
      ],
      "stateMutability": "view",
      "type": "function"
    },
    {
      "inputs": [],
      "name": "creatorFeeBps",
      "outputs": [
        {
          "internalType": "uint256",
          "name": "",
          "type": "uint256"
        }
      ],
      "stateMutability": "view",
      "type": "function"
    },
    {
      "inputs": [],
      "name": "currentOperator",
      "outputs": [
        {
          "internalType": "address",
          "name": "",
          "type": "address"
        }
      ],
      "stateMutability": "view",
      "type": "function"
    },
    {
      "inputs": [
        {
          "internalType": "string",
          "name": "_marketId",
          "type": "string"
        }
      ],
      "name": "emergencyResolve",
      "outputs": [],
      "stateMutability": "nonpayable",
      "type": "function"
    },
    {
      "inputs": [
        {
          "internalType": "address",
          "name": "_newTreasury",
          "type": "address"
        }
      ],
      "name": "executeTreasuryChange",
      "outputs": [],
      "stateMutability": "nonpayable",
      "type": "function"
    },
    {
      "inputs": [
        {
          "internalType": "string",
          "name": "_marketId",
          "type": "string"
        }
      ],
      "name": "finalizeOutcome",
      "outputs": [],
      "stateMutability": "nonpayable",
      "type": "function"
    },
    {
      "inputs": [
        {
          "internalType": "string",
          "name": "_marketId",
          "type": "string"
        }
      ],
      "name": "getMarketDetails",
      "outputs": [
        {
          "internalType": "enum PredictionBattleV10.MarketState",
          "name": "state",
          "type": "uint8"
        },
        {
          "internalType": "enum PredictionBattleV10.MarketOutcome",
          "name": "outcome",
          "type": "uint8"
        },
        {
          "internalType": "uint256",
          "name": "totalYes",
          "type": "uint256"
        },
        {
          "internalType": "uint256",
          "name": "totalNo",
          "type": "uint256"
        },
        {
          "internalType": "uint256",
          "name": "deadlineTime",
          "type": "uint256"
        },
        {
          "internalType": "address",
          "name": "creator",
          "type": "address"
        },
        {
          "internalType": "uint256",
          "name": "seedAmount",
          "type": "uint256"
        }
      ],
      "stateMutability": "view",
      "type": "function"
    },
    {
      "inputs": [
        {
          "internalType": "bytes32",
          "name": "role",
          "type": "bytes32"
        }
      ],
      "name": "getRoleAdmin",
      "outputs": [
        {
          "internalType": "bytes32",
          "name": "",
          "type": "bytes32"
        }
      ],
      "stateMutability": "view",
      "type": "function"
    },
    {
      "inputs": [
        {
          "internalType": "bytes32",
          "name": "role",
          "type": "bytes32"
        },
        {
          "internalType": "address",
          "name": "account",
          "type": "address"
        }
      ],
      "name": "grantRole",
      "outputs": [],
      "stateMutability": "nonpayable",
      "type": "function"
    },
    {
      "inputs": [
        {
          "internalType": "string",
          "name": "",
          "type": "string"
        },
        {
          "internalType": "uint256",
          "name": "",
          "type": "uint256"
        },
        {
          "internalType": "address",
          "name": "",
          "type": "address"
        }
      ],
      "name": "hasClaimed",
      "outputs": [
        {
          "internalType": "bool",
          "name": "",
          "type": "bool"
        }
      ],
      "stateMutability": "view",
      "type": "function"
    },
    {
      "inputs": [
        {
          "internalType": "bytes32",
          "name": "role",
          "type": "bytes32"
        },
        {
          "internalType": "address",
          "name": "account",
          "type": "address"
        }
      ],
      "name": "hasRole",
      "outputs": [
        {
          "internalType": "bool",
          "name": "",
          "type": "bool"
        }
      ],
      "stateMutability": "view",
      "type": "function"
    },
    {
      "inputs": [],
      "name": "houseBalance",
      "outputs": [
        {
          "internalType": "uint256",
          "name": "",
          "type": "uint256"
        }
      ],
      "stateMutability": "view",
      "type": "function"
    },
    {
      "inputs": [],
      "name": "houseFeeBps",
      "outputs": [
        {
          "internalType": "uint256",
          "name": "",
          "type": "uint256"
        }
      ],
      "stateMutability": "view",
      "type": "function"
    },
    {
      "inputs": [
        {
          "internalType": "string",
          "name": "",
          "type": "string"
        }
      ],
      "name": "lastBetTime",
      "outputs": [
        {
          "internalType": "uint256",
          "name": "",
          "type": "uint256"
        }
      ],
      "stateMutability": "view",
      "type": "function"
    },
    {
      "inputs": [
        {
          "internalType": "address",
          "name": "",
          "type": "address"
        }
      ],
      "name": "lastMarketCreation",
      "outputs": [
        {
          "internalType": "uint256",
          "name": "",
          "type": "uint256"
        }
      ],
      "stateMutability": "view",
      "type": "function"
    },
    {
      "inputs": [
        {
          "internalType": "string",
          "name": "",
          "type": "string"
        },
        {
          "internalType": "address",
          "name": "",
          "type": "address"
        }
      ],
      "name": "lastUserBetTime",
      "outputs": [
        {
          "internalType": "uint256",
          "name": "",
          "type": "uint256"
        }
      ],
      "stateMutability": "view",
      "type": "function"
    },
    {
      "inputs": [],
      "name": "marketCount",
      "outputs": [
        {
          "internalType": "uint256",
          "name": "",
          "type": "uint256"
        }
      ],
      "stateMutability": "view",
      "type": "function"
    },
    {
      "inputs": [
        {
          "internalType": "string",
          "name": "",
          "type": "string"
        }
      ],
      "name": "marketExists",
      "outputs": [
        {
          "internalType": "bool",
          "name": "",
          "type": "bool"
        }
      ],
      "stateMutability": "view",
      "type": "function"
    },
    {
      "inputs": [
        {
          "internalType": "string",
          "name": "",
          "type": "string"
        }
      ],
      "name": "markets",
      "outputs": [
        {
          "internalType": "string",
          "name": "id",
          "type": "string"
        },
        {
          "internalType": "address",
          "name": "creator",
          "type": "address"
        },
        {
          "internalType": "string",
          "name": "question",
          "type": "string"
        },
        {
          "internalType": "uint256",
          "name": "creationTime",
          "type": "uint256"
        },
        {
          "internalType": "uint256",
          "name": "bonusDuration",
          "type": "uint256"
        },
        {
          "internalType": "uint256",
          "name": "deadlineTime",
          "type": "uint256"
        },
        {
          "internalType": "enum PredictionBattleV10.MarketState",
          "name": "state",
          "type": "uint8"
        },
        {
          "internalType": "enum PredictionBattleV10.MarketOutcome",
          "name": "outcome",
          "type": "uint8"
        },
        {
          "internalType": "uint256",
          "name": "seedAmount",
          "type": "uint256"
        },
        {
          "internalType": "bool",
          "name": "seedWithdrawn",
          "type": "bool"
        },
        {
          "internalType": "address",
          "name": "proposer",
          "type": "address"
        },
        {
          "internalType": "bool",
          "name": "proposedResult",
          "type": "bool"
        },
        {
          "internalType": "uint256",
          "name": "proposalTime",
          "type": "uint256"
        },
        {
          "internalType": "uint256",
          "name": "bondAmount",
          "type": "uint256"
        },
        {
          "internalType": "string",
          "name": "evidenceUrl",
          "type": "string"
        },
        {
          "internalType": "address",
          "name": "challenger",
          "type": "address"
        },
        {
          "internalType": "uint256",
          "name": "challengeBondAmount",
          "type": "uint256"
        },
        {
          "internalType": "string",
          "name": "challengeEvidenceUrl",
          "type": "string"
        },
        {
          "internalType": "uint256",
          "name": "challengeTime",
          "type": "uint256"
        },
        {
          "internalType": "uint256",
          "name": "totalYes",
          "type": "uint256"
        },
        {
          "internalType": "uint256",
          "name": "totalNo",
          "type": "uint256"
        },
        {
          "internalType": "uint256",
          "name": "totalSharesYes",
          "type": "uint256"
        },
        {
          "internalType": "uint256",
          "name": "totalSharesNo",
          "type": "uint256"
        },
        {
          "internalType": "uint256",
          "name": "netDistributable",
          "type": "uint256"
        },
        {
          "internalType": "uint256",
          "name": "referrerPool",
          "type": "uint256"
        },
        {
          "internalType": "uint256",
          "name": "roundId",
          "type": "uint256"
        }
      ],
      "stateMutability": "view",
      "type": "function"
    },
    {
      "inputs": [],
      "name": "maxBetAmount",
      "outputs": [
        {
          "internalType": "uint256",
          "name": "",
          "type": "uint256"
        }
      ],
      "stateMutability": "view",
      "type": "function"
    },
    {
      "inputs": [],
      "name": "maxMarketPool",
      "outputs": [
        {
          "internalType": "uint256",
          "name": "",
          "type": "uint256"
        }
      ],
      "stateMutability": "view",
      "type": "function"
    },
    {
      "inputs": [
        {
          "internalType": "string",
          "name": "",
          "type": "string"
        },
        {
          "internalType": "address",
          "name": "",
          "type": "address"
        }
      ],
      "name": "noBets",
      "outputs": [
        {
          "internalType": "uint256",
          "name": "amount",
          "type": "uint256"
        },
        {
          "internalType": "uint256",
          "name": "shares",
          "type": "uint256"
        },
        {
          "internalType": "address",
          "name": "referrer",
          "type": "address"
        }
      ],
      "stateMutability": "view",
      "type": "function"
    },
    {
      "inputs": [],
      "name": "pause",
      "outputs": [],
      "stateMutability": "nonpayable",
      "type": "function"
    },
    {
      "inputs": [],
      "name": "paused",
      "outputs": [
        {
          "internalType": "bool",
          "name": "",
          "type": "bool"
        }
      ],
      "stateMutability": "view",
      "type": "function"
    },
    {
      "inputs": [
        {
          "internalType": "bytes32",
          "name": "",
          "type": "bytes32"
        }
      ],
      "name": "pendingTreasuryChange",
      "outputs": [
        {
          "internalType": "uint256",
          "name": "",
          "type": "uint256"
        }
      ],
      "stateMutability": "view",
      "type": "function"
    },
    {
      "inputs": [
        {
          "internalType": "string",
          "name": "_marketId",
          "type": "string"
        },
        {
          "internalType": "bool",
          "name": "_side",
          "type": "bool"
        },
        {
          "internalType": "uint256",
          "name": "_usdcAmount",
          "type": "uint256"
        },
        {
          "internalType": "uint256",
          "name": "_minSharesOut",
          "type": "uint256"
        },
        {
          "internalType": "address",
          "name": "_referrer",
          "type": "address"
        }
      ],
      "name": "placeBet",
      "outputs": [],
      "stateMutability": "nonpayable",
      "type": "function"
    },
    {
      "inputs": [
        {
          "internalType": "string",
          "name": "_marketId",
          "type": "string"
        },
        {
          "internalType": "bool",
          "name": "_result",
          "type": "bool"
        },
        {
          "internalType": "string",
          "name": "_evidenceUrl",
          "type": "string"
        },
        {
          "internalType": "uint256",
          "name": "_bondAmount",
          "type": "uint256"
        }
      ],
      "name": "proposeOutcome",
      "outputs": [],
      "stateMutability": "nonpayable",
      "type": "function"
    },
    {
      "inputs": [
        {
          "internalType": "address",
          "name": "_newTreasury",
          "type": "address"
        }
      ],
      "name": "proposeTreasuryChange",
      "outputs": [],
      "stateMutability": "nonpayable",
      "type": "function"
    },
    {
      "inputs": [],
      "name": "referrerFeeBps",
      "outputs": [
        {
          "internalType": "uint256",
          "name": "",
          "type": "uint256"
        }
      ],
      "stateMutability": "view",
      "type": "function"
    },
    {
      "inputs": [
        {
          "internalType": "bytes32",
          "name": "role",
          "type": "bytes32"
        },
        {
          "internalType": "address",
          "name": "callerConfirmation",
          "type": "address"
        }
      ],
      "name": "renounceRole",
      "outputs": [],
      "stateMutability": "nonpayable",
      "type": "function"
    },
    {
      "inputs": [
        {
          "internalType": "string",
          "name": "_marketId",
          "type": "string"
        },
        {
          "internalType": "uint256",
          "name": "_extensionSeconds",
          "type": "uint256"
        },
        {
          "internalType": "bool",
          "name": "_slashProposer",
          "type": "bool"
        }
      ],
      "name": "reopenMarket",
      "outputs": [],
      "stateMutability": "nonpayable",
      "type": "function"
    },
    {
      "inputs": [
        {
          "internalType": "string",
          "name": "_marketId",
          "type": "string"
        },
        {
          "internalType": "address",
          "name": "_winnerAddress",
          "type": "address"
        }
      ],
      "name": "resolveDispute",
      "outputs": [],
      "stateMutability": "nonpayable",
      "type": "function"
    },
    {
      "inputs": [
        {
          "internalType": "bytes32",
          "name": "role",
          "type": "bytes32"
        },
        {
          "internalType": "address",
          "name": "account",
          "type": "address"
        }
      ],
      "name": "revokeRole",
      "outputs": [],
      "stateMutability": "nonpayable",
      "type": "function"
    },
    {
      "inputs": [
        {
          "internalType": "address",
          "name": "",
          "type": "address"
        }
      ],
      "name": "rewardsBalance",
      "outputs": [
        {
          "internalType": "uint256",
          "name": "",
          "type": "uint256"
        }
      ],
      "stateMutability": "view",
      "type": "function"
    },
    {
      "inputs": [
        {
          "internalType": "address",
          "name": "_newOperator",
          "type": "address"
        }
      ],
      "name": "setOperator",
      "outputs": [],
      "stateMutability": "nonpayable",
      "type": "function"
    },
    {
      "inputs": [
        {
          "internalType": "bytes4",
          "name": "interfaceId",
          "type": "bytes4"
        }
      ],
      "name": "supportsInterface",
      "outputs": [
        {
          "internalType": "bool",
          "name": "",
          "type": "bool"
        }
      ],
      "stateMutability": "view",
      "type": "function"
    },
    {
      "inputs": [],
      "name": "sweepDust",
      "outputs": [],
      "stateMutability": "nonpayable",
      "type": "function"
    },
    {
      "inputs": [],
      "name": "totalLockedAmount",
      "outputs": [
        {
          "internalType": "uint256",
          "name": "",
          "type": "uint256"
        }
      ],
      "stateMutability": "view",
      "type": "function"
    },
    {
      "inputs": [],
      "name": "treasury",
      "outputs": [
        {
          "internalType": "address",
          "name": "",
          "type": "address"
        }
      ],
      "stateMutability": "view",
      "type": "function"
    },
    {
      "inputs": [],
      "name": "unpause",
      "outputs": [],
      "stateMutability": "nonpayable",
      "type": "function"
    },
    {
      "inputs": [],
      "name": "usdcToken",
      "outputs": [
        {
          "internalType": "contract IERC20",
          "name": "",
          "type": "address"
        }
      ],
      "stateMutability": "view",
      "type": "function"
    },
    {
      "inputs": [
        {
          "internalType": "string",
          "name": "_marketId",
          "type": "string"
        }
      ],
      "name": "voidAbandonedMarket",
      "outputs": [],
      "stateMutability": "nonpayable",
      "type": "function"
    },
    {
      "inputs": [
        {
          "internalType": "string",
          "name": "_marketId",
          "type": "string"
        }
      ],
      "name": "voidMarket",
      "outputs": [],
      "stateMutability": "nonpayable",
      "type": "function"
    },
    {
      "inputs": [],
      "name": "withdrawBond",
      "outputs": [],
      "stateMutability": "nonpayable",
      "type": "function"
    },
    {
      "inputs": [],
      "name": "withdrawCreatorFees",
      "outputs": [],
      "stateMutability": "nonpayable",
      "type": "function"
    },
    {
      "inputs": [],
      "name": "withdrawHouseFees",
      "outputs": [],
      "stateMutability": "nonpayable",
      "type": "function"
    },
    {
      "inputs": [],
      "name": "withdrawReferrerFees",
      "outputs": [],
      "stateMutability": "nonpayable",
      "type": "function"
    },
    {
      "inputs": [
        {
          "internalType": "string",
          "name": "_marketId",
          "type": "string"
        }
      ],
      "name": "withdrawSeed",
      "outputs": [],
      "stateMutability": "nonpayable",
      "type": "function"
    },
    {
      "inputs": [
        {
          "internalType": "string",
          "name": "",
          "type": "string"
        },
        {
          "internalType": "address",
          "name": "",
          "type": "address"
        }
      ],
      "name": "yesBets",
      "outputs": [
        {
          "internalType": "uint256",
          "name": "amount",
          "type": "uint256"
        },
        {
          "internalType": "uint256",
          "name": "shares",
          "type": "uint256"
        },
        {
          "internalType": "address",
          "name": "referrer",
          "type": "address"
        }
      ],
      "stateMutability": "view",
      "type": "function"
    }
  ],
  "bytecode": "0x60a0346200025f57601f620059fa38819003918201601f191683019291906001600160401b03841183851017620002645781608092849260409687528339810103126200025f5762000051816200027a565b6200005f602083016200027a565b6200007a6060620000728686016200027a565b94016200027a565b60016000556103e86004556101f4600581905560065564174876e80060075564e8d4a51000600855916001600160a01b03808216156200022b57808316948515620001f4578116938415620001bd571680156200018a57600380546001600160a01b03199081169095179055608052620001019190620000fa906200028f565b5062000310565b506018541617601855516156269081620003b4823960805181818161054a01528181610bc001528181610f190152818161143501528181611571015281816116c401528181611a7f01528181611f610152818161256d01528181612b1a01528181612efb0152818161343c01528181613d0901528181613fc50152818161440501526147a70152f35b855162461bcd60e51b815260206004820152600c60248201526b496e76616c6964205553444360a01b6044820152606490fd5b865162461bcd60e51b815260206004820152601060248201526f496e76616c696420547265617375727960801b6044820152606490fd5b865162461bcd60e51b815260206004820152601060248201526f24b73b30b634b21027b832b930ba37b960811b6044820152606490fd5b855162461bcd60e51b815260206004820152600d60248201526c24b73b30b634b21020b236b4b760991b6044820152606490fd5b600080fd5b634e487b7160e01b600052604160045260246000fd5b51906001600160a01b03821682036200025f57565b6001600160a01b031660008181527fac33ff75c19e70fe83507db0d683fd3465c996598dc972688b7ace676c89077b602052604081205490919060ff166200030c5781805260026020526040822081835260205260408220600160ff198254161790553391600080516020620059da8339815191528180a4600190565b5090565b6001600160a01b031660008181527f6bc781d8c7f9885ebbb3cefbc18932c491038e2ae5c5b56447891e0bd98ea16360205260408120549091907f97667070c54ef182b0f5858b034beac1b6f3089aa2d3188bb1e8929f4fa9b9299060ff16620003ae5780835260026020526040832082845260205260408320600160ff19825416179055600080516020620059da833981519152339380a4600190565b50509056fe61022080604052600436101561001457600080fd5b60003560e01c9081626fb9ff1461484a5750806301ffc9a7146147f457806305a9f274146147d657806311eac8551461479157806317773ebb146147735780631caed77c146147395780632023115d1461452a578063214529ad1461450c578063218b5382146140ac578063248a9ca3146144dd57806329a3a0d6146141245780632f2ff15d146140b1578063327abb48146140ac57806332ed025614613bbf57806336568abe14613b7857806337b150da14613b5b5780633aae0474146139af5780633bc6f606146138b85780633f4ba83a1461384e5780633fed6ced146138005780634a5bfc5b146136b557806359f5a41f146136975780635c975abb146136745780635e578a56146135bf5780635fc5e0201461359c5780635fdbd6b71461350957806361d027b3146134e05780636475e3d3146134c357806366eb9cec146133e857806367084eb3146133ca5780637988a63014612d815780637f26407614612d635780638456cb5914612d0a578063896bdac814612cd057806391d1485414612c835780639a826eb714612c20578063a07c163314612c02578063a217fddf14612be6578063a53df2e214612ae4578063b3ab15fb14612a3c578063bb353221146122a9578063c227955a14611e18578063c5479faf14611968578063c8eaef191461185e578063cab11d5d14611840578063d031639b14611814578063d547741f1461179f578063d73792a914611782578063dbeae54c1461171b578063dfdc5f771461166b578063e0de0fee1461164d578063e0ffbac514611624578063e129d041146115c8578063e1cd04b414611518578063e1e90ab31461133c578063e4a28a5214611320578063e6cd7ab6146112e6578063ec979082146112c8578063ee4cc1e014611277578063ee59d24014611259578063efbda66114610f96578063f585dc5714610f79578063f5b541a614610f50578063f677b4d414610ea1578063f69be50214610ab5578063fc9cd8d0146108fb578063fdbcf125146103c05763fe1140a31461030b57600080fd5b346103bb5760203660031901126103bb57610324614880565b61032c614c8f565b6001600160a01b0316610340811515614c44565b60405160208101908282526020815261035881614913565b5190206202a3004201908142116103a5577f2fdb8aa18e3708b0dfed4acb0de7452e85e7f833b1b055880cef38e8bee690b5916020916000526010825280604060002055604051908152a2005b634e487b7160e01b600052601160045260246000fd5b600080fd5b346103bb5760203660031901126103bb576004356001600160401b0381116103bb576103f09036906004016148ac565b6103f8614fee565b61041960ff6040518385823760208185810160148152030190205416615011565b60405181838237602081838101601381520301902091600683015461044c600460ff8316610446816149c8565b14615305565b604051838382376020818581016017815203019020601685015460005260205260406000203360005260205260ff604060002054166108c4576000604051848482376020818681016015815203019020336000526020526040600020906040518585823760208187810160168152030190203360005260205260ff60406000209360081c166104da816149c8565b600481036105eb5750505490546104f091614c82565b925b83156105b35760166040518484823760208186810160178152030190209101546000526020526040600020336000526020526040600020600160ff19825416179055610540836011546151a2565b60115561056e83337f0000000000000000000000000000000000000000000000000000000000000000615201565b8160405192839283378101600081520390206040519182527f2f0b27a029bcea8b4cd6e1f002ba498bd37b903b56578a04f1576cd25c09de5360203393a36001600055005b60405162461bcd60e51b815260206004820152601060248201526f4e6f7468696e6720746f20636c61696d60801b6044820152606490fd5b6105f881979492976149c8565b60038103610741575061060e8254825490614c82565b6106216010850154601186015490614c82565b81151580610738575b610638575b505050506104f2565b92965090918181036106ff5750506106cf906106bf60148401549660158501545b60028201546001600160a01b0390811680156106f2575b1680156106dd57600052600e602052604060002061068f828254614c82565b90555b601486016106a18a82546151a2565b90556106b2601587019182546151a2565b90555460108501546151a2565b60108401555460118301546151a2565b60118201558480808061062f565b506106ea81600c54614c82565b600c55610692565b5080600286015416610670565b8196610733826107226107276106bf956107226106cf999860148c0154906151af565b6151c2565b9a6015890154906151af565b610659565b5080151561062a565b919061074c836149c8565b600183036108bd57505b80541515806108b0575b61076c575b50506104f2565b909450600185036108a65760128201545b801561086d576001820154908082036108475750506001908160148401549660158501545b60028401838060a01b0390818154161515600014610831575416600052600e60205260406000206107d4828254614c82565b90555b601486016107e68a82546151a2565b90556107f7601587019182546151a2565b90550361081957015461080f601283019182546151a2565b90555b8480610765565b015461082a601383019182546151a2565b9055610812565b505061083f81600c54614c82565b600c556107d7565b8196610868826107226107276001979695610722899760148c0154906151af565b6107a2565b60405162461bcd60e51b81526020600482015260116024820152704e6f2077696e6e696e672073686172657360781b6044820152606490fd5b601382015461077d565b5060018101541515610760565b9050610756565b60405162461bcd60e51b815260206004820152600f60248201526e105b1c9958591e4818db185a5b5959608a1b6044820152606490fd5b346103bb576020806003193601126103bb576004356001600160401b0381116103bb5761092c9036906004016148ac565b91610935614fee565b61095560ff60405185858237838187810160148152030190205416615011565b60405183838237818185810160138152030190206006810191610987600360ff855416610981816149c8565b14615167565b600f82015462278d0081018091116103a557421115610a7e57906109c891600a820180549081610a4c575b5050600d8201805480610a1d575b5050506154a5565b805461ff0019166104001790556109df8282615340565b8160405192839283378101600081520390207f1e9a51575531367c4323c60efe8c5b980af66cd0509c86d8f4e1a3d9c9001700600080a26001600055005b600f60009360018060a01b03600c87015416855252610a4160408420918254614c82565b9055558580806109c0565b60009160018060a01b03600886015460081c168352600f8452610a7460408420918254614c82565b90555586806109b2565b6064906040519062461bcd60e51b82526004820152601060248201526f54696d65206c6f636b2061637469766560801b6044820152fd5b346103bb5760603660031901126103bb576004356001600160401b0381116103bb57610ae59036906004016148ac565b6024356001600160401b0381116103bb57610b049036906004016148ac565b91610b0d614d36565b610b15614fee565b610b3660ff6040518387823760208185810160148152030190205416615011565b610b44610200841115615049565b60405181858237602081838101601381520301902093610b76600260ff600688015416610b70816149c8565b14614cfb565b600985015461a8c081018091116103a5574211610e6c57610b9f600a86015460443510156150c9565b60088581015433911c6001600160a01b031614610e2f57610be460443530337f0000000000000000000000000000000000000000000000000000000000000000614f3e565b610bf2604435601154614c82565b601155600685015460405160008754610c0a81614a4e565b9060018116908115610e1a5750600114610de6575b509080600393920390206000805160206155718339815191526040805160ff8516610c49816149c8565b8152856020820152a260ff1916176006860155600c850180546001600160a01b03191633179055604435600d860155600e8501946001600160401b038511610dd057610c9f85610c998854614a4e565b88614ef9565b600095601f8611600114610d415790610d2c939291867f4bd7c92eba598ee7ab038ac4a59ab8feb6d65703229128829d6cdd17959b121f969798600091610d36575b508860011b906000198a60031b1c19161790555b600f429101558160405192839283378101600081520390209260405191829160443583526040602084015233966040840191615109565b0390a36001600055005b905087013589610ce1565b601f1986168160005260206000209060005b818110610db857509087987f4bd7c92eba598ee7ab038ac4a59ab8feb6d65703229128829d6cdd17959b121f9798610d2c979695949310610d9e575b5050600188811b019055610cf5565b88013560001960038b901b60f8161c191690558880610d8f565b878a013583556020998a019960019093019201610d53565b634e487b7160e01b600052604160045260246000fd5b90508760005260206000206000905b828210610e06575050810181610c1f565b600181602092548487015201910190610df5565b60ff1916845250801515028201905081610c1f565b60405162461bcd60e51b815260206004820152601560248201527443616e6e6f742073656c662d6368616c6c656e676560581b6044820152606490fd5b60405162461bcd60e51b815260206004820152600d60248201526c15da5b991bddc818db1bdcd959609a1b6044820152606490fd5b346103bb5760003660031901126103bb57610eba614c8f565b610ec2614fee565b600c54610ed081151561546f565b6000600c55610ee1816011546151a2565b6011557f19f7a31ae4185f3274e252a5a78ec36ba85c01300bc8a800d41d79be74662a8e602060018060a01b03610f3d8482600354167f0000000000000000000000000000000000000000000000000000000000000000615201565b6003541692604051908152a26001600055005b346103bb5760003660031901126103bb5760206040516000805160206155b18339815191528152f35b346103bb5760003660031901126103bb57602060405161a8c08152f35b346103bb5760203660031901126103bb576004356001600160401b0381116103bb57610fc690369060040161494f565b6040518181809351602081930191610fdd926149a5565b8101601381520360200190208060c052610ff690614a88565b60c05160018101546001600160a01b03166101005261101790600201614a88565b6101805260c051600381015490600481015460e052600581015460a052600681015491600782015491600881015491600982015491600a81015490600b0161105e90614a88565b9260c05194600160a01b60019003600c8701541696600d87015496600e0161108590614a88565b9860c0519a600f8c015460805260108c01549b60118101546101e05260128101546101605260138101546101405260148101546101c05260158101546101a0526016015461012052604051806102005261034080915261020051016110e9916149e8565b610100516102005160200152610200518082039060400152610180519061110f916149e8565b95610200516060015260e051610200516080015260a0516102005160a0015260ff811661113b816149c8565b6102005160c0015260081c60ff16611152816149c8565b6102005160e0015261020051610100015260ff81161515610200516101200152600160a01b600190038160081c1661020051610140015260a81c60ff161515610200516101600152610200516101800152610200516101a0015261020051808203906101c001526111c2916149e8565b91610200516101e00152610200516102000152610200518082039061022001526111eb916149e8565b906080516102005161024001526102005161026001526101e05161020051610280015261016051610200516102a0015261014051610200516102c001526101c051610200516102e001526101a051610200516103000152610120516102005161032001526102005180910390f35b346103bb5760003660031901126103bb576020600454604051908152f35b346103bb57602061129f61128a36614a0d565b929081604051938285809451938492016149a5565b8101600b8152030190209060018060a01b03166000526020526020604060002054604051908152f35b346103bb5760003660031901126103bb576020601254604051908152f35b346103bb5760203660031901126103bb576001600160a01b03611307614880565b16600052600d6020526020604060002054604051908152f35b346103bb5760003660031901126103bb57602060405160788152f35b346103bb576020806003193601126103bb576004356001600160401b0381116103bb5761136d9036906004016148ac565b611378929192614fee565b61139860ff60405183868237848185810160148152030190205416615011565b6040518184823782818381016013815203019020926113c3600460ff600687015416610446816149c8565b60018401546001600160a01b031633036114e4576008840180549460ff86166114ab576007015494851561147c579060017f3ff50bb01a71ba44b43b95e691fe785159d1c403efd991b82f3b5f62a2d8148a94939260ff191617905561142b856011546151a2565b60115561145985337f0000000000000000000000000000000000000000000000000000000000000000615201565b816040519283928337810160008152039020916040519384523393a36001600055005b60405162461bcd60e51b8152600481018690526007602482015266139bc81cd9595960ca1b6044820152606490fd5b60405162461bcd60e51b815260048101869052601160248201527020b63932b0b23c903bb4ba34323930bbb760791b6044820152606490fd5b60405162461bcd60e51b815260048101849052600c60248201526b27b7363c9031b932b0ba37b960a11b6044820152606490fd5b346103bb5760003660031901126103bb57611531614fee565b33600052600d60205260406000205461154b81151561546f565b33600052600d60205260006040812055611567816011546151a2565b60115561159581337f0000000000000000000000000000000000000000000000000000000000000000615201565b6040519081527f7f0b212761a7abe7ec4d2adea5a7fa1fea58234aabf0c01c0e63403fe62013ff60203392a26001600055005b346103bb5760203660031901126103bb576004356001600160401b0381116103bb5761161160206115fe8193369060040161494f565b81604051938285809451938492016149a5565b8101600a81520301902054604051908152f35b346103bb5760003660031901126103bb576018546040516001600160a01b039091168152602090f35b346103bb5760003660031901126103bb576020604051624c4b408152f35b346103bb5760003660031901126103bb57611684614fee565b33600052600e60205260406000205461169e81151561546f565b33600052600e602052600060408120556116ba816011546151a2565b6011556116e881337f0000000000000000000000000000000000000000000000000000000000000000615201565b6040519081527f3c4f6499c168416bb9b014d9d1e1d8132e5aaafd7bbcfc48d49ee1d5a2d90f5260203392a26001600055005b346103bb57602061172e61128a36614a0d565b6015908201908152030190206001600160a01b0391821660009081526020918252604090819020805460018201546002909201548351918252938101919091529190921691810191909152606090f35b0390f35b346103bb5760003660031901126103bb5760206040516127108152f35b346103bb5760403660031901126103bb576118126004356117be614896565b908060005260026020526117d9600160406000200154614cd5565b6117f36000805160206155b1833981519152821415614e6b565b80600052600260205261180d600160406000200154614cd5565b614bcd565b005b346103bb5760203660031901126103bb5760043560005260106020526020604060002054604051908152f35b346103bb5760003660031901126103bb576020600754604051908152f35b346103bb576020806003193601126103bb576004356001600160401b0381116103bb5761188f9036906004016148ac565b91611898614fee565b6000805160206155b183398151915260005260028152604060002033600052815260ff604060002054168015611949575b6118d29061512a565b6118f260ff60405185858237838187810160148152030190205416615011565b6109c860405184848237828186810160138152030190206006810192611928600460ff865416611921816149c8565b1415615288565b600a820180549081610a4c575050600d8201805480610a1d575050506154a5565b506000808052600282526040808220338352835290205460ff166118c9565b346103bb5760803660031901126103bb576004356001600160401b0381116103bb576119989036906004016148ac565b6119a0614904565b906044356001600160401b0381116103bb576119c09036906004016148ac565b9390926119cb614d36565b6119d3614fee565b6119f460ff6040518585823760208187810160148152030190205416615011565b611a02610200861115615049565b604051838382376020818581016013815203019020611a3160ff600683015416611a2b816149c8565b1561508d565b60058101548015611d22574210611ce6575b6064611a586010830154601184015490614c82565b04624c4b409081018091116103a557611a759060643510156150c9565b611aa360643530337f0000000000000000000000000000000000000000000000000000000000000000614f3e565b611ab1606435601154614c82565b601155600681015460405160008354611ac981614a4e565b9060018116908115611cd15750600114611c9d575b509181600292600b95940390206000805160206155718339815191526040805160ff8516611b0b816149c8565b8152856020820152a260ff191617600682015560088082018054610100600160a81b0319163390921b610100600160a81b031691909117815592835460ff60a81b191690151560a881901b60ff60a81b1691909117909355426009820155606435600a820155016001600160401b038611610dd057611b9486611b8e8354614a4e565b83614ef9565b856000601f8211600114611c3757600091611c2c575b508660011b906000198860031b1c19161790555b61a8c04201918242116103a55783610d2c917f5247f2366f7e70fc0b5fc61f486408d977047c08d356ffb76c3d35832ceeaf26956040519283928337810160008152039020946040519384938452606435602085015260408401526080606084015233966080840191615109565b905085013587611baa565b60008381526020812092508890601f198216905b818110611c82575010611c68575b5050600186811b019055611bbe565b860135600019600389901b60f8161c191690558680611c59565b8984013585556001909401936020938401938b935001611c4b565b90508360005260206000206000905b828210611cbd575050810181611ade565b600181602092548487015201910190611cac565b60ff1916845250801515028201905081611ade565b60405162461bcd60e51b8152602060048201526014602482015273111958591b1a5b99481b9bdd081c995858da195960621b6044820152606490fd5b5060405184848237602081868101600b8152030190203360005260205260406000205461012c81018091116103a5574210611dbd5760018101546001600160a01b03163303611a435760038101546201518081018091116103a557421015611a435760405162461bcd60e51b8152602060048201526011602482015270086e4cac2e8dee47440eec2d2e8406468d607b1b6044820152606490fd5b60405162461bcd60e51b815260206004820152602d60248201527f4d45562070726f74656374696f6e3a207761697420356d696e2061667465722060448201526c1e5bdd5c881b185cdd0818995d609a1b6064820152608490fd5b346103bb5760a03660031901126103bb576004356001600160401b0381116103bb57611e489036906004016148ac565b611e50614904565b916084356001600160a01b038116906044908135908390036103bb57611e74614d36565b611e7c614fee565b6040519480858737611ea160ff87838101601481526020998a91030190205416615011565b604051818682378681838101601381520301902060ff600682015416611ec6816149c8565b61227a5760058101548015908115612270575b50156122425761c350831061220e5760075483116121da576040518287823782810190600a8252888142930301902055604051828782378781848101600b8152030190203360005287524260406000205560108101805491611f4a85611f456011840195865490614c82565b614c82565b600854106121a05733871461216857611f858530337f0000000000000000000000000000000000000000000000000000000000000000614f3e565b611f9185601154614c82565b601155611fa76003820154600483015490614c82565b421092831561215e57611fbc60785b876151af565b670de0b6b3a7640000908181029181830414901517156103a5576064900496606435881061212257508a156120fe575081611ffa8660129454614c82565b905501612008858254614c82565b90555b87156120d8576040518287823787818481016015815203019020336000528752600160406000205b61204485825480156120bf57614c82565b815501612052858254614c82565b9055156120b7576078945b8160405192839283378101600081520390209460405196151587528601526040850152606084015260808301527fa994696d1a657073ceaa15fbacd649938053ce8bee7de30ec1c28d337cc37b2360a03393a36001600055005b60649461205d565b6002840180546001600160a01b0319168b179055614c82565b604051828782378781848101601681520301902033600052875260016040600020612033565b6013925061210d868254614c82565b90550161211b858254614c82565b905561200b565b8a7514db1a5c1c1859d94e8813d9191cc818da185b99d95960521b6064926040519262461bcd60e51b8452600484015260166024840152820152fd5b611fbc6064611fb6565b60405162461bcd60e51b8152600481018a9052601160248201527021b0b73737ba1039b2b63316b932b332b960791b81880152606490fd5b60405162461bcd60e51b8152600481018a90526013602482015272141bdbdb081b1a5b5a5d08195e18d959591959606a1b81880152606490fd5b60405162461bcd60e51b815260048101889052600d60248201526c42657420746f6f206c6172676560981b81860152606490fd5b60405162461bcd60e51b815260048101889052600d60248201526c10995d081d1bdbc81cdb585b1b609a1b81860152606490fd5b60405162461bcd60e51b8152600481018890526007602482015266115e1c1a5c995960ca1b81860152606490fd5b9050421089611ed9565b60405162461bcd60e51b81526004810188905260086024820152672737ba1037b832b760c11b81860152606490fd5b346103bb5760603660031901126103bb576004356001600160401b0381116103bb576122d99036906004016148ac565b90600560243510156103bb576122ed6148f5565b6122f5614fee565b336000908152600080516020615591833981519152602052604090205461231e9060ff16615250565b61233f60ff6040518585823760208187810160148152030190205416615011565b6040518383823760208185810160138152030190209161236b600460ff600686015416611921816149c8565b6123766024356149c8565b60016024351491828015612a25575b8015612a0e575b80156129f7575b61239c906152c7565b600090600090806129ea575b612977575b600a850154936123c1600d87015486614c82565b6008878101546000979188919081901c6001600160a01b0316612909575b506123eb6024356149c8565b60046024351480156128f2575b156126e5575050506000805160206155d18339815191529450906124f49291600a870154806126b5575b50600d87015480612688575b505b600887810154901c6001600160a01b03161561265a575b6000600a8801556000600d88015561245e876154a5565b61246d602435600689016151e2565b6124786024356149c8565b8061264e575b80612641575b156125a15760068601805461ff0019166103001790556040518785823780888101600081520390207fdbe0c9710229ddcaf3318331d1d0d7a49d90753150cde2b75814e9021cf4270e604080516124dc6024356149c8565b602435815260036020820152a25b611f458785615340565b93600160ff600686015460081c1661250b816149c8565b149384156125975760100154915b8160405192839283378101600081520390209261254a60405192839283602090939291936040810194151581520152565b0390a28061255a575b6001600055005b60035461259191906001600160a01b03167f0000000000000000000000000000000000000000000000000000000000000000615201565b80612553565b6011015491612519565b6125ac6024356149c8565b60026024351480612635575b80612628575b156124ea5760068601805461ff0019166103001790556040518785823780888101600081520390207fdbe0c9710229ddcaf3318331d1d0d7a49d90753150cde2b75814e9021cf4270e604080516126166024356149c8565b602435815260036020820152a26124ea565b50601086015415156125be565b506013860154156125b8565b5060118601541515612484565b5060128601541561247e565b60035460088881018054610100600160a81b0319169290911b610100600160a81b0316919091179055612447565b60018060a01b03600c89015416600052600f6020526126ad6040600020918254614c82565b90558861242e565b60018060a01b03600889015460081c16600052600f6020526126dd6040600020918254614c82565b905588612422565b871561286d575050600887810154901c6001600160a01b0316955b6001600160a01b03871661272d575b50506000805160206155d18339815191529450906124f49291612430565b60088881018054610100600160a81b0319169189901b610100600160a81b0316919091179055811561270f57600d88015490816127a9575050906124f49392916000805160206155d18339815191529660018060a01b0316600052600f60205261279d6040600020918254614c82565b90555b9091928861270f565b91949392911561286257506127c3600a88015480956151a2565b806014810204601414811517156103a5576000805160206155d1833981519152966128016124f4966127fc846064601482020492614c82565b6151a2565b9060018060a01b0316600052600f6020526128226040600020918254614c82565b905560646014820204612836575b506127a0565b926064601485612850838361285b979902046011546151a2565b601155020490614c82565b9188612830565b6127c39080956151a2565b600c890180549092906001600160a01b031615612896575050546001600160a01b031695612700565b90979150600260ff60068b0154166128ad816149c8565b14806128e9575b6128bf575b50612700565b94506128cd856011546151a2565b601155600888018054610100600160a81b0319169055896128b9565b508015156128b4565b506128fe6024356149c8565b6003602435146123f8565b6129146024356149c8565b8480612965575b61295c575b61292b6024356149c8565b600260243514908161294d575b50612944575b8a6123df565b6001975061293e565b60ff915060a81c16158b612938565b60019850612920565b50600160ff8260a81c1615151461291b565b506007840160008154915561298e816011546151a2565b60115560018501546003546040516001600160a01b0391821692909116908886823780898101600081520390207ffb2750f360b80f54f160e4040a40784035b12d621eee44f9df71d1751f7a96526020604051868152a46123ad565b50600785015415156123a8565b50612a036024356149c8565b602435600414612393565b50612a1a6024356149c8565b60036024351461238c565b50612a316024356149c8565b600260243514612385565b346103bb5760203660031901126103bb57612a55614880565b612a5d614c8f565b6001600160a01b038181169190612a75831515614c44565b6018541690818314612aac57612a8d612a9392614b2e565b50614d54565b506001600160601b0360a01b6018541617601855600080f35b60405162461bcd60e51b815260206004820152601060248201526f20b63932b0b23c9037b832b930ba37b960811b6044820152606490fd5b346103bb5760003660031901126103bb57612afd614c8f565b6040516370a0823160e01b81523060048201526001600160a01b037f00000000000000000000000000000000000000000000000000000000000000006020836024818585165afa928315612bda57600093612ba7575b506011549283811115612b785761181293612b6d916151a2565b916003541690615201565b60405162461bcd60e51b8152602060048201526007602482015266139bc8191d5cdd60ca1b6044820152606490fd5b9092506020813d8211612bd2575b81612bc26020938361492e565b810103126103bb57519183612b53565b3d9150612bb5565b6040513d6000823e3d90fd5b346103bb5760003660031901126103bb57602060405160008152f35b346103bb5760003660031901126103bb576020600654604051908152f35b346103bb576020612c3361128a36614a0d565b6016908201908152030190206001600160a01b0391821660009081526020918252604090819020805460018201546002909201548351918252938101919091529190921691810191909152606090f35b346103bb5760403660031901126103bb57612c9c614896565b600435600052600260205260406000209060018060a01b0316600052602052602060ff604060002054166040519015158152f35b346103bb5760203660031901126103bb576001600160a01b03612cf1614880565b16600052600e6020526020604060002054604051908152f35b346103bb5760003660031901126103bb57612d23614c8f565b612d2b614d36565b600160ff19815416176001557f62e78cea01bee320cd4e420270b5ea74000d11b0c9f74754ebdbfc544b05a2586020604051338152a1005b346103bb5760003660031901126103bb57602060405162278d008152f35b346103bb5760803660031901126103bb576001600160401b036004358181116103bb57612db29036906004016148ac565b91612dbb614d36565b612dc3614fee565b60125491612dd083614eab565b60125560405192602093612e0e607482878101943360601b86528987603484013789820190426034830152605482015203605481018452018261492e565b51902093604051916060830183811085821117610dd057604052604083528483019560403688376040805b613361575061331e57612e7760226040518098612e678983019761060f60f31b8952518092858501906149a5565b810103600281018952018761492e565b600a82101580613312575b156132cd5760ff60405186818951612e9b81838a6149a5565b81016014815203019020541661329857602490813592620f4240841061326157600854841161322c573360005260098752604060002054610e1081018091116132175742106131e657336000526009875242604060002055612f1f8430337f0000000000000000000000000000000000000000000000000000000000000000614f3e565b612f2b84601154614c82565b60115560405187818a51612f4081838b6149a5565b810160138152030190209288518781116131d157612f6881612f628754614a4e565b87614ef9565b8089601f821160011461316b57600091613160575b508160011b916000199060031b1c19161784555b600184810180546001600160a01b0319163317905596821161314c57506002830191612fc782612fc18554614a4e565b85614ef9565b600090601f83116001146130df5761307594939291600091836130d4575b5050600019600383901b1c191690871b1790555b42600382015560643580156130cb575b600482015560443580156130c2576130219042614c82565b905b60058101918255836007600683019260ff199384815416905501558560405188818b5161305181838c6149a5565b810160148152030190209182541617905554926040518092819289519283916149a5565b810103902090604051928352848301527fccdee9db8c345dd53026f5dedbf3e8b723ceddd2ad8eeb96b00ce37fddd58b6460403393a360005561177e6040519282849384528301906149e8565b50600090613023565b50604435613009565b013590508a80612fe5565b91839288929594600052896000209060005b8b601f19851682106131365750506130759683601f1981161061311c575b505050811b019055612ff9565b0135600019600384901b60f8161c191690558a808061310f565b828901358455978801978b9590930192016130f1565b634e487b7160e01b60009081526041600452fd5b90508a01518b612f7d565b60008781528b81209250601f198416908c8e5b8383106131ba5750505090836001949392106131a1575b5050811b018455612f91565b8c015160001960f88460031b161c191690558b80613195565b840151855560019094019392830192018c8e61317e565b50634e487b7160e01b60009081526041600452fd5b60405162461bcd60e51b815260048101889052600a818501526914985d19481b1a5b5a5d60b21b6044820152606490fd5b83634e487b7160e01b60005260116004526000fd5b60405162461bcd60e51b815260048101889052600e818501526d5365656420746f6f206c6172676560901b6044820152606490fd5b60405162461bcd60e51b8152600481018890526010818501526f4d696e20736565643a2031205553444360801b6044820152606490fd5b60405162461bcd60e51b815260048101869052600d60248201526c4d61726b65742065786973747360981b6044820152606490fd5b60405162461bcd60e51b815260048101869052601760248201527f496e76616c6964207175657374696f6e206c656e6774680000000000000000006044820152606490fd5b506101f4821115612e82565b6064856040519062461bcd60e51b825280600483015260248201527f537472696e67733a20686578206c656e67746820696e73756666696369656e746044820152fd5b90600f811660108110156133b45760001983018381116103a557865111156133b4576f181899199a1a9b1b9c1cb0b131b232b360811b901a858301601f015360041c9080156103a5576000190180612e39565b634e487b7160e01b600052603260045260246000fd5b346103bb5760003660031901126103bb576020600c54604051908152f35b346103bb5760003660031901126103bb57613401614fee565b33600052600f60205260406000205480156134935733600052600f60205260006040812055613432816011546151a2565b60115561346081337f0000000000000000000000000000000000000000000000000000000000000000615201565b6040519081527f0d41118e36df44efb77a471fc49fb9c0be0406d802ef95520e9fbf606e65b45560203392a26001600055005b60405162461bcd60e51b81526020600482015260086024820152674e6f20626f6e647360c01b6044820152606490fd5b346103bb5760003660031901126103bb57602060405161c3508152f35b346103bb5760003660031901126103bb576003546040516001600160a01b039091168152602090f35b346103bb5760603660031901126103bb576004356001600160401b0381116103bb5761353990369060040161494f565b6044356001600160a01b03811691908290036103bb5760206135689181604051938285809451938492016149a5565b81016017815203019020602435600052602052604060002090600052602052602060ff604060002054166040519015158152f35b346103bb5760003660031901126103bb576020604051670de0b6b3a76400008152f35b346103bb5760203660031901126103bb576004356001600160401b0381116103bb5760206135f360e09236906004016148ac565b91908260405193849283378101601381520301902060068101549060ff8083169260081c169060108101546011820154600583015491600760018060a01b036001860154169401549460405196613649816149c8565b8752613654816149c8565b602087015260408601526060850152608084015260a083015260c0820152f35b346103bb5760003660031901126103bb57602060ff600154166040519015158152f35b346103bb5760003660031901126103bb576020600854604051908152f35b346103bb5760203660031901126103bb576004356001600160401b0381116103bb576136e59036906004016148ac565b906136ee614fee565b61370f60ff6040518484823760208186810160148152030190205416615011565b604051828282376020818481016013815203019020600681019061374a60ff83541661373a816149c8565b80159081156137ec575b5061508d565b600581015480156137a75762278d0081018091116103a557421115613772576109c8906154a5565b60405162461bcd60e51b815260206004820152600d60248201526c139bdd081858985b991bdb9959609a1b6044820152606490fd5b60405162461bcd60e51b815260206004820152601a60248201527f4f70656e2d656e6465643a2075736520766f69644d61726b65740000000000006044820152606490fd5b600191506137f9816149c8565b1486613744565b346103bb5760203660031901126103bb576004356001600160401b0381116103bb5760ff61383860206115fe8194369060040161494f565b8101601481520301902054166040519015158152f35b346103bb5760003660031901126103bb57613867614c8f565b60015460ff8116156138a65760ff19166001557f5db9ee0a495bf2e6ff9c91a7834c1ba4fdd244a5e8aa4e537bd38aeae4b073aa6020604051338152a1005b604051638dfc202b60e01b8152600490fd5b346103bb576020806003193601126103bb576138d2614880565b6138da614c8f565b6040516001600160a01b039182168382018181528483529093916138fd81614913565b5190209081600052601081526139196040600020541515614cfb565b816000526010815260406000205442106139795760109060035492856001600160601b0360a01b8516176003556000525260006040812055167f4ab5be82436d353e61ca18726e984e561f5c1cc7c6d38b29d2553c790434705a600080a3005b6064906040519062461bcd60e51b82526004820152600f60248201526e54696d656c6f636b2061637469766560881b6044820152fd5b346103bb576020806003193601126103bb576004356001600160401b0381116103bb576139e09036906004016148ac565b916139e9614fee565b60008052600281526040600020336000528152613a0d60ff60406000205416615250565b613a2d60ff60405185858237838187810160148152030190205416615011565b6040518383823781818581016013815203019020906006820190815490613a5c600460ff8416610446816149c8565b60ff8260081c16613a6c816149c8565b613a8a6001821491828015613b48575b613a85906152c7565b6149c8565b15613b3e5760128401545b613b0a575061ff00191661030017905560150180549081613af1575b50508160405192839283378101600081520390207f1e9a51575531367c4323c60efe8c5b980af66cd0509c86d8f4e1a3d9c9001700600080a26001600055005b613aff600092600c54614c82565b600c55558280613ab1565b6064906040519062461bcd60e51b82526004820152600d60248201526c15da5b9b995c9cc8195e1a5cdd609a1b6044820152fd5b6013840154613a95565b50613b52816149c8565b60028114613a7c565b346103bb5760003660031901126103bb576020604051610e108152f35b346103bb5760403660031901126103bb57613b91614896565b336001600160a01b03821603613bad5761181290600435614bcd565b60405163334bd91960e11b8152600490fd5b346103bb5760603660031901126103bb576004356001600160401b0381116103bb57613bef9036906004016148ac565b60243591613bfb6148f5565b91613c04614fee565b3360009081526000805160206155918339815191526020908152604090912054909190613c339060ff16615250565b613c5360ff60405183868237848185810160148152030190205416615011565b604051818482378281838101601381520301902094600686019460ff865416613c7b816149c8565b60028114908115614098575b50156140415780614034575b15613fee57600d86015415613f9d57600a8601546050810290808204605014811517156103a557613ccb6064613d2d930480926151a2565b9060018060a01b039081600c8b015416600052600f8752613cf26040600020918254614c82565b9055613d00826011546151a2565b601155600354167f0000000000000000000000000000000000000000000000000000000000000000615201565b6000600a8701555b600d860180549081613f6e575b5050600886018054610100600160b01b0319169055600060098701819055600b87018054613d7990613d7390614a4e565b82614ed1565b55600c86016001600160601b0360a01b81541690556000600e8701613da1613d738254614a4e565b556000600f8701558015613ef857613db99042614c82565b60058601555b60168501613dcd8154614eab565b90556040518184823781810190600a825283814293030190205583549360ff85169460405195600096885497613e0289614a4e565b600199808b16908115613ed55750600114613e97575b50916000805160206155718339815191526040837f941daf1091a52789b374bb6595f450f4eff8dd877298c2ff77db144c4713b3619a9b9c96946005989603902092815190613e66816149c8565b815260008a820152a260ff1916905501549381604051928392833781016000815203902092604051908152a2600055005b905089600052866000206000905b828210613ec45750508101600080516020615571833981519152613e18565b805484830152908801908a01613ea5565b60ff19168452508015150282019050600080516020615571833981519152613e18565b5060058501548015159081613f63575b5015613dbf5760405162461bcd60e51b815260048101839052602760248201527f4d75737420657874656e6420646561646c696e6520666f722065787069726564604482015266081b585c9ad95d60ca1b6064820152608490fd5b905042101586613f08565b60009160018060a01b03600c8a0154168352600f8652613f9360408420918254614c82565b9055558680613d42565b613fe9600a8701613fb181546011546151a2565b6011556003549054906001600160a01b03167f0000000000000000000000000000000000000000000000000000000000000000615201565b613d2d565b600a860180549081614002575b5050613d35565b60009160018060a01b0360088a015460081c168352600f865261402a60408420918254614c82565b9055558680613ffb565b50600a8601541515613c93565b60405162461bcd60e51b815260048101859052602960248201527f43616e206f6e6c792072656f70656e2070726f706f7365642f6469737075746560448201526864206d61726b65747360b81b6064820152608490fd5b600391506140a5816149c8565b1488613c87565b6148d9565b346103bb5760403660031901126103bb576118126004356140d0614896565b908060005260026020526140eb600160406000200154614cd5565b6141056000805160206155b1833981519152821415614e6b565b80600052600260205261411f600160406000200154614cd5565b614df0565b346103bb5760403660031901126103bb576004356001600160401b0381116103bb576141549036906004016148ac565b61415c614896565b91614165614fee565b3360009081527f6bc781d8c7f9885ebbb3cefbc18932c491038e2ae5c5b56447891e0bd98ea163602052604090205460ff1680156144b7575b6141a79061512a565b6141c860ff6040518484823760208186810160148152030190205416615011565b604051828282376020818481016013815203019020916141f4600360ff600686015416610981816149c8565b600883810154901c6001600160a01b03908116908516149283801561449e575b1561446857600a810154600d82015461422d8183614c82565b95156144605750935b61424085826151a2565b806014810204601414811517156103a5576142756000805160206155d1833981519152966127fc836064601482020492614c82565b60018060a01b038816600052600f6020526142966040600020918254614c82565b9055600883810154906001600160a01b038981169183901c16036144395750600883015460a81c60ff161561442f576142d460015b600685016151e2565b60088381018054610100600160a81b0319169189901b610100600160a81b0316919091179055614303836154a5565b6000600a8401556000600d84015561431b8486615340565b606460148202046143db575b50600160ff600684015460081c1661433e816149c8565b14957f38b360c485b4bed5c0c2e2ab639b104b4e002dbf7351d0d4431e48b6d9e2bfce6040805186888237808781016000815203902092815194855289602086015260018060a01b031693a384156143d15760100154915b816040519283928337810160008152039020926143c760405192839283602090939291936040810194151581520152565b0390a26001600055005b6011015491614396565b60646014826143f383836144299602046011546151a2565b601155020460018060a01b03600354167f0000000000000000000000000000000000000000000000000000000000000000615201565b86614327565b6142d460026142cb565b60a81c60ff16614456576144516001600685016151e2565b6142d4565b61445160026142cb565b905093614236565b60405162461bcd60e51b815260206004820152600e60248201526d24b73b30b634b2103bb4b73732b960911b6044820152606490fd5b50600c8101546001600160a01b03868116911614614214565b50336000908152600080516020615591833981519152602052604090205460ff1661419e565b346103bb5760203660031901126103bb5760043560005260026020526020600160406000200154604051908152f35b346103bb5760003660031901126103bb5760206040516202a3008152f35b346103bb576020806003193601126103bb576004356001600160401b0381116103bb5761455b9036906004016148ac565b9190614565614d36565b61456d614fee565b61458d60ff60405185848237848187810160148152030190205416615011565b60405183828237828185810160138152030190209260068401936145ba600260ff875416610b70816149c8565b600981015461a8c081018091116103a55742111561470457600160ff600883019681838060a01b03895460081c16986000600a870180548c8352600f8c5261460760408420918254614c82565b905555614613866154a5565b5460a81c16156146fa57614628835b826151e2565b6146328587615340565b5460081c16614640816149c8565b149460116010830154920154906146578284614c82565b6064810290808204606414901517156103a5577fe2b1d963f1ec20d10d097a5196a0a9e7b5ff982020b428f20918fe52a2234edf6000805160206155d1833981519152976040518789823780888101600081520390209261271060405191048152a385156146f2575091816040519283928337810160008152039020926143c760405192839283602090939291936040810194151581520152565b905091614396565b6146286002614622565b60405162461bcd60e51b815260048101859052600d60248201526c57696e646f772061637469766560981b6044820152606490fd5b346103bb5760203660031901126103bb576001600160a01b0361475a614880565b1660005260096020526020604060002054604051908152f35b346103bb5760003660031901126103bb576020600554604051908152f35b346103bb5760003660031901126103bb576040517f00000000000000000000000000000000000000000000000000000000000000006001600160a01b03168152602090f35b346103bb5760003660031901126103bb576020601154604051908152f35b346103bb5760203660031901126103bb5760043563ffffffff60e01b81168091036103bb57602090637965db0b60e01b8114908115614839575b506040519015158152f35b6301ffc9a760e01b1490508261482e565b346103bb5760203660031901126103bb576020906001600160a01b0361486e614880565b16600052600f82526040600020548152f35b600435906001600160a01b03821682036103bb57565b602435906001600160a01b03821682036103bb57565b9181601f840112156103bb578235916001600160401b0383116103bb57602083818601950101116103bb57565b346103bb5760003660031901126103bb57602060405160648152f35b6044359081151582036103bb57565b6024359081151582036103bb57565b604081019081106001600160401b03821117610dd057604052565b90601f801991011681019081106001600160401b03821117610dd057604052565b81601f820112156103bb578035906001600160401b038211610dd05760405192614983601f8401601f19166020018561492e565b828452602083830101116103bb57816000926020809301838601378301015290565b60005b8381106149b85750506000910152565b81810151838201526020016149a8565b600511156149d257565b634e487b7160e01b600052602160045260246000fd5b90602091614a01815180928185528580860191016149a5565b601f01601f1916010190565b60406003198201126103bb57600435906001600160401b0382116103bb57614a379160040161494f565b906024356001600160a01b03811681036103bb5790565b90600182811c92168015614a7e575b6020831014614a6857565b634e487b7160e01b600052602260045260246000fd5b91607f1691614a5d565b9060405191826000825492614a9c84614a4e565b908184526001948581169081600014614b0b5750600114614ac8575b5050614ac69250038361492e565b565b9093915060005260209081600020936000915b818310614af3575050614ac693508201013880614ab8565b85548884018501529485019487945091830191614adb565b915050614ac694506020925060ff191682840152151560051b8201013880614ab8565b6001600160a01b031660008181527f6bc781d8c7f9885ebbb3cefbc18932c491038e2ae5c5b56447891e0bd98ea16360205260408120549091906000805160206155b18339815191529060ff1615614bc8578083526002602052604083208284526020526040832060ff1981541690557ff6391f5c32d9c69d2a47ea670b442974b53935d1edc7fd64eb21e047a839171b339380a4600190565b505090565b906000918083526002602052604083209160018060a01b03169182845260205260ff604084205416600014614bc8578083526002602052604083208284526020526040832060ff1981541690557ff6391f5c32d9c69d2a47ea670b442974b53935d1edc7fd64eb21e047a839171b339380a4600190565b15614c4b57565b60405162461bcd60e51b815260206004820152600f60248201526e496e76616c6964206164647265737360881b6044820152606490fd5b919082018092116103a557565b336000908152600080516020615591833981519152602052604081205460ff1615614cb75750565b6044906040519063e2517d3f60e01b82523360048301526024820152fd5b80600052600260205260406000203360005260205260ff6040600020541615614cb75750565b15614d0257565b60405162461bcd60e51b815260206004820152600c60248201526b139bdd081c1c9bdc1bdcd95960a21b6044820152606490fd5b60ff60015416614d4257565b60405163d93c066560e01b8152600490fd5b6001600160a01b031660008181527f6bc781d8c7f9885ebbb3cefbc18932c491038e2ae5c5b56447891e0bd98ea16360205260408120549091906000805160206155b18339815191529060ff16614bc85780835260026020526040832082845260205260408320600160ff198254161790557f2f8788117e7eff1d82e926ec794901d17c78024a50270940304540a733656f0d339380a4600190565b906000918083526002602052604083209160018060a01b03169182845260205260ff60408420541615600014614bc85780835260026020526040832082845260205260408320600160ff198254161790557f2f8788117e7eff1d82e926ec794901d17c78024a50270940304540a733656f0d339380a4600190565b15614e7257565b60405162461bcd60e51b8152602060048201526011602482015270557365207365744f70657261746f72282960781b6044820152606490fd5b60001981146103a55760010190565b818110614ec5575050565b60008155600101614eba565b90601f8111614ede575050565b614ac691600052601f6020600020910160051c810190614eba565b9190601f8111614f0857505050565b614ac6926000526020600020906020601f840160051c83019310614f34575b601f0160051c0190614eba565b9091508190614f27565b6040516323b872dd60e01b60208201526001600160a01b03928316602482015292909116604483015260648083019390935291815260a08101918183106001600160401b03841117610dd057614ac6926040525b906000602091828151910182855af115612bda576000513d614fe557506001600160a01b0381163b155b614fc35750565b604051635274afe760e01b81526001600160a01b039091166004820152602490fd5b60011415614fbc565b600260005414614fff576002600055565b604051633ee5aeb560e01b8152600490fd5b1561501857565b60405162461bcd60e51b8152602060048201526009602482015268139bc81b585c9ad95d60ba1b6044820152606490fd5b1561505057565b60405162461bcd60e51b815260206004820152601560248201527445766964656e63652055524c20746f6f206c6f6e6760581b6044820152606490fd5b1561509457565b60405162461bcd60e51b815260206004820152600d60248201526c496e76616c696420737461746560981b6044820152606490fd5b156150d057565b60405162461bcd60e51b8152602060048201526011602482015270125b9cdd59999a58da595b9d08189bdb99607a1b6044820152606490fd5b908060209392818452848401376000828201840152601f01601f1916010190565b1561513157565b60405162461bcd60e51b815260206004820152600e60248201526d139bdd08185d5d1a1bdc9a5e995960921b6044820152606490fd5b1561516e57565b60405162461bcd60e51b815260206004820152600c60248201526b139bdd08191a5cdc1d5d195960a21b6044820152606490fd5b919082039182116103a557565b818102929181159184041417156103a557565b81156151cc570490565b634e487b7160e01b600052601260045260246000fd5b906151ec816149c8565b61ff0082549160081b169061ff001916179055565b60405163a9059cbb60e01b60208201526001600160a01b03909216602483015260448083019390935291815260808101916001600160401b03831182841017610dd057614ac692604052614f92565b1561525757565b60405162461bcd60e51b81526020600482015260096024820152682737ba1030b236b4b760b91b6044820152606490fd5b1561528f57565b60405162461bcd60e51b815260206004820152601060248201526f105b1c9958591e481c995cdbdb1d995960821b6044820152606490fd5b156152ce57565b60405162461bcd60e51b815260206004820152600f60248201526e496e76616c6964206f7574636f6d6560881b6044820152606490fd5b1561530c57565b60405162461bcd60e51b815260206004820152600c60248201526b139bdd081c995cdbdb1d995960a21b6044820152606490fd5b602090826040519384928337810160138152030190206153696010820154601183015490614c82565b600460ff600684015460081c1661537f816149c8565b146154685761271080615394600454846151af565b0491816153a3600554836151af565b04916064820290828204606414831517156103a5576127fc61544d946127fc601497846127fc9604946153d8600654896151af565b04966153e682600c54614c82565b600c5560018060a01b038060018d015416600052600d602052604060002061540f868254614c82565b905560088c8101805490911c821615615452575460081c16600052600e602052604060002061543f878254614c82565b90555b8760158c01556151a2565b910155565b505061546086600c54614c82565b600c55615442565b9060140155565b1561547657565b60405162461bcd60e51b81526020600482015260076024820152664e6f206665657360c81b6044820152606490fd5b600681019081549060ff8216906040519060009080546154c481614a4e565b916001918083169081156155555750600114615518575b50505060408260049594936000805160206155718339815191529303902092815190615506816149c8565b8152856020820152a260ff1916179055565b9091925060005260209081600020906000915b84831061554457505050908201905060408260046154db565b80548684015291830191810161552b565b60ff19168652505050801515028201905060408260046154db56fea76c3b7423c609f9756b55905a211a402af319118a555928e75d689b642bdba5ac33ff75c19e70fe83507db0d683fd3465c996598dc972688b7ace676c89077b97667070c54ef182b0f5858b034beac1b6f3089aa2d3188bb1e8929f4fa9b929175b08e6ee8bbceb85780e790adca99ec4fbd3bb124ffbf50bd35ed4375a69aca264697066735822122093ad123f89e4b3c0454b43b6d779b2337f83b8a6637b71ff3f18623fe9fcf5af64736f6c634300081400332f8788117e7eff1d82e926ec794901d17c78024a50270940304540a733656f0d",
  "linkReferences": {},
  "deployedLinkReferences": {}
}