{
  "_format": "hh-sol-artifact-1",
  "contractName": "PredictionBattleV10",
  "sourceName": "contracts/PredictionBattleV10.sol",
  "abi": [
    {
      "inputs": [
        {
          "internalType": "address",
          "name": "_admin",
          "type": "address"
        },
        {
          "internalType": "address",
          "name": "_operator",
          "type": "address"
        },
        {
          "internalType": "address",
          "name": "_treasury",
          "type": "address"
        },
        {
          "internalType": "address",
          "name": "_usdcToken",
          "type": "address"
        }
      ],
      "stateMutability": "nonpayable",
      "type": "constructor"
    },
    {
      "inputs": [],
      "name": "AccessControlBadConfirmation",
      "type": "error"
    },
    {
      "inputs": [
        {
          "internalType": "address",
          "name": "account",
          "type": "address"
        },
        {
          "internalType": "bytes32",
          "name": "neededRole",
          "type": "bytes32"
        }
      ],
      "name": "AccessControlUnauthorizedAccount",
      "type": "error"
    },
    {
      "inputs": [],
      "name": "EnforcedPause",
      "type": "error"
    },
    {
      "inputs": [],
      "name": "ExpectedPause",
      "type": "error"
    },
    {
      "inputs": [],
      "name": "ReentrancyGuardReentrantCall",
      "type": "error"
    },
    {
      "inputs": [
        {
          "internalType": "address",
          "name": "token",
          "type": "address"
        }
      ],
      "name": "SafeERC20FailedOperation",
      "type": "error"
    },
    {
      "anonymous": false,
      "inputs": [
        {
          "indexed": true,
          "internalType": "string",
          "name": "id",
          "type": "string"
        },
        {
          "indexed": true,
          "internalType": "address",
          "name": "user",
          "type": "address"
        },
        {
          "indexed": false,
          "internalType": "bool",
          "name": "side",
          "type": "bool"
        },
        {
          "indexed": false,
          "internalType": "uint256",
          "name": "amount",
          "type": "uint256"
        },
        {
          "indexed": false,
          "internalType": "uint256",
          "name": "shares",
          "type": "uint256"
        },
        {
          "indexed": false,
          "internalType": "address",
          "name": "referrer",
          "type": "address"
        },
        {
          "indexed": false,
          "internalType": "uint256",
          "name": "weight",
          "type": "uint256"
        }
      ],
      "name": "BetPlaced",
      "type": "event"
    },
    {
      "anonymous": false,
      "inputs": [
        {
          "indexed": true,
          "internalType": "address",
          "name": "user",
          "type": "address"
        },
        {
          "indexed": false,
          "internalType": "uint256",
          "name": "amount",
          "type": "uint256"
        }
      ],
      "name": "BondWithdrawn",
      "type": "event"
    },
    {
      "anonymous": false,
      "inputs": [
        {
          "indexed": true,
          "internalType": "address",
          "name": "creator",
          "type": "address"
        },
        {
          "indexed": false,
          "internalType": "uint256",
          "name": "amount",
          "type": "uint256"
        }
      ],
      "name": "CreatorFeesWithdrawn",
      "type": "event"
    },
    {
      "anonymous": false,
      "inputs": [
        {
          "indexed": true,
          "internalType": "string",
          "name": "id",
          "type": "string"
        },
        {
          "indexed": true,
          "internalType": "address",
          "name": "winner",
          "type": "address"
        },
        {
          "indexed": false,
          "internalType": "uint256",
          "name": "totalBondReward",
          "type": "uint256"
        },
        {
          "indexed": false,
          "internalType": "bool",
          "name": "finalResult",
          "type": "bool"
        }
      ],
      "name": "DisputeResolved",
      "type": "event"
    },
    {
      "anonymous": false,
      "inputs": [
        {
          "indexed": true,
          "internalType": "address",
          "name": "treasury",
          "type": "address"
        },
        {
          "indexed": false,
          "internalType": "uint256",
          "name": "amount",
          "type": "uint256"
        }
      ],
      "name": "HouseFeeWithdrawn",
      "type": "event"
    },
    {
      "anonymous": false,
      "inputs": [
        {
          "indexed": true,
          "internalType": "string",
          "name": "id",
          "type": "string"
        },
        {
          "indexed": true,
          "internalType": "address",
          "name": "creator",
          "type": "address"
        },
        {
          "indexed": false,
          "internalType": "uint256",
          "name": "deadlineTime",
          "type": "uint256"
        },
        {
          "indexed": false,
          "internalType": "uint256",
          "name": "seedAmount",
          "type": "uint256"
        }
      ],
      "name": "MarketCreated",
      "type": "event"
    },
    {
      "anonymous": false,
      "inputs": [
        {
          "indexed": true,
          "internalType": "string",
          "name": "id",
          "type": "string"
        },
        {
          "indexed": false,
          "internalType": "uint256",
          "name": "newDeadline",
          "type": "uint256"
        }
      ],
      "name": "MarketReopened",
      "type": "event"
    },
    {
      "anonymous": false,
      "inputs": [
        {
          "indexed": true,
          "internalType": "string",
          "name": "id",
          "type": "string"
        },
        {
          "indexed": false,
          "internalType": "bool",
          "name": "result",
          "type": "bool"
        },
        {
          "indexed": false,
          "internalType": "uint256",
          "name": "winnerPool",
          "type": "uint256"
        }
      ],
      "name": "MarketResolved",
      "type": "event"
    },
    {
      "anonymous": false,
      "inputs": [
        {
          "indexed": true,
          "internalType": "string",
          "name": "marketId",
          "type": "string"
        },
        {
          "indexed": false,
          "internalType": "enum PredictionBattleV10.MarketState",
          "name": "oldState",
          "type": "uint8"
        },
        {
          "indexed": false,
          "internalType": "enum PredictionBattleV10.MarketState",
          "name": "newState",
          "type": "uint8"
        }
      ],
      "name": "MarketStateChanged",
      "type": "event"
    },
    {
      "anonymous": false,
      "inputs": [
        {
          "indexed": true,
          "internalType": "string",
          "name": "id",
          "type": "string"
        }
      ],
      "name": "MarketVoided",
      "type": "event"
    },
    {
      "anonymous": false,
      "inputs": [
        {
          "indexed": true,
          "internalType": "string",
          "name": "id",
          "type": "string"
        },
        {
          "indexed": true,
          "internalType": "address",
          "name": "challenger",
          "type": "address"
        },
        {
          "indexed": false,
          "internalType": "uint256",
          "name": "bond",
          "type": "uint256"
        },
        {
          "indexed": false,
          "internalType": "string",
          "name": "evidence",
          "type": "string"
        }
      ],
      "name": "OutcomeChallenged",
      "type": "event"
    },
    {
      "anonymous": false,
      "inputs": [
        {
          "indexed": true,
          "internalType": "string",
          "name": "id",
          "type": "string"
        },
        {
          "indexed": true,
          "internalType": "address",
          "name": "proposer",
          "type": "address"
        },
        {
          "indexed": false,
          "internalType": "uint256",
          "name": "reward",
          "type": "uint256"
        }
      ],
      "name": "OutcomeFinalized",
      "type": "event"
    },
    {
      "anonymous": false,
      "inputs": [
        {
          "indexed": true,
          "internalType": "string",
          "name": "id",
          "type": "string"
        },
        {
          "indexed": true,
          "internalType": "address",
          "name": "proposer",
          "type": "address"
        },
        {
          "indexed": false,
          "internalType": "bool",
          "name": "result",
          "type": "bool"
        },
        {
          "indexed": false,
          "internalType": "uint256",
          "name": "bond",
          "type": "uint256"
        },
        {
          "indexed": false,
          "internalType": "uint256",
          "name": "disputeEndTime",
          "type": "uint256"
        },
        {
          "indexed": false,
          "internalType": "string",
          "name": "evidence",
          "type": "string"
        }
      ],
      "name": "OutcomeProposed",
      "type": "event"
    },
    {
      "anonymous": false,
      "inputs": [
        {
          "indexed": false,
          "internalType": "address",
          "name": "account",
          "type": "address"
        }
      ],
      "name": "Paused",
      "type": "event"
    },
    {
      "anonymous": false,
      "inputs": [
        {
          "indexed": true,
          "internalType": "string",
          "name": "id",
          "type": "string"
        },
        {
          "indexed": true,
          "internalType": "address",
          "name": "user",
          "type": "address"
        },
        {
          "indexed": false,
          "internalType": "uint256",
          "name": "amount",
          "type": "uint256"
        }
      ],
      "name": "PayoutClaimed",
      "type": "event"
    },
    {
      "anonymous": false,
      "inputs": [
        {
          "indexed": true,
          "internalType": "address",
          "name": "referrer",
          "type": "address"
        },
        {
          "indexed": false,
          "internalType": "uint256",
          "name": "amount",
          "type": "uint256"
        }
      ],
      "name": "ReferrerFeesWithdrawn",
      "type": "event"
    },
    {
      "anonymous": false,
      "inputs": [
        {
          "indexed": true,
          "internalType": "string",
          "name": "marketId",
          "type": "string"
        },
        {
          "indexed": true,
          "internalType": "address",
          "name": "proposer",
          "type": "address"
        },
        {
          "indexed": false,
          "internalType": "uint256",
          "name": "reward",
          "type": "uint256"
        }
      ],
      "name": "ReporterRewardClaimed",
      "type": "event"
    },
    {
      "anonymous": false,
      "inputs": [
        {
          "indexed": true,
          "internalType": "bytes32",
          "name": "role",
          "type": "bytes32"
        },
        {
          "indexed": true,
          "internalType": "bytes32",
          "name": "previousAdminRole",
          "type": "bytes32"
        },
        {
          "indexed": true,
          "internalType": "bytes32",
          "name": "newAdminRole",
          "type": "bytes32"
        }
      ],
      "name": "RoleAdminChanged",
      "type": "event"
    },
    {
      "anonymous": false,
      "inputs": [
        {
          "indexed": true,
          "internalType": "bytes32",
          "name": "role",
          "type": "bytes32"
        },
        {
          "indexed": true,
          "internalType": "address",
          "name": "account",
          "type": "address"
        },
        {
          "indexed": true,
          "internalType": "address",
          "name": "sender",
          "type": "address"
        }
      ],
      "name": "RoleGranted",
      "type": "event"
    },
    {
      "anonymous": false,
      "inputs": [
        {
          "indexed": true,
          "internalType": "bytes32",
          "name": "role",
          "type": "bytes32"
        },
        {
          "indexed": true,
          "internalType": "address",
          "name": "account",
          "type": "address"
        },
        {
          "indexed": true,
          "internalType": "address",
          "name": "sender",
          "type": "address"
        }
      ],
      "name": "RoleRevoked",
      "type": "event"
    },
    {
      "anonymous": false,
      "inputs": [
        {
          "indexed": true,
          "internalType": "string",
          "name": "id",
          "type": "string"
        },
        {
          "indexed": true,
          "internalType": "address",
          "name": "creator",
          "type": "address"
        },
        {
          "indexed": false,
          "internalType": "uint256",
          "name": "amount",
          "type": "uint256"
        }
      ],
      "name": "SeedWithdrawn",
      "type": "event"
    },
    {
      "anonymous": false,
      "inputs": [
        {
          "indexed": true,
          "internalType": "address",
          "name": "newTreasury",
          "type": "address"
        },
        {
          "indexed": false,
          "internalType": "uint256",
          "name": "executeTime",
          "type": "uint256"
        }
      ],
      "name": "TreasuryChangeProposed",
      "type": "event"
    },
    {
      "anonymous": false,
      "inputs": [
        {
          "indexed": true,
          "internalType": "address",
          "name": "oldTreasury",
          "type": "address"
        },
        {
          "indexed": true,
          "internalType": "address",
          "name": "newTreasury",
          "type": "address"
        }
      ],
      "name": "TreasuryUpdated",
      "type": "event"
    },
    {
      "anonymous": false,
      "inputs": [
        {
          "indexed": false,
          "internalType": "address",
          "name": "account",
          "type": "address"
        }
      ],
      "name": "Unpaused",
      "type": "event"
    },
    {
      "inputs": [],
      "name": "DEFAULT_ADMIN_ROLE",
      "outputs": [
        {
          "internalType": "bytes32",
          "name": "",
          "type": "bytes32"
        }
      ],
      "stateMutability": "view",
      "type": "function"
    },
    {
      "inputs": [],
      "name": "DISPUTE_WINDOW",
      "outputs": [
        {
          "internalType": "uint256",
          "name": "",
          "type": "uint256"
        }
      ],
      "stateMutability": "view",
      "type": "function"
    },
    {
      "inputs": [],
      "name": "EMERGENCY_TIMEOUT",
      "outputs": [
        {
          "internalType": "uint256",
          "name": "",
          "type": "uint256"
        }
      ],
      "stateMutability": "view",
      "type": "function"
    },
    {
      "inputs": [],
      "name": "FEE_DENOMINATOR",
      "outputs": [
        {
          "internalType": "uint256",
          "name": "",
          "type": "uint256"
        }
      ],
      "stateMutability": "view",
      "type": "function"
    },
    {
      "inputs": [],
      "name": "MAX_BETTORS_PER_SIDE",
      "outputs": [
        {
          "internalType": "uint256",
          "name": "",
          "type": "uint256"
        }
      ],
      "stateMutability": "view",
      "type": "function"
    },
    {
      "inputs": [],
      "name": "MAX_WEIGHT",
      "outputs": [
        {
          "internalType": "uint256",
          "name": "",
          "type": "uint256"
        }
      ],
      "stateMutability": "view",
      "type": "function"
    },
    {
      "inputs": [],
      "name": "MIN_BET_AMOUNT",
      "outputs": [
        {
          "internalType": "uint256",
          "name": "",
          "type": "uint256"
        }
      ],
      "stateMutability": "view",
      "type": "function"
    },
    {
      "inputs": [],
      "name": "MIN_BOND",
      "outputs": [
        {
          "internalType": "uint256",
          "name": "",
          "type": "uint256"
        }
      ],
      "stateMutability": "view",
      "type": "function"
    },
    {
      "inputs": [],
      "name": "MIN_MARKET_INTERVAL",
      "outputs": [
        {
          "internalType": "uint256",
          "name": "",
          "type": "uint256"
        }
      ],
      "stateMutability": "view",
      "type": "function"
    },
    {
      "inputs": [],
      "name": "MIN_WEIGHT",
      "outputs": [
        {
          "internalType": "uint256",
          "name": "",
          "type": "uint256"
        }
      ],
      "stateMutability": "view",
      "type": "function"
    },
    {
      "inputs": [],
      "name": "OPERATOR_ROLE",
      "outputs": [
        {
          "internalType": "bytes32",
          "name": "",
          "type": "bytes32"
        }
      ],
      "stateMutability": "view",
      "type": "function"
    },
    {
      "inputs": [],
      "name": "REPORTER_REWARD_BPS",
      "outputs": [
        {
          "internalType": "uint256",
          "name": "",
          "type": "uint256"
        }
      ],
      "stateMutability": "view",
      "type": "function"
    },
    {
      "inputs": [],
      "name": "SHARE_PRECISION",
      "outputs": [
        {
          "internalType": "uint256",
          "name": "",
          "type": "uint256"
        }
      ],
      "stateMutability": "view",
      "type": "function"
    },
    {
      "inputs": [],
      "name": "TREASURY_TIMELOCK",
      "outputs": [
        {
          "internalType": "uint256",
          "name": "",
          "type": "uint256"
        }
      ],
      "stateMutability": "view",
      "type": "function"
    },
    {
      "inputs": [
        {
          "internalType": "string",
          "name": "_marketId",
          "type": "string"
        },
        {
          "internalType": "enum PredictionBattleV10.MarketOutcome",
          "name": "_outcome",
          "type": "uint8"
        },
        {
          "internalType": "bool",
          "name": "_slashCreator",
          "type": "bool"
        }
      ],
      "name": "adminResolve",
      "outputs": [],
      "stateMutability": "nonpayable",
      "type": "function"
    },
    {
      "inputs": [
        {
          "internalType": "string",
          "name": "_marketId",
          "type": "string"
        },
        {
          "internalType": "string",
          "name": "_evidenceUrl",
          "type": "string"
        },
        {
          "internalType": "uint256",
          "name": "_bondAmount",
          "type": "uint256"
        }
      ],
      "name": "challengeOutcome",
      "outputs": [],
      "stateMutability": "nonpayable",
      "type": "function"
    },
    {
      "inputs": [
        {
          "internalType": "string",
          "name": "_marketId",
          "type": "string"
        }
      ],
      "name": "claimFallback",
      "outputs": [],
      "stateMutability": "nonpayable",
      "type": "function"
    },
    {
      "inputs": [
        {
          "internalType": "string",
          "name": "_marketId",
          "type": "string"
        }
      ],
      "name": "claimReporterReward",
      "outputs": [],
      "stateMutability": "nonpayable",
      "type": "function"
    },
    {
      "inputs": [
        {
          "internalType": "string",
          "name": "_marketId",
          "type": "string"
        }
      ],
      "name": "claimWinnings",
      "outputs": [],
      "stateMutability": "nonpayable",
      "type": "function"
    },
    {
      "inputs": [
        {
          "internalType": "address",
          "name": "",
          "type": "address"
        }
      ],
      "name": "claimableBonds",
      "outputs": [
        {
          "internalType": "uint256",
          "name": "",
          "type": "uint256"
        }
      ],
      "stateMutability": "view",
      "type": "function"
    },
    {
      "inputs": [
        {
          "internalType": "string",
          "name": "_question",
          "type": "string"
        },
        {
          "internalType": "uint256",
          "name": "_usdcSeedAmount",
          "type": "uint256"
        },
        {
          "internalType": "uint256",
          "name": "_durationSeconds",
          "type": "uint256"
        },
        {
          "internalType": "uint256",
          "name": "_bonusDurationSeconds",
          "type": "uint256"
        }
      ],
      "name": "createMarket",
      "outputs": [
        {
          "internalType": "string",
          "name": "",
          "type": "string"
        }
      ],
      "stateMutability": "nonpayable",
      "type": "function"
    },
    {
      "inputs": [
        {
          "internalType": "address",
          "name": "",
          "type": "address"
        }
      ],
      "name": "creatorBalance",
      "outputs": [
        {
          "internalType": "uint256",
          "name": "",
          "type": "uint256"
        }
      ],
      "stateMutability": "view",
      "type": "function"
    },
    {
      "inputs": [],
      "name": "creatorFeeBps",
      "outputs": [
        {
          "internalType": "uint256",
          "name": "",
          "type": "uint256"
        }
      ],
      "stateMutability": "view",
      "type": "function"
    },
    {
      "inputs": [],
      "name": "currentOperator",
      "outputs": [
        {
          "internalType": "address",
          "name": "",
          "type": "address"
        }
      ],
      "stateMutability": "view",
      "type": "function"
    },
    {
      "inputs": [
        {
          "internalType": "string",
          "name": "_marketId",
          "type": "string"
        }
      ],
      "name": "emergencyResolve",
      "outputs": [],
      "stateMutability": "nonpayable",
      "type": "function"
    },
    {
      "inputs": [
        {
          "internalType": "address",
          "name": "_newTreasury",
          "type": "address"
        }
      ],
      "name": "executeTreasuryChange",
      "outputs": [],
      "stateMutability": "nonpayable",
      "type": "function"
    },
    {
      "inputs": [
        {
          "internalType": "string",
          "name": "_marketId",
          "type": "string"
        }
      ],
      "name": "finalizeOutcome",
      "outputs": [],
      "stateMutability": "nonpayable",
      "type": "function"
    },
    {
      "inputs": [
        {
          "internalType": "string",
          "name": "_marketId",
          "type": "string"
        }
      ],
      "name": "getMarketDetails",
      "outputs": [
        {
          "internalType": "enum PredictionBattleV10.MarketState",
          "name": "state",
          "type": "uint8"
        },
        {
          "internalType": "enum PredictionBattleV10.MarketOutcome",
          "name": "outcome",
          "type": "uint8"
        },
        {
          "internalType": "uint256",
          "name": "totalYes",
          "type": "uint256"
        },
        {
          "internalType": "uint256",
          "name": "totalNo",
          "type": "uint256"
        },
        {
          "internalType": "uint256",
          "name": "deadlineTime",
          "type": "uint256"
        },
        {
          "internalType": "address",
          "name": "creator",
          "type": "address"
        },
        {
          "internalType": "uint256",
          "name": "seedAmount",
          "type": "uint256"
        }
      ],
      "stateMutability": "view",
      "type": "function"
    },
    {
      "inputs": [
        {
          "internalType": "bytes32",
          "name": "role",
          "type": "bytes32"
        }
      ],
      "name": "getRoleAdmin",
      "outputs": [
        {
          "internalType": "bytes32",
          "name": "",
          "type": "bytes32"
        }
      ],
      "stateMutability": "view",
      "type": "function"
    },
    {
      "inputs": [
        {
          "internalType": "bytes32",
          "name": "role",
          "type": "bytes32"
        },
        {
          "internalType": "address",
          "name": "account",
          "type": "address"
        }
      ],
      "name": "grantRole",
      "outputs": [],
      "stateMutability": "nonpayable",
      "type": "function"
    },
    {
      "inputs": [
        {
          "internalType": "string",
          "name": "",
          "type": "string"
        },
        {
          "internalType": "address",
          "name": "",
          "type": "address"
        }
      ],
      "name": "hasClaimed",
      "outputs": [
        {
          "internalType": "bool",
          "name": "",
          "type": "bool"
        }
      ],
      "stateMutability": "view",
      "type": "function"
    },
    {
      "inputs": [
        {
          "internalType": "bytes32",
          "name": "role",
          "type": "bytes32"
        },
        {
          "internalType": "address",
          "name": "account",
          "type": "address"
        }
      ],
      "name": "hasRole",
      "outputs": [
        {
          "internalType": "bool",
          "name": "",
          "type": "bool"
        }
      ],
      "stateMutability": "view",
      "type": "function"
    },
    {
      "inputs": [],
      "name": "houseBalance",
      "outputs": [
        {
          "internalType": "uint256",
          "name": "",
          "type": "uint256"
        }
      ],
      "stateMutability": "view",
      "type": "function"
    },
    {
      "inputs": [],
      "name": "houseFeeBps",
      "outputs": [
        {
          "internalType": "uint256",
          "name": "",
          "type": "uint256"
        }
      ],
      "stateMutability": "view",
      "type": "function"
    },
    {
      "inputs": [
        {
          "internalType": "string",
          "name": "",
          "type": "string"
        }
      ],
      "name": "lastBetTime",
      "outputs": [
        {
          "internalType": "uint256",
          "name": "",
          "type": "uint256"
        }
      ],
      "stateMutability": "view",
      "type": "function"
    },
    {
      "inputs": [
        {
          "internalType": "address",
          "name": "",
          "type": "address"
        }
      ],
      "name": "lastMarketCreation",
      "outputs": [
        {
          "internalType": "uint256",
          "name": "",
          "type": "uint256"
        }
      ],
      "stateMutability": "view",
      "type": "function"
    },
    {
      "inputs": [
        {
          "internalType": "string",
          "name": "",
          "type": "string"
        }
      ],
      "name": "marketExists",
      "outputs": [
        {
          "internalType": "bool",
          "name": "",
          "type": "bool"
        }
      ],
      "stateMutability": "view",
      "type": "function"
    },
    {
      "inputs": [
        {
          "internalType": "string",
          "name": "",
          "type": "string"
        }
      ],
      "name": "markets",
      "outputs": [
        {
          "internalType": "string",
          "name": "id",
          "type": "string"
        },
        {
          "internalType": "address",
          "name": "creator",
          "type": "address"
        },
        {
          "internalType": "string",
          "name": "question",
          "type": "string"
        },
        {
          "internalType": "uint256",
          "name": "creationTime",
          "type": "uint256"
        },
        {
          "internalType": "uint256",
          "name": "bonusDuration",
          "type": "uint256"
        },
        {
          "internalType": "uint256",
          "name": "deadlineTime",
          "type": "uint256"
        },
        {
          "internalType": "enum PredictionBattleV10.MarketState",
          "name": "state",
          "type": "uint8"
        },
        {
          "internalType": "enum PredictionBattleV10.MarketOutcome",
          "name": "outcome",
          "type": "uint8"
        },
        {
          "internalType": "uint256",
          "name": "seedAmount",
          "type": "uint256"
        },
        {
          "internalType": "bool",
          "name": "seedWithdrawn",
          "type": "bool"
        },
        {
          "internalType": "address",
          "name": "proposer",
          "type": "address"
        },
        {
          "internalType": "bool",
          "name": "proposedResult",
          "type": "bool"
        },
        {
          "internalType": "uint256",
          "name": "proposalTime",
          "type": "uint256"
        },
        {
          "internalType": "uint256",
          "name": "bondAmount",
          "type": "uint256"
        },
        {
          "internalType": "string",
          "name": "evidenceUrl",
          "type": "string"
        },
        {
          "internalType": "address",
          "name": "challenger",
          "type": "address"
        },
        {
          "internalType": "uint256",
          "name": "challengeBondAmount",
          "type": "uint256"
        },
        {
          "internalType": "string",
          "name": "challengeEvidenceUrl",
          "type": "string"
        },
        {
          "internalType": "uint256",
          "name": "challengeTime",
          "type": "uint256"
        },
        {
          "internalType": "uint256",
          "name": "totalYes",
          "type": "uint256"
        },
        {
          "internalType": "uint256",
          "name": "totalNo",
          "type": "uint256"
        },
        {
          "internalType": "uint256",
          "name": "totalSharesYes",
          "type": "uint256"
        },
        {
          "internalType": "uint256",
          "name": "totalSharesNo",
          "type": "uint256"
        },
        {
          "internalType": "uint256",
          "name": "yesBettorsCount",
          "type": "uint256"
        },
        {
          "internalType": "uint256",
          "name": "noBettorsCount",
          "type": "uint256"
        }
      ],
      "stateMutability": "view",
      "type": "function"
    },
    {
      "inputs": [],
      "name": "maxBetAmount",
      "outputs": [
        {
          "internalType": "uint256",
          "name": "",
          "type": "uint256"
        }
      ],
      "stateMutability": "view",
      "type": "function"
    },
    {
      "inputs": [],
      "name": "maxMarketPool",
      "outputs": [
        {
          "internalType": "uint256",
          "name": "",
          "type": "uint256"
        }
      ],
      "stateMutability": "view",
      "type": "function"
    },
    {
      "inputs": [
        {
          "internalType": "string",
          "name": "",
          "type": "string"
        },
        {
          "internalType": "address",
          "name": "",
          "type": "address"
        }
      ],
      "name": "noBets",
      "outputs": [
        {
          "internalType": "uint256",
          "name": "amount",
          "type": "uint256"
        },
        {
          "internalType": "uint256",
          "name": "shares",
          "type": "uint256"
        },
        {
          "internalType": "address",
          "name": "referrer",
          "type": "address"
        }
      ],
      "stateMutability": "view",
      "type": "function"
    },
    {
      "inputs": [],
      "name": "pause",
      "outputs": [],
      "stateMutability": "nonpayable",
      "type": "function"
    },
    {
      "inputs": [],
      "name": "paused",
      "outputs": [
        {
          "internalType": "bool",
          "name": "",
          "type": "bool"
        }
      ],
      "stateMutability": "view",
      "type": "function"
    },
    {
      "inputs": [
        {
          "internalType": "bytes32",
          "name": "",
          "type": "bytes32"
        }
      ],
      "name": "pendingTreasuryChange",
      "outputs": [
        {
          "internalType": "uint256",
          "name": "",
          "type": "uint256"
        }
      ],
      "stateMutability": "view",
      "type": "function"
    },
    {
      "inputs": [
        {
          "internalType": "string",
          "name": "_marketId",
          "type": "string"
        },
        {
          "internalType": "bool",
          "name": "_side",
          "type": "bool"
        },
        {
          "internalType": "uint256",
          "name": "_usdcAmount",
          "type": "uint256"
        },
        {
          "internalType": "uint256",
          "name": "_minSharesOut",
          "type": "uint256"
        },
        {
          "internalType": "address",
          "name": "_referrer",
          "type": "address"
        }
      ],
      "name": "placeBet",
      "outputs": [],
      "stateMutability": "nonpayable",
      "type": "function"
    },
    {
      "inputs": [
        {
          "internalType": "string",
          "name": "_marketId",
          "type": "string"
        },
        {
          "internalType": "bool",
          "name": "_result",
          "type": "bool"
        },
        {
          "internalType": "string",
          "name": "_evidenceUrl",
          "type": "string"
        },
        {
          "internalType": "uint256",
          "name": "_bondAmount",
          "type": "uint256"
        }
      ],
      "name": "proposeOutcome",
      "outputs": [],
      "stateMutability": "nonpayable",
      "type": "function"
    },
    {
      "inputs": [
        {
          "internalType": "address",
          "name": "_newTreasury",
          "type": "address"
        }
      ],
      "name": "proposeTreasuryChange",
      "outputs": [],
      "stateMutability": "nonpayable",
      "type": "function"
    },
    {
      "inputs": [],
      "name": "referrerFeeBps",
      "outputs": [
        {
          "internalType": "uint256",
          "name": "",
          "type": "uint256"
        }
      ],
      "stateMutability": "view",
      "type": "function"
    },
    {
      "inputs": [
        {
          "internalType": "bytes32",
          "name": "role",
          "type": "bytes32"
        },
        {
          "internalType": "address",
          "name": "callerConfirmation",
          "type": "address"
        }
      ],
      "name": "renounceRole",
      "outputs": [],
      "stateMutability": "nonpayable",
      "type": "function"
    },
    {
      "inputs": [
        {
          "internalType": "string",
          "name": "_marketId",
          "type": "string"
        },
        {
          "internalType": "uint256",
          "name": "_extensionSeconds",
          "type": "uint256"
        }
      ],
      "name": "reopenMarket",
      "outputs": [],
      "stateMutability": "nonpayable",
      "type": "function"
    },
    {
      "inputs": [
        {
          "internalType": "string",
          "name": "",
          "type": "string"
        }
      ],
      "name": "reporterRewardClaimed",
      "outputs": [
        {
          "internalType": "bool",
          "name": "",
          "type": "bool"
        }
      ],
      "stateMutability": "view",
      "type": "function"
    },
    {
      "inputs": [
        {
          "internalType": "string",
          "name": "_marketId",
          "type": "string"
        },
        {
          "internalType": "address",
          "name": "_winnerAddress",
          "type": "address"
        }
      ],
      "name": "resolveDispute",
      "outputs": [],
      "stateMutability": "nonpayable",
      "type": "function"
    },
    {
      "inputs": [
        {
          "internalType": "bytes32",
          "name": "role",
          "type": "bytes32"
        },
        {
          "internalType": "address",
          "name": "account",
          "type": "address"
        }
      ],
      "name": "revokeRole",
      "outputs": [],
      "stateMutability": "nonpayable",
      "type": "function"
    },
    {
      "inputs": [
        {
          "internalType": "address",
          "name": "",
          "type": "address"
        }
      ],
      "name": "rewardsBalance",
      "outputs": [
        {
          "internalType": "uint256",
          "name": "",
          "type": "uint256"
        }
      ],
      "stateMutability": "view",
      "type": "function"
    },
    {
      "inputs": [
        {
          "internalType": "address",
          "name": "_newOperator",
          "type": "address"
        }
      ],
      "name": "setOperator",
      "outputs": [],
      "stateMutability": "nonpayable",
      "type": "function"
    },
    {
      "inputs": [
        {
          "internalType": "bytes4",
          "name": "interfaceId",
          "type": "bytes4"
        }
      ],
      "name": "supportsInterface",
      "outputs": [
        {
          "internalType": "bool",
          "name": "",
          "type": "bool"
        }
      ],
      "stateMutability": "view",
      "type": "function"
    },
    {
      "inputs": [],
      "name": "sweepDust",
      "outputs": [],
      "stateMutability": "nonpayable",
      "type": "function"
    },
    {
      "inputs": [],
      "name": "totalLockedAmount",
      "outputs": [
        {
          "internalType": "uint256",
          "name": "",
          "type": "uint256"
        }
      ],
      "stateMutability": "view",
      "type": "function"
    },
    {
      "inputs": [],
      "name": "treasury",
      "outputs": [
        {
          "internalType": "address",
          "name": "",
          "type": "address"
        }
      ],
      "stateMutability": "view",
      "type": "function"
    },
    {
      "inputs": [],
      "name": "unpause",
      "outputs": [],
      "stateMutability": "nonpayable",
      "type": "function"
    },
    {
      "inputs": [],
      "name": "usdcToken",
      "outputs": [
        {
          "internalType": "contract IERC20",
          "name": "",
          "type": "address"
        }
      ],
      "stateMutability": "view",
      "type": "function"
    },
    {
      "inputs": [
        {
          "internalType": "string",
          "name": "_marketId",
          "type": "string"
        }
      ],
      "name": "voidAbandonedMarket",
      "outputs": [],
      "stateMutability": "nonpayable",
      "type": "function"
    },
    {
      "inputs": [
        {
          "internalType": "string",
          "name": "_marketId",
          "type": "string"
        }
      ],
      "name": "voidMarket",
      "outputs": [],
      "stateMutability": "nonpayable",
      "type": "function"
    },
    {
      "inputs": [],
      "name": "withdrawBond",
      "outputs": [],
      "stateMutability": "nonpayable",
      "type": "function"
    },
    {
      "inputs": [],
      "name": "withdrawCreatorFees",
      "outputs": [],
      "stateMutability": "nonpayable",
      "type": "function"
    },
    {
      "inputs": [],
      "name": "withdrawHouseFees",
      "outputs": [],
      "stateMutability": "nonpayable",
      "type": "function"
    },
    {
      "inputs": [],
      "name": "withdrawReferrerFees",
      "outputs": [],
      "stateMutability": "nonpayable",
      "type": "function"
    },
    {
      "inputs": [
        {
          "internalType": "string",
          "name": "_marketId",
          "type": "string"
        }
      ],
      "name": "withdrawSeed",
      "outputs": [],
      "stateMutability": "nonpayable",
      "type": "function"
    },
    {
      "inputs": [
        {
          "internalType": "string",
          "name": "",
          "type": "string"
        },
        {
          "internalType": "address",
          "name": "",
          "type": "address"
        }
      ],
      "name": "yesBets",
      "outputs": [
        {
          "internalType": "uint256",
          "name": "amount",
          "type": "uint256"
        },
        {
          "internalType": "uint256",
          "name": "shares",
          "type": "uint256"
        },
        {
          "internalType": "address",
          "name": "referrer",
          "type": "address"
        }
      ],
      "stateMutability": "view",
      "type": "function"
    }
  ],
  "bytecode": "0x60a0346200024a57601f6200531938819003918201601f191683019291906001600160401b038411838510176200024f5781608092849260409687528339810103126200024a57620000518162000265565b6200005f6020830162000265565b6200007a60606200007286860162000265565b940162000265565b60016000556103e86004556101f4600581905560065564174876e80060075564e8d4a51000600855916001600160a01b03808216156200021657808316948515620001df578116938415620001a8571680156200017557600380546001600160a01b03199081169095179055608052620001019190620000fa906200027a565b50620002fb565b50601754161760175551614f5a90816200039f823960805181818161055a01528181610b8001528181610ed90152818161142a0152818161157d0152818161191701528181611d55015281816123f40152818161249f015281816125f501528181612bd90152818161311b01526141ff0152f35b855162461bcd60e51b815260206004820152600c60248201526b496e76616c6964205553444360a01b6044820152606490fd5b865162461bcd60e51b815260206004820152601060248201526f496e76616c696420547265617375727960801b6044820152606490fd5b865162461bcd60e51b815260206004820152601060248201526f24b73b30b634b21027b832b930ba37b960811b6044820152606490fd5b855162461bcd60e51b815260206004820152600d60248201526c24b73b30b634b21020b236b4b760991b6044820152606490fd5b600080fd5b634e487b7160e01b600052604160045260246000fd5b51906001600160a01b03821682036200024a57565b6001600160a01b031660008181527fac33ff75c19e70fe83507db0d683fd3465c996598dc972688b7ace676c89077b602052604081205490919060ff16620002f75781805260026020526040822081835260205260408220600160ff198254161790553391600080516020620052f98339815191528180a4600190565b5090565b6001600160a01b031660008181527f6bc781d8c7f9885ebbb3cefbc18932c491038e2ae5c5b56447891e0bd98ea16360205260408120549091907f97667070c54ef182b0f5858b034beac1b6f3089aa2d3188bb1e8929f4fa9b9299060ff16620003995780835260026020526040832082845260205260408320600160ff19825416179055600080516020620052f9833981519152339380a4600190565b50509056fe61020080604052600436101561001457600080fd5b60003560e01c9081626fb9ff146142a25750806301ffc9a71461424c57806305a9f2741461422e57806311eac855146141e957806317773ebb146141cb5780631b11f28f14613e6a5780631caed77c14613e305780632023115d14613c4d578063214529ad14613c2f578063218b5382146138cd578063248a9ca314613c0057806329a3a0d6146139115780632f2ff15d146138d2578063327abb48146138cd57806336568abe1461388657806337b150da146138695780633aae0474146135f05780633bc6f606146134f95780633cff3549146134b85780633f4ba83a1461344e5780633fed6ced1461340057806345d98ccb146116505780634a5bfc5b1461330157806359f5a41f146132e35780635c975abb146132c05780635e578a561461320b5780635fc5e020146131e857806361d027b3146131bf5780636475e3d3146131a257806366eb9cec146130c757806367084eb3146130a95780637988a63014612a635780637f26407614612a455780637f98a3f71461288c5780638456cb5914612833578063896bdac8146127f957806391d14854146127ac578063941c77341461275e5780639a826eb7146126fb578063a07c1633146126dd578063a217fddf146126c1578063a53df2e2146125bf578063b3ab15fb14612517578063bb353221146120c8578063c227955a14611c35578063c5479faf146117ca578063c8eaef19146116e0578063cab11d5d146116c2578063d031639b14611696578063d547741f14611655578063d73792a914611650578063dbeae54c146115d4578063dfdc5f7714611524578063e0de0fee14611506578063e0ffbac5146114dd578063e129d04114611481578063e1cd04b4146113d1578063e1e90ab314611277578063e4a28a521461125b578063e6cd7ab614611221578063ee59d24014611203578063efbda66114610f56578063f585dc5714610f39578063f5b541a614610f10578063f677b4d414610e61578063f69be50214610a75578063fc9cd8d0146108c5578063fdbcf125146103cb5763fe1140a31461031657600080fd5b346103c65760203660031901126103c65761032f6142d8565b610337614594565b6001600160a01b031661034b81151561482d565b6040516020810190828252602081526103638161434d565b5190206202a3004201908142116103b0577f2fdb8aa18e3708b0dfed4acb0de7452e85e7f833b1b055880cef38e8bee690b591602091600052600f825280604060002055604051908152a2005b634e487b7160e01b600052601160045260246000fd5b600080fd5b346103c6576020806003193601126103c6576004356001600160401b0381116103c6576103fc903690600401614304565b610407929192614a05565b61042760ff60405183868237848185810160128152030190205416614a28565b6040518184823782818381016011815203019020600681015490610459600460ff841661045381614460565b14614cfc565b604051838682378481858101601581520301902033600052845261048560ff6040600020541615614d37565b60006040518487823785818681016013815203019020336000528552604060002091604051858882378681878101601481520301902033600052865260ff60406000209460081c166104d681614460565b600481036105d957505050906104ef915490549061486b565b925b83156105a157907f2f0b27a029bcea8b4cd6e1f002ba498bd37b903b56578a04f1576cd25c09de539160405182828237848184810160158152030190203360005284526040600020600160ff1982541617905561055085601054614ca0565b60105561057e85337f0000000000000000000000000000000000000000000000000000000000000000614cad565b816040519283928337810160008152039020916040519384523393a36001600055005b60405162461bcd60e51b815260048101849052601060248201526f4e6f7468696e6720746f20636c61696d60801b6044820152606490fd5b6105e881989594929398614460565b600381036107185750906105ff825484549061486b565b8061060e575b505050506104f1565b6004546005549498509192610623858461486b565b98610631600654809b61486b565b606481018091116103b057612710958661064c819387614d75565b046106579086614ca0565b9b600160a01b600190039788806001819501541696600201541694818615156000146106b0976106a69661069f946106979361070b5750509a5b8a614d75565b049a88614d75565b0495614d75565b0495600b5461486b565b600b55600052600c87526106ca604060002091825461486b565b90551680156106f657600052600d84526106ea604060002091825461486b565b90555b84808080610605565b5061070390600b5461486b565b600b556106ed565b60020154169b9050610691565b80610724600192614460565b149283156108bd5750915b82541515806108b0575b610746575b5050506104f1565b9091955061075d601083015460118401549061486b565b90156108a5576012820154905b811561086c5761077e906001880154614d75565b04906004549560055492610792848961486b565b906107a0600654809361486b565b90606482018092116103b05761271080806107bc819585614d75565b046107c79084614ca0565b9b6107d29084614d75565b04966107de9083614d75565b04926107e991614d75565b0493600b54906107f89161486b565b600b55600160a01b6001900360018194015416600052600c87526040600020908154906108249161486b565b90556002018054821615610856575416600052600d845261084b604060002091825461486b565b90555b84808061073e565b505061086490600b5461486b565b600b5561084e565b60405162461bcd60e51b81526004810187905260116024820152704e6f2077696e6e696e672073686172657360781b6044820152606490fd5b60138201549061076a565b5060018301541515610739565b90509161072f565b346103c6576020806003193601126103c6576004356001600160401b0381116103c6576108f6903690600401614304565b916108ff614a05565b61091f60ff60405185858237838187810160128152030190205416614a28565b60405183838237818185810160118152030190206006810191610951600360ff85541661094b81614460565b14614bcf565b600f82015462278d0081018091116103b057421115610a3e579061099291600a820180549081610a0c575b5050600d82018054806109dd575b505050614df9565b61040061ff00198254161790558160405192839283378101600081520390207f1e9a51575531367c4323c60efe8c5b980af66cd0509c86d8f4e1a3d9c9001700600080a26001600055005b600e60009360018060a01b03600c87015416855252610a016040842091825461486b565b90555585808061098a565b60009160018060a01b03600886015460081c168352600e8452610a346040842091825461486b565b905555868061097c565b6064906040519062461bcd60e51b82526004820152601060248201526f54696d65206c6f636b2061637469766560801b6044820152fd5b346103c65760603660031901126103c6576004356001600160401b0381116103c657610aa5903690600401614304565b6024356001600160401b0381116103c657610ac4903690600401614304565b91610acd6148b3565b610ad5614a05565b610af660ff6040518387823760208185810160128152030190205416614a28565b610b04610200841115614ab1565b60405181858237602081838101601181520301902093610b36600260ff600688015416610b3081614460565b14614878565b600985015461a8c081018091116103b0574211610e2c57610b5f600a8601546044351015614b31565b60088581015433911c6001600160a01b031614610def57610ba460443530337f0000000000000000000000000000000000000000000000000000000000000000614955565b610bb260443560105461486b565b601055600685015460405160008754610bca816144b4565b9060018116908115610dda5750600114610da6575b50908060039392039020600080516020614ec58339815191526040805160ff8516610c0981614460565b8152856020820152a260ff1916176006860155600c850180546001600160a01b03191633179055604435600d860155600e8501946001600160401b038511610d9057610c5f85610c5988546144b4565b88614910565b600095601f8611600114610d015790610cec939291867f4bd7c92eba598ee7ab038ac4a59ab8feb6d65703229128829d6cdd17959b121f969798600091610cf6575b508860011b906000198a60031b1c19161790555b600f429101558160405192839283378101600081520390209260405191829160443583526040602084015233966040840191614b71565b0390a36001600055005b905087013589610ca1565b601f1986168160005260206000209060005b818110610d7857509087987f4bd7c92eba598ee7ab038ac4a59ab8feb6d65703229128829d6cdd17959b121f9798610cec979695949310610d5e575b5050600188811b019055610cb5565b88013560001960038b901b60f8161c191690558880610d4f565b878a013583556020998a019960019093019201610d13565b634e487b7160e01b600052604160045260246000fd5b90508760005260206000206000905b828210610dc6575050810181610bdf565b600181602092548487015201910190610db5565b60ff1916845250801515028201905081610bdf565b60405162461bcd60e51b815260206004820152601560248201527443616e6e6f742073656c662d6368616c6c656e676560581b6044820152606490fd5b60405162461bcd60e51b815260206004820152600d60248201526c15da5b991bddc818db1bdcd959609a1b6044820152606490fd5b346103c65760003660031901126103c657610e7a614594565b610e82614a05565b600b54610e90811515614dc3565b6000600b55610ea181601054614ca0565b6010557f19f7a31ae4185f3274e252a5a78ec36ba85c01300bc8a800d41d79be74662a8e602060018060a01b03610efd8482600354167f0000000000000000000000000000000000000000000000000000000000000000614cad565b6003541692604051908152a26001600055005b346103c65760003660031901126103c6576020604051600080516020614f058339815191528152f35b346103c65760003660031901126103c657602060405161a8c08152f35b346103c65760203660031901126103c6576004356001600160401b0381116103c657610f86903690600401614389565b6040518181809351602081930191610f9d92614420565b8101601181520360200190208060a052610fb6906144ee565b60a05160018101546001600160a01b03166101a052610fd7906002016144ee565b60c05260a05160038101549060048101546101405260058101546101c052600681015491600782015491600881015491600982015491600a81015490600b0161101f906144ee565b9260a05194600160a01b60019003600c8701541696600d87015496600e01611046906144ee565b9860a0519a600f8c01546101805260108c01549b601181015461010052601281015460e05260138101546101e05260148101546101205260150154608052604051806101605261032080915261016051016110a091614480565b6101a051610160516020015261016051808203906040015260c051906110c591614480565b9561016051606001526101405161016051608001526101c0516101605160a0015260ff81166110f381614460565b6101605160c0015260081c60ff1661110a81614460565b6101605160e0015261016051610100015260ff81161515610160516101200152600160a01b600190038160081c1661016051610140015260a81c60ff161515610160516101600152610160516101800152610160516101a0015261016051808203906101c0015261117a91614480565b91610160516101e00152610160516102000152610160518082039061022001526111a391614480565b90610180516101605161024001526101605161026001526101005161016051610280015260e051610160516102a001526101e051610160516102c0015261012051610160516102e001526080516101605161030001526101605180910390f35b346103c65760003660031901126103c6576020600454604051908152f35b346103c65760203660031901126103c6576001600160a01b036112426142d8565b16600052600c6020526020604060002054604051908152f35b346103c65760003660031901126103c657602060405160788152f35b346103c6576020806003193601126103c6576004356001600160401b0381116103c6576112a8903690600401614304565b6112b3929192614a05565b6112d360ff60405183868237848185810160128152030190205416614a28565b6040518184823782818381016011815203019020926112fe600460ff60068701541661045381614460565b61131560018060a01b036001860154163314614d88565b6008840180549460ff86166113985760070154948515611369579060017f3ff50bb01a71ba44b43b95e691fe785159d1c403efd991b82f3b5f62a2d8148a94939260ff191617905561055085601054614ca0565b60405162461bcd60e51b8152600481018690526007602482015266139bc81cd9595960ca1b6044820152606490fd5b60405162461bcd60e51b815260048101869052601160248201527020b63932b0b23c903bb4ba34323930bbb760791b6044820152606490fd5b346103c65760003660031901126103c6576113ea614a05565b33600052600c602052604060002054611404811515614dc3565b33600052600c6020526000604081205561142081601054614ca0565b60105561144e81337f0000000000000000000000000000000000000000000000000000000000000000614cad565b6040519081527f7f0b212761a7abe7ec4d2adea5a7fa1fea58234aabf0c01c0e63403fe62013ff60203392a26001600055005b346103c65760203660031901126103c6576004356001600160401b0381116103c6576114ca60206114b781933690600401614389565b8160405193828580945193849201614420565b8101600a81520301902054604051908152f35b346103c65760003660031901126103c6576017546040516001600160a01b039091168152602090f35b346103c65760003660031901126103c6576020604051624c4b408152f35b346103c65760003660031901126103c65761153d614a05565b33600052600d602052604060002054611557811515614dc3565b33600052600d6020526000604081205561157381601054614ca0565b6010556115a181337f0000000000000000000000000000000000000000000000000000000000000000614cad565b6040519081527f3c4f6499c168416bb9b014d9d1e1d8132e5aaafd7bbcfc48d49ee1d5a2d90f5260203392a26001600055005b346103c65760206115fc6115e7366143df565b92908160405193828580945193849201614420565b6013908201908152030190206001600160a01b0391821660009081526020918252604090819020805460018201546002909201548351918252938101919091529190921691810191909152606090f35b0390f35b614443565b346103c65760403660031901126103c6576116946004356116746142ee565b9080600052600260205261168f6001604060002001546145da565b6147b6565b005b346103c65760203660031901126103c657600435600052600f6020526020604060002054604051908152f35b346103c65760003660031901126103c6576020600754604051908152f35b346103c6576020806003193601126103c6576004356001600160401b0381116103c657611711903690600401614304565b9161171a614a05565b600080516020614f0583398151915260005260028152604060002033600052815260ff6040600020541680156117ab575b61175490614b92565b6109926040518484823782818681016011815203019020600681019261178a600460ff86541661178381614460565b1415614c61565b600a820180549081610a0c575050600d82018054806109dd57505050614df9565b506000808052600282526040808220338352835290205460ff1661174b565b346103c65760803660031901126103c6576004356001600160401b0381116103c6576117fa903690600401614304565b6118026144a5565b906044356001600160401b0381116103c657611822903690600401614304565b93909261182d6148b3565b611835614a05565b61185660ff6040518585823760208187810160128152030190205416614a28565b611864610200861115614ab1565b60405183838237602081858101601181520301902061189d60ff60068301541661188d81614460565b8015908115611c21575b50614af5565b60018101546001600160a01b03163314611bcf575b60405184848237602081868101600a8152030190205461070881018091116103b0574210611b7e5760646118ef601083015460118401549061486b565b04624c4b409080820182116103b05761190d91016064351015614b31565b61193b60643530337f0000000000000000000000000000000000000000000000000000000000000000614955565b61194960643560105461486b565b601055600681015460405160008354611961816144b4565b9060018116908115611b695750600114611b35575b509181600292600b9594039020600080516020614ec58339815191526040805160ff85166119a381614460565b8152856020820152a260ff191617600682015560088082018054610100600160a81b0319163390921b610100600160a81b031691909117815592835460ff60a81b191690151560a881901b60ff60a81b1691909117909355426009820155606435600a820155016001600160401b038611610d9057611a2c86611a2683546144b4565b83614910565b856000601f8211600114611acf57600091611ac4575b508660011b906000198860031b1c19161790555b61a8c04201918242116103b05783610cec917f5247f2366f7e70fc0b5fc61f486408d977047c08d356ffb76c3d35832ceeaf26956040519283928337810160008152039020946040519384938452606435602085015260408401526080606084015233966080840191614b71565b905085013587611a42565b60008381526020812092508890601f198216905b818110611b1a575010611b00575b5050600186811b019055611a56565b860135600019600389901b60f8161c191690558680611af1565b8984013585556001909401936020938401938b935001611ae3565b90508360005260206000206000905b828210611b55575050810181611976565b600181602092548487015201910190611b44565b60ff1916845250801515028201905081611976565b60405162461bcd60e51b8152602060048201526024808201527f436f6f6c2d646f776e3a20776169742033306d696e206166746572206c6173746044820152630818995d60e21b6064820152608490fd5b60038101546201518081018091116103b0574210156118b25760405162461bcd60e51b8152602060048201526011602482015270086e4cac2e8dee47440eec2d2e8406468d607b1b6044820152606490fd5b60019150611c2e81614460565b1488611897565b346103c65760a03660031901126103c6576004356001600160401b0381116103c657611c65903690600401614304565b611c6d6144a5565b916084356001600160a01b038116906044908135908390036103c657611c916148b3565b611c99614a05565b6040519480858737611cbe60ff87838101601281526020998a91030190205416614a28565b604051818682378681838101601181520301902060ff600682015416611ce381614460565b61209957600581015442101561206b5761c3508310612037576007548311612003576040518287823782810190600a82528881429303019020556010810190815491611d3e85611d39601185019586549061486b565b61486b565b60085410611fc957338714611f9157611d798530337f0000000000000000000000000000000000000000000000000000000000000000614955565b611d858560105461486b565b601055611d9b600383015460048401549061486b565b4210928315611f8757611db060785b87614d75565b670de0b6b3a7640000908181029181830414901517156103b05760649004966064358810611f4b57508a15611f265750611deb85825461486b565b905560128101611dfc86825461486b565b90555b8815611f00576040518388823788818581016013815203019020336000528852600260406000205b611e3286825461486b565b815560018101611e4388825461486b565b90550180546001600160a01b031916871790558815611ee457601401611e768154611e716127108210614a60565b614aa2565b90555b15611edc576078945b8160405192839283378101600081520390209460405196151587528601526040850152606084015260808301527fa994696d1a657073ceaa15fbacd649938053ce8bee7de30ec1c28d337cc37b2360a03393a36001600055005b606494611e82565b601501611ef98154611e716127108210614a60565b9055611e79565b604051838882378881858101601481520301902033600052885260026040600020611e27565b9050611f3385825461486b565b905560138101611f4486825461486b565b9055611dff565b8a7514db1a5c1c1859d94e8813d9191cc818da185b99d95960521b6064926040519262461bcd60e51b8452600484015260166024840152820152fd5b611db06064611daa565b60405162461bcd60e51b8152600481018a9052601160248201527021b0b73737ba1039b2b63316b932b332b960791b81880152606490fd5b60405162461bcd60e51b8152600481018a90526013602482015272141bdbdb081b1a5b5a5d08195e18d959591959606a1b81880152606490fd5b60405162461bcd60e51b815260048101889052600d60248201526c42657420746f6f206c6172676560981b81860152606490fd5b60405162461bcd60e51b815260048101889052600d60248201526c10995d081d1bdbc81cdb585b1b609a1b81860152606490fd5b60405162461bcd60e51b8152600481018890526007602482015266115e1c1a5c995960ca1b81860152606490fd5b60405162461bcd60e51b81526004810188905260086024820152672737ba1037b832b760c11b81860152606490fd5b346103c65760603660031901126103c6576004356001600160401b0381116103c6576120f8903690600401614304565b600560243510156103c6576044359182151583036103c6577f175b08e6ee8bbceb85780e790adca99ec4fbd3bb124ffbf50bd35ed4375a69ac9161213a614a05565b336000908152600080516020614ee583398151915260205260409020546121639060ff16614c29565b61218460ff6040518385823760208185810160128152030190205416614a28565b604051818382376020818381016011815203019020936121b0600460ff60068801541661178381614460565b8061250a575b612470575b600a8401546121ce600d8601548261486b565b906000806121dd602435614460565b6001602435148061245a575b612452575b6121f9602435614460565b60026024351480612440575b612438575b612215602435614460565b6004602435148015612421575b156123305750505050600a84015480612300575b50600d840154806122d3575b505b6000600a8501556000600d85015561225b84614df9565b61226a60243560068601614c0a565b600160ff600686015460081c1661228081614460565b149384156122c95760100154915b816040519283928337810160008152039020926122bf60405192839283602090939291936040810194151581520152565b0390a26001600055005b601101549161228e565b60018060a01b03600c86015416600052600e6020526122f8604060002091825461486b565b905584612242565b60018060a01b03600886015460081c16600052600e602052612328604060002091825461486b565b905584612236565b15612391575050600885810154901c6001600160a01b03165b6001600160a01b031680151580612388575b612367575b5050612244565b600052600e60205261237f604060002091825461486b565b90558480612360565b5081151561235b565b600c870180546001600160a01b039391929190841680156123b75750505054165b612349565b9091939250600260ff60068b0154166123cf81614460565b036124185750906123e56123b292601054614ca0565b60105560035416600a880154907f0000000000000000000000000000000000000000000000000000000000000000614cad565b92505050612349565b5061242d602435614460565b600360243514612222565b50600161220a565b5060ff600889015460a81c1615612205565b5060016121ee565b50600160ff60088a015460a81c161515146121e9565b6007840160008154915561248681601054614ca0565b6010556003546001600160a01b03906124c390839083167f0000000000000000000000000000000000000000000000000000000000000000614cad565b60035416907f3ff50bb01a71ba44b43b95e691fe785159d1c403efd991b82f3b5f62a2d8148a602060405185878237808681016000815203902092604051908152a36121bb565b50600784015415156121b6565b346103c65760203660031901126103c6576125306142d8565b612538614594565b6001600160a01b03818116919061255083151561482d565b60175416908183146125875761256861256e9261471c565b50614600565b506001600160601b0360a01b6017541617601755600080f35b60405162461bcd60e51b815260206004820152601060248201526f20b63932b0b23c9037b832b930ba37b960811b6044820152606490fd5b346103c65760003660031901126103c6576125d8614594565b6040516370a0823160e01b81523060048201526001600160a01b037f00000000000000000000000000000000000000000000000000000000000000006020836024818585165afa9283156126b557600093612682575b506010549283811115612653576116949361264891614ca0565b916003541690614cad565b60405162461bcd60e51b8152602060048201526007602482015266139bc8191d5cdd60ca1b6044820152606490fd5b9092506020813d82116126ad575b8161269d60209383614368565b810103126103c65751918361262e565b3d9150612690565b6040513d6000823e3d90fd5b346103c65760003660031901126103c657602060405160008152f35b346103c65760003660031901126103c6576020600654604051908152f35b346103c657602061270e6115e7366143df565b6014908201908152030190206001600160a01b0391821660009081526020918252604090819020805460018201546002909201548351918252938101919091529190921691810191909152606090f35b346103c65760203660031901126103c6576004356001600160401b0381116103c65760ff61279660206114b781943690600401614389565b8101601681520301902054166040519015158152f35b346103c65760403660031901126103c6576127c56142ee565b600435600052600260205260406000209060018060a01b0316600052602052602060ff604060002054166040519015158152f35b346103c65760203660031901126103c6576001600160a01b0361281a6142d8565b16600052600d6020526020604060002054604051908152f35b346103c65760003660031901126103c65761284c614594565b6128546148b3565b600160ff19815416176001557f62e78cea01bee320cd4e420270b5ea74000d11b0c9f74754ebdbfc544b05a2586020604051338152a1005b346103c6576020806003193601126103c6576004356001600160401b0381116103c6576128bd903690600401614304565b6128c8929192614a05565b6128e860ff60405183868237848185810160128152030190205416614a28565b6040518184823782818381016011815203019020600460ff60068301546129158383831661045381614460565b60081c1661292281614460565b14612a0d57600881810154901c6001600160a01b031633036129d9576129739061296360ff6040518588823786818781016016815203019020541615614d37565b601160108201549101549061486b565b906064820291808304606414901517156103b0576127107f8324cae916d4cce50ee31a76930f77226846d2070fb9ae521d41eac167bed93d9204936040518282823784818481016016815203019020600160ff1982541617905561055085601054614ca0565b60405162461bcd60e51b815260048101849052600c60248201526b2737ba10383937b837b9b2b960a11b6044820152606490fd5b60405162461bcd60e51b815260048101849052601060248201526f13585c9ad95d0818d85b98d95b1b195960821b6044820152606490fd5b346103c65760003660031901126103c657602060405162278d008152f35b346103c65760803660031901126103c6576004356001600160401b0381116103c657612a93903690600401614304565b90612a9c6148b3565b612aa4614a05565b60405160208101903360601b825283836034830137612ad6605482868101426034820152036034810184520182614368565b51902090604051606081018181106001600160401b03821117610d905760405260408152602081019260403685376040805b6130405750612ffc576022612b4891612b389460405195869261060f60f31b602085015251809285850190614420565b8101036002810185520183614368565b600a83101580612ff0575b15612fab5760ff6040516020818551612b6f8183858a01614420565b810160128152030190205416612f7657620f424060243510612f3e5760085460243511612f085760443515612ed057336000526009602052604060002054610e1081018091116103b0574210612e9e5733600052600960205242604060002055612bfd60243530337f0000000000000000000000000000000000000000000000000000000000000000614955565b612c0b60243560105461486b565b6010556040516020818451612c238183858901614420565b8101601181520301902082516001600160401b038111610d9057612c5181612c4b84546144b4565b84614910565b806020601f8211600114612e3757600091612e2c575b508160011b916000199060031b1c19161781555b600181810180546001600160a01b03191633179055916001600160401b038511610d90576002820190612cb286612c4b84546144b4565b600090601f8711600114612dc25761164c969160009183612db7575b5050600019600383901b1c191690841b1790555b4260038201556064358015612dae575b6004820155612d036044354261486b565b9060058101918255600681019060ff19918281541690556007602435910155826040516020818751612d388183858c01614420565b810160128152030190209182541617905554604051808451612d5e818360208901614420565b810103902060405191825260243560208301527fccdee9db8c345dd53026f5dedbf3e8b723ceddd2ad8eeb96b00ce37fddd58b6460403393a3600055604051918291602083526020830190614480565b50604435612cf2565b013590508780612cce565b8260005260206000209160005b601f1989168110612e165750918791869361164c99601f19811610612dfc575b505050811b019055612ce2565b0135600019600384901b60f8161c19169055878080612def565b8282013584559286019260209182019101612dcf565b905084015186612c67565b91508260005260206000206000925b601f1983168410612e86576001935082601f19811610612e6d575b5050811b018155612c7b565b86015160001960f88460031b161c191690558680612e61565b86810151825560209384019360019092019101612e46565b60405162461bcd60e51b815260206004820152600a60248201526914985d19481b1a5b5a5d60b21b6044820152606490fd5b60405162461bcd60e51b815260206004820152601060248201526f24b73b30b634b210323ab930ba34b7b760811b6044820152606490fd5b60405162461bcd60e51b815260206004820152600e60248201526d5365656420746f6f206c6172676560901b6044820152606490fd5b60405162461bcd60e51b815260206004820152601060248201526f4d696e20736565643a2031205553444360801b6044820152606490fd5b60405162461bcd60e51b815260206004820152600d60248201526c4d61726b65742065786973747360981b6044820152606490fd5b60405162461bcd60e51b815260206004820152601760248201527f496e76616c6964207175657374696f6e206c656e6774680000000000000000006044820152606490fd5b506101f4831115612b53565b606460405162461bcd60e51b815260206004820152602060248201527f537472696e67733a20686578206c656e67746820696e73756666696369656e746044820152fd5b90600f811660108110156130935760001983018381116103b05784511115613093576f181899199a1a9b1b9c1cb0b131b232b360811b901a838301601f015360041c9080156103b0576000190180612b08565b634e487b7160e01b600052603260045260246000fd5b346103c65760003660031901126103c6576020600b54604051908152f35b346103c65760003660031901126103c6576130e0614a05565b33600052600e60205260406000205480156131725733600052600e6020526000604081205561311181601054614ca0565b60105561313f81337f0000000000000000000000000000000000000000000000000000000000000000614cad565b6040519081527f0d41118e36df44efb77a471fc49fb9c0be0406d802ef95520e9fbf606e65b45560203392a26001600055005b60405162461bcd60e51b81526020600482015260086024820152674e6f20626f6e647360c01b6044820152606490fd5b346103c65760003660031901126103c657602060405161c3508152f35b346103c65760003660031901126103c6576003546040516001600160a01b039091168152602090f35b346103c65760003660031901126103c6576020604051670de0b6b3a76400008152f35b346103c65760203660031901126103c6576004356001600160401b0381116103c657602061323f60e0923690600401614304565b91908260405193849283378101601181520301902060068101549060ff8083169260081c169060108101546011820154600583015491600760018060a01b03600186015416940154946040519661329581614460565b87526132a081614460565b602087015260408601526060850152608084015260a083015260c0820152f35b346103c65760003660031901126103c657602060ff600154166040519015158152f35b346103c65760003660031901126103c6576020600854604051908152f35b346103c65760203660031901126103c6576004356001600160401b0381116103c657613331903690600401614304565b9061333a614a05565b61335b60ff6040518484823760208186810160128152030190205416614a28565b604051828282376020818481016011815203019020600681019061339560ff83541661338681614460565b80159081156133ec5750614af5565b600581015462278d0081018091116103b0574211156133b75761099290614df9565b60405162461bcd60e51b815260206004820152600d60248201526c139bdd081858985b991bdb9959609a1b6044820152606490fd5b600191506133f981614460565b1486611897565b346103c65760203660031901126103c6576004356001600160401b0381116103c65760ff61343860206114b781943690600401614389565b8101601281520301902054166040519015158152f35b346103c65760003660031901126103c657613467614594565b60015460ff8116156134a65760ff19166001557f5db9ee0a495bf2e6ff9c91a7834c1ba4fdd244a5e8aa4e537bd38aeae4b073aa6020604051338152a1005b604051638dfc202b60e01b8152600490fd5b346103c65760206134cb6115e7366143df565b810160158152030190209060018060a01b0316600052602052602060ff604060002054166040519015158152f35b346103c6576020806003193601126103c6576135136142d8565b61351b614594565b6040516001600160a01b0391821683820181815284835290939161353e8161434d565b5190209081600052600f815261355a6040600020541515614878565b81600052600f815260406000205442106135ba57600f9060035492856001600160601b0360a01b8516176003556000525260006040812055167f4ab5be82436d353e61ca18726e984e561f5c1cc7c6d38b29d2553c790434705a600080a3005b6064906040519062461bcd60e51b82526004820152600f60248201526e54696d656c6f636b2061637469766560881b6044820152fd5b346103c6576020806003193601126103c6576004356001600160401b0381116103c657613621903690600401614304565b919061362b614a05565b61364b60ff60405185848237848187810160128152030190205416614a28565b60405183828237828185810160118152030190209260ff6006850154613678600483831661045381614460565b60081c1661368581614460565b6001811490818015613856575b1561381f576136a090614460565b156138155760128401545b6137e05760018401916136f960018060a01b03956136cd878654163314614d88565b604051848482378681868101601581520301902033600052865261296360ff6040600020541615614d37565b600454956005549461370b868961486b565b95613719600654809861486b565b606481018091116103b05761378261378c926137689261377b6137757f2f0b27a029bcea8b4cd6e1f002ba498bd37b903b56578a04f1576cd25c09de539c61376f8b6127109889968792614d75565b048c614ca0565b9f61486b565b89614d75565b0496614d75565b0493600b5461486b565b600b555416600052600c85526137a8604060002091825461486b565b905560405182828237848184810160158152030190203360005284526040600020600160ff1982541617905561055085601054614ca0565b60405162461bcd60e51b815260048101849052600d60248201526c15da5b9b995c9cc8195e1a5cdd609a1b6044820152606490fd5b60138401546136ab565b60405162461bcd60e51b815260048101869052600f60248201526e496e76616c6964206f7574636f6d6560881b6044820152606490fd5b5061386081614460565b60028114613692565b346103c65760003660031901126103c6576020604051610e108152f35b346103c65760403660031901126103c65761389f6142ee565b336001600160a01b038216036138bb57611694906004356147b6565b60405163334bd91960e11b8152600490fd5b614331565b346103c65760403660031901126103c6576116946004356138f16142ee565b9080600052600260205261390c6001604060002001546145da565b6146a1565b346103c65760403660031901126103c6576004356001600160401b0381116103c657613941903690600401614304565b9061394a6142ee565b90613953614a05565b3360009081527f6bc781d8c7f9885ebbb3cefbc18932c491038e2ae5c5b56447891e0bd98ea163602052604090205460ff168015613bda575b61399590614b92565b6139b660ff6040518584823760208187810160128152030190205416614a28565b604051838282376020818581016011815203019020926139e2600360ff60068701541661094b81614460565b6008848101546001600160a01b0395911c8516848616148015613bc9575b15613b93577f175b08e6ee8bbceb85780e790adca99ec4fbd3bb124ffbf50bd35ed4375a69ac93613a3a600a830154600d8401549061486b565b90868116600052600e6020526040600020613a5683825461486b565b905560088381018054610100600160a81b0319169183901b610100600160a81b0316919091179055613a8783614df9565b6008830154878160081c1688831614600014613b6c5750600883015460a81c60ff1615613b6257613abd60015b60068501614c0a565b6000600a8401556000600d8401557f38b360c485b4bed5c0c2e2ab639b104b4e002dbf7351d0d4431e48b6d9e2bfce6040600160ff600687015460081c16613b0481614460565b149881518789823780888101600081520390209382519586528a60208701521693a384156122c9576010015491816040519283928337810160008152039020926122bf60405192839283602090939291936040810194151581520152565b613abd6002613ab4565b60a81c60ff16613b8957613b84600160068501614c0a565b613abd565b613b846002613ab4565b60405162461bcd60e51b815260206004820152600e60248201526d24b73b30b634b2103bb4b73732b960911b6044820152606490fd5b5084600c8201541685851614613a00565b50336000908152600080516020614ee5833981519152602052604090205460ff1661398c565b346103c65760203660031901126103c65760043560005260026020526020600160406000200154604051908152f35b346103c65760003660031901126103c65760206040516202a3008152f35b346103c6576020806003193601126103c6576004356001600160401b0381116103c657613c7e903690600401614304565b9190613c88614a05565b613ca860ff60405185848237848187810160128152030190205416614a28565b6040518382823782818581016011815203019020926006840193613cd5600260ff875416610b3081614460565b600981015461a8c081018091116103b057421115613dfb577f175b08e6ee8bbceb85780e790adca99ec4fbd3bb124ffbf50bd35ed4375a69ac9394600160ff60088401926000838060a01b03855460081c169483600a8801918c600e8454918a875252613d476040862091825461486b565b9055613d5289614df9565b5460a81c168214613df157613d68855b84614c0a565b555460081c16613d7781614460565b14957fe2b1d963f1ec20d10d097a5196a0a9e7b5ff982020b428f20918fe52a2234edf6040518587823780868101600081520390209160405160008152a384156122c9576010015491816040519283928337810160008152039020926122bf60405192839283602090939291936040810194151581520152565b613d686002613d62565b60405162461bcd60e51b815260048101859052600d60248201526c57696e646f772061637469766560981b6044820152606490fd5b346103c65760203660031901126103c6576001600160a01b03613e516142d8565b1660005260096020526020604060002054604051908152f35b346103c65760403660031901126103c6576004356001600160401b0381116103c657613e9a903690600401614304565b9060243590613ea7614a05565b336000908152600080516020614ee58339815191526020908152604090912054613ed39060ff16614c29565b613ef360ff60405186858237838188810160128152030190205416614a28565b604051848382378181868101601181520301902093600685019360ff855416613f1b81614460565b600281149081156141b7575b501561416057600a86018054908161412e575b5050600d8601805490816140ff575b5050600886018054610100600160b01b0319169055600060098701819055600b87018054613f8090613f7a906144b4565b826148e8565b55600c86016001600160601b0360a01b81541690556000600e8701613fa8613f7a82546144b4565b556000600f87015580156140d657613fc0904261486b565b60058601555b8354604051865495919060ff8216906000613fe0896144b4565b600199808b169081156140b35750600114614075575b5091600080516020614ec58339815191526040837f941daf1091a52789b374bb6595f450f4eff8dd877298c2ff77db144c4713b3619a9b9c9694600598960390209281519061404481614460565b815260008a820152a260ff1916905501549381604051928392833781016000815203902092604051908152a2600055005b905089600052866000206000905b8282106140a25750508101600080516020614ec5833981519152613ff6565b805484830152908801908a01614083565b60ff19168452508015150282019050600080516020614ec5833981519152613ff6565b5060058501805442116140ea575b50613fc6565b620151804201908142116103b05755856140e4565b60009160018060a01b03600c8a0154168352600e86526141246040842091825461486b565b9055558680613f49565b60009160018060a01b0360088a015460081c168352600e86526141566040842091825461486b565b9055558680613f3a565b60405162461bcd60e51b815260048101849052602960248201527f43616e206f6e6c792072656f70656e2070726f706f7365642f6469737075746560448201526864206d61726b65747360b81b6064820152608490fd5b600391506141c481614460565b1487613f27565b346103c65760003660031901126103c6576020600554604051908152f35b346103c65760003660031901126103c6576040517f00000000000000000000000000000000000000000000000000000000000000006001600160a01b03168152602090f35b346103c65760003660031901126103c6576020601054604051908152f35b346103c65760203660031901126103c65760043563ffffffff60e01b81168091036103c657602090637965db0b60e01b8114908115614291575b506040519015158152f35b6301ffc9a760e01b14905082614286565b346103c65760203660031901126103c6576020906001600160a01b036142c66142d8565b16600052600e82526040600020548152f35b600435906001600160a01b03821682036103c657565b602435906001600160a01b03821682036103c657565b9181601f840112156103c6578235916001600160401b0383116103c657602083818601950101116103c657565b346103c65760003660031901126103c657602060405160648152f35b604081019081106001600160401b03821117610d9057604052565b90601f801991011681019081106001600160401b03821117610d9057604052565b81601f820112156103c6578035906001600160401b038211610d9057604051926143bd601f8401601f191660200185614368565b828452602083830101116103c657816000926020809301838601378301015290565b60406003198201126103c657600435906001600160401b0382116103c65761440991600401614389565b906024356001600160a01b03811681036103c65790565b60005b8381106144335750506000910152565b8181015183820152602001614423565b346103c65760003660031901126103c65760206040516127108152f35b6005111561446a57565b634e487b7160e01b600052602160045260246000fd5b9060209161449981518092818552858086019101614420565b601f01601f1916010190565b6024359081151582036103c657565b90600182811c921680156144e4575b60208310146144ce57565b634e487b7160e01b600052602260045260246000fd5b91607f16916144c3565b9060405191826000825492614502846144b4565b908184526001948581169081600014614571575060011461452e575b505061452c92500383614368565b565b9093915060005260209081600020936000915b81831061455957505061452c9350820101388061451e565b85548884018501529485019487945091830191614541565b91505061452c94506020925060ff191682840152151560051b820101388061451e565b336000908152600080516020614ee5833981519152602052604081205460ff16156145bc5750565b6044906040519063e2517d3f60e01b82523360048301526024820152fd5b80600052600260205260406000203360005260205260ff60406000205416156145bc5750565b6001600160a01b031660008181527f6bc781d8c7f9885ebbb3cefbc18932c491038e2ae5c5b56447891e0bd98ea1636020526040812054909190600080516020614f058339815191529060ff1661469c5780835260026020526040832082845260205260408320600160ff198254161790557f2f8788117e7eff1d82e926ec794901d17c78024a50270940304540a733656f0d339380a4600190565b505090565b906000918083526002602052604083209160018060a01b03169182845260205260ff6040842054161560001461469c5780835260026020526040832082845260205260408320600160ff198254161790557f2f8788117e7eff1d82e926ec794901d17c78024a50270940304540a733656f0d339380a4600190565b6001600160a01b031660008181527f6bc781d8c7f9885ebbb3cefbc18932c491038e2ae5c5b56447891e0bd98ea1636020526040812054909190600080516020614f058339815191529060ff161561469c578083526002602052604083208284526020526040832060ff1981541690557ff6391f5c32d9c69d2a47ea670b442974b53935d1edc7fd64eb21e047a839171b339380a4600190565b906000918083526002602052604083209160018060a01b03169182845260205260ff60408420541660001461469c578083526002602052604083208284526020526040832060ff1981541690557ff6391f5c32d9c69d2a47ea670b442974b53935d1edc7fd64eb21e047a839171b339380a4600190565b1561483457565b60405162461bcd60e51b815260206004820152600f60248201526e496e76616c6964206164647265737360881b6044820152606490fd5b919082018092116103b057565b1561487f57565b60405162461bcd60e51b815260206004820152600c60248201526b139bdd081c1c9bdc1bdcd95960a21b6044820152606490fd5b60ff600154166148bf57565b60405163d93c066560e01b8152600490fd5b8181106148dc575050565b600081556001016148d1565b90601f81116148f5575050565b61452c91600052601f6020600020910160051c8101906148d1565b9190601f811161491f57505050565b61452c926000526020600020906020601f840160051c8301931061494b575b601f0160051c01906148d1565b909150819061493e565b6040516323b872dd60e01b60208201526001600160a01b03928316602482015292909116604483015260648083019390935291815260a08101918183106001600160401b03841117610d905761452c926040525b906000602091828151910182855af1156126b5576000513d6149fc57506001600160a01b0381163b155b6149da5750565b604051635274afe760e01b81526001600160a01b039091166004820152602490fd5b600114156149d3565b600260005414614a16576002600055565b604051633ee5aeb560e01b8152600490fd5b15614a2f57565b60405162461bcd60e51b8152602060048201526009602482015268139bc81b585c9ad95d60ba1b6044820152606490fd5b15614a6757565b60405162461bcd60e51b815260206004820152601360248201527213585e0818995d1d1bdc9cc81c995858da1959606a1b6044820152606490fd5b60001981146103b05760010190565b15614ab857565b60405162461bcd60e51b815260206004820152601560248201527445766964656e63652055524c20746f6f206c6f6e6760581b6044820152606490fd5b15614afc57565b60405162461bcd60e51b815260206004820152600d60248201526c496e76616c696420737461746560981b6044820152606490fd5b15614b3857565b60405162461bcd60e51b8152602060048201526011602482015270125b9cdd59999a58da595b9d08189bdb99607a1b6044820152606490fd5b908060209392818452848401376000828201840152601f01601f1916010190565b15614b9957565b60405162461bcd60e51b815260206004820152600e60248201526d139bdd08185d5d1a1bdc9a5e995960921b6044820152606490fd5b15614bd657565b60405162461bcd60e51b815260206004820152600c60248201526b139bdd08191a5cdc1d5d195960a21b6044820152606490fd5b90614c1481614460565b61ff0082549160081b169061ff001916179055565b15614c3057565b60405162461bcd60e51b81526020600482015260096024820152682737ba1030b236b4b760b91b6044820152606490fd5b15614c6857565b60405162461bcd60e51b815260206004820152601060248201526f105b1c9958591e481c995cdbdb1d995960821b6044820152606490fd5b919082039182116103b057565b60405163a9059cbb60e01b60208201526001600160a01b03909216602483015260448083019390935291815260808101916001600160401b03831182841017610d905761452c926040526149a9565b15614d0357565b60405162461bcd60e51b815260206004820152600c60248201526b139bdd081c995cdbdb1d995960a21b6044820152606490fd5b15614d3e57565b60405162461bcd60e51b815260206004820152600f60248201526e105b1c9958591e4818db185a5b5959608a1b6044820152606490fd5b818102929181159184041417156103b057565b15614d8f57565b60405162461bcd60e51b815260206004820152600c60248201526b27b7363c9031b932b0ba37b960a11b6044820152606490fd5b15614dca57565b60405162461bcd60e51b81526020600482015260076024820152664e6f206665657360c81b6044820152606490fd5b600681019081549060ff821690604051906000908054614e18816144b4565b91600191808316908115614ea95750600114614e6c575b5050506040826004959493600080516020614ec58339815191529303902092815190614e5a81614460565b8152856020820152a260ff1916179055565b9091925060005260209081600020906000915b848310614e985750505090820190506040826004614e2f565b805486840152918301918101614e7f565b60ff1916865250505080151502820190506040826004614e2f56fea76c3b7423c609f9756b55905a211a402af319118a555928e75d689b642bdba5ac33ff75c19e70fe83507db0d683fd3465c996598dc972688b7ace676c89077b97667070c54ef182b0f5858b034beac1b6f3089aa2d3188bb1e8929f4fa9b929a26469706673582212200dc1fb53c4b41277dd327334883484ffe24236309586056420c392ba488945a364736f6c634300081400332f8788117e7eff1d82e926ec794901d17c78024a50270940304540a733656f0d",
  "linkReferences": {},
  "deployedLinkReferences": {}
}