{
  "_format": "hh-sol-artifact-1",
  "contractName": "PredictionBattleV8",
  "sourceName": "contracts/PredictionBattleV8.sol",
  "abi": [
    {
      "inputs": [
        {
          "internalType": "address",
          "name": "_admin",
          "type": "address"
        },
        {
          "internalType": "address",
          "name": "_operator",
          "type": "address"
        },
        {
          "internalType": "address",
          "name": "_treasury",
          "type": "address"
        }
      ],
      "stateMutability": "nonpayable",
      "type": "constructor"
    },
    {
      "inputs": [],
      "name": "AccessControlBadConfirmation",
      "type": "error"
    },
    {
      "inputs": [
        {
          "internalType": "address",
          "name": "account",
          "type": "address"
        },
        {
          "internalType": "bytes32",
          "name": "neededRole",
          "type": "bytes32"
        }
      ],
      "name": "AccessControlUnauthorizedAccount",
      "type": "error"
    },
    {
      "inputs": [],
      "name": "EnforcedPause",
      "type": "error"
    },
    {
      "inputs": [],
      "name": "ExpectedPause",
      "type": "error"
    },
    {
      "inputs": [],
      "name": "ReentrancyGuardReentrantCall",
      "type": "error"
    },
    {
      "inputs": [
        {
          "internalType": "address",
          "name": "token",
          "type": "address"
        }
      ],
      "name": "SafeERC20FailedOperation",
      "type": "error"
    },
    {
      "anonymous": false,
      "inputs": [
        {
          "indexed": true,
          "internalType": "string",
          "name": "id",
          "type": "string"
        },
        {
          "indexed": true,
          "internalType": "address",
          "name": "user",
          "type": "address"
        },
        {
          "indexed": false,
          "internalType": "bool",
          "name": "side",
          "type": "bool"
        },
        {
          "indexed": false,
          "internalType": "uint256",
          "name": "amount",
          "type": "uint256"
        },
        {
          "indexed": false,
          "internalType": "uint256",
          "name": "shares",
          "type": "uint256"
        },
        {
          "indexed": false,
          "internalType": "address",
          "name": "referrer",
          "type": "address"
        },
        {
          "indexed": false,
          "internalType": "uint256",
          "name": "weight",
          "type": "uint256"
        }
      ],
      "name": "BetPlaced",
      "type": "event"
    },
    {
      "anonymous": false,
      "inputs": [
        {
          "indexed": true,
          "internalType": "address",
          "name": "user",
          "type": "address"
        },
        {
          "indexed": false,
          "internalType": "uint256",
          "name": "amount",
          "type": "uint256"
        }
      ],
      "name": "BondWithdrawn",
      "type": "event"
    },
    {
      "anonymous": false,
      "inputs": [
        {
          "indexed": true,
          "internalType": "address",
          "name": "creator",
          "type": "address"
        },
        {
          "indexed": false,
          "internalType": "uint256",
          "name": "amount",
          "type": "uint256"
        }
      ],
      "name": "CreatorFeesWithdrawn",
      "type": "event"
    },
    {
      "anonymous": false,
      "inputs": [
        {
          "indexed": true,
          "internalType": "string",
          "name": "id",
          "type": "string"
        },
        {
          "indexed": true,
          "internalType": "address",
          "name": "winner",
          "type": "address"
        },
        {
          "indexed": false,
          "internalType": "uint256",
          "name": "totalBondReward",
          "type": "uint256"
        },
        {
          "indexed": false,
          "internalType": "bool",
          "name": "finalResult",
          "type": "bool"
        }
      ],
      "name": "DisputeResolved",
      "type": "event"
    },
    {
      "anonymous": false,
      "inputs": [
        {
          "indexed": true,
          "internalType": "address",
          "name": "treasury",
          "type": "address"
        },
        {
          "indexed": false,
          "internalType": "uint256",
          "name": "amount",
          "type": "uint256"
        }
      ],
      "name": "HouseFeeWithdrawn",
      "type": "event"
    },
    {
      "anonymous": false,
      "inputs": [
        {
          "indexed": true,
          "internalType": "string",
          "name": "id",
          "type": "string"
        },
        {
          "indexed": true,
          "internalType": "address",
          "name": "creator",
          "type": "address"
        },
        {
          "indexed": false,
          "internalType": "uint256",
          "name": "deadlineTime",
          "type": "uint256"
        },
        {
          "indexed": false,
          "internalType": "uint256",
          "name": "bonusDuration",
          "type": "uint256"
        }
      ],
      "name": "MarketCreated",
      "type": "event"
    },
    {
      "anonymous": false,
      "inputs": [
        {
          "indexed": true,
          "internalType": "string",
          "name": "id",
          "type": "string"
        },
        {
          "indexed": false,
          "internalType": "bool",
          "name": "result",
          "type": "bool"
        },
        {
          "indexed": false,
          "internalType": "uint256",
          "name": "winnerPool",
          "type": "uint256"
        }
      ],
      "name": "MarketResolved",
      "type": "event"
    },
    {
      "anonymous": false,
      "inputs": [
        {
          "indexed": true,
          "internalType": "string",
          "name": "marketId",
          "type": "string"
        },
        {
          "indexed": false,
          "internalType": "enum PredictionBattleV8.MarketState",
          "name": "oldState",
          "type": "uint8"
        },
        {
          "indexed": false,
          "internalType": "enum PredictionBattleV8.MarketState",
          "name": "newState",
          "type": "uint8"
        }
      ],
      "name": "MarketStateChanged",
      "type": "event"
    },
    {
      "anonymous": false,
      "inputs": [
        {
          "indexed": true,
          "internalType": "string",
          "name": "id",
          "type": "string"
        }
      ],
      "name": "MarketVoided",
      "type": "event"
    },
    {
      "anonymous": false,
      "inputs": [
        {
          "indexed": true,
          "internalType": "string",
          "name": "id",
          "type": "string"
        },
        {
          "indexed": true,
          "internalType": "address",
          "name": "challenger",
          "type": "address"
        },
        {
          "indexed": false,
          "internalType": "uint256",
          "name": "bond",
          "type": "uint256"
        },
        {
          "indexed": false,
          "internalType": "string",
          "name": "evidence",
          "type": "string"
        }
      ],
      "name": "OutcomeChallenged",
      "type": "event"
    },
    {
      "anonymous": false,
      "inputs": [
        {
          "indexed": true,
          "internalType": "string",
          "name": "id",
          "type": "string"
        },
        {
          "indexed": true,
          "internalType": "address",
          "name": "proposer",
          "type": "address"
        },
        {
          "indexed": false,
          "internalType": "uint256",
          "name": "reward",
          "type": "uint256"
        }
      ],
      "name": "OutcomeFinalized",
      "type": "event"
    },
    {
      "anonymous": false,
      "inputs": [
        {
          "indexed": true,
          "internalType": "string",
          "name": "id",
          "type": "string"
        },
        {
          "indexed": true,
          "internalType": "address",
          "name": "proposer",
          "type": "address"
        },
        {
          "indexed": false,
          "internalType": "bool",
          "name": "result",
          "type": "bool"
        },
        {
          "indexed": false,
          "internalType": "uint256",
          "name": "bond",
          "type": "uint256"
        },
        {
          "indexed": false,
          "internalType": "uint256",
          "name": "disputeEndTime",
          "type": "uint256"
        },
        {
          "indexed": false,
          "internalType": "string",
          "name": "evidence",
          "type": "string"
        }
      ],
      "name": "OutcomeProposed",
      "type": "event"
    },
    {
      "anonymous": false,
      "inputs": [
        {
          "indexed": false,
          "internalType": "address",
          "name": "account",
          "type": "address"
        }
      ],
      "name": "Paused",
      "type": "event"
    },
    {
      "anonymous": false,
      "inputs": [
        {
          "indexed": true,
          "internalType": "string",
          "name": "id",
          "type": "string"
        },
        {
          "indexed": true,
          "internalType": "address",
          "name": "user",
          "type": "address"
        },
        {
          "indexed": false,
          "internalType": "uint256",
          "name": "amount",
          "type": "uint256"
        }
      ],
      "name": "PayoutClaimed",
      "type": "event"
    },
    {
      "anonymous": false,
      "inputs": [
        {
          "indexed": true,
          "internalType": "address",
          "name": "referrer",
          "type": "address"
        },
        {
          "indexed": false,
          "internalType": "uint256",
          "name": "amount",
          "type": "uint256"
        }
      ],
      "name": "ReferrerFeesWithdrawn",
      "type": "event"
    },
    {
      "anonymous": false,
      "inputs": [
        {
          "indexed": true,
          "internalType": "string",
          "name": "marketId",
          "type": "string"
        },
        {
          "indexed": true,
          "internalType": "address",
          "name": "proposer",
          "type": "address"
        },
        {
          "indexed": false,
          "internalType": "uint256",
          "name": "reward",
          "type": "uint256"
        }
      ],
      "name": "ReporterRewardClaimed",
      "type": "event"
    },
    {
      "anonymous": false,
      "inputs": [
        {
          "indexed": true,
          "internalType": "bytes32",
          "name": "role",
          "type": "bytes32"
        },
        {
          "indexed": true,
          "internalType": "bytes32",
          "name": "previousAdminRole",
          "type": "bytes32"
        },
        {
          "indexed": true,
          "internalType": "bytes32",
          "name": "newAdminRole",
          "type": "bytes32"
        }
      ],
      "name": "RoleAdminChanged",
      "type": "event"
    },
    {
      "anonymous": false,
      "inputs": [
        {
          "indexed": true,
          "internalType": "bytes32",
          "name": "role",
          "type": "bytes32"
        },
        {
          "indexed": true,
          "internalType": "address",
          "name": "account",
          "type": "address"
        },
        {
          "indexed": true,
          "internalType": "address",
          "name": "sender",
          "type": "address"
        }
      ],
      "name": "RoleGranted",
      "type": "event"
    },
    {
      "anonymous": false,
      "inputs": [
        {
          "indexed": true,
          "internalType": "bytes32",
          "name": "role",
          "type": "bytes32"
        },
        {
          "indexed": true,
          "internalType": "address",
          "name": "account",
          "type": "address"
        },
        {
          "indexed": true,
          "internalType": "address",
          "name": "sender",
          "type": "address"
        }
      ],
      "name": "RoleRevoked",
      "type": "event"
    },
    {
      "anonymous": false,
      "inputs": [
        {
          "indexed": true,
          "internalType": "string",
          "name": "id",
          "type": "string"
        },
        {
          "indexed": true,
          "internalType": "address",
          "name": "creator",
          "type": "address"
        },
        {
          "indexed": false,
          "internalType": "uint256",
          "name": "amount",
          "type": "uint256"
        }
      ],
      "name": "SeedWithdrawn",
      "type": "event"
    },
    {
      "anonymous": false,
      "inputs": [
        {
          "indexed": true,
          "internalType": "address",
          "name": "newTreasury",
          "type": "address"
        },
        {
          "indexed": false,
          "internalType": "uint256",
          "name": "executeTime",
          "type": "uint256"
        }
      ],
      "name": "TreasuryChangeProposed",
      "type": "event"
    },
    {
      "anonymous": false,
      "inputs": [
        {
          "indexed": true,
          "internalType": "address",
          "name": "oldTreasury",
          "type": "address"
        },
        {
          "indexed": true,
          "internalType": "address",
          "name": "newTreasury",
          "type": "address"
        }
      ],
      "name": "TreasuryUpdated",
      "type": "event"
    },
    {
      "anonymous": false,
      "inputs": [
        {
          "indexed": false,
          "internalType": "address",
          "name": "account",
          "type": "address"
        }
      ],
      "name": "Unpaused",
      "type": "event"
    },
    {
      "inputs": [],
      "name": "DEFAULT_ADMIN_ROLE",
      "outputs": [
        {
          "internalType": "bytes32",
          "name": "",
          "type": "bytes32"
        }
      ],
      "stateMutability": "view",
      "type": "function"
    },
    {
      "inputs": [],
      "name": "DISPUTE_WINDOW",
      "outputs": [
        {
          "internalType": "uint256",
          "name": "",
          "type": "uint256"
        }
      ],
      "stateMutability": "view",
      "type": "function"
    },
    {
      "inputs": [],
      "name": "EMERGENCY_TIMEOUT",
      "outputs": [
        {
          "internalType": "uint256",
          "name": "",
          "type": "uint256"
        }
      ],
      "stateMutability": "view",
      "type": "function"
    },
    {
      "inputs": [],
      "name": "FEE_DENOMINATOR",
      "outputs": [
        {
          "internalType": "uint256",
          "name": "",
          "type": "uint256"
        }
      ],
      "stateMutability": "view",
      "type": "function"
    },
    {
      "inputs": [],
      "name": "MAX_BETTORS_PER_SIDE",
      "outputs": [
        {
          "internalType": "uint256",
          "name": "",
          "type": "uint256"
        }
      ],
      "stateMutability": "view",
      "type": "function"
    },
    {
      "inputs": [],
      "name": "MAX_WEIGHT",
      "outputs": [
        {
          "internalType": "uint256",
          "name": "",
          "type": "uint256"
        }
      ],
      "stateMutability": "view",
      "type": "function"
    },
    {
      "inputs": [],
      "name": "MIN_BET_AMOUNT",
      "outputs": [
        {
          "internalType": "uint256",
          "name": "",
          "type": "uint256"
        }
      ],
      "stateMutability": "view",
      "type": "function"
    },
    {
      "inputs": [],
      "name": "MIN_BOND",
      "outputs": [
        {
          "internalType": "uint256",
          "name": "",
          "type": "uint256"
        }
      ],
      "stateMutability": "view",
      "type": "function"
    },
    {
      "inputs": [],
      "name": "MIN_MARKET_INTERVAL",
      "outputs": [
        {
          "internalType": "uint256",
          "name": "",
          "type": "uint256"
        }
      ],
      "stateMutability": "view",
      "type": "function"
    },
    {
      "inputs": [],
      "name": "MIN_WEIGHT",
      "outputs": [
        {
          "internalType": "uint256",
          "name": "",
          "type": "uint256"
        }
      ],
      "stateMutability": "view",
      "type": "function"
    },
    {
      "inputs": [],
      "name": "OPERATOR_ROLE",
      "outputs": [
        {
          "internalType": "bytes32",
          "name": "",
          "type": "bytes32"
        }
      ],
      "stateMutability": "view",
      "type": "function"
    },
    {
      "inputs": [],
      "name": "REPORTER_REWARD_BPS",
      "outputs": [
        {
          "internalType": "uint256",
          "name": "",
          "type": "uint256"
        }
      ],
      "stateMutability": "view",
      "type": "function"
    },
    {
      "inputs": [],
      "name": "SHARE_PRECISION",
      "outputs": [
        {
          "internalType": "uint256",
          "name": "",
          "type": "uint256"
        }
      ],
      "stateMutability": "view",
      "type": "function"
    },
    {
      "inputs": [],
      "name": "TREASURY_TIMELOCK",
      "outputs": [
        {
          "internalType": "uint256",
          "name": "",
          "type": "uint256"
        }
      ],
      "stateMutability": "view",
      "type": "function"
    },
    {
      "inputs": [
        {
          "internalType": "string",
          "name": "_marketId",
          "type": "string"
        },
        {
          "internalType": "string",
          "name": "_evidenceUrl",
          "type": "string"
        },
        {
          "internalType": "uint256",
          "name": "_bondAmount",
          "type": "uint256"
        }
      ],
      "name": "challengeOutcome",
      "outputs": [],
      "stateMutability": "nonpayable",
      "type": "function"
    },
    {
      "inputs": [
        {
          "internalType": "string",
          "name": "_marketId",
          "type": "string"
        }
      ],
      "name": "claimReporterReward",
      "outputs": [],
      "stateMutability": "nonpayable",
      "type": "function"
    },
    {
      "inputs": [
        {
          "internalType": "string",
          "name": "_marketId",
          "type": "string"
        }
      ],
      "name": "claimWinnings",
      "outputs": [],
      "stateMutability": "nonpayable",
      "type": "function"
    },
    {
      "inputs": [
        {
          "internalType": "address",
          "name": "",
          "type": "address"
        }
      ],
      "name": "claimableBonds",
      "outputs": [
        {
          "internalType": "uint256",
          "name": "",
          "type": "uint256"
        }
      ],
      "stateMutability": "view",
      "type": "function"
    },
    {
      "inputs": [
        {
          "internalType": "string",
          "name": "_id",
          "type": "string"
        },
        {
          "internalType": "string",
          "name": "_question",
          "type": "string"
        },
        {
          "internalType": "uint256",
          "name": "_usdcSeedAmount",
          "type": "uint256"
        },
        {
          "internalType": "uint256",
          "name": "_durationSeconds",
          "type": "uint256"
        },
        {
          "internalType": "uint256",
          "name": "_bonusDurationSeconds",
          "type": "uint256"
        }
      ],
      "name": "createMarket",
      "outputs": [],
      "stateMutability": "nonpayable",
      "type": "function"
    },
    {
      "inputs": [
        {
          "internalType": "address",
          "name": "",
          "type": "address"
        }
      ],
      "name": "creatorBalance",
      "outputs": [
        {
          "internalType": "uint256",
          "name": "",
          "type": "uint256"
        }
      ],
      "stateMutability": "view",
      "type": "function"
    },
    {
      "inputs": [],
      "name": "creatorFeeBps",
      "outputs": [
        {
          "internalType": "uint256",
          "name": "",
          "type": "uint256"
        }
      ],
      "stateMutability": "view",
      "type": "function"
    },
    {
      "inputs": [],
      "name": "currentOperator",
      "outputs": [
        {
          "internalType": "address",
          "name": "",
          "type": "address"
        }
      ],
      "stateMutability": "view",
      "type": "function"
    },
    {
      "inputs": [
        {
          "internalType": "string",
          "name": "_marketId",
          "type": "string"
        }
      ],
      "name": "emergencyResolve",
      "outputs": [],
      "stateMutability": "nonpayable",
      "type": "function"
    },
    {
      "inputs": [
        {
          "internalType": "address",
          "name": "_newTreasury",
          "type": "address"
        }
      ],
      "name": "executeTreasuryChange",
      "outputs": [],
      "stateMutability": "nonpayable",
      "type": "function"
    },
    {
      "inputs": [
        {
          "internalType": "string",
          "name": "_marketId",
          "type": "string"
        }
      ],
      "name": "finalizeOutcome",
      "outputs": [],
      "stateMutability": "nonpayable",
      "type": "function"
    },
    {
      "inputs": [
        {
          "internalType": "string",
          "name": "_marketId",
          "type": "string"
        }
      ],
      "name": "getMarketDetails",
      "outputs": [
        {
          "internalType": "enum PredictionBattleV8.MarketState",
          "name": "state",
          "type": "uint8"
        },
        {
          "internalType": "bool",
          "name": "result",
          "type": "bool"
        },
        {
          "internalType": "uint256",
          "name": "totalYes",
          "type": "uint256"
        },
        {
          "internalType": "uint256",
          "name": "totalNo",
          "type": "uint256"
        },
        {
          "internalType": "uint256",
          "name": "deadlineTime",
          "type": "uint256"
        },
        {
          "internalType": "address",
          "name": "creator",
          "type": "address"
        },
        {
          "internalType": "bool",
          "name": "isVoid",
          "type": "bool"
        }
      ],
      "stateMutability": "view",
      "type": "function"
    },
    {
      "inputs": [
        {
          "internalType": "bytes32",
          "name": "role",
          "type": "bytes32"
        }
      ],
      "name": "getRoleAdmin",
      "outputs": [
        {
          "internalType": "bytes32",
          "name": "",
          "type": "bytes32"
        }
      ],
      "stateMutability": "view",
      "type": "function"
    },
    {
      "inputs": [
        {
          "internalType": "bytes32",
          "name": "role",
          "type": "bytes32"
        },
        {
          "internalType": "address",
          "name": "account",
          "type": "address"
        }
      ],
      "name": "grantRole",
      "outputs": [],
      "stateMutability": "nonpayable",
      "type": "function"
    },
    {
      "inputs": [
        {
          "internalType": "string",
          "name": "",
          "type": "string"
        },
        {
          "internalType": "address",
          "name": "",
          "type": "address"
        }
      ],
      "name": "hasClaimed",
      "outputs": [
        {
          "internalType": "bool",
          "name": "",
          "type": "bool"
        }
      ],
      "stateMutability": "view",
      "type": "function"
    },
    {
      "inputs": [
        {
          "internalType": "bytes32",
          "name": "role",
          "type": "bytes32"
        },
        {
          "internalType": "address",
          "name": "account",
          "type": "address"
        }
      ],
      "name": "hasRole",
      "outputs": [
        {
          "internalType": "bool",
          "name": "",
          "type": "bool"
        }
      ],
      "stateMutability": "view",
      "type": "function"
    },
    {
      "inputs": [],
      "name": "houseBalance",
      "outputs": [
        {
          "internalType": "uint256",
          "name": "",
          "type": "uint256"
        }
      ],
      "stateMutability": "view",
      "type": "function"
    },
    {
      "inputs": [],
      "name": "houseFeeBps",
      "outputs": [
        {
          "internalType": "uint256",
          "name": "",
          "type": "uint256"
        }
      ],
      "stateMutability": "view",
      "type": "function"
    },
    {
      "inputs": [
        {
          "internalType": "string",
          "name": "",
          "type": "string"
        }
      ],
      "name": "lastBetTime",
      "outputs": [
        {
          "internalType": "uint256",
          "name": "",
          "type": "uint256"
        }
      ],
      "stateMutability": "view",
      "type": "function"
    },
    {
      "inputs": [
        {
          "internalType": "address",
          "name": "",
          "type": "address"
        }
      ],
      "name": "lastMarketCreation",
      "outputs": [
        {
          "internalType": "uint256",
          "name": "",
          "type": "uint256"
        }
      ],
      "stateMutability": "view",
      "type": "function"
    },
    {
      "inputs": [
        {
          "internalType": "string",
          "name": "",
          "type": "string"
        }
      ],
      "name": "marketExists",
      "outputs": [
        {
          "internalType": "bool",
          "name": "",
          "type": "bool"
        }
      ],
      "stateMutability": "view",
      "type": "function"
    },
    {
      "inputs": [
        {
          "internalType": "string",
          "name": "",
          "type": "string"
        }
      ],
      "name": "markets",
      "outputs": [
        {
          "internalType": "string",
          "name": "id",
          "type": "string"
        },
        {
          "internalType": "address",
          "name": "creator",
          "type": "address"
        },
        {
          "internalType": "string",
          "name": "question",
          "type": "string"
        },
        {
          "internalType": "uint256",
          "name": "creationTime",
          "type": "uint256"
        },
        {
          "internalType": "uint256",
          "name": "bonusDuration",
          "type": "uint256"
        },
        {
          "internalType": "uint256",
          "name": "deadlineTime",
          "type": "uint256"
        },
        {
          "internalType": "enum PredictionBattleV8.MarketState",
          "name": "state",
          "type": "uint8"
        },
        {
          "internalType": "bool",
          "name": "result",
          "type": "bool"
        },
        {
          "internalType": "bool",
          "name": "isVoid",
          "type": "bool"
        },
        {
          "internalType": "address",
          "name": "proposer",
          "type": "address"
        },
        {
          "internalType": "bool",
          "name": "proposedResult",
          "type": "bool"
        },
        {
          "internalType": "uint256",
          "name": "proposalTime",
          "type": "uint256"
        },
        {
          "internalType": "uint256",
          "name": "bondAmount",
          "type": "uint256"
        },
        {
          "internalType": "string",
          "name": "evidenceUrl",
          "type": "string"
        },
        {
          "internalType": "address",
          "name": "challenger",
          "type": "address"
        },
        {
          "internalType": "uint256",
          "name": "challengeBondAmount",
          "type": "uint256"
        },
        {
          "internalType": "string",
          "name": "challengeEvidenceUrl",
          "type": "string"
        },
        {
          "internalType": "uint256",
          "name": "challengeTime",
          "type": "uint256"
        },
        {
          "internalType": "uint256",
          "name": "totalYes",
          "type": "uint256"
        },
        {
          "internalType": "uint256",
          "name": "totalNo",
          "type": "uint256"
        },
        {
          "internalType": "uint256",
          "name": "seedYes",
          "type": "uint256"
        },
        {
          "internalType": "uint256",
          "name": "seedNo",
          "type": "uint256"
        },
        {
          "internalType": "uint256",
          "name": "totalSharesYes",
          "type": "uint256"
        },
        {
          "internalType": "uint256",
          "name": "totalSharesNo",
          "type": "uint256"
        }
      ],
      "stateMutability": "view",
      "type": "function"
    },
    {
      "inputs": [],
      "name": "maxBetAmount",
      "outputs": [
        {
          "internalType": "uint256",
          "name": "",
          "type": "uint256"
        }
      ],
      "stateMutability": "view",
      "type": "function"
    },
    {
      "inputs": [],
      "name": "maxMarketPool",
      "outputs": [
        {
          "internalType": "uint256",
          "name": "",
          "type": "uint256"
        }
      ],
      "stateMutability": "view",
      "type": "function"
    },
    {
      "inputs": [
        {
          "internalType": "string",
          "name": "",
          "type": "string"
        },
        {
          "internalType": "address",
          "name": "",
          "type": "address"
        }
      ],
      "name": "noBets",
      "outputs": [
        {
          "internalType": "uint256",
          "name": "amount",
          "type": "uint256"
        },
        {
          "internalType": "uint256",
          "name": "shares",
          "type": "uint256"
        },
        {
          "internalType": "address",
          "name": "referrer",
          "type": "address"
        }
      ],
      "stateMutability": "view",
      "type": "function"
    },
    {
      "inputs": [],
      "name": "pause",
      "outputs": [],
      "stateMutability": "nonpayable",
      "type": "function"
    },
    {
      "inputs": [],
      "name": "paused",
      "outputs": [
        {
          "internalType": "bool",
          "name": "",
          "type": "bool"
        }
      ],
      "stateMutability": "view",
      "type": "function"
    },
    {
      "inputs": [
        {
          "internalType": "bytes32",
          "name": "",
          "type": "bytes32"
        }
      ],
      "name": "pendingTreasuryChange",
      "outputs": [
        {
          "internalType": "uint256",
          "name": "",
          "type": "uint256"
        }
      ],
      "stateMutability": "view",
      "type": "function"
    },
    {
      "inputs": [
        {
          "internalType": "string",
          "name": "_marketId",
          "type": "string"
        },
        {
          "internalType": "bool",
          "name": "_side",
          "type": "bool"
        },
        {
          "internalType": "uint256",
          "name": "_usdcAmount",
          "type": "uint256"
        },
        {
          "internalType": "uint256",
          "name": "_minSharesOut",
          "type": "uint256"
        },
        {
          "internalType": "address",
          "name": "_referrer",
          "type": "address"
        }
      ],
      "name": "placeBet",
      "outputs": [],
      "stateMutability": "nonpayable",
      "type": "function"
    },
    {
      "inputs": [
        {
          "internalType": "string",
          "name": "_marketId",
          "type": "string"
        },
        {
          "internalType": "bool",
          "name": "_result",
          "type": "bool"
        },
        {
          "internalType": "string",
          "name": "_evidenceUrl",
          "type": "string"
        },
        {
          "internalType": "uint256",
          "name": "_bondAmount",
          "type": "uint256"
        }
      ],
      "name": "proposeOutcome",
      "outputs": [],
      "stateMutability": "nonpayable",
      "type": "function"
    },
    {
      "inputs": [
        {
          "internalType": "address",
          "name": "_newTreasury",
          "type": "address"
        }
      ],
      "name": "proposeTreasuryChange",
      "outputs": [],
      "stateMutability": "nonpayable",
      "type": "function"
    },
    {
      "inputs": [],
      "name": "referrerFeeBps",
      "outputs": [
        {
          "internalType": "uint256",
          "name": "",
          "type": "uint256"
        }
      ],
      "stateMutability": "view",
      "type": "function"
    },
    {
      "inputs": [
        {
          "internalType": "bytes32",
          "name": "role",
          "type": "bytes32"
        },
        {
          "internalType": "address",
          "name": "callerConfirmation",
          "type": "address"
        }
      ],
      "name": "renounceRole",
      "outputs": [],
      "stateMutability": "nonpayable",
      "type": "function"
    },
    {
      "inputs": [
        {
          "internalType": "string",
          "name": "",
          "type": "string"
        }
      ],
      "name": "reporterRewardClaimed",
      "outputs": [
        {
          "internalType": "bool",
          "name": "",
          "type": "bool"
        }
      ],
      "stateMutability": "view",
      "type": "function"
    },
    {
      "inputs": [
        {
          "internalType": "string",
          "name": "_marketId",
          "type": "string"
        },
        {
          "internalType": "address",
          "name": "_winnerAddress",
          "type": "address"
        },
        {
          "internalType": "bool",
          "name": "_finalResult",
          "type": "bool"
        }
      ],
      "name": "resolveDispute",
      "outputs": [],
      "stateMutability": "nonpayable",
      "type": "function"
    },
    {
      "inputs": [
        {
          "internalType": "bytes32",
          "name": "role",
          "type": "bytes32"
        },
        {
          "internalType": "address",
          "name": "account",
          "type": "address"
        }
      ],
      "name": "revokeRole",
      "outputs": [],
      "stateMutability": "nonpayable",
      "type": "function"
    },
    {
      "inputs": [
        {
          "internalType": "address",
          "name": "",
          "type": "address"
        }
      ],
      "name": "rewardsBalance",
      "outputs": [
        {
          "internalType": "uint256",
          "name": "",
          "type": "uint256"
        }
      ],
      "stateMutability": "view",
      "type": "function"
    },
    {
      "inputs": [
        {
          "internalType": "string",
          "name": "",
          "type": "string"
        }
      ],
      "name": "seedWithdrawn",
      "outputs": [
        {
          "internalType": "bool",
          "name": "",
          "type": "bool"
        }
      ],
      "stateMutability": "view",
      "type": "function"
    },
    {
      "inputs": [
        {
          "internalType": "address",
          "name": "_newOperator",
          "type": "address"
        }
      ],
      "name": "setOperator",
      "outputs": [],
      "stateMutability": "nonpayable",
      "type": "function"
    },
    {
      "inputs": [
        {
          "internalType": "bytes4",
          "name": "interfaceId",
          "type": "bytes4"
        }
      ],
      "name": "supportsInterface",
      "outputs": [
        {
          "internalType": "bool",
          "name": "",
          "type": "bool"
        }
      ],
      "stateMutability": "view",
      "type": "function"
    },
    {
      "inputs": [],
      "name": "treasury",
      "outputs": [
        {
          "internalType": "address",
          "name": "",
          "type": "address"
        }
      ],
      "stateMutability": "view",
      "type": "function"
    },
    {
      "inputs": [],
      "name": "unpause",
      "outputs": [],
      "stateMutability": "nonpayable",
      "type": "function"
    },
    {
      "inputs": [],
      "name": "usdcToken",
      "outputs": [
        {
          "internalType": "contract IERC20",
          "name": "",
          "type": "address"
        }
      ],
      "stateMutability": "view",
      "type": "function"
    },
    {
      "inputs": [
        {
          "internalType": "string",
          "name": "_marketId",
          "type": "string"
        }
      ],
      "name": "voidAbandonedMarket",
      "outputs": [],
      "stateMutability": "nonpayable",
      "type": "function"
    },
    {
      "inputs": [
        {
          "internalType": "string",
          "name": "_marketId",
          "type": "string"
        }
      ],
      "name": "voidMarket",
      "outputs": [],
      "stateMutability": "nonpayable",
      "type": "function"
    },
    {
      "inputs": [],
      "name": "withdrawBond",
      "outputs": [],
      "stateMutability": "nonpayable",
      "type": "function"
    },
    {
      "inputs": [],
      "name": "withdrawCreatorFees",
      "outputs": [],
      "stateMutability": "nonpayable",
      "type": "function"
    },
    {
      "inputs": [],
      "name": "withdrawHouseFees",
      "outputs": [],
      "stateMutability": "nonpayable",
      "type": "function"
    },
    {
      "inputs": [],
      "name": "withdrawReferrerFees",
      "outputs": [],
      "stateMutability": "nonpayable",
      "type": "function"
    },
    {
      "inputs": [
        {
          "internalType": "string",
          "name": "_marketId",
          "type": "string"
        }
      ],
      "name": "withdrawSeed",
      "outputs": [],
      "stateMutability": "nonpayable",
      "type": "function"
    },
    {
      "inputs": [
        {
          "internalType": "string",
          "name": "",
          "type": "string"
        },
        {
          "internalType": "address",
          "name": "",
          "type": "address"
        }
      ],
      "name": "yesBets",
      "outputs": [
        {
          "internalType": "uint256",
          "name": "amount",
          "type": "uint256"
        },
        {
          "internalType": "uint256",
          "name": "shares",
          "type": "uint256"
        },
        {
          "internalType": "address",
          "name": "referrer",
          "type": "address"
        }
      ],
      "stateMutability": "view",
      "type": "function"
    }
  ],
  "bytecode": "0x608034620001a057601f6200456f38819003918201601f191683019291906001600160401b03841183851017620001a5578160609284926040968752833981010312620001a0576200005181620001bb565b6200006c836200006460208501620001bb565b9301620001bb565b60016000556103e86004556101f4600581905560065564174876e80060075564e8d4a51000600855916001600160a01b03828116156200016c57808216938415620001355716918215620000fe57600380546001600160a01b03199081169094179055620000e79190620000e090620001d0565b5062000251565b5060195416176019555161425a9081620002f58239f35b845162461bcd60e51b815260206004820152601060248201526f496e76616c696420547265617375727960801b6044820152606490fd5b855162461bcd60e51b815260206004820152601060248201526f24b73b30b634b21027b832b930ba37b960811b6044820152606490fd5b845162461bcd60e51b815260206004820152600d60248201526c24b73b30b634b21020b236b4b760991b6044820152606490fd5b600080fd5b634e487b7160e01b600052604160045260246000fd5b51906001600160a01b0382168203620001a057565b6001600160a01b031660008181527fac33ff75c19e70fe83507db0d683fd3465c996598dc972688b7ace676c89077b602052604081205490919060ff166200024d5781805260026020526040822081835260205260408220600160ff1982541617905533916000805160206200454f8339815191528180a4600190565b5090565b6001600160a01b031660008181527f6bc781d8c7f9885ebbb3cefbc18932c491038e2ae5c5b56447891e0bd98ea16360205260408120549091907f97667070c54ef182b0f5858b034beac1b6f3089aa2d3188bb1e8929f4fa9b9299060ff16620002ef5780835260026020526040832082845260205260408320600160ff198254161790556000805160206200454f833981519152339380a4600190565b50509056fe61016080604052600436101561001457600080fd5b60003560e01c9081626fb9ff146135fd5750806301ffc9a7146135a757806311eac8551461357857806317773ebb1461355a5780631caed77c146135205780632023115d1461334d578063214529ad1461332f578063218b53821461326e578063245fc026146132e1578063248a9ca3146132b25780632f2ff15d14613273578063327abb481461326e57806336568abe1461322757806337b150da1461320a5780633bc6f6061461310e5780633cff3549146130cd5780633f4ba83a146130635780633fed6ced1461301557806345d98ccb1461168e5780634a5bfc5b14612f1e57806359f5a41f14612f005780635c975abb14612edd5780635e578a5614612e305780635fc5e02014612e0d57806361d027b314612de45780636475e3d314612dc757806366eb9cec14612d1c57806367084eb314612cfe5780637f26407614612ce05780637f98a3f714612b335780638456cb5914612ada578063896bdac814612aa057806391d1485414612a53578063941c773414612a055780639a826eb7146129a25780639bd1d513146123d6578063a07c1633146123b8578063a217fddf1461239c578063b3ab15fb146122ef578063c227955a14611cc0578063c5479faf1461183f578063c8eaef191461171e578063cab11d5d14611700578063d031639b146116d4578063d547741f14611693578063d73792a91461168e578063dbeae54c14611616578063dfdc5f7714611596578063e0de0fee14611578578063e0ffbac51461154f578063e129d041146114f3578063e1cd04b414611473578063e1e90ab3146112ac578063e4a28a5214611290578063e6cd7ab614611256578063ee59d24014611238578063ef03c10e14610f8c578063efbda66114610d3d578063f585dc5714610d20578063f5b541a614610cf7578063f677b4d414610c78578063f69be50214610866578063fc9cd8d0146106b3578063fdbcf1251461039f5763fe1140a3146102ea57600080fd5b3461039a57602036600319011261039a57610303613633565b61030b6138dc565b6001600160a01b031661031f811515613b87565b604051602081019082825260208152610337816136a8565b5190206202a300420190814211610384577f2fdb8aa18e3708b0dfed4acb0de7452e85e7f833b1b055880cef38e8bee690b591602091600052600f825280604060002055604051908152a2005b634e487b7160e01b600052601160045260246000fd5b600080fd5b3461039a5760208060031936011261039a576004356001600160401b03811161039a576103d090369060040161365f565b6103db929192613d05565b6103fb60ff60405183868237848185810160118152030190205416613d28565b604051818482378281838101601081520301902060068101549060ff8216600581101561069d57600461042e9114613f63565b604051838682378481858101601481520301902033600052845261045a60ff6040600020541615613f9e565b60006040518487823785818681016012815203019020336000528552604060002091604051858882378681878101601381520301902033600052865260406000209360ff8160101c1660001461057557505050906104bb9154905490613bc5565b925b831561053d57907f2f0b27a029bcea8b4cd6e1f002ba498bd37b903b56578a04f1576cd25c09de539160405182828237848184810160148152030190203360005284526040600020600160ff1982541617905561051a8533613fdc565b816040519283928337810160008152039020916040519384523393a36001600055005b60405162461bcd60e51b815260048101849052601060248201526f4e6f7468696e6720746f20636c61696d60801b6044820152606490fd5b60ff906008989593989492941c1691826000146106955750915b8254151580610688575b6105a6575b5050506104bd565b90919295506105be600e820154600f83015490613bc5565b8015610656576064810290808204606403610384576127106105e1920490613d73565b911561064c5760120154915b82156106135761060a92916001610605920154613d60565b613c2b565b9284808061059e565b60405162461bcd60e51b81526004810186905260116024820152704e6f2077696e6e696e672073686172657360781b6044820152606490fd5b60130154916105ed565b60405162461bcd60e51b815260048101879052600a602482015269115b5c1d1e481c1bdbdb60b21b6044820152606490fd5b5060018301541515610599565b90509161058f565b634e487b7160e01b600052602160045260246000fd5b3461039a5760208060031936011261039a576004356001600160401b03811161039a576106e490369060040161365f565b916106ed613d05565b61070d60ff60405185858237838187810160118152030190205416613d28565b60405183838237818185810160108152030190206006810191825460ff8116600581101561069d5760036107419114613f28565b600d83015462278d0081018091116103845742111561082e57908291600861078394018054806107ff575b505050600b82018054806107d0575b505050614131565b6201000062ff0000198254161790558160405192839283378101600081520390207f1e9a51575531367c4323c60efe8c5b980af66cd0509c86d8f4e1a3d9c9001700600080a26001600055005b600e60009360018060a01b03600a870154168552526107f460408420918254613bc5565b90555585808061077b565b60009260018060a01b039060181c168352600e845261082360408420918254613bc5565b90555586808061076c565b60405162461bcd60e51b815260048101839052601060248201526f54696d65206c6f636b2061637469766560801b6044820152606490fd5b3461039a57606036600319011261039a576004356001600160401b03811161039a5761089690369060040161365f565b6024356001600160401b03811161039a576108b590369060040161365f565b916108be613c0d565b6108c6613d05565b6108e760ff6040518387823760208185810160118152030190205416613d28565b6108f5610100841115613e0a565b60405181858237602081838101601081520301902093600685015460ff8116600581101561069d5760026109299114613bd2565b600786015461a8c08101809111610384574211610c435761095260088701546044351015613e8a565b3360189190911c6001600160a01b031614610c06576109746044353033613c4b565b600685015460405160008754610989816137d7565b9060018116908115610bf15750600114610bbd575b509080600393920390207fa76c3b7423c609f9756b55905a211a402af319118a555928e75d689b642bdba5604080516109da8160ff87166137bb565b856020820152a260ff1916176006860155600a850180546001600160a01b03191633179055604435600b860155600c8501946001600160401b038511610ba757610a2486546137d7565b601f8111610b5f575b50600095601f8611600114610ad05790610abb939291867f4bd7c92eba598ee7ab038ac4a59ab8feb6d65703229128829d6cdd17959b121f969798600091610ac5575b508860011b906000198a60031b1c19161790555b600d429101558160405192839283378101600081520390209260405191829160443583526040602084015233966040840191613eca565b0390a36001600055005b905087013589610a70565b601f1986168160005260206000209060005b818110610b4757509087987f4bd7c92eba598ee7ab038ac4a59ab8feb6d65703229128829d6cdd17959b121f9798610abb979695949310610b2d575b5050600188811b019055610a84565b88013560001960038b901b60f8161c191690558880610b1e565b878a013583556020998a019960019093019201610ae2565b866000526020600020601f870160051c81019160208810610b9d575b601f0160051c01905b818110610b915750610a2d565b60008155600101610b84565b9091508190610b7b565b634e487b7160e01b600052604160045260246000fd5b90508760005260206000206000905b828210610bdd57505081018161099e565b600181602092548487015201910190610bcc565b60ff191684525080151502820190508161099e565b60405162461bcd60e51b815260206004820152601560248201527443616e6e6f742073656c662d6368616c6c656e676560581b6044820152606490fd5b60405162461bcd60e51b815260206004820152600d60248201526c15da5b991bddc818db1bdcd959609a1b6044820152606490fd5b3461039a57600036600319011261039a57610c916138dc565b610c99613d05565b600b54610ca781151561402b565b6000600b557f19f7a31ae4185f3274e252a5a78ec36ba85c01300bc8a800d41d79be74662a8e602060018060a01b03610ce4848260035416613fdc565b6003541692604051908152a26001600055005b3461039a57600036600319011261039a5760206040516000805160206142058339815191528152f35b3461039a57600036600319011261039a57602060405161a8c08152f35b3461039a57602036600319011261039a576004356001600160401b03811161039a57610d6d9036906004016136e4565b6040518181809351602081930191610d849261373a565b810160108152036020019020610d9981613811565b60018201546001600160a01b03166101405290610db860028201613811565b60e052600381015491600482015492600583015490600684015460078501549160088601549060098701610deb90613811565b91600160a01b60019003600a8901541694600b89015494600c8a01610e0f90613811565b97600d8b015460c052600e8b01549b600f8c01549a60108d01549c601181015461010052601281015461012052601301546080526040518060a05261030080915260a05101610e5d916138b7565b6101405160a0516020015260a051808203906040015260e05190610e80916138b7565b9560a0516060015260a0516080015260a05160a0015260a05160c00160ff821690610eaa916137bb565b8060081c60ff16151560a05160e001528060101c60ff16151560a0516101000152600160a01b600190038160181c1660a051610120015260b81c60ff16151560a051610140015260a051610160015260a051610180015260a051808203906101a00152610f16916138b7565b9160a0516101c0015260a0516101e0015260a051808203906102000152610f3c916138b7565b9260c05160a051610220015260a051610240015260a051610260015260a05161028001526101005160a0516102a001526101205160a0516102c0015260805160a0516102e0015260a05180910390f35b3461039a57606036600319011261039a576004356001600160401b03811161039a57610fbc90369060040161365f565b610fc4613649565b916044359182151580840361039a57610fdb613d05565b3360009081527f6bc781d8c7f9885ebbb3cefbc18932c491038e2ae5c5b56447891e0bd98ea163602090815260409091205490959060ff168015611219575b61102390613eeb565b61104360ff60405185878237888187810160118152030190205416613d28565b604051838582378681858101601081520301902091600683019182549260ff8416600581101561069d5760036110799114613f28565b6001600160a01b038281169460181c81168514908115611209575b50156111d35783899360008a9b817f38b360c485b4bed5c0c2e2ab639b104b4e002dbf7351d0d4431e48b6d9e2bfce966111657f175b08e6ee8bbceb85780e790adca99ec4fbd3bb124ffbf50bd35ed4375a69ac9e60409861114d8e6111486008820196600e88549a61110d600b86019c8d5490613bc5565b9e8b52528c6111208f8b20918254613bc5565b905584546301000000600160b81b03191660189190911b6301000000600160b81b0316178455565b614131565b9061ff00825491151560081b169061ff001916179055565b55558251888a82378089810160008152039020948351928352820152a384156111c957600e0154915b816040519283928337810160008152039020926111bf60405192839283602090939291936040810194151581520152565b0390a26001600055005b600f01549161118e565b60405162461bcd60e51b8152600481018a9052600e60248201526d24b73b30b634b2103bb4b73732b960911b6044820152606490fd5b9050600a8601541684148a611094565b506000808052600287526040808220338352885290205460ff1661101a565b3461039a57600036600319011261039a576020600454604051908152f35b3461039a57602036600319011261039a576001600160a01b03611277613633565b16600052600c6020526020604060002054604051908152f35b3461039a57600036600319011261039a57602060405160968152f35b3461039a5760208060031936011261039a576004356001600160401b03811161039a576112dd90369060040161365f565b6112e8929192613d05565b61130860ff60405183868237848185810160118152030190205416613d28565b6040518184823782818381016010815203019020600681015460ff811690600582101561069d5761133d600460ff9314613f63565b60101c16156114435760018101546001600160a01b0316330361140f5760ff604051838682378481858101601581520301902054166113d657906113ac82601160107f3ff50bb01a71ba44b43b95e691fe785159d1c403efd991b82f3b5f62a2d8148a95015491015490613bc5565b936040518282823784818481016015815203019020600160ff1982541617905561051a8533613fdc565b60405162461bcd60e51b815260048101849052601160248201527020b63932b0b23c903bb4ba34323930bbb760791b6044820152606490fd5b60405162461bcd60e51b815260048101849052600c60248201526b27b7363c9031b932b0ba37b960a11b6044820152606490fd5b60405162461bcd60e51b8152600481018490526008602482015267139bdd081d9bda5960c21b6044820152606490fd5b3461039a57600036600319011261039a5761148c613d05565b33600052600c6020526040600020546114a681151561402b565b33600052600c602052600060408120556114c08133613fdc565b6040519081527f7f0b212761a7abe7ec4d2adea5a7fa1fea58234aabf0c01c0e63403fe62013ff60203392a26001600055005b3461039a57602036600319011261039a576004356001600160401b03811161039a5761153c6020611529819336906004016136e4565b816040519382858094519384920161373a565b8101600a81520301902054604051908152f35b3461039a57600036600319011261039a576019546040516001600160a01b039091168152602090f35b3461039a57600036600319011261039a576020604051624c4b408152f35b3461039a57600036600319011261039a576115af613d05565b33600052600d6020526040600020546115c981151561402b565b33600052600d602052600060408120556115e38133613fdc565b6040519081527f3c4f6499c168416bb9b014d9d1e1d8132e5aaafd7bbcfc48d49ee1d5a2d90f5260203392a26001600055005b3461039a57602061163e6116293661375d565b9290816040519382858094519384920161373a565b6012908201908152030190206001600160a01b0391821660009081526020918252604090819020805460018201546002909201548351918252938101919091529190921691810191909152606090f35b61379e565b3461039a57604036600319011261039a576116d26004356116b2613649565b908060005260026020526116cd600160406000200154613934565b613b10565b005b3461039a57602036600319011261039a57600435600052600f6020526020604060002054604051908152f35b3461039a57600036600319011261039a576020600754604051908152f35b3461039a5760208060031936011261039a576004356001600160401b03811161039a5761174f90369060040161365f565b91611758613d05565b60008051602061420583398151915260005260028152604060002033600052815260ff604060002054168015611820575b61179290613eeb565b60405183838237818185810160108152030190206006810191825460ff8116600581101561069d576004146117e857908291600861078394018054806107ff57505050600b82018054806107d057505050614131565b60405162461bcd60e51b815260048101839052601060248201526f105b1c9958591e481c995cdbdb1d995960821b6044820152606490fd5b506000808052600282526040808220338352835290205460ff16611789565b3461039a57608036600319011261039a576004356001600160401b03811161039a5761186f90369060040161365f565b6118776137c8565b906044356001600160401b03811161039a5761189790369060040161365f565b9390926118a2613c0d565b6118aa613d05565b6118cb60ff6040518585823760208187810160118152030190205416613d28565b6118d9610100861115613e0a565b6040518383823760208185810160108152030190209060ff600683015416600581101561069d57806119149115908115611cb5575b50613e4e565b60018201546001600160a01b03163314611c63575b60405184848237602081868101600a815203019020546107088101809111610384574210611c12576064611966600e840154600f85015490613bc5565b04624c4b4090810180911161038457611983906064351015613e8a565b6119906064353033613c4b565b6006820154604051600084546119a5816137d7565b9060018116908115611bfd5750600114611bc9575b509181600292600995940390207fa76c3b7423c609f9756b55905a211a402af319118a555928e75d689b642bdba5604080516119f98160ff87166137bb565b856020820152a260ff60b81b92151560b881901b939093166301000000600160c01b031990921662ffff01600160c01b0319909116176301000000600160b81b033360181b1617176006840155426007840155606435600884015591016001600160401b038611610ba757611a6e81546137d7565b601f8111611b81575b50856000601f8211600114611b1b57600091611b10575b508660011b906000198860031b1c19161790555b61a8c04201918242116103845783610abb917f5247f2366f7e70fc0b5fc61f486408d977047c08d356ffb76c3d35832ceeaf26956040519283928337810160008152039020946040519384938452606435602085015260408401526080606084015233966080840191613eca565b905085013587611a8e565b60008381526020812092508890601f198216905b818110611b66575010611b4c575b5050600186811b019055611aa2565b860135600019600389901b60f8161c191690558680611b3d565b8984013585556001909401936020938401938b935001611b2f565b816000526020600020601f880160051c81019160208910611bbf575b601f0160051c01905b818110611bb35750611a77565b60008155600101611ba6565b9091508190611b9d565b90508460005260206000206000905b828210611be95750508101816119ba565b600181602092548487015201910190611bd8565b60ff19168452508015150282019050816119ba565b60405162461bcd60e51b8152602060048201526024808201527f436f6f6c2d646f776e3a20776169742033306d696e206166746572206c6173746044820152630818995d60e21b6064820152608490fd5b6003820154620151808101809111610384574210156119295760405162461bcd60e51b8152602060048201526011602482015270086e4cac2e8dee47440eec2d2e8406468d607b1b6044820152606490fd5b60019150148861190e565b3461039a5760a036600319011261039a576004356001600160401b03811161039a57611cf090369060040161365f565b611cf86137c8565b916084356001600160a01b038116810361039a57611d14613c0d565b611d1c613d05565b611d3d60ff6040518585823760208187810160118152030190205416613d28565b60405183838237602081858101601081520301902060ff600682015416600581101561069d576122bf5760058101544210156122905761c3506044351061225b5760075460443511612226576040518484823784810190600a825260208142930301902055611dc1600e820154611dbc60443591600f85015490613bc5565b613bc5565b600854106121eb576001600160a01b03821633146121b257813b61216d57611dec6044353033613c4b565b612710611dfd600454604435613d60565b0493612710611e10600554604435613d60565b0460006001600160a01b038516151580612153575b61210f575b611e46611e4f91611e4184611e418b604435613d73565b613d73565b96600b54613bc5565b600b5560018060a01b03600184015416600052600c602052611e776040600020918254613bc5565b9055611eaf611e8f6003840154600485015490613bc5565b421087156121045786600e8501545b89156120f957600f86015490614061565b9160643583106120bb57861561209257611ecd86600e830154613bc5565b600e82015560128101611ee1848254613bc5565b90555b861561206a5760405182868237602081848101601281520301902033600052602052600260406000205b611f19888254613bc5565b815560018101611f2a868254613bc5565b90550180546001600160a01b0319166001600160a01b038616179055861561204f57604051828682376020818481016017815203019020905b6127108254101561201457611f7c611f9a923390613d80565b50871561200957600f810154905b8815611fff57600e0154906140eb565b938160405192839283378101600081520390209360405195151586526020860152604085015260018060a01b0316606084015260808301527fa994696d1a657073ceaa15fbacd649938053ce8bee7de30ec1c28d337cc37b2360a03393a36001600055005b600f0154906140eb565b600e81015490611f8a565b60405162461bcd60e51b815260206004820152601360248201527213585e0818995d1d1bdc9cc81c995858da1959606a1b6044820152606490fd5b60405182868237602081848101601881520301902090611f63565b6040518286823760208184810160138152030190203360005260205260026040600020611f0e565b6120a086600f830154613bc5565b600f820155601381016120b4848254613bc5565b9055611ee4565b60405162461bcd60e51b815260206004820152601660248201527514db1a5c1c1859d94e8813d9191cc818da185b99d95960521b6044820152606490fd5b600e86015490614061565b86600f850154611e9e565b50611e4f611e46612710612127600654604435613d60565b0460018060a01b038716600052600d6020526040600020612149828254613bc5565b9055915050611e2a565b5060018401546001600160a01b0386811691161415611e25565b60405162461bcd60e51b815260206004820152601b60248201527f52656665727265722063616e6e6f7420626520636f6e747261637400000000006044820152606490fd5b60405162461bcd60e51b815260206004820152601160248201527021b0b73737ba1039b2b63316b932b332b960791b6044820152606490fd5b60405162461bcd60e51b8152602060048201526013602482015272141bdbdb081b1a5b5a5d08195e18d959591959606a1b6044820152606490fd5b60405162461bcd60e51b815260206004820152600d60248201526c42657420746f6f206c6172676560981b6044820152606490fd5b60405162461bcd60e51b815260206004820152600d60248201526c10995d081d1bdbc81cdb585b1b609a1b6044820152606490fd5b60405162461bcd60e51b8152602060048201526007602482015266115e1c1a5c995960ca1b6044820152606490fd5b60405162461bcd60e51b81526020600482015260086024820152672737ba1037b832b760c11b6044820152606490fd5b3461039a57602036600319011261039a57612308613633565b6123106138dc565b6001600160a01b038181169190612328831515613b87565b60195416908183146123645761234061234692613a76565b5061395a565b506bffffffffffffffffffffffff60a01b6019541617601955600080f35b60405162461bcd60e51b815260206004820152601060248201526f20b63932b0b23c9037b832b930ba37b960811b6044820152606490fd5b3461039a57600036600319011261039a57602060405160008152f35b3461039a57600036600319011261039a576020600654604051908152f35b3461039a5760a036600319011261039a576004356001600160401b03811161039a5761240690369060040161365f565b6024356001600160401b03811161039a5761242590369060040161365f565b612430929192613c0d565b612438613d05565b81151580612997575b1561295e57600a81101580612952575b1561290d5760ff60405183868237602081858101601181520301902054166128d857620f42406044351015806128cb575b15612890576008546044351161285a576064351561282257336000526009602052604060002054610e1081018091116103845742106127f057336000526009602052426040600020556124d86044353033613c4b565b604051828582376020818481016010815203019020926001600160401b038311610ba75761250684546137d7565b601f81116127aa575b50826000601f82116001146127455760009161273a575b508360011b906000198560031b1c19161784555b6001840180546001600160a01b031916331790556001600160401b038211610ba757819061256b60028601546137d7565b601f81116126e9575b50600090601f83116001146126785760009261266d575b50508160011b916000199060031b1c19161760028301555b42600383015560843591821561266557825b60048201556125c660643542613bc5565b9060058101918255600681019060ff1991828154169055601160443560011c9182600e82015582600f820155826010820155015560016040518487823760208186810160118152030190209182541617905554928160405192839283378101600081520390209060405192835260208301527fccdee9db8c345dd53026f5dedbf3e8b723ceddd2ad8eeb96b00ce37fddd58b6460403393a36001600055005b6064356125b5565b01359050858061258b565b909250600285016000526020600020906000935b601f19841685106126d1576001945083601f198116106126b7575b505050811b0160028301556125a3565b0135600019600384901b60f8161c191690558580806126a7565b8181013583556020948501946001909301920161268c565b909150600285016000526020600020601f840160051c810160208510612733575b90601f8594930160051c01905b8181106127245750612574565b60008155849350600101612717565b508061270a565b905085013586612526565b60008681526020812092505b601f1986168110612792575084601f19811610612778575b5050600183811b01845561253a565b860135600019600386901b60f8161c191690558580612769565b9091602060018192858b013581550193019101612751565b846000526020600020601f850160051c8101602086106127e9575b601f90920160051c01905b8181106127dd575061250f565b600081556001016127d0565b50806127c5565b60405162461bcd60e51b815260206004820152600a60248201526914985d19481b1a5b5a5d60b21b6044820152606490fd5b60405162461bcd60e51b815260206004820152601060248201526f24b73b30b634b210323ab930ba34b7b760811b6044820152606490fd5b60405162461bcd60e51b815260206004820152600e60248201526d5365656420746f6f206c6172676560901b6044820152606490fd5b60405162461bcd60e51b8152602060048201526013602482015272125b9d985b1a59081cd9595908185b5bdd5b9d606a1b6044820152606490fd5b5060016044351615612482565b60405162461bcd60e51b815260206004820152600d60248201526c4d61726b65742065786973747360981b6044820152606490fd5b60405162461bcd60e51b815260206004820152601760248201527f496e76616c6964207175657374696f6e206c656e6774680000000000000000006044820152606490fd5b506101f4811115612451565b60405162461bcd60e51b8152602060048201526011602482015270092dcecc2d8d2c840928840d8cadccee8d607b1b6044820152606490fd5b506040821115612441565b3461039a5760206129b56116293661375d565b6013908201908152030190206001600160a01b0391821660009081526020918252604090819020805460018201546002909201548351918252938101919091529190921691810191909152606090f35b3461039a57602036600319011261039a576004356001600160401b03811161039a5760ff612a3d6020611529819436906004016136e4565b8101601681520301902054166040519015158152f35b3461039a57604036600319011261039a57612a6c613649565b600435600052600260205260406000209060018060a01b0316600052602052602060ff604060002054166040519015158152f35b3461039a57602036600319011261039a576001600160a01b03612ac1613633565b16600052600d6020526020604060002054604051908152f35b3461039a57600036600319011261039a57612af36138dc565b612afb613c0d565b600160ff19815416176001557f62e78cea01bee320cd4e420270b5ea74000d11b0c9f74754ebdbfc544b05a2586020604051338152a1005b3461039a5760208060031936011261039a576004356001600160401b03811161039a57612b6490369060040161365f565b612b6f929192613d05565b612b8f60ff60405183868237848185810160118152030190205416613d28565b6040518184823782818381016010815203019020600681015460ff8116600581101561069d576004612bc19114613f63565b60ff8160101c16612cab5760181c6001600160a01b03163303612c7757612c1390612c0360ff6040518588823786818781016016815203019020541615613f9e565b600f600e82015491015490613bc5565b90606482029180830460641490151715610384576127107f8324cae916d4cce50ee31a76930f77226846d2070fb9ae521d41eac167bed93d9204936040518282823784818481016016815203019020600160ff1982541617905561051a8533613fdc565b60405162461bcd60e51b815260048101849052600c60248201526b2737ba10383937b837b9b2b960a11b6044820152606490fd5b60405162461bcd60e51b815260048101859052600d60248201526c13585c9ad95d081d9bda591959609a1b6044820152606490fd5b3461039a57600036600319011261039a57602060405162278d008152f35b3461039a57600036600319011261039a576020600b54604051908152f35b3461039a57600036600319011261039a57612d35613d05565b33600052600e6020526040600020548015612d975733600052600e60205260006040812055612d648133613fdc565b6040519081527f0d41118e36df44efb77a471fc49fb9c0be0406d802ef95520e9fbf606e65b45560203392a26001600055005b60405162461bcd60e51b81526020600482015260086024820152674e6f20626f6e647360c01b6044820152606490fd5b3461039a57600036600319011261039a57602060405161c3508152f35b3461039a57600036600319011261039a576003546040516001600160a01b039091168152602090f35b3461039a57600036600319011261039a576020604051670de0b6b3a76400008152f35b3461039a57602036600319011261039a576004356001600160401b03811161039a576020612e6460e092369060040161365f565b91908260405193849283378101601081520301902060ff6006820154600e83015492600f810154906005810154906001808060a01b03910154169160405195612eaf878787166137bb565b858560081c161515602088015260408701526060860152608085015260a084015260101c16151560c0820152f35b3461039a57600036600319011261039a57602060ff600154166040519015158152f35b3461039a57600036600319011261039a576020600854604051908152f35b3461039a57602036600319011261039a576004356001600160401b03811161039a57612f4e90369060040161365f565b90612f57613d05565b612f7860ff6040518484823760208186810160118152030190205416613d28565b604051828282376020818481016010815203019020600681019060ff825416600581101561069d5780612fb3911590811561300a5750613e4e565b600581015462278d00810180911161038457421115612fd55761078390614131565b60405162461bcd60e51b815260206004820152600d60248201526c139bdd081858985b991bdb9959609a1b6044820152606490fd5b60019150148661190e565b3461039a57602036600319011261039a576004356001600160401b03811161039a5760ff61304d6020611529819436906004016136e4565b8101601181520301902054166040519015158152f35b3461039a57600036600319011261039a5761307c6138dc565b60015460ff8116156130bb5760ff19166001557f5db9ee0a495bf2e6ff9c91a7834c1ba4fdd244a5e8aa4e537bd38aeae4b073aa6020604051338152a1005b604051638dfc202b60e01b8152600490fd5b3461039a5760206130e06116293661375d565b810160148152030190209060018060a01b0316600052602052602060ff604060002054166040519015158152f35b3461039a5760208060031936011261039a57613128613633565b6131306138dc565b6040516001600160a01b03918216838201818152848352909391613153816136a8565b5190209081600052600f815261316f6040600020541515613bd2565b81600052600f815260406000205442106131d457600f9060035492856bffffffffffffffffffffffff60a01b8516176003556000525260006040812055167f4ab5be82436d353e61ca18726e984e561f5c1cc7c6d38b29d2553c790434705a600080a3005b6064906040519062461bcd60e51b82526004820152600f60248201526e54696d656c6f636b2061637469766560881b6044820152fd5b3461039a57600036600319011261039a576020604051610e108152f35b3461039a57604036600319011261039a57613240613649565b336001600160a01b0382160361325c576116d290600435613b10565b60405163334bd91960e11b8152600490fd5b61368c565b3461039a57604036600319011261039a576116d2600435613292613649565b908060005260026020526132ad600160406000200154613934565b6139fb565b3461039a57602036600319011261039a5760043560005260026020526020600160406000200154604051908152f35b3461039a57602036600319011261039a576004356001600160401b03811161039a5760ff6133196020611529819436906004016136e4565b8101601581520301902054166040519015158152f35b3461039a57600036600319011261039a5760206040516202a3008152f35b3461039a5760208060031936011261039a576004356001600160401b03811161039a5761337e90369060040161365f565b90613387613d05565b6133a760ff60405184848237858186810160118152030190205416613d28565b60405182828237838184810160108152030190209160068301805460ff8116600581101561069d5760026133db9114613bd2565b600785015461a8c08101809111610384574211156134eb57907f175b08e6ee8bbceb85780e790adca99ec4fbd3bb124ffbf50bd35ed4375a69ac949560ff9260018060a01b039060181c16906000600889018054848352600e845261344560408420918254613bc5565b90556134508a614131565b845461ff0019811660b89190911c8716151560081b61ff0016178555557fe2b1d963f1ec20d10d097a5196a0a9e7b5ff982020b428f20918fe52a2234edf6040518688823780878101600081520390209160405160008152a35460081c169384156111c957600e015491816040519283928337810160008152039020926111bf60405192839283602090939291936040810194151581520152565b60405162461bcd60e51b815260048101879052600d60248201526c57696e646f772061637469766560981b6044820152606490fd5b3461039a57602036600319011261039a576001600160a01b03613541613633565b1660005260096020526020604060002054604051908152f35b3461039a57600036600319011261039a576020600554604051908152f35b3461039a57600036600319011261039a57602060405173036cbd53842c5426634e7929541ec2318f3dcf7e8152f35b3461039a57602036600319011261039a5760043563ffffffff60e01b811680910361039a57602090637965db0b60e01b81149081156135ec575b506040519015158152f35b6301ffc9a760e01b149050826135e1565b3461039a57602036600319011261039a576020906001600160a01b03613621613633565b16600052600e82526040600020548152f35b600435906001600160a01b038216820361039a57565b602435906001600160a01b038216820361039a57565b9181601f8401121561039a578235916001600160401b03831161039a576020838186019501011161039a57565b3461039a57600036600319011261039a57602060405160648152f35b604081019081106001600160401b03821117610ba757604052565b90601f801991011681019081106001600160401b03821117610ba757604052565b81601f8201121561039a578035906001600160401b038211610ba75760405192613718601f8401601f1916602001856136c3565b8284526020838301011161039a57816000926020809301838601378301015290565b60005b83811061374d5750506000910152565b818101518382015260200161373d565b604060031982011261039a57600435906001600160401b03821161039a57613787916004016136e4565b906024356001600160a01b038116810361039a5790565b3461039a57600036600319011261039a5760206040516127108152f35b90600582101561069d5752565b60243590811515820361039a57565b90600182811c92168015613807575b60208310146137f157565b634e487b7160e01b600052602260045260246000fd5b91607f16916137e6565b9060405191826000825492613825846137d7565b9081845260019485811690816000146138945750600114613851575b505061384f925003836136c3565b565b9093915060005260209081600020936000915b81831061387c57505061384f93508201013880613841565b85548884018501529485019487945091830191613864565b91505061384f94506020925060ff191682840152151560051b8201013880613841565b906020916138d08151809281855285808601910161373a565b601f01601f1916010190565b3360009081527fac33ff75c19e70fe83507db0d683fd3465c996598dc972688b7ace676c89077b602052604081205460ff16156139165750565b6044906040519063e2517d3f60e01b82523360048301526024820152fd5b80600052600260205260406000203360005260205260ff60406000205416156139165750565b6001600160a01b031660008181527f6bc781d8c7f9885ebbb3cefbc18932c491038e2ae5c5b56447891e0bd98ea16360205260408120549091906000805160206142058339815191529060ff166139f65780835260026020526040832082845260205260408320600160ff198254161790557f2f8788117e7eff1d82e926ec794901d17c78024a50270940304540a733656f0d339380a4600190565b505090565b906000918083526002602052604083209160018060a01b03169182845260205260ff604084205416156000146139f65780835260026020526040832082845260205260408320600160ff198254161790557f2f8788117e7eff1d82e926ec794901d17c78024a50270940304540a733656f0d339380a4600190565b6001600160a01b031660008181527f6bc781d8c7f9885ebbb3cefbc18932c491038e2ae5c5b56447891e0bd98ea16360205260408120549091906000805160206142058339815191529060ff16156139f6578083526002602052604083208284526020526040832060ff1981541690557ff6391f5c32d9c69d2a47ea670b442974b53935d1edc7fd64eb21e047a839171b339380a4600190565b906000918083526002602052604083209160018060a01b03169182845260205260ff6040842054166000146139f6578083526002602052604083208284526020526040832060ff1981541690557ff6391f5c32d9c69d2a47ea670b442974b53935d1edc7fd64eb21e047a839171b339380a4600190565b15613b8e57565b60405162461bcd60e51b815260206004820152600f60248201526e496e76616c6964206164647265737360881b6044820152606490fd5b9190820180921161038457565b15613bd957565b60405162461bcd60e51b815260206004820152600c60248201526b139bdd081c1c9bdc1bdcd95960a21b6044820152606490fd5b60ff60015416613c1957565b60405163d93c066560e01b8152600490fd5b8115613c35570490565b634e487b7160e01b600052601260045260246000fd5b6040516323b872dd60e01b60208201526001600160a01b0391821660248201529116604482015260648082019290925290815260a08101906001600160401b03821181831017610ba75761384f916040525b6020600082518273036cbd53842c5426634e7929541ec2318f3dcf7e940182855af115613cf9576000513d613cf05750803b155b613cd85750565b60249060405190635274afe760e01b82526004820152fd5b60011415613cd1565b6040513d6000823e3d90fd5b600260005414613d16576002600055565b604051633ee5aeb560e01b8152600490fd5b15613d2f57565b60405162461bcd60e51b8152602060048201526009602482015268139bc81b585c9ad95d60ba1b6044820152606490fd5b8181029291811591840414171561038457565b9190820391821161038457565b91906001830160009082825280602052604082205415600014613e045784549468010000000000000000861015613df05760018601808255861015613ddc57836040949596828552602085200155549382526020522055600190565b634e487b7160e01b83526032600452602483fd5b634e487b7160e01b83526041600452602483fd5b50925050565b15613e1157565b60405162461bcd60e51b815260206004820152601560248201527445766964656e63652055524c20746f6f206c6f6e6760581b6044820152606490fd5b15613e5557565b60405162461bcd60e51b815260206004820152600d60248201526c496e76616c696420737461746560981b6044820152606490fd5b15613e9157565b60405162461bcd60e51b8152602060048201526011602482015270125b9cdd59999a58da595b9d08189bdb99607a1b6044820152606490fd5b908060209392818452848401376000828201840152601f01601f1916010190565b15613ef257565b60405162461bcd60e51b815260206004820152600e60248201526d139bdd08185d5d1a1bdc9a5e995960921b6044820152606490fd5b15613f2f57565b60405162461bcd60e51b815260206004820152600c60248201526b139bdd08191a5cdc1d5d195960a21b6044820152606490fd5b15613f6a57565b60405162461bcd60e51b815260206004820152600c60248201526b139bdd081c995cdbdb1d995960a21b6044820152606490fd5b15613fa557565b60405162461bcd60e51b815260206004820152600f60248201526e105b1c9958591e4818db185a5b5959608a1b6044820152606490fd5b60405163a9059cbb60e01b60208201526001600160a01b03909116602482015260448082019290925290815260808101906001600160401b03821181831017610ba75761384f91604052613c9d565b1561403257565b60405162461bcd60e51b81526020600482015260076024820152664e6f206665657360c81b6044820152606490fd5b919282156140cb57156140c05761407b6096915b83613bc5565b91670de0b6b3a7640000928381029381850414901517156103845768056bc75e2d63100000936140b16140b7926140bc95613c2b565b90613d60565b613d60565b0490565b61407b606491614075565b505050670de0b6b3a7640000908181029181830414901517156103845790565b801590818015614129575b61412157606481029181830460641417156103845761411e9261411891613bc5565b90613c2b565b90565b505050603290565b5082156140f6565b906006820180546040516000948054614149816137d7565b916001918083169081156141ea57506001146141ae575b5050508060049394950390207fa76c3b7423c609f9756b55905a211a402af319118a555928e75d689b642bdba56040805161419e8160ff87166137bb565b856020820152a260ff1916179055565b9091965060005260209081600020906000915b8883106141d957505050948101945080600438614160565b8054858401529183019181016141c1565b60ff1916855250505080151502810194508060043861416056fe97667070c54ef182b0f5858b034beac1b6f3089aa2d3188bb1e8929f4fa9b929a2646970667358221220d436eb369c5e144fc282a33409c3606b0738075e516e54703d5bc0fbaf4bfb3564736f6c634300081400332f8788117e7eff1d82e926ec794901d17c78024a50270940304540a733656f0d",
  "linkReferences": {},
  "deployedLinkReferences": {}
}