{
  "_format": "hh-sol-artifact-1",
  "contractName": "PredictionBattleV7_SECURE",
  "sourceName": "contracts/PredictionBattleV7_SECURE.sol",
  "abi": [
    {
      "inputs": [
        {
          "internalType": "address",
          "name": "_usdcAddress",
          "type": "address"
        },
        {
          "internalType": "address",
          "name": "_initialAdmin",
          "type": "address"
        },
        {
          "internalType": "address",
          "name": "_treasury",
          "type": "address"
        }
      ],
      "stateMutability": "nonpayable",
      "type": "constructor"
    },
    {
      "inputs": [],
      "name": "EnforcedPause",
      "type": "error"
    },
    {
      "inputs": [],
      "name": "ExpectedPause",
      "type": "error"
    },
    {
      "inputs": [
        {
          "internalType": "address",
          "name": "owner",
          "type": "address"
        }
      ],
      "name": "OwnableInvalidOwner",
      "type": "error"
    },
    {
      "inputs": [
        {
          "internalType": "address",
          "name": "account",
          "type": "address"
        }
      ],
      "name": "OwnableUnauthorizedAccount",
      "type": "error"
    },
    {
      "inputs": [],
      "name": "ReentrancyGuardReentrantCall",
      "type": "error"
    },
    {
      "inputs": [
        {
          "internalType": "address",
          "name": "token",
          "type": "address"
        }
      ],
      "name": "SafeERC20FailedOperation",
      "type": "error"
    },
    {
      "anonymous": false,
      "inputs": [
        {
          "indexed": true,
          "internalType": "string",
          "name": "id",
          "type": "string"
        },
        {
          "indexed": true,
          "internalType": "address",
          "name": "user",
          "type": "address"
        },
        {
          "indexed": false,
          "internalType": "bool",
          "name": "side",
          "type": "bool"
        },
        {
          "indexed": false,
          "internalType": "uint256",
          "name": "amount",
          "type": "uint256"
        },
        {
          "indexed": false,
          "internalType": "uint256",
          "name": "shares",
          "type": "uint256"
        },
        {
          "indexed": false,
          "internalType": "address",
          "name": "referrer",
          "type": "address"
        },
        {
          "indexed": false,
          "internalType": "uint256",
          "name": "weight",
          "type": "uint256"
        }
      ],
      "name": "BetPlaced",
      "type": "event"
    },
    {
      "anonymous": false,
      "inputs": [
        {
          "indexed": true,
          "internalType": "address",
          "name": "user",
          "type": "address"
        },
        {
          "indexed": false,
          "internalType": "uint256",
          "name": "amount",
          "type": "uint256"
        }
      ],
      "name": "BondWithdrawn",
      "type": "event"
    },
    {
      "anonymous": false,
      "inputs": [
        {
          "indexed": true,
          "internalType": "string",
          "name": "id",
          "type": "string"
        },
        {
          "indexed": true,
          "internalType": "address",
          "name": "winner",
          "type": "address"
        },
        {
          "indexed": false,
          "internalType": "uint256",
          "name": "totalBondReward",
          "type": "uint256"
        },
        {
          "indexed": false,
          "internalType": "bool",
          "name": "finalResult",
          "type": "bool"
        }
      ],
      "name": "DisputeResolved",
      "type": "event"
    },
    {
      "anonymous": false,
      "inputs": [
        {
          "indexed": true,
          "internalType": "address",
          "name": "treasury",
          "type": "address"
        },
        {
          "indexed": false,
          "internalType": "uint256",
          "name": "amount",
          "type": "uint256"
        }
      ],
      "name": "HouseFeeWithdrawn",
      "type": "event"
    },
    {
      "anonymous": false,
      "inputs": [
        {
          "indexed": true,
          "internalType": "string",
          "name": "id",
          "type": "string"
        },
        {
          "indexed": true,
          "internalType": "address",
          "name": "creator",
          "type": "address"
        },
        {
          "indexed": false,
          "internalType": "uint256",
          "name": "deadlineBlock",
          "type": "uint256"
        },
        {
          "indexed": false,
          "internalType": "uint256",
          "name": "bonusDuration",
          "type": "uint256"
        }
      ],
      "name": "MarketCreated",
      "type": "event"
    },
    {
      "anonymous": false,
      "inputs": [
        {
          "indexed": true,
          "internalType": "string",
          "name": "id",
          "type": "string"
        },
        {
          "indexed": false,
          "internalType": "bool",
          "name": "result",
          "type": "bool"
        },
        {
          "indexed": false,
          "internalType": "uint256",
          "name": "winnerPool",
          "type": "uint256"
        }
      ],
      "name": "MarketResolved",
      "type": "event"
    },
    {
      "anonymous": false,
      "inputs": [
        {
          "indexed": true,
          "internalType": "string",
          "name": "marketId",
          "type": "string"
        },
        {
          "indexed": false,
          "internalType": "enum PredictionBattleV7_SECURE.MarketState",
          "name": "oldState",
          "type": "uint8"
        },
        {
          "indexed": false,
          "internalType": "enum PredictionBattleV7_SECURE.MarketState",
          "name": "newState",
          "type": "uint8"
        }
      ],
      "name": "MarketStateChanged",
      "type": "event"
    },
    {
      "anonymous": false,
      "inputs": [
        {
          "indexed": true,
          "internalType": "string",
          "name": "id",
          "type": "string"
        }
      ],
      "name": "MarketVoided",
      "type": "event"
    },
    {
      "anonymous": false,
      "inputs": [
        {
          "indexed": true,
          "internalType": "string",
          "name": "id",
          "type": "string"
        },
        {
          "indexed": true,
          "internalType": "address",
          "name": "challenger",
          "type": "address"
        },
        {
          "indexed": false,
          "internalType": "uint256",
          "name": "bond",
          "type": "uint256"
        },
        {
          "indexed": false,
          "internalType": "string",
          "name": "evidence",
          "type": "string"
        }
      ],
      "name": "OutcomeChallenged",
      "type": "event"
    },
    {
      "anonymous": false,
      "inputs": [
        {
          "indexed": true,
          "internalType": "string",
          "name": "id",
          "type": "string"
        },
        {
          "indexed": true,
          "internalType": "address",
          "name": "proposer",
          "type": "address"
        },
        {
          "indexed": false,
          "internalType": "uint256",
          "name": "reward",
          "type": "uint256"
        }
      ],
      "name": "OutcomeFinalized",
      "type": "event"
    },
    {
      "anonymous": false,
      "inputs": [
        {
          "indexed": true,
          "internalType": "string",
          "name": "id",
          "type": "string"
        },
        {
          "indexed": true,
          "internalType": "address",
          "name": "proposer",
          "type": "address"
        },
        {
          "indexed": false,
          "internalType": "bool",
          "name": "result",
          "type": "bool"
        },
        {
          "indexed": false,
          "internalType": "uint256",
          "name": "bond",
          "type": "uint256"
        },
        {
          "indexed": false,
          "internalType": "uint256",
          "name": "disputeEndBlock",
          "type": "uint256"
        },
        {
          "indexed": false,
          "internalType": "string",
          "name": "evidence",
          "type": "string"
        }
      ],
      "name": "OutcomeProposed",
      "type": "event"
    },
    {
      "anonymous": false,
      "inputs": [
        {
          "indexed": true,
          "internalType": "address",
          "name": "previousOwner",
          "type": "address"
        },
        {
          "indexed": true,
          "internalType": "address",
          "name": "newOwner",
          "type": "address"
        }
      ],
      "name": "OwnershipTransferStarted",
      "type": "event"
    },
    {
      "anonymous": false,
      "inputs": [
        {
          "indexed": true,
          "internalType": "address",
          "name": "previousOwner",
          "type": "address"
        },
        {
          "indexed": true,
          "internalType": "address",
          "name": "newOwner",
          "type": "address"
        }
      ],
      "name": "OwnershipTransferred",
      "type": "event"
    },
    {
      "anonymous": false,
      "inputs": [
        {
          "indexed": false,
          "internalType": "address",
          "name": "account",
          "type": "address"
        }
      ],
      "name": "Paused",
      "type": "event"
    },
    {
      "anonymous": false,
      "inputs": [
        {
          "indexed": true,
          "internalType": "string",
          "name": "id",
          "type": "string"
        },
        {
          "indexed": true,
          "internalType": "address",
          "name": "user",
          "type": "address"
        },
        {
          "indexed": false,
          "internalType": "uint256",
          "name": "amount",
          "type": "uint256"
        }
      ],
      "name": "PayoutClaimed",
      "type": "event"
    },
    {
      "anonymous": false,
      "inputs": [
        {
          "indexed": true,
          "internalType": "string",
          "name": "id",
          "type": "string"
        },
        {
          "indexed": true,
          "internalType": "address",
          "name": "creator",
          "type": "address"
        },
        {
          "indexed": false,
          "internalType": "uint256",
          "name": "amount",
          "type": "uint256"
        }
      ],
      "name": "SeedWithdrawn",
      "type": "event"
    },
    {
      "anonymous": false,
      "inputs": [
        {
          "indexed": true,
          "internalType": "address",
          "name": "newTreasury",
          "type": "address"
        },
        {
          "indexed": false,
          "internalType": "uint256",
          "name": "executeTime",
          "type": "uint256"
        }
      ],
      "name": "TreasuryChangeProposed",
      "type": "event"
    },
    {
      "anonymous": false,
      "inputs": [
        {
          "indexed": true,
          "internalType": "address",
          "name": "oldTreasury",
          "type": "address"
        },
        {
          "indexed": true,
          "internalType": "address",
          "name": "newTreasury",
          "type": "address"
        }
      ],
      "name": "TreasuryUpdated",
      "type": "event"
    },
    {
      "anonymous": false,
      "inputs": [
        {
          "indexed": false,
          "internalType": "address",
          "name": "account",
          "type": "address"
        }
      ],
      "name": "Unpaused",
      "type": "event"
    },
    {
      "inputs": [],
      "name": "DISPUTE_BLOCKS",
      "outputs": [
        {
          "internalType": "uint256",
          "name": "",
          "type": "uint256"
        }
      ],
      "stateMutability": "view",
      "type": "function"
    },
    {
      "inputs": [],
      "name": "FEE_DENOMINATOR",
      "outputs": [
        {
          "internalType": "uint256",
          "name": "",
          "type": "uint256"
        }
      ],
      "stateMutability": "view",
      "type": "function"
    },
    {
      "inputs": [],
      "name": "MAX_BETTORS_PER_SIDE",
      "outputs": [
        {
          "internalType": "uint256",
          "name": "",
          "type": "uint256"
        }
      ],
      "stateMutability": "view",
      "type": "function"
    },
    {
      "inputs": [],
      "name": "MAX_WEIGHT",
      "outputs": [
        {
          "internalType": "uint256",
          "name": "",
          "type": "uint256"
        }
      ],
      "stateMutability": "view",
      "type": "function"
    },
    {
      "inputs": [],
      "name": "MIN_BOND",
      "outputs": [
        {
          "internalType": "uint256",
          "name": "",
          "type": "uint256"
        }
      ],
      "stateMutability": "view",
      "type": "function"
    },
    {
      "inputs": [],
      "name": "MIN_MARKET_INTERVAL",
      "outputs": [
        {
          "internalType": "uint256",
          "name": "",
          "type": "uint256"
        }
      ],
      "stateMutability": "view",
      "type": "function"
    },
    {
      "inputs": [],
      "name": "MIN_WEIGHT",
      "outputs": [
        {
          "internalType": "uint256",
          "name": "",
          "type": "uint256"
        }
      ],
      "stateMutability": "view",
      "type": "function"
    },
    {
      "inputs": [],
      "name": "REPORTER_REWARD_BPS",
      "outputs": [
        {
          "internalType": "uint256",
          "name": "",
          "type": "uint256"
        }
      ],
      "stateMutability": "view",
      "type": "function"
    },
    {
      "inputs": [],
      "name": "SHARE_PRECISION",
      "outputs": [
        {
          "internalType": "uint256",
          "name": "",
          "type": "uint256"
        }
      ],
      "stateMutability": "view",
      "type": "function"
    },
    {
      "inputs": [],
      "name": "TREASURY_TIMELOCK",
      "outputs": [
        {
          "internalType": "uint256",
          "name": "",
          "type": "uint256"
        }
      ],
      "stateMutability": "view",
      "type": "function"
    },
    {
      "inputs": [],
      "name": "acceptOwnership",
      "outputs": [],
      "stateMutability": "nonpayable",
      "type": "function"
    },
    {
      "inputs": [
        {
          "internalType": "string",
          "name": "_marketId",
          "type": "string"
        },
        {
          "internalType": "address",
          "name": "_user",
          "type": "address"
        },
        {
          "internalType": "bool",
          "name": "_assumedResult",
          "type": "bool"
        }
      ],
      "name": "calculatePotentialPayout",
      "outputs": [
        {
          "internalType": "uint256",
          "name": "",
          "type": "uint256"
        }
      ],
      "stateMutability": "view",
      "type": "function"
    },
    {
      "inputs": [
        {
          "internalType": "string",
          "name": "_marketId",
          "type": "string"
        },
        {
          "internalType": "string",
          "name": "_evidenceUrl",
          "type": "string"
        },
        {
          "internalType": "uint256",
          "name": "_bondAmount",
          "type": "uint256"
        }
      ],
      "name": "challengeOutcome",
      "outputs": [],
      "stateMutability": "nonpayable",
      "type": "function"
    },
    {
      "inputs": [
        {
          "internalType": "string",
          "name": "_marketId",
          "type": "string"
        }
      ],
      "name": "claimWinnings",
      "outputs": [],
      "stateMutability": "nonpayable",
      "type": "function"
    },
    {
      "inputs": [
        {
          "internalType": "address",
          "name": "",
          "type": "address"
        }
      ],
      "name": "claimableBonds",
      "outputs": [
        {
          "internalType": "uint256",
          "name": "",
          "type": "uint256"
        }
      ],
      "stateMutability": "view",
      "type": "function"
    },
    {
      "inputs": [
        {
          "internalType": "string",
          "name": "_id",
          "type": "string"
        },
        {
          "internalType": "string",
          "name": "_question",
          "type": "string"
        },
        {
          "internalType": "uint256",
          "name": "_usdcSeedAmount",
          "type": "uint256"
        },
        {
          "internalType": "uint256",
          "name": "_durationBlocks",
          "type": "uint256"
        },
        {
          "internalType": "uint256",
          "name": "_bonusDurationBlocks",
          "type": "uint256"
        }
      ],
      "name": "createMarket",
      "outputs": [],
      "stateMutability": "nonpayable",
      "type": "function"
    },
    {
      "inputs": [
        {
          "internalType": "address",
          "name": "",
          "type": "address"
        }
      ],
      "name": "creatorBalance",
      "outputs": [
        {
          "internalType": "uint256",
          "name": "",
          "type": "uint256"
        }
      ],
      "stateMutability": "view",
      "type": "function"
    },
    {
      "inputs": [],
      "name": "creatorFeeBps",
      "outputs": [
        {
          "internalType": "uint256",
          "name": "",
          "type": "uint256"
        }
      ],
      "stateMutability": "view",
      "type": "function"
    },
    {
      "inputs": [
        {
          "internalType": "address",
          "name": "_newTreasury",
          "type": "address"
        }
      ],
      "name": "executeTreasuryChange",
      "outputs": [],
      "stateMutability": "nonpayable",
      "type": "function"
    },
    {
      "inputs": [
        {
          "internalType": "string",
          "name": "_marketId",
          "type": "string"
        }
      ],
      "name": "finalizeOutcome",
      "outputs": [],
      "stateMutability": "nonpayable",
      "type": "function"
    },
    {
      "inputs": [
        {
          "internalType": "string",
          "name": "_marketId",
          "type": "string"
        }
      ],
      "name": "getBettorsCount",
      "outputs": [
        {
          "internalType": "uint256",
          "name": "yesCount",
          "type": "uint256"
        },
        {
          "internalType": "uint256",
          "name": "noCount",
          "type": "uint256"
        }
      ],
      "stateMutability": "view",
      "type": "function"
    },
    {
      "inputs": [
        {
          "internalType": "string",
          "name": "_marketId",
          "type": "string"
        }
      ],
      "name": "getMarketDetails",
      "outputs": [
        {
          "internalType": "enum PredictionBattleV7_SECURE.MarketState",
          "name": "state",
          "type": "uint8"
        },
        {
          "internalType": "bool",
          "name": "result",
          "type": "bool"
        },
        {
          "internalType": "uint256",
          "name": "totalYes",
          "type": "uint256"
        },
        {
          "internalType": "uint256",
          "name": "totalNo",
          "type": "uint256"
        },
        {
          "internalType": "uint256",
          "name": "deadlineBlock",
          "type": "uint256"
        },
        {
          "internalType": "address",
          "name": "creator",
          "type": "address"
        },
        {
          "internalType": "bool",
          "name": "isVoid",
          "type": "bool"
        }
      ],
      "stateMutability": "view",
      "type": "function"
    },
    {
      "inputs": [
        {
          "internalType": "string",
          "name": "_marketId",
          "type": "string"
        }
      ],
      "name": "getRequiredBond",
      "outputs": [
        {
          "internalType": "uint256",
          "name": "",
          "type": "uint256"
        }
      ],
      "stateMutability": "view",
      "type": "function"
    },
    {
      "inputs": [
        {
          "internalType": "string",
          "name": "_marketId",
          "type": "string"
        },
        {
          "internalType": "address",
          "name": "_user",
          "type": "address"
        }
      ],
      "name": "getUserBets",
      "outputs": [
        {
          "internalType": "uint256",
          "name": "yesAmount",
          "type": "uint256"
        },
        {
          "internalType": "uint256",
          "name": "noAmount",
          "type": "uint256"
        },
        {
          "internalType": "uint256",
          "name": "yesShares",
          "type": "uint256"
        },
        {
          "internalType": "uint256",
          "name": "noShares",
          "type": "uint256"
        },
        {
          "internalType": "bool",
          "name": "claimed",
          "type": "bool"
        }
      ],
      "stateMutability": "view",
      "type": "function"
    },
    {
      "inputs": [
        {
          "internalType": "string",
          "name": "",
          "type": "string"
        },
        {
          "internalType": "address",
          "name": "",
          "type": "address"
        }
      ],
      "name": "hasClaimed",
      "outputs": [
        {
          "internalType": "bool",
          "name": "",
          "type": "bool"
        }
      ],
      "stateMutability": "view",
      "type": "function"
    },
    {
      "inputs": [],
      "name": "houseBalance",
      "outputs": [
        {
          "internalType": "uint256",
          "name": "",
          "type": "uint256"
        }
      ],
      "stateMutability": "view",
      "type": "function"
    },
    {
      "inputs": [],
      "name": "houseFeeBps",
      "outputs": [
        {
          "internalType": "uint256",
          "name": "",
          "type": "uint256"
        }
      ],
      "stateMutability": "view",
      "type": "function"
    },
    {
      "inputs": [
        {
          "internalType": "address",
          "name": "",
          "type": "address"
        }
      ],
      "name": "lastMarketCreation",
      "outputs": [
        {
          "internalType": "uint256",
          "name": "",
          "type": "uint256"
        }
      ],
      "stateMutability": "view",
      "type": "function"
    },
    {
      "inputs": [
        {
          "internalType": "string",
          "name": "",
          "type": "string"
        }
      ],
      "name": "marketExists",
      "outputs": [
        {
          "internalType": "bool",
          "name": "",
          "type": "bool"
        }
      ],
      "stateMutability": "view",
      "type": "function"
    },
    {
      "inputs": [
        {
          "internalType": "string",
          "name": "",
          "type": "string"
        }
      ],
      "name": "markets",
      "outputs": [
        {
          "internalType": "string",
          "name": "id",
          "type": "string"
        },
        {
          "internalType": "address",
          "name": "creator",
          "type": "address"
        },
        {
          "internalType": "string",
          "name": "question",
          "type": "string"
        },
        {
          "internalType": "uint256",
          "name": "creationBlock",
          "type": "uint256"
        },
        {
          "internalType": "uint256",
          "name": "bonusDuration",
          "type": "uint256"
        },
        {
          "internalType": "uint256",
          "name": "deadlineBlock",
          "type": "uint256"
        },
        {
          "internalType": "enum PredictionBattleV7_SECURE.MarketState",
          "name": "state",
          "type": "uint8"
        },
        {
          "internalType": "bool",
          "name": "result",
          "type": "bool"
        },
        {
          "internalType": "bool",
          "name": "isVoid",
          "type": "bool"
        },
        {
          "internalType": "address",
          "name": "proposer",
          "type": "address"
        },
        {
          "internalType": "bool",
          "name": "proposedResult",
          "type": "bool"
        },
        {
          "internalType": "uint256",
          "name": "proposalBlock",
          "type": "uint256"
        },
        {
          "internalType": "uint256",
          "name": "bondAmount",
          "type": "uint256"
        },
        {
          "internalType": "string",
          "name": "evidenceUrl",
          "type": "string"
        },
        {
          "internalType": "address",
          "name": "challenger",
          "type": "address"
        },
        {
          "internalType": "uint256",
          "name": "challengeBondAmount",
          "type": "uint256"
        },
        {
          "internalType": "string",
          "name": "challengeEvidenceUrl",
          "type": "string"
        },
        {
          "internalType": "uint256",
          "name": "challengeBlock",
          "type": "uint256"
        },
        {
          "internalType": "uint256",
          "name": "totalYes",
          "type": "uint256"
        },
        {
          "internalType": "uint256",
          "name": "totalNo",
          "type": "uint256"
        },
        {
          "internalType": "uint256",
          "name": "seedYes",
          "type": "uint256"
        },
        {
          "internalType": "uint256",
          "name": "seedNo",
          "type": "uint256"
        },
        {
          "internalType": "uint256",
          "name": "totalSharesYes",
          "type": "uint256"
        },
        {
          "internalType": "uint256",
          "name": "totalSharesNo",
          "type": "uint256"
        }
      ],
      "stateMutability": "view",
      "type": "function"
    },
    {
      "inputs": [],
      "name": "maxBetAmount",
      "outputs": [
        {
          "internalType": "uint256",
          "name": "",
          "type": "uint256"
        }
      ],
      "stateMutability": "view",
      "type": "function"
    },
    {
      "inputs": [],
      "name": "maxMarketPool",
      "outputs": [
        {
          "internalType": "uint256",
          "name": "",
          "type": "uint256"
        }
      ],
      "stateMutability": "view",
      "type": "function"
    },
    {
      "inputs": [
        {
          "internalType": "string",
          "name": "",
          "type": "string"
        },
        {
          "internalType": "address",
          "name": "",
          "type": "address"
        }
      ],
      "name": "noBets",
      "outputs": [
        {
          "internalType": "uint256",
          "name": "amount",
          "type": "uint256"
        },
        {
          "internalType": "uint256",
          "name": "shares",
          "type": "uint256"
        },
        {
          "internalType": "address",
          "name": "referrer",
          "type": "address"
        },
        {
          "internalType": "bool",
          "name": "claimed",
          "type": "bool"
        }
      ],
      "stateMutability": "view",
      "type": "function"
    },
    {
      "inputs": [],
      "name": "owner",
      "outputs": [
        {
          "internalType": "address",
          "name": "",
          "type": "address"
        }
      ],
      "stateMutability": "view",
      "type": "function"
    },
    {
      "inputs": [],
      "name": "pause",
      "outputs": [],
      "stateMutability": "nonpayable",
      "type": "function"
    },
    {
      "inputs": [],
      "name": "paused",
      "outputs": [
        {
          "internalType": "bool",
          "name": "",
          "type": "bool"
        }
      ],
      "stateMutability": "view",
      "type": "function"
    },
    {
      "inputs": [],
      "name": "pendingOwner",
      "outputs": [
        {
          "internalType": "address",
          "name": "",
          "type": "address"
        }
      ],
      "stateMutability": "view",
      "type": "function"
    },
    {
      "inputs": [
        {
          "internalType": "bytes32",
          "name": "",
          "type": "bytes32"
        }
      ],
      "name": "pendingTreasuryChange",
      "outputs": [
        {
          "internalType": "uint256",
          "name": "",
          "type": "uint256"
        }
      ],
      "stateMutability": "view",
      "type": "function"
    },
    {
      "inputs": [
        {
          "internalType": "string",
          "name": "_marketId",
          "type": "string"
        },
        {
          "internalType": "bool",
          "name": "_side",
          "type": "bool"
        },
        {
          "internalType": "uint256",
          "name": "_usdcAmount",
          "type": "uint256"
        },
        {
          "internalType": "uint256",
          "name": "_minSharesOut",
          "type": "uint256"
        },
        {
          "internalType": "address",
          "name": "_referrer",
          "type": "address"
        }
      ],
      "name": "placeBet",
      "outputs": [],
      "stateMutability": "nonpayable",
      "type": "function"
    },
    {
      "inputs": [
        {
          "internalType": "string",
          "name": "_marketId",
          "type": "string"
        },
        {
          "internalType": "bool",
          "name": "_result",
          "type": "bool"
        },
        {
          "internalType": "string",
          "name": "_evidenceUrl",
          "type": "string"
        },
        {
          "internalType": "uint256",
          "name": "_bondAmount",
          "type": "uint256"
        }
      ],
      "name": "proposeOutcome",
      "outputs": [],
      "stateMutability": "nonpayable",
      "type": "function"
    },
    {
      "inputs": [
        {
          "internalType": "address",
          "name": "_newTreasury",
          "type": "address"
        }
      ],
      "name": "proposeTreasuryChange",
      "outputs": [],
      "stateMutability": "nonpayable",
      "type": "function"
    },
    {
      "inputs": [],
      "name": "referrerFeeBps",
      "outputs": [
        {
          "internalType": "uint256",
          "name": "",
          "type": "uint256"
        }
      ],
      "stateMutability": "view",
      "type": "function"
    },
    {
      "inputs": [],
      "name": "renounceOwnership",
      "outputs": [],
      "stateMutability": "nonpayable",
      "type": "function"
    },
    {
      "inputs": [
        {
          "internalType": "string",
          "name": "_marketId",
          "type": "string"
        },
        {
          "internalType": "address",
          "name": "_winnerAddress",
          "type": "address"
        },
        {
          "internalType": "bool",
          "name": "_finalResult",
          "type": "bool"
        }
      ],
      "name": "resolveDispute",
      "outputs": [],
      "stateMutability": "nonpayable",
      "type": "function"
    },
    {
      "inputs": [
        {
          "internalType": "address",
          "name": "",
          "type": "address"
        }
      ],
      "name": "rewardsBalance",
      "outputs": [
        {
          "internalType": "uint256",
          "name": "",
          "type": "uint256"
        }
      ],
      "stateMutability": "view",
      "type": "function"
    },
    {
      "inputs": [
        {
          "internalType": "string",
          "name": "",
          "type": "string"
        }
      ],
      "name": "seedWithdrawn",
      "outputs": [
        {
          "internalType": "bool",
          "name": "",
          "type": "bool"
        }
      ],
      "stateMutability": "view",
      "type": "function"
    },
    {
      "inputs": [
        {
          "internalType": "address",
          "name": "newOwner",
          "type": "address"
        }
      ],
      "name": "transferOwnership",
      "outputs": [],
      "stateMutability": "nonpayable",
      "type": "function"
    },
    {
      "inputs": [],
      "name": "treasury",
      "outputs": [
        {
          "internalType": "address",
          "name": "",
          "type": "address"
        }
      ],
      "stateMutability": "view",
      "type": "function"
    },
    {
      "inputs": [],
      "name": "unpause",
      "outputs": [],
      "stateMutability": "nonpayable",
      "type": "function"
    },
    {
      "inputs": [],
      "name": "usdcToken",
      "outputs": [
        {
          "internalType": "contract IERC20",
          "name": "",
          "type": "address"
        }
      ],
      "stateMutability": "view",
      "type": "function"
    },
    {
      "inputs": [
        {
          "internalType": "string",
          "name": "_marketId",
          "type": "string"
        }
      ],
      "name": "voidMarket",
      "outputs": [],
      "stateMutability": "nonpayable",
      "type": "function"
    },
    {
      "inputs": [],
      "name": "withdrawBond",
      "outputs": [],
      "stateMutability": "nonpayable",
      "type": "function"
    },
    {
      "inputs": [],
      "name": "withdrawCreatorFees",
      "outputs": [],
      "stateMutability": "nonpayable",
      "type": "function"
    },
    {
      "inputs": [],
      "name": "withdrawHouseFees",
      "outputs": [],
      "stateMutability": "nonpayable",
      "type": "function"
    },
    {
      "inputs": [],
      "name": "withdrawReferrerFees",
      "outputs": [],
      "stateMutability": "nonpayable",
      "type": "function"
    },
    {
      "inputs": [
        {
          "internalType": "string",
          "name": "_marketId",
          "type": "string"
        }
      ],
      "name": "withdrawSeed",
      "outputs": [],
      "stateMutability": "nonpayable",
      "type": "function"
    },
    {
      "inputs": [
        {
          "internalType": "string",
          "name": "",
          "type": "string"
        },
        {
          "internalType": "address",
          "name": "",
          "type": "address"
        }
      ],
      "name": "yesBets",
      "outputs": [
        {
          "internalType": "uint256",
          "name": "amount",
          "type": "uint256"
        },
        {
          "internalType": "uint256",
          "name": "shares",
          "type": "uint256"
        },
        {
          "internalType": "address",
          "name": "referrer",
          "type": "address"
        },
        {
          "internalType": "bool",
          "name": "claimed",
          "type": "bool"
        }
      ],
      "stateMutability": "view",
      "type": "function"
    }
  ],
  "bytecode": "0x60a0346200025257601f6200414e38819003918201601f191683019291906001600160401b0384118385101762000257578160609284926040968752833981010312620002525762000051816200026d565b6200006c8362000064602085016200026d565b93016200026d565b60016000556001600160a01b038381169182156200023a57600280546001600160a01b031990811690915560018054610100600160a81b03198116600898891b610100600160a81b0316179091558751969194911c83167f8be0079c531659141344cd1fd0a4f28419497f9722a3daafe3b4186f6b6457e0600080a36103e86004556101f48060055560065564174876e80060075564e8d4a5100060085581841694851562000209575016918215620001d2573b156200018e57600354161760035560805251613ecb90816200028382396080518181816104f90152818161082b01528181610baa015281816114570152818161159001528181611622015281816119ad01528181611d93015281816123e901528181612b6e01526132bb0152f35b835162461bcd60e51b815260206004820152601560248201527f55534443206d75737420626520636f6e747261637400000000000000000000006044820152606490fd5b845162461bcd60e51b815260206004820152601060248201526f496e76616c696420547265617375727960801b6044820152606490fd5b62461bcd60e51b815260206004820152600c60248201526b496e76616c6964205553444360a01b6044820152606490fd5b8551631e4fbdf760e01b815260006004820152602490fd5b600080fd5b634e487b7160e01b600052604160045260246000fd5b51906001600160a01b0382168203620002525756fe61016080604052600436101561001457600080fd5b60003560e01c9081626fb9ff14613348575080630e90aeb2146132ea57806311eac855146132a557806317773ebb146132875780631caed77c1461324d5780632023115d1461302d578063214529ad1461300f578063218b538214612fbc578063245fc02614612fc1578063327abb4814612fbc57806335eea24b14612f5457806337b150da14612f375780633bc6f60614612e3b5780633cff354914612dfa5780633f4ba83a14612d905780633fed6ced14612d2f57806345d98ccb146116c757806359f5a41f14612d115780635c975abb14612cee5780635e578a5614612c415780635fc5e02014612c1e57806361d027b314612bf557806366eb9cec14612b2957806367084eb314612b0b578063715018a614612a9a57806379ba5097146129fc5780638456cb59146129a3578063896bdac8146129695780638da5cb5b1461293c5780639a826eb7146128d05780639bd1d513146122ee578063a07c1633146122d0578063a8d9699d146122b3578063c227955a14611c7f578063c5479faf146118ab578063c814660c14611887578063c8eaef1914611716578063cab11d5d146116f8578063d031639b146116cc578063d73792a9146116c7578063dbeae54c14611646578063dfdc5f77146115d9578063e0de0fee146115bb578063e1cd04b414611547578063e1e90ab314611329578063e30c397814611300578063e4a28a52146112e4578063e4de823214611209578063e6cd7ab6146111cf578063ee59d240146111b1578063ef03c10e14610ea3578063efbda66114610c54578063f2fde38b14610be1578063f677b4d414610b41578063f69be5021461071f578063fdbcf125146103755763fe1140a31461029257600080fd5b3461037057602080600319360112610370576102ac61337e565b6102b4613660565b6001600160a01b031690811561033a57604051818101908382528281526102da816133dd565b519020906202a3004201804211610324577f2fdb8aa18e3708b0dfed4acb0de7452e85e7f833b1b055880cef38e8bee690b592600052600e825280604060002055604051908152a2005b634e487b7160e01b600052601160045260246000fd5b6064906040519062461bcd60e51b82526004820152600f60248201526e496e76616c6964206164647265737360881b6044820152fd5b600080fd5b3461037057602080600319360112610370576004356001600160401b038111610370576103a6903690600401613394565b6103b19291926137b9565b6103d160ff604051838682378481858101601081520301902054166137dc565b604051818482378281838101600f81520301902092600684015460ff81166005811015610709576004610404911461399c565b604051838382378481858101601381520301902033600052845260ff604060002054166106d25760006040518484823785818681016011815203019020336000528552604060002095604051858582378681878101601281520301902033600052865260406000209260ff8160101c166000146105ac5750505061048b8554825490613677565b945b851561057457907f2f0b27a029bcea8b4cd6e1f002ba498bd37b903b56578a04f1576cd25c09de5393929160405184848237868186810160138152030190203360005286526040600020600160ff19825416179055805461055a575b508054610540575b5061051d85337f00000000000000000000000000000000000000000000000000000000000000006139d7565b816040519283928337810160008152039020916040519384523393a36001600055005b600201805460ff60a01b1916600160a01b179055856104f1565b600201805460ff60a01b1916600160a01b179055866104e9565b60405162461bcd60e51b815260048101869052601060248201526f4e6f7468696e6720746f20636c61696d60801b6044820152606490fd5b91969160081c60ff1680156106cb5782915b82541515806106be575b6105d5575b50505061048d565b90919297506105ed600e820154600f83015490613677565b80156105f98115613963565b60648202908282046064141715610324576106446106499261062060045460055490613677565b9261063d6106376127108093049560065490613677565b83613814565b0490613827565b613827565b91156106b45760120154915b821561067b576106729291600161066d920154613814565b6136dd565b948680806105cd565b60405162461bcd60e51b81526004810188905260116024820152704e6f2077696e6e696e672073686172657360781b6044820152606490fd5b6013015491610655565b50600183015415156105c8565b83916105be565b60405162461bcd60e51b815260048101859052600f60248201526e105b1c9958591e4818db185a5b5959608a1b6044820152606490fd5b634e487b7160e01b600052602160045260246000fd5b34610370576060366003190112610370576004356001600160401b0381116103705761074f903690600401613394565b6024356001600160401b0381116103705761076e903690600401613394565b916107776136bf565b61077f6137b9565b6107a060ff60405183878237602081858101601081520301902054166137dc565b6107ae6101008411156138be565b60405181858237602081838101600f8152030190209360068501805460ff811660058110156107095760026107e39114613684565b60078701546154608101809111610324574311610b0c5761080c60088801546044351015613902565b3360189190911c6001600160a01b031614610acf5761084f60443530337f00000000000000000000000000000000000000000000000000000000000000006136fd565b805490600360ff1983161790556040516000875461086c8161355b565b9060018116908115610ab95750600114610a84575b5060ff6108aa83600080516020613e7683398151915294604094039020948351928391166134f0565b60036020820152a2600a850180546001600160a01b03191633179055604435600b860155600c8501946001600160401b038511610a6e576108eb865461355b565b601f8111610a26575b50600095601f86116001146109975790610982939291867f4bd7c92eba598ee7ab038ac4a59ab8feb6d65703229128829d6cdd17959b121f96979860009161098c575b508860011b906000198a60031b1c19161790555b600d439101558160405192839283378101600081520390209260405191829160443583526040602084015233966040840191613942565b0390a36001600055005b905087013589610937565b601f1986168160005260206000209060005b818110610a0e57509087987f4bd7c92eba598ee7ab038ac4a59ab8feb6d65703229128829d6cdd17959b121f97986109829796959493106109f4575b5050600188811b01905561094b565b88013560001960038b901b60f8161c1916905588806109e5565b878a013583556020998a0199600190930192016109a9565b866000526020600020601f870160051c81019160208810610a64575b601f0160051c01905b818110610a5857506108f4565b60008155600101610a4b565b9091508190610a42565b634e487b7160e01b600052604160045260246000fd5b90508760005260206000206000905b828210610aa5575050810160ff610881565b600181602092548487015201910190610a93565b60ff1916845250801515028201905060ff610881565b60405162461bcd60e51b815260206004820152601560248201527443616e6e6f742073656c662d6368616c6c656e676560581b6044820152606490fd5b60405162461bcd60e51b815260206004820152600d60248201526c15da5b991bddc818db1bdcd959609a1b6044820152606490fd5b3461037057600036600319011261037057610b5a613660565b610b626137b9565b600a54610b70811515613a26565b6000600a557f19f7a31ae4185f3274e252a5a78ec36ba85c01300bc8a800d41d79be74662a8e602060018060a01b03610bce8482600354167f00000000000000000000000000000000000000000000000000000000000000006139d7565b6003541692604051908152a26001600055005b3461037057602036600319011261037057610bfa61337e565b610c02613660565b60018060a01b0380911690816bffffffffffffffffffffffff60a01b600254161760025560015460081c167f38d16b8cac22d99fc7c124b9cd0de2d3fa1faef420bfe791d8c362d765e22700600080a3005b34610370576020366003190112610370576004356001600160401b03811161037057610c84903690600401613419565b6040518181809351602081930191610c9b9261346f565b8101600f8152036020019020610cb081613595565b60018201546001600160a01b031660c05290610cce60028201613595565b61014052600381015491600482015492600583015490600684015460078501549160088601549060098701610d0290613595565b91600160a01b60019003600a8901541694600b89015494600c8a01610d2690613595565b97600d8b015460e052600e8b01549b600f8c01549a60108d01549c601181015460805260128101546101005260130154610120526040518060a05261030080915260a05101610d749161363b565b60c05160a0516020015260a05180820390604001526101405190610d979161363b565b9560a0516060015260a0516080015260a05160a0015260a05160c00160ff821690610dc1916134f0565b8060081c60ff16151560a05160e001528060101c60ff16151560a0516101000152600160a01b600190038160181c1660a051610120015260b81c60ff16151560a051610140015260a051610160015260a051610180015260a051808203906101a00152610e2d9161363b565b9160a0516101c0015260a0516101e0015260a051808203906102000152610e539161363b565b9260e05160a051610220015260a051610240015260a051610260015260a051610280015260805160a0516102a001526101005160a0516102c001526101205160a0516102e0015260a05180910390f35b3461037057610eb13661350c565b91610ebd939193613660565b610ec56137b9565b610ee660ff60405183858237602081858101601081520301902054166137dc565b60405181838237602081838101600f81520301902060068101549460ff861660058110156107095760030361117d576001600160a01b039560181c861681871614801561116c575b1561113657610f466008830154600b84015490613677565b610f59600e840154600f85015490613677565b908115610f668115613963565b60648302928304606414171561032457612710610f84920490613677565b90868116600052600d6020526040600020610fa0838254613677565b9055600683015496600460ff1989161760068501556040519760008554610fc68161355b565b906001811690811561112057506001146110eb575b5091604091600080516020613e768339815191528360ff61104a8e7f175b08e6ee8bbceb85780e790adca99ec4fbd3bb124ffbf50bd35ed4375a69ac9e9f7f38b360c485b4bed5c0c2e2ab639b104b4e002dbf7351d0d4431e48b6d9e2bfce99039020948351928391166134f0565b60046020820152a260068601805461ff0019168b151560081b61ff0016179055600060088701556000600b87015581518789823780888101600081520390209382519586528a151560208701521693a384156110e157600e0154915b816040519283928337810160008152039020926110d760405192839283602090939291936040810194151581520152565b0390a26001600055005b600f0154916110a6565b90508560005260206000206000905b82821061110c57505089016040610fdb565b8054828d01526020909101906001016110fa565b60ff19168c5250801515028a0190506040610fdb565b60405162461bcd60e51b815260206004820152600e60248201526d24b73b30b634b2103bb4b73732b960911b6044820152606490fd5b5085600a8301541686821614610f2e565b60405162461bcd60e51b815260206004820152600c60248201526b139bdd08191a5cdc1d5d195960a21b6044820152606490fd5b34610370576000366003190112610370576020600454604051908152f35b34610370576020366003190112610370576001600160a01b036111f061337e565b16600052600b6020526020604060002054604051908152f35b34610370576040366003190112610370576004356001600160401b03811161037057611239903690600401613394565b6024356001600160a01b038116908190036103705760a0926040519183828437828481016011815260209485910301902081600052835260406000206040518584823784818781016012815203019020826000528452604060002091815495856001808654950154950154958260405193849283378101601381520301902090600052845260ff60406000205416936040519586528501526040840152606083015215156080820152f35b3461037057600036600319011261037057602060405160968152f35b34610370576000366003190112610370576002546040516001600160a01b039091168152602090f35b3461037057602080600319360112610370576004356001600160401b0381116103705761135a903690600401613394565b6113659291926137b9565b61138560ff604051838682378481858101601081520301902054166137dc565b604051818482378281838101600f815203019020600681015460ff8116906005821015610709576113ba600460ff931461399c565b60101c16156115175760018101546001600160a01b031633036114e35760ff604051838682378481858101601481520301902054166114aa57806011601061140793015491015490613677565b92831561147b57907f3ff50bb01a71ba44b43b95e691fe785159d1c403efd991b82f3b5f62a2d8148a916040518282823784818481016014815203019020600160ff1982541617905561051d85337f00000000000000000000000000000000000000000000000000000000000000006139d7565b60405162461bcd60e51b8152600481018490526007602482015266139bc81cd9595960ca1b6044820152606490fd5b60405162461bcd60e51b815260048101849052601160248201527020b63932b0b23c903bb4ba34323930bbb760791b6044820152606490fd5b60405162461bcd60e51b815260048101849052600c60248201526b27b7363c9031b932b0ba37b960a11b6044820152606490fd5b60405162461bcd60e51b8152600481018490526008602482015267139bdd081d9bda5960c21b6044820152606490fd5b34610370576000366003190112610370576115606137b9565b33600052600b6020526115b460406000205461157d811515613a26565b33600052600b60205260006040812055337f00000000000000000000000000000000000000000000000000000000000000006139d7565b6001600055005b34610370576000366003190112610370576020604051624c4b408152f35b34610370576000366003190112610370576115f26137b9565b33600052600c6020526115b460406000205461160f811515613a26565b33600052600c60205260006040812055337f00000000000000000000000000000000000000000000000000000000000000006139d7565b3461037057602061166e61165936613492565b9290816040519382858094519384920161346f565b6011908201908152030190206001600160a01b0391821660009081526020918252604090819020805460018201546002909201548351918252938101919091529282169083015260a01c60ff1615156060820152608090f35b6134d3565b3461037057602036600319011261037057600435600052600e6020526020604060002054604051908152f35b34610370576000366003190112610370576020600754604051908152f35b34610370576020366003190112610370576004356001600160401b03811161037057611746903690600401613394565b9061174f613660565b60405182828237602081848101600f815203019020600681019081549060ff821660058110156107095760041461184f576117a7916008820180548061181f575b505050600b8101805490816117ef575b5050613d8f565b6201000062ff0000198254161790558160405192839283378101600081520390207f1e9a51575531367c4323c60efe8c5b980af66cd0509c86d8f4e1a3d9c9001700600080a2005b60009160018060a01b03600a850154168352600d60205261181560408420918254613677565b90555585806117a0565b60009260018060a01b039060181c168352600d60205261184460408420918254613677565b905555858080611790565b60405162461bcd60e51b815260206004820152601060248201526f105b1c9958591e481c995cdbdb1d995960821b6044820152606490fd5b346103705760206118a361189a3661350c565b92919091613a5c565b604051908152f35b34610370576080366003190112610370576004356001600160401b038111610370576118db903690600401613394565b6118e36134fd565b906044356001600160401b03811161037057611903903690600401613394565b93909261190e6136bf565b6119166137b9565b61193760ff60405185858237602081878101601081520301902054166137dc565b6119456101008611156138be565b60405183838237602081858101600f81520301902060ff6006820154166005811015610709578015908115611c74575b5015611c3f576119a3611999611994600e840154600f85015490613677565b613b95565b6064351015613902565b6119d160643530337f00000000000000000000000000000000000000000000000000000000000000006136fd565b600681015491600260ff198416176006830155604051600083546119f48161355b565b9060018116908115611c2a5750600114611bf6575b50918160029260099594039020600080516020613e7683398151915260408051611a368160ff8b166134f0565b856020820152a262ffff01600160c01b03199094163360181b6301000000600160b81b03161793151560b881901b60ff60b81b16949094171760068201554360078201556064356008820155016001600160401b038611610a6e57611a9b815461355b565b601f8111611bae575b50856000601f8211600114611b4857600091611b3d575b508660011b906000198860031b1c19161790555b6154604301918243116103245783610982917f5247f2366f7e70fc0b5fc61f486408d977047c08d356ffb76c3d35832ceeaf26956040519283928337810160008152039020946040519384938452606435602085015260408401526080606084015233966080840191613942565b905085013587611abb565b60008381526020812092508890601f198216905b818110611b93575010611b79575b5050600186811b019055611acf565b860135600019600389901b60f8161c191690558680611b6a565b8984013585556001909401936020938401938b935001611b5c565b816000526020600020601f880160051c81019160208910611bec575b601f0160051c01905b818110611be05750611aa4565b60008155600101611bd3565b9091508190611bca565b90508360005260206000206000905b828210611c16575050810181611a09565b600181602092548487015201910190611c05565b60ff1916845250801515028201905081611a09565b60405162461bcd60e51b815260206004820152600d60248201526c496e76616c696420737461746560981b6044820152606490fd5b600191501487611975565b346103705760a0366003190112610370576004356001600160401b03811161037057611caf903690600401613394565b611cb76134fd565b916084356001600160a01b038116810361037057611cd36136bf565b611cdb6137b9565b611cfc60ff60405185858237602081878101601081520301902054166137dc565b60405183838237602081858101600f81520301902060ff600682015416600581101561070957612283576005810154431015612254576044351561222157600754604435116121ec57611d64600e820154611d5f60443591600f85015490613677565b613677565b600854106121b1576001600160a01b038216331461217857611d8582613e5a565b61213357611db760443530337f00000000000000000000000000000000000000000000000000000000000000006136fd565b612710611dc8600454604435613814565b0493612710611ddb600554604435613814565b0460006001600160a01b038516151580612119575b6120d5575b611e0c611e1591610644846106448b604435613827565b96600a54613677565b600a5560018060a01b03600184015416600052600b602052611e3d6040600020918254613677565b9055611e75611e556003840154600485015490613677565b431087156120ca5786600e8501545b89156120bf57600f86015490613bc2565b91606435831061208157861561205857611e9386600e830154613677565b600e82015560128101611ea7848254613677565b90555b86156120305760405182868237602081848101601181520301902033600052602052600260406000205b611edf888254613677565b815560018101611ef0868254613677565b90550180546001600160a01b0319166001600160a01b038616179055861561201557604051828682376020818481016015815203019020905b61271082541015611fda57611f42611f60923390613834565b508715611fcf57600f810154905b8815611fc557600e015490613d1c565b938160405192839283378101600081520390209360405195151586526020860152604085015260018060a01b0316606084015260808301527fa994696d1a657073ceaa15fbacd649938053ce8bee7de30ec1c28d337cc37b2360a03393a36001600055005b600f015490613d1c565b600e81015490611f50565b60405162461bcd60e51b815260206004820152601360248201527213585e0818995d1d1bdc9cc81c995858da1959606a1b6044820152606490fd5b60405182868237602081848101601681520301902090611f29565b6040518286823760208184810160128152030190203360005260205260026040600020611ed4565b61206686600f830154613677565b600f8201556013810161207a848254613677565b9055611eaa565b60405162461bcd60e51b815260206004820152601660248201527514db1a5c1c1859d94e8813d9191cc818da185b99d95960521b6044820152606490fd5b600e86015490613bc2565b86600f850154611e64565b50611e15611e0c6127106120ed600654604435613814565b0460018060a01b038716600052600c602052604060002061210f828254613677565b9055915050611df5565b5060018401546001600160a01b0386811691161415611df0565b60405162461bcd60e51b815260206004820152601b60248201527f52656665727265722063616e6e6f7420626520636f6e747261637400000000006044820152606490fd5b60405162461bcd60e51b815260206004820152601160248201527021b0b73737ba1039b2b63316b932b332b960791b6044820152606490fd5b60405162461bcd60e51b8152602060048201526013602482015272141bdbdb081b1a5b5a5d08195e18d959591959606a1b6044820152606490fd5b60405162461bcd60e51b815260206004820152600d60248201526c42657420746f6f206c6172676560981b6044820152606490fd5b60405162461bcd60e51b815260206004820152600b60248201526a16995c9bc8185b5bdd5b9d60aa1b6044820152606490fd5b60405162461bcd60e51b8152602060048201526007602482015266115e1c1a5c995960ca1b6044820152606490fd5b60405162461bcd60e51b81526020600482015260086024820152672737ba1037b832b760c11b6044820152606490fd5b346103705760003660031901126103705760206040516154608152f35b34610370576000366003190112610370576020600654604051908152f35b346103705760a0366003190112610370576004356001600160401b0381116103705761231e903690600401613394565b6024356001600160401b0381116103705761233d903690600401613394565b6123489291926136bf565b6123506137b9565b811515806128c5575b1561288c57600a81101580612880575b1561283b5760ff6040518386823760208185810160108152030190205416612806576044351515806127f9575b156127c5576008546044351161278f576064351561275757336000526009602052604060002054610e108101809111610324574210612725573360005260096020524260406000205561240d60443530337f00000000000000000000000000000000000000000000000000000000000000006136fd565b60405182858237602081848101600f815203019020926001600160401b038311610a6e5761243b845461355b565b601f81116126df575b50826000601f821160011461267a5760009161266f575b508360011b906000198560031b1c19161784555b6001840180546001600160a01b031916331790556001600160401b038211610a6e5781906124a0600286015461355b565b601f811161261e575b50600090601f83116001146125ad576000926125a2575b50508160011b916000199060031b1c19161760028301555b43600383015560843591821561259a57825b60048201556124fb60643543613677565b9060058101918255600681019060ff1991828154169055601160443560011c9182600e82015582600f820155826010820155015560016040518487823760208186810160108152030190209182541617905554928160405192839283378101600081520390209060405192835260208301527fccdee9db8c345dd53026f5dedbf3e8b723ceddd2ad8eeb96b00ce37fddd58b6460403393a36001600055005b6064356124ea565b0135905085806124c0565b909250600285016000526020600020906000935b601f1984168510612606576001945083601f198116106125ec575b505050811b0160028301556124d8565b0135600019600384901b60f8161c191690558580806125dc565b818101358355602094850194600190930192016125c1565b909150600285016000526020600020601f840160051c810160208510612668575b90601f8594930160051c01905b81811061265957506124a9565b6000815584935060010161264c565b508061263f565b90508501358661245b565b60008681526020812092505b601f19861681106126c7575084601f198116106126ad575b5050600183811b01845561246f565b860135600019600386901b60f8161c19169055858061269e565b9091602060018192858b013581550193019101612686565b846000526020600020601f850160051c81016020861061271e575b601f90920160051c01905b8181106127125750612444565b60008155600101612705565b50806126fa565b60405162461bcd60e51b815260206004820152600a60248201526914985d19481b1a5b5a5d60b21b6044820152606490fd5b60405162461bcd60e51b815260206004820152601060248201526f24b73b30b634b210323ab930ba34b7b760811b6044820152606490fd5b60405162461bcd60e51b815260206004820152600e60248201526d5365656420746f6f206c6172676560901b6044820152606490fd5b60405162461bcd60e51b815260206004820152600c60248201526b125b9d985b1a59081cd9595960a21b6044820152606490fd5b5060016044351615612396565b60405162461bcd60e51b815260206004820152600d60248201526c4d61726b65742065786973747360981b6044820152606490fd5b60405162461bcd60e51b815260206004820152601760248201527f496e76616c6964207175657374696f6e206c656e6774680000000000000000006044820152606490fd5b506101f4811115612369565b60405162461bcd60e51b8152602060048201526011602482015270092dcecc2d8d2c840928840d8cadccee8d607b1b6044820152606490fd5b506040821115612359565b346103705760206128e361165936613492565b6012908201908152030190206001600160a01b0391821660009081526020918252604090819020805460018201546002909201548351918252938101919091529282169083015260a01c60ff1615156060820152608090f35b346103705760003660031901126103705760015460405160089190911c6001600160a01b03168152602090f35b34610370576020366003190112610370576001600160a01b0361298a61337e565b16600052600c6020526020604060002054604051908152f35b34610370576000366003190112610370576129bc613660565b6129c46136bf565b600160ff19815416176001557f62e78cea01bee320cd4e420270b5ea74000d11b0c9f74754ebdbfc544b05a2586020604051338152a1005b34610370576000366003190112610370576002546001600160a01b03903382821603612a82576001600160a01b03191660025560018054610100600160a81b0319811633600881811b610100600160a81b0316929092179093559192911c167f8be0079c531659141344cd1fd0a4f28419497f9722a3daafe3b4186f6b6457e0600080a3005b60405163118cdaa760e01b8152336004820152602490fd5b3461037057600036600319011261037057612ab3613660565b600280546001600160a01b031916905560018054610100600160a81b0319811690915560009060081c6001600160a01b03167f8be0079c531659141344cd1fd0a4f28419497f9722a3daafe3b4186f6b6457e08280a3005b34610370576000366003190112610370576020600a54604051908152f35b3461037057600036600319011261037057612b426137b9565b33600052600d6020526040600020548015612bc55733600052600d60205260006040812055612b9281337f00000000000000000000000000000000000000000000000000000000000000006139d7565b6040519081527f0d41118e36df44efb77a471fc49fb9c0be0406d802ef95520e9fbf606e65b45560203392a26001600055005b60405162461bcd60e51b81526020600482015260086024820152674e6f20626f6e647360c01b6044820152606490fd5b34610370576000366003190112610370576003546040516001600160a01b039091168152602090f35b34610370576000366003190112610370576020604051670de0b6b3a76400008152f35b34610370576020366003190112610370576004356001600160401b038111610370576020612c7560e0923690600401613394565b91908260405193849283378101600f81520301902060ff6006820154600e83015492600f810154906005810154906001808060a01b03910154169160405195612cc0878787166134f0565b858560081c161515602088015260408701526060860152608085015260a084015260101c16151560c0820152f35b3461037057600036600319011261037057602060ff600154166040519015158152f35b34610370576000366003190112610370576020600854604051908152f35b34610370576020366003190112610370576004356001600160401b0381116103705760ff612d7a6020612d6781943690600401613419565b816040519382858094519384920161346f565b8101601081520301902054166040519015158152f35b3461037057600036600319011261037057612da9613660565b60015460ff811615612de85760ff19166001557f5db9ee0a495bf2e6ff9c91a7834c1ba4fdd244a5e8aa4e537bd38aeae4b073aa6020604051338152a1005b604051638dfc202b60e01b8152600490fd5b34610370576020612e0d61165936613492565b810160138152030190209060018060a01b0316600052602052602060ff604060002054166040519015158152f35b346103705760208060031936011261037057612e5561337e565b612e5d613660565b6040516001600160a01b03918216838201818152848352909391612e80816133dd565b5190209081600052600e8152612e9c6040600020541515613684565b81600052600e81526040600020544210612f0157600e9060035492856bffffffffffffffffffffffff60a01b8516176003556000525260006040812055167f4ab5be82436d353e61ca18726e984e561f5c1cc7c6d38b29d2553c790434705a600080a3005b6064906040519062461bcd60e51b82526004820152600f60248201526e54696d656c6f636b2061637469766560881b6044820152fd5b34610370576000366003190112610370576020604051610e108152f35b34610370576020366003190112610370576004356001600160401b03811161037057612f866040913690600401613394565b60208351828482378181848101601581520301902054928285519384928337810160168152030190205482519182526020820152f35b6133c1565b34610370576020366003190112610370576004356001600160401b0381116103705760ff612ff96020612d6781943690600401613419565b8101601481520301902054166040519015158152f35b346103705760003660031901126103705760206040516202a3008152f35b3461037057602080600319360112610370576004356001600160401b0381116103705761305e903690600401613394565b906130676137b9565b61308760ff604051848482378581868101601081520301902054166137dc565b604051828282378381848101600f8152030190209160068301805460ff811660058110156107095760026130bb9114613684565b600785015461546081018091116103245743111561321857600885018054600e87018054600f89018054909a9296949560181c6001600160a01b03169392916131049190613677565b9081156131118115613963565b60648302928304606414171561032457600060ff966131987f175b08e6ee8bbceb85780e790adca99ec4fbd3bb124ffbf50bd35ed4375a69ac9c61317b6127107fe2b1d963f1ec20d10d097a5196a0a9e7b5ff982020b428f20918fe52a2234edf97048098613677565b888552600d865261319160408620918254613677565b9055613d8f565b865461ff0019811660b89190911c8916151560081b61ff001617875555604051888a8237808981016000815203902092604051908152a35460081c1694851561320f57505491816040519283928337810160008152039020926110d760405192839283602090939291936040810194151581520152565b905054916110a6565b60405162461bcd60e51b815260048101879052600d60248201526c57696e646f772061637469766560981b6044820152606490fd5b34610370576020366003190112610370576001600160a01b0361326e61337e565b1660005260096020526020604060002054604051908152f35b34610370576000366003190112610370576020600554604051908152f35b34610370576000366003190112610370576040517f00000000000000000000000000000000000000000000000000000000000000006001600160a01b03168152602090f35b34610370576020366003190112610370576004356001600160401b038111610370576118a3611994602061332381943690600401613394565b91908260405193849283378101600f815203019020600f600e82015491015490613677565b34610370576020366003190112610370576020906001600160a01b0361336c61337e565b16600052600d82526040600020548152f35b600435906001600160a01b038216820361037057565b9181601f84011215610370578235916001600160401b038311610370576020838186019501011161037057565b3461037057600036600319011261037057602060405160648152f35b604081019081106001600160401b03821117610a6e57604052565b90601f801991011681019081106001600160401b03821117610a6e57604052565b81601f82011215610370578035906001600160401b038211610a6e576040519261344d601f8401601f1916602001856133f8565b8284526020838301011161037057816000926020809301838601378301015290565b60005b8381106134825750506000910152565b8181015183820152602001613472565b604060031982011261037057600435906001600160401b038211610370576134bc91600401613419565b906024356001600160a01b03811681036103705790565b346103705760003660031901126103705760206040516127108152f35b9060058210156107095752565b60243590811515820361037057565b606060031982011261037057600435906001600160401b0382116103705761353691600401613394565b90916024356001600160a01b0381168103610370579060443580151581036103705790565b90600182811c9216801561358b575b602083101461357557565b634e487b7160e01b600052602260045260246000fd5b91607f169161356a565b90604051918260008254926135a98461355b565b90818452600194858116908160001461361857506001146135d5575b50506135d3925003836133f8565b565b9093915060005260209081600020936000915b8183106136005750506135d3935082010138806135c5565b855488840185015294850194879450918301916135e8565b9150506135d394506020925060ff191682840152151560051b82010138806135c5565b906020916136548151809281855285808601910161346f565b601f01601f1916010190565b60015460081c6001600160a01b03163303612a8257565b9190820180921161032457565b1561368b57565b60405162461bcd60e51b815260206004820152600c60248201526b139bdd081c1c9bdc1bdcd95960a21b6044820152606490fd5b60ff600154166136cb57565b60405163d93c066560e01b8152600490fd5b81156136e7570490565b634e487b7160e01b600052601260045260246000fd5b6040516323b872dd60e01b60208201526001600160a01b03928316602482015292909116604483015260648083019390935291815260a08101918183106001600160401b03841117610a6e576135d3926040525b906000602091828151910182855af1156137ad576000513d6137a457506001600160a01b0381163b155b6137825750565b604051635274afe760e01b81526001600160a01b039091166004820152602490fd5b6001141561377b565b6040513d6000823e3d90fd5b6002600054146137ca576002600055565b604051633ee5aeb560e01b8152600490fd5b156137e357565b60405162461bcd60e51b8152602060048201526009602482015268139bc81b585c9ad95d60ba1b6044820152606490fd5b8181029291811591840414171561032457565b9190820391821161032457565b919060018301600090828252806020526040822054156000146138b857845494680100000000000000008610156138a4576001860180825586101561389057836040949596828552602085200155549382526020522055600190565b634e487b7160e01b83526032600452602483fd5b634e487b7160e01b83526041600452602483fd5b50925050565b156138c557565b60405162461bcd60e51b815260206004820152601560248201527445766964656e63652055524c20746f6f206c6f6e6760581b6044820152606490fd5b1561390957565b60405162461bcd60e51b8152602060048201526011602482015270125b9cdd59999a58da595b9d08189bdb99607a1b6044820152606490fd5b908060209392818452848401376000828201840152601f01601f1916010190565b1561396a57565b60405162461bcd60e51b815260206004820152600a602482015269115b5c1d1e481c1bdbdb60b21b6044820152606490fd5b156139a357565b60405162461bcd60e51b815260206004820152600c60248201526b139bdd081c995cdbdb1d995960a21b6044820152606490fd5b60405163a9059cbb60e01b60208201526001600160a01b03909216602483015260448083019390935291815260808101916001600160401b03831182841017610a6e576135d392604052613751565b15613a2d57565b60405162461bcd60e51b81526020600482015260076024820152664e6f206665657360c81b6044820152606490fd5b919060405181848237602081838101600f81520301902092600085600014613b635750602090826040519384928337810160118152030190209060018060a01b03166000526020526040600020905b8154158015613b57575b613b3c57613acc600e820154600f83015490613677565b8015613b4e5761063790613ae560045460055490613677565b613af761271093849260065490613677565b04606482029082820460640361032457613b1693610644920492613827565b9215613b445760120154905b8115613b3c57613b3992600161066d920154613814565b90565b505050600090565b6013015490613b22565b50505050600090565b50600182015415613ab5565b9160206040949282865193849283376012908201908152030190206001600160a01b0390911682526020522090613aab565b606481029080820460641490151715610324576127109004624c4b4080821115613bbd575090565b905090565b908115808015613d14575b613cf2576fffffffffffffffffffffffffffffffff8211613cbd57613c8557606493613c20575b5050670de0b6b3a76400009081810291818304149015171561032457606491613c1c91613814565b0490565b670de0b6b3a764000093919293928382029180830485149015171561032457613c48916136dd565b81810291818304149015171561032457049060648210613c7c575b60968211613c73575b3880613bf4565b60969150613c6c565b60649150613c63565b60405162461bcd60e51b815260206004820152601060248201526f54617267657420706f6f6c207a65726f60801b6044820152606490fd5b60405162461bcd60e51b815260206004820152600d60248201526c506f6f6c206f766572666c6f7760981b6044820152606490fd5b5050509050670de0b6b3a7640000908181029181830414901517156103245790565b508115613bcd565b81158015613d87575b613d8057670de0b6b3a7640000918282029180830484149015171561032457613d4d916136dd565b606481029080820460641490151715610324570460648110613d7a5760968111613d745790565b50609690565b50606490565b5050606490565b508015613d25565b600681019081549160ff1990600482851617905560405191600091815491613db68361355b565b92600192838216918215613e41575050600114613e03575b50505060ff613df983600080516020613e7683398151915294604094039020948351928391166134f0565b60046020820152a2565b9091925060005260209081600020906000915b848310613e3057505050908201905060ff613df983613dce565b805486840152918301918101613e16565b168652505050801515028201905060ff613df983613dce565b6001600160a01b03811615613e6f573b151590565b5060009056fea76c3b7423c609f9756b55905a211a402af319118a555928e75d689b642bdba5a2646970667358221220ceebc63e74b6cea01afa5fd4ba7f84ee049e3cf3809bac013e40947e7d95ee7664736f6c63430008140033",
  "linkReferences": {},
  "deployedLinkReferences": {}
}