{
  "_format": "hh-sol-artifact-1",
  "contractName": "PredictionBattleV7_SECURE",
  "sourceName": "contracts/PredictionBattleV7_SECURE.sol",
  "abi": [
    {
      "inputs": [
        {
          "internalType": "address",
          "name": "_usdcAddress",
          "type": "address"
        },
        {
          "internalType": "address",
          "name": "_initialAdmin",
          "type": "address"
        },
        {
          "internalType": "address",
          "name": "_treasury",
          "type": "address"
        }
      ],
      "stateMutability": "nonpayable",
      "type": "constructor"
    },
    {
      "inputs": [],
      "name": "EnforcedPause",
      "type": "error"
    },
    {
      "inputs": [],
      "name": "ExpectedPause",
      "type": "error"
    },
    {
      "inputs": [
        {
          "internalType": "address",
          "name": "owner",
          "type": "address"
        }
      ],
      "name": "OwnableInvalidOwner",
      "type": "error"
    },
    {
      "inputs": [
        {
          "internalType": "address",
          "name": "account",
          "type": "address"
        }
      ],
      "name": "OwnableUnauthorizedAccount",
      "type": "error"
    },
    {
      "inputs": [],
      "name": "ReentrancyGuardReentrantCall",
      "type": "error"
    },
    {
      "inputs": [
        {
          "internalType": "address",
          "name": "token",
          "type": "address"
        }
      ],
      "name": "SafeERC20FailedOperation",
      "type": "error"
    },
    {
      "anonymous": false,
      "inputs": [
        {
          "indexed": true,
          "internalType": "string",
          "name": "id",
          "type": "string"
        },
        {
          "indexed": true,
          "internalType": "address",
          "name": "user",
          "type": "address"
        },
        {
          "indexed": false,
          "internalType": "bool",
          "name": "side",
          "type": "bool"
        },
        {
          "indexed": false,
          "internalType": "uint256",
          "name": "amount",
          "type": "uint256"
        },
        {
          "indexed": false,
          "internalType": "uint256",
          "name": "shares",
          "type": "uint256"
        },
        {
          "indexed": false,
          "internalType": "address",
          "name": "referrer",
          "type": "address"
        },
        {
          "indexed": false,
          "internalType": "uint256",
          "name": "weight",
          "type": "uint256"
        }
      ],
      "name": "BetPlaced",
      "type": "event"
    },
    {
      "anonymous": false,
      "inputs": [
        {
          "indexed": true,
          "internalType": "address",
          "name": "user",
          "type": "address"
        },
        {
          "indexed": false,
          "internalType": "uint256",
          "name": "amount",
          "type": "uint256"
        }
      ],
      "name": "BondWithdrawn",
      "type": "event"
    },
    {
      "anonymous": false,
      "inputs": [
        {
          "indexed": true,
          "internalType": "string",
          "name": "id",
          "type": "string"
        },
        {
          "indexed": true,
          "internalType": "address",
          "name": "winner",
          "type": "address"
        },
        {
          "indexed": false,
          "internalType": "uint256",
          "name": "totalBondReward",
          "type": "uint256"
        },
        {
          "indexed": false,
          "internalType": "bool",
          "name": "finalResult",
          "type": "bool"
        }
      ],
      "name": "DisputeResolved",
      "type": "event"
    },
    {
      "anonymous": false,
      "inputs": [
        {
          "indexed": true,
          "internalType": "address",
          "name": "treasury",
          "type": "address"
        },
        {
          "indexed": false,
          "internalType": "uint256",
          "name": "amount",
          "type": "uint256"
        }
      ],
      "name": "HouseFeeWithdrawn",
      "type": "event"
    },
    {
      "anonymous": false,
      "inputs": [
        {
          "indexed": true,
          "internalType": "string",
          "name": "id",
          "type": "string"
        },
        {
          "indexed": true,
          "internalType": "address",
          "name": "creator",
          "type": "address"
        },
        {
          "indexed": false,
          "internalType": "uint256",
          "name": "deadlineBlock",
          "type": "uint256"
        },
        {
          "indexed": false,
          "internalType": "uint256",
          "name": "bonusDuration",
          "type": "uint256"
        }
      ],
      "name": "MarketCreated",
      "type": "event"
    },
    {
      "anonymous": false,
      "inputs": [
        {
          "indexed": true,
          "internalType": "string",
          "name": "id",
          "type": "string"
        },
        {
          "indexed": false,
          "internalType": "bool",
          "name": "result",
          "type": "bool"
        },
        {
          "indexed": false,
          "internalType": "uint256",
          "name": "winnerPool",
          "type": "uint256"
        }
      ],
      "name": "MarketResolved",
      "type": "event"
    },
    {
      "anonymous": false,
      "inputs": [
        {
          "indexed": true,
          "internalType": "string",
          "name": "marketId",
          "type": "string"
        },
        {
          "indexed": false,
          "internalType": "enum PredictionBattleV7_SECURE.MarketState",
          "name": "oldState",
          "type": "uint8"
        },
        {
          "indexed": false,
          "internalType": "enum PredictionBattleV7_SECURE.MarketState",
          "name": "newState",
          "type": "uint8"
        }
      ],
      "name": "MarketStateChanged",
      "type": "event"
    },
    {
      "anonymous": false,
      "inputs": [
        {
          "indexed": true,
          "internalType": "string",
          "name": "id",
          "type": "string"
        }
      ],
      "name": "MarketVoided",
      "type": "event"
    },
    {
      "anonymous": false,
      "inputs": [
        {
          "indexed": true,
          "internalType": "string",
          "name": "id",
          "type": "string"
        },
        {
          "indexed": true,
          "internalType": "address",
          "name": "challenger",
          "type": "address"
        },
        {
          "indexed": false,
          "internalType": "uint256",
          "name": "bond",
          "type": "uint256"
        },
        {
          "indexed": false,
          "internalType": "string",
          "name": "evidence",
          "type": "string"
        }
      ],
      "name": "OutcomeChallenged",
      "type": "event"
    },
    {
      "anonymous": false,
      "inputs": [
        {
          "indexed": true,
          "internalType": "string",
          "name": "id",
          "type": "string"
        },
        {
          "indexed": true,
          "internalType": "address",
          "name": "proposer",
          "type": "address"
        },
        {
          "indexed": false,
          "internalType": "uint256",
          "name": "reward",
          "type": "uint256"
        }
      ],
      "name": "OutcomeFinalized",
      "type": "event"
    },
    {
      "anonymous": false,
      "inputs": [
        {
          "indexed": true,
          "internalType": "string",
          "name": "id",
          "type": "string"
        },
        {
          "indexed": true,
          "internalType": "address",
          "name": "proposer",
          "type": "address"
        },
        {
          "indexed": false,
          "internalType": "bool",
          "name": "result",
          "type": "bool"
        },
        {
          "indexed": false,
          "internalType": "uint256",
          "name": "bond",
          "type": "uint256"
        },
        {
          "indexed": false,
          "internalType": "uint256",
          "name": "disputeEndBlock",
          "type": "uint256"
        },
        {
          "indexed": false,
          "internalType": "string",
          "name": "evidence",
          "type": "string"
        }
      ],
      "name": "OutcomeProposed",
      "type": "event"
    },
    {
      "anonymous": false,
      "inputs": [
        {
          "indexed": true,
          "internalType": "address",
          "name": "previousOwner",
          "type": "address"
        },
        {
          "indexed": true,
          "internalType": "address",
          "name": "newOwner",
          "type": "address"
        }
      ],
      "name": "OwnershipTransferStarted",
      "type": "event"
    },
    {
      "anonymous": false,
      "inputs": [
        {
          "indexed": true,
          "internalType": "address",
          "name": "previousOwner",
          "type": "address"
        },
        {
          "indexed": true,
          "internalType": "address",
          "name": "newOwner",
          "type": "address"
        }
      ],
      "name": "OwnershipTransferred",
      "type": "event"
    },
    {
      "anonymous": false,
      "inputs": [
        {
          "indexed": false,
          "internalType": "address",
          "name": "account",
          "type": "address"
        }
      ],
      "name": "Paused",
      "type": "event"
    },
    {
      "anonymous": false,
      "inputs": [
        {
          "indexed": true,
          "internalType": "string",
          "name": "id",
          "type": "string"
        },
        {
          "indexed": true,
          "internalType": "address",
          "name": "user",
          "type": "address"
        },
        {
          "indexed": false,
          "internalType": "uint256",
          "name": "amount",
          "type": "uint256"
        }
      ],
      "name": "PayoutClaimed",
      "type": "event"
    },
    {
      "anonymous": false,
      "inputs": [
        {
          "indexed": true,
          "internalType": "string",
          "name": "id",
          "type": "string"
        },
        {
          "indexed": true,
          "internalType": "address",
          "name": "creator",
          "type": "address"
        },
        {
          "indexed": false,
          "internalType": "uint256",
          "name": "amount",
          "type": "uint256"
        }
      ],
      "name": "SeedWithdrawn",
      "type": "event"
    },
    {
      "anonymous": false,
      "inputs": [
        {
          "indexed": true,
          "internalType": "address",
          "name": "newTreasury",
          "type": "address"
        },
        {
          "indexed": false,
          "internalType": "uint256",
          "name": "executeTime",
          "type": "uint256"
        }
      ],
      "name": "TreasuryChangeProposed",
      "type": "event"
    },
    {
      "anonymous": false,
      "inputs": [
        {
          "indexed": true,
          "internalType": "address",
          "name": "oldTreasury",
          "type": "address"
        },
        {
          "indexed": true,
          "internalType": "address",
          "name": "newTreasury",
          "type": "address"
        }
      ],
      "name": "TreasuryUpdated",
      "type": "event"
    },
    {
      "anonymous": false,
      "inputs": [
        {
          "indexed": false,
          "internalType": "address",
          "name": "account",
          "type": "address"
        }
      ],
      "name": "Unpaused",
      "type": "event"
    },
    {
      "inputs": [],
      "name": "DISPUTE_BLOCKS",
      "outputs": [
        {
          "internalType": "uint256",
          "name": "",
          "type": "uint256"
        }
      ],
      "stateMutability": "view",
      "type": "function"
    },
    {
      "inputs": [],
      "name": "FEE_DENOMINATOR",
      "outputs": [
        {
          "internalType": "uint256",
          "name": "",
          "type": "uint256"
        }
      ],
      "stateMutability": "view",
      "type": "function"
    },
    {
      "inputs": [],
      "name": "MAX_BETTORS_PER_SIDE",
      "outputs": [
        {
          "internalType": "uint256",
          "name": "",
          "type": "uint256"
        }
      ],
      "stateMutability": "view",
      "type": "function"
    },
    {
      "inputs": [],
      "name": "MAX_WEIGHT",
      "outputs": [
        {
          "internalType": "uint256",
          "name": "",
          "type": "uint256"
        }
      ],
      "stateMutability": "view",
      "type": "function"
    },
    {
      "inputs": [],
      "name": "MIN_BOND",
      "outputs": [
        {
          "internalType": "uint256",
          "name": "",
          "type": "uint256"
        }
      ],
      "stateMutability": "view",
      "type": "function"
    },
    {
      "inputs": [],
      "name": "MIN_MARKET_INTERVAL",
      "outputs": [
        {
          "internalType": "uint256",
          "name": "",
          "type": "uint256"
        }
      ],
      "stateMutability": "view",
      "type": "function"
    },
    {
      "inputs": [],
      "name": "MIN_WEIGHT",
      "outputs": [
        {
          "internalType": "uint256",
          "name": "",
          "type": "uint256"
        }
      ],
      "stateMutability": "view",
      "type": "function"
    },
    {
      "inputs": [],
      "name": "REPORTER_REWARD_BPS",
      "outputs": [
        {
          "internalType": "uint256",
          "name": "",
          "type": "uint256"
        }
      ],
      "stateMutability": "view",
      "type": "function"
    },
    {
      "inputs": [],
      "name": "SHARE_PRECISION",
      "outputs": [
        {
          "internalType": "uint256",
          "name": "",
          "type": "uint256"
        }
      ],
      "stateMutability": "view",
      "type": "function"
    },
    {
      "inputs": [],
      "name": "TREASURY_TIMELOCK",
      "outputs": [
        {
          "internalType": "uint256",
          "name": "",
          "type": "uint256"
        }
      ],
      "stateMutability": "view",
      "type": "function"
    },
    {
      "inputs": [],
      "name": "acceptOwnership",
      "outputs": [],
      "stateMutability": "nonpayable",
      "type": "function"
    },
    {
      "inputs": [
        {
          "internalType": "string",
          "name": "_marketId",
          "type": "string"
        },
        {
          "internalType": "address",
          "name": "_user",
          "type": "address"
        },
        {
          "internalType": "bool",
          "name": "_assumedResult",
          "type": "bool"
        }
      ],
      "name": "calculatePotentialPayout",
      "outputs": [
        {
          "internalType": "uint256",
          "name": "",
          "type": "uint256"
        }
      ],
      "stateMutability": "view",
      "type": "function"
    },
    {
      "inputs": [
        {
          "internalType": "string",
          "name": "_marketId",
          "type": "string"
        },
        {
          "internalType": "string",
          "name": "_evidenceUrl",
          "type": "string"
        },
        {
          "internalType": "uint256",
          "name": "_bondAmount",
          "type": "uint256"
        }
      ],
      "name": "challengeOutcome",
      "outputs": [],
      "stateMutability": "nonpayable",
      "type": "function"
    },
    {
      "inputs": [
        {
          "internalType": "string",
          "name": "_marketId",
          "type": "string"
        }
      ],
      "name": "claimWinnings",
      "outputs": [],
      "stateMutability": "nonpayable",
      "type": "function"
    },
    {
      "inputs": [
        {
          "internalType": "address",
          "name": "",
          "type": "address"
        }
      ],
      "name": "claimableBonds",
      "outputs": [
        {
          "internalType": "uint256",
          "name": "",
          "type": "uint256"
        }
      ],
      "stateMutability": "view",
      "type": "function"
    },
    {
      "inputs": [
        {
          "internalType": "string",
          "name": "_id",
          "type": "string"
        },
        {
          "internalType": "string",
          "name": "_question",
          "type": "string"
        },
        {
          "internalType": "uint256",
          "name": "_usdcSeedAmount",
          "type": "uint256"
        },
        {
          "internalType": "uint256",
          "name": "_durationBlocks",
          "type": "uint256"
        },
        {
          "internalType": "uint256",
          "name": "_bonusDurationBlocks",
          "type": "uint256"
        }
      ],
      "name": "createMarket",
      "outputs": [],
      "stateMutability": "nonpayable",
      "type": "function"
    },
    {
      "inputs": [
        {
          "internalType": "address",
          "name": "",
          "type": "address"
        }
      ],
      "name": "creatorBalance",
      "outputs": [
        {
          "internalType": "uint256",
          "name": "",
          "type": "uint256"
        }
      ],
      "stateMutability": "view",
      "type": "function"
    },
    {
      "inputs": [],
      "name": "creatorFeeBps",
      "outputs": [
        {
          "internalType": "uint256",
          "name": "",
          "type": "uint256"
        }
      ],
      "stateMutability": "view",
      "type": "function"
    },
    {
      "inputs": [
        {
          "internalType": "address",
          "name": "_newTreasury",
          "type": "address"
        }
      ],
      "name": "executeTreasuryChange",
      "outputs": [],
      "stateMutability": "nonpayable",
      "type": "function"
    },
    {
      "inputs": [
        {
          "internalType": "string",
          "name": "_marketId",
          "type": "string"
        }
      ],
      "name": "finalizeOutcome",
      "outputs": [],
      "stateMutability": "nonpayable",
      "type": "function"
    },
    {
      "inputs": [
        {
          "internalType": "string",
          "name": "_marketId",
          "type": "string"
        }
      ],
      "name": "getBettorsCount",
      "outputs": [
        {
          "internalType": "uint256",
          "name": "yesCount",
          "type": "uint256"
        },
        {
          "internalType": "uint256",
          "name": "noCount",
          "type": "uint256"
        }
      ],
      "stateMutability": "view",
      "type": "function"
    },
    {
      "inputs": [
        {
          "internalType": "string",
          "name": "_marketId",
          "type": "string"
        }
      ],
      "name": "getMarketDetails",
      "outputs": [
        {
          "internalType": "enum PredictionBattleV7_SECURE.MarketState",
          "name": "state",
          "type": "uint8"
        },
        {
          "internalType": "bool",
          "name": "result",
          "type": "bool"
        },
        {
          "internalType": "uint256",
          "name": "totalYes",
          "type": "uint256"
        },
        {
          "internalType": "uint256",
          "name": "totalNo",
          "type": "uint256"
        },
        {
          "internalType": "uint256",
          "name": "deadlineBlock",
          "type": "uint256"
        },
        {
          "internalType": "address",
          "name": "creator",
          "type": "address"
        },
        {
          "internalType": "bool",
          "name": "isVoid",
          "type": "bool"
        }
      ],
      "stateMutability": "view",
      "type": "function"
    },
    {
      "inputs": [
        {
          "internalType": "string",
          "name": "_marketId",
          "type": "string"
        }
      ],
      "name": "getRequiredBond",
      "outputs": [
        {
          "internalType": "uint256",
          "name": "",
          "type": "uint256"
        }
      ],
      "stateMutability": "view",
      "type": "function"
    },
    {
      "inputs": [
        {
          "internalType": "string",
          "name": "_marketId",
          "type": "string"
        },
        {
          "internalType": "address",
          "name": "_user",
          "type": "address"
        }
      ],
      "name": "getUserBets",
      "outputs": [
        {
          "internalType": "uint256",
          "name": "yesAmount",
          "type": "uint256"
        },
        {
          "internalType": "uint256",
          "name": "noAmount",
          "type": "uint256"
        },
        {
          "internalType": "uint256",
          "name": "yesShares",
          "type": "uint256"
        },
        {
          "internalType": "uint256",
          "name": "noShares",
          "type": "uint256"
        },
        {
          "internalType": "bool",
          "name": "claimed",
          "type": "bool"
        }
      ],
      "stateMutability": "view",
      "type": "function"
    },
    {
      "inputs": [
        {
          "internalType": "string",
          "name": "",
          "type": "string"
        },
        {
          "internalType": "address",
          "name": "",
          "type": "address"
        }
      ],
      "name": "hasClaimed",
      "outputs": [
        {
          "internalType": "bool",
          "name": "",
          "type": "bool"
        }
      ],
      "stateMutability": "view",
      "type": "function"
    },
    {
      "inputs": [],
      "name": "houseBalance",
      "outputs": [
        {
          "internalType": "uint256",
          "name": "",
          "type": "uint256"
        }
      ],
      "stateMutability": "view",
      "type": "function"
    },
    {
      "inputs": [],
      "name": "houseFeeBps",
      "outputs": [
        {
          "internalType": "uint256",
          "name": "",
          "type": "uint256"
        }
      ],
      "stateMutability": "view",
      "type": "function"
    },
    {
      "inputs": [
        {
          "internalType": "address",
          "name": "",
          "type": "address"
        }
      ],
      "name": "lastMarketCreation",
      "outputs": [
        {
          "internalType": "uint256",
          "name": "",
          "type": "uint256"
        }
      ],
      "stateMutability": "view",
      "type": "function"
    },
    {
      "inputs": [
        {
          "internalType": "string",
          "name": "",
          "type": "string"
        }
      ],
      "name": "marketExists",
      "outputs": [
        {
          "internalType": "bool",
          "name": "",
          "type": "bool"
        }
      ],
      "stateMutability": "view",
      "type": "function"
    },
    {
      "inputs": [
        {
          "internalType": "string",
          "name": "",
          "type": "string"
        }
      ],
      "name": "markets",
      "outputs": [
        {
          "internalType": "string",
          "name": "id",
          "type": "string"
        },
        {
          "internalType": "address",
          "name": "creator",
          "type": "address"
        },
        {
          "internalType": "string",
          "name": "question",
          "type": "string"
        },
        {
          "internalType": "uint256",
          "name": "creationBlock",
          "type": "uint256"
        },
        {
          "internalType": "uint256",
          "name": "bonusDuration",
          "type": "uint256"
        },
        {
          "internalType": "uint256",
          "name": "deadlineBlock",
          "type": "uint256"
        },
        {
          "internalType": "enum PredictionBattleV7_SECURE.MarketState",
          "name": "state",
          "type": "uint8"
        },
        {
          "internalType": "bool",
          "name": "result",
          "type": "bool"
        },
        {
          "internalType": "bool",
          "name": "isVoid",
          "type": "bool"
        },
        {
          "internalType": "address",
          "name": "proposer",
          "type": "address"
        },
        {
          "internalType": "bool",
          "name": "proposedResult",
          "type": "bool"
        },
        {
          "internalType": "uint256",
          "name": "proposalBlock",
          "type": "uint256"
        },
        {
          "internalType": "uint256",
          "name": "bondAmount",
          "type": "uint256"
        },
        {
          "internalType": "string",
          "name": "evidenceUrl",
          "type": "string"
        },
        {
          "internalType": "address",
          "name": "challenger",
          "type": "address"
        },
        {
          "internalType": "uint256",
          "name": "challengeBondAmount",
          "type": "uint256"
        },
        {
          "internalType": "string",
          "name": "challengeEvidenceUrl",
          "type": "string"
        },
        {
          "internalType": "uint256",
          "name": "challengeBlock",
          "type": "uint256"
        },
        {
          "internalType": "uint256",
          "name": "totalYes",
          "type": "uint256"
        },
        {
          "internalType": "uint256",
          "name": "totalNo",
          "type": "uint256"
        },
        {
          "internalType": "uint256",
          "name": "seedYes",
          "type": "uint256"
        },
        {
          "internalType": "uint256",
          "name": "seedNo",
          "type": "uint256"
        },
        {
          "internalType": "uint256",
          "name": "totalSharesYes",
          "type": "uint256"
        },
        {
          "internalType": "uint256",
          "name": "totalSharesNo",
          "type": "uint256"
        }
      ],
      "stateMutability": "view",
      "type": "function"
    },
    {
      "inputs": [],
      "name": "maxBetAmount",
      "outputs": [
        {
          "internalType": "uint256",
          "name": "",
          "type": "uint256"
        }
      ],
      "stateMutability": "view",
      "type": "function"
    },
    {
      "inputs": [],
      "name": "maxMarketPool",
      "outputs": [
        {
          "internalType": "uint256",
          "name": "",
          "type": "uint256"
        }
      ],
      "stateMutability": "view",
      "type": "function"
    },
    {
      "inputs": [
        {
          "internalType": "string",
          "name": "",
          "type": "string"
        },
        {
          "internalType": "address",
          "name": "",
          "type": "address"
        }
      ],
      "name": "noBets",
      "outputs": [
        {
          "internalType": "uint256",
          "name": "amount",
          "type": "uint256"
        },
        {
          "internalType": "uint256",
          "name": "shares",
          "type": "uint256"
        },
        {
          "internalType": "address",
          "name": "referrer",
          "type": "address"
        },
        {
          "internalType": "bool",
          "name": "claimed",
          "type": "bool"
        }
      ],
      "stateMutability": "view",
      "type": "function"
    },
    {
      "inputs": [],
      "name": "owner",
      "outputs": [
        {
          "internalType": "address",
          "name": "",
          "type": "address"
        }
      ],
      "stateMutability": "view",
      "type": "function"
    },
    {
      "inputs": [],
      "name": "pause",
      "outputs": [],
      "stateMutability": "nonpayable",
      "type": "function"
    },
    {
      "inputs": [],
      "name": "paused",
      "outputs": [
        {
          "internalType": "bool",
          "name": "",
          "type": "bool"
        }
      ],
      "stateMutability": "view",
      "type": "function"
    },
    {
      "inputs": [],
      "name": "pendingOwner",
      "outputs": [
        {
          "internalType": "address",
          "name": "",
          "type": "address"
        }
      ],
      "stateMutability": "view",
      "type": "function"
    },
    {
      "inputs": [
        {
          "internalType": "bytes32",
          "name": "",
          "type": "bytes32"
        }
      ],
      "name": "pendingTreasuryChange",
      "outputs": [
        {
          "internalType": "uint256",
          "name": "",
          "type": "uint256"
        }
      ],
      "stateMutability": "view",
      "type": "function"
    },
    {
      "inputs": [
        {
          "internalType": "string",
          "name": "_marketId",
          "type": "string"
        },
        {
          "internalType": "bool",
          "name": "_side",
          "type": "bool"
        },
        {
          "internalType": "uint256",
          "name": "_usdcAmount",
          "type": "uint256"
        },
        {
          "internalType": "uint256",
          "name": "_minSharesOut",
          "type": "uint256"
        },
        {
          "internalType": "address",
          "name": "_referrer",
          "type": "address"
        }
      ],
      "name": "placeBet",
      "outputs": [],
      "stateMutability": "nonpayable",
      "type": "function"
    },
    {
      "inputs": [
        {
          "internalType": "string",
          "name": "_marketId",
          "type": "string"
        },
        {
          "internalType": "bool",
          "name": "_result",
          "type": "bool"
        },
        {
          "internalType": "string",
          "name": "_evidenceUrl",
          "type": "string"
        },
        {
          "internalType": "uint256",
          "name": "_bondAmount",
          "type": "uint256"
        }
      ],
      "name": "proposeOutcome",
      "outputs": [],
      "stateMutability": "nonpayable",
      "type": "function"
    },
    {
      "inputs": [
        {
          "internalType": "address",
          "name": "_newTreasury",
          "type": "address"
        }
      ],
      "name": "proposeTreasuryChange",
      "outputs": [],
      "stateMutability": "nonpayable",
      "type": "function"
    },
    {
      "inputs": [],
      "name": "referrerFeeBps",
      "outputs": [
        {
          "internalType": "uint256",
          "name": "",
          "type": "uint256"
        }
      ],
      "stateMutability": "view",
      "type": "function"
    },
    {
      "inputs": [],
      "name": "renounceOwnership",
      "outputs": [],
      "stateMutability": "nonpayable",
      "type": "function"
    },
    {
      "inputs": [
        {
          "internalType": "string",
          "name": "_marketId",
          "type": "string"
        },
        {
          "internalType": "address",
          "name": "_winnerAddress",
          "type": "address"
        },
        {
          "internalType": "bool",
          "name": "_finalResult",
          "type": "bool"
        }
      ],
      "name": "resolveDispute",
      "outputs": [],
      "stateMutability": "nonpayable",
      "type": "function"
    },
    {
      "inputs": [
        {
          "internalType": "address",
          "name": "",
          "type": "address"
        }
      ],
      "name": "rewardsBalance",
      "outputs": [
        {
          "internalType": "uint256",
          "name": "",
          "type": "uint256"
        }
      ],
      "stateMutability": "view",
      "type": "function"
    },
    {
      "inputs": [
        {
          "internalType": "string",
          "name": "",
          "type": "string"
        }
      ],
      "name": "seedWithdrawn",
      "outputs": [
        {
          "internalType": "bool",
          "name": "",
          "type": "bool"
        }
      ],
      "stateMutability": "view",
      "type": "function"
    },
    {
      "inputs": [
        {
          "internalType": "address",
          "name": "newOwner",
          "type": "address"
        }
      ],
      "name": "transferOwnership",
      "outputs": [],
      "stateMutability": "nonpayable",
      "type": "function"
    },
    {
      "inputs": [],
      "name": "treasury",
      "outputs": [
        {
          "internalType": "address",
          "name": "",
          "type": "address"
        }
      ],
      "stateMutability": "view",
      "type": "function"
    },
    {
      "inputs": [],
      "name": "unpause",
      "outputs": [],
      "stateMutability": "nonpayable",
      "type": "function"
    },
    {
      "inputs": [],
      "name": "usdcToken",
      "outputs": [
        {
          "internalType": "contract IERC20",
          "name": "",
          "type": "address"
        }
      ],
      "stateMutability": "view",
      "type": "function"
    },
    {
      "inputs": [
        {
          "internalType": "string",
          "name": "_marketId",
          "type": "string"
        }
      ],
      "name": "voidMarket",
      "outputs": [],
      "stateMutability": "nonpayable",
      "type": "function"
    },
    {
      "inputs": [],
      "name": "withdrawBond",
      "outputs": [],
      "stateMutability": "nonpayable",
      "type": "function"
    },
    {
      "inputs": [],
      "name": "withdrawCreatorFees",
      "outputs": [],
      "stateMutability": "nonpayable",
      "type": "function"
    },
    {
      "inputs": [],
      "name": "withdrawHouseFees",
      "outputs": [],
      "stateMutability": "nonpayable",
      "type": "function"
    },
    {
      "inputs": [],
      "name": "withdrawReferrerFees",
      "outputs": [],
      "stateMutability": "nonpayable",
      "type": "function"
    },
    {
      "inputs": [
        {
          "internalType": "string",
          "name": "_marketId",
          "type": "string"
        }
      ],
      "name": "withdrawSeed",
      "outputs": [],
      "stateMutability": "nonpayable",
      "type": "function"
    },
    {
      "inputs": [
        {
          "internalType": "string",
          "name": "",
          "type": "string"
        },
        {
          "internalType": "address",
          "name": "",
          "type": "address"
        }
      ],
      "name": "yesBets",
      "outputs": [
        {
          "internalType": "uint256",
          "name": "amount",
          "type": "uint256"
        },
        {
          "internalType": "uint256",
          "name": "shares",
          "type": "uint256"
        },
        {
          "internalType": "address",
          "name": "referrer",
          "type": "address"
        },
        {
          "internalType": "bool",
          "name": "claimed",
          "type": "bool"
        }
      ],
      "stateMutability": "view",
      "type": "function"
    }
  ],
  "bytecode": "0x60a0346200025257601f620040e638819003918201601f191683019291906001600160401b0384118385101762000257578160609284926040968752833981010312620002525762000051816200026d565b6200006c8362000064602085016200026d565b93016200026d565b60016000556001600160a01b038381169182156200023a57600280546001600160a01b031990811690915560018054610100600160a81b03198116600898891b610100600160a81b0316179091558751969194911c83167f8be0079c531659141344cd1fd0a4f28419497f9722a3daafe3b4186f6b6457e0600080a36103e86004556101f48060055560065564174876e80060075564e8d4a5100060085581841694851562000209575016918215620001d2573b156200018e57600354161760035560805251613e6390816200028382396080518181816104f90152818161082b01528181610bbc015281816113bf015281816114f80152818161158a0152818161192001528181611d490152818161239f01528181612b2401526132610152f35b835162461bcd60e51b815260206004820152601560248201527f55534443206d75737420626520636f6e747261637400000000000000000000006044820152606490fd5b845162461bcd60e51b815260206004820152601060248201526f496e76616c696420547265617375727960801b6044820152606490fd5b62461bcd60e51b815260206004820152600c60248201526b496e76616c6964205553444360a01b6044820152606490fd5b8551631e4fbdf760e01b815260006004820152602490fd5b600080fd5b634e487b7160e01b600052604160045260246000fd5b51906001600160a01b0382168203620002525756fe61016080604052600436101561001457600080fd5b60003560e01c9081626fb9ff146132ee575080630e90aeb21461329057806311eac8551461324b57806317773ebb1461322d5780631caed77c146131f35780632023115d14612fe3578063214529ad14612fc5578063218b538214612f72578063245fc02614612f77578063327abb4814612f7257806335eea24b14612f0a57806337b150da14612eed5780633bc6f60614612df15780633cff354914612db05780633f4ba83a14612d465780633fed6ced14612ce557806345d98ccb1461162f57806359f5a41f14612cc75780635c975abb14612ca45780635e578a5614612bf75780635fc5e02014612bd457806361d027b314612bab57806366eb9cec14612adf57806367084eb314612ac1578063715018a614612a5057806379ba5097146129b25780638456cb5914612959578063896bdac81461291f5780638da5cb5b146128f25780639a826eb7146128865780639bd1d513146122a4578063a07c163314612286578063a8d9699d14612269578063c227955a14611c35578063c5479faf14611813578063c814660c146117ef578063c8eaef191461167e578063cab11d5d14611660578063d031639b14611634578063d73792a91461162f578063dbeae54c146115ae578063dfdc5f7714611541578063e0de0fee14611523578063e1cd04b4146114af578063e1e90ab314611291578063e30c397814611268578063e4a28a521461124c578063e4de823214611171578063e6cd7ab614611137578063ee59d24014611119578063ef03c10e14610eb5578063efbda66114610c66578063f2fde38b14610bf3578063f677b4d414610b53578063f69be5021461071f578063fdbcf125146103755763fe1140a31461029257600080fd5b3461037057602080600319360112610370576102ac613324565b6102b4613606565b6001600160a01b031690811561033a57604051818101908382528281526102da81613383565b519020906202a3004201804211610324577f2fdb8aa18e3708b0dfed4acb0de7452e85e7f833b1b055880cef38e8bee690b592600052600e825280604060002055604051908152a2005b634e487b7160e01b600052601160045260246000fd5b6064906040519062461bcd60e51b82526004820152600f60248201526e496e76616c6964206164647265737360881b6044820152fd5b600080fd5b3461037057602080600319360112610370576004356001600160401b038111610370576103a690369060040161333a565b6103b192919261375f565b6103d160ff60405183868237848185810160108152030190205416613782565b604051818482378281838101600f81520301902092600684015460ff811660058110156107095760046104049114613942565b604051838382378481858101601381520301902033600052845260ff604060002054166106d25760006040518484823785818681016011815203019020336000528552604060002095604051858582378681878101601281520301902033600052865260406000209260ff8160101c166000146105ac5750505061048b855482549061361d565b945b851561057457907f2f0b27a029bcea8b4cd6e1f002ba498bd37b903b56578a04f1576cd25c09de5393929160405184848237868186810160138152030190203360005286526040600020600160ff19825416179055805461055a575b508054610540575b5061051d85337f000000000000000000000000000000000000000000000000000000000000000061397d565b816040519283928337810160008152039020916040519384523393a36001600055005b600201805460ff60a01b1916600160a01b179055856104f1565b600201805460ff60a01b1916600160a01b179055866104e9565b60405162461bcd60e51b815260048101869052601060248201526f4e6f7468696e6720746f20636c61696d60801b6044820152606490fd5b91969160081c60ff1680156106cb5782915b82541515806106be575b6105d5575b50505061048d565b90919297506105ed600e820154600f8301549061361d565b80156105f98115613909565b6064820290828204606414171561032457610644610649926106206004546005549061361d565b9261063d610637612710809304956006549061361d565b836137ba565b04906137cd565b6137cd565b91156106b45760120154915b821561067b576106729291600161066d9201546137ba565b613683565b948680806105cd565b60405162461bcd60e51b81526004810188905260116024820152704e6f2077696e6e696e672073686172657360781b6044820152606490fd5b6013015491610655565b50600183015415156105c8565b83916105be565b60405162461bcd60e51b815260048101859052600f60248201526e105b1c9958591e4818db185a5b5959608a1b6044820152606490fd5b634e487b7160e01b600052602160045260246000fd5b34610370576060366003190112610370576004356001600160401b0381116103705761074f90369060040161333a565b6024356001600160401b0381116103705761076e90369060040161333a565b91610777613665565b61077f61375f565b6107a060ff6040518387823760208185810160108152030190205416613782565b6107ae610100841115613864565b60405181858237602081838101600f8152030190209360068501805460ff811660058110156107095760026107e3911461362a565b60078701546154608101809111610324574311610b1e5761080c600888015460443510156138a8565b3360189190911c6001600160a01b031614610ae15761084f60443530337f00000000000000000000000000000000000000000000000000000000000000006136a3565b805490600360ff1983161790556040516000875461086c81613501565b9060018116908115610acb5750600114610a96575b5060ff6108bc837fa76c3b7423c609f9756b55905a211a402af319118a555928e75d689b642bdba59460409403902094835192839116613496565b60036020820152a2600a850180546001600160a01b03191633179055604435600b860155600c8501946001600160401b038511610a80576108fd8654613501565b601f8111610a38575b50600095601f86116001146109a95790610994939291867f4bd7c92eba598ee7ab038ac4a59ab8feb6d65703229128829d6cdd17959b121f96979860009161099e575b508860011b906000198a60031b1c19161790555b600d4391015581604051928392833781016000815203902092604051918291604435835260406020840152339660408401916138e8565b0390a36001600055005b905087013589610949565b601f1986168160005260206000209060005b818110610a2057509087987f4bd7c92eba598ee7ab038ac4a59ab8feb6d65703229128829d6cdd17959b121f9798610994979695949310610a06575b5050600188811b01905561095d565b88013560001960038b901b60f8161c1916905588806109f7565b878a013583556020998a0199600190930192016109bb565b866000526020600020601f870160051c81019160208810610a76575b601f0160051c01905b818110610a6a5750610906565b60008155600101610a5d565b9091508190610a54565b634e487b7160e01b600052604160045260246000fd5b90508760005260206000206000905b828210610ab7575050810160ff610881565b600181602092548487015201910190610aa5565b60ff1916845250801515028201905060ff610881565b60405162461bcd60e51b815260206004820152601560248201527443616e6e6f742073656c662d6368616c6c656e676560581b6044820152606490fd5b60405162461bcd60e51b815260206004820152600d60248201526c15da5b991bddc818db1bdcd959609a1b6044820152606490fd5b3461037057600036600319011261037057610b6c613606565b610b7461375f565b600a54610b828115156139cc565b6000600a557f19f7a31ae4185f3274e252a5a78ec36ba85c01300bc8a800d41d79be74662a8e602060018060a01b03610be08482600354167f000000000000000000000000000000000000000000000000000000000000000061397d565b6003541692604051908152a26001600055005b3461037057602036600319011261037057610c0c613324565b610c14613606565b60018060a01b0380911690816bffffffffffffffffffffffff60a01b600254161760025560015460081c167f38d16b8cac22d99fc7c124b9cd0de2d3fa1faef420bfe791d8c362d765e22700600080a3005b34610370576020366003190112610370576004356001600160401b03811161037057610c969036906004016133bf565b6040518181809351602081930191610cad92613415565b8101600f8152036020019020610cc28161353b565b60018201546001600160a01b03166101205290610ce16002820161353b565b61014052600381015491600482015492600583015490600684015460078501549160088601549060098701610d159061353b565b91600160a01b60019003600a8901541694600b89015494600c8a01610d399061353b565b97600d8b0154608052600e8b01549b600f8c01549a60108d01549c601181015461010052601281015460c0526013015460e0526040518060a05261030080915260a05101610d86916135e1565b6101205160a0516020015260a05180820390604001526101405190610daa916135e1565b9560a0516060015260a0516080015260a05160a0015260a05160c00160ff821690610dd491613496565b8060081c60ff16151560a05160e001528060101c60ff16151560a0516101000152600160a01b600190038160181c1660a051610120015260b81c60ff16151560a051610140015260a051610160015260a051610180015260a051808203906101a00152610e40916135e1565b9160a0516101c0015260a0516101e0015260a051808203906102000152610e66916135e1565b9260805160a051610220015260a051610240015260a051610260015260a05161028001526101005160a0516102a0015260c05160a0516102c0015260e05160a0516102e0015260a05180910390f35b3461037057610ec3366134b2565b929091610ece613606565b610ed661375f565b6040519281838537610efb60ff85848101601081526020978891030190205416613782565b604051828482378481848101600f81520301902090600682019081549060ff82166005811015610709576003036110e5576001600160a01b039081169160181c811682149081156110d5575b501561109f576008830195865496610f65600b86019889549061361d565b97600e860195865495610f7e600f83019788549061361d565b928315610f8b8115613909565b6064850294850460641417156103245760007f38b360c485b4bed5c0c2e2ab639b104b4e002dbf7351d0d4431e48b6d9e2bfce956110308f7f175b08e6ee8bbceb85780e790adca99ec4fbd3bb124ffbf50bd35ed4375a69ac9f95611018610ffb869861271060409c049061361d565b988d8752600d8d528a87206110118b825461361d565b9055613d35565b9061ff00825491151560081b169061ff001916179055565b55558151888a823780898101600081520390209382519182528b151590820152a38515611096575054915b8160405192839283378101600081520390209261108c60405192839283602090939291936040810194151581520152565b0390a26001600055005b9050549161105b565b60405162461bcd60e51b815260048101879052600e60248201526d24b73b30b634b2103bb4b73732b960911b6044820152606490fd5b9050600a84015416811488610f47565b60405162461bcd60e51b815260048101889052600c60248201526b139bdd08191a5cdc1d5d195960a21b6044820152606490fd5b34610370576000366003190112610370576020600454604051908152f35b34610370576020366003190112610370576001600160a01b03611158613324565b16600052600b6020526020604060002054604051908152f35b34610370576040366003190112610370576004356001600160401b038111610370576111a190369060040161333a565b6024356001600160a01b038116908190036103705760a0926040519183828437828481016011815260209485910301902081600052835260406000206040518584823784818781016012815203019020826000528452604060002091815495856001808654950154950154958260405193849283378101601381520301902090600052845260ff60406000205416936040519586528501526040840152606083015215156080820152f35b3461037057600036600319011261037057602060405160968152f35b34610370576000366003190112610370576002546040516001600160a01b039091168152602090f35b3461037057602080600319360112610370576004356001600160401b038111610370576112c290369060040161333a565b6112cd92919261375f565b6112ed60ff60405183868237848185810160108152030190205416613782565b604051818482378281838101600f815203019020600681015460ff811690600582101561070957611322600460ff9314613942565b60101c161561147f5760018101546001600160a01b0316330361144b5760ff6040518386823784818581016014815203019020541661141257806011601061136f9301549101549061361d565b9283156113e357907f3ff50bb01a71ba44b43b95e691fe785159d1c403efd991b82f3b5f62a2d8148a916040518282823784818481016014815203019020600160ff1982541617905561051d85337f000000000000000000000000000000000000000000000000000000000000000061397d565b60405162461bcd60e51b8152600481018490526007602482015266139bc81cd9595960ca1b6044820152606490fd5b60405162461bcd60e51b815260048101849052601160248201527020b63932b0b23c903bb4ba34323930bbb760791b6044820152606490fd5b60405162461bcd60e51b815260048101849052600c60248201526b27b7363c9031b932b0ba37b960a11b6044820152606490fd5b60405162461bcd60e51b8152600481018490526008602482015267139bdd081d9bda5960c21b6044820152606490fd5b34610370576000366003190112610370576114c861375f565b33600052600b60205261151c6040600020546114e58115156139cc565b33600052600b60205260006040812055337f000000000000000000000000000000000000000000000000000000000000000061397d565b6001600055005b34610370576000366003190112610370576020604051624c4b408152f35b346103705760003660031901126103705761155a61375f565b33600052600c60205261151c6040600020546115778115156139cc565b33600052600c60205260006040812055337f000000000000000000000000000000000000000000000000000000000000000061397d565b346103705760206115d66115c136613438565b92908160405193828580945193849201613415565b6011908201908152030190206001600160a01b0391821660009081526020918252604090819020805460018201546002909201548351918252938101919091529282169083015260a01c60ff1615156060820152608090f35b613479565b3461037057602036600319011261037057600435600052600e6020526020604060002054604051908152f35b34610370576000366003190112610370576020600754604051908152f35b34610370576020366003190112610370576004356001600160401b038111610370576116ae90369060040161333a565b906116b7613606565b60405182828237602081848101600f815203019020600681019081549060ff82166005811015610709576004146117b75761170f9160088201805480611787575b505050600b810180549081611757575b5050613d35565b6201000062ff0000198254161790558160405192839283378101600081520390207f1e9a51575531367c4323c60efe8c5b980af66cd0509c86d8f4e1a3d9c9001700600080a2005b60009160018060a01b03600a850154168352600d60205261177d6040842091825461361d565b9055558580611708565b60009260018060a01b039060181c168352600d6020526117ac6040842091825461361d565b9055558580806116f8565b60405162461bcd60e51b815260206004820152601060248201526f105b1c9958591e481c995cdbdb1d995960821b6044820152606490fd5b3461037057602061180b611802366134b2565b92919091613a02565b604051908152f35b34610370576080366003190112610370576004356001600160401b0381116103705761184390369060040161333a565b61184b6134a3565b906044356001600160401b0381116103705761186b90369060040161333a565b939092611876613665565b61187e61375f565b61189f60ff6040518585823760208187810160108152030190205416613782565b6118ad610100861115613864565b60405183838237602081858101600f81520301902060ff6006820154166005811015610709578015908115611c2a575b5015611bf55760058101544310611bc45761191661190c611907600e840154600f8501549061361d565b613b3b565b60643510156138a8565b61194460643530337f00000000000000000000000000000000000000000000000000000000000000006136a3565b600681015491600260ff1984161760068301556040516000835461196781613501565b9060018116908115611baf5750600114611b7b575b509181600292600995940390207fa76c3b7423c609f9756b55905a211a402af319118a555928e75d689b642bdba5604080516119bb8160ff8b16613496565b856020820152a262ffff01600160c01b03199094163360181b6301000000600160b81b03161793151560b881901b60ff60b81b16949094171760068201554360078201556064356008820155016001600160401b038611610a8057611a208154613501565b601f8111611b33575b50856000601f8211600114611acd57600091611ac2575b508660011b906000198860031b1c19161790555b6154604301918243116103245783610994917f5247f2366f7e70fc0b5fc61f486408d977047c08d356ffb76c3d35832ceeaf269560405192839283378101600081520390209460405193849384526064356020850152604084015260806060840152339660808401916138e8565b905085013587611a40565b60008381526020812092508890601f198216905b818110611b18575010611afe575b5050600186811b019055611a54565b860135600019600389901b60f8161c191690558680611aef565b8984013585556001909401936020938401938b935001611ae1565b816000526020600020601f880160051c81019160208910611b71575b601f0160051c01905b818110611b655750611a29565b60008155600101611b58565b9091508190611b4f565b90508360005260206000206000905b828210611b9b57505081018161197c565b600181602092548487015201910190611b8a565b60ff191684525080151502820190508161197c565b60405162461bcd60e51b8152602060048201526009602482015268139bdd08195b99195960ba1b6044820152606490fd5b60405162461bcd60e51b815260206004820152600d60248201526c496e76616c696420737461746560981b6044820152606490fd5b6001915014876118dd565b346103705760a0366003190112610370576004356001600160401b03811161037057611c6590369060040161333a565b611c6d6134a3565b916084356001600160a01b038116810361037057611c89613665565b611c9161375f565b611cb260ff6040518585823760208187810160108152030190205416613782565b60405183838237602081858101600f81520301902060ff60068201541660058110156107095761223957600581015443101561220a57604435156121d757600754604435116121a257611d1a600e820154611d1560443591600f8501549061361d565b61361d565b60085410612167576001600160a01b038216331461212e57611d3b82613e12565b6120e957611d6d60443530337f00000000000000000000000000000000000000000000000000000000000000006136a3565b612710611d7e6004546044356137ba565b0493612710611d916005546044356137ba565b0460006001600160a01b0385161515806120cf575b61208b575b611dc2611dcb91610644846106448b6044356137cd565b96600a5461361d565b600a5560018060a01b03600184015416600052600b602052611df3604060002091825461361d565b9055611e2b611e0b600384015460048501549061361d565b431087156120805786600e8501545b891561207557600f86015490613b68565b91606435831061203757861561200e57611e4986600e83015461361d565b600e82015560128101611e5d84825461361d565b90555b8615611fe65760405182868237602081848101601181520301902033600052602052600260406000205b611e9588825461361d565b815560018101611ea686825461361d565b90550180546001600160a01b0319166001600160a01b0386161790558615611fcb57604051828682376020818481016015815203019020905b61271082541015611f9057611ef8611f169233906137da565b508715611f8557600f810154905b8815611f7b57600e015490613cc2565b938160405192839283378101600081520390209360405195151586526020860152604085015260018060a01b0316606084015260808301527fa994696d1a657073ceaa15fbacd649938053ce8bee7de30ec1c28d337cc37b2360a03393a36001600055005b600f015490613cc2565b600e81015490611f06565b60405162461bcd60e51b815260206004820152601360248201527213585e0818995d1d1bdc9cc81c995858da1959606a1b6044820152606490fd5b60405182868237602081848101601681520301902090611edf565b6040518286823760208184810160128152030190203360005260205260026040600020611e8a565b61201c86600f83015461361d565b600f8201556013810161203084825461361d565b9055611e60565b60405162461bcd60e51b815260206004820152601660248201527514db1a5c1c1859d94e8813d9191cc818da185b99d95960521b6044820152606490fd5b600e86015490613b68565b86600f850154611e1a565b50611dcb611dc26127106120a36006546044356137ba565b0460018060a01b038716600052600c60205260406000206120c582825461361d565b9055915050611dab565b5060018401546001600160a01b0386811691161415611da6565b60405162461bcd60e51b815260206004820152601b60248201527f52656665727265722063616e6e6f7420626520636f6e747261637400000000006044820152606490fd5b60405162461bcd60e51b815260206004820152601160248201527021b0b73737ba1039b2b63316b932b332b960791b6044820152606490fd5b60405162461bcd60e51b8152602060048201526013602482015272141bdbdb081b1a5b5a5d08195e18d959591959606a1b6044820152606490fd5b60405162461bcd60e51b815260206004820152600d60248201526c42657420746f6f206c6172676560981b6044820152606490fd5b60405162461bcd60e51b815260206004820152600b60248201526a16995c9bc8185b5bdd5b9d60aa1b6044820152606490fd5b60405162461bcd60e51b8152602060048201526007602482015266115e1c1a5c995960ca1b6044820152606490fd5b60405162461bcd60e51b81526020600482015260086024820152672737ba1037b832b760c11b6044820152606490fd5b346103705760003660031901126103705760206040516154608152f35b34610370576000366003190112610370576020600654604051908152f35b346103705760a0366003190112610370576004356001600160401b038111610370576122d490369060040161333a565b6024356001600160401b038111610370576122f390369060040161333a565b6122fe929192613665565b61230661375f565b8115158061287b575b1561284257600a81101580612836575b156127f15760ff60405183868237602081858101601081520301902054166127bc576044351515806127af575b1561277b5760085460443511612745576064351561270d57336000526009602052604060002054610e1081018091116103245742106126db57336000526009602052426040600020556123c360443530337f00000000000000000000000000000000000000000000000000000000000000006136a3565b60405182858237602081848101600f815203019020926001600160401b038311610a80576123f18454613501565b601f8111612695575b50826000601f821160011461263057600091612625575b508360011b906000198560031b1c19161784555b6001840180546001600160a01b031916331790556001600160401b038211610a805781906124566002860154613501565b601f81116125d4575b50600090601f831160011461256357600092612558575b50508160011b916000199060031b1c19161760028301555b43600383015560843591821561255057825b60048201556124b16064354361361d565b9060058101918255600681019060ff1991828154169055601160443560011c9182600e82015582600f820155826010820155015560016040518487823760208186810160108152030190209182541617905554928160405192839283378101600081520390209060405192835260208301527fccdee9db8c345dd53026f5dedbf3e8b723ceddd2ad8eeb96b00ce37fddd58b6460403393a36001600055005b6064356124a0565b013590508580612476565b909250600285016000526020600020906000935b601f19841685106125bc576001945083601f198116106125a2575b505050811b01600283015561248e565b0135600019600384901b60f8161c19169055858080612592565b81810135835560209485019460019093019201612577565b909150600285016000526020600020601f840160051c81016020851061261e575b90601f8594930160051c01905b81811061260f575061245f565b60008155849350600101612602565b50806125f5565b905085013586612411565b60008681526020812092505b601f198616811061267d575084601f19811610612663575b5050600183811b018455612425565b860135600019600386901b60f8161c191690558580612654565b9091602060018192858b01358155019301910161263c565b846000526020600020601f850160051c8101602086106126d4575b601f90920160051c01905b8181106126c857506123fa565b600081556001016126bb565b50806126b0565b60405162461bcd60e51b815260206004820152600a60248201526914985d19481b1a5b5a5d60b21b6044820152606490fd5b60405162461bcd60e51b815260206004820152601060248201526f24b73b30b634b210323ab930ba34b7b760811b6044820152606490fd5b60405162461bcd60e51b815260206004820152600e60248201526d5365656420746f6f206c6172676560901b6044820152606490fd5b60405162461bcd60e51b815260206004820152600c60248201526b125b9d985b1a59081cd9595960a21b6044820152606490fd5b506001604435161561234c565b60405162461bcd60e51b815260206004820152600d60248201526c4d61726b65742065786973747360981b6044820152606490fd5b60405162461bcd60e51b815260206004820152601760248201527f496e76616c6964207175657374696f6e206c656e6774680000000000000000006044820152606490fd5b506101f481111561231f565b60405162461bcd60e51b8152602060048201526011602482015270092dcecc2d8d2c840928840d8cadccee8d607b1b6044820152606490fd5b50604082111561230f565b346103705760206128996115c136613438565b6012908201908152030190206001600160a01b0391821660009081526020918252604090819020805460018201546002909201548351918252938101919091529282169083015260a01c60ff1615156060820152608090f35b346103705760003660031901126103705760015460405160089190911c6001600160a01b03168152602090f35b34610370576020366003190112610370576001600160a01b03612940613324565b16600052600c6020526020604060002054604051908152f35b3461037057600036600319011261037057612972613606565b61297a613665565b600160ff19815416176001557f62e78cea01bee320cd4e420270b5ea74000d11b0c9f74754ebdbfc544b05a2586020604051338152a1005b34610370576000366003190112610370576002546001600160a01b03903382821603612a38576001600160a01b03191660025560018054610100600160a81b0319811633600881811b610100600160a81b0316929092179093559192911c167f8be0079c531659141344cd1fd0a4f28419497f9722a3daafe3b4186f6b6457e0600080a3005b60405163118cdaa760e01b8152336004820152602490fd5b3461037057600036600319011261037057612a69613606565b600280546001600160a01b031916905560018054610100600160a81b0319811690915560009060081c6001600160a01b03167f8be0079c531659141344cd1fd0a4f28419497f9722a3daafe3b4186f6b6457e08280a3005b34610370576000366003190112610370576020600a54604051908152f35b3461037057600036600319011261037057612af861375f565b33600052600d6020526040600020548015612b7b5733600052600d60205260006040812055612b4881337f000000000000000000000000000000000000000000000000000000000000000061397d565b6040519081527f0d41118e36df44efb77a471fc49fb9c0be0406d802ef95520e9fbf606e65b45560203392a26001600055005b60405162461bcd60e51b81526020600482015260086024820152674e6f20626f6e647360c01b6044820152606490fd5b34610370576000366003190112610370576003546040516001600160a01b039091168152602090f35b34610370576000366003190112610370576020604051670de0b6b3a76400008152f35b34610370576020366003190112610370576004356001600160401b038111610370576020612c2b60e092369060040161333a565b91908260405193849283378101600f81520301902060ff6006820154600e83015492600f810154906005810154906001808060a01b03910154169160405195612c7687878716613496565b858560081c161515602088015260408701526060860152608085015260a084015260101c16151560c0820152f35b3461037057600036600319011261037057602060ff600154166040519015158152f35b34610370576000366003190112610370576020600854604051908152f35b34610370576020366003190112610370576004356001600160401b0381116103705760ff612d306020612d1d819436906004016133bf565b8160405193828580945193849201613415565b8101601081520301902054166040519015158152f35b3461037057600036600319011261037057612d5f613606565b60015460ff811615612d9e5760ff19166001557f5db9ee0a495bf2e6ff9c91a7834c1ba4fdd244a5e8aa4e537bd38aeae4b073aa6020604051338152a1005b604051638dfc202b60e01b8152600490fd5b34610370576020612dc36115c136613438565b810160138152030190209060018060a01b0316600052602052602060ff604060002054166040519015158152f35b346103705760208060031936011261037057612e0b613324565b612e13613606565b6040516001600160a01b03918216838201818152848352909391612e3681613383565b5190209081600052600e8152612e52604060002054151561362a565b81600052600e81526040600020544210612eb757600e9060035492856bffffffffffffffffffffffff60a01b8516176003556000525260006040812055167f4ab5be82436d353e61ca18726e984e561f5c1cc7c6d38b29d2553c790434705a600080a3005b6064906040519062461bcd60e51b82526004820152600f60248201526e54696d656c6f636b2061637469766560881b6044820152fd5b34610370576000366003190112610370576020604051610e108152f35b34610370576020366003190112610370576004356001600160401b03811161037057612f3c604091369060040161333a565b60208351828482378181848101601581520301902054928285519384928337810160168152030190205482519182526020820152f35b613367565b34610370576020366003190112610370576004356001600160401b0381116103705760ff612faf6020612d1d819436906004016133bf565b8101601481520301902054166040519015158152f35b346103705760003660031901126103705760206040516202a3008152f35b3461037057602080600319360112610370576004356001600160401b0381116103705761301490369060040161333a565b9061301d61375f565b61303d60ff60405184848237858186810160108152030190205416613782565b604051828282378381848101600f8152030190209160068301805460ff81166005811015610709576002613071911461362a565b60078501546154608101809111610324574311156131be57600885018054600e87018054600f89018054909a9296949560181c6001600160a01b03169392916130ba919061361d565b9081156130c78115613909565b60648302928304606414171561032457600060ff966131477f175b08e6ee8bbceb85780e790adca99ec4fbd3bb124ffbf50bd35ed4375a69ac9c6131316127107fe2b1d963f1ec20d10d097a5196a0a9e7b5ff982020b428f20918fe52a2234edf9704809861361d565b888552600d86526110116040862091825461361d565b865461ff0019811660b89190911c8916151560081b61ff001617875555604051888a8237808981016000815203902092604051908152a35460081c16948515611096575054918160405192839283378101600081520390209261108c60405192839283602090939291936040810194151581520152565b60405162461bcd60e51b815260048101879052600d60248201526c57696e646f772061637469766560981b6044820152606490fd5b34610370576020366003190112610370576001600160a01b03613214613324565b1660005260096020526020604060002054604051908152f35b34610370576000366003190112610370576020600554604051908152f35b34610370576000366003190112610370576040517f00000000000000000000000000000000000000000000000000000000000000006001600160a01b03168152602090f35b34610370576020366003190112610370576004356001600160401b0381116103705761180b61190760206132c98194369060040161333a565b91908260405193849283378101600f815203019020600f600e8201549101549061361d565b34610370576020366003190112610370576020906001600160a01b03613312613324565b16600052600d82526040600020548152f35b600435906001600160a01b038216820361037057565b9181601f84011215610370578235916001600160401b038311610370576020838186019501011161037057565b3461037057600036600319011261037057602060405160648152f35b604081019081106001600160401b03821117610a8057604052565b90601f801991011681019081106001600160401b03821117610a8057604052565b81601f82011215610370578035906001600160401b038211610a8057604051926133f3601f8401601f19166020018561339e565b8284526020838301011161037057816000926020809301838601378301015290565b60005b8381106134285750506000910152565b8181015183820152602001613418565b604060031982011261037057600435906001600160401b03821161037057613462916004016133bf565b906024356001600160a01b03811681036103705790565b346103705760003660031901126103705760206040516127108152f35b9060058210156107095752565b60243590811515820361037057565b606060031982011261037057600435906001600160401b038211610370576134dc9160040161333a565b90916024356001600160a01b0381168103610370579060443580151581036103705790565b90600182811c92168015613531575b602083101461351b57565b634e487b7160e01b600052602260045260246000fd5b91607f1691613510565b906040519182600082549261354f84613501565b9081845260019485811690816000146135be575060011461357b575b50506135799250038361339e565b565b9093915060005260209081600020936000915b8183106135a65750506135799350820101388061356b565b8554888401850152948501948794509183019161358e565b91505061357994506020925060ff191682840152151560051b820101388061356b565b906020916135fa81518092818552858086019101613415565b601f01601f1916010190565b60015460081c6001600160a01b03163303612a3857565b9190820180921161032457565b1561363157565b60405162461bcd60e51b815260206004820152600c60248201526b139bdd081c1c9bdc1bdcd95960a21b6044820152606490fd5b60ff6001541661367157565b60405163d93c066560e01b8152600490fd5b811561368d570490565b634e487b7160e01b600052601260045260246000fd5b6040516323b872dd60e01b60208201526001600160a01b03928316602482015292909116604483015260648083019390935291815260a08101918183106001600160401b03841117610a8057613579926040525b906000602091828151910182855af115613753576000513d61374a57506001600160a01b0381163b155b6137285750565b604051635274afe760e01b81526001600160a01b039091166004820152602490fd5b60011415613721565b6040513d6000823e3d90fd5b600260005414613770576002600055565b604051633ee5aeb560e01b8152600490fd5b1561378957565b60405162461bcd60e51b8152602060048201526009602482015268139bc81b585c9ad95d60ba1b6044820152606490fd5b8181029291811591840414171561032457565b9190820391821161032457565b9190600183016000908282528060205260408220541560001461385e578454946801000000000000000086101561384a576001860180825586101561383657836040949596828552602085200155549382526020522055600190565b634e487b7160e01b83526032600452602483fd5b634e487b7160e01b83526041600452602483fd5b50925050565b1561386b57565b60405162461bcd60e51b815260206004820152601560248201527445766964656e63652055524c20746f6f206c6f6e6760581b6044820152606490fd5b156138af57565b60405162461bcd60e51b8152602060048201526011602482015270125b9cdd59999a58da595b9d08189bdb99607a1b6044820152606490fd5b908060209392818452848401376000828201840152601f01601f1916010190565b1561391057565b60405162461bcd60e51b815260206004820152600a602482015269115b5c1d1e481c1bdbdb60b21b6044820152606490fd5b1561394957565b60405162461bcd60e51b815260206004820152600c60248201526b139bdd081c995cdbdb1d995960a21b6044820152606490fd5b60405163a9059cbb60e01b60208201526001600160a01b03909216602483015260448083019390935291815260808101916001600160401b03831182841017610a8057613579926040526136f7565b156139d357565b60405162461bcd60e51b81526020600482015260076024820152664e6f206665657360c81b6044820152606490fd5b919060405181848237602081838101600f81520301902092600085600014613b095750602090826040519384928337810160118152030190209060018060a01b03166000526020526040600020905b8154158015613afd575b613ae257613a72600e820154600f8301549061361d565b8015613af45761063790613a8b6004546005549061361d565b613a9d6127109384926006549061361d565b04606482029082820460640361032457613abc936106449204926137cd565b9215613aea5760120154905b8115613ae257613adf92600161066d9201546137ba565b90565b505050600090565b6013015490613ac8565b50505050600090565b50600182015415613a5b565b9160206040949282865193849283376012908201908152030190206001600160a01b0390911682526020522090613a51565b606481029080820460641490151715610324576127109004624c4b4080821115613b63575090565b905090565b908115808015613cba575b613c98576fffffffffffffffffffffffffffffffff8211613c6357613c2b57606493613bc6575b5050670de0b6b3a76400009081810291818304149015171561032457606491613bc2916137ba565b0490565b670de0b6b3a764000093919293928382029180830485149015171561032457613bee91613683565b81810291818304149015171561032457049060648210613c22575b60968211613c19575b3880613b9a565b60969150613c12565b60649150613c09565b60405162461bcd60e51b815260206004820152601060248201526f54617267657420706f6f6c207a65726f60801b6044820152606490fd5b60405162461bcd60e51b815260206004820152600d60248201526c506f6f6c206f766572666c6f7760981b6044820152606490fd5b5050509050670de0b6b3a7640000908181029181830414901517156103245790565b508115613b73565b81158015613d2d575b613d2657670de0b6b3a7640000918282029180830484149015171561032457613cf391613683565b606481029080820460641490151715610324570460648110613d205760968111613d1a5790565b50609690565b50606490565b5050606490565b508015613ccb565b600681019081549160ff1990600482851617905560405191600091815491613d5c83613501565b92600192838216918215613df9575050600114613dbb575b50505060ff613db1837fa76c3b7423c609f9756b55905a211a402af319118a555928e75d689b642bdba59460409403902094835192839116613496565b60046020820152a2565b9091925060005260209081600020906000915b848310613de857505050908201905060ff613db183613d74565b805486840152918301918101613dce565b168652505050801515028201905060ff613db183613d74565b6001600160a01b03811615613e27573b151590565b5060009056fea2646970667358221220808e985f98f3faa8f0876638d7928375b0a660d52ff80e2313e33691580de4e164736f6c63430008140033",
  "linkReferences": {},
  "deployedLinkReferences": {}
}