{
  "_format": "hh-sol-artifact-1",
  "contractName": "PredictionBattleV8",
  "sourceName": "contracts/PredictionBattleV8.sol",
  "abi": [
    {
      "inputs": [
        {
          "internalType": "address",
          "name": "_admin",
          "type": "address"
        },
        {
          "internalType": "address",
          "name": "_operator",
          "type": "address"
        },
        {
          "internalType": "address",
          "name": "_treasury",
          "type": "address"
        }
      ],
      "stateMutability": "nonpayable",
      "type": "constructor"
    },
    {
      "inputs": [],
      "name": "AccessControlBadConfirmation",
      "type": "error"
    },
    {
      "inputs": [
        {
          "internalType": "address",
          "name": "account",
          "type": "address"
        },
        {
          "internalType": "bytes32",
          "name": "neededRole",
          "type": "bytes32"
        }
      ],
      "name": "AccessControlUnauthorizedAccount",
      "type": "error"
    },
    {
      "inputs": [],
      "name": "EnforcedPause",
      "type": "error"
    },
    {
      "inputs": [],
      "name": "ExpectedPause",
      "type": "error"
    },
    {
      "inputs": [],
      "name": "ReentrancyGuardReentrantCall",
      "type": "error"
    },
    {
      "inputs": [
        {
          "internalType": "address",
          "name": "token",
          "type": "address"
        }
      ],
      "name": "SafeERC20FailedOperation",
      "type": "error"
    },
    {
      "anonymous": false,
      "inputs": [
        {
          "indexed": true,
          "internalType": "string",
          "name": "id",
          "type": "string"
        },
        {
          "indexed": true,
          "internalType": "address",
          "name": "user",
          "type": "address"
        },
        {
          "indexed": false,
          "internalType": "bool",
          "name": "side",
          "type": "bool"
        },
        {
          "indexed": false,
          "internalType": "uint256",
          "name": "amount",
          "type": "uint256"
        },
        {
          "indexed": false,
          "internalType": "uint256",
          "name": "shares",
          "type": "uint256"
        },
        {
          "indexed": false,
          "internalType": "address",
          "name": "referrer",
          "type": "address"
        },
        {
          "indexed": false,
          "internalType": "uint256",
          "name": "weight",
          "type": "uint256"
        }
      ],
      "name": "BetPlaced",
      "type": "event"
    },
    {
      "anonymous": false,
      "inputs": [
        {
          "indexed": true,
          "internalType": "address",
          "name": "user",
          "type": "address"
        },
        {
          "indexed": false,
          "internalType": "uint256",
          "name": "amount",
          "type": "uint256"
        }
      ],
      "name": "BondWithdrawn",
      "type": "event"
    },
    {
      "anonymous": false,
      "inputs": [
        {
          "indexed": true,
          "internalType": "string",
          "name": "id",
          "type": "string"
        },
        {
          "indexed": true,
          "internalType": "address",
          "name": "winner",
          "type": "address"
        },
        {
          "indexed": false,
          "internalType": "uint256",
          "name": "totalBondReward",
          "type": "uint256"
        },
        {
          "indexed": false,
          "internalType": "bool",
          "name": "finalResult",
          "type": "bool"
        }
      ],
      "name": "DisputeResolved",
      "type": "event"
    },
    {
      "anonymous": false,
      "inputs": [
        {
          "indexed": true,
          "internalType": "address",
          "name": "treasury",
          "type": "address"
        },
        {
          "indexed": false,
          "internalType": "uint256",
          "name": "amount",
          "type": "uint256"
        }
      ],
      "name": "HouseFeeWithdrawn",
      "type": "event"
    },
    {
      "anonymous": false,
      "inputs": [
        {
          "indexed": true,
          "internalType": "string",
          "name": "id",
          "type": "string"
        },
        {
          "indexed": true,
          "internalType": "address",
          "name": "creator",
          "type": "address"
        },
        {
          "indexed": false,
          "internalType": "uint256",
          "name": "deadlineTime",
          "type": "uint256"
        },
        {
          "indexed": false,
          "internalType": "uint256",
          "name": "bonusDuration",
          "type": "uint256"
        }
      ],
      "name": "MarketCreated",
      "type": "event"
    },
    {
      "anonymous": false,
      "inputs": [
        {
          "indexed": true,
          "internalType": "string",
          "name": "id",
          "type": "string"
        },
        {
          "indexed": false,
          "internalType": "bool",
          "name": "result",
          "type": "bool"
        },
        {
          "indexed": false,
          "internalType": "uint256",
          "name": "winnerPool",
          "type": "uint256"
        }
      ],
      "name": "MarketResolved",
      "type": "event"
    },
    {
      "anonymous": false,
      "inputs": [
        {
          "indexed": true,
          "internalType": "string",
          "name": "marketId",
          "type": "string"
        },
        {
          "indexed": false,
          "internalType": "enum PredictionBattleV8.MarketState",
          "name": "oldState",
          "type": "uint8"
        },
        {
          "indexed": false,
          "internalType": "enum PredictionBattleV8.MarketState",
          "name": "newState",
          "type": "uint8"
        }
      ],
      "name": "MarketStateChanged",
      "type": "event"
    },
    {
      "anonymous": false,
      "inputs": [
        {
          "indexed": true,
          "internalType": "string",
          "name": "id",
          "type": "string"
        }
      ],
      "name": "MarketVoided",
      "type": "event"
    },
    {
      "anonymous": false,
      "inputs": [
        {
          "indexed": true,
          "internalType": "string",
          "name": "id",
          "type": "string"
        },
        {
          "indexed": true,
          "internalType": "address",
          "name": "challenger",
          "type": "address"
        },
        {
          "indexed": false,
          "internalType": "uint256",
          "name": "bond",
          "type": "uint256"
        },
        {
          "indexed": false,
          "internalType": "string",
          "name": "evidence",
          "type": "string"
        }
      ],
      "name": "OutcomeChallenged",
      "type": "event"
    },
    {
      "anonymous": false,
      "inputs": [
        {
          "indexed": true,
          "internalType": "string",
          "name": "id",
          "type": "string"
        },
        {
          "indexed": true,
          "internalType": "address",
          "name": "proposer",
          "type": "address"
        },
        {
          "indexed": false,
          "internalType": "uint256",
          "name": "reward",
          "type": "uint256"
        }
      ],
      "name": "OutcomeFinalized",
      "type": "event"
    },
    {
      "anonymous": false,
      "inputs": [
        {
          "indexed": true,
          "internalType": "string",
          "name": "id",
          "type": "string"
        },
        {
          "indexed": true,
          "internalType": "address",
          "name": "proposer",
          "type": "address"
        },
        {
          "indexed": false,
          "internalType": "bool",
          "name": "result",
          "type": "bool"
        },
        {
          "indexed": false,
          "internalType": "uint256",
          "name": "bond",
          "type": "uint256"
        },
        {
          "indexed": false,
          "internalType": "uint256",
          "name": "disputeEndTime",
          "type": "uint256"
        },
        {
          "indexed": false,
          "internalType": "string",
          "name": "evidence",
          "type": "string"
        }
      ],
      "name": "OutcomeProposed",
      "type": "event"
    },
    {
      "anonymous": false,
      "inputs": [
        {
          "indexed": false,
          "internalType": "address",
          "name": "account",
          "type": "address"
        }
      ],
      "name": "Paused",
      "type": "event"
    },
    {
      "anonymous": false,
      "inputs": [
        {
          "indexed": true,
          "internalType": "string",
          "name": "id",
          "type": "string"
        },
        {
          "indexed": true,
          "internalType": "address",
          "name": "user",
          "type": "address"
        },
        {
          "indexed": false,
          "internalType": "uint256",
          "name": "amount",
          "type": "uint256"
        }
      ],
      "name": "PayoutClaimed",
      "type": "event"
    },
    {
      "anonymous": false,
      "inputs": [
        {
          "indexed": true,
          "internalType": "string",
          "name": "marketId",
          "type": "string"
        },
        {
          "indexed": true,
          "internalType": "address",
          "name": "proposer",
          "type": "address"
        },
        {
          "indexed": false,
          "internalType": "uint256",
          "name": "reward",
          "type": "uint256"
        }
      ],
      "name": "ReporterRewardClaimed",
      "type": "event"
    },
    {
      "anonymous": false,
      "inputs": [
        {
          "indexed": true,
          "internalType": "bytes32",
          "name": "role",
          "type": "bytes32"
        },
        {
          "indexed": true,
          "internalType": "bytes32",
          "name": "previousAdminRole",
          "type": "bytes32"
        },
        {
          "indexed": true,
          "internalType": "bytes32",
          "name": "newAdminRole",
          "type": "bytes32"
        }
      ],
      "name": "RoleAdminChanged",
      "type": "event"
    },
    {
      "anonymous": false,
      "inputs": [
        {
          "indexed": true,
          "internalType": "bytes32",
          "name": "role",
          "type": "bytes32"
        },
        {
          "indexed": true,
          "internalType": "address",
          "name": "account",
          "type": "address"
        },
        {
          "indexed": true,
          "internalType": "address",
          "name": "sender",
          "type": "address"
        }
      ],
      "name": "RoleGranted",
      "type": "event"
    },
    {
      "anonymous": false,
      "inputs": [
        {
          "indexed": true,
          "internalType": "bytes32",
          "name": "role",
          "type": "bytes32"
        },
        {
          "indexed": true,
          "internalType": "address",
          "name": "account",
          "type": "address"
        },
        {
          "indexed": true,
          "internalType": "address",
          "name": "sender",
          "type": "address"
        }
      ],
      "name": "RoleRevoked",
      "type": "event"
    },
    {
      "anonymous": false,
      "inputs": [
        {
          "indexed": true,
          "internalType": "string",
          "name": "id",
          "type": "string"
        },
        {
          "indexed": true,
          "internalType": "address",
          "name": "creator",
          "type": "address"
        },
        {
          "indexed": false,
          "internalType": "uint256",
          "name": "amount",
          "type": "uint256"
        }
      ],
      "name": "SeedWithdrawn",
      "type": "event"
    },
    {
      "anonymous": false,
      "inputs": [
        {
          "indexed": true,
          "internalType": "address",
          "name": "newTreasury",
          "type": "address"
        },
        {
          "indexed": false,
          "internalType": "uint256",
          "name": "executeTime",
          "type": "uint256"
        }
      ],
      "name": "TreasuryChangeProposed",
      "type": "event"
    },
    {
      "anonymous": false,
      "inputs": [
        {
          "indexed": true,
          "internalType": "address",
          "name": "oldTreasury",
          "type": "address"
        },
        {
          "indexed": true,
          "internalType": "address",
          "name": "newTreasury",
          "type": "address"
        }
      ],
      "name": "TreasuryUpdated",
      "type": "event"
    },
    {
      "anonymous": false,
      "inputs": [
        {
          "indexed": false,
          "internalType": "address",
          "name": "account",
          "type": "address"
        }
      ],
      "name": "Unpaused",
      "type": "event"
    },
    {
      "inputs": [],
      "name": "DEFAULT_ADMIN_ROLE",
      "outputs": [
        {
          "internalType": "bytes32",
          "name": "",
          "type": "bytes32"
        }
      ],
      "stateMutability": "view",
      "type": "function"
    },
    {
      "inputs": [],
      "name": "DISPUTE_WINDOW",
      "outputs": [
        {
          "internalType": "uint256",
          "name": "",
          "type": "uint256"
        }
      ],
      "stateMutability": "view",
      "type": "function"
    },
    {
      "inputs": [],
      "name": "EMERGENCY_TIMEOUT",
      "outputs": [
        {
          "internalType": "uint256",
          "name": "",
          "type": "uint256"
        }
      ],
      "stateMutability": "view",
      "type": "function"
    },
    {
      "inputs": [],
      "name": "FEE_DENOMINATOR",
      "outputs": [
        {
          "internalType": "uint256",
          "name": "",
          "type": "uint256"
        }
      ],
      "stateMutability": "view",
      "type": "function"
    },
    {
      "inputs": [],
      "name": "MAX_BETTORS_PER_SIDE",
      "outputs": [
        {
          "internalType": "uint256",
          "name": "",
          "type": "uint256"
        }
      ],
      "stateMutability": "view",
      "type": "function"
    },
    {
      "inputs": [],
      "name": "MAX_WEIGHT",
      "outputs": [
        {
          "internalType": "uint256",
          "name": "",
          "type": "uint256"
        }
      ],
      "stateMutability": "view",
      "type": "function"
    },
    {
      "inputs": [],
      "name": "MIN_BET_AMOUNT",
      "outputs": [
        {
          "internalType": "uint256",
          "name": "",
          "type": "uint256"
        }
      ],
      "stateMutability": "view",
      "type": "function"
    },
    {
      "inputs": [],
      "name": "MIN_BOND",
      "outputs": [
        {
          "internalType": "uint256",
          "name": "",
          "type": "uint256"
        }
      ],
      "stateMutability": "view",
      "type": "function"
    },
    {
      "inputs": [],
      "name": "MIN_MARKET_INTERVAL",
      "outputs": [
        {
          "internalType": "uint256",
          "name": "",
          "type": "uint256"
        }
      ],
      "stateMutability": "view",
      "type": "function"
    },
    {
      "inputs": [],
      "name": "MIN_WEIGHT",
      "outputs": [
        {
          "internalType": "uint256",
          "name": "",
          "type": "uint256"
        }
      ],
      "stateMutability": "view",
      "type": "function"
    },
    {
      "inputs": [],
      "name": "OPERATOR_ROLE",
      "outputs": [
        {
          "internalType": "bytes32",
          "name": "",
          "type": "bytes32"
        }
      ],
      "stateMutability": "view",
      "type": "function"
    },
    {
      "inputs": [],
      "name": "REPORTER_REWARD_BPS",
      "outputs": [
        {
          "internalType": "uint256",
          "name": "",
          "type": "uint256"
        }
      ],
      "stateMutability": "view",
      "type": "function"
    },
    {
      "inputs": [],
      "name": "SHARE_PRECISION",
      "outputs": [
        {
          "internalType": "uint256",
          "name": "",
          "type": "uint256"
        }
      ],
      "stateMutability": "view",
      "type": "function"
    },
    {
      "inputs": [],
      "name": "TREASURY_TIMELOCK",
      "outputs": [
        {
          "internalType": "uint256",
          "name": "",
          "type": "uint256"
        }
      ],
      "stateMutability": "view",
      "type": "function"
    },
    {
      "inputs": [
        {
          "internalType": "string",
          "name": "_marketId",
          "type": "string"
        },
        {
          "internalType": "string",
          "name": "_evidenceUrl",
          "type": "string"
        },
        {
          "internalType": "uint256",
          "name": "_bondAmount",
          "type": "uint256"
        }
      ],
      "name": "challengeOutcome",
      "outputs": [],
      "stateMutability": "nonpayable",
      "type": "function"
    },
    {
      "inputs": [
        {
          "internalType": "string",
          "name": "_marketId",
          "type": "string"
        }
      ],
      "name": "claimReporterReward",
      "outputs": [],
      "stateMutability": "nonpayable",
      "type": "function"
    },
    {
      "inputs": [
        {
          "internalType": "string",
          "name": "_marketId",
          "type": "string"
        }
      ],
      "name": "claimWinnings",
      "outputs": [],
      "stateMutability": "nonpayable",
      "type": "function"
    },
    {
      "inputs": [
        {
          "internalType": "address",
          "name": "",
          "type": "address"
        }
      ],
      "name": "claimableBonds",
      "outputs": [
        {
          "internalType": "uint256",
          "name": "",
          "type": "uint256"
        }
      ],
      "stateMutability": "view",
      "type": "function"
    },
    {
      "inputs": [
        {
          "internalType": "string",
          "name": "_id",
          "type": "string"
        },
        {
          "internalType": "string",
          "name": "_question",
          "type": "string"
        },
        {
          "internalType": "uint256",
          "name": "_usdcSeedAmount",
          "type": "uint256"
        },
        {
          "internalType": "uint256",
          "name": "_durationSeconds",
          "type": "uint256"
        },
        {
          "internalType": "uint256",
          "name": "_bonusDurationSeconds",
          "type": "uint256"
        }
      ],
      "name": "createMarket",
      "outputs": [],
      "stateMutability": "nonpayable",
      "type": "function"
    },
    {
      "inputs": [
        {
          "internalType": "address",
          "name": "",
          "type": "address"
        }
      ],
      "name": "creatorBalance",
      "outputs": [
        {
          "internalType": "uint256",
          "name": "",
          "type": "uint256"
        }
      ],
      "stateMutability": "view",
      "type": "function"
    },
    {
      "inputs": [],
      "name": "creatorFeeBps",
      "outputs": [
        {
          "internalType": "uint256",
          "name": "",
          "type": "uint256"
        }
      ],
      "stateMutability": "view",
      "type": "function"
    },
    {
      "inputs": [],
      "name": "currentOperator",
      "outputs": [
        {
          "internalType": "address",
          "name": "",
          "type": "address"
        }
      ],
      "stateMutability": "view",
      "type": "function"
    },
    {
      "inputs": [
        {
          "internalType": "string",
          "name": "_marketId",
          "type": "string"
        }
      ],
      "name": "emergencyResolve",
      "outputs": [],
      "stateMutability": "nonpayable",
      "type": "function"
    },
    {
      "inputs": [
        {
          "internalType": "address",
          "name": "_newTreasury",
          "type": "address"
        }
      ],
      "name": "executeTreasuryChange",
      "outputs": [],
      "stateMutability": "nonpayable",
      "type": "function"
    },
    {
      "inputs": [
        {
          "internalType": "string",
          "name": "_marketId",
          "type": "string"
        }
      ],
      "name": "finalizeOutcome",
      "outputs": [],
      "stateMutability": "nonpayable",
      "type": "function"
    },
    {
      "inputs": [
        {
          "internalType": "string",
          "name": "_marketId",
          "type": "string"
        }
      ],
      "name": "getMarketDetails",
      "outputs": [
        {
          "internalType": "enum PredictionBattleV8.MarketState",
          "name": "state",
          "type": "uint8"
        },
        {
          "internalType": "bool",
          "name": "result",
          "type": "bool"
        },
        {
          "internalType": "uint256",
          "name": "totalYes",
          "type": "uint256"
        },
        {
          "internalType": "uint256",
          "name": "totalNo",
          "type": "uint256"
        },
        {
          "internalType": "uint256",
          "name": "deadlineTime",
          "type": "uint256"
        },
        {
          "internalType": "address",
          "name": "creator",
          "type": "address"
        },
        {
          "internalType": "bool",
          "name": "isVoid",
          "type": "bool"
        }
      ],
      "stateMutability": "view",
      "type": "function"
    },
    {
      "inputs": [
        {
          "internalType": "bytes32",
          "name": "role",
          "type": "bytes32"
        }
      ],
      "name": "getRoleAdmin",
      "outputs": [
        {
          "internalType": "bytes32",
          "name": "",
          "type": "bytes32"
        }
      ],
      "stateMutability": "view",
      "type": "function"
    },
    {
      "inputs": [
        {
          "internalType": "bytes32",
          "name": "role",
          "type": "bytes32"
        },
        {
          "internalType": "address",
          "name": "account",
          "type": "address"
        }
      ],
      "name": "grantRole",
      "outputs": [],
      "stateMutability": "nonpayable",
      "type": "function"
    },
    {
      "inputs": [
        {
          "internalType": "string",
          "name": "",
          "type": "string"
        },
        {
          "internalType": "address",
          "name": "",
          "type": "address"
        }
      ],
      "name": "hasClaimed",
      "outputs": [
        {
          "internalType": "bool",
          "name": "",
          "type": "bool"
        }
      ],
      "stateMutability": "view",
      "type": "function"
    },
    {
      "inputs": [
        {
          "internalType": "bytes32",
          "name": "role",
          "type": "bytes32"
        },
        {
          "internalType": "address",
          "name": "account",
          "type": "address"
        }
      ],
      "name": "hasRole",
      "outputs": [
        {
          "internalType": "bool",
          "name": "",
          "type": "bool"
        }
      ],
      "stateMutability": "view",
      "type": "function"
    },
    {
      "inputs": [],
      "name": "houseBalance",
      "outputs": [
        {
          "internalType": "uint256",
          "name": "",
          "type": "uint256"
        }
      ],
      "stateMutability": "view",
      "type": "function"
    },
    {
      "inputs": [],
      "name": "houseFeeBps",
      "outputs": [
        {
          "internalType": "uint256",
          "name": "",
          "type": "uint256"
        }
      ],
      "stateMutability": "view",
      "type": "function"
    },
    {
      "inputs": [
        {
          "internalType": "string",
          "name": "",
          "type": "string"
        }
      ],
      "name": "lastBetTime",
      "outputs": [
        {
          "internalType": "uint256",
          "name": "",
          "type": "uint256"
        }
      ],
      "stateMutability": "view",
      "type": "function"
    },
    {
      "inputs": [
        {
          "internalType": "address",
          "name": "",
          "type": "address"
        }
      ],
      "name": "lastMarketCreation",
      "outputs": [
        {
          "internalType": "uint256",
          "name": "",
          "type": "uint256"
        }
      ],
      "stateMutability": "view",
      "type": "function"
    },
    {
      "inputs": [
        {
          "internalType": "string",
          "name": "",
          "type": "string"
        }
      ],
      "name": "marketExists",
      "outputs": [
        {
          "internalType": "bool",
          "name": "",
          "type": "bool"
        }
      ],
      "stateMutability": "view",
      "type": "function"
    },
    {
      "inputs": [
        {
          "internalType": "string",
          "name": "",
          "type": "string"
        }
      ],
      "name": "markets",
      "outputs": [
        {
          "internalType": "string",
          "name": "id",
          "type": "string"
        },
        {
          "internalType": "address",
          "name": "creator",
          "type": "address"
        },
        {
          "internalType": "string",
          "name": "question",
          "type": "string"
        },
        {
          "internalType": "uint256",
          "name": "creationTime",
          "type": "uint256"
        },
        {
          "internalType": "uint256",
          "name": "bonusDuration",
          "type": "uint256"
        },
        {
          "internalType": "uint256",
          "name": "deadlineTime",
          "type": "uint256"
        },
        {
          "internalType": "enum PredictionBattleV8.MarketState",
          "name": "state",
          "type": "uint8"
        },
        {
          "internalType": "bool",
          "name": "result",
          "type": "bool"
        },
        {
          "internalType": "bool",
          "name": "isVoid",
          "type": "bool"
        },
        {
          "internalType": "address",
          "name": "proposer",
          "type": "address"
        },
        {
          "internalType": "bool",
          "name": "proposedResult",
          "type": "bool"
        },
        {
          "internalType": "uint256",
          "name": "proposalTime",
          "type": "uint256"
        },
        {
          "internalType": "uint256",
          "name": "bondAmount",
          "type": "uint256"
        },
        {
          "internalType": "string",
          "name": "evidenceUrl",
          "type": "string"
        },
        {
          "internalType": "address",
          "name": "challenger",
          "type": "address"
        },
        {
          "internalType": "uint256",
          "name": "challengeBondAmount",
          "type": "uint256"
        },
        {
          "internalType": "string",
          "name": "challengeEvidenceUrl",
          "type": "string"
        },
        {
          "internalType": "uint256",
          "name": "challengeTime",
          "type": "uint256"
        },
        {
          "internalType": "uint256",
          "name": "totalYes",
          "type": "uint256"
        },
        {
          "internalType": "uint256",
          "name": "totalNo",
          "type": "uint256"
        },
        {
          "internalType": "uint256",
          "name": "seedYes",
          "type": "uint256"
        },
        {
          "internalType": "uint256",
          "name": "seedNo",
          "type": "uint256"
        },
        {
          "internalType": "uint256",
          "name": "totalSharesYes",
          "type": "uint256"
        },
        {
          "internalType": "uint256",
          "name": "totalSharesNo",
          "type": "uint256"
        }
      ],
      "stateMutability": "view",
      "type": "function"
    },
    {
      "inputs": [],
      "name": "maxBetAmount",
      "outputs": [
        {
          "internalType": "uint256",
          "name": "",
          "type": "uint256"
        }
      ],
      "stateMutability": "view",
      "type": "function"
    },
    {
      "inputs": [],
      "name": "maxMarketPool",
      "outputs": [
        {
          "internalType": "uint256",
          "name": "",
          "type": "uint256"
        }
      ],
      "stateMutability": "view",
      "type": "function"
    },
    {
      "inputs": [
        {
          "internalType": "string",
          "name": "",
          "type": "string"
        },
        {
          "internalType": "address",
          "name": "",
          "type": "address"
        }
      ],
      "name": "noBets",
      "outputs": [
        {
          "internalType": "uint256",
          "name": "amount",
          "type": "uint256"
        },
        {
          "internalType": "uint256",
          "name": "shares",
          "type": "uint256"
        },
        {
          "internalType": "address",
          "name": "referrer",
          "type": "address"
        }
      ],
      "stateMutability": "view",
      "type": "function"
    },
    {
      "inputs": [],
      "name": "pause",
      "outputs": [],
      "stateMutability": "nonpayable",
      "type": "function"
    },
    {
      "inputs": [],
      "name": "paused",
      "outputs": [
        {
          "internalType": "bool",
          "name": "",
          "type": "bool"
        }
      ],
      "stateMutability": "view",
      "type": "function"
    },
    {
      "inputs": [
        {
          "internalType": "bytes32",
          "name": "",
          "type": "bytes32"
        }
      ],
      "name": "pendingTreasuryChange",
      "outputs": [
        {
          "internalType": "uint256",
          "name": "",
          "type": "uint256"
        }
      ],
      "stateMutability": "view",
      "type": "function"
    },
    {
      "inputs": [
        {
          "internalType": "string",
          "name": "_marketId",
          "type": "string"
        },
        {
          "internalType": "bool",
          "name": "_side",
          "type": "bool"
        },
        {
          "internalType": "uint256",
          "name": "_usdcAmount",
          "type": "uint256"
        },
        {
          "internalType": "uint256",
          "name": "_minSharesOut",
          "type": "uint256"
        },
        {
          "internalType": "address",
          "name": "_referrer",
          "type": "address"
        }
      ],
      "name": "placeBet",
      "outputs": [],
      "stateMutability": "nonpayable",
      "type": "function"
    },
    {
      "inputs": [
        {
          "internalType": "string",
          "name": "_marketId",
          "type": "string"
        },
        {
          "internalType": "bool",
          "name": "_result",
          "type": "bool"
        },
        {
          "internalType": "string",
          "name": "_evidenceUrl",
          "type": "string"
        },
        {
          "internalType": "uint256",
          "name": "_bondAmount",
          "type": "uint256"
        }
      ],
      "name": "proposeOutcome",
      "outputs": [],
      "stateMutability": "nonpayable",
      "type": "function"
    },
    {
      "inputs": [
        {
          "internalType": "address",
          "name": "_newTreasury",
          "type": "address"
        }
      ],
      "name": "proposeTreasuryChange",
      "outputs": [],
      "stateMutability": "nonpayable",
      "type": "function"
    },
    {
      "inputs": [],
      "name": "referrerFeeBps",
      "outputs": [
        {
          "internalType": "uint256",
          "name": "",
          "type": "uint256"
        }
      ],
      "stateMutability": "view",
      "type": "function"
    },
    {
      "inputs": [
        {
          "internalType": "bytes32",
          "name": "role",
          "type": "bytes32"
        },
        {
          "internalType": "address",
          "name": "callerConfirmation",
          "type": "address"
        }
      ],
      "name": "renounceRole",
      "outputs": [],
      "stateMutability": "nonpayable",
      "type": "function"
    },
    {
      "inputs": [
        {
          "internalType": "string",
          "name": "",
          "type": "string"
        }
      ],
      "name": "reporterRewardClaimed",
      "outputs": [
        {
          "internalType": "bool",
          "name": "",
          "type": "bool"
        }
      ],
      "stateMutability": "view",
      "type": "function"
    },
    {
      "inputs": [
        {
          "internalType": "string",
          "name": "_marketId",
          "type": "string"
        },
        {
          "internalType": "address",
          "name": "_winnerAddress",
          "type": "address"
        },
        {
          "internalType": "bool",
          "name": "_finalResult",
          "type": "bool"
        }
      ],
      "name": "resolveDispute",
      "outputs": [],
      "stateMutability": "nonpayable",
      "type": "function"
    },
    {
      "inputs": [
        {
          "internalType": "bytes32",
          "name": "role",
          "type": "bytes32"
        },
        {
          "internalType": "address",
          "name": "account",
          "type": "address"
        }
      ],
      "name": "revokeRole",
      "outputs": [],
      "stateMutability": "nonpayable",
      "type": "function"
    },
    {
      "inputs": [
        {
          "internalType": "address",
          "name": "",
          "type": "address"
        }
      ],
      "name": "rewardsBalance",
      "outputs": [
        {
          "internalType": "uint256",
          "name": "",
          "type": "uint256"
        }
      ],
      "stateMutability": "view",
      "type": "function"
    },
    {
      "inputs": [
        {
          "internalType": "string",
          "name": "",
          "type": "string"
        }
      ],
      "name": "seedWithdrawn",
      "outputs": [
        {
          "internalType": "bool",
          "name": "",
          "type": "bool"
        }
      ],
      "stateMutability": "view",
      "type": "function"
    },
    {
      "inputs": [
        {
          "internalType": "address",
          "name": "_newOperator",
          "type": "address"
        }
      ],
      "name": "setOperator",
      "outputs": [],
      "stateMutability": "nonpayable",
      "type": "function"
    },
    {
      "inputs": [
        {
          "internalType": "bytes4",
          "name": "interfaceId",
          "type": "bytes4"
        }
      ],
      "name": "supportsInterface",
      "outputs": [
        {
          "internalType": "bool",
          "name": "",
          "type": "bool"
        }
      ],
      "stateMutability": "view",
      "type": "function"
    },
    {
      "inputs": [],
      "name": "treasury",
      "outputs": [
        {
          "internalType": "address",
          "name": "",
          "type": "address"
        }
      ],
      "stateMutability": "view",
      "type": "function"
    },
    {
      "inputs": [],
      "name": "unpause",
      "outputs": [],
      "stateMutability": "nonpayable",
      "type": "function"
    },
    {
      "inputs": [],
      "name": "usdcToken",
      "outputs": [
        {
          "internalType": "contract IERC20",
          "name": "",
          "type": "address"
        }
      ],
      "stateMutability": "view",
      "type": "function"
    },
    {
      "inputs": [
        {
          "internalType": "string",
          "name": "_marketId",
          "type": "string"
        }
      ],
      "name": "voidMarket",
      "outputs": [],
      "stateMutability": "nonpayable",
      "type": "function"
    },
    {
      "inputs": [],
      "name": "withdrawBond",
      "outputs": [],
      "stateMutability": "nonpayable",
      "type": "function"
    },
    {
      "inputs": [],
      "name": "withdrawCreatorFees",
      "outputs": [],
      "stateMutability": "nonpayable",
      "type": "function"
    },
    {
      "inputs": [],
      "name": "withdrawHouseFees",
      "outputs": [],
      "stateMutability": "nonpayable",
      "type": "function"
    },
    {
      "inputs": [],
      "name": "withdrawReferrerFees",
      "outputs": [],
      "stateMutability": "nonpayable",
      "type": "function"
    },
    {
      "inputs": [
        {
          "internalType": "string",
          "name": "_marketId",
          "type": "string"
        }
      ],
      "name": "withdrawSeed",
      "outputs": [],
      "stateMutability": "nonpayable",
      "type": "function"
    },
    {
      "inputs": [
        {
          "internalType": "string",
          "name": "",
          "type": "string"
        },
        {
          "internalType": "address",
          "name": "",
          "type": "address"
        }
      ],
      "name": "yesBets",
      "outputs": [
        {
          "internalType": "uint256",
          "name": "amount",
          "type": "uint256"
        },
        {
          "internalType": "uint256",
          "name": "shares",
          "type": "uint256"
        },
        {
          "internalType": "address",
          "name": "referrer",
          "type": "address"
        }
      ],
      "stateMutability": "view",
      "type": "function"
    }
  ],
  "bytecode": "0x608034620001a057601f6200440138819003918201601f191683019291906001600160401b03841183851017620001a5578160609284926040968752833981010312620001a0576200005181620001bb565b6200006c836200006460208501620001bb565b9301620001bb565b60016000556103e86004556101f4600581905560065564174876e80060075564e8d4a51000600855916001600160a01b03828116156200016c57808216938415620001355716918215620000fe57600380546001600160a01b03199081169094179055620000e79190620000e090620001d0565b5062000251565b506019541617601955516140ec9081620002f58239f35b845162461bcd60e51b815260206004820152601060248201526f496e76616c696420547265617375727960801b6044820152606490fd5b855162461bcd60e51b815260206004820152601060248201526f24b73b30b634b21027b832b930ba37b960811b6044820152606490fd5b845162461bcd60e51b815260206004820152600d60248201526c24b73b30b634b21020b236b4b760991b6044820152606490fd5b600080fd5b634e487b7160e01b600052604160045260246000fd5b51906001600160a01b0382168203620001a057565b6001600160a01b031660008181527fac33ff75c19e70fe83507db0d683fd3465c996598dc972688b7ace676c89077b602052604081205490919060ff166200024d5781805260026020526040822081835260205260408220600160ff198254161790553391600080516020620043e18339815191528180a4600190565b5090565b6001600160a01b031660008181527f6bc781d8c7f9885ebbb3cefbc18932c491038e2ae5c5b56447891e0bd98ea16360205260408120549091907f97667070c54ef182b0f5858b034beac1b6f3089aa2d3188bb1e8929f4fa9b9299060ff16620002ef5780835260026020526040832082845260205260408320600160ff19825416179055600080516020620043e1833981519152339380a4600190565b50509056fe61016080604052600436101561001457600080fd5b60003560e01c9081626fb9ff146134cb5750806301ffc9a71461347557806311eac8551461344657806317773ebb146134285780631caed77c146133ee5780632023115d1461321b578063214529ad146131fd578063218b53821461313c578063245fc026146131af578063248a9ca3146131805780632f2ff15d14613141578063327abb481461313c57806336568abe146130f557806337b150da146130d85780633bc6f60614612fdc5780633cff354914612f9b5780633f4ba83a14612f315780633fed6ced14612ee357806345d98ccb1461162257806359f5a41f14612ec55780635c975abb14612ea25780635e578a5614612df55780635fc5e02014612dd257806361d027b314612da95780636475e3d314612d8c57806366eb9cec14612ce157806367084eb314612cc35780637f26407614612ca55780637f98a3f714612af85780638456cb5914612a9f578063896bdac814612a6557806391d1485414612a18578063941c7734146129ca5780639a826eb7146129675780639bd1d5131461239b578063a07c16331461237d578063a217fddf14612361578063b3ab15fb146122b4578063c227955a14611c85578063c5479faf146117d3578063c8eaef19146116b2578063cab11d5d14611694578063d031639b14611668578063d547741f14611627578063d73792a914611622578063dbeae54c146115aa578063dfdc5f771461155e578063e0de0fee14611540578063e0ffbac514611517578063e129d041146114bb578063e1cd04b414611468578063e1e90ab3146112a1578063e4a28a5214611285578063e6cd7ab61461124b578063ee59d2401461122d578063ef03c10e14610f81578063efbda66114610d32578063f585dc5714610d15578063f5b541a614610cec578063f677b4d414610c6d578063f69be5021461085b578063fc9cd8d0146106a8578063fdbcf125146103945763fe1140a3146102df57600080fd5b3461038f57602036600319011261038f576102f8613501565b6103006137aa565b6001600160a01b0316610314811515613a55565b60405160208101908282526020815261032c81613576565b5190206202a300420190814211610379577f2fdb8aa18e3708b0dfed4acb0de7452e85e7f833b1b055880cef38e8bee690b591602091600052600f825280604060002055604051908152a2005b634e487b7160e01b600052601160045260246000fd5b600080fd5b3461038f5760208060031936011261038f576004356001600160401b03811161038f576103c590369060040161352d565b6103d0929192613bd3565b6103f060ff60405183868237848185810160118152030190205416613bf6565b604051818482378281838101601081520301902060068101549060ff821660058110156106925760046104239114613df5565b604051838682378481858101601481520301902033600052845261044f60ff6040600020541615613e30565b60006040518487823785818681016012815203019020336000528552604060002091604051858882378681878101601381520301902033600052865260406000209360ff8160101c1660001461056a57505050906104b09154905490613a93565b925b831561053257907f2f0b27a029bcea8b4cd6e1f002ba498bd37b903b56578a04f1576cd25c09de539160405182828237848184810160148152030190203360005284526040600020600160ff1982541617905561050f8533613e6e565b816040519283928337810160008152039020916040519384523393a36001600055005b60405162461bcd60e51b815260048101849052601060248201526f4e6f7468696e6720746f20636c61696d60801b6044820152606490fd5b60ff906008989593989492941c16918260001461068a5750915b825415158061067d575b61059b575b5050506104b2565b90919295506105b3600e820154600f83015490613a93565b801561064b576064810290808204606403610379576127106105d6920490613c41565b91156106415760120154915b8215610608576105ff929160016105fa920154613c2e565b613af9565b92848080610593565b60405162461bcd60e51b81526004810186905260116024820152704e6f2077696e6e696e672073686172657360781b6044820152606490fd5b60130154916105e2565b60405162461bcd60e51b815260048101879052600a602482015269115b5c1d1e481c1bdbdb60b21b6044820152606490fd5b506001830154151561058e565b905091610584565b634e487b7160e01b600052602160045260246000fd5b3461038f5760208060031936011261038f576004356001600160401b03811161038f576106d990369060040161352d565b916106e2613bd3565b61070260ff60405185858237838187810160118152030190205416613bf6565b60405183838237818185810160108152030190206006810191825460ff811660058110156106925760036107369114613dba565b600d83015462278d0081018091116103795742111561082357908291600861077894018054806107f4575b505050600b82018054806107c5575b505050613fc3565b6201000062ff0000198254161790558160405192839283378101600081520390207f1e9a51575531367c4323c60efe8c5b980af66cd0509c86d8f4e1a3d9c9001700600080a26001600055005b600e60009360018060a01b03600a870154168552526107e960408420918254613a93565b905555858080610770565b60009260018060a01b039060181c168352600e845261081860408420918254613a93565b905555868080610761565b60405162461bcd60e51b815260048101839052601060248201526f54696d65206c6f636b2061637469766560801b6044820152606490fd5b3461038f57606036600319011261038f576004356001600160401b03811161038f5761088b90369060040161352d565b6024356001600160401b03811161038f576108aa90369060040161352d565b916108b3613adb565b6108bb613bd3565b6108dc60ff6040518387823760208185810160118152030190205416613bf6565b6108ea610100841115613cd8565b60405181858237602081838101601081520301902093600685015460ff8116600581101561069257600261091e9114613aa0565b600786015461a8c08101809111610379574211610c385761094760088701546044351015613d1c565b3360189190911c6001600160a01b031614610bfb576109696044353033613b19565b60068501546040516000875461097e816136a5565b9060018116908115610be65750600114610bb2575b509080600393920390207fa76c3b7423c609f9756b55905a211a402af319118a555928e75d689b642bdba5604080516109cf8160ff8716613689565b856020820152a260ff1916176006860155600a850180546001600160a01b03191633179055604435600b860155600c8501946001600160401b038511610b9c57610a1986546136a5565b601f8111610b54575b50600095601f8611600114610ac55790610ab0939291867f4bd7c92eba598ee7ab038ac4a59ab8feb6d65703229128829d6cdd17959b121f969798600091610aba575b508860011b906000198a60031b1c19161790555b600d429101558160405192839283378101600081520390209260405191829160443583526040602084015233966040840191613d5c565b0390a36001600055005b905087013589610a65565b601f1986168160005260206000209060005b818110610b3c57509087987f4bd7c92eba598ee7ab038ac4a59ab8feb6d65703229128829d6cdd17959b121f9798610ab0979695949310610b22575b5050600188811b019055610a79565b88013560001960038b901b60f8161c191690558880610b13565b878a013583556020998a019960019093019201610ad7565b866000526020600020601f870160051c81019160208810610b92575b601f0160051c01905b818110610b865750610a22565b60008155600101610b79565b9091508190610b70565b634e487b7160e01b600052604160045260246000fd5b90508760005260206000206000905b828210610bd2575050810181610993565b600181602092548487015201910190610bc1565b60ff1916845250801515028201905081610993565b60405162461bcd60e51b815260206004820152601560248201527443616e6e6f742073656c662d6368616c6c656e676560581b6044820152606490fd5b60405162461bcd60e51b815260206004820152600d60248201526c15da5b991bddc818db1bdcd959609a1b6044820152606490fd5b3461038f57600036600319011261038f57610c866137aa565b610c8e613bd3565b600b54610c9c811515613ebd565b6000600b557f19f7a31ae4185f3274e252a5a78ec36ba85c01300bc8a800d41d79be74662a8e602060018060a01b03610cd9848260035416613e6e565b6003541692604051908152a26001600055005b3461038f57600036600319011261038f5760206040516000805160206140978339815191528152f35b3461038f57600036600319011261038f57602060405161a8c08152f35b3461038f57602036600319011261038f576004356001600160401b03811161038f57610d629036906004016135b2565b6040518181809351602081930191610d7992613608565b810160108152036020019020610d8e816136df565b60018201546001600160a01b031660c05290610dac600282016136df565b61014052600381015491600482015492600583015490600684015460078501549160088601549060098701610de0906136df565b91600160a01b60019003600a8901541694600b89015494600c8a01610e04906136df565b97600d8b015461010052600e8b01549b600f8c01549a60108d01549c601181015460e052601281015460805260130154610120526040518060a05261030080915260a05101610e5291613785565b60c05160a0516020015260a05180820390604001526101405190610e7591613785565b9560a0516060015260a0516080015260a05160a0015260a05160c00160ff821690610e9f91613689565b8060081c60ff16151560a05160e001528060101c60ff16151560a0516101000152600160a01b600190038160181c1660a051610120015260b81c60ff16151560a051610140015260a051610160015260a051610180015260a051808203906101a00152610f0b91613785565b9160a0516101c0015260a0516101e0015260a051808203906102000152610f3191613785565b926101005160a051610220015260a051610240015260a051610260015260a051610280015260e05160a0516102a0015260805160a0516102c001526101205160a0516102e0015260a05180910390f35b3461038f57606036600319011261038f576004356001600160401b03811161038f57610fb190369060040161352d565b610fb9613517565b916044359182151580840361038f57610fd0613bd3565b3360009081527f6bc781d8c7f9885ebbb3cefbc18932c491038e2ae5c5b56447891e0bd98ea163602090815260409091205490959060ff16801561120e575b61101890613d7d565b61103860ff60405185878237888187810160118152030190205416613bf6565b604051838582378681858101601081520301902091600683019182549260ff8416600581101561069257600361106e9114613dba565b6001600160a01b038281169460181c811685149081156111fe575b50156111c85783899360008a9b817f38b360c485b4bed5c0c2e2ab639b104b4e002dbf7351d0d4431e48b6d9e2bfce9661115a7f175b08e6ee8bbceb85780e790adca99ec4fbd3bb124ffbf50bd35ed4375a69ac9e6040986111428e61113d6008820196600e88549a611102600b86019c8d5490613a93565b9e8b52528c6111158f8b20918254613a93565b905584546301000000600160b81b03191660189190911b6301000000600160b81b0316178455565b613fc3565b9061ff00825491151560081b169061ff001916179055565b55558251888a82378089810160008152039020948351928352820152a384156111be57600e0154915b816040519283928337810160008152039020926111b460405192839283602090939291936040810194151581520152565b0390a26001600055005b600f015491611183565b60405162461bcd60e51b8152600481018a9052600e60248201526d24b73b30b634b2103bb4b73732b960911b6044820152606490fd5b9050600a8601541684148a611089565b506000808052600287526040808220338352885290205460ff1661100f565b3461038f57600036600319011261038f576020600454604051908152f35b3461038f57602036600319011261038f576001600160a01b0361126c613501565b16600052600c6020526020604060002054604051908152f35b3461038f57600036600319011261038f57602060405160968152f35b3461038f5760208060031936011261038f576004356001600160401b03811161038f576112d290369060040161352d565b6112dd929192613bd3565b6112fd60ff60405183868237848185810160118152030190205416613bf6565b6040518184823782818381016010815203019020600681015460ff811690600582101561069257611332600460ff9314613df5565b60101c16156114385760018101546001600160a01b031633036114045760ff604051838682378481858101601581520301902054166113cb57906113a182601160107f3ff50bb01a71ba44b43b95e691fe785159d1c403efd991b82f3b5f62a2d8148a95015491015490613a93565b936040518282823784818481016015815203019020600160ff1982541617905561050f8533613e6e565b60405162461bcd60e51b815260048101849052601160248201527020b63932b0b23c903bb4ba34323930bbb760791b6044820152606490fd5b60405162461bcd60e51b815260048101849052600c60248201526b27b7363c9031b932b0ba37b960a11b6044820152606490fd5b60405162461bcd60e51b8152600481018490526008602482015267139bdd081d9bda5960c21b6044820152606490fd5b3461038f57600036600319011261038f57611481613bd3565b33600052600c6020526114b460406000205461149e811515613ebd565b33600052600c6020526000604081205533613e6e565b6001600055005b3461038f57602036600319011261038f576004356001600160401b03811161038f5761150460206114f1819336906004016135b2565b8160405193828580945193849201613608565b8101600a81520301902054604051908152f35b3461038f57600036600319011261038f576019546040516001600160a01b039091168152602090f35b3461038f57600036600319011261038f576020604051624c4b408152f35b3461038f57600036600319011261038f57611577613bd3565b33600052600d6020526114b4604060002054611594811515613ebd565b33600052600d6020526000604081205533613e6e565b3461038f5760206115d26115bd3661362b565b92908160405193828580945193849201613608565b6012908201908152030190206001600160a01b0391821660009081526020918252604090819020805460018201546002909201548351918252938101919091529190921691810191909152606090f35b61366c565b3461038f57604036600319011261038f57611666600435611646613517565b90806000526002602052611661600160406000200154613802565b6139de565b005b3461038f57602036600319011261038f57600435600052600f6020526020604060002054604051908152f35b3461038f57600036600319011261038f576020600754604051908152f35b3461038f5760208060031936011261038f576004356001600160401b03811161038f576116e390369060040161352d565b916116ec613bd3565b60008051602061409783398151915260005260028152604060002033600052815260ff6040600020541680156117b4575b61172690613d7d565b60405183838237818185810160108152030190206006810191825460ff811660058110156106925760041461177c57908291600861077894018054806107f457505050600b82018054806107c557505050613fc3565b60405162461bcd60e51b815260048101839052601060248201526f105b1c9958591e481c995cdbdb1d995960821b6044820152606490fd5b506000808052600282526040808220338352835290205460ff1661171d565b3461038f57608036600319011261038f576004356001600160401b03811161038f5761180390369060040161352d565b61180b613696565b906044356001600160401b03811161038f5761182b90369060040161352d565b939092611836613adb565b61183e613bd3565b61185f60ff6040518585823760208187810160118152030190205416613bf6565b61186d610100861115613cd8565b6040518383823760208185810160108152030190209060ff6006830154166005811015610692578015908115611c7a575b5015611c455760018201546001600160a01b03163314611bf3575b60405184848237602081868101600a815203019020546107088101809111610379574210611ba25760646118f6600e840154600f85015490613a93565b04624c4b4090810180911161037957611913906064351015613d1c565b6119206064353033613b19565b600682015460405160008454611935816136a5565b9060018116908115611b8d5750600114611b59575b509181600292600995940390207fa76c3b7423c609f9756b55905a211a402af319118a555928e75d689b642bdba5604080516119898160ff8716613689565b856020820152a260ff60b81b92151560b881901b939093166301000000600160c01b031990921662ffff01600160c01b0319909116176301000000600160b81b033360181b1617176006840155426007840155606435600884015591016001600160401b038611610b9c576119fe81546136a5565b601f8111611b11575b50856000601f8211600114611aab57600091611aa0575b508660011b906000198860031b1c19161790555b61a8c04201918242116103795783610ab0917f5247f2366f7e70fc0b5fc61f486408d977047c08d356ffb76c3d35832ceeaf26956040519283928337810160008152039020946040519384938452606435602085015260408401526080606084015233966080840191613d5c565b905085013587611a1e565b60008381526020812092508890601f198216905b818110611af6575010611adc575b5050600186811b019055611a32565b860135600019600389901b60f8161c191690558680611acd565b8984013585556001909401936020938401938b935001611abf565b816000526020600020601f880160051c81019160208910611b4f575b601f0160051c01905b818110611b435750611a07565b60008155600101611b36565b9091508190611b2d565b90508460005260206000206000905b828210611b7957505081018161194a565b600181602092548487015201910190611b68565b60ff191684525080151502820190508161194a565b60405162461bcd60e51b8152602060048201526024808201527f436f6f6c2d646f776e3a20776169742033306d696e206166746572206c6173746044820152630818995d60e21b6064820152608490fd5b6003820154620151808101809111610379574210156118b95760405162461bcd60e51b8152602060048201526011602482015270086e4cac2e8dee47440eec2d2e8406468d607b1b6044820152606490fd5b60405162461bcd60e51b815260206004820152600d60248201526c496e76616c696420737461746560981b6044820152606490fd5b60019150148761189e565b3461038f5760a036600319011261038f576004356001600160401b03811161038f57611cb590369060040161352d565b611cbd613696565b916084356001600160a01b038116810361038f57611cd9613adb565b611ce1613bd3565b611d0260ff6040518585823760208187810160118152030190205416613bf6565b60405183838237602081858101601081520301902060ff6006820154166005811015610692576122845760058101544210156122555761c3506044351061222057600754604435116121eb576040518484823784810190600a825260208142930301902055611d86600e820154611d8160443591600f85015490613a93565b613a93565b600854106121b0576001600160a01b038216331461217757813b61213257611db16044353033613b19565b612710611dc2600454604435613c2e565b0493612710611dd5600554604435613c2e565b0460006001600160a01b038516151580612118575b6120d4575b611e0b611e1491611e0684611e068b604435613c41565b613c41565b96600b54613a93565b600b5560018060a01b03600184015416600052600c602052611e3c6040600020918254613a93565b9055611e74611e546003840154600485015490613a93565b421087156120c95786600e8501545b89156120be57600f86015490613ef3565b91606435831061208057861561205757611e9286600e830154613a93565b600e82015560128101611ea6848254613a93565b90555b861561202f5760405182868237602081848101601281520301902033600052602052600260406000205b611ede888254613a93565b815560018101611eef868254613a93565b90550180546001600160a01b0319166001600160a01b038616179055861561201457604051828682376020818481016017815203019020905b61271082541015611fd957611f41611f5f923390613c4e565b508715611fce57600f810154905b8815611fc457600e015490613f7d565b938160405192839283378101600081520390209360405195151586526020860152604085015260018060a01b0316606084015260808301527fa994696d1a657073ceaa15fbacd649938053ce8bee7de30ec1c28d337cc37b2360a03393a36001600055005b600f015490613f7d565b600e81015490611f4f565b60405162461bcd60e51b815260206004820152601360248201527213585e0818995d1d1bdc9cc81c995858da1959606a1b6044820152606490fd5b60405182868237602081848101601881520301902090611f28565b6040518286823760208184810160138152030190203360005260205260026040600020611ed3565b61206586600f830154613a93565b600f82015560138101612079848254613a93565b9055611ea9565b60405162461bcd60e51b815260206004820152601660248201527514db1a5c1c1859d94e8813d9191cc818da185b99d95960521b6044820152606490fd5b600e86015490613ef3565b86600f850154611e63565b50611e14611e0b6127106120ec600654604435613c2e565b0460018060a01b038716600052600d602052604060002061210e828254613a93565b9055915050611def565b5060018401546001600160a01b0386811691161415611dea565b60405162461bcd60e51b815260206004820152601b60248201527f52656665727265722063616e6e6f7420626520636f6e747261637400000000006044820152606490fd5b60405162461bcd60e51b815260206004820152601160248201527021b0b73737ba1039b2b63316b932b332b960791b6044820152606490fd5b60405162461bcd60e51b8152602060048201526013602482015272141bdbdb081b1a5b5a5d08195e18d959591959606a1b6044820152606490fd5b60405162461bcd60e51b815260206004820152600d60248201526c42657420746f6f206c6172676560981b6044820152606490fd5b60405162461bcd60e51b815260206004820152600d60248201526c10995d081d1bdbc81cdb585b1b609a1b6044820152606490fd5b60405162461bcd60e51b8152602060048201526007602482015266115e1c1a5c995960ca1b6044820152606490fd5b60405162461bcd60e51b81526020600482015260086024820152672737ba1037b832b760c11b6044820152606490fd5b3461038f57602036600319011261038f576122cd613501565b6122d56137aa565b6001600160a01b0381811691906122ed831515613a55565b60195416908183146123295761230561230b92613944565b50613828565b506bffffffffffffffffffffffff60a01b6019541617601955600080f35b60405162461bcd60e51b815260206004820152601060248201526f20b63932b0b23c9037b832b930ba37b960811b6044820152606490fd5b3461038f57600036600319011261038f57602060405160008152f35b3461038f57600036600319011261038f576020600654604051908152f35b3461038f5760a036600319011261038f576004356001600160401b03811161038f576123cb90369060040161352d565b6024356001600160401b03811161038f576123ea90369060040161352d565b6123f5929192613adb565b6123fd613bd3565b8115158061295c575b1561292357600a81101580612917575b156128d25760ff604051838682376020818581016011815203019020541661289d57620f4240604435101580612890575b15612855576008546044351161281f57606435156127e757336000526009602052604060002054610e1081018091116103795742106127b5573360005260096020524260406000205561249d6044353033613b19565b604051828582376020818481016010815203019020926001600160401b038311610b9c576124cb84546136a5565b601f811161276f575b50826000601f821160011461270a576000916126ff575b508360011b906000198560031b1c19161784555b6001840180546001600160a01b031916331790556001600160401b038211610b9c57819061253060028601546136a5565b601f81116126ae575b50600090601f831160011461263d57600092612632575b50508160011b916000199060031b1c19161760028301555b42600383015560843591821561262a57825b600482015561258b60643542613a93565b9060058101918255600681019060ff1991828154169055601160443560011c9182600e82015582600f820155826010820155015560016040518487823760208186810160118152030190209182541617905554928160405192839283378101600081520390209060405192835260208301527fccdee9db8c345dd53026f5dedbf3e8b723ceddd2ad8eeb96b00ce37fddd58b6460403393a36001600055005b60643561257a565b013590508580612550565b909250600285016000526020600020906000935b601f1984168510612696576001945083601f1981161061267c575b505050811b016002830155612568565b0135600019600384901b60f8161c1916905585808061266c565b81810135835560209485019460019093019201612651565b909150600285016000526020600020601f840160051c8101602085106126f8575b90601f8594930160051c01905b8181106126e95750612539565b600081558493506001016126dc565b50806126cf565b9050850135866124eb565b60008681526020812092505b601f1986168110612757575084601f1981161061273d575b5050600183811b0184556124ff565b860135600019600386901b60f8161c19169055858061272e565b9091602060018192858b013581550193019101612716565b846000526020600020601f850160051c8101602086106127ae575b601f90920160051c01905b8181106127a257506124d4565b60008155600101612795565b508061278a565b60405162461bcd60e51b815260206004820152600a60248201526914985d19481b1a5b5a5d60b21b6044820152606490fd5b60405162461bcd60e51b815260206004820152601060248201526f24b73b30b634b210323ab930ba34b7b760811b6044820152606490fd5b60405162461bcd60e51b815260206004820152600e60248201526d5365656420746f6f206c6172676560901b6044820152606490fd5b60405162461bcd60e51b8152602060048201526013602482015272125b9d985b1a59081cd9595908185b5bdd5b9d606a1b6044820152606490fd5b5060016044351615612447565b60405162461bcd60e51b815260206004820152600d60248201526c4d61726b65742065786973747360981b6044820152606490fd5b60405162461bcd60e51b815260206004820152601760248201527f496e76616c6964207175657374696f6e206c656e6774680000000000000000006044820152606490fd5b506101f4811115612416565b60405162461bcd60e51b8152602060048201526011602482015270092dcecc2d8d2c840928840d8cadccee8d607b1b6044820152606490fd5b506040821115612406565b3461038f57602061297a6115bd3661362b565b6013908201908152030190206001600160a01b0391821660009081526020918252604090819020805460018201546002909201548351918252938101919091529190921691810191909152606090f35b3461038f57602036600319011261038f576004356001600160401b03811161038f5760ff612a0260206114f1819436906004016135b2565b8101601681520301902054166040519015158152f35b3461038f57604036600319011261038f57612a31613517565b600435600052600260205260406000209060018060a01b0316600052602052602060ff604060002054166040519015158152f35b3461038f57602036600319011261038f576001600160a01b03612a86613501565b16600052600d6020526020604060002054604051908152f35b3461038f57600036600319011261038f57612ab86137aa565b612ac0613adb565b600160ff19815416176001557f62e78cea01bee320cd4e420270b5ea74000d11b0c9f74754ebdbfc544b05a2586020604051338152a1005b3461038f5760208060031936011261038f576004356001600160401b03811161038f57612b2990369060040161352d565b612b34929192613bd3565b612b5460ff60405183868237848185810160118152030190205416613bf6565b6040518184823782818381016010815203019020600681015460ff81166005811015610692576004612b869114613df5565b60ff8160101c16612c705760181c6001600160a01b03163303612c3c57612bd890612bc860ff6040518588823786818781016016815203019020541615613e30565b600f600e82015491015490613a93565b90606482029180830460641490151715610379576127107f8324cae916d4cce50ee31a76930f77226846d2070fb9ae521d41eac167bed93d9204936040518282823784818481016016815203019020600160ff1982541617905561050f8533613e6e565b60405162461bcd60e51b815260048101849052600c60248201526b2737ba10383937b837b9b2b960a11b6044820152606490fd5b60405162461bcd60e51b815260048101859052600d60248201526c13585c9ad95d081d9bda591959609a1b6044820152606490fd5b3461038f57600036600319011261038f57602060405162278d008152f35b3461038f57600036600319011261038f576020600b54604051908152f35b3461038f57600036600319011261038f57612cfa613bd3565b33600052600e6020526040600020548015612d5c5733600052600e60205260006040812055612d298133613e6e565b6040519081527f0d41118e36df44efb77a471fc49fb9c0be0406d802ef95520e9fbf606e65b45560203392a26001600055005b60405162461bcd60e51b81526020600482015260086024820152674e6f20626f6e647360c01b6044820152606490fd5b3461038f57600036600319011261038f57602060405161c3508152f35b3461038f57600036600319011261038f576003546040516001600160a01b039091168152602090f35b3461038f57600036600319011261038f576020604051670de0b6b3a76400008152f35b3461038f57602036600319011261038f576004356001600160401b03811161038f576020612e2960e092369060040161352d565b91908260405193849283378101601081520301902060ff6006820154600e83015492600f810154906005810154906001808060a01b03910154169160405195612e7487878716613689565b858560081c161515602088015260408701526060860152608085015260a084015260101c16151560c0820152f35b3461038f57600036600319011261038f57602060ff600154166040519015158152f35b3461038f57600036600319011261038f576020600854604051908152f35b3461038f57602036600319011261038f576004356001600160401b03811161038f5760ff612f1b60206114f1819436906004016135b2565b8101601181520301902054166040519015158152f35b3461038f57600036600319011261038f57612f4a6137aa565b60015460ff811615612f895760ff19166001557f5db9ee0a495bf2e6ff9c91a7834c1ba4fdd244a5e8aa4e537bd38aeae4b073aa6020604051338152a1005b604051638dfc202b60e01b8152600490fd5b3461038f576020612fae6115bd3661362b565b810160148152030190209060018060a01b0316600052602052602060ff604060002054166040519015158152f35b3461038f5760208060031936011261038f57612ff6613501565b612ffe6137aa565b6040516001600160a01b0391821683820181815284835290939161302181613576565b5190209081600052600f815261303d6040600020541515613aa0565b81600052600f815260406000205442106130a257600f9060035492856bffffffffffffffffffffffff60a01b8516176003556000525260006040812055167f4ab5be82436d353e61ca18726e984e561f5c1cc7c6d38b29d2553c790434705a600080a3005b6064906040519062461bcd60e51b82526004820152600f60248201526e54696d656c6f636b2061637469766560881b6044820152fd5b3461038f57600036600319011261038f576020604051610e108152f35b3461038f57604036600319011261038f5761310e613517565b336001600160a01b0382160361312a57611666906004356139de565b60405163334bd91960e11b8152600490fd5b61355a565b3461038f57604036600319011261038f57611666600435613160613517565b9080600052600260205261317b600160406000200154613802565b6138c9565b3461038f57602036600319011261038f5760043560005260026020526020600160406000200154604051908152f35b3461038f57602036600319011261038f576004356001600160401b03811161038f5760ff6131e760206114f1819436906004016135b2565b8101601581520301902054166040519015158152f35b3461038f57600036600319011261038f5760206040516202a3008152f35b3461038f5760208060031936011261038f576004356001600160401b03811161038f5761324c90369060040161352d565b90613255613bd3565b61327560ff60405184848237858186810160118152030190205416613bf6565b60405182828237838184810160108152030190209160068301805460ff811660058110156106925760026132a99114613aa0565b600785015461a8c08101809111610379574211156133b957907f175b08e6ee8bbceb85780e790adca99ec4fbd3bb124ffbf50bd35ed4375a69ac949560ff9260018060a01b039060181c16906000600889018054848352600e845261331360408420918254613a93565b905561331e8a613fc3565b845461ff0019811660b89190911c8716151560081b61ff0016178555557fe2b1d963f1ec20d10d097a5196a0a9e7b5ff982020b428f20918fe52a2234edf6040518688823780878101600081520390209160405160008152a35460081c169384156111be57600e015491816040519283928337810160008152039020926111b460405192839283602090939291936040810194151581520152565b60405162461bcd60e51b815260048101879052600d60248201526c57696e646f772061637469766560981b6044820152606490fd5b3461038f57602036600319011261038f576001600160a01b0361340f613501565b1660005260096020526020604060002054604051908152f35b3461038f57600036600319011261038f576020600554604051908152f35b3461038f57600036600319011261038f57602060405173036cbd53842c5426634e7929541ec2318f3dcf7e8152f35b3461038f57602036600319011261038f5760043563ffffffff60e01b811680910361038f57602090637965db0b60e01b81149081156134ba575b506040519015158152f35b6301ffc9a760e01b149050826134af565b3461038f57602036600319011261038f576020906001600160a01b036134ef613501565b16600052600e82526040600020548152f35b600435906001600160a01b038216820361038f57565b602435906001600160a01b038216820361038f57565b9181601f8401121561038f578235916001600160401b03831161038f576020838186019501011161038f57565b3461038f57600036600319011261038f57602060405160648152f35b604081019081106001600160401b03821117610b9c57604052565b90601f801991011681019081106001600160401b03821117610b9c57604052565b81601f8201121561038f578035906001600160401b038211610b9c57604051926135e6601f8401601f191660200185613591565b8284526020838301011161038f57816000926020809301838601378301015290565b60005b83811061361b5750506000910152565b818101518382015260200161360b565b604060031982011261038f57600435906001600160401b03821161038f57613655916004016135b2565b906024356001600160a01b038116810361038f5790565b3461038f57600036600319011261038f5760206040516127108152f35b9060058210156106925752565b60243590811515820361038f57565b90600182811c921680156136d5575b60208310146136bf57565b634e487b7160e01b600052602260045260246000fd5b91607f16916136b4565b90604051918260008254926136f3846136a5565b908184526001948581169081600014613762575060011461371f575b505061371d92500383613591565b565b9093915060005260209081600020936000915b81831061374a57505061371d9350820101388061370f565b85548884018501529485019487945091830191613732565b91505061371d94506020925060ff191682840152151560051b820101388061370f565b9060209161379e81518092818552858086019101613608565b601f01601f1916010190565b3360009081527fac33ff75c19e70fe83507db0d683fd3465c996598dc972688b7ace676c89077b602052604081205460ff16156137e45750565b6044906040519063e2517d3f60e01b82523360048301526024820152fd5b80600052600260205260406000203360005260205260ff60406000205416156137e45750565b6001600160a01b031660008181527f6bc781d8c7f9885ebbb3cefbc18932c491038e2ae5c5b56447891e0bd98ea16360205260408120549091906000805160206140978339815191529060ff166138c45780835260026020526040832082845260205260408320600160ff198254161790557f2f8788117e7eff1d82e926ec794901d17c78024a50270940304540a733656f0d339380a4600190565b505090565b906000918083526002602052604083209160018060a01b03169182845260205260ff604084205416156000146138c45780835260026020526040832082845260205260408320600160ff198254161790557f2f8788117e7eff1d82e926ec794901d17c78024a50270940304540a733656f0d339380a4600190565b6001600160a01b031660008181527f6bc781d8c7f9885ebbb3cefbc18932c491038e2ae5c5b56447891e0bd98ea16360205260408120549091906000805160206140978339815191529060ff16156138c4578083526002602052604083208284526020526040832060ff1981541690557ff6391f5c32d9c69d2a47ea670b442974b53935d1edc7fd64eb21e047a839171b339380a4600190565b906000918083526002602052604083209160018060a01b03169182845260205260ff6040842054166000146138c4578083526002602052604083208284526020526040832060ff1981541690557ff6391f5c32d9c69d2a47ea670b442974b53935d1edc7fd64eb21e047a839171b339380a4600190565b15613a5c57565b60405162461bcd60e51b815260206004820152600f60248201526e496e76616c6964206164647265737360881b6044820152606490fd5b9190820180921161037957565b15613aa757565b60405162461bcd60e51b815260206004820152600c60248201526b139bdd081c1c9bdc1bdcd95960a21b6044820152606490fd5b60ff60015416613ae757565b60405163d93c066560e01b8152600490fd5b8115613b03570490565b634e487b7160e01b600052601260045260246000fd5b6040516323b872dd60e01b60208201526001600160a01b0391821660248201529116604482015260648082019290925290815260a08101906001600160401b03821181831017610b9c5761371d916040525b6020600082518273036cbd53842c5426634e7929541ec2318f3dcf7e940182855af115613bc7576000513d613bbe5750803b155b613ba65750565b60249060405190635274afe760e01b82526004820152fd5b60011415613b9f565b6040513d6000823e3d90fd5b600260005414613be4576002600055565b604051633ee5aeb560e01b8152600490fd5b15613bfd57565b60405162461bcd60e51b8152602060048201526009602482015268139bc81b585c9ad95d60ba1b6044820152606490fd5b8181029291811591840414171561037957565b9190820391821161037957565b91906001830160009082825280602052604082205415600014613cd25784549468010000000000000000861015613cbe5760018601808255861015613caa57836040949596828552602085200155549382526020522055600190565b634e487b7160e01b83526032600452602483fd5b634e487b7160e01b83526041600452602483fd5b50925050565b15613cdf57565b60405162461bcd60e51b815260206004820152601560248201527445766964656e63652055524c20746f6f206c6f6e6760581b6044820152606490fd5b15613d2357565b60405162461bcd60e51b8152602060048201526011602482015270125b9cdd59999a58da595b9d08189bdb99607a1b6044820152606490fd5b908060209392818452848401376000828201840152601f01601f1916010190565b15613d8457565b60405162461bcd60e51b815260206004820152600e60248201526d139bdd08185d5d1a1bdc9a5e995960921b6044820152606490fd5b15613dc157565b60405162461bcd60e51b815260206004820152600c60248201526b139bdd08191a5cdc1d5d195960a21b6044820152606490fd5b15613dfc57565b60405162461bcd60e51b815260206004820152600c60248201526b139bdd081c995cdbdb1d995960a21b6044820152606490fd5b15613e3757565b60405162461bcd60e51b815260206004820152600f60248201526e105b1c9958591e4818db185a5b5959608a1b6044820152606490fd5b60405163a9059cbb60e01b60208201526001600160a01b03909116602482015260448082019290925290815260808101906001600160401b03821181831017610b9c5761371d91604052613b6b565b15613ec457565b60405162461bcd60e51b81526020600482015260076024820152664e6f206665657360c81b6044820152606490fd5b91928215613f5d5715613f5257613f0d6096915b83613a93565b91670de0b6b3a7640000928381029381850414901517156103795768056bc75e2d6310000093613f43613f4992613f4e95613af9565b90613c2e565b613c2e565b0490565b613f0d606491613f07565b505050670de0b6b3a7640000908181029181830414901517156103795790565b801590818015613fbb575b613fb3576064810291818304606414171561037957613fb092613faa91613a93565b90613af9565b90565b505050603290565b508215613f88565b906006820180546040516000948054613fdb816136a5565b9160019180831690811561407c5750600114614040575b5050508060049394950390207fa76c3b7423c609f9756b55905a211a402af319118a555928e75d689b642bdba5604080516140308160ff8716613689565b856020820152a260ff1916179055565b9091965060005260209081600020906000915b88831061406b57505050948101945080600438613ff2565b805485840152918301918101614053565b60ff19168552505050801515028101945080600438613ff256fe97667070c54ef182b0f5858b034beac1b6f3089aa2d3188bb1e8929f4fa9b929a2646970667358221220c17ddb66225fda404184260c034d5475196aa7e087dc3cb34df4fa478e87f9f464736f6c634300081400332f8788117e7eff1d82e926ec794901d17c78024a50270940304540a733656f0d",
  "linkReferences": {},
  "deployedLinkReferences": {}
}