{
  "_format": "hh-sol-artifact-1",
  "contractName": "PredictionBattle",
  "sourceName": "contracts/PredictionBattle.sol",
  "abi": [
    {
      "inputs": [],
      "stateMutability": "nonpayable",
      "type": "constructor"
    },
    {
      "anonymous": false,
      "inputs": [
        {
          "indexed": false,
          "internalType": "string",
          "name": "id",
          "type": "string"
        },
        {
          "indexed": false,
          "internalType": "address",
          "name": "user",
          "type": "address"
        },
        {
          "indexed": false,
          "internalType": "bool",
          "name": "vote",
          "type": "bool"
        },
        {
          "indexed": false,
          "internalType": "uint256",
          "name": "amount",
          "type": "uint256"
        }
      ],
      "name": "BetPlaced",
      "type": "event"
    },
    {
      "anonymous": false,
      "inputs": [
        {
          "indexed": false,
          "internalType": "string",
          "name": "id",
          "type": "string"
        }
      ],
      "name": "DistributionCompleted",
      "type": "event"
    },
    {
      "anonymous": false,
      "inputs": [
        {
          "indexed": false,
          "internalType": "address",
          "name": "operator",
          "type": "address"
        },
        {
          "indexed": false,
          "internalType": "bool",
          "name": "status",
          "type": "bool"
        }
      ],
      "name": "OperatorUpdated",
      "type": "event"
    },
    {
      "anonymous": false,
      "inputs": [
        {
          "indexed": false,
          "internalType": "string",
          "name": "id",
          "type": "string"
        },
        {
          "indexed": false,
          "internalType": "address",
          "name": "user",
          "type": "address"
        },
        {
          "indexed": false,
          "internalType": "uint256",
          "name": "amount",
          "type": "uint256"
        }
      ],
      "name": "PayoutDistributed",
      "type": "event"
    },
    {
      "anonymous": false,
      "inputs": [
        {
          "indexed": false,
          "internalType": "string",
          "name": "id",
          "type": "string"
        },
        {
          "indexed": false,
          "internalType": "address",
          "name": "creator",
          "type": "address"
        },
        {
          "indexed": false,
          "internalType": "uint256",
          "name": "target",
          "type": "uint256"
        },
        {
          "indexed": false,
          "internalType": "uint256",
          "name": "deadline",
          "type": "uint256"
        }
      ],
      "name": "PredictionCreated",
      "type": "event"
    },
    {
      "anonymous": false,
      "inputs": [
        {
          "indexed": false,
          "internalType": "string",
          "name": "id",
          "type": "string"
        },
        {
          "indexed": false,
          "internalType": "bool",
          "name": "result",
          "type": "bool"
        },
        {
          "indexed": false,
          "internalType": "uint256",
          "name": "winnerPool",
          "type": "uint256"
        },
        {
          "indexed": false,
          "internalType": "uint256",
          "name": "platformFee",
          "type": "uint256"
        },
        {
          "indexed": false,
          "internalType": "uint256",
          "name": "creatorFee",
          "type": "uint256"
        }
      ],
      "name": "PredictionResolved",
      "type": "event"
    },
    {
      "anonymous": false,
      "inputs": [
        {
          "indexed": false,
          "internalType": "string",
          "name": "id",
          "type": "string"
        },
        {
          "indexed": false,
          "internalType": "uint256",
          "name": "totalPool",
          "type": "uint256"
        },
        {
          "indexed": false,
          "internalType": "uint256",
          "name": "platformFee",
          "type": "uint256"
        }
      ],
      "name": "PredictionVoided",
      "type": "event"
    },
    {
      "anonymous": false,
      "inputs": [
        {
          "indexed": false,
          "internalType": "string",
          "name": "id",
          "type": "string"
        },
        {
          "indexed": false,
          "internalType": "uint256",
          "name": "seedYes",
          "type": "uint256"
        },
        {
          "indexed": false,
          "internalType": "uint256",
          "name": "seedNo",
          "type": "uint256"
        }
      ],
      "name": "SeedAdded",
      "type": "event"
    },
    {
      "inputs": [],
      "name": "admin",
      "outputs": [
        {
          "internalType": "address",
          "name": "",
          "type": "address"
        }
      ],
      "stateMutability": "view",
      "type": "function"
    },
    {
      "inputs": [
        {
          "internalType": "string",
          "name": "_id",
          "type": "string"
        },
        {
          "internalType": "uint256",
          "name": "_target",
          "type": "uint256"
        },
        {
          "internalType": "uint256",
          "name": "_duration",
          "type": "uint256"
        }
      ],
      "name": "createPrediction",
      "outputs": [],
      "stateMutability": "payable",
      "type": "function"
    },
    {
      "inputs": [],
      "name": "creatorFeeBps",
      "outputs": [
        {
          "internalType": "uint256",
          "name": "",
          "type": "uint256"
        }
      ],
      "stateMutability": "view",
      "type": "function"
    },
    {
      "inputs": [
        {
          "internalType": "string",
          "name": "_id",
          "type": "string"
        },
        {
          "internalType": "uint256",
          "name": "_batchSize",
          "type": "uint256"
        }
      ],
      "name": "distributeWinnings",
      "outputs": [],
      "stateMutability": "nonpayable",
      "type": "function"
    },
    {
      "inputs": [
        {
          "internalType": "address",
          "name": "",
          "type": "address"
        }
      ],
      "name": "operators",
      "outputs": [
        {
          "internalType": "bool",
          "name": "",
          "type": "bool"
        }
      ],
      "stateMutability": "view",
      "type": "function"
    },
    {
      "inputs": [
        {
          "internalType": "string",
          "name": "_id",
          "type": "string"
        },
        {
          "internalType": "bool",
          "name": "_vote",
          "type": "bool"
        }
      ],
      "name": "placeBet",
      "outputs": [],
      "stateMutability": "payable",
      "type": "function"
    },
    {
      "inputs": [],
      "name": "platformFeeBps",
      "outputs": [
        {
          "internalType": "uint256",
          "name": "",
          "type": "uint256"
        }
      ],
      "stateMutability": "view",
      "type": "function"
    },
    {
      "inputs": [
        {
          "internalType": "string",
          "name": "",
          "type": "string"
        }
      ],
      "name": "predictionExists",
      "outputs": [
        {
          "internalType": "bool",
          "name": "",
          "type": "bool"
        }
      ],
      "stateMutability": "view",
      "type": "function"
    },
    {
      "inputs": [
        {
          "internalType": "string",
          "name": "",
          "type": "string"
        }
      ],
      "name": "predictions",
      "outputs": [
        {
          "internalType": "string",
          "name": "id",
          "type": "string"
        },
        {
          "internalType": "address",
          "name": "creator",
          "type": "address"
        },
        {
          "internalType": "uint256",
          "name": "target",
          "type": "uint256"
        },
        {
          "internalType": "uint256",
          "name": "deadline",
          "type": "uint256"
        },
        {
          "internalType": "bool",
          "name": "resolved",
          "type": "bool"
        },
        {
          "internalType": "bool",
          "name": "result",
          "type": "bool"
        },
        {
          "internalType": "uint256",
          "name": "totalYes",
          "type": "uint256"
        },
        {
          "internalType": "uint256",
          "name": "totalNo",
          "type": "uint256"
        },
        {
          "internalType": "uint256",
          "name": "seedYes",
          "type": "uint256"
        },
        {
          "internalType": "uint256",
          "name": "seedNo",
          "type": "uint256"
        },
        {
          "internalType": "bool",
          "name": "isVoid",
          "type": "bool"
        },
        {
          "internalType": "uint256",
          "name": "processedIndex",
          "type": "uint256"
        },
        {
          "internalType": "bool",
          "name": "paidOut",
          "type": "bool"
        }
      ],
      "stateMutability": "view",
      "type": "function"
    },
    {
      "inputs": [
        {
          "internalType": "string",
          "name": "_id",
          "type": "string"
        },
        {
          "internalType": "bool",
          "name": "_result",
          "type": "bool"
        }
      ],
      "name": "resolvePrediction",
      "outputs": [],
      "stateMutability": "nonpayable",
      "type": "function"
    },
    {
      "inputs": [
        {
          "internalType": "string",
          "name": "_id",
          "type": "string"
        }
      ],
      "name": "resolveVoid",
      "outputs": [],
      "stateMutability": "nonpayable",
      "type": "function"
    },
    {
      "inputs": [
        {
          "internalType": "string",
          "name": "_id",
          "type": "string"
        }
      ],
      "name": "seedPrediction",
      "outputs": [],
      "stateMutability": "payable",
      "type": "function"
    },
    {
      "inputs": [
        {
          "internalType": "address",
          "name": "_operator",
          "type": "address"
        },
        {
          "internalType": "bool",
          "name": "_status",
          "type": "bool"
        }
      ],
      "name": "setOperator",
      "outputs": [],
      "stateMutability": "nonpayable",
      "type": "function"
    }
  ],
  "bytecode": "0x60808060405234610034576101f46001556103e8600255600080546001600160a01b03191633179055611883908161003a8239f35b600080fdfe60a060408181526004918236101561001657600080fd5b600092833560e01c91826313e7c9d814610e6f5750816317773ebb14610e5057816322dcd13e14610e315781634a90004814610d23578163558a729714610c995781637321c829146109f55781637b4fd3e31461085957816385495028146107f357838263964289fc146106c457508163af69bdce1461064b578163b99f0db01461045a578163f33c109d146100e0575063f851a440146100b657600080fd5b346100dc57816003193601126100dc57905490516001600160a01b039091168152602090f35b5080fd5b905060603660031901126104565767ffffffffffffffff9181358381116104525761010e9036908401610f19565b9160243582519184519060ff6020948581818a019561012e818389610f9b565b810185815203019020541661040f5734151580610404575b61014f90611074565b845184818851610160818388610f9b565b810160038152030190209686519081116103f157908892916101828954610fbe565b601f81116103a1575b5085601f82116001146102e4579884600161028f897f80587d5a515a1daed27dd118e79e2901c44ac8c1448c2ac0004ff6efa35ea08c976102d39b977fff36ff50e65334f5ea64776f95ec82ce2fbd32a145dd5258689e2027c1c61b3a9f97879f9e9b8f9960089e9a836102d9575b5050600019600383901b1c191690861b1787555b86850180546001600160a01b0319163317905560028701889055600f610236604435426110c0565b97600381019889558281019760ff1998898154169055600d8201898154169055600e8201550186815416905534851c9e8f9c818e60058194015582600682015582600782015501558d8b51948593849251928391610f9b565b8201908152030190209182541617905554918451928392608084526102b7608085018b610ff8565b9233908501528684015260608301520390a15193849384611103565b0390a180f35b015190508f806101fa565b89855286852090601f198316865b818110610387575061028f897f80587d5a515a1daed27dd118e79e2901c44ac8c1448c2ac0004ff6efa35ea08c976102d39b977fff36ff50e65334f5ea64776f95ec82ce2fbd32a145dd5258689e2027c1c61b3a9f9e9d9a958f97988f996001979260089f9b838a951061036e575b505050811b01875561020e565b015160001960f88460031b161c191690558f3881610361565b8b83015184558d97506001909301929189019189016102f2565b90919293899052858a20601f830160051c8101918784106103e7575b90601f8c96959493920160051c01905b8181106103da575061018b565b9485558a946001016103cd565b90915081906103bd565b634e487b7160e01b895260418252602489fd5b503460011615610146565b845162461bcd60e51b8152908101849052601c60248201527f50726564696374696f6e20494420616c726561647920657869737473000000006044820152606490fd5b8480fd5b8280fd5b9160ff915061046836610f60565b90936104aa8351865161049a60209783898095818d019561048a818389610f9b565b8101898152030190205416611125565b8551809381928a51928391610f9b565b8101600381520301902090600382015442101561060f5734156105c2575091817ff1b5b55d4eb3da18fbbffc43e6e34b06f94fcb6316aead707ad556bf22aee40c959361054795936000146105715780600b60059201338a52808652848a20541561055f575b338a5285528389206105233482546110c0565b9055016105313482546110c0565b90555b8151948594608086526080860190610ff8565b9233908501521515908301523460608301520390a180f35b61056c336009840161119f565b610510565b80600c60069201338a52808652848a2054156105b0575b338a52855283892061059b3482546110c0565b9055016105a93482546110c0565b9055610534565b6105bd33600a840161119f565b610588565b835162461bcd60e51b8152908101859052602160248201527f42657420616d6f756e74206d7573742062652067726561746572207468616e206044820152600360fc1b6064820152608490fd5b835162461bcd60e51b8152908101859052601660248201527510995d1d1a5b99c81c195c9a5bd908195e1c1a5c995960521b6044820152606490fd5b9190503461045657806003193601126104565781359167ffffffffffffffff83116106c05761068361069e916106a794369101610f19565b9160018060a01b0385541633149081156106aa575b506111df565b602435906113ca565b80f35b60ff915033865260056020528520541638610698565b8380fd5b929150346107ef5760203660031901126107ef57803567ffffffffffffffff81116107ea577fa3ce321670cf1577a276bea0d3a7f932314dff3e9fb3266a1e2435bd79d91d02936107df61071e6102d39336908601610f19565b936107ad60018060a01b039161073883865416331461101d565b61076860208861075860ff8c51848181865196019561048a818389610f9b565b8a51809381928c51928391610f9b565b8101600381520301902090810180549061078560ff83161561121c565b600160ff198093161790556001600d83019182541617905560066005820154910154906110c0565b6107da8480806127106107c26002548761125b565b04978880978254165af16107d461126e565b5061129e565b6112ea565b935193849384611103565b505050fd5b5050fd5b8284346108565760203660031901126108565782359067ffffffffffffffff821161085657506108426020809461082f60ff9436908301610f19565b9082865194838680955193849201610f9b565b820190815203019020541690519015158152f35b80fd5b82843461085657602091826003193601126100dc57833567ffffffffffffffff811161045657836108906108a29236908801610f19565b81845193828580945193849201610f9b565b8101600381520301902081519283818354926108bd84610fbe565b908184526001948986821691826000146109d95750506001146109a0575b5050036108e89085610ec5565b600160a01b600190039082015416946002820154906003830154908301546005840154600685015490600786015492600887015494600d88015460ff1696600e89015498600f015460ff169980519d8e9d8e9d8e6101a0908181520161094d91610ff8565b9d01528c015260608b015260ff8116151560808b015260081c60ff16151560a08a015260c089015260e0880152610100870152610120860152151561014085015261016084015215156101808301520390f35b90889250858252848383205b8284106109c05750505082010188806108db565b8054848b018601528995508a94909301928691016109ac565b925093505060ff191682840152151560051b82010188806108db565b9050346104565782610a0636610f60565b92909360018060a01b038084541633148015610c84575b610a26906111df565b815192848080808a51888c60209a8b80920193610a44818387610f9b565b8101898152030190205460ff16610a5a90611125565b888c895180938192518092610a6e92610f9b565b8101600381520301902095858701805460ff811615610a8c9061121c565b8c151560081b61ff00169061ffff191617600117905560058701546006880154610ab5916110c0565b968280806127109d8e8c600254610acb9161125b565b049e8f908d600154610adc9161125b565b04608052868254165af1610aee61126e565b50610af89061129e565b60010190808254168015159081610c76575b5015610bdb576080519154165af1610b2061126e565b5015610b985750917f65be36b964ee454ce90da3ae5de836b70cdcb2fccd458dbcc7171e7ce655b27e959391610b67610b7b96945b610b61608051866110c0565b906112ea565b91815196879660a0885260a0880190610ff8565b94151590860152840152606083015260805160808301520390a180f35b825162461bcd60e51b8152908101849052601a60248201527f4661696c656420746f2073656e642063726561746f72206665650000000000006044820152606490fd5b9050608051908254165af1610bee61126e565b5015610c275750917f65be36b964ee454ce90da3ae5de836b70cdcb2fccd458dbcc7171e7ce655b27e959391610b67610b7b9694610b55565b825162461bcd60e51b8152908101849052602360248201527f4661696c656420746f2073656e642063726561746f722066656520746f20616460448201526236b4b760e91b6064820152608490fd5b905081845416141538610b0a565b5033845260056020528184205460ff16610a1d565b5050346100dc57806003193601126100dc57610cb3610eaa565b906024358015158091036106c05783547f966c160e1c4dbc7df8d69af4ace01e9297c3cf016397b7914971f2fbfa32672d936001600160a01b0391610cfb908316331461101d565b1690818552600560205282852060ff1981541660ff831617905582519182526020820152a180f35b905060203660031901126104565780359167ffffffffffffffff83116106c0576102d3602092610d777fff36ff50e65334f5ea64776f95ec82ce2fbd32a145dd5258689e2027c1c61b3a9536908301610f19565b92610da360ff82518781885196828a0197610d9381848b610f9b565b8201908152030190205416611125565b34151580610e26575b610db590611074565b6008610dd13460011c9687948451809381928a51928391610f9b565b8101600381520301902060058101610dea8582546110c0565b905560068101610dfb8582546110c0565b905560078101610e0c8582546110c0565b905501610e1a8382546110c0565b90555193849384611103565b503460011615610dac565b5050346100dc57816003193601126100dc576020906002549051908152f35b5050346100dc57816003193601126100dc576020906001549051908152f35b849084346104565760203660031901126104565760209260ff91906001600160a01b03610e9a610eaa565b1681526005855220541615158152f35b600435906001600160a01b0382168203610ec057565b600080fd5b90601f8019910116810190811067ffffffffffffffff821117610ee757604052565b634e487b7160e01b600052604160045260246000fd5b67ffffffffffffffff8111610ee757601f01601f191660200190565b81601f82011215610ec057803590610f3082610efd565b92610f3e6040519485610ec5565b82845260208383010111610ec057816000926020809301838601378301015290565b6040600319820112610ec0576004359067ffffffffffffffff8211610ec057610f8b91600401610f19565b906024358015158103610ec05790565b60005b838110610fae5750506000910152565b8181015183820152602001610f9e565b90600182811c92168015610fee575b6020831014610fd857565b634e487b7160e01b600052602260045260246000fd5b91607f1691610fcd565b9060209161101181518092818552858086019101610f9b565b601f01601f1916010190565b1561102457565b60405162461bcd60e51b815260206004820152602260248201527f4f6e6c792061646d696e2063616e20706572666f726d2074686973206163746960448201526137b760f11b6064820152608490fd5b1561107b57565b60405162461bcd60e51b815260206004820152601960248201527f53656564206d757374206265203e203020616e64206576656e000000000000006044820152606490fd5b919082018092116110cd57565b634e487b7160e01b600052601160045260246000fd5b81156110ed570490565b634e487b7160e01b600052601260045260246000fd5b61111b60409295949395606083526060830190610ff8565b9460208201520152565b1561112c57565b60405162461bcd60e51b815260206004820152601960248201527f50726564696374696f6e20646f6573206e6f74206578697374000000000000006044820152606490fd5b80548210156111895760005260206000200190600090565b634e487b7160e01b600052603260045260246000fd5b805468010000000000000000811015610ee7576111c191600182018155611171565b819291549060031b9160018060a01b03809116831b921b1916179055565b156111e657565b60405162461bcd60e51b815260206004820152600e60248201526d139bdd08185d5d1a1bdc9a5e995960921b6044820152606490fd5b1561122357565b60405162461bcd60e51b815260206004820152601060248201526f105b1c9958591e481c995cdbdb1d995960821b6044820152606490fd5b818102929181159184041417156110cd57565b3d15611299573d9061127f82610efd565b9161128d6040519384610ec5565b82523d6000602084013e565b606090565b156112a557565b60405162461bcd60e51b815260206004820152601b60248201527f4661696c656420746f2073656e6420706c6174666f726d2066656500000000006044820152606490fd5b919082039182116110cd57565b60001981146110cd5760010190565b1561130d57565b60405162461bcd60e51b815260206004820152600f60248201526e151c985b9cd9995c8819985a5b1959608a1b6044820152606490fd5b61135c60409295949395606083526060830190610ff8565b6001600160a01b0390951660208201520152565b9060405191828154918282526020928383019160005283600020936000905b8282106113a7575050506113a592500383610ec5565b565b85546001600160a01b03168452600195860195889550938101939091019061138f565b9060405160208184516113e08183858901610f9b565b810160038152030190209060ff600483015416156118085760ff600f830154166117ca5760009060058301805461141d60068601918254906110c0565b9361144a6127106107da816114346002548a61125b565b04916114426001548a61125b565b0491886112ea565b9460ff600d88015416611644575050600485015460081c60ff1615611626575061148661147960098601611370565b91546007860154906112ea565b928151938415801561161e575b611606576114a6600e87015494856110c0565b938585116115fe575b848110611516575050505080600e84015510156114ca575050565b600f01805460ff1916600117905560405160208082527f9ec2be866260137327142d7404b7fcc5cc8498409bc29470d3e480b6104318589282916115119190830190610ff8565b0390a1565b835181101561118957611576908260018060a01b0360208360051b88010151168a600060ff60048d015460081c166000146115e557505080600052600b8a016020528a60406000206000815491555b878161157b575b50505050506112f7565b6114af565b7f1dbdb822c5640c362e09f214d7cbc87a4c65998f48cbef088e5bb6f702032839946115ad6115b2926115d89461125b565b6110e3565b6115cc600080808085895af16115c661126e565b50611306565b60405193849384611344565b0390a182388a818761156c565b808360409252600c8d0160205220600081549155611565565b8594506114af565b505050600f909201805460ff19166001179055505050565b508015611493565b9050611486611637600a8601611370565b91546008860154906112ea565b94925090506009850191825494600a8701926116618454886110c0565b96600e890195611673875498896110c0565b978989116117c2575b9088979695949392915b88811061169f57505050505050505510156114ca575050565b836116f792939495969798995050838110600014611784578b8d6116c38386611171565b60018060a01b0391549060031b1c1690818852600b8301602052604088209288845494555b83611705575b505050506112f7565b908897969594939291611686565b80600861171960076117229401548d6112ea565b910154906112ea565b928a84611732575b50508e6116ee565b7f1dbdb822c5640c362e09f214d7cbc87a4c65998f48cbef088e5bb6f702032839946115ad611764926117779461125b565b6115cc8a80808085895af16115c661126e565b0390a138808e818a61172a565b8b8d61179961179387856112ea565b8b611171565b60018060a01b0391549060031b1c1690818852600c8301602052604088209288845494556116e8565b89985061167c565b60405162461bcd60e51b8152602060048201526016602482015275105b1c9958591e48199d5b1b1e481c185a59081bdd5d60521b6044820152606490fd5b60405162461bcd60e51b815260206004820152601b60248201527f50726564696374696f6e206e6f74207265736f6c7665642079657400000000006044820152606490fdfea26469706673582212205cfe341c94111f0536d7e28cdeb342a8dea52f574ee90b92df32dddd3ed5edbe64736f6c63430008140033",
  "linkReferences": {},
  "deployedLinkReferences": {}
}