{
  "_format": "hh-sol-artifact-1",
  "contractName": "PredictionBattleV2",
  "sourceName": "contracts/PredictionBattleV2.sol",
  "abi": [
    {
      "inputs": [
        {
          "internalType": "address",
          "name": "_usdcAddress",
          "type": "address"
        }
      ],
      "stateMutability": "nonpayable",
      "type": "constructor"
    },
    {
      "anonymous": false,
      "inputs": [
        {
          "indexed": true,
          "internalType": "string",
          "name": "id",
          "type": "string"
        },
        {
          "indexed": true,
          "internalType": "address",
          "name": "user",
          "type": "address"
        },
        {
          "indexed": false,
          "internalType": "bool",
          "name": "vote",
          "type": "bool"
        },
        {
          "indexed": false,
          "internalType": "uint256",
          "name": "amount",
          "type": "uint256"
        },
        {
          "indexed": false,
          "internalType": "uint256",
          "name": "shares",
          "type": "uint256"
        },
        {
          "indexed": false,
          "internalType": "address",
          "name": "referrer",
          "type": "address"
        },
        {
          "indexed": false,
          "internalType": "uint256",
          "name": "weight",
          "type": "uint256"
        }
      ],
      "name": "BetPlaced",
      "type": "event"
    },
    {
      "anonymous": false,
      "inputs": [
        {
          "indexed": true,
          "internalType": "address",
          "name": "user",
          "type": "address"
        },
        {
          "indexed": false,
          "internalType": "uint256",
          "name": "amount",
          "type": "uint256"
        }
      ],
      "name": "CreatorRewardClaimed",
      "type": "event"
    },
    {
      "anonymous": false,
      "inputs": [
        {
          "indexed": true,
          "internalType": "address",
          "name": "admin",
          "type": "address"
        },
        {
          "indexed": false,
          "internalType": "uint256",
          "name": "amount",
          "type": "uint256"
        }
      ],
      "name": "HouseWithdraw",
      "type": "event"
    },
    {
      "anonymous": false,
      "inputs": [
        {
          "indexed": true,
          "internalType": "string",
          "name": "id",
          "type": "string"
        },
        {
          "indexed": true,
          "internalType": "address",
          "name": "creator",
          "type": "address"
        },
        {
          "indexed": false,
          "internalType": "uint256",
          "name": "deadline",
          "type": "uint256"
        },
        {
          "indexed": false,
          "internalType": "uint256",
          "name": "bonusDuration",
          "type": "uint256"
        }
      ],
      "name": "MarketCreated",
      "type": "event"
    },
    {
      "anonymous": false,
      "inputs": [
        {
          "indexed": true,
          "internalType": "string",
          "name": "id",
          "type": "string"
        },
        {
          "indexed": false,
          "internalType": "bool",
          "name": "result",
          "type": "bool"
        },
        {
          "indexed": false,
          "internalType": "uint256",
          "name": "winnerPool",
          "type": "uint256"
        }
      ],
      "name": "MarketResolved",
      "type": "event"
    },
    {
      "anonymous": false,
      "inputs": [
        {
          "indexed": true,
          "internalType": "string",
          "name": "id",
          "type": "string"
        }
      ],
      "name": "MarketVoided",
      "type": "event"
    },
    {
      "anonymous": false,
      "inputs": [
        {
          "indexed": true,
          "internalType": "address",
          "name": "operator",
          "type": "address"
        },
        {
          "indexed": false,
          "internalType": "bool",
          "name": "status",
          "type": "bool"
        }
      ],
      "name": "OperatorUpdated",
      "type": "event"
    },
    {
      "anonymous": false,
      "inputs": [
        {
          "indexed": true,
          "internalType": "address",
          "name": "user",
          "type": "address"
        },
        {
          "indexed": false,
          "internalType": "uint256",
          "name": "amount",
          "type": "uint256"
        }
      ],
      "name": "ReferralRewardClaimed",
      "type": "event"
    },
    {
      "anonymous": false,
      "inputs": [
        {
          "indexed": true,
          "internalType": "string",
          "name": "id",
          "type": "string"
        },
        {
          "indexed": true,
          "internalType": "address",
          "name": "user",
          "type": "address"
        },
        {
          "indexed": false,
          "internalType": "uint256",
          "name": "amount",
          "type": "uint256"
        }
      ],
      "name": "RewardClaimed",
      "type": "event"
    },
    {
      "anonymous": false,
      "inputs": [
        {
          "indexed": true,
          "internalType": "string",
          "name": "id",
          "type": "string"
        },
        {
          "indexed": false,
          "internalType": "uint256",
          "name": "yesAmount",
          "type": "uint256"
        },
        {
          "indexed": false,
          "internalType": "uint256",
          "name": "noAmount",
          "type": "uint256"
        }
      ],
      "name": "SeedAdded",
      "type": "event"
    },
    {
      "inputs": [],
      "name": "FEE_DENOMINATOR",
      "outputs": [
        {
          "internalType": "uint256",
          "name": "",
          "type": "uint256"
        }
      ],
      "stateMutability": "view",
      "type": "function"
    },
    {
      "inputs": [],
      "name": "MAX_WEIGHT",
      "outputs": [
        {
          "internalType": "uint256",
          "name": "",
          "type": "uint256"
        }
      ],
      "stateMutability": "view",
      "type": "function"
    },
    {
      "inputs": [],
      "name": "MIN_WEIGHT",
      "outputs": [
        {
          "internalType": "uint256",
          "name": "",
          "type": "uint256"
        }
      ],
      "stateMutability": "view",
      "type": "function"
    },
    {
      "inputs": [],
      "name": "SHARE_PRECISION",
      "outputs": [
        {
          "internalType": "uint256",
          "name": "",
          "type": "uint256"
        }
      ],
      "stateMutability": "view",
      "type": "function"
    },
    {
      "inputs": [],
      "name": "admin",
      "outputs": [
        {
          "internalType": "address",
          "name": "",
          "type": "address"
        }
      ],
      "stateMutability": "view",
      "type": "function"
    },
    {
      "inputs": [],
      "name": "claimCreatorRewards",
      "outputs": [],
      "stateMutability": "nonpayable",
      "type": "function"
    },
    {
      "inputs": [],
      "name": "claimReferralRewards",
      "outputs": [],
      "stateMutability": "nonpayable",
      "type": "function"
    },
    {
      "inputs": [
        {
          "internalType": "string",
          "name": "_marketId",
          "type": "string"
        }
      ],
      "name": "claimReward",
      "outputs": [],
      "stateMutability": "nonpayable",
      "type": "function"
    },
    {
      "inputs": [
        {
          "internalType": "string",
          "name": "_id",
          "type": "string"
        },
        {
          "internalType": "string",
          "name": "_question",
          "type": "string"
        },
        {
          "internalType": "uint256",
          "name": "_usdcSeedAmount",
          "type": "uint256"
        },
        {
          "internalType": "uint256",
          "name": "_duration",
          "type": "uint256"
        },
        {
          "internalType": "uint256",
          "name": "_bonusDuration",
          "type": "uint256"
        }
      ],
      "name": "createMarket",
      "outputs": [],
      "stateMutability": "nonpayable",
      "type": "function"
    },
    {
      "inputs": [
        {
          "internalType": "address",
          "name": "",
          "type": "address"
        }
      ],
      "name": "creatorBalance",
      "outputs": [
        {
          "internalType": "uint256",
          "name": "",
          "type": "uint256"
        }
      ],
      "stateMutability": "view",
      "type": "function"
    },
    {
      "inputs": [],
      "name": "creatorFeeBps",
      "outputs": [
        {
          "internalType": "uint256",
          "name": "",
          "type": "uint256"
        }
      ],
      "stateMutability": "view",
      "type": "function"
    },
    {
      "inputs": [
        {
          "internalType": "string",
          "name": "_marketId",
          "type": "string"
        },
        {
          "internalType": "bool",
          "name": "_side",
          "type": "bool"
        },
        {
          "internalType": "uint256",
          "name": "_usdcAmount",
          "type": "uint256"
        }
      ],
      "name": "estimatePayout",
      "outputs": [
        {
          "internalType": "uint256",
          "name": "estimatedShares",
          "type": "uint256"
        },
        {
          "internalType": "uint256",
          "name": "estimatedPayout",
          "type": "uint256"
        }
      ],
      "stateMutability": "view",
      "type": "function"
    },
    {
      "inputs": [
        {
          "internalType": "string",
          "name": "_marketId",
          "type": "string"
        }
      ],
      "name": "getCurrentWeight",
      "outputs": [
        {
          "internalType": "uint256",
          "name": "",
          "type": "uint256"
        }
      ],
      "stateMutability": "view",
      "type": "function"
    },
    {
      "inputs": [
        {
          "internalType": "string",
          "name": "_marketId",
          "type": "string"
        }
      ],
      "name": "getMarketInfo",
      "outputs": [
        {
          "internalType": "address",
          "name": "creator",
          "type": "address"
        },
        {
          "internalType": "uint256",
          "name": "deadline",
          "type": "uint256"
        },
        {
          "internalType": "bool",
          "name": "resolved",
          "type": "bool"
        },
        {
          "internalType": "bool",
          "name": "result",
          "type": "bool"
        },
        {
          "internalType": "uint256",
          "name": "totalYes",
          "type": "uint256"
        },
        {
          "internalType": "uint256",
          "name": "totalNo",
          "type": "uint256"
        },
        {
          "internalType": "uint256",
          "name": "totalSharesYes",
          "type": "uint256"
        },
        {
          "internalType": "uint256",
          "name": "totalSharesNo",
          "type": "uint256"
        }
      ],
      "stateMutability": "view",
      "type": "function"
    },
    {
      "inputs": [
        {
          "internalType": "string",
          "name": "_marketId",
          "type": "string"
        },
        {
          "internalType": "address",
          "name": "_user",
          "type": "address"
        },
        {
          "internalType": "bool",
          "name": "_side",
          "type": "bool"
        }
      ],
      "name": "getUserBet",
      "outputs": [
        {
          "internalType": "uint256",
          "name": "amount",
          "type": "uint256"
        },
        {
          "internalType": "uint256",
          "name": "shares",
          "type": "uint256"
        },
        {
          "internalType": "address",
          "name": "referrer",
          "type": "address"
        },
        {
          "internalType": "bool",
          "name": "claimed",
          "type": "bool"
        }
      ],
      "stateMutability": "view",
      "type": "function"
    },
    {
      "inputs": [],
      "name": "houseBalance",
      "outputs": [
        {
          "internalType": "uint256",
          "name": "",
          "type": "uint256"
        }
      ],
      "stateMutability": "view",
      "type": "function"
    },
    {
      "inputs": [],
      "name": "houseFeeBps",
      "outputs": [
        {
          "internalType": "uint256",
          "name": "",
          "type": "uint256"
        }
      ],
      "stateMutability": "view",
      "type": "function"
    },
    {
      "inputs": [
        {
          "internalType": "string",
          "name": "",
          "type": "string"
        }
      ],
      "name": "marketExists",
      "outputs": [
        {
          "internalType": "bool",
          "name": "",
          "type": "bool"
        }
      ],
      "stateMutability": "view",
      "type": "function"
    },
    {
      "inputs": [
        {
          "internalType": "string",
          "name": "",
          "type": "string"
        }
      ],
      "name": "markets",
      "outputs": [
        {
          "internalType": "string",
          "name": "id",
          "type": "string"
        },
        {
          "internalType": "address",
          "name": "creator",
          "type": "address"
        },
        {
          "internalType": "string",
          "name": "question",
          "type": "string"
        },
        {
          "internalType": "uint256",
          "name": "creationTime",
          "type": "uint256"
        },
        {
          "internalType": "uint256",
          "name": "bonusDuration",
          "type": "uint256"
        },
        {
          "internalType": "uint256",
          "name": "deadline",
          "type": "uint256"
        },
        {
          "internalType": "bool",
          "name": "resolved",
          "type": "bool"
        },
        {
          "internalType": "bool",
          "name": "result",
          "type": "bool"
        },
        {
          "internalType": "bool",
          "name": "isVoid",
          "type": "bool"
        },
        {
          "internalType": "bool",
          "name": "paidOut",
          "type": "bool"
        },
        {
          "internalType": "uint256",
          "name": "processedIndex",
          "type": "uint256"
        },
        {
          "internalType": "uint256",
          "name": "totalYes",
          "type": "uint256"
        },
        {
          "internalType": "uint256",
          "name": "totalNo",
          "type": "uint256"
        },
        {
          "internalType": "uint256",
          "name": "seedYes",
          "type": "uint256"
        },
        {
          "internalType": "uint256",
          "name": "seedNo",
          "type": "uint256"
        },
        {
          "internalType": "uint256",
          "name": "totalSharesYes",
          "type": "uint256"
        },
        {
          "internalType": "uint256",
          "name": "totalSharesNo",
          "type": "uint256"
        }
      ],
      "stateMutability": "view",
      "type": "function"
    },
    {
      "inputs": [
        {
          "internalType": "string",
          "name": "",
          "type": "string"
        },
        {
          "internalType": "address",
          "name": "",
          "type": "address"
        }
      ],
      "name": "noBets",
      "outputs": [
        {
          "internalType": "uint256",
          "name": "amount",
          "type": "uint256"
        },
        {
          "internalType": "uint256",
          "name": "shares",
          "type": "uint256"
        },
        {
          "internalType": "address",
          "name": "referrer",
          "type": "address"
        },
        {
          "internalType": "bool",
          "name": "claimed",
          "type": "bool"
        }
      ],
      "stateMutability": "view",
      "type": "function"
    },
    {
      "inputs": [
        {
          "internalType": "address",
          "name": "",
          "type": "address"
        }
      ],
      "name": "operators",
      "outputs": [
        {
          "internalType": "bool",
          "name": "",
          "type": "bool"
        }
      ],
      "stateMutability": "view",
      "type": "function"
    },
    {
      "inputs": [
        {
          "internalType": "string",
          "name": "_marketId",
          "type": "string"
        },
        {
          "internalType": "bool",
          "name": "_side",
          "type": "bool"
        },
        {
          "internalType": "uint256",
          "name": "_usdcAmount",
          "type": "uint256"
        },
        {
          "internalType": "address",
          "name": "_referrer",
          "type": "address"
        }
      ],
      "name": "placeBet",
      "outputs": [],
      "stateMutability": "nonpayable",
      "type": "function"
    },
    {
      "inputs": [],
      "name": "referrerFeeBps",
      "outputs": [
        {
          "internalType": "uint256",
          "name": "",
          "type": "uint256"
        }
      ],
      "stateMutability": "view",
      "type": "function"
    },
    {
      "inputs": [
        {
          "internalType": "string",
          "name": "_marketId",
          "type": "string"
        },
        {
          "internalType": "bool",
          "name": "_result",
          "type": "bool"
        }
      ],
      "name": "resolveMarket",
      "outputs": [],
      "stateMutability": "nonpayable",
      "type": "function"
    },
    {
      "inputs": [
        {
          "internalType": "address",
          "name": "",
          "type": "address"
        }
      ],
      "name": "rewardsBalance",
      "outputs": [
        {
          "internalType": "uint256",
          "name": "",
          "type": "uint256"
        }
      ],
      "stateMutability": "view",
      "type": "function"
    },
    {
      "inputs": [
        {
          "internalType": "address",
          "name": "_newAdmin",
          "type": "address"
        }
      ],
      "name": "setAdmin",
      "outputs": [],
      "stateMutability": "nonpayable",
      "type": "function"
    },
    {
      "inputs": [
        {
          "internalType": "address",
          "name": "_operator",
          "type": "address"
        },
        {
          "internalType": "bool",
          "name": "_status",
          "type": "bool"
        }
      ],
      "name": "setOperator",
      "outputs": [],
      "stateMutability": "nonpayable",
      "type": "function"
    },
    {
      "inputs": [
        {
          "internalType": "uint256",
          "name": "_houseFeeBps",
          "type": "uint256"
        },
        {
          "internalType": "uint256",
          "name": "_creatorFeeBps",
          "type": "uint256"
        },
        {
          "internalType": "uint256",
          "name": "_referrerFeeBps",
          "type": "uint256"
        }
      ],
      "name": "updateFees",
      "outputs": [],
      "stateMutability": "nonpayable",
      "type": "function"
    },
    {
      "inputs": [],
      "name": "usdcToken",
      "outputs": [
        {
          "internalType": "contract IERC20",
          "name": "",
          "type": "address"
        }
      ],
      "stateMutability": "view",
      "type": "function"
    },
    {
      "inputs": [
        {
          "internalType": "string",
          "name": "_marketId",
          "type": "string"
        }
      ],
      "name": "voidMarket",
      "outputs": [],
      "stateMutability": "nonpayable",
      "type": "function"
    },
    {
      "inputs": [],
      "name": "withdrawHouseBalance",
      "outputs": [],
      "stateMutability": "nonpayable",
      "type": "function"
    },
    {
      "inputs": [
        {
          "internalType": "string",
          "name": "",
          "type": "string"
        },
        {
          "internalType": "address",
          "name": "",
          "type": "address"
        }
      ],
      "name": "yesBets",
      "outputs": [
        {
          "internalType": "uint256",
          "name": "amount",
          "type": "uint256"
        },
        {
          "internalType": "uint256",
          "name": "shares",
          "type": "uint256"
        },
        {
          "internalType": "address",
          "name": "referrer",
          "type": "address"
        },
        {
          "internalType": "bool",
          "name": "claimed",
          "type": "bool"
        }
      ],
      "stateMutability": "view",
      "type": "function"
    }
  ],
  "bytecode": "0x60803461008a57601f61247238819003918201601f19168301916001600160401b0383118484101761008f5780849260209460405283398101031261008a57516001600160a01b0381169081900361008a576103e86002556101f48060035560045560018060a01b03193381600054161760005560015416176001556040516123cc90816100a68239f35b600080fd5b634e487b7160e01b600052604160045260246000fdfe6080604052600436101561001257600080fd5b60003560e01c806305eaab4b14611ce357806311eac85514611cba57806313e7c9d814611c7b57806317773ebb14611c5d578063218b538214611c415780632242908514611bb557806328fd190e14611a915780633fed6ced14611a43578063479860da146119b4578063558a72971461192c5780635fc5e0201461190957806367084eb3146118eb578063704b6c02146118695780637d191e061461136e578063896bdac81461133457806393434d471461125e57806393a2741b1461111d578063978c75e2146110745780639a826eb7146110085780639bd1d51314610ab5578063a07c163314610a97578063bb8c9797146106ad578063c7bafdcb14610586578063c8eaef1914610485578063d6e9e57014610417578063d73792a9146103fa578063dbeae54c14610375578063e4a28a5214610359578063e6cd7ab61461031f578063ee59d24014610301578063efbda661146101aa5763f851a4401461017c57600080fd5b346101a55760003660031901126101a5576000546040516001600160a01b039091168152602090f35b600080fd5b346101a55760203660031901126101a5576004356001600160401b0381116101a5576101da903690600401611dc8565b60405181818093516020819301916101f192611e2d565b81016005815203602001902061020681611ecb565b60018201546001600160a01b03169161022160028201611ecb565b6003820154916004810154600582015460068301546007840154600885015490600986015492600a87015494600b88015496600c89015498600d015499604051809e819e610220808452830161027691611f71565b91602001528d808203906040015261028d91611f71565b9a60608d015260808c015260a08b015260ff8116151560c08b01528060081c60ff16151560e08b01528060101c60ff1615156101008b015260181c60ff1615156101208a01526101408901526101608801526101808701526101a08601526101c08501526101e08401526102008301520390f35b346101a55760003660031901126101a5576020600254604051908152f35b346101a55760203660031901126101a5576001600160a01b03610340611d91565b16600052600a6020526020604060002054604051908152f35b346101a55760003660031901126101a557602060405160968152f35b346101a557602061039d61038836611e50565b92908160405193828580945193849201611e2d565b6007908201908152030190206001600160a01b0391821660009081526020918252604090819020805460018201546002909201548351918252938101919091529282169083015260a01c60ff1615156060820152608090f35b0390f35b346101a55760003660031901126101a55760206040516127108152f35b346101a55760203660031901126101a5576004356001600160401b0381116101a55761047d610463602061045081943690600401611dc8565b8160405193828580945193849201611e2d565b810160058152030190206004600382015491015490612357565b604051908152f35b346101a55760203660031901126101a5576004356001600160401b0381116101a5576104b8610546913690600401611dc8565b6000546001600160a01b03163314801561056d575b6104d690612138565b600661051a602060405161050960ff8651928481818a01956104f9818389611e2d565b8101898152030190205416612077565b604051809381928751928391611e2d565b810160058152030190200162010001815461053860ff821615612175565b62ff00ff1916179055612057565b7f1e9a51575531367c4323c60efe8c5b980af66cd0509c86d8f4e1a3d9c9001700600080a2005b50336000908152600c602052604090205460ff166104cd565b346101a55760003660031901126101a5576000546001600160a01b039081166105b0338214611f96565b600b5491821561067b576000600b81905560015460405163a9059cbb60e01b81526001600160a01b03949094166004850152602484018590526020918491604491839186165af190811561066f576106346020927fb19117f167b3ce8ba8e4f902dba7563f7fed1338a47804cc7dfaeee885968cba94600091610642575b5061222f565b6000541692604051908152a2005b6106629150843d8111610668575b61065a8183611da7565b810190611fdc565b8661062e565b503d610650565b6040513d6000823e3d90fd5b60405162461bcd60e51b815260206004820152600a6024820152694e6f2062616c616e636560b01b6044820152606490fd5b346101a5576020806003193601126101a5576004356001600160401b0381116101a5576106de903690600401611dc8565b9060405191805192610710838301946106f8818488611e2d565b820160068152828560ff948593030190205416612077565b6040518381845161072281838a611e2d565b81016005815203019020600681015482811615610a5f57828160101c166000146109745750506107e5906040518481855161075e81838b611e2d565b810160078152030190203360005284526040600020546040518581865161078681838c611e2d565b810160088152030190203360005285526107e0604060002054926040518781806107b48c8b51928391611e2d565b810160078152030190203360005287528060026040600020015460a01c1615908161093a575b506121b4565b611fcf565b92604051838184516107f8818387611e2d565b8101600781520301902033600052835260026040600020019061083b84600160a01b9260ff60a01b19948486825416179055604051809381928851928391611e2d565b810160088152030190203360005284526002604060002001918254161790555b82156109025760015460405163a9059cbb60e01b81523360048201526024810185905291908390839060449082906000906001600160a01b03165af190811561066f576108d46108d9927f6e5596fe4f25c687a26b2421b8816d678eb3615ab1a5a91fb9cb43ed8b92751d946000916108e5575061222f565b612057565b916040519384523393a3005b6108fc9150863d88116106685761065a8183611da7565b8761062e565b60405162461bcd60e51b815260048101839052601060248201526f4e6f7468696e6720746f20636c61696d60801b6044820152606490fd5b90506040518781806109508c8b51928391611e2d565b8101600881520301902033600052875260026040600020015460a01c1615886107da565b91949091849060081c861615610a145761099991604051809381928751928391611e2d565b810160078152030190203360005283526109fe604060002091600c6109f5600160028601956109cf87549a8b60a01c16156121b4565b01546109dc8115156121f2565b6109ef6008850154600986015490611fcf565b906120c8565b91015490612037565b60ff60a01b19909416600160a01b17905561085b565b610a2991604051809381928751928391611e2d565b810160088152030190203360005283526109fe604060002091600d6109f5600160028601956109cf87549a8b60a01c16156121b4565b60405162461bcd60e51b815260048101869052601060248201526f139bdd081c995cdbdb1d9959081e595d60821b6044820152606490fd5b346101a55760003660031901126101a5576020600454604051908152f35b346101a55760a03660031901126101a5576004356001600160401b0381116101a557610ae5903690600401611dc8565b6024356001600160401b0381116101a557610b04903690600401611dc8565b60ff6040516020818551610b1b8183858a01611e2d565b810160068152030190205416610fcb57604435151580610fbe575b15610f795760643515610f3d576001546040516323b872dd60e01b8152336004820152306024820152604480359082015290602090829060649082906000906001600160a01b03165af1801561066f57610b9891600091610f1e575b50611ff4565b6040516020818451610bad8183858901611e2d565b810160058152030190209082516001600160401b038111610e5257610bd28354611e91565b601f8111610eda575b50806020601f8211600114610e7357600091610e68575b508160011b916000199060031b1c19161782555b6001820180546001600160a01b031916331790558051906001600160401b038211610e5257610c386002840154611e91565b601f8111610e0b575b50602090601f8311600114610d7157937fff36ff50e65334f5ea64776f95ec82ce2fbd32a145dd5258689e2027c1c61b3a9383604094610d4f94600b98600092610d66575b50508160011b916000199060031b1c19161760028201555b426003820155608435908115610d5e57815b6004820155610cc160643542611fcf565b906005810191825560443560011c97818960088194015582600982015582600a820155015584516020818551610cfa8183858a01611e2d565b81016006815203019020600160ff198254161790555490610d1a83612057565b90855192835260208301527fccdee9db8c345dd53026f5dedbf3e8b723ceddd2ad8eeb96b00ce37fddd58b64853393a3612057565b928151908082526020820152a2005b606435610cb0565b015190508880610c86565b906002840160005260206000209160005b601f1985168110610df3575093600184610d4f94600b98947fff36ff50e65334f5ea64776f95ec82ce2fbd32a145dd5258689e2027c1c61b3a98604098601f19811610610dda575b505050811b016002820155610c9e565b015160001960f88460031b161c19169055888080610dca565b91926020600181928685015181550194019201610d82565b600284016000526020600020601f840160051c810160208510610e4b575b601f830160051c82018110610e3f575050610c41565b60008155600101610e29565b5080610e29565b634e487b7160e01b600052604160045260246000fd5b905084015185610bf2565b91508360005260206000206000925b601f1983168410610ec2576001935082601f19811610610ea9575b5050811b018255610c06565b86015160001960f88460031b161c191690558580610e9d565b86810151825560209384019360019092019101610e82565b836000526020600020601f830160051c810160208410610f17575b601f830160051c82018110610f0b575050610bdb565b60008155600101610ef5565b5080610ef5565b610f37915060203d6020116106685761065a8183611da7565b84610b92565b60405162461bcd60e51b815260206004820152601460248201527304475726174696f6e206d757374206265203e20360641b6044820152606490fd5b60405162461bcd60e51b815260206004820152601960248201527f53656564206d757374206265203e203020616e64206576656e000000000000006044820152606490fd5b5060016044351615610b36565b60405162461bcd60e51b81526020600482015260156024820152744d61726b657420616c72656164792065786973747360581b6044820152606490fd5b346101a557602061101b61038836611e50565b6008908201908152030190206001600160a01b0391821660009081526020918252604090819020805460018201546002909201548351918252938101919091529282169083015260a01c60ff1615156060820152608090f35b346101a55760203660031901126101a5576004356001600160401b0381116101a5576110ac6020610450610100933690600401611dc8565b8101600581520301902060018060a01b03600182015416906005810154906006810154600882015460ff600984015492600d600c8601549501549560405197885260208801528181161515604088015260081c1615156060860152608085015260a084015260c083015260e0820152f35b346101a55760603660031901126101a5576004356001600160401b0381116101a55761114d903690600401611dc8565b611155611e1e565b906044359061117560206000928160405193828580945193849201611e2d565b8101600581520301902091611f4090818102918183041490151715611248576127109004926111b66111b06003850154600486015490612357565b856120c8565b92670de0b6b3a7640000938481029481860414901517156112485760409460646111f195049485916107e06008850154600986015490611fcf565b921561123557600c611204920154611fcf565b905b8161121a575b505082519182526020820152f35b61122e925061122990846120c8565b612037565b838061120c565b600d611242920154611fcf565b90611206565b634e487b7160e01b600052601160045260246000fd5b346101a55760003660031901126101a557336000526020600a81526040600020549061128b82151561226d565b336000818152600a83526040808220829055600154905163a9059cbb60e01b81526004810193909352602483018590529192918291849160449183916001600160a01b03165af191821561066f577fcc711f8a20ec7d3fdb3e44b107921ba1576ec61982d382a8b38059fd463b114e9261130c91600091611317575061222f565b6040519283523392a2005b61132e9150833d85116106685761065a8183611da7565b8561062e565b346101a55760203660031901126101a5576001600160a01b03611355611d91565b1660005260096020526020604060002054604051908152f35b346101a55760803660031901126101a5576004356001600160401b0381116101a55761139e903690600401611dc8565b6113a6611e1e565b90604435906001600160a01b039060643582811691908290036101a557604051938151916113f460ff6020978881818601976113e381838b611e2d565b810160068152030190205416612077565b60405186818351611406818389611e2d565b810160058152030190209460058601544210156118335782156117f9576001546040516323b872dd60e01b815233600482015230602482015260448101859052919088908390606490829060009086165af191821561066f576114fd92611474916000916117dc5750611ff4565b6114f86127106114f88161148a600354896120c8565b049189151580806117d2575b156117af57816114a86002548b6120c8565b04916114b66004548b6120c8565b04955b6114c583600b54611fcf565b600b5560018d015416600052600a8d5260406000206114e5858254611fcf565b9055806117a5575b611786575b876120bb565b6120bb565b906115116003870154600488015490612357565b9561151c87846120c8565b90670de0b6b3a764000091828102928184041490151715611248576116489360648a9304968b60001461169d57600c936115fa9160405182818951611562818387611e2d565b810160078152030190203360005282526040600020541561168b575b60405182818951611590818387611e2d565b8101600781520301902033600052825260406000206115b0858254611fcf565b9055604051828189516115c4818387611e2d565b8101600781520301902033600052825260016040600020016115e78b8254611fcf565b9055604051809381928951928391611e2d565b81016007815203019020336000528a526002604060002001886001600160601b0360a01b82541617905561163360088301918254611fcf565b905501611641858254611fcf565b9055612057565b9460405196151587528601526040850152606084015260808301527fa994696d1a657073ceaa15fbacd649938053ce8bee7de30ec1c28d337cc37b2360a03393a3005b61169833600e87016120db565b61157e565b600d9361173b91604051828189516116b6818387611e2d565b8101600881520301902033600052825260406000205415611774575b604051828189516116e4818387611e2d565b810160088152030190203360005282526040600020611704858254611fcf565b905560405182818951611718818387611e2d565b8101600881520301902033600052825260016040600020016115e78b8254611fcf565b81016008815203019020336000528a526002604060002001886001600160601b0360a01b82541617905561163360098301918254611fcf565b61178133600f87016120db565b6116d2565b8960005260098c52604060002061179e868254611fcf565b90556114f2565b50338a14156114ed565b906117c86117c260025460045490611fcf565b8a6120c8565b04906000956114b9565b50338b1415611496565b6117f391508a3d8c116106685761065a8183611da7565b8b610b92565b60405162461bcd60e51b81526004810188905260126024820152710416d6f756e74206d757374206265203e20360741b6044820152606490fd5b60405162461bcd60e51b815260048101889052600e60248201526d10995d1d1a5b99c818db1bdcd95960921b6044820152606490fd5b346101a55760203660031901126101a557611882611d91565b600054906001600160a01b039061189c3383851614611f96565b169081156118b4576001600160a01b03191617600055005b60405162461bcd60e51b815260206004820152600f60248201526e496e76616c6964206164647265737360881b6044820152606490fd5b346101a55760003660031901126101a5576020600b54604051908152f35b346101a55760003660031901126101a5576020604051670de0b6b3a76400008152f35b346101a55760403660031901126101a557611945611d91565b7f966c160e1c4dbc7df8d69af4ace01e9297c3cf016397b7914971f2fbfa32672d6020611970611e1e565b60005490936001600160a01b039161198b9083163314611f96565b169283600052600c825260406000209015159060ff1981541660ff8316179055604051908152a2005b346101a55760603660031901126101a5576004356001600160401b0381116101a5576119e4903690600401611dc8565b602435906001600160a01b03821682036101a55760443580151581036101a5576103f692611a11926122a6565b6040805194855260208501939093526001600160a01b0390911691830191909152151560608201529081906080820190565b346101a55760203660031901126101a5576004356001600160401b0381116101a55760ff611a7b602061045081943690600401611dc8565b8101600681520301902054166040519015158152f35b346101a55760403660031901126101a5576004356001600160401b0381116101a557611ac1903690600401611dc8565b7f175b08e6ee8bbceb85780e790adca99ec4fbd3bb124ffbf50bd35ed4375a69ac6040611aec611e1e565b6000546001600160a01b031633148015611b9d575b611b0a90612138565b611b85611b3d60208451611b2d60ff8951928481818d01956113e3818389611e2d565b8551809381928a51928391611e2d565b810160058152030190206006810192835493611b5c60ff861615612175565b60018215159561ff008760081b169061ffff191617179055600014611b93576008015494612057565b9382519182526020820152a2005b6009015494612057565b50336000908152600c6020528290205460ff16611b01565b346101a55760603660031901126101a55760043560243560443591611be560018060a01b03600054163314611f96565b610bb8611bf6846107e08585611fcf565b11611c0657600255600355600455005b60405162461bcd60e51b81526020600482015260136024820152720a8dee8c2d840cccacae640e8dede40d0d2ced606b1b6044820152606490fd5b346101a55760003660031901126101a557602060405160648152f35b346101a55760003660031901126101a5576020600354604051908152f35b346101a55760203660031901126101a5576001600160a01b03611c9c611d91565b16600052600c602052602060ff604060002054166040519015158152f35b346101a55760003660031901126101a5576001546040516001600160a01b039091168152602090f35b346101a55760003660031901126101a5573360005260206009815260406000205490611d1082151561226d565b336000818152600983526040808220829055600154905163a9059cbb60e01b81526004810193909352602483018590529192918291849160449183916001600160a01b03165af191821561066f577f5be4d22009fea85381595ed91090bc5c0bc92a93fe07ed7472c5888eb1993f839261130c91600091611317575061222f565b600435906001600160a01b03821682036101a557565b90601f801991011681019081106001600160401b03821117610e5257604052565b81601f820112156101a5578035906001600160401b038211610e525760405192611dfc601f8401601f191660200185611da7565b828452602083830101116101a557816000926020809301838601378301015290565b6024359081151582036101a557565b60005b838110611e405750506000910152565b8181015183820152602001611e30565b60406003198201126101a557600435906001600160401b0382116101a557611e7a91600401611dc8565b906024356001600160a01b03811681036101a55790565b90600182811c92168015611ec1575b6020831014611eab57565b634e487b7160e01b600052602260045260246000fd5b91607f1691611ea0565b9060405191826000825492611edf84611e91565b908184526001948581169081600014611f4e5750600114611f0b575b5050611f0992500383611da7565b565b9093915060005260209081600020936000915b818310611f36575050611f0993508201013880611efb565b85548884018501529485019487945091830191611f1e565b915050611f0994506020925060ff191682840152151560051b8201013880611efb565b90602091611f8a81518092818552858086019101611e2d565b601f01601f1916010190565b15611f9d57565b60405162461bcd60e51b815260206004820152600a60248201526927b7363c9030b236b4b760b11b6044820152606490fd5b9190820180921161124857565b908160209103126101a5575180151581036101a55790565b15611ffb57565b60405162461bcd60e51b81526020600482015260146024820152731554d110c81d1c985b9cd9995c8819985a5b195960621b6044820152606490fd5b8115612041570490565b634e487b7160e01b600052601260045260246000fd5b61206f90602060405192828480945193849201611e2d565b810103902090565b1561207e57565b60405162461bcd60e51b815260206004820152601560248201527413585c9ad95d08191bd95cc81b9bdd08195e1a5cdd605a1b6044820152606490fd5b9190820391821161124857565b8181029291811591840414171561124857565b80549068010000000000000000821015610e525760018201808255821015612122576000526020600020019060018060a01b03166001600160601b0360a01b825416179055565b634e487b7160e01b600052603260045260246000fd5b1561213f57565b60405162461bcd60e51b815260206004820152600e60248201526d139bdd08185d5d1a1bdc9a5e995960921b6044820152606490fd5b1561217c57565b60405162461bcd60e51b815260206004820152601060248201526f105b1c9958591e481c995cdbdb1d995960821b6044820152606490fd5b156121bb57565b60405162461bcd60e51b815260206004820152600f60248201526e105b1c9958591e4818db185a5b5959608a1b6044820152606490fd5b156121f957565b60405162461bcd60e51b815260206004820152600e60248201526d139bc81dda5b9b9a5b99c818995d60921b6044820152606490fd5b1561223657565b60405162461bcd60e51b815260206004820152600f60248201526e151c985b9cd9995c8819985a5b1959608a1b6044820152606490fd5b1561227457565b60405162461bcd60e51b815260206004820152600a6024820152694e6f207265776172647360b01b6044820152606490fd5b9091156123025760206122c6918160405193828580945193849201611e2d565b8101600781520301902060018060a01b0380921660005260205260406000209182549060ff6002600186015495015492949383169260a01c1690565b602061231b918160405193828580945193849201611e2d565b8101600881520301902060018060a01b0380921660005260205260406000209182549060ff6002600186015495015492949383169260a01c1690565b61236190426120bb565b908082101561238f57816032029160328304036112485761238191612037565b609603609681116112485790565b505060649056fea264697066735822122054ac5b775d67f26ae0076f06e92cad3a63fc5f3ebfba0fed485c606f5d2a9b6f64736f6c63430008140033",
  "linkReferences": {},
  "deployedLinkReferences": {}
}