{
  "_format": "hh-sol-artifact-1",
  "contractName": "PredictionBattleV6_1",
  "sourceName": "contracts/PredictionBattleV6_1.sol",
  "abi": [
    {
      "inputs": [
        {
          "internalType": "address",
          "name": "_usdcAddress",
          "type": "address"
        },
        {
          "internalType": "address",
          "name": "_initialAdmin",
          "type": "address"
        },
        {
          "internalType": "address",
          "name": "_treasury",
          "type": "address"
        }
      ],
      "stateMutability": "nonpayable",
      "type": "constructor"
    },
    {
      "anonymous": false,
      "inputs": [
        {
          "indexed": false,
          "internalType": "address",
          "name": "oldAdmin",
          "type": "address"
        },
        {
          "indexed": false,
          "internalType": "address",
          "name": "newAdmin",
          "type": "address"
        }
      ],
      "name": "AdminUpdated",
      "type": "event"
    },
    {
      "anonymous": false,
      "inputs": [
        {
          "indexed": false,
          "internalType": "string",
          "name": "id",
          "type": "string"
        },
        {
          "indexed": false,
          "internalType": "address",
          "name": "user",
          "type": "address"
        },
        {
          "indexed": false,
          "internalType": "bool",
          "name": "vote",
          "type": "bool"
        },
        {
          "indexed": false,
          "internalType": "uint256",
          "name": "amount",
          "type": "uint256"
        },
        {
          "indexed": false,
          "internalType": "uint256",
          "name": "shares",
          "type": "uint256"
        },
        {
          "indexed": false,
          "internalType": "address",
          "name": "referrer",
          "type": "address"
        },
        {
          "indexed": false,
          "internalType": "uint256",
          "name": "weight",
          "type": "uint256"
        }
      ],
      "name": "BetPlaced",
      "type": "event"
    },
    {
      "anonymous": false,
      "inputs": [
        {
          "indexed": false,
          "internalType": "address",
          "name": "user",
          "type": "address"
        },
        {
          "indexed": false,
          "internalType": "uint256",
          "name": "amount",
          "type": "uint256"
        }
      ],
      "name": "BondWithdrawn",
      "type": "event"
    },
    {
      "anonymous": false,
      "inputs": [
        {
          "indexed": false,
          "internalType": "string",
          "name": "id",
          "type": "string"
        },
        {
          "indexed": false,
          "internalType": "address",
          "name": "winner",
          "type": "address"
        },
        {
          "indexed": false,
          "internalType": "uint256",
          "name": "totalBondReward",
          "type": "uint256"
        },
        {
          "indexed": false,
          "internalType": "bool",
          "name": "finalResult",
          "type": "bool"
        }
      ],
      "name": "DisputeResolved",
      "type": "event"
    },
    {
      "anonymous": false,
      "inputs": [
        {
          "indexed": false,
          "internalType": "address",
          "name": "treasury",
          "type": "address"
        },
        {
          "indexed": false,
          "internalType": "uint256",
          "name": "amount",
          "type": "uint256"
        }
      ],
      "name": "HouseFeeWithdrawn",
      "type": "event"
    },
    {
      "anonymous": false,
      "inputs": [
        {
          "indexed": false,
          "internalType": "string",
          "name": "id",
          "type": "string"
        },
        {
          "indexed": false,
          "internalType": "address",
          "name": "creator",
          "type": "address"
        },
        {
          "indexed": false,
          "internalType": "uint256",
          "name": "deadline",
          "type": "uint256"
        },
        {
          "indexed": false,
          "internalType": "uint256",
          "name": "bonusDuration",
          "type": "uint256"
        }
      ],
      "name": "MarketCreated",
      "type": "event"
    },
    {
      "anonymous": false,
      "inputs": [
        {
          "indexed": false,
          "internalType": "string",
          "name": "id",
          "type": "string"
        },
        {
          "indexed": false,
          "internalType": "bool",
          "name": "result",
          "type": "bool"
        },
        {
          "indexed": false,
          "internalType": "uint256",
          "name": "winnerPool",
          "type": "uint256"
        }
      ],
      "name": "MarketResolved",
      "type": "event"
    },
    {
      "anonymous": false,
      "inputs": [
        {
          "indexed": false,
          "internalType": "string",
          "name": "id",
          "type": "string"
        }
      ],
      "name": "MarketVoided",
      "type": "event"
    },
    {
      "anonymous": false,
      "inputs": [
        {
          "indexed": false,
          "internalType": "string",
          "name": "id",
          "type": "string"
        },
        {
          "indexed": false,
          "internalType": "address",
          "name": "challenger",
          "type": "address"
        },
        {
          "indexed": false,
          "internalType": "uint256",
          "name": "bond",
          "type": "uint256"
        },
        {
          "indexed": false,
          "internalType": "string",
          "name": "evidence",
          "type": "string"
        }
      ],
      "name": "OutcomeChallenged",
      "type": "event"
    },
    {
      "anonymous": false,
      "inputs": [
        {
          "indexed": false,
          "internalType": "string",
          "name": "id",
          "type": "string"
        },
        {
          "indexed": false,
          "internalType": "address",
          "name": "proposer",
          "type": "address"
        },
        {
          "indexed": false,
          "internalType": "uint256",
          "name": "reward",
          "type": "uint256"
        }
      ],
      "name": "OutcomeFinalized",
      "type": "event"
    },
    {
      "anonymous": false,
      "inputs": [
        {
          "indexed": false,
          "internalType": "string",
          "name": "id",
          "type": "string"
        },
        {
          "indexed": false,
          "internalType": "address",
          "name": "proposer",
          "type": "address"
        },
        {
          "indexed": false,
          "internalType": "bool",
          "name": "result",
          "type": "bool"
        },
        {
          "indexed": false,
          "internalType": "uint256",
          "name": "bond",
          "type": "uint256"
        },
        {
          "indexed": false,
          "internalType": "uint256",
          "name": "disputeEnd",
          "type": "uint256"
        },
        {
          "indexed": false,
          "internalType": "string",
          "name": "evidence",
          "type": "string"
        }
      ],
      "name": "OutcomeProposed",
      "type": "event"
    },
    {
      "anonymous": false,
      "inputs": [
        {
          "indexed": false,
          "internalType": "string",
          "name": "id",
          "type": "string"
        },
        {
          "indexed": false,
          "internalType": "address",
          "name": "user",
          "type": "address"
        },
        {
          "indexed": false,
          "internalType": "uint256",
          "name": "amount",
          "type": "uint256"
        }
      ],
      "name": "PayoutClaimed",
      "type": "event"
    },
    {
      "anonymous": false,
      "inputs": [
        {
          "indexed": false,
          "internalType": "string",
          "name": "id",
          "type": "string"
        },
        {
          "indexed": false,
          "internalType": "uint256",
          "name": "yesAmount",
          "type": "uint256"
        },
        {
          "indexed": false,
          "internalType": "uint256",
          "name": "noAmount",
          "type": "uint256"
        }
      ],
      "name": "SeedAdded",
      "type": "event"
    },
    {
      "anonymous": false,
      "inputs": [
        {
          "indexed": false,
          "internalType": "string",
          "name": "id",
          "type": "string"
        },
        {
          "indexed": false,
          "internalType": "address",
          "name": "creator",
          "type": "address"
        },
        {
          "indexed": false,
          "internalType": "uint256",
          "name": "amount",
          "type": "uint256"
        }
      ],
      "name": "SeedWithdrawn",
      "type": "event"
    },
    {
      "anonymous": false,
      "inputs": [
        {
          "indexed": false,
          "internalType": "address",
          "name": "oldTreasury",
          "type": "address"
        },
        {
          "indexed": false,
          "internalType": "address",
          "name": "newTreasury",
          "type": "address"
        }
      ],
      "name": "TreasuryUpdated",
      "type": "event"
    },
    {
      "inputs": [],
      "name": "DISPUTE_WINDOW",
      "outputs": [
        {
          "internalType": "uint256",
          "name": "",
          "type": "uint256"
        }
      ],
      "stateMutability": "view",
      "type": "function"
    },
    {
      "inputs": [],
      "name": "FEE_DENOMINATOR",
      "outputs": [
        {
          "internalType": "uint256",
          "name": "",
          "type": "uint256"
        }
      ],
      "stateMutability": "view",
      "type": "function"
    },
    {
      "inputs": [],
      "name": "MAX_WEIGHT",
      "outputs": [
        {
          "internalType": "uint256",
          "name": "",
          "type": "uint256"
        }
      ],
      "stateMutability": "view",
      "type": "function"
    },
    {
      "inputs": [],
      "name": "MIN_WEIGHT",
      "outputs": [
        {
          "internalType": "uint256",
          "name": "",
          "type": "uint256"
        }
      ],
      "stateMutability": "view",
      "type": "function"
    },
    {
      "inputs": [],
      "name": "SHARE_PRECISION",
      "outputs": [
        {
          "internalType": "uint256",
          "name": "",
          "type": "uint256"
        }
      ],
      "stateMutability": "view",
      "type": "function"
    },
    {
      "inputs": [],
      "name": "admin",
      "outputs": [
        {
          "internalType": "address",
          "name": "",
          "type": "address"
        }
      ],
      "stateMutability": "view",
      "type": "function"
    },
    {
      "inputs": [
        {
          "internalType": "string",
          "name": "_marketId",
          "type": "string"
        },
        {
          "internalType": "bool",
          "name": "_result",
          "type": "bool"
        }
      ],
      "name": "adminResolve",
      "outputs": [],
      "stateMutability": "nonpayable",
      "type": "function"
    },
    {
      "inputs": [
        {
          "internalType": "address",
          "name": "",
          "type": "address"
        }
      ],
      "name": "bondBalance",
      "outputs": [
        {
          "internalType": "uint256",
          "name": "",
          "type": "uint256"
        }
      ],
      "stateMutability": "view",
      "type": "function"
    },
    {
      "inputs": [
        {
          "internalType": "string",
          "name": "_marketId",
          "type": "string"
        },
        {
          "internalType": "string",
          "name": "_evidenceUrl",
          "type": "string"
        }
      ],
      "name": "challengeOutcome",
      "outputs": [],
      "stateMutability": "nonpayable",
      "type": "function"
    },
    {
      "inputs": [
        {
          "internalType": "string",
          "name": "_id",
          "type": "string"
        }
      ],
      "name": "claimWinnings",
      "outputs": [],
      "stateMutability": "nonpayable",
      "type": "function"
    },
    {
      "inputs": [
        {
          "internalType": "address",
          "name": "",
          "type": "address"
        }
      ],
      "name": "claimableBonds",
      "outputs": [
        {
          "internalType": "uint256",
          "name": "",
          "type": "uint256"
        }
      ],
      "stateMutability": "view",
      "type": "function"
    },
    {
      "inputs": [
        {
          "internalType": "string",
          "name": "_id",
          "type": "string"
        },
        {
          "internalType": "string",
          "name": "_question",
          "type": "string"
        },
        {
          "internalType": "uint256",
          "name": "_usdcSeedAmount",
          "type": "uint256"
        },
        {
          "internalType": "uint256",
          "name": "_duration",
          "type": "uint256"
        },
        {
          "internalType": "uint256",
          "name": "_bonusDuration",
          "type": "uint256"
        }
      ],
      "name": "createMarket",
      "outputs": [],
      "stateMutability": "nonpayable",
      "type": "function"
    },
    {
      "inputs": [
        {
          "internalType": "address",
          "name": "",
          "type": "address"
        }
      ],
      "name": "creatorBalance",
      "outputs": [
        {
          "internalType": "uint256",
          "name": "",
          "type": "uint256"
        }
      ],
      "stateMutability": "view",
      "type": "function"
    },
    {
      "inputs": [],
      "name": "creatorFeeBps",
      "outputs": [
        {
          "internalType": "uint256",
          "name": "",
          "type": "uint256"
        }
      ],
      "stateMutability": "view",
      "type": "function"
    },
    {
      "inputs": [
        {
          "internalType": "string",
          "name": "_marketId",
          "type": "string"
        }
      ],
      "name": "finalizeOutcome",
      "outputs": [],
      "stateMutability": "nonpayable",
      "type": "function"
    },
    {
      "inputs": [
        {
          "internalType": "string",
          "name": "_id",
          "type": "string"
        }
      ],
      "name": "getRequiredBond",
      "outputs": [
        {
          "internalType": "uint256",
          "name": "",
          "type": "uint256"
        }
      ],
      "stateMutability": "view",
      "type": "function"
    },
    {
      "inputs": [
        {
          "internalType": "string",
          "name": "",
          "type": "string"
        },
        {
          "internalType": "address",
          "name": "",
          "type": "address"
        }
      ],
      "name": "hasClaimed",
      "outputs": [
        {
          "internalType": "bool",
          "name": "",
          "type": "bool"
        }
      ],
      "stateMutability": "view",
      "type": "function"
    },
    {
      "inputs": [],
      "name": "houseBalance",
      "outputs": [
        {
          "internalType": "uint256",
          "name": "",
          "type": "uint256"
        }
      ],
      "stateMutability": "view",
      "type": "function"
    },
    {
      "inputs": [],
      "name": "houseFeeBps",
      "outputs": [
        {
          "internalType": "uint256",
          "name": "",
          "type": "uint256"
        }
      ],
      "stateMutability": "view",
      "type": "function"
    },
    {
      "inputs": [
        {
          "internalType": "string",
          "name": "",
          "type": "string"
        }
      ],
      "name": "marketExists",
      "outputs": [
        {
          "internalType": "bool",
          "name": "",
          "type": "bool"
        }
      ],
      "stateMutability": "view",
      "type": "function"
    },
    {
      "inputs": [
        {
          "internalType": "string",
          "name": "",
          "type": "string"
        }
      ],
      "name": "markets",
      "outputs": [
        {
          "internalType": "string",
          "name": "id",
          "type": "string"
        },
        {
          "internalType": "address",
          "name": "creator",
          "type": "address"
        },
        {
          "internalType": "string",
          "name": "question",
          "type": "string"
        },
        {
          "internalType": "uint256",
          "name": "creationTime",
          "type": "uint256"
        },
        {
          "internalType": "uint256",
          "name": "bonusDuration",
          "type": "uint256"
        },
        {
          "internalType": "uint256",
          "name": "deadline",
          "type": "uint256"
        },
        {
          "internalType": "enum PredictionBattleV6_1.MarketState",
          "name": "state",
          "type": "uint8"
        },
        {
          "internalType": "bool",
          "name": "result",
          "type": "bool"
        },
        {
          "internalType": "bool",
          "name": "isVoid",
          "type": "bool"
        },
        {
          "internalType": "address",
          "name": "proposer",
          "type": "address"
        },
        {
          "internalType": "bool",
          "name": "proposedResult",
          "type": "bool"
        },
        {
          "internalType": "uint256",
          "name": "proposalTime",
          "type": "uint256"
        },
        {
          "internalType": "uint256",
          "name": "bondAmount",
          "type": "uint256"
        },
        {
          "internalType": "string",
          "name": "evidenceUrl",
          "type": "string"
        },
        {
          "internalType": "address",
          "name": "challenger",
          "type": "address"
        },
        {
          "internalType": "uint256",
          "name": "challengeBondAmount",
          "type": "uint256"
        },
        {
          "internalType": "string",
          "name": "challengeEvidenceUrl",
          "type": "string"
        },
        {
          "internalType": "uint256",
          "name": "challengeTime",
          "type": "uint256"
        },
        {
          "internalType": "uint256",
          "name": "totalYes",
          "type": "uint256"
        },
        {
          "internalType": "uint256",
          "name": "totalNo",
          "type": "uint256"
        },
        {
          "internalType": "uint256",
          "name": "seedYes",
          "type": "uint256"
        },
        {
          "internalType": "uint256",
          "name": "seedNo",
          "type": "uint256"
        },
        {
          "internalType": "uint256",
          "name": "totalSharesYes",
          "type": "uint256"
        },
        {
          "internalType": "uint256",
          "name": "totalSharesNo",
          "type": "uint256"
        }
      ],
      "stateMutability": "view",
      "type": "function"
    },
    {
      "inputs": [
        {
          "internalType": "string",
          "name": "",
          "type": "string"
        },
        {
          "internalType": "address",
          "name": "",
          "type": "address"
        }
      ],
      "name": "noBets",
      "outputs": [
        {
          "internalType": "uint256",
          "name": "amount",
          "type": "uint256"
        },
        {
          "internalType": "uint256",
          "name": "shares",
          "type": "uint256"
        },
        {
          "internalType": "address",
          "name": "referrer",
          "type": "address"
        },
        {
          "internalType": "bool",
          "name": "claimed",
          "type": "bool"
        }
      ],
      "stateMutability": "view",
      "type": "function"
    },
    {
      "inputs": [
        {
          "internalType": "string",
          "name": "_marketId",
          "type": "string"
        },
        {
          "internalType": "bool",
          "name": "_side",
          "type": "bool"
        },
        {
          "internalType": "uint256",
          "name": "_usdcAmount",
          "type": "uint256"
        },
        {
          "internalType": "address",
          "name": "_referrer",
          "type": "address"
        }
      ],
      "name": "placeBet",
      "outputs": [],
      "stateMutability": "nonpayable",
      "type": "function"
    },
    {
      "inputs": [
        {
          "internalType": "string",
          "name": "_marketId",
          "type": "string"
        },
        {
          "internalType": "bool",
          "name": "_result",
          "type": "bool"
        },
        {
          "internalType": "string",
          "name": "_evidenceUrl",
          "type": "string"
        }
      ],
      "name": "proposeOutcome",
      "outputs": [],
      "stateMutability": "nonpayable",
      "type": "function"
    },
    {
      "inputs": [],
      "name": "referrerFeeBps",
      "outputs": [
        {
          "internalType": "uint256",
          "name": "",
          "type": "uint256"
        }
      ],
      "stateMutability": "view",
      "type": "function"
    },
    {
      "inputs": [
        {
          "internalType": "string",
          "name": "_marketId",
          "type": "string"
        },
        {
          "internalType": "address",
          "name": "_winnerAddress",
          "type": "address"
        },
        {
          "internalType": "bool",
          "name": "_finalResult",
          "type": "bool"
        }
      ],
      "name": "resolveDispute",
      "outputs": [],
      "stateMutability": "nonpayable",
      "type": "function"
    },
    {
      "inputs": [
        {
          "internalType": "address",
          "name": "",
          "type": "address"
        }
      ],
      "name": "rewardsBalance",
      "outputs": [
        {
          "internalType": "uint256",
          "name": "",
          "type": "uint256"
        }
      ],
      "stateMutability": "view",
      "type": "function"
    },
    {
      "inputs": [
        {
          "internalType": "address",
          "name": "_newAdmin",
          "type": "address"
        }
      ],
      "name": "setAdmin",
      "outputs": [],
      "stateMutability": "nonpayable",
      "type": "function"
    },
    {
      "inputs": [
        {
          "internalType": "address",
          "name": "_newTreasury",
          "type": "address"
        }
      ],
      "name": "setTreasury",
      "outputs": [],
      "stateMutability": "nonpayable",
      "type": "function"
    },
    {
      "inputs": [],
      "name": "treasury",
      "outputs": [
        {
          "internalType": "address",
          "name": "",
          "type": "address"
        }
      ],
      "stateMutability": "view",
      "type": "function"
    },
    {
      "inputs": [],
      "name": "usdcToken",
      "outputs": [
        {
          "internalType": "contract IERC20",
          "name": "",
          "type": "address"
        }
      ],
      "stateMutability": "view",
      "type": "function"
    },
    {
      "inputs": [
        {
          "internalType": "string",
          "name": "_marketId",
          "type": "string"
        }
      ],
      "name": "voidMarket",
      "outputs": [],
      "stateMutability": "nonpayable",
      "type": "function"
    },
    {
      "inputs": [],
      "name": "withdrawBond",
      "outputs": [],
      "stateMutability": "nonpayable",
      "type": "function"
    },
    {
      "inputs": [],
      "name": "withdrawCreatorFees",
      "outputs": [],
      "stateMutability": "nonpayable",
      "type": "function"
    },
    {
      "inputs": [],
      "name": "withdrawHouseFees",
      "outputs": [],
      "stateMutability": "nonpayable",
      "type": "function"
    },
    {
      "inputs": [],
      "name": "withdrawReferrerFees",
      "outputs": [],
      "stateMutability": "nonpayable",
      "type": "function"
    },
    {
      "inputs": [
        {
          "internalType": "string",
          "name": "_id",
          "type": "string"
        }
      ],
      "name": "withdrawSeed",
      "outputs": [],
      "stateMutability": "nonpayable",
      "type": "function"
    },
    {
      "inputs": [
        {
          "internalType": "string",
          "name": "",
          "type": "string"
        },
        {
          "internalType": "address",
          "name": "",
          "type": "address"
        }
      ],
      "name": "yesBets",
      "outputs": [
        {
          "internalType": "uint256",
          "name": "amount",
          "type": "uint256"
        },
        {
          "internalType": "uint256",
          "name": "shares",
          "type": "uint256"
        },
        {
          "internalType": "address",
          "name": "referrer",
          "type": "address"
        },
        {
          "internalType": "bool",
          "name": "claimed",
          "type": "bool"
        }
      ],
      "stateMutability": "view",
      "type": "function"
    }
  ],
  "bytecode": "0x6080346200013a57601f620033bd38819003918201601f19168301916001600160401b038311848410176200013f578084926060946040528339810103126200013a576200004d8162000155565b906200006a6040620000626020840162000155565b920162000155565b6103e86003556101f460048190556005556001600160a01b0391821692908315620001055782168015620000cd5760018060a01b0319938460005416176000558360015416176001551690600254161760025560405161325290816200016b8239f35b60405162461bcd60e51b815260206004820152601060248201526f496e76616c696420547265617375727960801b6044820152606490fd5b60405162461bcd60e51b815260206004820152600d60248201526c24b73b30b634b21020b236b4b760991b6044820152606490fd5b600080fd5b634e487b7160e01b600052604160045260246000fd5b51906001600160a01b03821682036200013a5756fe61014080604052600436101561001457600080fd5b60e0600035811c9182626fb9ff14612c0e575081630e90aeb214612bcc57816311eac85514612ba357816317773ebb14612b855781632023115d14612966578163218b53821461294a578163245e272f14612910578163287137b1146125415781633cff3549146125005781633fed6ced1461249f5781635fc5e0201461247c57816361d027b31461245357816366eb9cec1461235557816367084eb314612337578163704b6c02146122a85781637226405614611f655781637d191e0614611a91578163896bdac814611a575781639a826eb7146119eb5781639bd1d513146114c4578163a07c1633146114a6578163c8eaef1914611324578163d73792a914611307578163dbeae54c14611286578163dfdc5f771461120b578163e1cd04b414611155578163e1e90ab314610ec0578163e4a28a5214610ea4578163e6cd7ab614610e6a578163e7785ffb14610cb0578163ee59d24014610c92578163ef03c10e146109bc578163efbda6611461076657508063f0f44260146106d2578063f585dc57146106b5578063f677b4d4146105b0578063f851a440146105875763fdbcf125146101c357600080fd5b3461058257602080600319360112610582576004356001600160401b038111610582576101f4903690600401612c7b565b6040519061022260ff82519385818186019661021181838a612d12565b8101600b8152030190205416612f43565b60405183818351610234818388612d12565b8101600a81520301902060068101549060ff8216600581101561056c57600461025d9114613174565b6040518581855161026f81838a612d12565b8101600e81520301902033600052855260ff60406000205416610535576000604051868186516102a081838b612d12565b8101600c815203019020336000528652604060002091604051878187516102c881838c612d12565b8101600d81520301902033600052875260406000209360ff8160101c16600014610476575050506102fc8154835490612f16565b935b841561043e578561031a91604051809381928851928391612d12565b8101600e8152030190203360005285526040600020600160ff198254161790558054610424575b50805461040a575b5060025460405163a9059cbb60e01b81523360048201526024810184905293908190859060449082906000906001600160a01b03165af180156103fe577f2f0b27a029bcea8b4cd6e1f002ba498bd37b903b56578a04f1576cd25c09de53946103bb926000926103d1575b5050612ed8565b6103cc604051928392339084613148565b0390a1005b6103f09250803d106103f7575b6103e88183612c5a565b810190612ec0565b38806103b4565b503d6103de565b6040513d6000823e3d90fd5b600201805460ff60a01b1916600160a01b17905538610349565b600201805460ff60a01b1916600160a01b17905538610341565b60405162461bcd60e51b815260048101879052601060248201526f4e6f7468696e6720746f20636c61696d60801b6044820152606490fd5b91959160081c60ff16801561052e5783915b8254151580610521575b61049f575b5050506102fe565b6104e36104b5600e830154600f84015490612f16565b6127106104dc6104d66104cd60035460045490612f16565b60055490612f16565b83612f7b565b0490612f8e565b91156105175760120154915b82156104975761050e939750906001610509920154612f7b565b612f23565b93388080610497565b60130154916104ef565b5060018301541515610492565b8491610488565b60405162461bcd60e51b815260048101869052600f60248201526e105b1c9958591e4818db185a5b5959608a1b6044820152606490fd5b634e487b7160e01b600052602160045260246000fd5b600080fd5b34610582576000366003190112610582576000546040516001600160a01b039091168152602090f35b346105825760003660031901126105825761063060018060a01b036105da81600054163314612e49565b600654906105e98215156131af565b6000600681905560025460015460405163a9059cbb60e01b81529084166001600160a01b031660048201526024810185905294602092869285169183919082906044820190565b03925af19283156103fe577f19f7a31ae4185f3274e252a5a78ec36ba85c01300bc8a800d41d79be74662a8e9361066f91600091610697575b50612ed8565b60015460408051929091166001600160a01b03168252602082019290925290819081016103cc565b6106af915060203d81116103f7576103e88183612c5a565b85610669565b3461058257600036600319011261058257602060405161a8c08152f35b34610582576020366003190112610582576106eb612c44565b6000546001600160a01b03906107049082163314612e49565b7f4ab5be82436d353e61ca18726e984e561f5c1cc7c6d38b29d2553c790434705a81831692610734841515612e82565b600154604080519482166001600160a01b03908116865292909216602085015292a16001600160a01b03191617600155005b34610582576020366003190112610582576004356001600160401b03811161058257610796903690600401612c7b565b60405181818093516020819301916107ad92612d12565b8101600a815203602001902080806107c481612d7e565b60018201546001600160a01b0316610100526107e260028301612d7e565b6003830154600484015460058501546006860154600787015460805260088701549492938a939261081560098a01612d7e565b90600160a01b60019003600a8b01541696600b8b015495600c8c0161083990612d7e565b97600d8d01549052600e8c01549a600f8d01549c601001549d601101549e601281015460a0526013015460c0526040518061012052610300809152610120510161088291612e24565b6101005161012051602001526101205180820390604001526108a391612e24565b93610120516060015261012051608001526101205160a0015260ff831696600588101561056c5760ff610946948e61096b9a60c0610120510152828260081c16151590610120510152818160101c16151561010061012051015260018060a01b038160181c166101208051015260b81c161515610140610120510152608051610160610120510152610180610120510152610120516101a0818403910152612e24565b926101c06101205101526101e061012051015261012051610200818403910152612e24565b94516102206101205101526102406101205101526102606101205101526102806101205101526102a061012051015260a0516102c061012051015260c0516102e06101205101526101205180910390f35b34610582576060366003190112610582576004356001600160401b038111610582576109ec903690600401612c7b565b6001600160a01b039060243582811681036105825760443515156044350361058257610a1d83600054163314612e49565b610a4f6020604051610a3e60ff8651928481818a0195610211818389612d12565b604051809381928751928391612d12565b8101600a81520301902090600682015460ff8116600581101561056c57600303610c5c5760181c841681851681148015610c4b575b15610c15577f175b08e6ee8bbceb85780e790adca99ec4fbd3bb124ffbf50bd35ed4375a69ac947f38b360c485b4bed5c0c2e2ab639b104b4e002dbf7351d0d4431e48b6d9e2bfce926008850154610ae0600b87015482612f16565b93600052600f602052610af96040600020918254612f8e565b9055600b85015482600a87015416600052600f602052610b1f6040600020918254612f8e565b90556064610b36600e870154600f88015490612f16565b0480151580610c09575b610be9575b5081811660005260096020526040600020610b61848254612f16565b905560068501805461ffff1916604435151560081b61ff0016176004179055600060088601556000600b86015560405192839260808452610ba56080850189612e24565b921660208401526040830152604435151560608301520390a160443515610bdf57600e0154905b6103cc6040519283926044359084613124565b600f015490610bcc565b610c029193610bfa82600654612f8e565b600655612f16565b9187610b45565b50806006541015610b40565b60405162461bcd60e51b815260206004820152600e60248201526d24b73b30b634b2103bb4b73732b960911b6044820152606490fd5b5084600a8401541685831614610a84565b60405162461bcd60e51b815260206004820152600e60248201526d4e6f7420696e206469737075746560901b6044820152606490fd5b34610582576000366003190112610582576020600354604051908152f35b34610582576040366003190112610582576004356001600160401b03811161058257610ce0903690600401612c7b565b610ce8612d35565b60005490916001600160a01b0391610d039083163314612e49565b6040519283825160209581610d1c889383858901612d12565b8101600a815203019020936006850180549060ff821690600582101561056c577f175b08e6ee8bbceb85780e790adca99ec4fbd3bb124ffbf50bd35ed4375a69ac97610dc997610db594610d746004899614156131e5565b60088301908282549182610e23575b50505050600b820180549283610ddc575b5050825461ffff191693151560081b61ff0016939093176004179091555050565b604051938493606085526060850190612e24565b91151590830152600060408301520390a1005b600a019282845416600052600f8852610dfb6040600020918254612f8e565b90555491541660005260098552610e186040600020918254612f16565b905588808080610d94565b60181c16600052600f8852610e3e6040600020918254612f8e565b90555481845460181c1660005260098752610e5f6040600020918254612f16565b90558a808281610d83565b34610582576020366003190112610582576001600160a01b03610e8b612c44565b1660005260076020526020604060002054604051908152f35b3461058257600036600319011261058257602060405160968152f35b3461058257602080600319360112610582576004356001600160401b03811161058257610ef1903690600401612c7b565b60405190610f0e60ff82519385818186019661021181838a612d12565b60405183818351610f20818388612d12565b8101600a815203019020600681015460ff811690600582101561056c57610f4b600460ff9314613174565b60101c161561111e5760018101546001600160a01b039190821633036110ea5760405185818551610f7d81838a612d12565b8101600e81520301902033600052855260ff604060002054166110b1578060116010610fae93015491015490612f16565b9283156110825784610fcb91604051809381928751928391612d12565b8101600e8152030190203360005284526040600020600160ff19825416179055600254169280604051809563a9059cbb60e01b82528160008161102789336004840160209093929193604081019460018060a01b031681520152565b03925af180156103fe577f3ff50bb01a71ba44b43b95e691fe785159d1c403efd991b82f3b5f62a2d8148a946103bb92600092611065575050612ed8565b61107b9250803d106103f7576103e88183612c5a565b85806103b4565b60405162461bcd60e51b8152600481018690526007602482015266139bc81cd9595960ca1b6044820152606490fd5b60405162461bcd60e51b815260048101869052601160248201527020b63932b0b23c903bb4ba34323930bbb760791b6044820152606490fd5b60405162461bcd60e51b815260048101869052600c60248201526b27b7363c9031b932b0ba37b960a11b6044820152606490fd5b60405162461bcd60e51b815260048101859052600f60248201526e13585c9ad95d081b9bdd081d9bda59608a1b6044820152606490fd5b3461058257600036600319011261058257336000526007602052600060206111d060408320546111868115156131af565b33808552600784526040808620869055600254905163a9059cbb60e01b8152600481019290925260248201929092529384926001600160a01b039092169183919082906044820190565b03925af180156103fe576111eb916000916111ed5750612ed8565b005b611205915060203d81116103f7576103e88183612c5a565b82610669565b3461058257600036600319011261058257336000526008602052600060206111d0604083205461123c8115156131af565b33808552600884526040808620869055600254905163a9059cbb60e01b8152600481019290925260248201929092529384926001600160a01b039092169183919082906044820190565b346105825760206112ae61129936612cd1565b92908160405193828580945193849201612d12565b600c908201908152030190206001600160a01b0391821660009081526020918252604090819020805460018201546002909201548351918252938101919091529282169083015260a01c60ff1615156060820152608090f35b346105825760003660031901126105825760206040516127108152f35b3461058257602080600319360112610582576004356001600160401b03811161058257611355903690600401612c7b565b6000546001600160a01b03929061136f9084163314612e49565b604051818184516113838183858901612d12565b8101600a815203019020600681019081549460ff861695600587101561056c576113d160047f1e9a51575531367c4323c60efe8c5b980af66cd0509c86d8f4e1a3d9c90017009814156131e5565b6008830190828254918261145f575b50505050600b820180549283611418575b505050506201000462ff00ff198254161790556103cc604051928284938452830190612e24565b600a019282845416600052600f86526114376040600020918254612f8e565b905554915416600052600983526114546040600020918254612f16565b9055848080806113f1565b60181c16600052600f865261147a6040600020918254612f8e565b90555481845460181c166000526009855261149b6040600020918254612f16565b9055868082816113e0565b34610582576000366003190112610582576020600554604051908152f35b346105825760a0366003190112610582576001600160401b03600435818111610582576114f5903690600401612c7b565b906024358181116105825761150e903690600401612c7b565b9060ff60405160208186516115268183858b01612d12565b8101600b81520301902054166119bd576044351515806119b0575b1561197c576002546040516323b872dd60e01b8152336004820152306024820152604480359082015290602090829060649082906000906001600160a01b03165af180156103fe5761159a916000916119635750612ed8565b60405160208185516115af8183858a01612d12565b8101600a815203019020918351828111611896576115cd8454612d44565b601f811161191b575b50806020601f82116001146118b7576000916118ac575b508160011b916000199060031b1c19161783555b6001830180546001600160a01b0319163317905580519182116118965761162b6002840154612d44565b601f811161184d575b50602090601f83116001146117965761177293837fff36ff50e65334f5ea64776f95ec82ce2fbd32a145dd5258689e2027c1c61b3a96946011947fccdee9db8c345dd53026f5dedbf3e8b723ceddd2ad8eeb96b00ce37fddd58b649460009261178b575b50508160011b916000199060031b1c19161760028201555b42600382015560843590811561178357815b60048201556116d360643542612f16565b9060058101918255600681019060ff199182815416905560443560011c958187600e8194015582600f82015582601082015501556001604051602081816117208b83815193849201612d12565b8101600b8152030190209182541617905554906040519182916080835261174a6080840188612e24565b91336020850152604084015260608301520390a1604051928392606084526060840190612e24565b9080602084015260408301520390a1005b6064356116c2565b015190508880611698565b90600284016000526020600020916000601f198516905b8181106118355750846011947fccdee9db8c345dd53026f5dedbf3e8b723ceddd2ad8eeb96b00ce37fddd58b649461177298947fff36ff50e65334f5ea64776f95ec82ce2fbd32a145dd5258689e2027c1c61b3a9a986001951061181c575b505050811b0160028201556116b0565b015160001960f88460031b161c1916905588808061180c565b929360206001819287860151815501950193016117ad565b600284016000526020600020601f840160051c81016020851061188f575b601f90920160051c01905b8181106118835750611634565b60008155600101611876565b508061186b565b634e487b7160e01b600052604160045260246000fd5b9050850151866115ed565b6000868152602081209250601f198416905b818110611903575090836001949392106118ea575b5050811b018355611601565b87015160001960f88460031b161c1916905586806118de565b9192602060018192868c0151815501940192016118c9565b846000526020600020601f830160051c81019160208410611959575b601f0160051c01905b81811061194d57506115d6565b60008155600101611940565b9091508190611937565b6106af915060203d6020116103f7576103e88183612c5a565b60405162461bcd60e51b815260206004820152600c60248201526b125b9d985b1a59081cd9595960a21b6044820152606490fd5b5060016044351615611541565b60405162461bcd60e51b815260206004820152600660248201526545786973747360d01b6044820152606490fd5b346105825760206119fe61129936612cd1565b600d908201908152030190206001600160a01b0391821660009081526020918252604090819020805460018201546002909201548351918252938101919091529282169083015260a01c60ff1615156060820152608090f35b34610582576020366003190112610582576001600160a01b03611a78612c44565b1660005260086020526020604060002054604051908152f35b34610582576080366003190112610582576004356001600160401b03811161058257611ac1903690600401612c7b565b611ac9612d35565b916044356001600160a01b03606435818116908190036105825760405192855190611b0360ff6020968781818c019661021181838a612d12565b60405185818951611b15818388612d12565b8101600a8152030190209360ff600686015416600581101561056c57611f35576005850154421015611f06578115611ed3576002546040516323b872dd60e01b815233600482015230602482015260448101849052919087908390606490829060009086165af19182156103fe57611c3492611b9891600091611eb65750612ed8565b61271080611ba860035486612f7b565b0481611bb660045487612f7b565b0491600088151580611eac575b15611e865750611c2f9291611c2f91611bde60055489612f7b565b04948960005260088c526040600020611bf8878254612f16565b90555b611c0782600654612f16565b60065560018b01541660005260078b526040600020611c27848254612f16565b905586612f8e565b612f8e565b97611c486003860154600487015490612ffd565b94611c53868b612f7b565b90670de0b6b3a764000091828102928184041490151715611e70577fa994696d1a657073ceaa15fbacd649938053ce8bee7de30ec1c28d337cc37b239a60648993049584600014611dac5783611d1b918d601296604051809251611cb8818387612d12565b8101600c81520301902033600052825260406000205415611d9a575b8d82604051809251611ce7818387612d12565b8101600c8152030190203360005282526040600020611d07858254612f16565b90558d604051938492839251928391612d12565b8101600c8152030190203360005289526001604060002001611d3e878254612f16565b9055611d4f600e8301918254612f16565b905501611d5d848254612f16565b90555b611d7460405198888a998a52890190612e24565b953390880152151560408701526060860152608085015260a084015260c08301520390a1005b611da73360148701612f9b565b611cd4565b83611e15918d601396604051809251611dc6818387612d12565b8101600d81520301902033600052825260406000205415611e5e575b8d82604051809251611df5818387612d12565b8101600d8152030190203360005282526040600020611d07858254612f16565b8101600d8152030190203360005289526001604060002001611e38878254612f16565b9055611e49600f8301918254612f16565b905501611e57848254612f16565b9055611d60565b611e6b3360158701612f9b565b611de2565b634e487b7160e01b600052601160045260246000fd5b93611ea6611c2f9493611c2f93611e9f6005548b612f7b565b0490612f16565b90611bfb565b5033891415611bc3565b611ecd9150893d8b116103f7576103e88183612c5a565b8c610669565b60405162461bcd60e51b815260048101879052600b60248201526a16995c9bc8185b5bdd5b9d60aa1b6044820152606490fd5b60405162461bcd60e51b8152600481018790526007602482015266115e1c1a5c995960ca1b6044820152606490fd5b60405162461bcd60e51b81526004810187905260086024820152672737ba1037b832b760c11b6044820152606490fd5b34610582576060366003190112610582576001600160401b0360043581811161058257611f96903690600401612c7b565b90611f9f612d35565b9160443582811161058257611fb8903690600401612c7b565b9260ff611fed6040518451611fdc60209483868095818b0195610211818389612d12565b604051809381928851928391612d12565b8101600a81520301902093600685019060ff825416600581101561056c57801590811561229d575b501561226b5760006120268661305a565b6002546040516323b872dd60e01b81523360048201523060248201526044810183905291989192869184916064918391906001600160a01b03165af19182156103fe5760099261207e9160009161224e575b506130a6565b83546301000000600160c01b0319163360181b6301000000600160b81b03161795151560b881901b60ff60b81b169690961784554260078201556008810188905588519101918111611896576120d48254612d44565b601f8111612208575b508084601f82116001146121a457600091612199575b508160011b916000199060031b1c19161790555b600260ff1982541617905533600052600f8152604060002061212a858254612f16565b905561a8c0420194854211611e70577f5247f2366f7e70fc0b5fc61f486408d977047c08d356ffb76c3d35832ceeaf2695612177956103cc9460405197889760c0895260c0890190612e24565b94339088015260408701526060860152608085015283820360a0850152612e24565b9050880151896120f3565b60008481528681209250601f198416905b878c8383106121f35750505090836001949392106121da575b5050811b019055612107565b8a015160001960f88460031b161c1916905589806121ce565b840151855560019094019392830192016121b5565b8260005284600020601f830160051c810191868410612244575b601f0160051c01905b81811061223857506120dd565b6000815560010161222b565b9091508190612222565b6122659150873d89116103f7576103e88183612c5a565b8b612078565b60405162461bcd60e51b815260048101849052600a6024820152694e6f742061637469766560b01b6044820152606490fd5b600191501488612015565b34610582576020366003190112610582576122c1612c44565b6000546001600160a01b03808216927f101b8081ff3b56bbf45deb824d86a3b0fd38b7e3dd42421105cf8abe9106db0b916122fd338614612e49565b81169361230b851515612e82565b604080516001600160a01b03928316815292909116602083015290a16001600160a01b03191617600055005b34610582576000366003190112610582576020600654604051908152f35b346105825760003660031901126105825733600052602060098152604060002054801561241a57336000818152600984526040808220829055600254905163a9059cbb60e01b81526004810193909352602483018490529192918491849160449183916001600160a01b03165af19283156103fe577f0d41118e36df44efb77a471fc49fb9c0be0406d802ef95520e9fbf606e65b455936103cc9361240292600092611065575050612ed8565b60408051338152602081019290925290918291820190565b60405162461bcd60e51b81526004810183905260116024820152704e6f20626f6e647320746f20636c61696d60781b6044820152606490fd5b34610582576000366003190112610582576001546040516001600160a01b039091168152602090f35b34610582576000366003190112610582576020604051670de0b6b3a76400008152f35b34610582576020366003190112610582576004356001600160401b0381116105825760ff6124ea60206124d781943690600401612c7b565b8160405193828580945193849201612d12565b8101600b81520301902054166040519015158152f35b3461058257602061251361129936612cd1565b8101600e8152030190209060018060a01b0316600052602052602060ff604060002054166040519015158152f35b34610582576040366003190112610582576001600160401b0360043581811161058257612572903690600401612c7b565b60248035928084116105825761258e60ff943690600401612c7b565b916125c160405185516125b0602098838a8095818c0195610211818389612d12565b604051809381928951928391612d12565b8101600a815203019020600681019182549360ff851660058110156128fb5760026125ec91146130e9565b600783015461a8c081018091116128e65742116128aa576001600160a01b039460181c8516331461286e5760088301546002546040516323b872dd60e01b81523360048201523060248201526044810183905291968a9183916064918391600091165af180156103fe576126679160009161285157506130a6565b600a8301336bffffffffffffffffffffffff60a01b82541617905584600b840155600c830191865191821161283d57506126a18254612d44565b601f81116127f7575b5087601f821160011461276657926103cc9592827f4bd7c92eba598ee7ab038ac4a59ab8feb6d65703229128829d6cdd17959b121f9a96936127439a999660009161275b575b508160011b916000199060031b1c19161790555b600d4291015533600052600f84526040600020612722838254612f16565b9055600360ff19825416179055604051958695608087526080870190612e24565b92339086015260408501528382036060850152612e24565b90508601518c6126f0565b601f1982169083600052896000209160005b8181106127e05750836127439a9996936103cc9996937f4bd7c92eba598ee7ab038ac4a59ab8feb6d65703229128829d6cdd17959b121f9d9996600194106127c7575b5050811b019055612704565b88015160001960f88460031b161c191690558c806127bb565b91928b60018192868d015181550194019201612778565b8260005288600020601f830160051c8101918a8410612833575b601f0160051c01905b81811061282757506126aa565b6000815560010161281a565b9091508190612811565b634e487b7160e01b60009081526041600452fd5b61286891508a3d8c116103f7576103e88183612c5a565b8a612078565b60405162461bcd60e51b8152600481018990526015818401527421b0b73737ba1031b430b63632b733b29039b2b63360591b6044820152606490fd5b60405162461bcd60e51b81526004810189905260158184015274111a5cdc1d5d19481dda5b991bddc818db1bdcd959605a1b6044820152606490fd5b82634e487b7160e01b60005260116004526000fd5b82634e487b7160e01b60005260216004526000fd5b34610582576020366003190112610582576001600160a01b03612931612c44565b16600052600f6020526020604060002054604051908152f35b3461058257600036600319011261058257602060405160648152f35b3461058257602080600319360112610582576004356001600160401b03811161058257612997903690600401612c7b565b6129c8826040516129b760ff855192848181890195610211818389612d12565b604051809381928651928391612d12565b8101600a8152030190209060068201805460ff8116600581101561056c5760026129f291146130e9565b600784015461a8c08101809111611e7057421115612b50579360ff6103cc927fe2b1d963f1ec20d10d097a5196a0a9e7b5ff982020b428f20918fe52a2234edf7f175b08e6ee8bbceb85780e790adca99ec4fbd3bb124ffbf50bd35ed4375a69ac9760018060a01b039060181c169360088801549480600052600f82526040600020612a7f878254612f8e565b9055600e8901956064612a9a600f89549c019b8c5490612f16565b0492838281151580612b44575b612b24575b50506009908360005252612ac66040600020918254612f16565b9055835461ff001986199190911660041790811660b89190911c8616151560081b61ff0016178455612afe6040519283928a84613148565b0390a15460081c16938415612b1c5750545b60405193849384613124565b905054612b10565b600992935090612b3a91610bfa82600654612f8e565b919050838d612aac565b50816006541015612aa7565b60405162461bcd60e51b815260048101869052600d60248201526c57696e646f772061637469766560981b6044820152606490fd5b34610582576000366003190112610582576020600454604051908152f35b34610582576000366003190112610582576002546040516001600160a01b039091168152602090f35b34610582576020366003190112610582576004356001600160401b03811161058257612c06612c016020923690600401612c7b565b61305a565b604051908152f35b34610582576020366003190112610582576020906001600160a01b03612c32612c44565b16600052600982526040600020548152f35b600435906001600160a01b038216820361058257565b90601f801991011681019081106001600160401b0382111761189657604052565b81601f82011215610582578035906001600160401b0382116118965760405192612caf601f8401601f191660200185612c5a565b8284526020838301011161058257816000926020809301838601378301015290565b604060031982011261058257600435906001600160401b03821161058257612cfb91600401612c7b565b906024356001600160a01b03811681036105825790565b60005b838110612d255750506000910152565b8181015183820152602001612d15565b60243590811515820361058257565b90600182811c92168015612d74575b6020831014612d5e57565b634e487b7160e01b600052602260045260246000fd5b91607f1691612d53565b9060405191826000825492612d9284612d44565b908184526001948581169081600014612e015750600114612dbe575b5050612dbc92500383612c5a565b565b9093915060005260209081600020936000915b818310612de9575050612dbc93508201013880612dae565b85548884018501529485019487945091830191612dd1565b915050612dbc94506020925060ff191682840152151560051b8201013880612dae565b90602091612e3d81518092818552858086019101612d12565b601f01601f1916010190565b15612e5057565b60405162461bcd60e51b815260206004820152600a60248201526927b7363c9030b236b4b760b11b6044820152606490fd5b15612e8957565b60405162461bcd60e51b815260206004820152600f60248201526e496e76616c6964206164647265737360881b6044820152606490fd5b90816020910312610582575180151581036105825790565b15612edf57565b60405162461bcd60e51b815260206004820152600f60248201526e151c985b9cd9995c8819985a5b1959608a1b6044820152606490fd5b91908201809211611e7057565b8115612f2d570490565b634e487b7160e01b600052601260045260246000fd5b15612f4a57565b60405162461bcd60e51b8152602060048201526009602482015268139bc81b585c9ad95d60ba1b6044820152606490fd5b81810292918115918404141715611e7057565b91908203918211611e7057565b805490680100000000000000008210156118965760018201808255821015612fe7576000526020600020019060018060a01b03166bffffffffffffffffffffffff60a01b825416179055565b634e487b7160e01b600052603260045260246000fd5b60009080421160001461305457613015915042612f8e565b8181101561304d576130279082612f8e565b9081603202916032830403611e705761303f91612f23565b60640180606411611e705790565b5050606490565b50613015565b6130916130786020600a938160405193828580945193849201612d12565b810185815203019020600f600e82015491015490612f16565b04624c4b408082106130a1575090565b905090565b156130ad57565b60405162461bcd60e51b8152602060048201526014602482015273109bdb99081d1c985b9cd9995c8819985a5b195960621b6044820152606490fd5b156130f057565b60405162461bcd60e51b815260206004820152600c60248201526b139bdd081c1c9bdc1bdcd95960a21b6044820152606490fd5b61313c60409295949395606083526060830190612e24565b94151560208201520152565b61316060409295949395606083526060830190612e24565b6001600160a01b0390951660208201520152565b1561317b57565b60405162461bcd60e51b815260206004820152600c60248201526b139bdd081c995cdbdb1d995960a21b6044820152606490fd5b156131b657565b60405162461bcd60e51b81526020600482015260076024820152664e6f206665657360c81b6044820152606490fd5b156131ec57565b60405162461bcd60e51b815260206004820152600860248201526714995cdbdb1d995960c21b6044820152606490fdfea2646970667358221220e139467f49fd16ce651a4ed770ff3530c68bfee7c33abff293a39dfdadb6df5264736f6c63430008140033",
  "linkReferences": {},
  "deployedLinkReferences": {}
}