{
  "_format": "hh-sol-artifact-1",
  "contractName": "PredictionBattleV5",
  "sourceName": "contracts/PredictionBattleV5.sol",
  "abi": [
    {
      "inputs": [
        {
          "internalType": "address",
          "name": "_usdcAddress",
          "type": "address"
        }
      ],
      "stateMutability": "nonpayable",
      "type": "constructor"
    },
    {
      "anonymous": false,
      "inputs": [
        {
          "indexed": false,
          "internalType": "string",
          "name": "id",
          "type": "string"
        },
        {
          "indexed": false,
          "internalType": "address",
          "name": "user",
          "type": "address"
        },
        {
          "indexed": false,
          "internalType": "bool",
          "name": "vote",
          "type": "bool"
        },
        {
          "indexed": false,
          "internalType": "uint256",
          "name": "amount",
          "type": "uint256"
        },
        {
          "indexed": false,
          "internalType": "uint256",
          "name": "shares",
          "type": "uint256"
        },
        {
          "indexed": false,
          "internalType": "address",
          "name": "referrer",
          "type": "address"
        },
        {
          "indexed": false,
          "internalType": "uint256",
          "name": "weight",
          "type": "uint256"
        }
      ],
      "name": "BetPlaced",
      "type": "event"
    },
    {
      "anonymous": false,
      "inputs": [
        {
          "indexed": false,
          "internalType": "string",
          "name": "id",
          "type": "string"
        },
        {
          "indexed": false,
          "internalType": "address",
          "name": "winner",
          "type": "address"
        },
        {
          "indexed": false,
          "internalType": "uint256",
          "name": "totalBondReward",
          "type": "uint256"
        },
        {
          "indexed": false,
          "internalType": "bool",
          "name": "finalResult",
          "type": "bool"
        }
      ],
      "name": "DisputeResolved",
      "type": "event"
    },
    {
      "anonymous": false,
      "inputs": [
        {
          "indexed": false,
          "internalType": "string",
          "name": "id",
          "type": "string"
        },
        {
          "indexed": false,
          "internalType": "address",
          "name": "creator",
          "type": "address"
        },
        {
          "indexed": false,
          "internalType": "uint256",
          "name": "deadline",
          "type": "uint256"
        },
        {
          "indexed": false,
          "internalType": "uint256",
          "name": "bonusDuration",
          "type": "uint256"
        }
      ],
      "name": "MarketCreated",
      "type": "event"
    },
    {
      "anonymous": false,
      "inputs": [
        {
          "indexed": false,
          "internalType": "string",
          "name": "id",
          "type": "string"
        },
        {
          "indexed": false,
          "internalType": "bool",
          "name": "result",
          "type": "bool"
        },
        {
          "indexed": false,
          "internalType": "uint256",
          "name": "winnerPool",
          "type": "uint256"
        }
      ],
      "name": "MarketResolved",
      "type": "event"
    },
    {
      "anonymous": false,
      "inputs": [
        {
          "indexed": false,
          "internalType": "string",
          "name": "id",
          "type": "string"
        }
      ],
      "name": "MarketVoided",
      "type": "event"
    },
    {
      "anonymous": false,
      "inputs": [
        {
          "indexed": false,
          "internalType": "string",
          "name": "id",
          "type": "string"
        },
        {
          "indexed": false,
          "internalType": "address",
          "name": "challenger",
          "type": "address"
        },
        {
          "indexed": false,
          "internalType": "uint256",
          "name": "bond",
          "type": "uint256"
        },
        {
          "indexed": false,
          "internalType": "string",
          "name": "evidence",
          "type": "string"
        }
      ],
      "name": "OutcomeChallenged",
      "type": "event"
    },
    {
      "anonymous": false,
      "inputs": [
        {
          "indexed": false,
          "internalType": "string",
          "name": "id",
          "type": "string"
        },
        {
          "indexed": false,
          "internalType": "address",
          "name": "proposer",
          "type": "address"
        },
        {
          "indexed": false,
          "internalType": "uint256",
          "name": "reward",
          "type": "uint256"
        }
      ],
      "name": "OutcomeFinalized",
      "type": "event"
    },
    {
      "anonymous": false,
      "inputs": [
        {
          "indexed": false,
          "internalType": "string",
          "name": "id",
          "type": "string"
        },
        {
          "indexed": false,
          "internalType": "address",
          "name": "proposer",
          "type": "address"
        },
        {
          "indexed": false,
          "internalType": "bool",
          "name": "result",
          "type": "bool"
        },
        {
          "indexed": false,
          "internalType": "uint256",
          "name": "bond",
          "type": "uint256"
        },
        {
          "indexed": false,
          "internalType": "uint256",
          "name": "disputeEnd",
          "type": "uint256"
        },
        {
          "indexed": false,
          "internalType": "string",
          "name": "evidence",
          "type": "string"
        }
      ],
      "name": "OutcomeProposed",
      "type": "event"
    },
    {
      "anonymous": false,
      "inputs": [
        {
          "indexed": false,
          "internalType": "string",
          "name": "id",
          "type": "string"
        },
        {
          "indexed": false,
          "internalType": "address",
          "name": "user",
          "type": "address"
        },
        {
          "indexed": false,
          "internalType": "uint256",
          "name": "amount",
          "type": "uint256"
        }
      ],
      "name": "PayoutDistributed",
      "type": "event"
    },
    {
      "anonymous": false,
      "inputs": [
        {
          "indexed": false,
          "internalType": "string",
          "name": "id",
          "type": "string"
        },
        {
          "indexed": false,
          "internalType": "uint256",
          "name": "yesAmount",
          "type": "uint256"
        },
        {
          "indexed": false,
          "internalType": "uint256",
          "name": "noAmount",
          "type": "uint256"
        }
      ],
      "name": "SeedAdded",
      "type": "event"
    },
    {
      "inputs": [],
      "name": "DISPUTE_WINDOW",
      "outputs": [
        {
          "internalType": "uint256",
          "name": "",
          "type": "uint256"
        }
      ],
      "stateMutability": "view",
      "type": "function"
    },
    {
      "inputs": [],
      "name": "FEE_DENOMINATOR",
      "outputs": [
        {
          "internalType": "uint256",
          "name": "",
          "type": "uint256"
        }
      ],
      "stateMutability": "view",
      "type": "function"
    },
    {
      "inputs": [],
      "name": "MAX_WEIGHT",
      "outputs": [
        {
          "internalType": "uint256",
          "name": "",
          "type": "uint256"
        }
      ],
      "stateMutability": "view",
      "type": "function"
    },
    {
      "inputs": [],
      "name": "MIN_WEIGHT",
      "outputs": [
        {
          "internalType": "uint256",
          "name": "",
          "type": "uint256"
        }
      ],
      "stateMutability": "view",
      "type": "function"
    },
    {
      "inputs": [],
      "name": "SHARE_PRECISION",
      "outputs": [
        {
          "internalType": "uint256",
          "name": "",
          "type": "uint256"
        }
      ],
      "stateMutability": "view",
      "type": "function"
    },
    {
      "inputs": [],
      "name": "admin",
      "outputs": [
        {
          "internalType": "address",
          "name": "",
          "type": "address"
        }
      ],
      "stateMutability": "view",
      "type": "function"
    },
    {
      "inputs": [
        {
          "internalType": "string",
          "name": "_marketId",
          "type": "string"
        },
        {
          "internalType": "bool",
          "name": "_result",
          "type": "bool"
        }
      ],
      "name": "adminResolve",
      "outputs": [],
      "stateMutability": "nonpayable",
      "type": "function"
    },
    {
      "inputs": [
        {
          "internalType": "address",
          "name": "",
          "type": "address"
        }
      ],
      "name": "bondBalance",
      "outputs": [
        {
          "internalType": "uint256",
          "name": "",
          "type": "uint256"
        }
      ],
      "stateMutability": "view",
      "type": "function"
    },
    {
      "inputs": [
        {
          "internalType": "string",
          "name": "_marketId",
          "type": "string"
        },
        {
          "internalType": "string",
          "name": "_evidenceUrl",
          "type": "string"
        }
      ],
      "name": "challengeOutcome",
      "outputs": [],
      "stateMutability": "nonpayable",
      "type": "function"
    },
    {
      "inputs": [
        {
          "internalType": "string",
          "name": "_id",
          "type": "string"
        }
      ],
      "name": "claimWinnings",
      "outputs": [],
      "stateMutability": "nonpayable",
      "type": "function"
    },
    {
      "inputs": [
        {
          "internalType": "string",
          "name": "_id",
          "type": "string"
        },
        {
          "internalType": "string",
          "name": "_question",
          "type": "string"
        },
        {
          "internalType": "uint256",
          "name": "_usdcSeedAmount",
          "type": "uint256"
        },
        {
          "internalType": "uint256",
          "name": "_duration",
          "type": "uint256"
        },
        {
          "internalType": "uint256",
          "name": "_bonusDuration",
          "type": "uint256"
        }
      ],
      "name": "createMarket",
      "outputs": [],
      "stateMutability": "nonpayable",
      "type": "function"
    },
    {
      "inputs": [
        {
          "internalType": "address",
          "name": "",
          "type": "address"
        }
      ],
      "name": "creatorBalance",
      "outputs": [
        {
          "internalType": "uint256",
          "name": "",
          "type": "uint256"
        }
      ],
      "stateMutability": "view",
      "type": "function"
    },
    {
      "inputs": [],
      "name": "creatorFeeBps",
      "outputs": [
        {
          "internalType": "uint256",
          "name": "",
          "type": "uint256"
        }
      ],
      "stateMutability": "view",
      "type": "function"
    },
    {
      "inputs": [
        {
          "internalType": "string",
          "name": "_marketId",
          "type": "string"
        }
      ],
      "name": "finalizeOutcome",
      "outputs": [],
      "stateMutability": "nonpayable",
      "type": "function"
    },
    {
      "inputs": [
        {
          "internalType": "string",
          "name": "_id",
          "type": "string"
        }
      ],
      "name": "getRequiredBond",
      "outputs": [
        {
          "internalType": "uint256",
          "name": "",
          "type": "uint256"
        }
      ],
      "stateMutability": "view",
      "type": "function"
    },
    {
      "inputs": [],
      "name": "houseBalance",
      "outputs": [
        {
          "internalType": "uint256",
          "name": "",
          "type": "uint256"
        }
      ],
      "stateMutability": "view",
      "type": "function"
    },
    {
      "inputs": [],
      "name": "houseFeeBps",
      "outputs": [
        {
          "internalType": "uint256",
          "name": "",
          "type": "uint256"
        }
      ],
      "stateMutability": "view",
      "type": "function"
    },
    {
      "inputs": [
        {
          "internalType": "string",
          "name": "",
          "type": "string"
        }
      ],
      "name": "marketExists",
      "outputs": [
        {
          "internalType": "bool",
          "name": "",
          "type": "bool"
        }
      ],
      "stateMutability": "view",
      "type": "function"
    },
    {
      "inputs": [
        {
          "internalType": "string",
          "name": "",
          "type": "string"
        }
      ],
      "name": "markets",
      "outputs": [
        {
          "internalType": "string",
          "name": "id",
          "type": "string"
        },
        {
          "internalType": "address",
          "name": "creator",
          "type": "address"
        },
        {
          "internalType": "string",
          "name": "question",
          "type": "string"
        },
        {
          "internalType": "uint256",
          "name": "creationTime",
          "type": "uint256"
        },
        {
          "internalType": "uint256",
          "name": "bonusDuration",
          "type": "uint256"
        },
        {
          "internalType": "uint256",
          "name": "deadline",
          "type": "uint256"
        },
        {
          "internalType": "enum PredictionBattleV5.MarketState",
          "name": "state",
          "type": "uint8"
        },
        {
          "internalType": "bool",
          "name": "result",
          "type": "bool"
        },
        {
          "internalType": "bool",
          "name": "isVoid",
          "type": "bool"
        },
        {
          "internalType": "address",
          "name": "proposer",
          "type": "address"
        },
        {
          "internalType": "bool",
          "name": "proposedResult",
          "type": "bool"
        },
        {
          "internalType": "uint256",
          "name": "proposalTime",
          "type": "uint256"
        },
        {
          "internalType": "uint256",
          "name": "bondAmount",
          "type": "uint256"
        },
        {
          "internalType": "string",
          "name": "evidenceUrl",
          "type": "string"
        },
        {
          "internalType": "address",
          "name": "challenger",
          "type": "address"
        },
        {
          "internalType": "uint256",
          "name": "challengeBondAmount",
          "type": "uint256"
        },
        {
          "internalType": "string",
          "name": "challengeEvidenceUrl",
          "type": "string"
        },
        {
          "internalType": "uint256",
          "name": "challengeTime",
          "type": "uint256"
        },
        {
          "internalType": "uint256",
          "name": "totalYes",
          "type": "uint256"
        },
        {
          "internalType": "uint256",
          "name": "totalNo",
          "type": "uint256"
        },
        {
          "internalType": "uint256",
          "name": "seedYes",
          "type": "uint256"
        },
        {
          "internalType": "uint256",
          "name": "seedNo",
          "type": "uint256"
        },
        {
          "internalType": "uint256",
          "name": "totalSharesYes",
          "type": "uint256"
        },
        {
          "internalType": "uint256",
          "name": "totalSharesNo",
          "type": "uint256"
        },
        {
          "internalType": "uint256",
          "name": "processedIndex",
          "type": "uint256"
        },
        {
          "internalType": "bool",
          "name": "paidOut",
          "type": "bool"
        }
      ],
      "stateMutability": "view",
      "type": "function"
    },
    {
      "inputs": [
        {
          "internalType": "string",
          "name": "",
          "type": "string"
        },
        {
          "internalType": "address",
          "name": "",
          "type": "address"
        }
      ],
      "name": "noBets",
      "outputs": [
        {
          "internalType": "uint256",
          "name": "amount",
          "type": "uint256"
        },
        {
          "internalType": "uint256",
          "name": "shares",
          "type": "uint256"
        },
        {
          "internalType": "address",
          "name": "referrer",
          "type": "address"
        },
        {
          "internalType": "bool",
          "name": "claimed",
          "type": "bool"
        }
      ],
      "stateMutability": "view",
      "type": "function"
    },
    {
      "inputs": [
        {
          "internalType": "address",
          "name": "",
          "type": "address"
        }
      ],
      "name": "operators",
      "outputs": [
        {
          "internalType": "bool",
          "name": "",
          "type": "bool"
        }
      ],
      "stateMutability": "view",
      "type": "function"
    },
    {
      "inputs": [
        {
          "internalType": "string",
          "name": "_marketId",
          "type": "string"
        },
        {
          "internalType": "bool",
          "name": "_side",
          "type": "bool"
        },
        {
          "internalType": "uint256",
          "name": "_usdcAmount",
          "type": "uint256"
        },
        {
          "internalType": "address",
          "name": "_referrer",
          "type": "address"
        }
      ],
      "name": "placeBet",
      "outputs": [],
      "stateMutability": "nonpayable",
      "type": "function"
    },
    {
      "inputs": [
        {
          "internalType": "string",
          "name": "_marketId",
          "type": "string"
        },
        {
          "internalType": "bool",
          "name": "_result",
          "type": "bool"
        },
        {
          "internalType": "string",
          "name": "_evidenceUrl",
          "type": "string"
        }
      ],
      "name": "proposeOutcome",
      "outputs": [],
      "stateMutability": "nonpayable",
      "type": "function"
    },
    {
      "inputs": [],
      "name": "referrerFeeBps",
      "outputs": [
        {
          "internalType": "uint256",
          "name": "",
          "type": "uint256"
        }
      ],
      "stateMutability": "view",
      "type": "function"
    },
    {
      "inputs": [
        {
          "internalType": "string",
          "name": "_marketId",
          "type": "string"
        },
        {
          "internalType": "address",
          "name": "_winnerAddress",
          "type": "address"
        },
        {
          "internalType": "bool",
          "name": "_finalResult",
          "type": "bool"
        }
      ],
      "name": "resolveDispute",
      "outputs": [],
      "stateMutability": "nonpayable",
      "type": "function"
    },
    {
      "inputs": [
        {
          "internalType": "address",
          "name": "",
          "type": "address"
        }
      ],
      "name": "rewardsBalance",
      "outputs": [
        {
          "internalType": "uint256",
          "name": "",
          "type": "uint256"
        }
      ],
      "stateMutability": "view",
      "type": "function"
    },
    {
      "inputs": [
        {
          "internalType": "address",
          "name": "_operator",
          "type": "address"
        },
        {
          "internalType": "bool",
          "name": "_status",
          "type": "bool"
        }
      ],
      "name": "setOperator",
      "outputs": [],
      "stateMutability": "nonpayable",
      "type": "function"
    },
    {
      "inputs": [],
      "name": "usdcToken",
      "outputs": [
        {
          "internalType": "contract IERC20",
          "name": "",
          "type": "address"
        }
      ],
      "stateMutability": "view",
      "type": "function"
    },
    {
      "inputs": [
        {
          "internalType": "string",
          "name": "_marketId",
          "type": "string"
        }
      ],
      "name": "voidMarket",
      "outputs": [],
      "stateMutability": "nonpayable",
      "type": "function"
    },
    {
      "inputs": [
        {
          "internalType": "string",
          "name": "",
          "type": "string"
        },
        {
          "internalType": "address",
          "name": "",
          "type": "address"
        }
      ],
      "name": "yesBets",
      "outputs": [
        {
          "internalType": "uint256",
          "name": "amount",
          "type": "uint256"
        },
        {
          "internalType": "uint256",
          "name": "shares",
          "type": "uint256"
        },
        {
          "internalType": "address",
          "name": "referrer",
          "type": "address"
        },
        {
          "internalType": "bool",
          "name": "claimed",
          "type": "bool"
        }
      ],
      "stateMutability": "view",
      "type": "function"
    }
  ],
  "bytecode": "0x60803461008c57601f62002f0638819003918201601f19168301916001600160401b038311848410176100915780849260209460405283398101031261008c57516001600160a01b0381169081900361008c576103e86002556101f48060035560045560018060a01b0319338160005416176000556001541617600155604051612e5e9081620000a88239f35b600080fd5b634e487b7160e01b600052604160045260246000fdfe6101e0604052600436101561001357600080fd5b60003560e01c80630e90aeb21461285f57806311eac8551461283657806313e7c9d8146127f757806317773ebb146127d95780632023115d1461248c578063218b538214612470578063245e272f14612436578063287137b1146120615780633fed6ced14612000578063558a729714611fa25780635fc5e02014611f7f57806367084eb314611f615780637226405614611c165780637d191e0614611736578063896bdac8146116fc5780639a826eb7146116905780639bd1d51314611164578063a07c163314611146578063c8eaef1914610edf578063d73792a914610ec2578063dbeae54c14610e41578063e4a28a5214610e25578063e6cd7ab614610deb578063e7785ffb14610b89578063ee59d24014610b6b578063ef03c10e1461080a578063efbda6611461055a578063f585dc571461053d578063f851a440146105145763fdbcf1251461016757600080fd5b3461050f5760208060031936011261050f576004356001600160401b03811161050f576101989036906004016128c2565b604051908051918381818401946101b081838861292e565b81016008815203019020600681015460ff811660058110156104f9576004036104c557604051858185516101e581838a61292e565b8101600b8152030190203360005285526102108560406000209560405180938192885192839161292e565b8101600c815203019020336000528552604060002091600285019182549160ff8360a01c1615806104b3575b1561047c5760009160ff8160101c166000146103a2575050506102628554845490612b35565b945b5461038c575b50508054610372575b50811561033a5760015460405163a9059cbb60e01b81523360048201526024810184905293908190859060449082906000906001600160a01b03165af1801561032e577f1dbdb822c5640c362e09f214d7cbc87a4c65998f48cbef088e5bb6f702032839946102eb92600092610301575b5050612af7565b6102fc604051928392339084612da5565b0390a1005b6103209250803d10610327575b61031881836128a1565b810190612adf565b38806102e4565b503d61030e565b6040513d6000823e3d90fd5b60405162461bcd60e51b815260048101849052601060248201526f4e6f7468696e6720746f20636c61696d60801b6044820152606490fd5b600201805460ff60a01b1916600160a01b17905538610273565b60ff60a01b1916600160a01b179055388061026a565b91969160081c60ff1680156104755782905b81546103c3575b505050610264565b6103d6600e840154600f85015490612b35565b926127106103fe6103f86103ef60025460035490612b35565b60045490612b35565b86612b9a565b049161042661040d8487612bad565b6104206010850154601186015490612b35565b90612bad565b501561046b5760120154925b8361043e575b506103bb565b61046194995061045461045c9392600192612bad565b910154612b9a565b612b42565b9438808080610438565b6013015492610432565b85906103b4565b60405162461bcd60e51b815260048101899052600f60248201526e105b1c9958591e4818db185a5b5959608a1b6044820152606490fd5b5060ff600286015460a01c161561023c565b60405162461bcd60e51b815260048101869052600c60248201526b139bdd081c995cdbdb1d995960a21b6044820152606490fd5b634e487b7160e01b600052602160045260246000fd5b600080fd5b3461050f57600036600319011261050f576000546040516001600160a01b039091168152602090f35b3461050f57600036600319011261050f5760206040516102588152f35b3461050f57602036600319011261050f576004356001600160401b03811161050f5761058a9036906004016128c2565b60405181818093516020819301916105a19261292e565b810160088152036020019020806101a0526105bb906129db565b6101a05160018101546001600160a01b031660a0526105dc906002016129db565b610160526101a0516003810154916004820154608052600582015492600683015490600784015491600885015494600901610616906129db565b906101a05190600160a01b60019003600a8301541693600b83015492600c0161063e906129db565b936101a05198600d8a015460e052600e8a01549a600f8b01549960108c01549b601181015461012052601281015460c0526013810154610140526014810154610100526015015460ff1661018052604051806101c0526103408091526101c051016106a891612a81565b60a0516101c051602001526101c051808203906040015261016051906106cd91612a81565b936101c051606001526080516101c051608001526101c05160a0015260ff8416600511156104f9576107969760ff8581610773971660c06101c0510152818160081c16151560e06101c0510152818160101c1615156101006101c051015260018060a01b038160181c166101206101c051015260b81c1615156101406101c05101526101606101c05101526101806101c05101526101c0516101a0818403910152612a81565b926101c0805101526101e06101c05101526101c051610200818403910152612a81565b9260e0516102206101c05101526102406101c05101526102606101c05101526102806101c0510152610120516102a06101c051015260c0516102c06101c0510152610140516102e06101c0510152610100516103006101c05101526101805115156103206101c05101526101c05180910390f35b3461050f57606036600319011261050f576004356001600160401b03811161050f5761083a9036906004016128c2565b6024356001600160a01b038116900361050f57604435801515810361050f576000546001600160a01b031633148015610b52575b61087790612d44565b6108ba60206040516108a960ff8651928481818a019561089881838961292e565b810160098152030190205416612b62565b60405180938192875192839161292e565b8101600881520301902091600683015460ff811660058110156104f957600303610b1c576024356001600160a01b03908116601883901c909116148015610b00575b15610aca576008840154610914600b86015482612b35565b9160018060a01b039060181c16600052600d6020526109396040600020918254612bad565b9055600b84015460018060a01b03600a86015416600052600d6020526109656040600020918254612bad565b905560015460405163a9059cbb60e01b81526001600160a01b03602480358216600484015282018490529091602091839116816000816044810103925af190811561032e57600091610aab575b5015610a715760068401805461ffff191684151560081b61ff0016176004179055600080516020612e09833981519152936102fc917f38b360c485b4bed5c0c2e2ab639b104b4e002dbf7351d0d4431e48b6d9e2bfce90600060088401556000600b840155604051809160808252610a2d6080830188612a81565b6024356001600160a01b03166020840152604083019190915287151560608301520390a18315610a6857600e01545b60405193849384612d81565b600f0154610a5c565b60405162461bcd60e51b8152602060048201526012602482015271109bdb99081c995dd85c990819985a5b195960721b6044820152606490fd5b610ac4915060203d6020116103275761031881836128a1565b856109b2565b60405162461bcd60e51b815260206004820152600e60248201526d24b73b30b634b2103bb4b73732b960911b6044820152606490fd5b50600a8401546024356001600160a01b039081169116146108fc565b60405162461bcd60e51b815260206004820152600e60248201526d4e6f7420696e206469737075746560901b6044820152606490fd5b50336000908152600a602052604090205460ff1661086e565b3461050f57600036600319011261050f576020600254604051908152f35b3461050f57604036600319011261050f576004356001600160401b03811161050f57610bb99036906004016128c2565b610bc1612951565b9060018060a01b03610bd881600054163314612aa6565b6040519081835160209381610bf1869383858a0161292e565b81016008815203019020906006820191825460ff811660058110156104f9576004610c1d911415612dd1565b846008830180548581610d51575b5050505050600b81019182549182610c92575b845461ffff191688151560081b61ff0016176004178555600080516020612e09833981519152610c7f888a895b604051938493606085526060850190612a81565b91151590830152600060408301520390a1005b91859391600a610cff9996989794019181835416600052600d8552610cbd6040600020918254612bad565b90556001549154925460405163a9059cbb60e01b81529382166001600160a01b0316600485015260248401529197889290911690829060009082906044820190565b03925af194851561032e5782610c7f95610c6b92600080516020612e0983398151915298610d34575b50939683959650610c3e565b610d4a90853d87116103275761031881836128a1565b5088610d28565b610db69460181c16600052600d8352610d706040600020918254612bad565b90556001548654915460405163a9059cbb60e01b815260189390931c87166001600160a01b03166004840152602483015290928391861690829060009082906044820190565b03925af1801561032e57610dce575b84818085610c2b565b610de490853d87116103275761031881836128a1565b5086610dc5565b3461050f57602036600319011261050f576001600160a01b03610e0c612918565b1660005260066020526020604060002054604051908152f35b3461050f57600036600319011261050f57602060405160968152f35b3461050f576020610e69610e5436612960565b9290816040519382858094519384920161292e565b600b908201908152030190206001600160a01b0391821660009081526020918252604090819020805460018201546002909201548351918252938101919091529282169083015260a01c60ff1615156060820152608090f35b3461050f57600036600319011261050f5760206040516127108152f35b3461050f5760208060031936011261050f576004356001600160401b03811161050f57610f109036906004016128c2565b6000546001600160a01b03929083163314801561112e575b610f3190612d44565b60405181818451610f45818385890161292e565b810160088152030190206006810190815460ff811660058110156104f9576004610f70911415612dd1565b836008830180548881611094575b5050505050600b81019485549182610fd5575b835462ff00ff1916620100041784556040518581527f1e9a51575531367c4323c60efe8c5b980af66cd0509c86d8f4e1a3d9c900170090806102fc8189018a612a81565b9161103e9691600a8694019181835416600052600d8552610ffc6040600020918254612bad565b90556001549154925460405163a9059cbb60e01b81529382166001600160a01b0316600485015260248401529196879290911690829060009082906044820190565b03925af193841561032e577f1e9a51575531367c4323c60efe8c5b980af66cd0509c86d8f4e1a3d9c900170094611077575b8080610f91565b61108d90833d85116103275761031881836128a1565b5084611070565b6110f99460181c16600052600d83526110b36040600020918254612bad565b90556001548554915460405163a9059cbb60e01b815260189390931c8a166001600160a01b03166004840152602483015290928391891690829060009082906044820190565b03925af1801561032e57611111575b83818088610f7e565b61112790843d86116103275761031881836128a1565b5085611108565b50336000908152600a8252604090205460ff16610f28565b3461050f57600036600319011261050f576020600454604051908152f35b3461050f5760a036600319011261050f576001600160401b0360043581811161050f576111959036906004016128c2565b9060243581811161050f576111ae9036906004016128c2565b9060ff60405160208186516111c68183858b0161292e565b81016009815203019020541661166257604435151580611655575b15611621576001546040516323b872dd60e01b8152336004820152306024820152604480359082015290602090829060649082906000906001600160a01b03165af1801561032e5761123b91600091611602575b50612af7565b60405160208185516112508183858a0161292e565b810160088152030190209183518281116115375761126e84546129a1565b601f81116115bc575b50806020601f82116001146115585760009161154d575b508160011b916000199060031b1c19161783555b6001830180546001600160a01b031916331790558051918211611537576112cc60028401546129a1565b601f81116114ee575b50602090601f83116001146114375761141393837fff36ff50e65334f5ea64776f95ec82ce2fbd32a145dd5258689e2027c1c61b3a96946011947fccdee9db8c345dd53026f5dedbf3e8b723ceddd2ad8eeb96b00ce37fddd58b649460009261142c575b50508160011b916000199060031b1c19161760028201555b42600382015560843590811561142457815b600482015561137460643542612b35565b9060058101918255600681019060ff199182815416905560443560011c958187600e8194015582600f82015582601082015501556001604051602081816113c18b8381519384920161292e565b81016009815203019020918254161790555490604051918291608083526113eb6080840188612a81565b91336020850152604084015260608301520390a1604051928392606084526060840190612a81565b9080602084015260408301520390a1005b606435611363565b015190508880611339565b90600284016000526020600020916000601f198516905b8181106114d65750846011947fccdee9db8c345dd53026f5dedbf3e8b723ceddd2ad8eeb96b00ce37fddd58b649461141398947fff36ff50e65334f5ea64776f95ec82ce2fbd32a145dd5258689e2027c1c61b3a9a98600195106114bd575b505050811b016002820155611351565b015160001960f88460031b161c191690558880806114ad565b9293602060018192878601518155019501930161144e565b600284016000526020600020601f840160051c810160208510611530575b601f90920160051c01905b81811061152457506112d5565b60008155600101611517565b508061150c565b634e487b7160e01b600052604160045260246000fd5b90508501518661128e565b6000868152602081209250601f198416905b8181106115a45750908360019493921061158b575b5050811b0183556112a2565b87015160001960f88460031b161c19169055868061157f565b9192602060018192868c01518155019401920161156a565b846000526020600020601f830160051c8101602084106115fb575b601f90920160051c01905b8181106115ef5750611277565b600081556001016115e2565b50806115d7565b61161b915060203d6020116103275761031881836128a1565b85611235565b60405162461bcd60e51b815260206004820152600c60248201526b125b9d985b1a59081cd9595960a21b6044820152606490fd5b50600160443516156111e1565b60405162461bcd60e51b815260206004820152600660248201526545786973747360d01b6044820152606490fd5b3461050f5760206116a3610e5436612960565b600c908201908152030190206001600160a01b0391821660009081526020918252604090819020805460018201546002909201548351918252938101919091529282169083015260a01c60ff1615156060820152608090f35b3461050f57602036600319011261050f576001600160a01b0361171d612918565b1660005260076020526020604060002054604051908152f35b3461050f57608036600319011261050f576004356001600160401b03811161050f576117669036906004016128c2565b61176e612951565b6001600160a01b039160443591606435848116919082900361050f576040519183516117a960ff6020958681818a019561089881838961292e565b604051848187516117bb81838761292e565b810160088152030190209660ff60068901541660058110156104f957611be6576005880154421015611bb7578615611b84576001546040516323b872dd60e01b815233600482015230602482015260448101899052919086908390606490829060009086165af191821561032e576118de9261183e91600091611b675750612af7565b886127108061184f6002548c612b9a565b04928161185e6003548d612b9a565b04918b600089151580611b5d575b15611b3357509160016118d995969261188b6118d99560045490612b9a565b04968a60005260078d5260406000206118a5898254612b35565b90555b6118b484600554612b35565b60055501541660005260068a5260406000206118d1848254612b35565b90558b612bad565b612bad565b956118f2600389015460048a015490612c1c565b936118fd8589612b9a565b670de0b6b3a764000090818102918183041490151715611b1d577fa994696d1a657073ceaa15fbacd649938053ce8bee7de30ec1c28d337cc37b2399611a219960648993049584600014611a5957836119c8918c60129660405180925161196581838761292e565b8101600b81520301902033600052825260406000205415611a47575b8c8260405180925161199481838761292e565b8101600b81520301902033600052825260406000206119b4858254612b35565b90558c60405193849283925192839161292e565b8101600b81520301902033600052895260016040600020016119eb878254612b35565b90556119fc600e8301918254612b35565b905501611a0a848254612b35565b90555b60405197889760e0895260e0890190612a81565b953390880152151560408701526060860152608085015260a084015260c08301520390a1005b611a543360168701612bba565b611981565b83611ac2918c601396604051809251611a7381838761292e565b8101600c81520301902033600052825260406000205415611b0b575b8c82604051809251611aa281838761292e565b8101600c81520301902033600052825260406000206119b4858254612b35565b8101600c8152030190203360005289526001604060002001611ae5878254612b35565b9055611af6600f8301918254612b35565b905501611b04848254612b35565b9055611a0d565b611b183360178701612bba565b611a8f565b634e487b7160e01b600052601160045260246000fd5b95611b576001916118d99794611b506118d9979560045490612b9a565b0490612b35565b926118a8565b50338a141561186c565b611b7e9150883d8a116103275761031881836128a1565b8b611235565b60405162461bcd60e51b815260048101869052600b60248201526a16995c9bc8185b5bdd5b9d60aa1b6044820152606490fd5b60405162461bcd60e51b8152600481018690526007602482015266115e1c1a5c995960ca1b6044820152606490fd5b60405162461bcd60e51b81526004810186905260086024820152672737ba1037b832b760c11b6044820152606490fd5b3461050f57606036600319011261050f576001600160401b0360043581811161050f57611c479036906004016128c2565b90611c50612951565b9160443582811161050f57611c699036906004016128c2565b9260ff611c9e6040518451611c8d60209483868095818b019561089881838961292e565b60405180938192885192839161292e565b8101600881520301902093600685019060ff82541660058110156104f9578015908115611f56575b5015611f2457611cd585612c79565b600180546040516323b872dd60e01b8152336004820152306024820152604481018490529298919291908690839060649082906000906001600160a01b03165af191821561032e57600992611d3291600091611f07575b50612cc6565b84546301000000600160c01b0319163360181b6301000000600160b81b03161796151560b881901b60ff60b81b16979097178555426007820155600881018990558951910192811161153757611d8883546129a1565b601f8111611ebe575b5084601f8211600114611e585781928291600093611e4d575b501b916000199060031b1c19161790555b600260ff1982541617905533600052600d81526040600020611dde858254612b35565b9055610258420194854211611b1d577f5247f2366f7e70fc0b5fc61f486408d977047c08d356ffb76c3d35832ceeaf2695611e2b956102fc9460405197889760c0895260c0890190612a81565b94339088015260408701526060860152608085015283820360a0850152612a81565b8b015192508b611daa565b601f19821690846000528287600020928c89876000925b848410611ea5575050505010611e8c575b5050811b019055611dbb565b8a015160001960f88460031b161c191690558980611e80565b860151875590950194938401938693500189878f611e6f565b8360005285600020601f830160051c810191878410611efd575b601f0160051c019083905b828110611ef1575050611d91565b60008155018390611ee3565b9091508190611ed8565b611f1e9150883d8a116103275761031881836128a1565b8c611d2c565b60405162461bcd60e51b815260048101849052600a6024820152694e6f742061637469766560b01b6044820152606490fd5b600191501488611cc6565b3461050f57600036600319011261050f576020600554604051908152f35b3461050f57600036600319011261050f576020604051670de0b6b3a76400008152f35b3461050f57604036600319011261050f57611fbb612918565b611fc3612951565b60005490916001600160a01b0391611fde9083163314612aa6565b16600052600a60205260406000209060ff801983541691151516179055600080f35b3461050f57602036600319011261050f576004356001600160401b03811161050f5760ff61204b6020612038819436906004016128c2565b816040519382858094519384920161292e565b8101600981520301902054166040519015158152f35b3461050f57604036600319011261050f576001600160401b0360043581811161050f576120929036906004016128c2565b602480359280841161050f576120ae60ff9436906004016128c2565b916120e160405185516120d0602098838a8095818c019561089881838961292e565b60405180938192895192839161292e565b81016008815203019020600681019182549360ff8516600581101561242157600261210c9114612d09565b6007830154610258810180911161240c5742116123d0576001600160a01b039460181c85163314612394576008830154600180546040516323b872dd60e01b81523360048201523060248201526044810184905292979192918b9183916064918391600091165af1801561032e5761218b916000916123775750612cc6565b600a8401336bffffffffffffffffffffffff60a01b82541617905585600b850155600c840192875192831161236357506121c583546129a1565b601f811161231a575b5088601f8311600114612289579282807f4bd7c92eba598ee7ab038ac4a59ab8feb6d65703229128829d6cdd17959b121f9b97946122669b9a97946102fc9a9760009361227e575b501b916000199060031b1c19161790555b600d4291015533600052600d84526040600020612245838254612b35565b9055600360ff19825416179055604051958695608087526080870190612a81565b92339086015260408501528382036060850152612a81565b89015192508e612216565b601f92919219821690846000528a6000209160005b8181106123055750926102fc9895927f4bd7c92eba598ee7ab038ac4a59ab8feb6d65703229128829d6cdd17959b121f9c989592826122669d9c9996106122ec575b5050811b019055612227565b88015160001960f88460031b161c191690558c806122e0565b8a830151845592850192918c01918c0161229e565b8360005289600020601f840160051c8101918b8510612359575b601f0160051c019082905b82811061234d5750506121ce565b6000815501829061233f565b9091508190612334565b634e487b7160e01b60009081526041600452fd5b61238e91508b3d8d116103275761031881836128a1565b8b611d2c565b60405162461bcd60e51b8152600481018990526015818401527421b0b73737ba1031b430b63632b733b29039b2b63360591b6044820152606490fd5b60405162461bcd60e51b81526004810189905260158184015274111a5cdc1d5d19481dda5b991bddc818db1bdcd959605a1b6044820152606490fd5b82634e487b7160e01b60005260116004526000fd5b82634e487b7160e01b60005260216004526000fd5b3461050f57602036600319011261050f576001600160a01b03612457612918565b16600052600d6020526020604060002054604051908152f35b3461050f57600036600319011261050f57602060405160648152f35b3461050f5760208060031936011261050f576004356001600160401b03811161050f576124bd9036906004016128c2565b6124ee826040516124dd60ff85519284818189019561089881838961292e565b60405180938192865192839161292e565b8101600881520301902090600682019283549360ff851660058110156104f957600261251a9114612d09565b60078401546102588101809111611b1d574211156127a45760018060a01b03809560181c169482600087946125a26008890154878452600d835260408420612563828254612bad565b905560015460405163a9059cbb60e01b8082526001600160a01b03909a1660048201526024810192909252909384929187169183919082906044820190565b03925af190811561032e57600091612787575b501561274e57600e86019360646125d4600f8754990198895490612b35565b049283151580612742575b612681575b5050506102fc92917fe2b1d963f1ec20d10d097a5196a0a9e7b5ff982020b428f20918fe52a2234edf60ff92600080516020612e098339815191529861264c85600481198754161780875560b81c16859061ff00825491151560081b169061ff001916179055565b61265c6040519283928a84612da5565b0390a15460081c1693841561267957505460405193849384612d81565b905054610a5c565b918380928a60008499989661269b6126cd99600554612bad565b60055560015416926040519889958694859384526004840160209093929193604081019460018060a01b031681520152565b03925af190811561032e57600080516020612e09833981519152986102fc9660ff957fe2b1d963f1ec20d10d097a5196a0a9e7b5ff982020b428f20918fe52a2234edf94612724575b5050985092829495506125e4565b8161273a92903d106103275761031881836128a1565b508a80612716565b508360055410156125df565b6064906040519062461bcd60e51b825260048201526012602482015271109bdb99081c995d1d5c9b8819985a5b195960721b6044820152fd5b61279e9150823d84116103275761031881836128a1565b886125b5565b60405162461bcd60e51b815260048101839052600d60248201526c57696e646f772061637469766560981b6044820152606490fd5b3461050f57600036600319011261050f576020600354604051908152f35b3461050f57602036600319011261050f576001600160a01b03612818612918565b16600052600a602052602060ff604060002054166040519015158152f35b3461050f57600036600319011261050f576001546040516001600160a01b039091168152602090f35b3461050f57602036600319011261050f576004356001600160401b03811161050f5761289961289460209236906004016128c2565b612c79565b604051908152f35b90601f801991011681019081106001600160401b0382111761153757604052565b81601f8201121561050f578035906001600160401b03821161153757604051926128f6601f8401601f1916602001856128a1565b8284526020838301011161050f57816000926020809301838601378301015290565b600435906001600160a01b038216820361050f57565b60005b8381106129415750506000910152565b8181015183820152602001612931565b60243590811515820361050f57565b604060031982011261050f57600435906001600160401b03821161050f5761298a916004016128c2565b906024356001600160a01b038116810361050f5790565b90600182811c921680156129d1575b60208310146129bb57565b634e487b7160e01b600052602260045260246000fd5b91607f16916129b0565b90604051918260008254926129ef846129a1565b908184526001948581169081600014612a5e5750600114612a1b575b5050612a19925003836128a1565b565b9093915060005260209081600020936000915b818310612a46575050612a1993508201013880612a0b565b85548884018501529485019487945091830191612a2e565b915050612a1994506020925060ff191682840152151560051b8201013880612a0b565b90602091612a9a8151809281855285808601910161292e565b601f01601f1916010190565b15612aad57565b60405162461bcd60e51b815260206004820152600a60248201526927b7363c9030b236b4b760b11b6044820152606490fd5b9081602091031261050f5751801515810361050f5790565b15612afe57565b60405162461bcd60e51b815260206004820152600f60248201526e151c985b9cd9995c8819985a5b1959608a1b6044820152606490fd5b91908201809211611b1d57565b8115612b4c570490565b634e487b7160e01b600052601260045260246000fd5b15612b6957565b60405162461bcd60e51b8152602060048201526009602482015268139bc81b585c9ad95d60ba1b6044820152606490fd5b81810292918115918404141715611b1d57565b91908203918211611b1d57565b805490680100000000000000008210156115375760018201808255821015612c06576000526020600020019060018060a01b03166bffffffffffffffffffffffff60a01b825416179055565b634e487b7160e01b600052603260045260246000fd5b600090804211600014612c7357612c34915042612bad565b81811015612c6c57612c469082612bad565b9081603202916032830403611b1d57612c5e91612b42565b60640180606411611b1d5790565b5050606490565b50612c34565b612cb1612c976020600a93816040519382858094519384920161292e565b81016008815203019020600f600e82015491015490612b35565b04624c4b40808210612cc1575090565b905090565b15612ccd57565b60405162461bcd60e51b8152602060048201526014602482015273109bdb99081d1c985b9cd9995c8819985a5b195960621b6044820152606490fd5b15612d1057565b60405162461bcd60e51b815260206004820152600c60248201526b139bdd081c1c9bdc1bdcd95960a21b6044820152606490fd5b15612d4b57565b60405162461bcd60e51b815260206004820152600e60248201526d139bdd08185d5d1a1bdc9a5e995960921b6044820152606490fd5b612d9960409295949395606083526060830190612a81565b94151560208201520152565b612dbd60409295949395606083526060830190612a81565b6001600160a01b0390951660208201520152565b15612dd857565b60405162461bcd60e51b815260206004820152600860248201526714995cdbdb1d995960c21b6044820152606490fdfe175b08e6ee8bbceb85780e790adca99ec4fbd3bb124ffbf50bd35ed4375a69aca26469706673582212201129ce55147e98c9901eab336f621565252d481be9095227b89d124d11d8f86b64736f6c63430008140033",
  "linkReferences": {},
  "deployedLinkReferences": {}
}