{
  "_format": "hh-sol-artifact-1",
  "contractName": "PredictionBattleV6",
  "sourceName": "contracts/PredictionBattleV6.sol",
  "abi": [
    {
      "inputs": [
        {
          "internalType": "address",
          "name": "_usdcAddress",
          "type": "address"
        }
      ],
      "stateMutability": "nonpayable",
      "type": "constructor"
    },
    {
      "anonymous": false,
      "inputs": [
        {
          "indexed": false,
          "internalType": "string",
          "name": "id",
          "type": "string"
        },
        {
          "indexed": false,
          "internalType": "address",
          "name": "user",
          "type": "address"
        },
        {
          "indexed": false,
          "internalType": "bool",
          "name": "vote",
          "type": "bool"
        },
        {
          "indexed": false,
          "internalType": "uint256",
          "name": "amount",
          "type": "uint256"
        },
        {
          "indexed": false,
          "internalType": "uint256",
          "name": "shares",
          "type": "uint256"
        },
        {
          "indexed": false,
          "internalType": "address",
          "name": "referrer",
          "type": "address"
        },
        {
          "indexed": false,
          "internalType": "uint256",
          "name": "weight",
          "type": "uint256"
        }
      ],
      "name": "BetPlaced",
      "type": "event"
    },
    {
      "anonymous": false,
      "inputs": [
        {
          "indexed": false,
          "internalType": "string",
          "name": "id",
          "type": "string"
        },
        {
          "indexed": false,
          "internalType": "address",
          "name": "winner",
          "type": "address"
        },
        {
          "indexed": false,
          "internalType": "uint256",
          "name": "totalBondReward",
          "type": "uint256"
        },
        {
          "indexed": false,
          "internalType": "bool",
          "name": "finalResult",
          "type": "bool"
        }
      ],
      "name": "DisputeResolved",
      "type": "event"
    },
    {
      "anonymous": false,
      "inputs": [
        {
          "indexed": false,
          "internalType": "string",
          "name": "id",
          "type": "string"
        },
        {
          "indexed": false,
          "internalType": "address",
          "name": "creator",
          "type": "address"
        },
        {
          "indexed": false,
          "internalType": "uint256",
          "name": "deadline",
          "type": "uint256"
        },
        {
          "indexed": false,
          "internalType": "uint256",
          "name": "bonusDuration",
          "type": "uint256"
        }
      ],
      "name": "MarketCreated",
      "type": "event"
    },
    {
      "anonymous": false,
      "inputs": [
        {
          "indexed": false,
          "internalType": "string",
          "name": "id",
          "type": "string"
        },
        {
          "indexed": false,
          "internalType": "bool",
          "name": "result",
          "type": "bool"
        },
        {
          "indexed": false,
          "internalType": "uint256",
          "name": "winnerPool",
          "type": "uint256"
        }
      ],
      "name": "MarketResolved",
      "type": "event"
    },
    {
      "anonymous": false,
      "inputs": [
        {
          "indexed": false,
          "internalType": "string",
          "name": "id",
          "type": "string"
        }
      ],
      "name": "MarketVoided",
      "type": "event"
    },
    {
      "anonymous": false,
      "inputs": [
        {
          "indexed": false,
          "internalType": "string",
          "name": "id",
          "type": "string"
        },
        {
          "indexed": false,
          "internalType": "address",
          "name": "challenger",
          "type": "address"
        },
        {
          "indexed": false,
          "internalType": "uint256",
          "name": "bond",
          "type": "uint256"
        },
        {
          "indexed": false,
          "internalType": "string",
          "name": "evidence",
          "type": "string"
        }
      ],
      "name": "OutcomeChallenged",
      "type": "event"
    },
    {
      "anonymous": false,
      "inputs": [
        {
          "indexed": false,
          "internalType": "string",
          "name": "id",
          "type": "string"
        },
        {
          "indexed": false,
          "internalType": "address",
          "name": "proposer",
          "type": "address"
        },
        {
          "indexed": false,
          "internalType": "uint256",
          "name": "reward",
          "type": "uint256"
        }
      ],
      "name": "OutcomeFinalized",
      "type": "event"
    },
    {
      "anonymous": false,
      "inputs": [
        {
          "indexed": false,
          "internalType": "string",
          "name": "id",
          "type": "string"
        },
        {
          "indexed": false,
          "internalType": "address",
          "name": "proposer",
          "type": "address"
        },
        {
          "indexed": false,
          "internalType": "bool",
          "name": "result",
          "type": "bool"
        },
        {
          "indexed": false,
          "internalType": "uint256",
          "name": "bond",
          "type": "uint256"
        },
        {
          "indexed": false,
          "internalType": "uint256",
          "name": "disputeEnd",
          "type": "uint256"
        },
        {
          "indexed": false,
          "internalType": "string",
          "name": "evidence",
          "type": "string"
        }
      ],
      "name": "OutcomeProposed",
      "type": "event"
    },
    {
      "anonymous": false,
      "inputs": [
        {
          "indexed": false,
          "internalType": "string",
          "name": "id",
          "type": "string"
        },
        {
          "indexed": false,
          "internalType": "address",
          "name": "user",
          "type": "address"
        },
        {
          "indexed": false,
          "internalType": "uint256",
          "name": "amount",
          "type": "uint256"
        }
      ],
      "name": "PayoutClaimed",
      "type": "event"
    },
    {
      "anonymous": false,
      "inputs": [
        {
          "indexed": false,
          "internalType": "string",
          "name": "id",
          "type": "string"
        },
        {
          "indexed": false,
          "internalType": "uint256",
          "name": "yesAmount",
          "type": "uint256"
        },
        {
          "indexed": false,
          "internalType": "uint256",
          "name": "noAmount",
          "type": "uint256"
        }
      ],
      "name": "SeedAdded",
      "type": "event"
    },
    {
      "anonymous": false,
      "inputs": [
        {
          "indexed": false,
          "internalType": "string",
          "name": "id",
          "type": "string"
        },
        {
          "indexed": false,
          "internalType": "address",
          "name": "creator",
          "type": "address"
        },
        {
          "indexed": false,
          "internalType": "uint256",
          "name": "amount",
          "type": "uint256"
        }
      ],
      "name": "SeedWithdrawn",
      "type": "event"
    },
    {
      "inputs": [],
      "name": "DISPUTE_WINDOW",
      "outputs": [
        {
          "internalType": "uint256",
          "name": "",
          "type": "uint256"
        }
      ],
      "stateMutability": "view",
      "type": "function"
    },
    {
      "inputs": [],
      "name": "FEE_DENOMINATOR",
      "outputs": [
        {
          "internalType": "uint256",
          "name": "",
          "type": "uint256"
        }
      ],
      "stateMutability": "view",
      "type": "function"
    },
    {
      "inputs": [],
      "name": "MAX_WEIGHT",
      "outputs": [
        {
          "internalType": "uint256",
          "name": "",
          "type": "uint256"
        }
      ],
      "stateMutability": "view",
      "type": "function"
    },
    {
      "inputs": [],
      "name": "MIN_WEIGHT",
      "outputs": [
        {
          "internalType": "uint256",
          "name": "",
          "type": "uint256"
        }
      ],
      "stateMutability": "view",
      "type": "function"
    },
    {
      "inputs": [],
      "name": "SHARE_PRECISION",
      "outputs": [
        {
          "internalType": "uint256",
          "name": "",
          "type": "uint256"
        }
      ],
      "stateMutability": "view",
      "type": "function"
    },
    {
      "inputs": [],
      "name": "admin",
      "outputs": [
        {
          "internalType": "address",
          "name": "",
          "type": "address"
        }
      ],
      "stateMutability": "view",
      "type": "function"
    },
    {
      "inputs": [
        {
          "internalType": "string",
          "name": "_marketId",
          "type": "string"
        },
        {
          "internalType": "bool",
          "name": "_result",
          "type": "bool"
        }
      ],
      "name": "adminResolve",
      "outputs": [],
      "stateMutability": "nonpayable",
      "type": "function"
    },
    {
      "inputs": [
        {
          "internalType": "address",
          "name": "",
          "type": "address"
        }
      ],
      "name": "bondBalance",
      "outputs": [
        {
          "internalType": "uint256",
          "name": "",
          "type": "uint256"
        }
      ],
      "stateMutability": "view",
      "type": "function"
    },
    {
      "inputs": [
        {
          "internalType": "string",
          "name": "_marketId",
          "type": "string"
        },
        {
          "internalType": "string",
          "name": "_evidenceUrl",
          "type": "string"
        }
      ],
      "name": "challengeOutcome",
      "outputs": [],
      "stateMutability": "nonpayable",
      "type": "function"
    },
    {
      "inputs": [
        {
          "internalType": "string",
          "name": "_id",
          "type": "string"
        }
      ],
      "name": "claimWinnings",
      "outputs": [],
      "stateMutability": "nonpayable",
      "type": "function"
    },
    {
      "inputs": [
        {
          "internalType": "string",
          "name": "_id",
          "type": "string"
        },
        {
          "internalType": "string",
          "name": "_question",
          "type": "string"
        },
        {
          "internalType": "uint256",
          "name": "_usdcSeedAmount",
          "type": "uint256"
        },
        {
          "internalType": "uint256",
          "name": "_duration",
          "type": "uint256"
        },
        {
          "internalType": "uint256",
          "name": "_bonusDuration",
          "type": "uint256"
        }
      ],
      "name": "createMarket",
      "outputs": [],
      "stateMutability": "nonpayable",
      "type": "function"
    },
    {
      "inputs": [
        {
          "internalType": "address",
          "name": "",
          "type": "address"
        }
      ],
      "name": "creatorBalance",
      "outputs": [
        {
          "internalType": "uint256",
          "name": "",
          "type": "uint256"
        }
      ],
      "stateMutability": "view",
      "type": "function"
    },
    {
      "inputs": [],
      "name": "creatorFeeBps",
      "outputs": [
        {
          "internalType": "uint256",
          "name": "",
          "type": "uint256"
        }
      ],
      "stateMutability": "view",
      "type": "function"
    },
    {
      "inputs": [
        {
          "internalType": "string",
          "name": "_marketId",
          "type": "string"
        }
      ],
      "name": "finalizeOutcome",
      "outputs": [],
      "stateMutability": "nonpayable",
      "type": "function"
    },
    {
      "inputs": [
        {
          "internalType": "string",
          "name": "_id",
          "type": "string"
        }
      ],
      "name": "getRequiredBond",
      "outputs": [
        {
          "internalType": "uint256",
          "name": "",
          "type": "uint256"
        }
      ],
      "stateMutability": "view",
      "type": "function"
    },
    {
      "inputs": [
        {
          "internalType": "string",
          "name": "",
          "type": "string"
        },
        {
          "internalType": "address",
          "name": "",
          "type": "address"
        }
      ],
      "name": "hasClaimed",
      "outputs": [
        {
          "internalType": "bool",
          "name": "",
          "type": "bool"
        }
      ],
      "stateMutability": "view",
      "type": "function"
    },
    {
      "inputs": [],
      "name": "houseBalance",
      "outputs": [
        {
          "internalType": "uint256",
          "name": "",
          "type": "uint256"
        }
      ],
      "stateMutability": "view",
      "type": "function"
    },
    {
      "inputs": [],
      "name": "houseFeeBps",
      "outputs": [
        {
          "internalType": "uint256",
          "name": "",
          "type": "uint256"
        }
      ],
      "stateMutability": "view",
      "type": "function"
    },
    {
      "inputs": [
        {
          "internalType": "string",
          "name": "",
          "type": "string"
        }
      ],
      "name": "marketExists",
      "outputs": [
        {
          "internalType": "bool",
          "name": "",
          "type": "bool"
        }
      ],
      "stateMutability": "view",
      "type": "function"
    },
    {
      "inputs": [
        {
          "internalType": "string",
          "name": "",
          "type": "string"
        }
      ],
      "name": "markets",
      "outputs": [
        {
          "internalType": "string",
          "name": "id",
          "type": "string"
        },
        {
          "internalType": "address",
          "name": "creator",
          "type": "address"
        },
        {
          "internalType": "string",
          "name": "question",
          "type": "string"
        },
        {
          "internalType": "uint256",
          "name": "creationTime",
          "type": "uint256"
        },
        {
          "internalType": "uint256",
          "name": "bonusDuration",
          "type": "uint256"
        },
        {
          "internalType": "uint256",
          "name": "deadline",
          "type": "uint256"
        },
        {
          "internalType": "enum PredictionBattleV6.MarketState",
          "name": "state",
          "type": "uint8"
        },
        {
          "internalType": "bool",
          "name": "result",
          "type": "bool"
        },
        {
          "internalType": "bool",
          "name": "isVoid",
          "type": "bool"
        },
        {
          "internalType": "address",
          "name": "proposer",
          "type": "address"
        },
        {
          "internalType": "bool",
          "name": "proposedResult",
          "type": "bool"
        },
        {
          "internalType": "uint256",
          "name": "proposalTime",
          "type": "uint256"
        },
        {
          "internalType": "uint256",
          "name": "bondAmount",
          "type": "uint256"
        },
        {
          "internalType": "string",
          "name": "evidenceUrl",
          "type": "string"
        },
        {
          "internalType": "address",
          "name": "challenger",
          "type": "address"
        },
        {
          "internalType": "uint256",
          "name": "challengeBondAmount",
          "type": "uint256"
        },
        {
          "internalType": "string",
          "name": "challengeEvidenceUrl",
          "type": "string"
        },
        {
          "internalType": "uint256",
          "name": "challengeTime",
          "type": "uint256"
        },
        {
          "internalType": "uint256",
          "name": "totalYes",
          "type": "uint256"
        },
        {
          "internalType": "uint256",
          "name": "totalNo",
          "type": "uint256"
        },
        {
          "internalType": "uint256",
          "name": "seedYes",
          "type": "uint256"
        },
        {
          "internalType": "uint256",
          "name": "seedNo",
          "type": "uint256"
        },
        {
          "internalType": "uint256",
          "name": "totalSharesYes",
          "type": "uint256"
        },
        {
          "internalType": "uint256",
          "name": "totalSharesNo",
          "type": "uint256"
        }
      ],
      "stateMutability": "view",
      "type": "function"
    },
    {
      "inputs": [
        {
          "internalType": "string",
          "name": "",
          "type": "string"
        },
        {
          "internalType": "address",
          "name": "",
          "type": "address"
        }
      ],
      "name": "noBets",
      "outputs": [
        {
          "internalType": "uint256",
          "name": "amount",
          "type": "uint256"
        },
        {
          "internalType": "uint256",
          "name": "shares",
          "type": "uint256"
        },
        {
          "internalType": "address",
          "name": "referrer",
          "type": "address"
        },
        {
          "internalType": "bool",
          "name": "claimed",
          "type": "bool"
        }
      ],
      "stateMutability": "view",
      "type": "function"
    },
    {
      "inputs": [
        {
          "internalType": "string",
          "name": "_marketId",
          "type": "string"
        },
        {
          "internalType": "bool",
          "name": "_side",
          "type": "bool"
        },
        {
          "internalType": "uint256",
          "name": "_usdcAmount",
          "type": "uint256"
        },
        {
          "internalType": "address",
          "name": "_referrer",
          "type": "address"
        }
      ],
      "name": "placeBet",
      "outputs": [],
      "stateMutability": "nonpayable",
      "type": "function"
    },
    {
      "inputs": [
        {
          "internalType": "string",
          "name": "_marketId",
          "type": "string"
        },
        {
          "internalType": "bool",
          "name": "_result",
          "type": "bool"
        },
        {
          "internalType": "string",
          "name": "_evidenceUrl",
          "type": "string"
        }
      ],
      "name": "proposeOutcome",
      "outputs": [],
      "stateMutability": "nonpayable",
      "type": "function"
    },
    {
      "inputs": [],
      "name": "referrerFeeBps",
      "outputs": [
        {
          "internalType": "uint256",
          "name": "",
          "type": "uint256"
        }
      ],
      "stateMutability": "view",
      "type": "function"
    },
    {
      "inputs": [
        {
          "internalType": "string",
          "name": "_marketId",
          "type": "string"
        },
        {
          "internalType": "address",
          "name": "_winnerAddress",
          "type": "address"
        },
        {
          "internalType": "bool",
          "name": "_finalResult",
          "type": "bool"
        }
      ],
      "name": "resolveDispute",
      "outputs": [],
      "stateMutability": "nonpayable",
      "type": "function"
    },
    {
      "inputs": [
        {
          "internalType": "address",
          "name": "",
          "type": "address"
        }
      ],
      "name": "rewardsBalance",
      "outputs": [
        {
          "internalType": "uint256",
          "name": "",
          "type": "uint256"
        }
      ],
      "stateMutability": "view",
      "type": "function"
    },
    {
      "inputs": [],
      "name": "usdcToken",
      "outputs": [
        {
          "internalType": "contract IERC20",
          "name": "",
          "type": "address"
        }
      ],
      "stateMutability": "view",
      "type": "function"
    },
    {
      "inputs": [
        {
          "internalType": "string",
          "name": "_marketId",
          "type": "string"
        }
      ],
      "name": "voidMarket",
      "outputs": [],
      "stateMutability": "nonpayable",
      "type": "function"
    },
    {
      "inputs": [],
      "name": "withdrawCreatorFees",
      "outputs": [],
      "stateMutability": "nonpayable",
      "type": "function"
    },
    {
      "inputs": [],
      "name": "withdrawReferrerFees",
      "outputs": [],
      "stateMutability": "nonpayable",
      "type": "function"
    },
    {
      "inputs": [
        {
          "internalType": "string",
          "name": "_id",
          "type": "string"
        }
      ],
      "name": "withdrawSeed",
      "outputs": [],
      "stateMutability": "nonpayable",
      "type": "function"
    },
    {
      "inputs": [
        {
          "internalType": "string",
          "name": "",
          "type": "string"
        },
        {
          "internalType": "address",
          "name": "",
          "type": "address"
        }
      ],
      "name": "yesBets",
      "outputs": [
        {
          "internalType": "uint256",
          "name": "amount",
          "type": "uint256"
        },
        {
          "internalType": "uint256",
          "name": "shares",
          "type": "uint256"
        },
        {
          "internalType": "address",
          "name": "referrer",
          "type": "address"
        },
        {
          "internalType": "bool",
          "name": "claimed",
          "type": "bool"
        }
      ],
      "stateMutability": "view",
      "type": "function"
    }
  ],
  "bytecode": "0x60803461008c57601f6200321338819003918201601f19168301916001600160401b038311848410176100915780849260209460405283398101031261008c57516001600160a01b0381169081900361008c576103e86002556101f48060035560045560018060a01b031933816000541617600055600154161760015560405161316b9081620000a88239f35b600080fd5b634e487b7160e01b600052604160045260246000fdfe610140604052600436101561001357600080fd5b60003560e01c80630e90aeb214612b3857806311eac85514612b0f57806317773ebb14612af15780632023115d146127a4578063218b538214612788578063245e272f1461274e578063287137b1146123795780633cff3549146123385780633fed6ced146122d75780635fc5e020146122b457806367084eb3146122965780637226405614611f4b5780637d191e0614611a6b578063896bdac814611a315780639a826eb7146119c55780639bd1d5131461149a578063a07c16331461147c578063c8eaef1914611234578063d73792a914611217578063dbeae54c14611196578063dfdc5f771461111b578063e1cd04b414611064578063e1e90ab314610dcf578063e4a28a5214610db3578063e6cd7ab614610d79578063e7785ffb14610b17578063ee59d24014610af9578063ef03c10e146107cb578063efbda66114610587578063f585dc571461056a578063f851a440146105415763fdbcf1251461017d57600080fd5b3461053c5760208060031936011261053c576004356001600160401b03811161053c576101ae903690600401612b9b565b604051906101dc60ff8251938581818601966101cb81838a612c48565b810160098152030190205416612e02565b604051838183516101ee818388612c48565b8101600881520301902060068101549060ff82166005811015610526576004610217911461306d565b6040518581855161022981838a612c48565b8101600c81520301902033600052855260ff604060002054166104ef5760006040518681865161025a81838b612c48565b8101600a8152030190203360005286526040600020916040518781875161028281838c612c48565b8101600b81520301902033600052875260406000209360ff8160101c16600014610430575050506102b68154835490612dd5565b935b84156103f857856102d491604051809381928851928391612c48565b8101600c8152030190203360005285526040600020600160ff1982541617905580546103de575b5080546103c4575b5060015460405163a9059cbb60e01b81523360048201526024810184905293908190859060449082906000906001600160a01b03165af180156103b8577f2f0b27a029bcea8b4cd6e1f002ba498bd37b903b56578a04f1576cd25c09de53946103759260009261038b575b5050612d97565b610386604051928392339084613041565b0390a1005b6103aa9250803d106103b1575b6103a28183612b7a565b810190612d7f565b388061036e565b503d610398565b6040513d6000823e3d90fd5b600201805460ff60a01b1916600160a01b17905538610303565b600201805460ff60a01b1916600160a01b179055386102fb565b60405162461bcd60e51b815260048101879052601060248201526f4e6f7468696e6720746f20636c61696d60801b6044820152606490fd5b91959160081c60ff1680156104e85783915b82541515806104db575b610459575b5050506102b8565b61049d61046f600e830154600f84015490612dd5565b61271061049661049061048760025460035490612dd5565b60045490612dd5565b83612e3a565b0490612e4d565b91156104d15760120154915b8215610451576104c89397509060016104c3920154612e3a565b612de2565b93388080610451565b60130154916104a9565b506001830154151561044c565b8491610442565b60405162461bcd60e51b815260048101869052600f60248201526e105b1c9958591e4818db185a5b5959608a1b6044820152606490fd5b634e487b7160e01b600052602160045260246000fd5b600080fd5b3461053c57600036600319011261053c576000546040516001600160a01b039091168152602090f35b3461053c57600036600319011261053c57602060405161a8c08152f35b3461053c57602036600319011261053c576004356001600160401b03811161053c576105b7903690600401612b9b565b60405181818093516020819301916105ce92612c48565b8101600881520360200190206105e381612cb4565b60018201546001600160a01b031660e052908061060260028201612cb4565b9260038201546004830154906005840154916006850154926007860154610100526008860154936009870161063690612cb4565b93600160a01b60019003600a8901541694600b89015493600c8a0161065a90612cb4565b95600d8b015460c052600e8b01549c600f8c01549a60108d01549c601101549d601281015461012052601301546080526040518060a05261030080915260a051016106a491612d5a565b60e05160a0516020015260a05180820390604001526106c291612d5a565b9360a0516060015260a0516080015260a05160a0015260ff83169660058810156105265760ff61075d9461077f9960c060a0510152818160081c16151560e060a0510152818160101c16151561010060a051015260018060a01b038160181c1661012060a051015260b81c16151561014060a05101526101005161016060a051015261018060a051015260a0516101a0818403910152612d5a565b926101c060a05101526101e060a051015260a051610200818403910152612d5a565b9360c05161022060a051015261024060a051015261026060a051015261028060a05101526102a060a0510152610120516102c060a05101526080516102e060a051015260a05180910390f35b3461053c57606036600319011261053c576004356001600160401b03811161053c576107fb903690600401612b9b565b6024356001600160a01b038116900361053c57604435801515810361053c5761082f60018060a01b03600054163314612fe4565b610861602060405161085060ff8651928481818a01956101cb818389612c48565b604051809381928751928391612c48565b8101600881520301902091600683015460ff8116600581101561052657600303610ac3576024356001600160a01b03908116601883901c909116148015610aa7575b15610a715760088401546108bb600b86015482612dd5565b9160018060a01b039060181c16600052600d6020526108e06040600020918254612e4d565b9055600b84015460018060a01b03600a86015416600052600d60205261090c6040600020918254612e4d565b905560015460405163a9059cbb60e01b81526001600160a01b03602480358216600484015282018490529091602091839116816000816044810103925af19081156103b857600091610a52575b5015610a185760068401805461ffff191684151560081b61ff001617600417905560008051602061311683398151915293610386917f38b360c485b4bed5c0c2e2ab639b104b4e002dbf7351d0d4431e48b6d9e2bfce90600060088401556000600b8401556040518091608082526109d46080830188612d5a565b6024356001600160a01b03166020840152604083019190915287151560608301520390a18315610a0f57600e01545b6040519384938461301d565b600f0154610a03565b60405162461bcd60e51b8152602060048201526012602482015271109bdb99081c995dd85c990819985a5b195960721b6044820152606490fd5b610a6b915060203d6020116103b1576103a28183612b7a565b85610959565b60405162461bcd60e51b815260206004820152600e60248201526d24b73b30b634b2103bb4b73732b960911b6044820152606490fd5b50600a8401546024356001600160a01b039081169116146108a3565b60405162461bcd60e51b815260206004820152600e60248201526d4e6f7420696e206469737075746560901b6044820152606490fd5b3461053c57600036600319011261053c576020600254604051908152f35b3461053c57604036600319011261053c576004356001600160401b03811161053c57610b47903690600401612b9b565b610b4f612c6b565b9060018060a01b03610b6681600054163314612fe4565b6040519081835160209381610b7f869383858a01612c48565b81016008815203019020906006820191825460ff81166005811015610526576004610bab9114156130de565b846008830180548581610cdf575b5050505050600b81019182549182610c20575b845461ffff191688151560081b61ff0016176004178555600080516020613116833981519152610c0d888a895b604051938493606085526060850190612d5a565b91151590830152600060408301520390a1005b91859391600a610c8d9996989794019181835416600052600d8552610c4b6040600020918254612e4d565b90556001549154925460405163a9059cbb60e01b81529382166001600160a01b0316600485015260248401529197889290911690829060009082906044820190565b03925af19485156103b85782610c0d95610bf99260008051602061311683398151915298610cc2575b50939683959650610bcc565b610cd890853d87116103b1576103a28183612b7a565b5088610cb6565b610d449460181c16600052600d8352610cfe6040600020918254612e4d565b90556001548654915460405163a9059cbb60e01b815260189390931c87166001600160a01b03166004840152602483015290928391861690829060009082906044820190565b03925af180156103b857610d5c575b84818085610bb9565b610d7290853d87116103b1576103a28183612b7a565b5086610d53565b3461053c57602036600319011261053c576001600160a01b03610d9a612bf1565b1660005260066020526020604060002054604051908152f35b3461053c57600036600319011261053c57602060405160968152f35b3461053c5760208060031936011261053c576004356001600160401b03811161053c57610e00903690600401612b9b565b60405190610e1d60ff8251938581818601966101cb81838a612c48565b60405183818351610e2f818388612c48565b81016008815203019020600681015460ff811690600582101561052657610e5a600460ff931461306d565b60101c161561102d5760018101546001600160a01b03919082163303610ff95760405185818551610e8c81838a612c48565b8101600c81520301902033600052855260ff60406000205416610fc0578060116010610ebd93015491015490612dd5565b928315610f915784610eda91604051809381928751928391612c48565b8101600c8152030190203360005284526040600020600160ff19825416179055600154169280604051809563a9059cbb60e01b825281600081610f3689336004840160209093929193604081019460018060a01b031681520152565b03925af180156103b8577f3ff50bb01a71ba44b43b95e691fe785159d1c403efd991b82f3b5f62a2d8148a9461037592600092610f74575050612d97565b610f8a9250803d106103b1576103a28183612b7a565b858061036e565b60405162461bcd60e51b8152600481018690526007602482015266139bc81cd9595960ca1b6044820152606490fd5b60405162461bcd60e51b815260048101869052601160248201527020b63932b0b23c903bb4ba34323930bbb760791b6044820152606490fd5b60405162461bcd60e51b815260048101869052600c60248201526b27b7363c9031b932b0ba37b960a11b6044820152606490fd5b60405162461bcd60e51b815260048101859052600f60248201526e13585c9ad95d081b9bdd081d9bda59608a1b6044820152606490fd5b3461053c57600036600319011261053c57336000526006602052600060206110df60408320546110958115156130a8565b33808552600684526040808620869055600154905163a9059cbb60e01b8152600481019290925260248201929092529384926001600160a01b039092169183919082906044820190565b03925af180156103b8576110fb916000916110fd575b50612d97565b005b611115915060203d81116103b1576103a28183612b7a565b826110f5565b3461053c57600036600319011261053c57336000526007602052600060206110df604083205461114c8115156130a8565b33808552600784526040808620869055600154905163a9059cbb60e01b8152600481019290925260248201929092529384926001600160a01b039092169183919082906044820190565b3461053c5760206111be6111a936612c07565b92908160405193828580945193849201612c48565b600a908201908152030190206001600160a01b0391821660009081526020918252604090819020805460018201546002909201548351918252938101919091529282169083015260a01c60ff1615156060820152608090f35b3461053c57600036600319011261053c5760206040516127108152f35b3461053c5760208060031936011261053c576004356001600160401b03811161053c57611265903690600401612b9b565b6000546001600160a01b03929061127f9084163314612fe4565b604051818184516112938183858901612c48565b810160088152030190206006810190815460ff811660058110156105265760046112be9114156130de565b8360088301805488816113e2575b5050505050600b81019485549182611323575b835462ff00ff1916620100041784556040518581527f1e9a51575531367c4323c60efe8c5b980af66cd0509c86d8f4e1a3d9c900170090806103868189018a612d5a565b9161138c9691600a8694019181835416600052600d855261134a6040600020918254612e4d565b90556001549154925460405163a9059cbb60e01b81529382166001600160a01b0316600485015260248401529196879290911690829060009082906044820190565b03925af19384156103b8577f1e9a51575531367c4323c60efe8c5b980af66cd0509c86d8f4e1a3d9c9001700946113c5575b80806112df565b6113db90833d85116103b1576103a28183612b7a565b50846113be565b6114479460181c16600052600d83526114016040600020918254612e4d565b90556001548554915460405163a9059cbb60e01b815260189390931c8a166001600160a01b03166004840152602483015290928391891690829060009082906044820190565b03925af180156103b85761145f575b838180886112cc565b61147590843d86116103b1576103a28183612b7a565b5085611456565b3461053c57600036600319011261053c576020600454604051908152f35b3461053c5760a036600319011261053c576001600160401b0360043581811161053c576114cb903690600401612b9b565b9060243581811161053c576114e4903690600401612b9b565b9060ff60405160208186516114fc8183858b01612c48565b8101600981520301902054166119975760443515158061198a575b15611956576001546040516323b872dd60e01b8152336004820152306024820152604480359082015290602090829060649082906000906001600160a01b03165af180156103b857611570916000916119375750612d97565b60405160208185516115858183858a01612c48565b8101600881520301902091835182811161186c576115a38454612c7a565b601f81116118f1575b50806020601f821160011461188d57600091611882575b508160011b916000199060031b1c19161783555b6001830180546001600160a01b03191633179055805191821161186c576116016002840154612c7a565b601f8111611823575b50602090601f831160011461176c5761174893837fff36ff50e65334f5ea64776f95ec82ce2fbd32a145dd5258689e2027c1c61b3a96946011947fccdee9db8c345dd53026f5dedbf3e8b723ceddd2ad8eeb96b00ce37fddd58b6494600092611761575b50508160011b916000199060031b1c19161760028201555b42600382015560843590811561175957815b60048201556116a960643542612dd5565b9060058101918255600681019060ff199182815416905560443560011c958187600e8194015582600f82015582601082015501556001604051602081816116f68b83815193849201612c48565b81016009815203019020918254161790555490604051918291608083526117206080840188612d5a565b91336020850152604084015260608301520390a1604051928392606084526060840190612d5a565b9080602084015260408301520390a1005b606435611698565b01519050888061166e565b90600284016000526020600020916000601f198516905b81811061180b5750846011947fccdee9db8c345dd53026f5dedbf3e8b723ceddd2ad8eeb96b00ce37fddd58b649461174898947fff36ff50e65334f5ea64776f95ec82ce2fbd32a145dd5258689e2027c1c61b3a9a98600195106117f2575b505050811b016002820155611686565b015160001960f88460031b161c191690558880806117e2565b92936020600181928786015181550195019301611783565b600284016000526020600020601f840160051c810160208510611865575b601f90920160051c01905b818110611859575061160a565b6000815560010161184c565b5080611841565b634e487b7160e01b600052604160045260246000fd5b9050850151866115c3565b6000868152602081209250601f198416905b8181106118d9575090836001949392106118c0575b5050811b0183556115d7565b87015160001960f88460031b161c1916905586806118b4565b9192602060018192868c01518155019401920161189f565b846000526020600020601f830160051c810160208410611930575b601f90920160051c01905b81811061192457506115ac565b60008155600101611917565b508061190c565b611950915060203d6020116103b1576103a28183612b7a565b856110f5565b60405162461bcd60e51b815260206004820152600c60248201526b125b9d985b1a59081cd9595960a21b6044820152606490fd5b5060016044351615611517565b60405162461bcd60e51b815260206004820152600660248201526545786973747360d01b6044820152606490fd5b3461053c5760206119d86111a936612c07565b600b908201908152030190206001600160a01b0391821660009081526020918252604090819020805460018201546002909201548351918252938101919091529282169083015260a01c60ff1615156060820152608090f35b3461053c57602036600319011261053c576001600160a01b03611a52612bf1565b1660005260076020526020604060002054604051908152f35b3461053c57608036600319011261053c576004356001600160401b03811161053c57611a9b903690600401612b9b565b611aa3612c6b565b6001600160a01b039160443591606435848116919082900361053c57604051918351611ade60ff6020958681818a01956101cb818389612c48565b60405184818751611af0818387612c48565b810160088152030190209660ff600689015416600581101561052657611f1b576005880154421015611eec578615611eb9576001546040516323b872dd60e01b815233600482015230602482015260448101899052919086908390606490829060009086165af19182156103b857611c1392611b7391600091611e9c5750612d97565b8861271080611b846002548c612e3a565b049281611b936003548d612e3a565b04918b600089151580611e92575b15611e685750916001611c0e959692611bc0611c0e9560045490612e3a565b04968a60005260078d526040600020611bda898254612dd5565b90555b611be984600554612dd5565b60055501541660005260068a526040600020611c06848254612dd5565b90558b612e4d565b612e4d565b95611c27600389015460048a015490612ebc565b93611c328589612e3a565b670de0b6b3a764000090818102918183041490151715611e52577fa994696d1a657073ceaa15fbacd649938053ce8bee7de30ec1c28d337cc37b2399611d569960648993049584600014611d8e5783611cfd918c601296604051809251611c9a818387612c48565b8101600a81520301902033600052825260406000205415611d7c575b8c82604051809251611cc9818387612c48565b8101600a8152030190203360005282526040600020611ce9858254612dd5565b90558c604051938492839251928391612c48565b8101600a8152030190203360005289526001604060002001611d20878254612dd5565b9055611d31600e8301918254612dd5565b905501611d3f848254612dd5565b90555b60405197889760e0895260e0890190612d5a565b953390880152151560408701526060860152608085015260a084015260c08301520390a1005b611d893360148701612e5a565b611cb6565b83611df7918c601396604051809251611da8818387612c48565b8101600b81520301902033600052825260406000205415611e40575b8c82604051809251611dd7818387612c48565b8101600b8152030190203360005282526040600020611ce9858254612dd5565b8101600b8152030190203360005289526001604060002001611e1a878254612dd5565b9055611e2b600f8301918254612dd5565b905501611e39848254612dd5565b9055611d42565b611e4d3360158701612e5a565b611dc4565b634e487b7160e01b600052601160045260246000fd5b95611e8c600191611c0e9794611e85611c0e979560045490612e3a565b0490612dd5565b92611bdd565b50338a1415611ba1565b611eb39150883d8a116103b1576103a28183612b7a565b8b6110f5565b60405162461bcd60e51b815260048101869052600b60248201526a16995c9bc8185b5bdd5b9d60aa1b6044820152606490fd5b60405162461bcd60e51b8152600481018690526007602482015266115e1c1a5c995960ca1b6044820152606490fd5b60405162461bcd60e51b81526004810186905260086024820152672737ba1037b832b760c11b6044820152606490fd5b3461053c57606036600319011261053c576001600160401b0360043581811161053c57611f7c903690600401612b9b565b90611f85612c6b565b9160443582811161053c57611f9e903690600401612b9b565b9260ff611fd36040518451611fc260209483868095818b01956101cb818389612c48565b604051809381928851928391612c48565b8101600881520301902093600685019060ff825416600581101561052657801590811561228b575b50156122595761200a85612f19565b600180546040516323b872dd60e01b8152336004820152306024820152604481018490529298919291908690839060649082906000906001600160a01b03165af19182156103b8576009926120679160009161223c575b50612f66565b84546301000000600160c01b0319163360181b6301000000600160b81b03161796151560b881901b60ff60b81b16979097178555426007820155600881018990558951910192811161186c576120bd8354612c7a565b601f81116121f3575b5084601f821160011461218d5781928291600093612182575b501b916000199060031b1c19161790555b600260ff1982541617905533600052600d81526040600020612113858254612dd5565b905561a8c0420194854211611e52577f5247f2366f7e70fc0b5fc61f486408d977047c08d356ffb76c3d35832ceeaf2695612160956103869460405197889760c0895260c0890190612d5a565b94339088015260408701526060860152608085015283820360a0850152612d5a565b8b015192508b6120df565b601f19821690846000528287600020928c89876000925b8484106121da5750505050106121c1575b5050811b0190556120f0565b8a015160001960f88460031b161c1916905589806121b5565b860151875590950194938401938693500189878f6121a4565b8360005285600020601f830160051c810191878410612232575b601f0160051c019083905b8281106122265750506120c6565b60008155018390612218565b909150819061220d565b6122539150883d8a116103b1576103a28183612b7a565b8c612061565b60405162461bcd60e51b815260048101849052600a6024820152694e6f742061637469766560b01b6044820152606490fd5b600191501488611ffb565b3461053c57600036600319011261053c576020600554604051908152f35b3461053c57600036600319011261053c576020604051670de0b6b3a76400008152f35b3461053c57602036600319011261053c576004356001600160401b03811161053c5760ff612322602061230f81943690600401612b9b565b8160405193828580945193849201612c48565b8101600981520301902054166040519015158152f35b3461053c57602061234b6111a936612c07565b8101600c8152030190209060018060a01b0316600052602052602060ff604060002054166040519015158152f35b3461053c57604036600319011261053c576001600160401b0360043581811161053c576123aa903690600401612b9b565b602480359280841161053c576123c660ff943690600401612b9b565b916123f960405185516123e8602098838a8095818c01956101cb818389612c48565b604051809381928951928391612c48565b81016008815203019020600681019182549360ff851660058110156127395760026124249114612fa9565b600783015461a8c081018091116127245742116126e8576001600160a01b039460181c851633146126ac576008830154600180546040516323b872dd60e01b81523360048201523060248201526044810184905292979192918b9183916064918391600091165af180156103b8576124a39160009161268f5750612f66565b600a8401336bffffffffffffffffffffffff60a01b82541617905585600b850155600c840192875192831161267b57506124dd8354612c7a565b601f8111612632575b5088601f83116001146125a1579282807f4bd7c92eba598ee7ab038ac4a59ab8feb6d65703229128829d6cdd17959b121f9b979461257e9b9a97946103869a97600093612596575b501b916000199060031b1c19161790555b600d4291015533600052600d8452604060002061255d838254612dd5565b9055600360ff19825416179055604051958695608087526080870190612d5a565b92339086015260408501528382036060850152612d5a565b89015192508e61252e565b601f92919219821690846000528a6000209160005b81811061261d5750926103869895927f4bd7c92eba598ee7ab038ac4a59ab8feb6d65703229128829d6cdd17959b121f9c9895928261257e9d9c999610612604575b5050811b01905561253f565b88015160001960f88460031b161c191690558c806125f8565b8a830151845592850192918c01918c016125b6565b8360005289600020601f840160051c8101918b8510612671575b601f0160051c019082905b8281106126655750506124e6565b60008155018290612657565b909150819061264c565b634e487b7160e01b60009081526041600452fd5b6126a691508b3d8d116103b1576103a28183612b7a565b8b612061565b60405162461bcd60e51b8152600481018990526015818401527421b0b73737ba1031b430b63632b733b29039b2b63360591b6044820152606490fd5b60405162461bcd60e51b81526004810189905260158184015274111a5cdc1d5d19481dda5b991bddc818db1bdcd959605a1b6044820152606490fd5b82634e487b7160e01b60005260116004526000fd5b82634e487b7160e01b60005260216004526000fd5b3461053c57602036600319011261053c576001600160a01b0361276f612bf1565b16600052600d6020526020604060002054604051908152f35b3461053c57600036600319011261053c57602060405160648152f35b3461053c5760208060031936011261053c576004356001600160401b03811161053c576127d5903690600401612b9b565b612806826040516127f560ff8551928481818901956101cb818389612c48565b604051809381928651928391612c48565b8101600881520301902090600682019283549360ff851660058110156105265760026128329114612fa9565b600784015461a8c08101809111611e5257421115612abc5760018060a01b03809560181c169482600087946128ba6008890154878452600d83526040842061287b828254612e4d565b905560015460405163a9059cbb60e01b8082526001600160a01b03909a1660048201526024810192909252909384929187169183919082906044820190565b03925af19081156103b857600091612a9f575b5015612a6657600e86019360646128ec600f8754990198895490612dd5565b049283151580612a5a575b612999575b50505061038692917fe2b1d963f1ec20d10d097a5196a0a9e7b5ff982020b428f20918fe52a2234edf60ff926000805160206131168339815191529861296485600481198754161780875560b81c16859061ff00825491151560081b169061ff001916179055565b6129746040519283928a84613041565b0390a15460081c169384156129915750546040519384938461301d565b905054610a03565b918380928a6000849998966129b36129e599600554612e4d565b60055560015416926040519889958694859384526004840160209093929193604081019460018060a01b031681520152565b03925af19081156103b857600080516020613116833981519152986103869660ff957fe2b1d963f1ec20d10d097a5196a0a9e7b5ff982020b428f20918fe52a2234edf94612a3c575b5050985092829495506128fc565b81612a5292903d106103b1576103a28183612b7a565b508a80612a2e565b508360055410156128f7565b6064906040519062461bcd60e51b825260048201526012602482015271109bdb99081c995d1d5c9b8819985a5b195960721b6044820152fd5b612ab69150823d84116103b1576103a28183612b7a565b886128cd565b60405162461bcd60e51b815260048101839052600d60248201526c57696e646f772061637469766560981b6044820152606490fd5b3461053c57600036600319011261053c576020600354604051908152f35b3461053c57600036600319011261053c576001546040516001600160a01b039091168152602090f35b3461053c57602036600319011261053c576004356001600160401b03811161053c57612b72612b6d6020923690600401612b9b565b612f19565b604051908152f35b90601f801991011681019081106001600160401b0382111761186c57604052565b81601f8201121561053c578035906001600160401b03821161186c5760405192612bcf601f8401601f191660200185612b7a565b8284526020838301011161053c57816000926020809301838601378301015290565b600435906001600160a01b038216820361053c57565b604060031982011261053c57600435906001600160401b03821161053c57612c3191600401612b9b565b906024356001600160a01b038116810361053c5790565b60005b838110612c5b5750506000910152565b8181015183820152602001612c4b565b60243590811515820361053c57565b90600182811c92168015612caa575b6020831014612c9457565b634e487b7160e01b600052602260045260246000fd5b91607f1691612c89565b9060405191826000825492612cc884612c7a565b908184526001948581169081600014612d375750600114612cf4575b5050612cf292500383612b7a565b565b9093915060005260209081600020936000915b818310612d1f575050612cf293508201013880612ce4565b85548884018501529485019487945091830191612d07565b915050612cf294506020925060ff191682840152151560051b8201013880612ce4565b90602091612d7381518092818552858086019101612c48565b601f01601f1916010190565b9081602091031261053c5751801515810361053c5790565b15612d9e57565b60405162461bcd60e51b815260206004820152600f60248201526e151c985b9cd9995c8819985a5b1959608a1b6044820152606490fd5b91908201809211611e5257565b8115612dec570490565b634e487b7160e01b600052601260045260246000fd5b15612e0957565b60405162461bcd60e51b8152602060048201526009602482015268139bc81b585c9ad95d60ba1b6044820152606490fd5b81810292918115918404141715611e5257565b91908203918211611e5257565b8054906801000000000000000082101561186c5760018201808255821015612ea6576000526020600020019060018060a01b03166bffffffffffffffffffffffff60a01b825416179055565b634e487b7160e01b600052603260045260246000fd5b600090804211600014612f1357612ed4915042612e4d565b81811015612f0c57612ee69082612e4d565b9081603202916032830403611e5257612efe91612de2565b60640180606411611e525790565b5050606490565b50612ed4565b612f51612f376020600a938160405193828580945193849201612c48565b81016008815203019020600f600e82015491015490612dd5565b04624c4b40808210612f61575090565b905090565b15612f6d57565b60405162461bcd60e51b8152602060048201526014602482015273109bdb99081d1c985b9cd9995c8819985a5b195960621b6044820152606490fd5b15612fb057565b60405162461bcd60e51b815260206004820152600c60248201526b139bdd081c1c9bdc1bdcd95960a21b6044820152606490fd5b15612feb57565b60405162461bcd60e51b815260206004820152600a60248201526927b7363c9030b236b4b760b11b6044820152606490fd5b61303560409295949395606083526060830190612d5a565b94151560208201520152565b61305960409295949395606083526060830190612d5a565b6001600160a01b0390951660208201520152565b1561307457565b60405162461bcd60e51b815260206004820152600c60248201526b139bdd081c995cdbdb1d995960a21b6044820152606490fd5b156130af57565b60405162461bcd60e51b81526020600482015260076024820152664e6f206665657360c81b6044820152606490fd5b156130e557565b60405162461bcd60e51b815260206004820152600860248201526714995cdbdb1d995960c21b6044820152606490fdfe175b08e6ee8bbceb85780e790adca99ec4fbd3bb124ffbf50bd35ed4375a69aca26469706673582212207894ba031b4fcbee2eff8d0dd2d08cc9add28f04e536da5108feb286d292a3f564736f6c63430008140033",
  "linkReferences": {},
  "deployedLinkReferences": {}
}