{
  "_format": "hh-sol-artifact-1",
  "contractName": "PredictionBattleUSDC",
  "sourceName": "contracts/PredictionBattleUSDC.sol",
  "abi": [
    {
      "inputs": [
        {
          "internalType": "address",
          "name": "_usdcAddress",
          "type": "address"
        }
      ],
      "stateMutability": "nonpayable",
      "type": "constructor"
    },
    {
      "anonymous": false,
      "inputs": [
        {
          "indexed": false,
          "internalType": "string",
          "name": "id",
          "type": "string"
        },
        {
          "indexed": false,
          "internalType": "address",
          "name": "user",
          "type": "address"
        },
        {
          "indexed": false,
          "internalType": "bool",
          "name": "vote",
          "type": "bool"
        },
        {
          "indexed": false,
          "internalType": "uint256",
          "name": "amount",
          "type": "uint256"
        }
      ],
      "name": "BetPlaced",
      "type": "event"
    },
    {
      "anonymous": false,
      "inputs": [
        {
          "indexed": false,
          "internalType": "string",
          "name": "id",
          "type": "string"
        }
      ],
      "name": "DistributionCompleted",
      "type": "event"
    },
    {
      "anonymous": false,
      "inputs": [
        {
          "indexed": false,
          "internalType": "address",
          "name": "operator",
          "type": "address"
        },
        {
          "indexed": false,
          "internalType": "bool",
          "name": "status",
          "type": "bool"
        }
      ],
      "name": "OperatorUpdated",
      "type": "event"
    },
    {
      "anonymous": false,
      "inputs": [
        {
          "indexed": false,
          "internalType": "string",
          "name": "id",
          "type": "string"
        },
        {
          "indexed": false,
          "internalType": "address",
          "name": "user",
          "type": "address"
        },
        {
          "indexed": false,
          "internalType": "uint256",
          "name": "amount",
          "type": "uint256"
        }
      ],
      "name": "PayoutDistributed",
      "type": "event"
    },
    {
      "anonymous": false,
      "inputs": [
        {
          "indexed": false,
          "internalType": "string",
          "name": "id",
          "type": "string"
        },
        {
          "indexed": false,
          "internalType": "uint256",
          "name": "target",
          "type": "uint256"
        },
        {
          "indexed": false,
          "internalType": "uint256",
          "name": "deadline",
          "type": "uint256"
        },
        {
          "indexed": false,
          "internalType": "address",
          "name": "creator",
          "type": "address"
        }
      ],
      "name": "PredictionCreated",
      "type": "event"
    },
    {
      "anonymous": false,
      "inputs": [
        {
          "indexed": false,
          "internalType": "string",
          "name": "id",
          "type": "string"
        },
        {
          "indexed": false,
          "internalType": "bool",
          "name": "result",
          "type": "bool"
        },
        {
          "indexed": false,
          "internalType": "uint256",
          "name": "winnerPool",
          "type": "uint256"
        },
        {
          "indexed": false,
          "internalType": "uint256",
          "name": "totalFees",
          "type": "uint256"
        }
      ],
      "name": "PredictionResolved",
      "type": "event"
    },
    {
      "anonymous": false,
      "inputs": [
        {
          "indexed": false,
          "internalType": "string",
          "name": "id",
          "type": "string"
        },
        {
          "indexed": false,
          "internalType": "uint256",
          "name": "totalPool",
          "type": "uint256"
        },
        {
          "indexed": false,
          "internalType": "uint256",
          "name": "platformFee",
          "type": "uint256"
        }
      ],
      "name": "PredictionVoided",
      "type": "event"
    },
    {
      "anonymous": false,
      "inputs": [
        {
          "indexed": false,
          "internalType": "string",
          "name": "id",
          "type": "string"
        },
        {
          "indexed": false,
          "internalType": "uint256",
          "name": "yesAmount",
          "type": "uint256"
        },
        {
          "indexed": false,
          "internalType": "uint256",
          "name": "noAmount",
          "type": "uint256"
        }
      ],
      "name": "SeedAdded",
      "type": "event"
    },
    {
      "inputs": [],
      "name": "admin",
      "outputs": [
        {
          "internalType": "address",
          "name": "",
          "type": "address"
        }
      ],
      "stateMutability": "view",
      "type": "function"
    },
    {
      "inputs": [
        {
          "internalType": "string",
          "name": "_id",
          "type": "string"
        },
        {
          "internalType": "uint256",
          "name": "_target",
          "type": "uint256"
        },
        {
          "internalType": "uint256",
          "name": "_duration",
          "type": "uint256"
        },
        {
          "internalType": "uint256",
          "name": "_seedAmount",
          "type": "uint256"
        }
      ],
      "name": "createPrediction",
      "outputs": [],
      "stateMutability": "nonpayable",
      "type": "function"
    },
    {
      "inputs": [],
      "name": "creatorFeeBps",
      "outputs": [
        {
          "internalType": "uint256",
          "name": "",
          "type": "uint256"
        }
      ],
      "stateMutability": "view",
      "type": "function"
    },
    {
      "inputs": [
        {
          "internalType": "string",
          "name": "_id",
          "type": "string"
        },
        {
          "internalType": "uint256",
          "name": "_batchSize",
          "type": "uint256"
        }
      ],
      "name": "distributeWinnings",
      "outputs": [],
      "stateMutability": "nonpayable",
      "type": "function"
    },
    {
      "inputs": [
        {
          "internalType": "address",
          "name": "",
          "type": "address"
        }
      ],
      "name": "operators",
      "outputs": [
        {
          "internalType": "bool",
          "name": "",
          "type": "bool"
        }
      ],
      "stateMutability": "view",
      "type": "function"
    },
    {
      "inputs": [
        {
          "internalType": "string",
          "name": "_id",
          "type": "string"
        },
        {
          "internalType": "bool",
          "name": "_vote",
          "type": "bool"
        },
        {
          "internalType": "uint256",
          "name": "_amount",
          "type": "uint256"
        }
      ],
      "name": "placeBet",
      "outputs": [],
      "stateMutability": "nonpayable",
      "type": "function"
    },
    {
      "inputs": [],
      "name": "platformFeeBps",
      "outputs": [
        {
          "internalType": "uint256",
          "name": "",
          "type": "uint256"
        }
      ],
      "stateMutability": "view",
      "type": "function"
    },
    {
      "inputs": [
        {
          "internalType": "string",
          "name": "",
          "type": "string"
        }
      ],
      "name": "predictionExists",
      "outputs": [
        {
          "internalType": "bool",
          "name": "",
          "type": "bool"
        }
      ],
      "stateMutability": "view",
      "type": "function"
    },
    {
      "inputs": [
        {
          "internalType": "string",
          "name": "",
          "type": "string"
        }
      ],
      "name": "predictions",
      "outputs": [
        {
          "internalType": "string",
          "name": "id",
          "type": "string"
        },
        {
          "internalType": "uint256",
          "name": "target",
          "type": "uint256"
        },
        {
          "internalType": "uint256",
          "name": "deadline",
          "type": "uint256"
        },
        {
          "internalType": "bool",
          "name": "resolved",
          "type": "bool"
        },
        {
          "internalType": "bool",
          "name": "result",
          "type": "bool"
        },
        {
          "internalType": "uint256",
          "name": "totalYes",
          "type": "uint256"
        },
        {
          "internalType": "uint256",
          "name": "totalNo",
          "type": "uint256"
        },
        {
          "internalType": "bool",
          "name": "isVoid",
          "type": "bool"
        },
        {
          "internalType": "uint256",
          "name": "processedIndex",
          "type": "uint256"
        },
        {
          "internalType": "bool",
          "name": "paidOut",
          "type": "bool"
        },
        {
          "internalType": "address",
          "name": "creator",
          "type": "address"
        },
        {
          "internalType": "uint256",
          "name": "seedYes",
          "type": "uint256"
        },
        {
          "internalType": "uint256",
          "name": "seedNo",
          "type": "uint256"
        }
      ],
      "stateMutability": "view",
      "type": "function"
    },
    {
      "inputs": [
        {
          "internalType": "string",
          "name": "_id",
          "type": "string"
        },
        {
          "internalType": "bool",
          "name": "_result",
          "type": "bool"
        }
      ],
      "name": "resolvePrediction",
      "outputs": [],
      "stateMutability": "nonpayable",
      "type": "function"
    },
    {
      "inputs": [
        {
          "internalType": "string",
          "name": "_id",
          "type": "string"
        }
      ],
      "name": "resolveVoid",
      "outputs": [],
      "stateMutability": "nonpayable",
      "type": "function"
    },
    {
      "inputs": [
        {
          "internalType": "string",
          "name": "_id",
          "type": "string"
        },
        {
          "internalType": "uint256",
          "name": "_seedAmount",
          "type": "uint256"
        }
      ],
      "name": "seedPrediction",
      "outputs": [],
      "stateMutability": "nonpayable",
      "type": "function"
    },
    {
      "inputs": [
        {
          "internalType": "address",
          "name": "_newAdmin",
          "type": "address"
        }
      ],
      "name": "setAdmin",
      "outputs": [],
      "stateMutability": "nonpayable",
      "type": "function"
    },
    {
      "inputs": [
        {
          "internalType": "address",
          "name": "_operator",
          "type": "address"
        },
        {
          "internalType": "bool",
          "name": "_status",
          "type": "bool"
        }
      ],
      "name": "setOperator",
      "outputs": [],
      "stateMutability": "nonpayable",
      "type": "function"
    },
    {
      "inputs": [],
      "name": "usdcToken",
      "outputs": [
        {
          "internalType": "contract IERC20",
          "name": "",
          "type": "address"
        }
      ],
      "stateMutability": "view",
      "type": "function"
    },
    {
      "inputs": [
        {
          "internalType": "uint256",
          "name": "_amount",
          "type": "uint256"
        }
      ],
      "name": "withdrawSurplus",
      "outputs": [],
      "stateMutability": "nonpayable",
      "type": "function"
    }
  ],
  "bytecode": "0x60803461008657601f611e4938819003918201601f19168301916001600160401b0383118484101761008b5780849260209460405283398101031261008657516001600160a01b03811690819003610086576107d06002556101f460035560018060a01b0319338160005416176000556001541617600155604051611da790816100a28239f35b600080fd5b634e487b7160e01b600052604160045260246000fdfe608060408181526004918236101561001657600080fd5b600092833560e01c91826311eac855146113185750816313e7c9d8146112da57816317773ebb146112bb57816322dcd13e1461129c578163558a7297146112125781636409e406146110a9578163704b6c02146110255781637321c82914610c7c5781637b4fd3e314610af55781638549502814610a90578163964289fc146108dd5781639a2be2d014610642578163af69bdce146105f0578163b0d1818c14610508578163c4faa808146100ff575063f851a440146100d557600080fd5b346100fb57816003193601126100fb57905490516001600160a01b039091168152602090f35b5080fd5b8383346100fb5760803660031901126100fb5767ffffffffffffffff833581811161050457610131903690860161139f565b9180519483519060ff60209788818189019561014e818389611428565b8101600581520301902054166104c15760643591821515806104b6575b61017490611501565b6001805485516323b872dd60e01b8152338186019081523060208201526040810187905292949290918b9183916001600160a01b03169082908d90829060600103925af19081156104ac57906101d1918a9161047f575b50611565565b8451898189516101e2818388611428565b81018481520301902095875190811161046c576101ff875461144b565b601f8111610426575b5089601f821160011461036e57988761035d97956103198d7f9c5f3f339ea71730c4c68848bc88abfc3b9633c4f5a3d745594dc6417a5050b297859f977fff36ff50e65334f5ea64776f95ec82ce2fbd32a145dd5258689e2027c1c61b3a9f97600e9f9e9c988f9082918a92610363575b5050600019600383901b1c191690861b1786555b6024359788868801556102a2604435426115a8565b9760028801988955600b600389019860ff19998a8154169055600a81018a81541690550155600c8d018054610100600160a81b033360081b16906affffffffffffffffffffff60a81b16179055851c9e8f9c8d809382015582600582015582600d82015501558c8a51938492839251928391611428565b81016005815203019020918254161790555491845192839260808452610342608085018b611485565b92840152858301523360608301520390a151938493846115eb565b0390a180f35b015190508f80610279565b878a528a8a2090601f1983168b5b8181106104115750956103198d7f9c5f3f339ea71730c4c68848bc88abfc3b9633c4f5a3d745594dc6417a5050b2978e9f977fff36ff50e65334f5ea64776f95ec82ce2fbd32a145dd5258689e2027c1c61b3a9f96600e9f9e9c988f9161035d9f9d988f9993838a95106103f8575b505050811b01865561028d565b015160001960f88460031b161c191690558f38816103eb565b8b830151845592870192918d01918d0161037c565b878a528a8a20601f830160051c8101918c8410610462575b601f0160051c019085905b828110610457575050610208565b8b8155018590610449565b909150819061043e565b634e487b7160e01b895260418252602489fd5b61049f91508b3d8d116104a5575b6104978183611367565b81019061154d565b8b6101cb565b503d61048d565b86513d8b823e3d90fd5b50600183161561016b565b825162461bcd60e51b8152908101879052601c60248201527f50726564696374696f6e20494420616c726561647920657869737473000000006044820152606490fd5b8380fd5b919050346105ec5760203660031901126105ec5782602061057360018060a01b0380845416906105398233146114aa565b600154865163a9059cbb60e01b81526001600160a01b03909316888401908152883560208201529295869492909116928492839160400190565b03925af19081156105e25784916105c4575b501561058f578280f35b906020606492519162461bcd60e51b8352820152600f60248201526e15da5d1a191c985dc819985a5b1959608a1b6044820152fd5b6105dc915060203d81116104a5576104978183611367565b38610585565b82513d86823e3d90fd5b8280fd5b5050346100fb5761062461062991610607366113f6565b92909160018060a01b03865416331490811561062c575b506116c7565b611882565b80f35b60ff91503387526006602052862054163861061e565b9050346105ec5760603660031901126105ec57803567ffffffffffffffff81116105045761067560ff913690840161139f565b9161067e611358565b604435916106c3865186516106b360209783898095818d01956106a2818389611428565b81016005815203019020541661160d565b8851809381928a51928391611428565b81018481520301902060028101544210156108a15783156108545760015487516323b872dd60e01b815233848201908152306020820152604081018790529091879183916001600160a01b03169082908d90829060600103925af190811561084a57916107617ff1b5b55d4eb3da18fbbffc43e6e34b06f94fcb6316aead707ad556bf22aee40c9994926107b299989796948c9161082d5750611565565b82156107db5760088101338b52808752848b2054156107c9575b338b528652838a2061078e8682546115a8565b90550161079c8482546115a8565b90555b8151958695608087526080870190611485565b93339086015215159084015260608301520390a180f35b6107d63360068401611687565b61077b565b6005915060098101338b52808752848b20541561081b575b338b528652838a206108068682546115a8565b9055016108148482546115a8565b905561079f565b6108283360078401611687565b6107f3565b6108449150883d8a116104a5576104978183611367565b386101cb565b88513d8b823e3d90fd5b865162461bcd60e51b8152808301869052602160248201527f42657420616d6f756e74206d7573742062652067726561746572207468616e206044820152600360fc1b6064820152608490fd5b865162461bcd60e51b8152808301869052601660248201527510995d1d1a5b99c81c195c9a5bd908195e1c1a5c995960521b6044820152606490fd5b919050346105ec576020918260031936011261050457803567ffffffffffffffff8111610a8c57610911903690830161139f565b9060018060a01b03938486541633148015610a78575b610930906116c7565b6109f8816109aa610966828761095660ff8b5184818186519601956106a2818389611428565b8951809381928b51928391611428565b8101888152030190206003810180549061098360ff831615611704565b600160ff198093161790556001600a830191825416179055600586820154910154906115a8565b936127106109ba60025487611743565b049788918a826001541692815416918a519687958694859363a9059cbb60e01b8552840160209093929193604081019460018060a01b031681520152565b03925af1918215610a6e579561035d93610a418294610a46947fa3ce321670cf1577a276bea0d3a7f932314dff3e9fb3266a1e2435bd79d91d029a8c92610a51575b5050611756565b6117a2565b9351938493846115eb565b610a679250803d106104a5576104978183611367565b3880610a3a565b85513d89823e3d90fd5b50338652600681528386205460ff16610927565b8480fd5b828434610af2576020366003190112610af25782359067ffffffffffffffff8211610af25750610add6020610acb819560ff9436910161139f565b81855193828580945193849201611428565b81016005815203019020541690519015158152f35b80fd5b8383346100fb57602092836003193601126105ec57803567ffffffffffffffff81116105045784610acb610b2c923690850161139f565b8101848152030190208251928482549087610b468361144b565b918288526001938481169081600014610c5b5750600114610c24575b505050610b7485610bc4970386611367565b8201549260028301549060038401549084015460058501549060ff80600a8801541693600b88015495600c89015497600e600d8b01549a01549a81519e8f9e8f9e8f6101a0908181520190611485565b9d01528c0152818116151560608c015260081c16151560808a015260a089015260c0880152151560e087015261010086015260ff8116151561012086015260018060a01b039060081c166101408501526101608401526101808301520390f35b909197508481528181205b888210610c4857508601019550610b7487610bc4610b62565b8054888301840152908201908301610c2f565b60ff1916838a0152505090151560051b8601019550610b7487610bc4610b62565b919050346105ec57806003193601126105ec57813567ffffffffffffffff811161050457610cad903690840161139f565b91610cb6611358565b84546001600160a01b039390841633148015611010575b610cd6906116c7565b805193610d09868051610cf960ff896020809b81809701956106a2818389611428565b8451809381928b51928391611428565b81018781520301902090600382016001815495610d2960ff881615611704565b15159561ff008760081b169061ffff191617179055610d50858301546005840154906115a8565b946127109182610d6260025489611743565b0492610d7060035489611743565b0493816001541690828c5416918a8d89519283809281610db38c63a9059cbb60e01b9a8b84528d840160209093929193604081019460018060a01b031681520152565b03925af1908d82156110055792610dd78d9593600c938b9691610fe8575b50611756565b01908d85835460081c161515600014610f085785610e229660015416935460081c16918a519687958694859384528a840160209093929193604081019460018060a01b031681520152565b03925af1908115610efe578a91610ee1575b5015610e9e575091610e78610e71610e8c9795937f1c7a883a185aebed363acfbea55743db9dd8ab8200a74e98d4ea59e45fa6697c9997956115a8565b80946117a2565b918151968796608088526080880190611485565b9486015284015260608301520390a180f35b835162461bcd60e51b8152908101879052601a60248201527f4661696c656420746f2073656e642063726561746f72206665650000000000006044820152606490fd5b610ef89150883d8a116104a5576104978183611367565b38610e34565b85513d8c823e3d90fd5b60015481548b519384526001600160a01b039088161688840190815260208101959095529195869485900360400193508492165af1908115610efe578a91610fcb575b5015610f88575091610e78610e71610e8c9795937f1c7a883a185aebed363acfbea55743db9dd8ab8200a74e98d4ea59e45fa6697c9997956115a8565b835162461bcd60e51b8152908101879052601b60248201527f4c65676163792063726561746f722066656520746f2061646d696e00000000006044820152606490fd5b610fe29150883d8a116104a5576104978183611367565b38610f4b565b610fff9150873d89116104a5576104978183611367565b38610dd1565b8951903d90823e3d90fd5b5033865260066020528086205460ff16610ccd565b9050346105ec5760203660031901126105ec5761104061133d565b835491906001600160a01b039061105a33838616146114aa565b169283156110745750506001600160a01b03191617815580f35b906020606492519162461bcd60e51b8352820152600f60248201526e496e76616c6964206164647265737360881b6044820152fd5b9050346105ec5760ff906110bc366113f6565b611101859392935184516110df60209783898095818b01956106a2818389611428565b83151580611207575b6110f190611501565b8751809381928851928391611428565b81018581520301902060015486516323b872dd60e01b815233818601908152306020820152604081018590529296929091839183916001600160a01b03169082908c90829060600103925af19182156111fd57926111917fff36ff50e65334f5ea64776f95ec82ce2fbd32a145dd5258689e2027c1c61b3a9893600e9361035d97968c926111e0575b5050611565565b60011c95869381016111a48582546115a8565b9055600581016111b58582546115a8565b9055600d81016111c68582546115a8565b9055016111d48382546115a8565b905551938493846115eb565b6111f69250803d106104a5576104978183611367565b388061118a565b87513d8a823e3d90fd5b5060018416156110e8565b5050346100fb57806003193601126100fb577f966c160e1c4dbc7df8d69af4ace01e9297c3cf016397b7914971f2fbfa32672d9061124e61133d565b611256611358565b845490916001600160a01b039161127090831633146114aa565b169081855260066020528285209015159060ff1981541660ff831617905582519182526020820152a180f35b5050346100fb57816003193601126100fb576020906002549051908152f35b5050346100fb57816003193601126100fb576020906003549051908152f35b5050346100fb5760203660031901126100fb5760209160ff9082906001600160a01b0361130561133d565b1681526006855220541690519015158152f35b8490346100fb57816003193601126100fb576001546001600160a01b03168152602090f35b600435906001600160a01b038216820361135357565b600080fd5b60243590811515820361135357565b90601f8019910116810190811067ffffffffffffffff82111761138957604052565b634e487b7160e01b600052604160045260246000fd5b81601f820112156113535780359067ffffffffffffffff821161138957604051926113d4601f8401601f191660200185611367565b8284526020838301011161135357816000926020809301838601378301015290565b6040600319820112611353576004359067ffffffffffffffff8211611353576114219160040161139f565b9060243590565b60005b83811061143b5750506000910152565b818101518382015260200161142b565b90600182811c9216801561147b575b602083101461146557565b634e487b7160e01b600052602260045260246000fd5b91607f169161145a565b9060209161149e81518092818552858086019101611428565b601f01601f1916010190565b156114b157565b60405162461bcd60e51b815260206004820152602260248201527f4f6e6c792061646d696e2063616e20706572666f726d2074686973206163746960448201526137b760f11b6064820152608490fd5b1561150857565b60405162461bcd60e51b815260206004820152601960248201527f53656564206d757374206265203e203020616e64206576656e000000000000006044820152606490fd5b90816020910312611353575180151581036113535790565b1561156c57565b60405162461bcd60e51b81526020600482015260146024820152731554d110c81d1c985b9cd9995c8819985a5b195960621b6044820152606490fd5b919082018092116115b557565b634e487b7160e01b600052601160045260246000fd5b81156115d5570490565b634e487b7160e01b600052601260045260246000fd5b61160360409295949395606083526060830190611485565b9460208201520152565b1561161457565b60405162461bcd60e51b815260206004820152601960248201527f50726564696374696f6e20646f6573206e6f74206578697374000000000000006044820152606490fd5b80548210156116715760005260206000200190600090565b634e487b7160e01b600052603260045260246000fd5b805468010000000000000000811015611389576116a991600182018155611659565b819291549060031b9160018060a01b03809116831b921b1916179055565b156116ce57565b60405162461bcd60e51b815260206004820152600e60248201526d139bdd08185d5d1a1bdc9a5e995960921b6044820152606490fd5b1561170b57565b60405162461bcd60e51b815260206004820152601060248201526f105b1c9958591e481c995cdbdb1d995960821b6044820152606490fd5b818102929181159184041417156115b557565b1561175d57565b60405162461bcd60e51b815260206004820152601b60248201527f4661696c656420746f2073656e6420706c6174666f726d2066656500000000006044820152606490fd5b919082039182116115b557565b60001981146115b55760010190565b156117c557565b60405162461bcd60e51b815260206004820152600f60248201526e151c985b9cd9995c8819985a5b1959608a1b6044820152606490fd5b61181460409295949395606083526060830190611485565b6001600160a01b0390951660208201520152565b9060405191828154918282526020928383019160005283600020936000905b82821061185f5750505061185d92500383611367565b565b85546001600160a01b031684526001958601958895509381019390910190611847565b9060405160208184516118988183858901611428565b810160048152030190209060ff60038301541615611d2c5760ff600c83015416611cee576000906004830180546118d560058601918254906115a8565b9361271094856118e760025483611743565b04956118f560035483611743565b049560ff600a890154169687600014611cdb575061191390826117a2565b955b611b54575050600385015460081c60ff1615611b3e575061193860068501611828565b9054925b8151938415611b26578015611b265761195a600b87015494856115a8565b93858511611b1e575b8481106119ca575050505080600b840155101561197e575050565b600c01805460ff1916600117905560405160208082527f9ec2be866260137327142d7404b7fcc5cc8498409bc29470d3e480b6104318589282916119c59190830190611485565b0390a1565b83518110156116715760018060a01b03908160208260051b8701015116918385600060ff60038d015460081c16600014611b05575050508260005260088901602052838560406000206000815491555b80611a33575b50505050611a2e91506117af565b611963565b611a469291611a4191611743565b6115cb565b60015460405163a9059cbb60e01b81526001600160a01b03861660048201526024810183905294919260209186916044918391600091165af1938415611af957611ace7f1dbdb822c5640c362e09f214d7cbc87a4c65998f48cbef088e5bb6f70203283993611ac2611a2e978f94600091611ada575b506117be565b604051938493846117fc565b0390a138838582611a20565b611af3915060203d6020116104a5576104978183611367565b38611abc565b6040513d6000823e3d90fd5b80866040925260098d0160205220600081549155611a1a565b859450611963565b505050600c909201805460ff19166001179055505050565b9050611b4c60078501611828565b90549261193c565b91509150600685015490611b6c6007870154836115a8565b94611b7c600b88015495866115a8565b94868611611cd3575b858110611ba157505050505080600b840155101561197e575050565b83811015611c9457611bb68160068a01611659565b60018060a01b0391549060031b1c168086526008890160205283836040882088815491555b80611bf3575b50505050611bee906117af565b611b85565b611c019291611a4191611743565b60015460405163a9059cbb60e01b81526001600160a01b038481166004830152602482018490529091602091839160449183918d91165af1908115611c8957611c7d7f1dbdb822c5640c362e09f214d7cbc87a4c65998f48cbef088e5bb6f70203283993611ac28f9394611bee9897958d91611ada57506117be565b0390a190838338611be1565b6040513d8a823e3d90fd5b611caa611ca185836117a2565b60078a01611659565b60018060a01b0391549060031b1c16808652600989016020528383604088208881549155611bdb565b869550611b85565b610a41611ce892846117a2565b95611915565b60405162461bcd60e51b8152602060048201526016602482015275105b1c9958591e48199d5b1b1e481c185a59081bdd5d60521b6044820152606490fd5b60405162461bcd60e51b815260206004820152601b60248201527f50726564696374696f6e206e6f74207265736f6c7665642079657400000000006044820152606490fdfea26469706673582212205bf4149ebb9057992806ecd629fa05d8d453e06572b8fcc0d0f76f79b64e73da64736f6c63430008140033",
  "linkReferences": {},
  "deployedLinkReferences": {}
}