{
  "_format": "hh-sol-artifact-1",
  "contractName": "PredictionBattleV3",
  "sourceName": "contracts/PredictionBattleTest.sol",
  "abi": [
    {
      "inputs": [
        {
          "internalType": "address",
          "name": "_usdcAddress",
          "type": "address"
        }
      ],
      "stateMutability": "nonpayable",
      "type": "constructor"
    },
    {
      "anonymous": false,
      "inputs": [
        {
          "indexed": true,
          "internalType": "string",
          "name": "id",
          "type": "string"
        },
        {
          "indexed": true,
          "internalType": "address",
          "name": "user",
          "type": "address"
        },
        {
          "indexed": false,
          "internalType": "bool",
          "name": "vote",
          "type": "bool"
        },
        {
          "indexed": false,
          "internalType": "uint256",
          "name": "amount",
          "type": "uint256"
        },
        {
          "indexed": false,
          "internalType": "uint256",
          "name": "shares",
          "type": "uint256"
        },
        {
          "indexed": false,
          "internalType": "address",
          "name": "referrer",
          "type": "address"
        },
        {
          "indexed": false,
          "internalType": "uint256",
          "name": "weight",
          "type": "uint256"
        }
      ],
      "name": "BetPlaced",
      "type": "event"
    },
    {
      "anonymous": false,
      "inputs": [
        {
          "indexed": true,
          "internalType": "address",
          "name": "user",
          "type": "address"
        },
        {
          "indexed": false,
          "internalType": "uint256",
          "name": "amount",
          "type": "uint256"
        }
      ],
      "name": "CreatorRewardClaimed",
      "type": "event"
    },
    {
      "anonymous": false,
      "inputs": [
        {
          "indexed": true,
          "internalType": "address",
          "name": "admin",
          "type": "address"
        },
        {
          "indexed": false,
          "internalType": "uint256",
          "name": "amount",
          "type": "uint256"
        }
      ],
      "name": "HouseWithdraw",
      "type": "event"
    },
    {
      "anonymous": false,
      "inputs": [
        {
          "indexed": true,
          "internalType": "string",
          "name": "id",
          "type": "string"
        },
        {
          "indexed": true,
          "internalType": "address",
          "name": "creator",
          "type": "address"
        },
        {
          "indexed": false,
          "internalType": "uint256",
          "name": "deadline",
          "type": "uint256"
        },
        {
          "indexed": false,
          "internalType": "uint256",
          "name": "bonusDuration",
          "type": "uint256"
        }
      ],
      "name": "MarketCreated",
      "type": "event"
    },
    {
      "anonymous": false,
      "inputs": [
        {
          "indexed": true,
          "internalType": "string",
          "name": "id",
          "type": "string"
        }
      ],
      "name": "MarketLocked",
      "type": "event"
    },
    {
      "anonymous": false,
      "inputs": [
        {
          "indexed": true,
          "internalType": "string",
          "name": "id",
          "type": "string"
        }
      ],
      "name": "MarketReopened",
      "type": "event"
    },
    {
      "anonymous": false,
      "inputs": [
        {
          "indexed": true,
          "internalType": "string",
          "name": "id",
          "type": "string"
        },
        {
          "indexed": false,
          "internalType": "bool",
          "name": "result",
          "type": "bool"
        },
        {
          "indexed": false,
          "internalType": "uint256",
          "name": "winnerPool",
          "type": "uint256"
        }
      ],
      "name": "MarketResolved",
      "type": "event"
    },
    {
      "anonymous": false,
      "inputs": [
        {
          "indexed": true,
          "internalType": "string",
          "name": "id",
          "type": "string"
        }
      ],
      "name": "MarketVoided",
      "type": "event"
    },
    {
      "anonymous": false,
      "inputs": [
        {
          "indexed": true,
          "internalType": "address",
          "name": "operator",
          "type": "address"
        },
        {
          "indexed": false,
          "internalType": "bool",
          "name": "status",
          "type": "bool"
        }
      ],
      "name": "OperatorUpdated",
      "type": "event"
    },
    {
      "anonymous": false,
      "inputs": [
        {
          "indexed": true,
          "internalType": "string",
          "name": "id",
          "type": "string"
        },
        {
          "indexed": true,
          "internalType": "address",
          "name": "disputer",
          "type": "address"
        },
        {
          "indexed": true,
          "internalType": "address",
          "name": "slashedProposer",
          "type": "address"
        },
        {
          "indexed": false,
          "internalType": "uint256",
          "name": "slashedAmount",
          "type": "uint256"
        },
        {
          "indexed": false,
          "internalType": "string",
          "name": "evidenceUrl",
          "type": "string"
        }
      ],
      "name": "OutcomeDisputed",
      "type": "event"
    },
    {
      "anonymous": false,
      "inputs": [
        {
          "indexed": true,
          "internalType": "string",
          "name": "id",
          "type": "string"
        },
        {
          "indexed": true,
          "internalType": "address",
          "name": "proposer",
          "type": "address"
        },
        {
          "indexed": false,
          "internalType": "uint256",
          "name": "rewardAmount",
          "type": "uint256"
        }
      ],
      "name": "OutcomeFinalized",
      "type": "event"
    },
    {
      "anonymous": false,
      "inputs": [
        {
          "indexed": true,
          "internalType": "string",
          "name": "id",
          "type": "string"
        },
        {
          "indexed": true,
          "internalType": "address",
          "name": "proposer",
          "type": "address"
        },
        {
          "indexed": false,
          "internalType": "bool",
          "name": "proposedResult",
          "type": "bool"
        },
        {
          "indexed": false,
          "internalType": "uint256",
          "name": "bondAmount",
          "type": "uint256"
        },
        {
          "indexed": false,
          "internalType": "uint256",
          "name": "disputeDeadline",
          "type": "uint256"
        },
        {
          "indexed": false,
          "internalType": "string",
          "name": "evidenceUrl",
          "type": "string"
        }
      ],
      "name": "OutcomeProposed",
      "type": "event"
    },
    {
      "anonymous": false,
      "inputs": [
        {
          "indexed": true,
          "internalType": "address",
          "name": "user",
          "type": "address"
        },
        {
          "indexed": false,
          "internalType": "uint256",
          "name": "amount",
          "type": "uint256"
        }
      ],
      "name": "ReferralRewardClaimed",
      "type": "event"
    },
    {
      "anonymous": false,
      "inputs": [
        {
          "indexed": true,
          "internalType": "string",
          "name": "id",
          "type": "string"
        },
        {
          "indexed": true,
          "internalType": "address",
          "name": "user",
          "type": "address"
        },
        {
          "indexed": false,
          "internalType": "uint256",
          "name": "amount",
          "type": "uint256"
        }
      ],
      "name": "RewardClaimed",
      "type": "event"
    },
    {
      "anonymous": false,
      "inputs": [
        {
          "indexed": true,
          "internalType": "string",
          "name": "id",
          "type": "string"
        },
        {
          "indexed": false,
          "internalType": "uint256",
          "name": "yesAmount",
          "type": "uint256"
        },
        {
          "indexed": false,
          "internalType": "uint256",
          "name": "noAmount",
          "type": "uint256"
        }
      ],
      "name": "SeedAdded",
      "type": "event"
    },
    {
      "inputs": [],
      "name": "BOND_PERCENT",
      "outputs": [
        {
          "internalType": "uint256",
          "name": "",
          "type": "uint256"
        }
      ],
      "stateMutability": "view",
      "type": "function"
    },
    {
      "inputs": [],
      "name": "DISPUTE_WINDOW",
      "outputs": [
        {
          "internalType": "uint256",
          "name": "",
          "type": "uint256"
        }
      ],
      "stateMutability": "view",
      "type": "function"
    },
    {
      "inputs": [],
      "name": "FEE_DENOMINATOR",
      "outputs": [
        {
          "internalType": "uint256",
          "name": "",
          "type": "uint256"
        }
      ],
      "stateMutability": "view",
      "type": "function"
    },
    {
      "inputs": [],
      "name": "MAX_WEIGHT",
      "outputs": [
        {
          "internalType": "uint256",
          "name": "",
          "type": "uint256"
        }
      ],
      "stateMutability": "view",
      "type": "function"
    },
    {
      "inputs": [],
      "name": "MIN_BOND",
      "outputs": [
        {
          "internalType": "uint256",
          "name": "",
          "type": "uint256"
        }
      ],
      "stateMutability": "view",
      "type": "function"
    },
    {
      "inputs": [],
      "name": "MIN_WEIGHT",
      "outputs": [
        {
          "internalType": "uint256",
          "name": "",
          "type": "uint256"
        }
      ],
      "stateMutability": "view",
      "type": "function"
    },
    {
      "inputs": [],
      "name": "REPORTER_REWARD_BPS",
      "outputs": [
        {
          "internalType": "uint256",
          "name": "",
          "type": "uint256"
        }
      ],
      "stateMutability": "view",
      "type": "function"
    },
    {
      "inputs": [],
      "name": "SHARE_PRECISION",
      "outputs": [
        {
          "internalType": "uint256",
          "name": "",
          "type": "uint256"
        }
      ],
      "stateMutability": "view",
      "type": "function"
    },
    {
      "inputs": [],
      "name": "admin",
      "outputs": [
        {
          "internalType": "address",
          "name": "",
          "type": "address"
        }
      ],
      "stateMutability": "view",
      "type": "function"
    },
    {
      "inputs": [
        {
          "internalType": "string",
          "name": "_marketId",
          "type": "string"
        },
        {
          "internalType": "bool",
          "name": "_result",
          "type": "bool"
        }
      ],
      "name": "adminResolve",
      "outputs": [],
      "stateMutability": "nonpayable",
      "type": "function"
    },
    {
      "inputs": [
        {
          "internalType": "address",
          "name": "",
          "type": "address"
        }
      ],
      "name": "bondBalance",
      "outputs": [
        {
          "internalType": "uint256",
          "name": "",
          "type": "uint256"
        }
      ],
      "stateMutability": "view",
      "type": "function"
    },
    {
      "inputs": [],
      "name": "claimCreatorRewards",
      "outputs": [],
      "stateMutability": "nonpayable",
      "type": "function"
    },
    {
      "inputs": [],
      "name": "claimReferralRewards",
      "outputs": [],
      "stateMutability": "nonpayable",
      "type": "function"
    },
    {
      "inputs": [
        {
          "internalType": "string",
          "name": "_marketId",
          "type": "string"
        }
      ],
      "name": "claimReward",
      "outputs": [],
      "stateMutability": "nonpayable",
      "type": "function"
    },
    {
      "inputs": [
        {
          "internalType": "string",
          "name": "_id",
          "type": "string"
        },
        {
          "internalType": "string",
          "name": "_question",
          "type": "string"
        },
        {
          "internalType": "uint256",
          "name": "_usdcSeedAmount",
          "type": "uint256"
        },
        {
          "internalType": "uint256",
          "name": "_duration",
          "type": "uint256"
        },
        {
          "internalType": "uint256",
          "name": "_bonusDuration",
          "type": "uint256"
        }
      ],
      "name": "createMarket",
      "outputs": [],
      "stateMutability": "nonpayable",
      "type": "function"
    },
    {
      "inputs": [
        {
          "internalType": "address",
          "name": "",
          "type": "address"
        }
      ],
      "name": "creatorBalance",
      "outputs": [
        {
          "internalType": "uint256",
          "name": "",
          "type": "uint256"
        }
      ],
      "stateMutability": "view",
      "type": "function"
    },
    {
      "inputs": [],
      "name": "creatorFeeBps",
      "outputs": [
        {
          "internalType": "uint256",
          "name": "",
          "type": "uint256"
        }
      ],
      "stateMutability": "view",
      "type": "function"
    },
    {
      "inputs": [
        {
          "internalType": "string",
          "name": "_marketId",
          "type": "string"
        },
        {
          "internalType": "string",
          "name": "_evidenceUrl",
          "type": "string"
        }
      ],
      "name": "disputeOutcome",
      "outputs": [],
      "stateMutability": "nonpayable",
      "type": "function"
    },
    {
      "inputs": [
        {
          "internalType": "string",
          "name": "_marketId",
          "type": "string"
        },
        {
          "internalType": "bool",
          "name": "_side",
          "type": "bool"
        },
        {
          "internalType": "uint256",
          "name": "_usdcAmount",
          "type": "uint256"
        }
      ],
      "name": "estimatePayout",
      "outputs": [
        {
          "internalType": "uint256",
          "name": "estimatedShares",
          "type": "uint256"
        },
        {
          "internalType": "uint256",
          "name": "estimatedPayout",
          "type": "uint256"
        }
      ],
      "stateMutability": "view",
      "type": "function"
    },
    {
      "inputs": [
        {
          "internalType": "string",
          "name": "_marketId",
          "type": "string"
        }
      ],
      "name": "finalizeOutcome",
      "outputs": [],
      "stateMutability": "nonpayable",
      "type": "function"
    },
    {
      "inputs": [
        {
          "internalType": "string",
          "name": "_marketId",
          "type": "string"
        }
      ],
      "name": "getCurrentWeight",
      "outputs": [
        {
          "internalType": "uint256",
          "name": "",
          "type": "uint256"
        }
      ],
      "stateMutability": "view",
      "type": "function"
    },
    {
      "inputs": [
        {
          "internalType": "string",
          "name": "_marketId",
          "type": "string"
        }
      ],
      "name": "getMarketInfo",
      "outputs": [
        {
          "internalType": "address",
          "name": "creator",
          "type": "address"
        },
        {
          "internalType": "uint256",
          "name": "deadline",
          "type": "uint256"
        },
        {
          "internalType": "enum PredictionBattleV3.MarketState",
          "name": "state",
          "type": "uint8"
        },
        {
          "internalType": "bool",
          "name": "result",
          "type": "bool"
        },
        {
          "internalType": "uint256",
          "name": "totalYes",
          "type": "uint256"
        },
        {
          "internalType": "uint256",
          "name": "totalNo",
          "type": "uint256"
        },
        {
          "internalType": "uint256",
          "name": "totalSharesYes",
          "type": "uint256"
        },
        {
          "internalType": "uint256",
          "name": "totalSharesNo",
          "type": "uint256"
        }
      ],
      "stateMutability": "view",
      "type": "function"
    },
    {
      "inputs": [
        {
          "internalType": "string",
          "name": "_marketId",
          "type": "string"
        }
      ],
      "name": "getProposalInfo",
      "outputs": [
        {
          "internalType": "address",
          "name": "proposer",
          "type": "address"
        },
        {
          "internalType": "bool",
          "name": "proposedResult",
          "type": "bool"
        },
        {
          "internalType": "uint256",
          "name": "proposalTime",
          "type": "uint256"
        },
        {
          "internalType": "uint256",
          "name": "bondAmount",
          "type": "uint256"
        },
        {
          "internalType": "uint256",
          "name": "disputeDeadline",
          "type": "uint256"
        },
        {
          "internalType": "bool",
          "name": "canFinalize",
          "type": "bool"
        },
        {
          "internalType": "string",
          "name": "evidenceUrl",
          "type": "string"
        }
      ],
      "stateMutability": "view",
      "type": "function"
    },
    {
      "inputs": [
        {
          "internalType": "string",
          "name": "_marketId",
          "type": "string"
        }
      ],
      "name": "getReporterReward",
      "outputs": [
        {
          "internalType": "uint256",
          "name": "",
          "type": "uint256"
        }
      ],
      "stateMutability": "view",
      "type": "function"
    },
    {
      "inputs": [
        {
          "internalType": "string",
          "name": "_marketId",
          "type": "string"
        }
      ],
      "name": "getRequiredBond",
      "outputs": [
        {
          "internalType": "uint256",
          "name": "",
          "type": "uint256"
        }
      ],
      "stateMutability": "view",
      "type": "function"
    },
    {
      "inputs": [
        {
          "internalType": "string",
          "name": "_marketId",
          "type": "string"
        },
        {
          "internalType": "address",
          "name": "_user",
          "type": "address"
        },
        {
          "internalType": "bool",
          "name": "_side",
          "type": "bool"
        }
      ],
      "name": "getUserBet",
      "outputs": [
        {
          "internalType": "uint256",
          "name": "amount",
          "type": "uint256"
        },
        {
          "internalType": "uint256",
          "name": "shares",
          "type": "uint256"
        },
        {
          "internalType": "address",
          "name": "referrer",
          "type": "address"
        },
        {
          "internalType": "bool",
          "name": "claimed",
          "type": "bool"
        }
      ],
      "stateMutability": "view",
      "type": "function"
    },
    {
      "inputs": [],
      "name": "houseBalance",
      "outputs": [
        {
          "internalType": "uint256",
          "name": "",
          "type": "uint256"
        }
      ],
      "stateMutability": "view",
      "type": "function"
    },
    {
      "inputs": [],
      "name": "houseFeeBps",
      "outputs": [
        {
          "internalType": "uint256",
          "name": "",
          "type": "uint256"
        }
      ],
      "stateMutability": "view",
      "type": "function"
    },
    {
      "inputs": [
        {
          "internalType": "string",
          "name": "_marketId",
          "type": "string"
        }
      ],
      "name": "lockMarket",
      "outputs": [],
      "stateMutability": "nonpayable",
      "type": "function"
    },
    {
      "inputs": [
        {
          "internalType": "string",
          "name": "",
          "type": "string"
        }
      ],
      "name": "marketExists",
      "outputs": [
        {
          "internalType": "bool",
          "name": "",
          "type": "bool"
        }
      ],
      "stateMutability": "view",
      "type": "function"
    },
    {
      "inputs": [
        {
          "internalType": "string",
          "name": "",
          "type": "string"
        }
      ],
      "name": "markets",
      "outputs": [
        {
          "internalType": "string",
          "name": "id",
          "type": "string"
        },
        {
          "internalType": "address",
          "name": "creator",
          "type": "address"
        },
        {
          "internalType": "string",
          "name": "question",
          "type": "string"
        },
        {
          "internalType": "uint256",
          "name": "creationTime",
          "type": "uint256"
        },
        {
          "internalType": "uint256",
          "name": "bonusDuration",
          "type": "uint256"
        },
        {
          "internalType": "uint256",
          "name": "deadline",
          "type": "uint256"
        },
        {
          "internalType": "enum PredictionBattleV3.MarketState",
          "name": "state",
          "type": "uint8"
        },
        {
          "internalType": "bool",
          "name": "result",
          "type": "bool"
        },
        {
          "internalType": "bool",
          "name": "isVoid",
          "type": "bool"
        },
        {
          "internalType": "bool",
          "name": "paidOut",
          "type": "bool"
        },
        {
          "internalType": "uint256",
          "name": "processedIndex",
          "type": "uint256"
        },
        {
          "internalType": "address",
          "name": "proposer",
          "type": "address"
        },
        {
          "internalType": "bool",
          "name": "proposedResult",
          "type": "bool"
        },
        {
          "internalType": "uint256",
          "name": "proposalTime",
          "type": "uint256"
        },
        {
          "internalType": "uint256",
          "name": "bondAmount",
          "type": "uint256"
        },
        {
          "internalType": "string",
          "name": "evidenceUrl",
          "type": "string"
        },
        {
          "internalType": "uint256",
          "name": "totalYes",
          "type": "uint256"
        },
        {
          "internalType": "uint256",
          "name": "totalNo",
          "type": "uint256"
        },
        {
          "internalType": "uint256",
          "name": "seedYes",
          "type": "uint256"
        },
        {
          "internalType": "uint256",
          "name": "seedNo",
          "type": "uint256"
        },
        {
          "internalType": "uint256",
          "name": "totalSharesYes",
          "type": "uint256"
        },
        {
          "internalType": "uint256",
          "name": "totalSharesNo",
          "type": "uint256"
        }
      ],
      "stateMutability": "view",
      "type": "function"
    },
    {
      "inputs": [
        {
          "internalType": "string",
          "name": "",
          "type": "string"
        },
        {
          "internalType": "address",
          "name": "",
          "type": "address"
        }
      ],
      "name": "noBets",
      "outputs": [
        {
          "internalType": "uint256",
          "name": "amount",
          "type": "uint256"
        },
        {
          "internalType": "uint256",
          "name": "shares",
          "type": "uint256"
        },
        {
          "internalType": "address",
          "name": "referrer",
          "type": "address"
        },
        {
          "internalType": "bool",
          "name": "claimed",
          "type": "bool"
        }
      ],
      "stateMutability": "view",
      "type": "function"
    },
    {
      "inputs": [
        {
          "internalType": "address",
          "name": "",
          "type": "address"
        }
      ],
      "name": "operators",
      "outputs": [
        {
          "internalType": "bool",
          "name": "",
          "type": "bool"
        }
      ],
      "stateMutability": "view",
      "type": "function"
    },
    {
      "inputs": [
        {
          "internalType": "string",
          "name": "_marketId",
          "type": "string"
        },
        {
          "internalType": "bool",
          "name": "_side",
          "type": "bool"
        },
        {
          "internalType": "uint256",
          "name": "_usdcAmount",
          "type": "uint256"
        },
        {
          "internalType": "address",
          "name": "_referrer",
          "type": "address"
        }
      ],
      "name": "placeBet",
      "outputs": [],
      "stateMutability": "nonpayable",
      "type": "function"
    },
    {
      "inputs": [
        {
          "internalType": "string",
          "name": "_marketId",
          "type": "string"
        },
        {
          "internalType": "bool",
          "name": "_result",
          "type": "bool"
        },
        {
          "internalType": "string",
          "name": "_evidenceUrl",
          "type": "string"
        }
      ],
      "name": "proposeOutcome",
      "outputs": [],
      "stateMutability": "nonpayable",
      "type": "function"
    },
    {
      "inputs": [],
      "name": "referrerFeeBps",
      "outputs": [
        {
          "internalType": "uint256",
          "name": "",
          "type": "uint256"
        }
      ],
      "stateMutability": "view",
      "type": "function"
    },
    {
      "inputs": [
        {
          "internalType": "address",
          "name": "",
          "type": "address"
        }
      ],
      "name": "rewardsBalance",
      "outputs": [
        {
          "internalType": "uint256",
          "name": "",
          "type": "uint256"
        }
      ],
      "stateMutability": "view",
      "type": "function"
    },
    {
      "inputs": [
        {
          "internalType": "address",
          "name": "_newAdmin",
          "type": "address"
        }
      ],
      "name": "setAdmin",
      "outputs": [],
      "stateMutability": "nonpayable",
      "type": "function"
    },
    {
      "inputs": [
        {
          "internalType": "address",
          "name": "_operator",
          "type": "address"
        },
        {
          "internalType": "bool",
          "name": "_status",
          "type": "bool"
        }
      ],
      "name": "setOperator",
      "outputs": [],
      "stateMutability": "nonpayable",
      "type": "function"
    },
    {
      "inputs": [
        {
          "internalType": "uint256",
          "name": "_houseFeeBps",
          "type": "uint256"
        },
        {
          "internalType": "uint256",
          "name": "_creatorFeeBps",
          "type": "uint256"
        },
        {
          "internalType": "uint256",
          "name": "_referrerFeeBps",
          "type": "uint256"
        }
      ],
      "name": "updateFees",
      "outputs": [],
      "stateMutability": "nonpayable",
      "type": "function"
    },
    {
      "inputs": [],
      "name": "usdcToken",
      "outputs": [
        {
          "internalType": "contract IERC20",
          "name": "",
          "type": "address"
        }
      ],
      "stateMutability": "view",
      "type": "function"
    },
    {
      "inputs": [
        {
          "internalType": "string",
          "name": "_marketId",
          "type": "string"
        }
      ],
      "name": "voidMarket",
      "outputs": [],
      "stateMutability": "nonpayable",
      "type": "function"
    },
    {
      "inputs": [],
      "name": "withdrawHouseBalance",
      "outputs": [],
      "stateMutability": "nonpayable",
      "type": "function"
    },
    {
      "inputs": [
        {
          "internalType": "string",
          "name": "",
          "type": "string"
        },
        {
          "internalType": "address",
          "name": "",
          "type": "address"
        }
      ],
      "name": "yesBets",
      "outputs": [
        {
          "internalType": "uint256",
          "name": "amount",
          "type": "uint256"
        },
        {
          "internalType": "uint256",
          "name": "shares",
          "type": "uint256"
        },
        {
          "internalType": "address",
          "name": "referrer",
          "type": "address"
        },
        {
          "internalType": "bool",
          "name": "claimed",
          "type": "bool"
        }
      ],
      "stateMutability": "view",
      "type": "function"
    }
  ],
  "bytecode": "0x6080346200009057601f6200363a38819003918201601f19168301916001600160401b0383118484101762000095578084926020946040528339810103126200009057516001600160a01b0381169081900362000090576103e86002556101f48060035560045560018060a01b031933816000541617600055600154161760015560405161358e9081620000ac8239f35b600080fd5b634e487b7160e01b600052604160045260246000fdfe604061012081526004908136101561001657600080fd5b600091823560e01c90816305eaab4b14612cf15781630dbc5b6c14612bb55781630e90aeb214612b795781630faf3093146128f257816311eac855146128c957816313e7c9d81461288b57816317773ebb1461286c5781632023115d14612534578163218b53821461246d57816322429085146124aa578163245e272f14612472578163327abb481461246d5781633fed6ced1461240c578163479860da1461237f578163558a7297146122fb5781635fc5e020146122d857816367084eb3146122b9578163704b6c02146122355781637226405614611eb75781637d191e061461195357816383f6b04414611917578163896bdac8146118df5781638c3a7a6c146118c257816393434d47146117eb57816393a2741b1461169d578163978c75e2146115ee5781639a826eb71461157b5781639bd1d513146110a4578163a07c163314611086578163bb8c979714610c93578163c7bafdcb14610b7b578163c8eaef1914610986578163d6e9e57014610918578163d73792a9146108fb578163d8a9afb2146107dc578163dbeae54c14610751578163e0de0fee14610733578163e4a28a5214610717578163e6cd7ab6146106df578163e7785ffb14610477578163ee59d24014610458578163efbda6611461024d57508063f585dc57146102325763f851a4401461020857600080fd5b3461022e578160031936011261022e57905490516001600160a01b039091168152602090f35b5080fd5b503461022e578160031936011261022e576020905160788152f35b90508234610455576020366003190112610455578135906001600160401b03821161045557506102809036908301612dde565b8251818180935160208193019161029692612e6b565b81016005815203602001902080916102ad82612f60565b60018301546001600160a01b031660c052906102cb60028401612f60565b60a05260038301549083015490600584015460068501546007860154600887015490600988015492600a89015494600b8a0161030690612f60565b97600c8b015460e052600d8b01549c600e8c01549a600f8d01549c601001549d60110154610100528151806080526102c08091526080510161034791612f01565b9060c051608051602001526080519081830391015260a0519061036991612f01565b97608051606001526080516080015260805160a0015260805160c00160ff82169061039391612e9d565b8060081c60ff16151560805160e001528060101c60ff161515608051610100015260181c60ff16151560805161012001526080516101400152600160a01b600190038116608051610160015260a01c60ff16151560805161018001526080516101a001526080516101c00152608051808203906101e0015261041491612f01565b9360e05160805161020001526080516102200152608051610240015260805161026001526080516102800152610100516080516102a0015260805180910390f35b80fd5b50503461022e578160031936011261022e576020906002549051908152f35b9050346106db57816003193601126106db5780356001600160401b0381116106d7576104a69036908301612dde565b6104ae612e8e565b84546001600160a01b03906104c69082163314613006565b60ff610509865185516104f960209483868095818c01956104e8818389612e6b565b810160068152030190205416613159565b8851809381928951928391612e6b565b8101600581520301902091600683019560ff875416818110156106c4579060028261053a60038d9796951415613337565b14806106b7575b6105c6575b5050855461ffff191684151560081b61ff001617600317909555507f175b08e6ee8bbceb85780e790adca99ec4fbd3bb124ffbf50bd35ed4375a69ac93506105b69061059d905b83156105bc57600c015493613139565b9451911515825260208201929092529081906040820190565b0390a280f35b600d015493613139565b9181859361062893600884979801541687600a87015493828252600b86528d82206105f286825461319d565b905560015416928d519687958694859363a9059cbb60e01b8552840160209093929193604081019460018060a01b031681520152565b03925af19283156106ad577f175b08e6ee8bbceb85780e790adca99ec4fbd3bb124ffbf50bd35ed4375a69ac9761067361059d9561058d9489946105b69992610680575b50506132f6565b9750829450899350610546565b61069f9250803d106106a6575b6106978183612da7565b810190613062565b388061066c565b503d61068d565b88513d86823e3d90fd5b50600a8501541515610541565b634e487b7160e01b8a526021825260248afd5b8380fd5b8280fd5b50503461022e57602036600319011261022e5760209181906001600160a01b03610707612e39565b168152600a845220549051908152f35b50503461022e578160031936011261022e576020905160968152f35b50503461022e578160031936011261022e5760209051620f42408152f35b828434610455576107d88260209261077f61076b36612ec0565b959081855193828580945193849201612e6b565b6007908201908152030190206001600160a01b039485168252602090815291902080546001820154600290920154955190815291820152918316604083015260a09290921c60ff16151560608201529081906080820190565b0390f35b83833461022e57602036600319011261022e5782356001600160401b0381116106db5760206108116108239236908701612dde565b81845193828580945193849201612e6b565b60059082019081520301902060098101549283156108f557607884018085116108e257905b60ff60068401541690868210156108cf5760ff866107d887600286148789826108c4575b600881015495610883600b600a8401549301612f60565b94805198899860018060a01b0381168a5260a01c161515602089015287015260608601526080850152151560a084015260e060c084015260e0830190612f01565b91508042119161086c565b634e487b7160e01b815260218752602490fd5b634e487b7160e01b825260118652602482fd5b80610848565b50503461022e578160031936011261022e57602090516127108152f35b828434610455576020366003190112610455578235906001600160401b03821161045557506020926109668461095461097f9436908501612dde565b81865193828580945193849201612e6b565b8101600581520301902090600382015491015490613519565b9051908152f35b919050346106db57602091826003193601126106d75780356001600160401b038111610b77576109b99036908301612dde565b9160018060a01b03938486541633148015610b63575b15610b3157610a038183516109f360ff8851928481818c01956104e8818389612e6b565b8451809381928951928391612e6b565b8101600581520301902092600684019360ff85541682811015610b1e5780610a3060036002931415613337565b1480610b11575b610a7c575b845462ff00ff19166201000317855587610a5587613139565b7f1e9a51575531367c4323c60efe8c5b980af66cd0509c86d8f4e1a3d9c90017008280a280f35b9582918789600a846008610add999c01541692015493828252600b86528a8220610aa786825461319d565b905560015416928a519788958694859363a9059cbb60e01b8552840160209093929193604081019460018060a01b031681520152565b03925af1948515610b08575093610aff91610a559587926106805750506132f6565b38808080610a3c565b513d87823e3d90fd5b50600a8101541515610a37565b634e487b7160e01b895260218352602489fd5b905162461bcd60e51b815291820152600e60248201526d139bdd08185d5d1a1bdc9a5e995960921b6044820152606490fd5b50338652600d815260ff82872054166109cf565b8480fd5b83833461022e578160031936011261022e5781546001600160a01b03908116610ba5338214613006565b600c54908115610c6357600c859055600154845163a9059cbb60e01b81526001600160a01b039092169682019687526020878101849052959694959194859185169082908990829060400103925af1918215610c5957610c306020937fb19117f167b3ce8ba8e4f902dba7563f7fed1338a47804cc7dfaeee885968cba958891610c3c575b506133f1565b8554169351908152a280f35b610c539150853d81116106a6576106978183612da7565b88610c2a565b84513d87823e3d90fd5b835162461bcd60e51b8152602081880152600a6024820152694e6f2062616c616e636560b01b6044820152606490fd5b919050346106db576020806003193601126106d75782356001600160401b038111610b7757610cc59036908501612dde565b825193815194610cf584840196610cdd81848a612e6b565b820160068152828660ff948593030190205416613159565b845184818551610d0681838c612e6b565b810160058152030190206006810154828116848110156110735760030361103d57828160101c16600014610f5a575050610dcb90855185818651610d4b81838d612e6b565b810160078152030190203389528552858820548651868180610d718c8a51928391612e6b565b81016008815203019020338a528652610dc6878a205492610d9d888b8b51809381928c51928391612e6b565b81016007815203019020338c5288528060028a8d20015460a01c16159081610f22575b50613376565b61303f565b94845184818551610ddd818387612e6b565b81016007815203019020338852845260028588200190610e1c85600160a01b9260ff60a01b199484868254161790558851809381928951928391612e6b565b810160088152030190203389528552600286892001918254161790555b8415610eec57600154845163a9059cbb60e01b8152339281019283526020830187905291849183918290036040019082908a906001600160a01b03165af1908115610ee25791610eb5610eba927f6e5596fe4f25c687a26b2421b8816d678eb3615ab1a5a91fb9cb43ed8b92751d95948991610ec557506133f1565b613139565b92519384523393a380f35b610edc9150853d87116106a6576106978183612da7565b38610c2a565b84513d88823e3d90fd5b835162461bcd60e51b8152908101839052601060248201526f4e6f7468696e6720746f20636c61696d60801b6044820152606490fd5b9050610f39888b8b51809381928c51928391612e6b565b81016008815203019020338c5288526002898c20015460a01c161538610dc0565b91969091859060081c881615610ff657610f7e918751809381928851928391612e6b565b810160078152030190203388528452610fe0858820916010610fd760016002860195610fb187549c8d60a01c1615613376565b0154610fbe8115156133b4565b610fd1600c850154600d8601549061303f565b906131aa565b91015490613119565b60ff60a01b19909616600160a01b179055610e39565b61100a918751809381928851928391612e6b565b810160088152030190203388528452610fe0858820916011610fd760016002860195610fb187549c8d60a01c1615613376565b865162461bcd60e51b8152808501879052601060248201526f139bdd081c995cdbdb1d9959081e595d60821b6044820152606490fd5b634e487b7160e01b8a526021855260248afd5b9050346106db57826003193601126106db5760209250549051908152f35b9050346106db5760a03660031901126106db576001600160401b03908035828111610b77576110d69036908301612dde565b9060248035848111611577576110ef9036908401612dde565b9385519484519060ff6020978881818a019561110c818389612e6b565b81016006815203019020541661153d576044359283151580611532575b156114f057606435156114b7579089929161118889868c8a60019860018060a01b038a541692518096819582946323b872dd60e01b845230903390850160409194939294606082019560018060a01b0380921683521660208201520152565b03925af180156114ad576111a3918d91611490575b5061307a565b895189818a516111b4818389612e6b565b8101600581520301902095885182811161147e576111dc816111d68a54612f26565b8a6130d4565b808b8e6001601f84111461141d5791611412575b50600019600383901b1c191690861b1787555b86850180546001600160a01b03191633179055825191821161140157506002860191611239826112338554612f26565b856130d4565b89908c601f841160011461136d5794600f9c9a9794848d9b98956112fb957fff36ff50e65334f5ea64776f95ec82ce2fbd32a145dd5258689e2027c1c61b3a9f9561134b9d9a92611362575b5050600019600383901b1c191690861b1790555b4260038701556084359687156113595787905b8701556112bb6064354261303f565b9560058101968755600681019560ff1996878154169055851c9d818f600c8194015582600d82015582600e82015501558a51809381928a51928391612e6b565b8101600681520301902091825416179055549061131783613139565b908651928352858301527fccdee9db8c345dd53026f5dedbf3e8b723ceddd2ad8eeb96b00ce37fddd58b64863393a3613139565b93825191818352820152a280f35b606435906112ac565b015190503880611285565b8490528a8d209190601f1984168e5b8181106113ec5750948785600f9f9d9a97957fff36ff50e65334f5ea64776f95ec82ce2fbd32a145dd5258689e2027c1c61b3a9f9d9a979561134b9d9a958f976112fb99106113d3575b505050811b019055611299565b015160001960f88460031b161c191690553880806113c6565b82840151855593880193928d01928d0161137c565b634e487b7160e01b8c52604188528bfd5b90508a0151386111f0565b8a81528d81208994509190601f198416908f8f5b83831061146757505050831161144e575b5050811b018755611203565b8c015160001960f88460031b161c191690553880611442565b84015185558b969094019392830192018f8f611431565b50634e487b7160e01b8c52604188528bfd5b6114a791508b3d8d116106a6576106978183612da7565b3861119d565b8b513d8e823e3d90fd5b885162461bcd60e51b81528087018990526014818701527304475726174696f6e206d757374206265203e20360641b6044820152606490fd5b885162461bcd60e51b81528087018990526019818701527f53656564206d757374206265203e203020616e64206576656e000000000000006044820152606490fd5b506001841615611129565b875162461bcd60e51b8152808601889052601581860152744d61726b657420616c72656164792065786973747360581b6044820152606490fd5b8680fd5b828434610455576107d88260209261159561076b36612ec0565b6008908201908152030190206001600160a01b039485168252602090815291902080546001820154600290920154955190815291820152918316604083015260a09290921c60ff16151560608201529081906080820190565b828434610455576020366003190112610455578235906001600160401b038211610455575060206108116101009461162893369101612dde565b810160058152030190209060018060a01b0360018301541691600581015491600682015460ff600c8401549161167c600d8601549460116010880154970154978151998a5260208a01528801838316612e9d565b60081c1615156060860152608085015260a084015260c083015260e0820152f35b8284346104555760603660031901126104555782356001600160401b03811161022e576116cd9036908501612dde565b906116d6612e8e565b604435906116f36020849581885193828580945193849201612e6b565b8101600581520301902091611f40908181029181830414901517156117d85761271090049061173361172d60038501548986015490613519565b836131aa565b670de0b6b3a7640000908181029181830414901517156117c55761176d96975060649004958692610dc6600c860154600d8701549061303f565b9350156117b257601061178192015461303f565b905b81611797575b505082519182526020820152f35b6117ab92506117a690846131aa565b613119565b8380611789565b60116117bf92015461303f565b90611783565b634e487b7160e01b855260118852602485fd5b634e487b7160e01b845260118752602484fd5b9050346106db57826003193601126106db573383526020600a81526118628184862054809461181b82151561342f565b33808952600a8452878920899055600154885163a9059cbb60e01b81529283019182526020820193909352909384926001600160a01b03169183918a918391604090910190565b03925af1908115610c59577fcc711f8a20ec7d3fdb3e44b107921ba1576ec61982d382a8b38059fd463b114e9394916118a19187916118ab57506133f1565b519283523392a280f35b610edc9150843d86116106a6576106978183612da7565b50503461022e578160031936011261022e57602090516101f48152f35b50503461022e57602036600319011261022e5760209181906001600160a01b03611907612e39565b1681526009845220549051908152f35b828434610455576020366003190112610455578235906001600160401b038211610455575061194e60209361097f92369101612dde565b61327e565b9050346106db5760803660031901126106db5780356001600160401b0381116106d7576119839036908301612dde565b9061198c612e8e565b926001600160a01b0392606435848116929160443591849003611eb35782519581516119c760ff6020998a81818801956104e8818389612e6b565b8451888185516119d8818387612e6b565b810160058152030190209160ff60068401541688811015611ea057611e5d576005830154421015611e29578415611df15760015486516323b872dd60e01b815233818b01908152306020820152604081018890528d928c91839186169082908690829060600103925af1908115611de75792611aec8b8a858f8e90611a6b611aec98611af19b8e9b91611dd0575061307a565b8d6127109788611a7d600354846131aa565b0498841515928380611dc6575b15611da75790611aac60019282611aa3600254836131aa565b049a54906131aa565b049b5b611abb89600c5461303f565b600c550154168452600a8252848420611ad589825461303f565b905580611d9d575b611d7e575b505050508961319d565b61319d565b90611b0460038401548985015490613519565b97611b0f89846131aa565b90670de0b6b3a764000091828102928184041490151715611d6b575092869594928c8b8d99946064611c399804809b600014611c8c5791611bf2816002959389958b8360109c51809251611b64818388612e6b565b8101600781520301902033875283528686205415611c7a575b8b838851809251611b8f818388612e6b565b810160078152030190203387528352868620611bac8a825461303f565b90558b838851809251611bc0818388612e6b565b810160078152030190203387528352611be060018888200191825461303f565b90558551809381928d51928391612e6b565b8101600781520301902090338352522001896001600160601b0360a01b825416179055611c24600c830191825461303f565b905501611c3286825461303f565b9055613139565b9582519715158852870152850152606084015260808301527fa994696d1a657073ceaa15fbacd649938053ce8bee7de30ec1c28d337cc37b2360a03393a380f35b611c873360128c016131bd565b611b7d565b91611d27816002959389958b8360119c51809251611cab818388612e6b565b8101600881520301902033875283528686205415611d59575b8b838851809251611cd6818388612e6b565b810160088152030190203387528352868620611cf38a825461303f565b90558b838851809251611d07818388612e6b565b810160088152030190203387528352611be060018888200191825461303f565b8101600881520301902090338352522001896001600160601b0360a01b825416179055611c24600d830191825461303f565b611d663360138c016131bd565b611cc4565b634e487b7160e01b8d526011905260248cfd5b60099183525220611d9086825461303f565b90558f8b908f8e90611ae2565b5033821415611add565b610fd1611dbb92939960025490549061303f565b04956001859b611aaf565b5033861415611a8a565b6114a79150833d85116106a6576106978183612da7565b88513d84823e3d90fd5b855162461bcd60e51b81528089018a905260126024820152710416d6f756e74206d757374206265203e20360741b6044820152606490fd5b855162461bcd60e51b81528089018a9052600e60248201526d10995d1d1a5b99c818db1bdcd95960921b6044820152606490fd5b855162461bcd60e51b81528089018a9052601960248201527f4d61726b6574206e6f7420616363657074696e672062657473000000000000006044820152606490fd5b634e487b7160e01b8c526021895260248cfd5b8780fd5b83833461022e57606036600319011261022e576001600160401b039083358281116106d757611ee99036908601612dde565b611ef1612e8e565b916044358481116122315790611f0e60ff94939236908901612dde565b94611f3f82518451611f2f602098838a8095818b01956104e8818389612e6b565b8451809381928851928391612e6b565b8101600581520301902090600682019060ff8254168a81101561221e578015908115612213575b50156121dc5789611f768661321a565b93611fc589868d60019560018060a01b03875416918b518096819582946323b872dd60e01b845230903390850160409194939294606082019560018060a01b0380921683521660208201520152565b03925af19081156121d2578c916121b5575b501561217b576008810180546001600160a81b0319163360ff60a01b19161798151560a081901b60ff60a01b16999099179055426009820155600a81018590558951600b90910192811161216857612033816112338554612f26565b88601f82116001146120fe57819282918d936120f3575b501b916000199060031b1c19161790555b600260ff19825416179055338752600b855281872061207b82825461303f565b905560784201928342116120e057906120b77f5247f2366f7e70fc0b5fc61f486408d977047c08d356ffb76c3d35832ceeaf2695949392613139565b95825194855284015282015260806060820152806120da33956080830190612f01565b0390a380f35b634e487b7160e01b885260118952602488fd5b8c015192508e61204a565b8b9082601f1981168684528d8d8781872096925b84841061214857505050501061212f575b5050811b01905561205b565b8b015160001960f88460031b161c191690558c80612123565b82949550958097919293960151815501940192019084918d8f8890612112565b634e487b7160e01b8b5260418c5260248bfd5b855162461bcd60e51b8152808d018a90526014602482015273109bdb99081d1c985b9cd9995c8819985a5b195960621b6044820152606490fd5b6121cc91508a3d8c116106a6576106978183612da7565b8d611fd7565b87513d8e823e3d90fd5b835162461bcd60e51b8152808b0188905260116024820152704d61726b6574206e6f742061637469766560781b6044820152606490fd5b60019150148b611f66565b634e487b7160e01b8a5260218b5260248afd5b8580fd5b9050346106db5760203660031901126106db57612250612e39565b835491906001600160a01b039061226a3383861614613006565b169283156122845750506001600160a01b03191617815580f35b906020606492519162461bcd60e51b8352820152600f60248201526e496e76616c6964206164647265737360881b6044820152fd5b50503461022e578160031936011261022e57602090600c549051908152f35b50503461022e578160031936011261022e5760209051670de0b6b3a76400008152f35b50503461022e578060031936011261022e577f966c160e1c4dbc7df8d69af4ace01e9297c3cf016397b7914971f2fbfa32672d6020612338612e39565b612340612e8e565b855490916001600160a01b039161235a9083163314613006565b1693848652600d83528086209115159160ff1981541660ff841617905551908152a280f35b9050346106db5760603660031901126106db578035906001600160401b0382116106d7576123af91369101612dde565b602435906001600160a01b03821682036106d7576044359384151585036104555750926123df916107d894613468565b935192835260208301919091526001600160a01b0316604082015290151560608201529081906080820190565b828434610455576020366003190112610455578235906001600160401b03821161045557506124586020612446819560ff94369101612dde565b81855193828580945193849201612e6b565b81016006815203019020541690519015158152f35b612e4f565b50503461022e57602036600319011261022e5760209181906001600160a01b0361249a612e39565b168152600b845220549051908152f35b9050346106db5760603660031901126106db57803560243590604435936124db60018060a01b038754163314613006565b610bb86124ec86610dc6868661303f565b116124fc57506002556003555580f35b5162461bcd60e51b815260208185015260136024820152720a8dee8c2d840cccacae640e8dede40d0d2ced606b1b6044820152606490fd5b83833461022e57602092836003193601126106db5780356001600160401b0381116106d7576125669036908301612dde565b9061259685845161258660ff8651928481818a01956104e8818389612e6b565b8551809381928751928391612e6b565b8101600581520301902090600682019060ff825416818110156128595760026125bf91146132b5565b6009830154607881018091116128465742111561280b576008830160018060a01b03908181541692600a860154848a52600b8b52888a2061260182825461319d565b9055600154895163a9059cbb60e01b8082526001600160a01b03881685830190815260208101949094529290918d91839188169082908f90829060400103925af1908115612801579061265b918c916127e4575b506132f6565b6126648861327e565b93841515806127d8575b612719575b5050509261059d9260ff927fe2b1d963f1ec20d10d097a5196a0a9e7b5ff982020b428f20918fe52a2234edf7f175b08e6ee8bbceb85780e790adca99ec4fbd3bb124ffbf50bd35ed4375a69ac999a9b6126f3866105b699600382198954161788555460a01c16869061ff00825491151560081b169061ff001916179055565b6126fc8a613139565b928c51908152a35460081c169283156105bc57600c015493613139565b8b9061272786600c5461319d565b600c556001548b519384526001600160a01b038816858501908152602081018890528492908390036040019183918f91165af19081156127ce578a916127b1575b5015612775578080612673565b875162461bcd60e51b81529081018a9052601660248201527514995dd85c99081d1c985b9cd9995c8819985a5b195960521b6044820152606490fd5b6127c891508b3d8d116106a6576106978183612da7565b8b612768565b89513d8c823e3d90fd5b5084600c54101561266e565b6127fb91508d803d106106a6576106978183612da7565b8d612655565b8a513d8d823e3d90fd5b845162461bcd60e51b81529081018790526015602482015274446973707574652077696e646f772061637469766560581b6044820152606490fd5b634e487b7160e01b875260118252602487fd5b634e487b7160e01b875260218252602487fd5b50503461022e578160031936011261022e576020906003549051908152f35b50503461022e57602036600319011261022e5760209160ff9082906001600160a01b036128b6612e39565b168152600d855220541690519015158152f35b50503461022e578160031936011261022e5760015490516001600160a01b039091168152602090f35b919050346106db57806003193601126106db576001600160401b038235818111610b77576129239036908501612dde565b90602435908111610b775761293b9036908501612dde565b9060ff61296e8451835161295e60209483868095818a01956104e8818389612e6b565b8651809381928751928391612e6b565b8101600581520301902091600683019260ff84541687811015612b6657600261299791146132b5565b6009810196875460788101809111612b53574211612b1857508060088492019289600160a01b600190038554169981600a8501918254978d8352600b88528c8320898154906129e59161319d565b905588600c54906129f59161303f565b600c556affffffffffffffffffffff60a81b81541690555555600b8201958a8754612a1f90612f26565b93601f85117f6648615d8f7a0cdfc8ca335d9cf7913b00a0fcd7f3ef458eb9494c4295163eb899612ab697612aa097600595600094612af9575b505050550154421015612abc57805460ff19169055612a7781613139565b7f9efb756fb135fc86dcb75439e9c2572aa1aec5d0f919bc025b232fb843bf379c8b80a2613139565b9486805194859485528401523396830190612f01565b0390a480f35b805460ff19166001179055612ad081613139565b7fc21481f47a1a989c413cfd9ed3ee7bcae2d7f8fb598d83bf7b0851bf452e44658b80a2613139565b612b10928185601f9352209101861c8101906130bd565b898f80612a59565b865162461bcd60e51b81529081018490526015602482015274111a5cdc1d5d19481dda5b991bddc818db1bdcd959605a1b6044820152606490fd5b634e487b7160e01b8a526011825260248afd5b634e487b7160e01b895260218852602489fd5b828434610455576020366003190112610455578235906001600160401b0382116104555750612bb060209361097f92369101612dde565b61321a565b8391503461022e57602092836003193601126106db5781356001600160401b0381116106d757612be89036908401612dde565b91612c08858351611f2f60ff8751928481818b01956104e8818389612e6b565b8101600581520301902094600686019283549660ff881684811015612cde57612caa57600501544210612c72575050506001612c4b939460ff1916179055613139565b7fc21481f47a1a989c413cfd9ed3ee7bcae2d7f8fb598d83bf7b0851bf452e44658280a280f35b5162461bcd60e51b8152918201526014602482015273111958591b1a5b99481b9bdd081c995858da195960621b604482015260649150fd5b505162461bcd60e51b815291820152600f60248201526e26b0b935b2ba103737ba1037b832b760891b604482015260649150fd5b634e487b7160e01b885260218552602488fd5b9050346106db57826003193601126106db57338352602060098152612d6881848620548094612d2182151561342f565b3380895260098452878920899055600154885163a9059cbb60e01b81529283019182526020820193909352909384926001600160a01b03169183918a918391604090910190565b03925af1908115610c59577f5be4d22009fea85381595ed91090bc5c0bc92a93fe07ed7472c5888eb1993f839394916118a19187916118ab57506133f1565b90601f801991011681019081106001600160401b03821117612dc857604052565b634e487b7160e01b600052604160045260246000fd5b81601f82011215612e34578035906001600160401b038211612dc85760405192612e12601f8401601f191660200185612da7565b82845260208383010111612e3457816000926020809301838601378301015290565b600080fd5b600435906001600160a01b0382168203612e3457565b34612e34576000366003190112612e3457602060405160648152f35b60005b838110612e7e5750506000910152565b8181015183820152602001612e6e565b602435908115158203612e3457565b906004821015612eaa5752565b634e487b7160e01b600052602160045260246000fd5b6040600319820112612e3457600435906001600160401b038211612e3457612eea91600401612dde565b906024356001600160a01b0381168103612e345790565b90602091612f1a81518092818552858086019101612e6b565b601f01601f1916010190565b90600182811c92168015612f56575b6020831014612f4057565b634e487b7160e01b600052602260045260246000fd5b91607f1691612f35565b9060405191826000825492612f7484612f26565b908184526001948581169081600014612fe35750600114612fa0575b5050612f9e92500383612da7565b565b9093915060005260209081600020936000915b818310612fcb575050612f9e93508201013880612f90565b85548884018501529485019487945091830191612fb3565b915050612f9e94506020925060ff191682840152151560051b8201013880612f90565b1561300d57565b60405162461bcd60e51b815260206004820152600a60248201526927b7363c9030b236b4b760b11b6044820152606490fd5b9190820180921161304c57565b634e487b7160e01b600052601160045260246000fd5b90816020910312612e3457518015158103612e345790565b1561308157565b60405162461bcd60e51b81526020600482015260146024820152731554d110c81d1c985b9cd9995c8819985a5b195960621b6044820152606490fd5b8181106130c8575050565b600081556001016130bd565b9190601f81116130e357505050565b612f9e926000526020600020906020601f840160051c8301931061310f575b601f0160051c01906130bd565b9091508190613102565b8115613123570490565b634e487b7160e01b600052601260045260246000fd5b61315190602060405192828480945193849201612e6b565b810103902090565b1561316057565b60405162461bcd60e51b815260206004820152601560248201527413585c9ad95d08191bd95cc81b9bdd08195e1a5cdd605a1b6044820152606490fd5b9190820391821161304c57565b8181029291811591840414171561304c57565b80549068010000000000000000821015612dc85760018201808255821015613204576000526020600020019060018060a01b03166001600160601b0360a01b825416179055565b634e487b7160e01b600052603260045260246000fd5b6132366020613250928160405193828580945193849201612e6b565b81016005815203019020600d600c8201549101549061303f565b6101f49081810291818304149015171561304c576127109004620f424080821115613279575090565b905090565b613236602061329a928160405193828580945193849201612e6b565b60648102908082046064149015171561304c57612710900490565b156132bc57565b60405162461bcd60e51b8152602060048201526012602482015271139bc81858dd1a5d99481c1c9bdc1bdcd85b60721b6044820152606490fd5b156132fd57565b60405162461bcd60e51b8152602060048201526012602482015271109bdb99081c995d1d5c9b8819985a5b195960721b6044820152606490fd5b1561333e57565b60405162461bcd60e51b815260206004820152601060248201526f105b1c9958591e481c995cdbdb1d995960821b6044820152606490fd5b1561337d57565b60405162461bcd60e51b815260206004820152600f60248201526e105b1c9958591e4818db185a5b5959608a1b6044820152606490fd5b156133bb57565b60405162461bcd60e51b815260206004820152600e60248201526d139bc81dda5b9b9a5b99c818995d60921b6044820152606490fd5b156133f857565b60405162461bcd60e51b815260206004820152600f60248201526e151c985b9cd9995c8819985a5b1959608a1b6044820152606490fd5b1561343657565b60405162461bcd60e51b815260206004820152600a6024820152694e6f207265776172647360b01b6044820152606490fd5b9091156134c4576020613488918160405193828580945193849201612e6b565b8101600781520301902060018060a01b0380921660005260205260406000209182549060ff6002600186015495015492949383169260a01c1690565b60206134dd918160405193828580945193849201612e6b565b8101600881520301902060018060a01b0380921660005260205260406000209182549060ff6002600186015495015492949383169260a01c1690565b613523904261319d565b9080821015613551578160320291603283040361304c5761354391613119565b6096036096811161304c5790565b505060649056fea26469706673582212201726e16a2ac5dd08171ae076bc432c2fc835a2da02ac926b6febf94bf6c9c6e764736f6c63430008140033",
  "linkReferences": {},
  "deployedLinkReferences": {}
}