{
  "_format": "hh-sol-artifact-1",
  "contractName": "PredictionBattleV4",
  "sourceName": "contracts/PredictionBattleV4.sol",
  "abi": [
    {
      "inputs": [
        {
          "internalType": "address",
          "name": "_usdcAddress",
          "type": "address"
        }
      ],
      "stateMutability": "nonpayable",
      "type": "constructor"
    },
    {
      "anonymous": false,
      "inputs": [
        {
          "indexed": false,
          "internalType": "string",
          "name": "id",
          "type": "string"
        },
        {
          "indexed": false,
          "internalType": "address",
          "name": "user",
          "type": "address"
        },
        {
          "indexed": false,
          "internalType": "bool",
          "name": "vote",
          "type": "bool"
        },
        {
          "indexed": false,
          "internalType": "uint256",
          "name": "amount",
          "type": "uint256"
        },
        {
          "indexed": false,
          "internalType": "address",
          "name": "referrer",
          "type": "address"
        }
      ],
      "name": "BetPlaced",
      "type": "event"
    },
    {
      "anonymous": false,
      "inputs": [
        {
          "indexed": false,
          "internalType": "string",
          "name": "id",
          "type": "string"
        }
      ],
      "name": "DistributionCompleted",
      "type": "event"
    },
    {
      "anonymous": false,
      "inputs": [
        {
          "indexed": false,
          "internalType": "address",
          "name": "operator",
          "type": "address"
        },
        {
          "indexed": false,
          "internalType": "bool",
          "name": "status",
          "type": "bool"
        }
      ],
      "name": "OperatorUpdated",
      "type": "event"
    },
    {
      "anonymous": false,
      "inputs": [
        {
          "indexed": false,
          "internalType": "string",
          "name": "id",
          "type": "string"
        },
        {
          "indexed": false,
          "internalType": "address",
          "name": "user",
          "type": "address"
        },
        {
          "indexed": false,
          "internalType": "uint256",
          "name": "amount",
          "type": "uint256"
        }
      ],
      "name": "PayoutDistributed",
      "type": "event"
    },
    {
      "anonymous": false,
      "inputs": [
        {
          "indexed": false,
          "internalType": "string",
          "name": "id",
          "type": "string"
        },
        {
          "indexed": false,
          "internalType": "uint256",
          "name": "target",
          "type": "uint256"
        },
        {
          "indexed": false,
          "internalType": "uint256",
          "name": "deadline",
          "type": "uint256"
        },
        {
          "indexed": false,
          "internalType": "address",
          "name": "creator",
          "type": "address"
        }
      ],
      "name": "PredictionCreated",
      "type": "event"
    },
    {
      "anonymous": false,
      "inputs": [
        {
          "indexed": false,
          "internalType": "string",
          "name": "id",
          "type": "string"
        },
        {
          "indexed": false,
          "internalType": "bool",
          "name": "result",
          "type": "bool"
        },
        {
          "indexed": false,
          "internalType": "uint256",
          "name": "winnerPool",
          "type": "uint256"
        },
        {
          "indexed": false,
          "internalType": "uint256",
          "name": "totalFees",
          "type": "uint256"
        }
      ],
      "name": "PredictionResolved",
      "type": "event"
    },
    {
      "anonymous": false,
      "inputs": [
        {
          "indexed": false,
          "internalType": "string",
          "name": "id",
          "type": "string"
        },
        {
          "indexed": false,
          "internalType": "uint256",
          "name": "totalPool",
          "type": "uint256"
        },
        {
          "indexed": false,
          "internalType": "uint256",
          "name": "platformFee",
          "type": "uint256"
        }
      ],
      "name": "PredictionVoided",
      "type": "event"
    },
    {
      "anonymous": false,
      "inputs": [
        {
          "indexed": false,
          "internalType": "string",
          "name": "id",
          "type": "string"
        },
        {
          "indexed": false,
          "internalType": "address",
          "name": "referrer",
          "type": "address"
        },
        {
          "indexed": false,
          "internalType": "uint256",
          "name": "amount",
          "type": "uint256"
        }
      ],
      "name": "ReferralPaid",
      "type": "event"
    },
    {
      "anonymous": false,
      "inputs": [
        {
          "indexed": false,
          "internalType": "string",
          "name": "id",
          "type": "string"
        },
        {
          "indexed": false,
          "internalType": "uint256",
          "name": "yesAmount",
          "type": "uint256"
        },
        {
          "indexed": false,
          "internalType": "uint256",
          "name": "noAmount",
          "type": "uint256"
        }
      ],
      "name": "SeedAdded",
      "type": "event"
    },
    {
      "inputs": [],
      "name": "admin",
      "outputs": [
        {
          "internalType": "address",
          "name": "",
          "type": "address"
        }
      ],
      "stateMutability": "view",
      "type": "function"
    },
    {
      "inputs": [
        {
          "internalType": "string",
          "name": "_id",
          "type": "string"
        },
        {
          "internalType": "uint256",
          "name": "_target",
          "type": "uint256"
        },
        {
          "internalType": "uint256",
          "name": "_duration",
          "type": "uint256"
        },
        {
          "internalType": "uint256",
          "name": "_seedAmount",
          "type": "uint256"
        }
      ],
      "name": "createPrediction",
      "outputs": [],
      "stateMutability": "nonpayable",
      "type": "function"
    },
    {
      "inputs": [],
      "name": "creatorFeeBps",
      "outputs": [
        {
          "internalType": "uint256",
          "name": "",
          "type": "uint256"
        }
      ],
      "stateMutability": "view",
      "type": "function"
    },
    {
      "inputs": [
        {
          "internalType": "string",
          "name": "_id",
          "type": "string"
        },
        {
          "internalType": "uint256",
          "name": "_batchSize",
          "type": "uint256"
        }
      ],
      "name": "distributeWinnings",
      "outputs": [],
      "stateMutability": "nonpayable",
      "type": "function"
    },
    {
      "inputs": [
        {
          "internalType": "string",
          "name": "_id",
          "type": "string"
        },
        {
          "internalType": "address",
          "name": "_referrer",
          "type": "address"
        }
      ],
      "name": "getReferralInfo",
      "outputs": [
        {
          "internalType": "uint256",
          "name": "referredAmount",
          "type": "uint256"
        },
        {
          "internalType": "uint256",
          "name": "totalReferred",
          "type": "uint256"
        }
      ],
      "stateMutability": "view",
      "type": "function"
    },
    {
      "inputs": [
        {
          "internalType": "string",
          "name": "_id",
          "type": "string"
        }
      ],
      "name": "getReferrerCount",
      "outputs": [
        {
          "internalType": "uint256",
          "name": "",
          "type": "uint256"
        }
      ],
      "stateMutability": "view",
      "type": "function"
    },
    {
      "inputs": [
        {
          "internalType": "address",
          "name": "",
          "type": "address"
        }
      ],
      "name": "operators",
      "outputs": [
        {
          "internalType": "bool",
          "name": "",
          "type": "bool"
        }
      ],
      "stateMutability": "view",
      "type": "function"
    },
    {
      "inputs": [
        {
          "internalType": "string",
          "name": "_id",
          "type": "string"
        },
        {
          "internalType": "bool",
          "name": "_vote",
          "type": "bool"
        },
        {
          "internalType": "uint256",
          "name": "_amount",
          "type": "uint256"
        },
        {
          "internalType": "address",
          "name": "_referrer",
          "type": "address"
        }
      ],
      "name": "placeBet",
      "outputs": [],
      "stateMutability": "nonpayable",
      "type": "function"
    },
    {
      "inputs": [],
      "name": "platformFeeBps",
      "outputs": [
        {
          "internalType": "uint256",
          "name": "",
          "type": "uint256"
        }
      ],
      "stateMutability": "view",
      "type": "function"
    },
    {
      "inputs": [
        {
          "internalType": "string",
          "name": "",
          "type": "string"
        }
      ],
      "name": "predictionExists",
      "outputs": [
        {
          "internalType": "bool",
          "name": "",
          "type": "bool"
        }
      ],
      "stateMutability": "view",
      "type": "function"
    },
    {
      "inputs": [
        {
          "internalType": "string",
          "name": "",
          "type": "string"
        }
      ],
      "name": "predictions",
      "outputs": [
        {
          "internalType": "string",
          "name": "id",
          "type": "string"
        },
        {
          "internalType": "uint256",
          "name": "target",
          "type": "uint256"
        },
        {
          "internalType": "uint256",
          "name": "deadline",
          "type": "uint256"
        },
        {
          "internalType": "bool",
          "name": "resolved",
          "type": "bool"
        },
        {
          "internalType": "bool",
          "name": "result",
          "type": "bool"
        },
        {
          "internalType": "uint256",
          "name": "totalYes",
          "type": "uint256"
        },
        {
          "internalType": "uint256",
          "name": "totalNo",
          "type": "uint256"
        },
        {
          "internalType": "bool",
          "name": "isVoid",
          "type": "bool"
        },
        {
          "internalType": "uint256",
          "name": "processedIndex",
          "type": "uint256"
        },
        {
          "internalType": "bool",
          "name": "paidOut",
          "type": "bool"
        },
        {
          "internalType": "address",
          "name": "creator",
          "type": "address"
        },
        {
          "internalType": "uint256",
          "name": "seedYes",
          "type": "uint256"
        },
        {
          "internalType": "uint256",
          "name": "seedNo",
          "type": "uint256"
        }
      ],
      "stateMutability": "view",
      "type": "function"
    },
    {
      "inputs": [],
      "name": "referralShareBps",
      "outputs": [
        {
          "internalType": "uint256",
          "name": "",
          "type": "uint256"
        }
      ],
      "stateMutability": "view",
      "type": "function"
    },
    {
      "inputs": [
        {
          "internalType": "string",
          "name": "_id",
          "type": "string"
        },
        {
          "internalType": "bool",
          "name": "_result",
          "type": "bool"
        }
      ],
      "name": "resolvePrediction",
      "outputs": [],
      "stateMutability": "nonpayable",
      "type": "function"
    },
    {
      "inputs": [
        {
          "internalType": "string",
          "name": "_id",
          "type": "string"
        }
      ],
      "name": "resolveVoid",
      "outputs": [],
      "stateMutability": "nonpayable",
      "type": "function"
    },
    {
      "inputs": [
        {
          "internalType": "string",
          "name": "_id",
          "type": "string"
        },
        {
          "internalType": "uint256",
          "name": "_seedAmount",
          "type": "uint256"
        }
      ],
      "name": "seedPrediction",
      "outputs": [],
      "stateMutability": "nonpayable",
      "type": "function"
    },
    {
      "inputs": [
        {
          "internalType": "address",
          "name": "_newAdmin",
          "type": "address"
        }
      ],
      "name": "setAdmin",
      "outputs": [],
      "stateMutability": "nonpayable",
      "type": "function"
    },
    {
      "inputs": [
        {
          "internalType": "uint256",
          "name": "_platformFeeBps",
          "type": "uint256"
        },
        {
          "internalType": "uint256",
          "name": "_creatorFeeBps",
          "type": "uint256"
        },
        {
          "internalType": "uint256",
          "name": "_referralShareBps",
          "type": "uint256"
        }
      ],
      "name": "setFees",
      "outputs": [],
      "stateMutability": "nonpayable",
      "type": "function"
    },
    {
      "inputs": [
        {
          "internalType": "address",
          "name": "_operator",
          "type": "address"
        },
        {
          "internalType": "bool",
          "name": "_status",
          "type": "bool"
        }
      ],
      "name": "setOperator",
      "outputs": [],
      "stateMutability": "nonpayable",
      "type": "function"
    },
    {
      "inputs": [],
      "name": "usdcToken",
      "outputs": [
        {
          "internalType": "contract IERC20",
          "name": "",
          "type": "address"
        }
      ],
      "stateMutability": "view",
      "type": "function"
    },
    {
      "inputs": [
        {
          "internalType": "uint256",
          "name": "_amount",
          "type": "uint256"
        }
      ],
      "name": "withdrawSurplus",
      "outputs": [],
      "stateMutability": "nonpayable",
      "type": "function"
    }
  ],
  "bytecode": "0x60803461008c57601f6121be38819003918201601f19168301916001600160401b038311848410176100915780849260209460405283398101031261008c57516001600160a01b0381169081900361008c576107d06002556101f46003556109c460045560018060a01b031933816000541617600055600154161760015560405161211690816100a88239f35b600080fd5b634e487b7160e01b600052604160045260246000fdfe608060408181526004918236101561001657600080fd5b600092833560e01c91826311eac855146117795750816313e7c9d81461173b57816317773ebb1461171c57816322dcd13e146116fd5781633cdba4b8146116a057816347c9bc2d14611682578163558a7297146115f85781636409e4061461148c578163704b6c02146114085781637321c829146111375781637b4fd3e314610faf5781637d191e0614610c945781638549502814610c2f578163920d803614610ba7578163964289fc146109ec578163af69bdce146106b8578163b0d1818c14610610578163c4faa8081461023b578163cec10c111461012b575063f851a4401461010157600080fd5b34610127578160031936011261012757905490516001600160a01b039091168152602090f35b5080fd5b905034610237576060366003190112610237578035602435906044359361015c60018060a01b03875416331461190b565b610bb882116101fd576103e883116101c457611388851161018257506002556003555580f35b5162461bcd60e51b8152602081850152601760248201527f526566657272616c20736861726520746f6f20686967680000000000000000006044820152606490fd5b5162461bcd60e51b81526020818501526014602482015273086e4cac2e8dee440cccaca40e8dede40d0d2ced60631b6044820152606490fd5b5162461bcd60e51b815260208185015260156024820152740a0d8c2e8ccdee4da40cccaca40e8dede40d0d2ced605b1b6044820152606490fd5b8280fd5b8383346101275760803660031901126101275767ffffffffffffffff833581811161060c5761026d90369086016117f1565b91602435606435825196855160ff6020998a81818b019461028f818388611889565b8101600681520301902054166105dd57821515806105d2575b6102b190611944565b6001805486516323b872dd60e01b8152338186019081523060208201526040810187905292949290918c9183916001600160a01b03169082908e90829060600103925af19081156105c8579061030e918b9161059b575b506119a8565b85518a818a5161031f818388611889565b810160058152030190209688519081116105885761033d88546118ac565b601f8111610542575b508a601f821160011461048c57936104348c8c9d958c9b9995857fff36ff50e65334f5ea64776f95ec82ce2fbd32a145dd5258689e2027c1c61b3a9f96600e9f9a7f9c5f3f339ea71730c4c68848bc88abfc3b9633c4f5a3d745594dc6417a5050b29b61047b9f9d9992610481575b5050600019600383901b1c191690861b178b555b86858c01556103da604435426119eb565b60028c01908155600c8c018054610100600160a81b0319163360081b610100600160a81b031617905595851c908b0181905560058b01819055600d8b018190559c9099018c905587518b518d9a9193849282908490611889565b810160068152030190209060ff198254161790555491845192839260808452610460608085018b6118e6565b92840152858301523360608301520390a15193849384611a2e565b0390a180f35b01519050388f6103b5565b888b528b8b2090601f1983168c5b81811061052d57509c80958c9b99957fff36ff50e65334f5ea64776f95ec82ce2fbd32a145dd5258689e2027c1c61b3a9e9f9886600e9f966104349661047b9f9d999884997f9c5f3f339ea71730c4c68848bc88abfc3b9633c4f5a3d745594dc6417a5050b29e10610514575b505050811b018b556103c9565b015160001960f88460031b161c19169055388f80610507565b8c830151845592870192918e01918e0161049a565b888b528b8b20601f830160051c8101918d841061057e575b601f0160051c019085905b828110610573575050610346565b8c8155018590610565565b909150819061055a565b634e487b7160e01b8a526041825260248afd5b6105bb91508c8d3d106105c1575b6105b381836117b9565b810190611990565b8c610308565b503d6105a9565b87513d8c823e3d90fd5b5060018316156102a8565b845162461bcd60e51b81528083018a9052600960248201526849442065786973747360b81b6044820152606490fd5b8380fd5b91905034610237576020366003190112610237578254610680926020916001600160a01b039081169061064433831461190b565b600154855163a9059cbb60e01b81526001600160a01b039093168484019081529335602085015291958693919092169183918891839160400190565b03925af19081156106af5750610694575080f35b6106ab9060203d81116105c1576105b381836117b9565b5080f35b513d84823e3d90fd5b905034610237576106c836611857565b909160018060a01b0380865416331480156109d7575b6106e790611afb565b8451928451602094858181890193610700818387611889565b8101600581520301902060ff600382015416156109a55760ff600c8201541661096f57600a015460ff161561095c5784610744918851809381928a51928391611889565b8101600581520301902092610761818501546005860154906119eb565b9261077b61271061077460025487611b77565b0485611b8a565b9161078f60068701546007880154906119eb565b9461079f600b88015495866119eb565b94868611610954575b8b905b86811061081b5750505050505080600b84015510156107cc575b5050505080f35b7f9ec2be866260137327142d7404b7fcc5cc8498409bc29470d3e480b61043185893600c61080f9201600160ff19825416179055519282849384528301906118e6565b0390a1388080806107c5565b8b898b858961082a8685612086565b90946006810154881060001461093f576008908c87168a5201845287868120555b80610868575b5050505050506108619150611b97565b8b906107ab565b9161087a61087f926108ba9594611b77565b611a0e565b600154855163a9059cbb60e01b81526001600160a01b038616818c0190815260208101849052929890948593928d1692849291839160400190565b03925af1801561093257610861958f92948f7f1dbdb822c5640c362e09f214d7cbc87a4c65998f48cbef088e5bb6f7020328399661090394610914575b50505193849384611ba6565b0390a18c91508b388b858983610851565b8161092a92903d106105c1576105b381836117b9565b508f386108f7565b508f8351903d90823e3d90fd5b6009908c87168a52018452878681205561084b565b8695506107a8565b50939250505061096c9250611dc1565b80f35b875162461bcd60e51b8152808601879052601060248201526f105b1c9958591e481c185a59081bdd5d60821b6044820152606490fd5b875162461bcd60e51b8152808601879052600c60248201526b139bdd081c995cdbdb1d995960a21b6044820152606490fd5b5033865260086020528486205460ff166106de565b91905034610237576020918260031936011261060c57803567ffffffffffffffff8111610ba357610a2090369083016117f1565b9060018060a01b03938486541633148015610b8f575b610a3f90611afb565b610b1981610acb610a868287610a7660ff8b518481818651960195610a65818389611889565b810160068152030190205416611a50565b8951809381928b51928391611889565b8101600581520301902060038101805490610aa460ff831615611b38565b600160ff198093161790556001600a830191825416179055600586820154910154906119eb565b93612710610adb60025487611b77565b049788918a826001541692815416918a519687958694859363a9059cbb60e01b8552840160209093929193604081019460018060a01b031681520152565b03925af18015610b85579561047b938193610b5c937fa3ce321670cf1577a276bea0d3a7f932314dff3e9fb3266a1e2435bd79d91d0299610b67575b5050611b8a565b935193849384611a2e565b81610b7d92903d106105c1576105b381836117b9565b503880610b55565b85513d89823e3d90fd5b50338652600881528386205460ff16610a36565b8480fd5b83915034610127578260031936011261012757803567ffffffffffffffff811161023757610bd7913691016117f1565b6024356001600160a01b03811692919083900361012757600291610c0a6020869381855193828580945193849201611889565b8101600781520301902093815260018401602052205491015482519182526020820152f35b828434610c91576020366003190112610c915782359067ffffffffffffffff8211610c915750610c7c6020610c6a819560ff943691016117f1565b81855193828580945193849201611889565b81016006815203019020541690519015158152f35b80fd5b9190503461023757608036600319011261023757813567ffffffffffffffff811161060c57610cc690369084016117f1565b90610ccf611848565b6064356001600160a01b03818116936044359390929091858203610fab57835197875191610d0d60ff8b8b60209d8e80920197610a6581838b611889565b85518a818b51610d1e818389611889565b81016005815203019020906002820154421015610f77578715610f3f5760015487516323b872dd60e01b815233858201908152306020820152604081018b90528e9391928e9284928390036060019183918791165af1908115610f35578b8d8c8c8c8c848d8d8d8d868e610dbd7fc61768f6a8d3b8b7f8ee98dcf7a14e728b6537d315378b8558fa8ff704cf2d369f610e1d9f8391610f1857506119a8565b8715610ec857600883013382528088528282205415610eb6575b338252875220610de88982546119eb565b905501610df68782546119eb565b90555b86151580610eac575b610e39575b505050815196879660a0885260a08801906118e6565b943390870152151590850152606084015260808301520390a180f35b600292610e50918651809381928d51928391611889565b81016007815203019020906001820190878d52818952858d205415610e9c575b50868c528752838b20610e848682546119eb565b905501610e928482546119eb565b9055848a80610e07565b610ea69083611abb565b8c610e70565b5033871415610e02565b610ec33360068601611abb565b610dd7565b60059350600983013382528088528282205415610f06575b338252875220610ef18982546119eb565b905501610eff8782546119eb565b9055610df9565b610f133360078601611abb565b610ee0565b610f2f9150893d8b116105c1576105b381836117b9565b38610308565b88513d84823e3d90fd5b865162461bcd60e51b81528084018c905260126024820152710416d6f756e74206d757374206265203e20360741b6044820152606490fd5b865162461bcd60e51b81528084018c9052600e60248201526d10995d1d1a5b99c818db1bdcd95960921b6044820152606490fd5b8880fd5b838334610127576020928360031936011261023757803567ffffffffffffffff811161060c5784610c6a610fe692369085016117f1565b810160058152030190208251928482549087611001836118ac565b91828852600193848116908160001461111657506001146110df575b50505061102f8561107f9703866117b9565b8201549260028301549060038401549084015460058501549060ff80600a8801541693600b88015495600c89015497600e600d8b01549a01549a81519e8f9e8f9e8f6101a09081815201906118e6565b9d01528c0152818116151560608c015260081c16151560808a015260a089015260c0880152151560e087015261010086015260ff8116151561012086015260018060a01b039060081c166101408501526101608401526101808301520390f35b909197508481528181205b8882106111035750860101955061102f8761107f61101d565b80548883018401529082019083016110ea565b60ff1916838a0152505090151560051b860101955061102f8761107f61101d565b905034610237578160031936011261023757803567ffffffffffffffff811161060c5761116960ff91369084016117f1565b91611172611848565b855490916001600160a01b03918216331480156113f4575b61119390611afb565b6111c3865186516111b360209783898095818d0195610a65818389611889565b8851809381928a51928391611889565b810160058152030190206003810160018154956111e360ff881615611b38565b15159561ff008760081b169061ffff19161717905561120a828201546005830154906119eb565b9061271092888461121d60025486611b77565b04958561122c60035487611b77565b0495611239845489611b77565b04928c88818c61128a86600154166112558a8986541696611b8a565b895163a9059cbb60e01b8082526001600160a01b03909716898201908152602081019290925294859384928391604090910190565b03925af19788156113ea576112ac8f988f99600c948e9c6113cd575b50611bd2565b01805490949060081c81161561139757806112f29160015416955460081c169551978896879586948552840160209093929193604081019460018060a01b031681520152565b03925af1801561138d57926113448161133f877f1c7a883a185aebed363acfbea55743db9dd8ab8200a74e98d4ea59e45fa6697c9c9661134a9661135e9d9c9b9a99611370575b50611b8a565b611b8a565b936119eb565b9281519687966080885260808801906118e6565b9486015284015260608301520390a180f35b611386908c8d3d106105c1576105b381836117b9565b5038611339565b88513d8b823e3d90fd5b600154835496519283529581166001600160a01b03169382019384526020840197909752958694169250839182906040016112f2565b6113e3908c8d3d106105c1576105b381836117b9565b50386112a6565b86513d85823e3d90fd5b50338752600860205285872054841661118a565b9050346102375760203660031901126102375761142361179e565b835491906001600160a01b039061143d338386161461190b565b169283156114575750506001600160a01b03191617815580f35b906020606492519162461bcd60e51b8352820152600f60248201526e496e76616c6964206164647265737360881b6044820152fd5b9050346102375760ff9061149f36611857565b6114e4859392935184516114c260209783898095818b0195610a65818389611889565b831515806115ed575b6114d490611944565b8751809381928851928391611889565b60059082019081520301902060015486516323b872dd60e01b815233858201908152306020820152604081018590529296929091839183916001600160a01b03169082908c90829060600103925af19182156115e357926115777fff36ff50e65334f5ea64776f95ec82ce2fbd32a145dd5258689e2027c1c61b3a9893600e9361047b97968c926115c6575b50506119a8565b60011c958693810161158a8582546119eb565b90556005810161159b8582546119eb565b9055600d81016115ac8582546119eb565b9055016115ba8382546119eb565b90555193849384611a2e565b6115dc9250803d106105c1576105b381836117b9565b3880611570565b87513d8a823e3d90fd5b5060018416156114cb565b5050346101275780600319360112610127577f966c160e1c4dbc7df8d69af4ace01e9297c3cf016397b7914971f2fbfa32672d9061163461179e565b61163c611848565b845490916001600160a01b0391611656908316331461190b565b169081855260086020528285209015159060ff1981541660ff831617905582519182526020820152a180f35b90503461023757826003193601126102375760209250549051908152f35b828434610c91576020366003190112610c915782359067ffffffffffffffff8211610c91575060206116d981946116eb933691016117f1565b81845193828580945193849201611889565b81016007815203019020549051908152f35b5050346101275781600319360112610127576020906002549051908152f35b5050346101275781600319360112610127576020906003549051908152f35b5050346101275760203660031901126101275760209160ff9082906001600160a01b0361176661179e565b1681526008855220541690519015158152f35b8490346101275781600319360112610127576001546001600160a01b03168152602090f35b600435906001600160a01b03821682036117b457565b600080fd5b90601f8019910116810190811067ffffffffffffffff8211176117db57604052565b634e487b7160e01b600052604160045260246000fd5b81601f820112156117b45780359067ffffffffffffffff82116117db5760405192611826601f8401601f1916602001856117b9565b828452602083830101116117b457816000926020809301838601378301015290565b6024359081151582036117b457565b60406003198201126117b4576004359067ffffffffffffffff82116117b457611882916004016117f1565b9060243590565b60005b83811061189c5750506000910152565b818101518382015260200161188c565b90600182811c921680156118dc575b60208310146118c657565b634e487b7160e01b600052602260045260246000fd5b91607f16916118bb565b906020916118ff81518092818552858086019101611889565b601f01601f1916010190565b1561191257565b60405162461bcd60e51b815260206004820152600a60248201526927b7363c9030b236b4b760b11b6044820152606490fd5b1561194b57565b60405162461bcd60e51b815260206004820152601960248201527f53656564206d757374206265203e203020616e64206576656e000000000000006044820152606490fd5b908160209103126117b4575180151581036117b45790565b156119af57565b60405162461bcd60e51b81526020600482015260146024820152731554d110c81d1c985b9cd9995c8819985a5b195960621b6044820152606490fd5b919082018092116119f857565b634e487b7160e01b600052601160045260246000fd5b8115611a18570490565b634e487b7160e01b600052601260045260246000fd5b611a46604092959493956060835260608301906118e6565b9460208201520152565b15611a5757565b60405162461bcd60e51b815260206004820152600e60248201526d111bd95cc81b9bdd08195e1a5cdd60921b6044820152606490fd5b8054821015611aa55760005260206000200190600090565b634e487b7160e01b600052603260045260246000fd5b8054680100000000000000008110156117db57611add91600182018155611a8d565b819291549060031b9160018060a01b03809116831b921b1916179055565b15611b0257565b60405162461bcd60e51b815260206004820152600e60248201526d139bdd08185d5d1a1bdc9a5e995960921b6044820152606490fd5b15611b3f57565b60405162461bcd60e51b815260206004820152601060248201526f105b1c9958591e481c995cdbdb1d995960821b6044820152606490fd5b818102929181159184041417156119f857565b919082039182116119f857565b60001981146119f85760010190565b611bbe604092959493956060835260608301906118e6565b6001600160a01b0390951660208201520152565b9060409182519081815160209381611bee869383858801611889565b81016007815203019020600281018054158015611db9575b611d47575460019485830194600093909290875b611c2a575b505050505050505050565b8054851015611d4257848988611c6c8561087a88611c498f9c89611a8d565b969060018060a01b03978891549060031b1c1695866000528c5260002054611b77565b9182611c85575b505050611c7f90611b97565b94611c1a565b97548c5163a9059cbb60e01b81526001600160a01b0383166004820152602481018490529798969795969495939492939192899183916044918391600091165af18015611d3757928b989796959492611d0f8e7fa1a0c504c507bf9640f861ece9b6d3a9f05c26a39d1bcefd819af92207e3861a94611c7f97611d1a575b50519283928d84611ba6565b0390a1903880611c73565b611d30908c8d3d106105c1576105b381836117b9565b5038611d03565b8c513d6000823e3d90fd5b611c1f565b505060015460008054865163a9059cbb60e01b81526001600160a01b0391821660048201526024810196909652939593869350859260449284929091165af1908115611daf5750611d96575050565b81611dac92903d106105c1576105b381836117b9565b50565b513d6000823e3d90fd5b508415611c06565b906040516020818451611dd78183858901611889565b810160058152030190209060048201546005830154611e21611df982846119eb565b61133f61271080611e0c60025485611b77565b0490611e1a60035485611b77565b0492611b8a565b9160038501549160ff8360081c1660001461207e5750915b60ff8260081c166000146120745760068501925b835415801561206c575b61205557611e6a600b87015495866119eb565b94845480871161204d575b505b858110611edf575050505081600b840155541115611e93575050565b600c01805460ff1916600117905560405160208082527f9ec2be866260137327142d7404b7fcc5cc8498409bc29470d3e480b610431858928291611eda91908301906118e6565b0390a1565b611ee98186611a8d565b90546001600160a01b0360039290921b1c811691908385600060ff60088a901c161561203957505050826000526008890160205283856040600020545b60ff8960081c16600014612022578560005260088c01602052600060408120555b80611f60575b50505050611f5b9150611b97565b611e77565b611f6e929161087a91611b77565b60015460405163a9059cbb60e01b81526001600160a01b03861660048201526024810183905294919260209186916044918391600091165af193841561201657611feb7f1dbdb822c5640c362e09f214d7cbc87a4c65998f48cbef088e5bb6f702032839938d92611f5b97611ff7575b5060405193849384611ba6565b0390a138838582611f4d565b61200f9060203d6020116105c1576105b381836117b9565b5038611fde565b6040513d6000823e3d90fd5b8560005260098c0160205260006040812055611f47565b80866040925260098d016020522054611f26565b955038611e75565b5050505050600c915001600160ff19825416179055565b508015611e57565b6007850192611e4d565b905091611e39565b91906006830180548083106000146120c657506008916120a591611a8d565b60018060a01b0391549060031b1c1692836000520160205260406000205490565b6120a591506120d790600993611b8a565b60078501611a8d56fea264697066735822122090519605852944c88395ffd4c37d460758cb50f02ba0c09c784e69e5cecf045b64736f6c63430008140033",
  "linkReferences": {},
  "deployedLinkReferences": {}
}