{
  "_format": "hh-sol-artifact-1",
  "contractName": "PredictionBattleV3",
  "sourceName": "contracts/PredictionBattleV3.sol",
  "abi": [
    {
      "inputs": [
        {
          "internalType": "address",
          "name": "_usdcAddress",
          "type": "address"
        }
      ],
      "stateMutability": "nonpayable",
      "type": "constructor"
    },
    {
      "anonymous": false,
      "inputs": [
        {
          "indexed": true,
          "internalType": "string",
          "name": "id",
          "type": "string"
        },
        {
          "indexed": true,
          "internalType": "address",
          "name": "user",
          "type": "address"
        },
        {
          "indexed": false,
          "internalType": "bool",
          "name": "vote",
          "type": "bool"
        },
        {
          "indexed": false,
          "internalType": "uint256",
          "name": "amount",
          "type": "uint256"
        },
        {
          "indexed": false,
          "internalType": "uint256",
          "name": "shares",
          "type": "uint256"
        },
        {
          "indexed": false,
          "internalType": "address",
          "name": "referrer",
          "type": "address"
        },
        {
          "indexed": false,
          "internalType": "uint256",
          "name": "weight",
          "type": "uint256"
        }
      ],
      "name": "BetPlaced",
      "type": "event"
    },
    {
      "anonymous": false,
      "inputs": [
        {
          "indexed": true,
          "internalType": "address",
          "name": "user",
          "type": "address"
        },
        {
          "indexed": false,
          "internalType": "uint256",
          "name": "amount",
          "type": "uint256"
        }
      ],
      "name": "CreatorRewardClaimed",
      "type": "event"
    },
    {
      "anonymous": false,
      "inputs": [
        {
          "indexed": true,
          "internalType": "address",
          "name": "admin",
          "type": "address"
        },
        {
          "indexed": false,
          "internalType": "uint256",
          "name": "amount",
          "type": "uint256"
        }
      ],
      "name": "HouseWithdraw",
      "type": "event"
    },
    {
      "anonymous": false,
      "inputs": [
        {
          "indexed": true,
          "internalType": "string",
          "name": "id",
          "type": "string"
        },
        {
          "indexed": true,
          "internalType": "address",
          "name": "creator",
          "type": "address"
        },
        {
          "indexed": false,
          "internalType": "uint256",
          "name": "deadline",
          "type": "uint256"
        },
        {
          "indexed": false,
          "internalType": "uint256",
          "name": "bonusDuration",
          "type": "uint256"
        }
      ],
      "name": "MarketCreated",
      "type": "event"
    },
    {
      "anonymous": false,
      "inputs": [
        {
          "indexed": true,
          "internalType": "string",
          "name": "id",
          "type": "string"
        }
      ],
      "name": "MarketLocked",
      "type": "event"
    },
    {
      "anonymous": false,
      "inputs": [
        {
          "indexed": true,
          "internalType": "string",
          "name": "id",
          "type": "string"
        }
      ],
      "name": "MarketReopened",
      "type": "event"
    },
    {
      "anonymous": false,
      "inputs": [
        {
          "indexed": true,
          "internalType": "string",
          "name": "id",
          "type": "string"
        },
        {
          "indexed": false,
          "internalType": "bool",
          "name": "result",
          "type": "bool"
        },
        {
          "indexed": false,
          "internalType": "uint256",
          "name": "winnerPool",
          "type": "uint256"
        }
      ],
      "name": "MarketResolved",
      "type": "event"
    },
    {
      "anonymous": false,
      "inputs": [
        {
          "indexed": true,
          "internalType": "string",
          "name": "id",
          "type": "string"
        }
      ],
      "name": "MarketVoided",
      "type": "event"
    },
    {
      "anonymous": false,
      "inputs": [
        {
          "indexed": true,
          "internalType": "address",
          "name": "operator",
          "type": "address"
        },
        {
          "indexed": false,
          "internalType": "bool",
          "name": "status",
          "type": "bool"
        }
      ],
      "name": "OperatorUpdated",
      "type": "event"
    },
    {
      "anonymous": false,
      "inputs": [
        {
          "indexed": true,
          "internalType": "string",
          "name": "id",
          "type": "string"
        },
        {
          "indexed": true,
          "internalType": "address",
          "name": "disputer",
          "type": "address"
        },
        {
          "indexed": true,
          "internalType": "address",
          "name": "slashedProposer",
          "type": "address"
        },
        {
          "indexed": false,
          "internalType": "uint256",
          "name": "slashedAmount",
          "type": "uint256"
        }
      ],
      "name": "OutcomeDisputed",
      "type": "event"
    },
    {
      "anonymous": false,
      "inputs": [
        {
          "indexed": true,
          "internalType": "string",
          "name": "id",
          "type": "string"
        },
        {
          "indexed": true,
          "internalType": "address",
          "name": "proposer",
          "type": "address"
        },
        {
          "indexed": false,
          "internalType": "uint256",
          "name": "rewardAmount",
          "type": "uint256"
        }
      ],
      "name": "OutcomeFinalized",
      "type": "event"
    },
    {
      "anonymous": false,
      "inputs": [
        {
          "indexed": true,
          "internalType": "string",
          "name": "id",
          "type": "string"
        },
        {
          "indexed": true,
          "internalType": "address",
          "name": "proposer",
          "type": "address"
        },
        {
          "indexed": false,
          "internalType": "bool",
          "name": "proposedResult",
          "type": "bool"
        },
        {
          "indexed": false,
          "internalType": "uint256",
          "name": "bondAmount",
          "type": "uint256"
        },
        {
          "indexed": false,
          "internalType": "uint256",
          "name": "disputeDeadline",
          "type": "uint256"
        },
        {
          "indexed": false,
          "internalType": "string",
          "name": "evidenceUrl",
          "type": "string"
        }
      ],
      "name": "OutcomeProposed",
      "type": "event"
    },
    {
      "anonymous": false,
      "inputs": [
        {
          "indexed": true,
          "internalType": "address",
          "name": "user",
          "type": "address"
        },
        {
          "indexed": false,
          "internalType": "uint256",
          "name": "amount",
          "type": "uint256"
        }
      ],
      "name": "ReferralRewardClaimed",
      "type": "event"
    },
    {
      "anonymous": false,
      "inputs": [
        {
          "indexed": true,
          "internalType": "string",
          "name": "id",
          "type": "string"
        },
        {
          "indexed": true,
          "internalType": "address",
          "name": "user",
          "type": "address"
        },
        {
          "indexed": false,
          "internalType": "uint256",
          "name": "amount",
          "type": "uint256"
        }
      ],
      "name": "RewardClaimed",
      "type": "event"
    },
    {
      "anonymous": false,
      "inputs": [
        {
          "indexed": true,
          "internalType": "string",
          "name": "id",
          "type": "string"
        },
        {
          "indexed": false,
          "internalType": "uint256",
          "name": "yesAmount",
          "type": "uint256"
        },
        {
          "indexed": false,
          "internalType": "uint256",
          "name": "noAmount",
          "type": "uint256"
        }
      ],
      "name": "SeedAdded",
      "type": "event"
    },
    {
      "inputs": [],
      "name": "BOND_PERCENT",
      "outputs": [
        {
          "internalType": "uint256",
          "name": "",
          "type": "uint256"
        }
      ],
      "stateMutability": "view",
      "type": "function"
    },
    {
      "inputs": [],
      "name": "DISPUTE_WINDOW",
      "outputs": [
        {
          "internalType": "uint256",
          "name": "",
          "type": "uint256"
        }
      ],
      "stateMutability": "view",
      "type": "function"
    },
    {
      "inputs": [],
      "name": "FEE_DENOMINATOR",
      "outputs": [
        {
          "internalType": "uint256",
          "name": "",
          "type": "uint256"
        }
      ],
      "stateMutability": "view",
      "type": "function"
    },
    {
      "inputs": [],
      "name": "MAX_WEIGHT",
      "outputs": [
        {
          "internalType": "uint256",
          "name": "",
          "type": "uint256"
        }
      ],
      "stateMutability": "view",
      "type": "function"
    },
    {
      "inputs": [],
      "name": "MIN_BOND",
      "outputs": [
        {
          "internalType": "uint256",
          "name": "",
          "type": "uint256"
        }
      ],
      "stateMutability": "view",
      "type": "function"
    },
    {
      "inputs": [],
      "name": "MIN_WEIGHT",
      "outputs": [
        {
          "internalType": "uint256",
          "name": "",
          "type": "uint256"
        }
      ],
      "stateMutability": "view",
      "type": "function"
    },
    {
      "inputs": [],
      "name": "REPORTER_REWARD_BPS",
      "outputs": [
        {
          "internalType": "uint256",
          "name": "",
          "type": "uint256"
        }
      ],
      "stateMutability": "view",
      "type": "function"
    },
    {
      "inputs": [],
      "name": "SHARE_PRECISION",
      "outputs": [
        {
          "internalType": "uint256",
          "name": "",
          "type": "uint256"
        }
      ],
      "stateMutability": "view",
      "type": "function"
    },
    {
      "inputs": [],
      "name": "admin",
      "outputs": [
        {
          "internalType": "address",
          "name": "",
          "type": "address"
        }
      ],
      "stateMutability": "view",
      "type": "function"
    },
    {
      "inputs": [
        {
          "internalType": "string",
          "name": "_marketId",
          "type": "string"
        },
        {
          "internalType": "bool",
          "name": "_result",
          "type": "bool"
        }
      ],
      "name": "adminResolve",
      "outputs": [],
      "stateMutability": "nonpayable",
      "type": "function"
    },
    {
      "inputs": [
        {
          "internalType": "address",
          "name": "",
          "type": "address"
        }
      ],
      "name": "bondBalance",
      "outputs": [
        {
          "internalType": "uint256",
          "name": "",
          "type": "uint256"
        }
      ],
      "stateMutability": "view",
      "type": "function"
    },
    {
      "inputs": [],
      "name": "claimCreatorRewards",
      "outputs": [],
      "stateMutability": "nonpayable",
      "type": "function"
    },
    {
      "inputs": [],
      "name": "claimReferralRewards",
      "outputs": [],
      "stateMutability": "nonpayable",
      "type": "function"
    },
    {
      "inputs": [
        {
          "internalType": "string",
          "name": "_marketId",
          "type": "string"
        }
      ],
      "name": "claimReward",
      "outputs": [],
      "stateMutability": "nonpayable",
      "type": "function"
    },
    {
      "inputs": [
        {
          "internalType": "string",
          "name": "_id",
          "type": "string"
        },
        {
          "internalType": "string",
          "name": "_question",
          "type": "string"
        },
        {
          "internalType": "uint256",
          "name": "_usdcSeedAmount",
          "type": "uint256"
        },
        {
          "internalType": "uint256",
          "name": "_duration",
          "type": "uint256"
        },
        {
          "internalType": "uint256",
          "name": "_bonusDuration",
          "type": "uint256"
        }
      ],
      "name": "createMarket",
      "outputs": [],
      "stateMutability": "nonpayable",
      "type": "function"
    },
    {
      "inputs": [
        {
          "internalType": "address",
          "name": "",
          "type": "address"
        }
      ],
      "name": "creatorBalance",
      "outputs": [
        {
          "internalType": "uint256",
          "name": "",
          "type": "uint256"
        }
      ],
      "stateMutability": "view",
      "type": "function"
    },
    {
      "inputs": [],
      "name": "creatorFeeBps",
      "outputs": [
        {
          "internalType": "uint256",
          "name": "",
          "type": "uint256"
        }
      ],
      "stateMutability": "view",
      "type": "function"
    },
    {
      "inputs": [
        {
          "internalType": "string",
          "name": "_marketId",
          "type": "string"
        }
      ],
      "name": "disputeOutcome",
      "outputs": [],
      "stateMutability": "nonpayable",
      "type": "function"
    },
    {
      "inputs": [
        {
          "internalType": "string",
          "name": "_marketId",
          "type": "string"
        },
        {
          "internalType": "bool",
          "name": "_side",
          "type": "bool"
        },
        {
          "internalType": "uint256",
          "name": "_usdcAmount",
          "type": "uint256"
        }
      ],
      "name": "estimatePayout",
      "outputs": [
        {
          "internalType": "uint256",
          "name": "estimatedShares",
          "type": "uint256"
        },
        {
          "internalType": "uint256",
          "name": "estimatedPayout",
          "type": "uint256"
        }
      ],
      "stateMutability": "view",
      "type": "function"
    },
    {
      "inputs": [
        {
          "internalType": "string",
          "name": "_marketId",
          "type": "string"
        }
      ],
      "name": "finalizeOutcome",
      "outputs": [],
      "stateMutability": "nonpayable",
      "type": "function"
    },
    {
      "inputs": [
        {
          "internalType": "string",
          "name": "_marketId",
          "type": "string"
        }
      ],
      "name": "getCurrentWeight",
      "outputs": [
        {
          "internalType": "uint256",
          "name": "",
          "type": "uint256"
        }
      ],
      "stateMutability": "view",
      "type": "function"
    },
    {
      "inputs": [
        {
          "internalType": "string",
          "name": "_marketId",
          "type": "string"
        }
      ],
      "name": "getMarketInfo",
      "outputs": [
        {
          "internalType": "address",
          "name": "creator",
          "type": "address"
        },
        {
          "internalType": "uint256",
          "name": "deadline",
          "type": "uint256"
        },
        {
          "internalType": "enum PredictionBattleV3.MarketState",
          "name": "state",
          "type": "uint8"
        },
        {
          "internalType": "bool",
          "name": "result",
          "type": "bool"
        },
        {
          "internalType": "uint256",
          "name": "totalYes",
          "type": "uint256"
        },
        {
          "internalType": "uint256",
          "name": "totalNo",
          "type": "uint256"
        },
        {
          "internalType": "uint256",
          "name": "totalSharesYes",
          "type": "uint256"
        },
        {
          "internalType": "uint256",
          "name": "totalSharesNo",
          "type": "uint256"
        }
      ],
      "stateMutability": "view",
      "type": "function"
    },
    {
      "inputs": [
        {
          "internalType": "string",
          "name": "_marketId",
          "type": "string"
        }
      ],
      "name": "getProposalInfo",
      "outputs": [
        {
          "internalType": "address",
          "name": "proposer",
          "type": "address"
        },
        {
          "internalType": "bool",
          "name": "proposedResult",
          "type": "bool"
        },
        {
          "internalType": "uint256",
          "name": "proposalTime",
          "type": "uint256"
        },
        {
          "internalType": "uint256",
          "name": "bondAmount",
          "type": "uint256"
        },
        {
          "internalType": "uint256",
          "name": "disputeDeadline",
          "type": "uint256"
        },
        {
          "internalType": "bool",
          "name": "canFinalize",
          "type": "bool"
        },
        {
          "internalType": "string",
          "name": "evidenceUrl",
          "type": "string"
        }
      ],
      "stateMutability": "view",
      "type": "function"
    },
    {
      "inputs": [
        {
          "internalType": "string",
          "name": "_marketId",
          "type": "string"
        }
      ],
      "name": "getReporterReward",
      "outputs": [
        {
          "internalType": "uint256",
          "name": "",
          "type": "uint256"
        }
      ],
      "stateMutability": "view",
      "type": "function"
    },
    {
      "inputs": [
        {
          "internalType": "string",
          "name": "_marketId",
          "type": "string"
        }
      ],
      "name": "getRequiredBond",
      "outputs": [
        {
          "internalType": "uint256",
          "name": "",
          "type": "uint256"
        }
      ],
      "stateMutability": "view",
      "type": "function"
    },
    {
      "inputs": [
        {
          "internalType": "string",
          "name": "_marketId",
          "type": "string"
        },
        {
          "internalType": "address",
          "name": "_user",
          "type": "address"
        },
        {
          "internalType": "bool",
          "name": "_side",
          "type": "bool"
        }
      ],
      "name": "getUserBet",
      "outputs": [
        {
          "internalType": "uint256",
          "name": "amount",
          "type": "uint256"
        },
        {
          "internalType": "uint256",
          "name": "shares",
          "type": "uint256"
        },
        {
          "internalType": "address",
          "name": "referrer",
          "type": "address"
        },
        {
          "internalType": "bool",
          "name": "claimed",
          "type": "bool"
        }
      ],
      "stateMutability": "view",
      "type": "function"
    },
    {
      "inputs": [],
      "name": "houseBalance",
      "outputs": [
        {
          "internalType": "uint256",
          "name": "",
          "type": "uint256"
        }
      ],
      "stateMutability": "view",
      "type": "function"
    },
    {
      "inputs": [],
      "name": "houseFeeBps",
      "outputs": [
        {
          "internalType": "uint256",
          "name": "",
          "type": "uint256"
        }
      ],
      "stateMutability": "view",
      "type": "function"
    },
    {
      "inputs": [
        {
          "internalType": "string",
          "name": "_marketId",
          "type": "string"
        }
      ],
      "name": "lockMarket",
      "outputs": [],
      "stateMutability": "nonpayable",
      "type": "function"
    },
    {
      "inputs": [
        {
          "internalType": "string",
          "name": "",
          "type": "string"
        }
      ],
      "name": "marketExists",
      "outputs": [
        {
          "internalType": "bool",
          "name": "",
          "type": "bool"
        }
      ],
      "stateMutability": "view",
      "type": "function"
    },
    {
      "inputs": [
        {
          "internalType": "string",
          "name": "",
          "type": "string"
        }
      ],
      "name": "markets",
      "outputs": [
        {
          "internalType": "string",
          "name": "id",
          "type": "string"
        },
        {
          "internalType": "address",
          "name": "creator",
          "type": "address"
        },
        {
          "internalType": "string",
          "name": "question",
          "type": "string"
        },
        {
          "internalType": "uint256",
          "name": "creationTime",
          "type": "uint256"
        },
        {
          "internalType": "uint256",
          "name": "bonusDuration",
          "type": "uint256"
        },
        {
          "internalType": "uint256",
          "name": "deadline",
          "type": "uint256"
        },
        {
          "internalType": "enum PredictionBattleV3.MarketState",
          "name": "state",
          "type": "uint8"
        },
        {
          "internalType": "bool",
          "name": "result",
          "type": "bool"
        },
        {
          "internalType": "bool",
          "name": "isVoid",
          "type": "bool"
        },
        {
          "internalType": "bool",
          "name": "paidOut",
          "type": "bool"
        },
        {
          "internalType": "uint256",
          "name": "processedIndex",
          "type": "uint256"
        },
        {
          "internalType": "address",
          "name": "proposer",
          "type": "address"
        },
        {
          "internalType": "bool",
          "name": "proposedResult",
          "type": "bool"
        },
        {
          "internalType": "uint256",
          "name": "proposalTime",
          "type": "uint256"
        },
        {
          "internalType": "uint256",
          "name": "bondAmount",
          "type": "uint256"
        },
        {
          "internalType": "string",
          "name": "evidenceUrl",
          "type": "string"
        },
        {
          "internalType": "uint256",
          "name": "totalYes",
          "type": "uint256"
        },
        {
          "internalType": "uint256",
          "name": "totalNo",
          "type": "uint256"
        },
        {
          "internalType": "uint256",
          "name": "seedYes",
          "type": "uint256"
        },
        {
          "internalType": "uint256",
          "name": "seedNo",
          "type": "uint256"
        },
        {
          "internalType": "uint256",
          "name": "totalSharesYes",
          "type": "uint256"
        },
        {
          "internalType": "uint256",
          "name": "totalSharesNo",
          "type": "uint256"
        }
      ],
      "stateMutability": "view",
      "type": "function"
    },
    {
      "inputs": [
        {
          "internalType": "string",
          "name": "",
          "type": "string"
        },
        {
          "internalType": "address",
          "name": "",
          "type": "address"
        }
      ],
      "name": "noBets",
      "outputs": [
        {
          "internalType": "uint256",
          "name": "amount",
          "type": "uint256"
        },
        {
          "internalType": "uint256",
          "name": "shares",
          "type": "uint256"
        },
        {
          "internalType": "address",
          "name": "referrer",
          "type": "address"
        },
        {
          "internalType": "bool",
          "name": "claimed",
          "type": "bool"
        }
      ],
      "stateMutability": "view",
      "type": "function"
    },
    {
      "inputs": [
        {
          "internalType": "address",
          "name": "",
          "type": "address"
        }
      ],
      "name": "operators",
      "outputs": [
        {
          "internalType": "bool",
          "name": "",
          "type": "bool"
        }
      ],
      "stateMutability": "view",
      "type": "function"
    },
    {
      "inputs": [
        {
          "internalType": "string",
          "name": "_marketId",
          "type": "string"
        },
        {
          "internalType": "bool",
          "name": "_side",
          "type": "bool"
        },
        {
          "internalType": "uint256",
          "name": "_usdcAmount",
          "type": "uint256"
        },
        {
          "internalType": "address",
          "name": "_referrer",
          "type": "address"
        }
      ],
      "name": "placeBet",
      "outputs": [],
      "stateMutability": "nonpayable",
      "type": "function"
    },
    {
      "inputs": [
        {
          "internalType": "string",
          "name": "_marketId",
          "type": "string"
        },
        {
          "internalType": "bool",
          "name": "_result",
          "type": "bool"
        },
        {
          "internalType": "string",
          "name": "_evidenceUrl",
          "type": "string"
        }
      ],
      "name": "proposeOutcome",
      "outputs": [],
      "stateMutability": "nonpayable",
      "type": "function"
    },
    {
      "inputs": [],
      "name": "referrerFeeBps",
      "outputs": [
        {
          "internalType": "uint256",
          "name": "",
          "type": "uint256"
        }
      ],
      "stateMutability": "view",
      "type": "function"
    },
    {
      "inputs": [
        {
          "internalType": "address",
          "name": "",
          "type": "address"
        }
      ],
      "name": "rewardsBalance",
      "outputs": [
        {
          "internalType": "uint256",
          "name": "",
          "type": "uint256"
        }
      ],
      "stateMutability": "view",
      "type": "function"
    },
    {
      "inputs": [
        {
          "internalType": "address",
          "name": "_newAdmin",
          "type": "address"
        }
      ],
      "name": "setAdmin",
      "outputs": [],
      "stateMutability": "nonpayable",
      "type": "function"
    },
    {
      "inputs": [
        {
          "internalType": "address",
          "name": "_operator",
          "type": "address"
        },
        {
          "internalType": "bool",
          "name": "_status",
          "type": "bool"
        }
      ],
      "name": "setOperator",
      "outputs": [],
      "stateMutability": "nonpayable",
      "type": "function"
    },
    {
      "inputs": [
        {
          "internalType": "uint256",
          "name": "_houseFeeBps",
          "type": "uint256"
        },
        {
          "internalType": "uint256",
          "name": "_creatorFeeBps",
          "type": "uint256"
        },
        {
          "internalType": "uint256",
          "name": "_referrerFeeBps",
          "type": "uint256"
        }
      ],
      "name": "updateFees",
      "outputs": [],
      "stateMutability": "nonpayable",
      "type": "function"
    },
    {
      "inputs": [],
      "name": "usdcToken",
      "outputs": [
        {
          "internalType": "contract IERC20",
          "name": "",
          "type": "address"
        }
      ],
      "stateMutability": "view",
      "type": "function"
    },
    {
      "inputs": [
        {
          "internalType": "string",
          "name": "_marketId",
          "type": "string"
        }
      ],
      "name": "voidMarket",
      "outputs": [],
      "stateMutability": "nonpayable",
      "type": "function"
    },
    {
      "inputs": [],
      "name": "withdrawHouseBalance",
      "outputs": [],
      "stateMutability": "nonpayable",
      "type": "function"
    },
    {
      "inputs": [
        {
          "internalType": "string",
          "name": "",
          "type": "string"
        },
        {
          "internalType": "address",
          "name": "",
          "type": "address"
        }
      ],
      "name": "yesBets",
      "outputs": [
        {
          "internalType": "uint256",
          "name": "amount",
          "type": "uint256"
        },
        {
          "internalType": "uint256",
          "name": "shares",
          "type": "uint256"
        },
        {
          "internalType": "address",
          "name": "referrer",
          "type": "address"
        },
        {
          "internalType": "bool",
          "name": "claimed",
          "type": "bool"
        }
      ],
      "stateMutability": "view",
      "type": "function"
    }
  ],
  "bytecode": "0x6080346200009057601f6200362238819003918201601f19168301916001600160401b0383118484101762000095578084926020946040528339810103126200009057516001600160a01b0381169081900362000090576103e86002556101f48060035560045560018060a01b03193381600054161760005560015416176001556040516135769081620000ac8239f35b600080fd5b634e487b7160e01b600052604160045260246000fdfe604061012081526004908136101561001657600080fd5b600091823560e01c90816305eaab4b14612c9c5781630dbc5b6c14612b605781630e90aeb214612b2457816311eac85514612afb57816313e7c9d814612abd57816317773ebb14612a9e5781632023115d14612775578163218b53821461242957816322429085146126eb578163245e272f146126b3578163289838ec1461242e578163327abb48146124295781633fed6ced146123c8578163479860da1461233b578163558a7297146122b75781635fc5e0201461229457816367084eb314612275578163704b6c02146121f15781637226405614611e725781637d191e061461190e57816383f6b044146118d2578163896bdac81461189a5781638c3a7a6c1461187d57816393434d47146117a657816393a2741b14611658578163978c75e2146115a95781639a826eb7146115365781639bd1d5131461105f578163a07c163314611041578163bb8c979714610c4e578163c7bafdcb14610b36578163c8eaef191461096f578163d6e9e57014610901578163d73792a9146108e4578163d8a9afb2146107c4578163dbeae54c14610739578163e0de0fee1461071b578163e4a28a52146106ff578163e6cd7ab6146106c7578163e7785ffb1461045f578163ee59d24014610440578163efbda6611461024e57508063f585dc57146102325763f851a4401461020857600080fd5b3461022e578160031936011261022e57905490516001600160a01b039091168152602090f35b5080fd5b503461022e578160031936011261022e576020905161a8c08152f35b82843461043d57602036600319011261043d578235906001600160401b03821161043d57506102809036908401612d89565b8151818180935160208193019161029692612e16565b8101600581520360200190206102ab81612f0b565b60018201546001600160a01b031660c052916102c960028301612f0b565b60e05260038201549382015460058301549460068401549060078501546008860154600987015490600a88015492600b890161030490612f0b565b95600c8a0154608052600d8a01549b600e8b015498600f8c01549a60108d01549c601101546101005280519060a09e8f928084526102c080915283510161034a91612eac565b60c051835160200152915180830391015260e0516103689190612eac565b978d51606001528c51608001528b805101528a5160c00160ff82169061038d91612e48565b8060081c60ff1615158b5160e001528060101c60ff1615158b51610100015260181c60ff1615158a51610120015289516101400152600160a01b60019003811689516101600152881c60ff1615158851610180015287516101a0015286516101c001528551808203906101e0015261040491612eac565b9460805185516102000152845161022001528351610240015282516102600152815161028001526101005181516102a001525180910390f35b80fd5b50503461022e578160031936011261022e576020906002549051908152f35b9050346106c357816003193601126106c35780356001600160401b0381116106bf5761048e9036908301612d89565b610496612e39565b84546001600160a01b03906104ae9082163314612fb1565b60ff6104f1865185516104e160209483868095818c01956104d0818389612e16565b810160068152030190205416613104565b8851809381928951928391612e16565b8101600581520301902091600683019560ff875416818110156106ac579060028261052260038d979695141561331f565b148061069f575b6105ae575b5050855461ffff191684151560081b61ff001617600317909555507f175b08e6ee8bbceb85780e790adca99ec4fbd3bb124ffbf50bd35ed4375a69ac935061059e90610585905b83156105a457600c0154936130e4565b9451911515825260208201929092529081906040820190565b0390a280f35b600d0154936130e4565b9181859361061093600884979801541687600a87015493828252600b86528d82206105da868254613148565b905560015416928d519687958694859363a9059cbb60e01b8552840160209093929193604081019460018060a01b031681520152565b03925af1928315610695577f175b08e6ee8bbceb85780e790adca99ec4fbd3bb124ffbf50bd35ed4375a69ac9761065b6105859561057594899461059e9992610668575b50506132de565b975082945089935061052e565b6106879250803d1061068e575b61067f8183612d52565b81019061300d565b3880610654565b503d610675565b88513d86823e3d90fd5b50600a8501541515610529565b634e487b7160e01b8a526021825260248afd5b8380fd5b8280fd5b50503461022e57602036600319011261022e5760209181906001600160a01b036106ef612de4565b168152600a845220549051908152f35b50503461022e578160031936011261022e576020905160968152f35b50503461022e578160031936011261022e5760209051620f42408152f35b82843461043d576107c08260209261076761075336612e6b565b959081855193828580945193849201612e16565b6007908201908152030190206001600160a01b039485168252602090815291902080546001820154600290920154955190815291820152918316604083015260a09290921c60ff16151560608201529081906080820190565b0390f35b83833461022e57602036600319011261022e5782356001600160401b0381116106c35760206107f961080b9236908701612d89565b81845193828580945193849201612e16565b60059082019081520301902060098101549283156108de5761a8c084018085116108cb57905b60ff60068401541690868210156108b85760ff866107c087600286148789826108ad575b60088101549561086c600b600a8401549301612f0b565b94805198899860018060a01b0381168a5260a01c161515602089015287015260608601526080850152151560a084015260e060c084015260e0830190612eac565b915080421191610855565b634e487b7160e01b815260218752602490fd5b634e487b7160e01b825260118652602482fd5b80610831565b50503461022e578160031936011261022e57602090516127108152f35b82843461043d57602036600319011261043d578235906001600160401b03821161043d575060209261094f8461093d6109689436908501612d89565b81865193828580945193849201612e16565b8101600581520301902090600382015491015490613501565b9051908152f35b919050346106c357602091826003193601126106bf5780356001600160401b038111610b32576109a29036908301612d89565b9160018060a01b03938486541633148015610b1e575b6109c190613260565b6109f08183516109e060ff8851928481818c01956104d0818389612e16565b8451809381928951928391612e16565b8101600581520301902092600684019360ff85541682811015610b0b5780610a1d6003600293141561331f565b1480610afe575b610a69575b845462ff00ff19166201000317855587610a42876130e4565b7f1e9a51575531367c4323c60efe8c5b980af66cd0509c86d8f4e1a3d9c90017008280a280f35b9582918789600a846008610aca999c01541692015493828252600b86528a8220610a94868254613148565b905560015416928a519788958694859363a9059cbb60e01b8552840160209093929193604081019460018060a01b031681520152565b03925af1948515610af5575093610aec91610a429587926106685750506132de565b38808080610a29565b513d87823e3d90fd5b50600a8101541515610a24565b634e487b7160e01b895260218352602489fd5b50338652600d81528186205460ff166109b8565b8480fd5b83833461022e578160031936011261022e5781546001600160a01b03908116610b60338214612fb1565b600c54908115610c1e57600c859055600154845163a9059cbb60e01b81526001600160a01b039092169682019687526020878101849052959694959194859185169082908990829060400103925af1918215610c1457610beb6020937fb19117f167b3ce8ba8e4f902dba7563f7fed1338a47804cc7dfaeee885968cba958891610bf7575b506133d9565b8554169351908152a280f35b610c0e9150853d811161068e5761067f8183612d52565b88610be5565b84513d87823e3d90fd5b835162461bcd60e51b8152602081880152600a6024820152694e6f2062616c616e636560b01b6044820152606490fd5b919050346106c3576020806003193601126106bf5782356001600160401b038111610b3257610c809036908501612d89565b825193815194610cb084840196610c9881848a612e16565b820160068152828660ff948593030190205416613104565b845184818551610cc181838c612e16565b8101600581520301902060068101548281168481101561102e57600303610ff857828160101c16600014610f15575050610d8690855185818651610d0681838d612e16565b810160078152030190203389528552858820548651868180610d2c8c8a51928391612e16565b81016008815203019020338a528652610d81878a205492610d58888b8b51809381928c51928391612e16565b81016007815203019020338c5288528060028a8d20015460a01c16159081610edd575b5061335e565b612fea565b94845184818551610d98818387612e16565b81016007815203019020338852845260028588200190610dd785600160a01b9260ff60a01b199484868254161790558851809381928951928391612e16565b810160088152030190203389528552600286892001918254161790555b8415610ea757600154845163a9059cbb60e01b8152339281019283526020830187905291849183918290036040019082908a906001600160a01b03165af1908115610e9d5791610e70610e75927f6e5596fe4f25c687a26b2421b8816d678eb3615ab1a5a91fb9cb43ed8b92751d95948991610e8057506133d9565b6130e4565b92519384523393a380f35b610e979150853d871161068e5761067f8183612d52565b38610be5565b84513d88823e3d90fd5b835162461bcd60e51b8152908101839052601060248201526f4e6f7468696e6720746f20636c61696d60801b6044820152606490fd5b9050610ef4888b8b51809381928c51928391612e16565b81016008815203019020338c5288526002898c20015460a01c161538610d7b565b91969091859060081c881615610fb157610f39918751809381928851928391612e16565b810160078152030190203388528452610f9b858820916010610f9260016002860195610f6c87549c8d60a01c161561335e565b0154610f7981151561339c565b610f8c600c850154600d86015490612fea565b90613155565b910154906130c4565b60ff60a01b19909616600160a01b179055610df4565b610fc5918751809381928851928391612e16565b810160088152030190203388528452610f9b858820916011610f9260016002860195610f6c87549c8d60a01c161561335e565b865162461bcd60e51b8152808501879052601060248201526f139bdd081c995cdbdb1d9959081e595d60821b6044820152606490fd5b634e487b7160e01b8a526021855260248afd5b9050346106c357826003193601126106c35760209250549051908152f35b9050346106c35760a03660031901126106c3576001600160401b03908035828111610b32576110919036908301612d89565b9060248035848111611532576110aa9036908401612d89565b9385519484519060ff6020978881818a01956110c7818389612e16565b8101600681520301902054166114f85760443592831515806114ed575b156114ab5760643515611472579089929161114389868c8a60019860018060a01b038a541692518096819582946323b872dd60e01b845230903390850160409194939294606082019560018060a01b0380921683521660208201520152565b03925af180156114685761115e918d9161144b575b50613025565b895189818a5161116f818389612e16565b8101600581520301902095885182811161143957611197816111918a54612ed1565b8a61307f565b808b8e6001601f8411146113d857916113cd575b50600019600383901b1c191690861b1787555b86850180546001600160a01b0319163317905582519182116113bc575060028601916111f4826111ee8554612ed1565b8561307f565b89908c601f84116001146113285794600f9c9a9794848d9b98956112b6957fff36ff50e65334f5ea64776f95ec82ce2fbd32a145dd5258689e2027c1c61b3a9f956113069d9a9261131d575b5050600019600383901b1c191690861b1790555b4260038701556084359687156113145787905b87015561127660643542612fea565b9560058101968755600681019560ff1996878154169055851c9d818f600c8194015582600d82015582600e82015501558a51809381928a51928391612e16565b810160068152030190209182541617905554906112d2836130e4565b908651928352858301527fccdee9db8c345dd53026f5dedbf3e8b723ceddd2ad8eeb96b00ce37fddd58b64863393a36130e4565b93825191818352820152a280f35b60643590611267565b015190503880611240565b8490528a8d209190601f1984168e5b8181106113a75750948785600f9f9d9a97957fff36ff50e65334f5ea64776f95ec82ce2fbd32a145dd5258689e2027c1c61b3a9f9d9a97956113069d9a958f976112b6991061138e575b505050811b019055611254565b015160001960f88460031b161c19169055388080611381565b82840151855593880193928d01928d01611337565b634e487b7160e01b8c52604188528bfd5b90508a0151386111ab565b8a81528d81208994509190601f198416908f8f5b838310611422575050508311611409575b5050811b0187556111be565b8c015160001960f88460031b161c1916905538806113fd565b84015185558b969094019392830192018f8f6113ec565b50634e487b7160e01b8c52604188528bfd5b61146291508b3d8d1161068e5761067f8183612d52565b38611158565b8b513d8e823e3d90fd5b885162461bcd60e51b81528087018990526014818701527304475726174696f6e206d757374206265203e20360641b6044820152606490fd5b885162461bcd60e51b81528087018990526019818701527f53656564206d757374206265203e203020616e64206576656e000000000000006044820152606490fd5b5060018416156110e4565b875162461bcd60e51b8152808601889052601581860152744d61726b657420616c72656164792065786973747360581b6044820152606490fd5b8680fd5b82843461043d576107c08260209261155061075336612e6b565b6008908201908152030190206001600160a01b039485168252602090815291902080546001820154600290920154955190815291820152918316604083015260a09290921c60ff16151560608201529081906080820190565b82843461043d57602036600319011261043d578235906001600160401b03821161043d575060206107f9610100946115e393369101612d89565b810160058152030190209060018060a01b0360018301541691600581015491600682015460ff600c84015491611637600d8601549460116010880154970154978151998a5260208a01528801838316612e48565b60081c1615156060860152608085015260a084015260c083015260e0820152f35b82843461043d57606036600319011261043d5782356001600160401b03811161022e576116889036908501612d89565b90611691612e39565b604435906116ae6020849581885193828580945193849201612e16565b8101600581520301902091611f4090818102918183041490151715611793576127109004906116ee6116e860038501548986015490613501565b83613155565b670de0b6b3a7640000908181029181830414901517156117805761172896975060649004958692610d81600c860154600d87015490612fea565b93501561176d57601061173c920154612fea565b905b81611752575b505082519182526020820152f35b61176692506117619084613155565b6130c4565b8380611744565b601161177a920154612fea565b9061173e565b634e487b7160e01b855260118852602485fd5b634e487b7160e01b845260118752602484fd5b9050346106c357826003193601126106c3573383526020600a815261181d818486205480946117d6821515613417565b33808952600a8452878920899055600154885163a9059cbb60e01b81529283019182526020820193909352909384926001600160a01b03169183918a918391604090910190565b03925af1908115610c14577fcc711f8a20ec7d3fdb3e44b107921ba1576ec61982d382a8b38059fd463b114e93949161185c91879161186657506133d9565b519283523392a280f35b610e979150843d861161068e5761067f8183612d52565b50503461022e578160031936011261022e57602090516101f48152f35b50503461022e57602036600319011261022e5760209181906001600160a01b036118c2612de4565b1681526009845220549051908152f35b82843461043d57602036600319011261043d578235906001600160401b03821161043d575061190960209361096892369101612d89565b613229565b9050346106c35760803660031901126106c35780356001600160401b0381116106bf5761193e9036908301612d89565b90611947612e39565b926001600160a01b0392606435848116929160443591849003611e6e57825195815161198260ff6020998a81818801956104d0818389612e16565b845188818551611993818387612e16565b810160058152030190209160ff60068401541688811015611e5b57611e18576005830154421015611de4578415611dac5760015486516323b872dd60e01b815233818b01908152306020820152604081018890528d928c91839186169082908690829060600103925af1908115611da25792611aa78b8a858f8e90611a26611aa798611aac9b8e9b91611d8b5750613025565b8d6127109788611a3860035484613155565b0498841515928380611d81575b15611d625790611a6760019282611a5e60025483613155565b049a5490613155565b049b5b611a7689600c54612fea565b600c550154168452600a8252848420611a90898254612fea565b905580611d58575b611d39575b5050505089613148565b613148565b90611abf60038401548985015490613501565b97611aca8984613155565b90670de0b6b3a764000091828102928184041490151715611d26575092869594928c8b8d99946064611bf49804809b600014611c475791611bad816002959389958b8360109c51809251611b1f818388612e16565b8101600781520301902033875283528686205415611c35575b8b838851809251611b4a818388612e16565b810160078152030190203387528352868620611b678a8254612fea565b90558b838851809251611b7b818388612e16565b810160078152030190203387528352611b9b600188882001918254612fea565b90558551809381928d51928391612e16565b8101600781520301902090338352522001896001600160601b0360a01b825416179055611bdf600c8301918254612fea565b905501611bed868254612fea565b90556130e4565b9582519715158852870152850152606084015260808301527fa994696d1a657073ceaa15fbacd649938053ce8bee7de30ec1c28d337cc37b2360a03393a380f35b611c423360128c01613168565b611b38565b91611ce2816002959389958b8360119c51809251611c66818388612e16565b8101600881520301902033875283528686205415611d14575b8b838851809251611c91818388612e16565b810160088152030190203387528352868620611cae8a8254612fea565b90558b838851809251611cc2818388612e16565b810160088152030190203387528352611b9b600188882001918254612fea565b8101600881520301902090338352522001896001600160601b0360a01b825416179055611bdf600d8301918254612fea565b611d213360138c01613168565b611c7f565b634e487b7160e01b8d526011905260248cfd5b60099183525220611d4b868254612fea565b90558f8b908f8e90611a9d565b5033821415611a98565b610f8c611d76929399600254905490612fea565b04956001859b611a6a565b5033861415611a45565b6114629150833d851161068e5761067f8183612d52565b88513d84823e3d90fd5b855162461bcd60e51b81528089018a905260126024820152710416d6f756e74206d757374206265203e20360741b6044820152606490fd5b855162461bcd60e51b81528089018a9052600e60248201526d10995d1d1a5b99c818db1bdcd95960921b6044820152606490fd5b855162461bcd60e51b81528089018a9052601960248201527f4d61726b6574206e6f7420616363657074696e672062657473000000000000006044820152606490fd5b634e487b7160e01b8c526021895260248cfd5b8780fd5b83833461022e57606036600319011261022e576001600160401b039083358281116106bf57611ea49036908601612d89565b611eac612e39565b916044358481116121ed5790611ec960ff94939236908901612d89565b94611efa82518451611eea602098838a8095818b01956104d0818389612e16565b8451809381928851928391612e16565b8101600581520301902090600682019060ff8254168a8110156121da5780159081156121cf575b50156121985789611f31866131c5565b93611f8089868d60019560018060a01b03875416918b518096819582946323b872dd60e01b845230903390850160409194939294606082019560018060a01b0380921683521660208201520152565b03925af190811561218e578c91612171575b5015612137576008810180546001600160a81b0319163360ff60a01b19161798151560a081901b60ff60a01b16999099179055426009820155600a81018590558951600b90910192811161212457611fee816111ee8554612ed1565b88601f82116001146120ba57819282918d936120af575b501b916000199060031b1c19161790555b600260ff19825416179055338752600b8552818720612036828254612fea565b905561a8c042019283421161209c57906120737f5247f2366f7e70fc0b5fc61f486408d977047c08d356ffb76c3d35832ceeaf26959493926130e4565b958251948552840152820152608060608201528061209633956080830190612eac565b0390a380f35b634e487b7160e01b885260118952602488fd5b8c015192508e612005565b8b9082601f1981168684528d8d8781872096925b8484106121045750505050106120eb575b5050811b019055612016565b8b015160001960f88460031b161c191690558c806120df565b82949550958097919293960151815501940192019084918d8f88906120ce565b634e487b7160e01b8b5260418c5260248bfd5b855162461bcd60e51b8152808d018a90526014602482015273109bdb99081d1c985b9cd9995c8819985a5b195960621b6044820152606490fd5b61218891508a3d8c1161068e5761067f8183612d52565b8d611f92565b87513d8e823e3d90fd5b835162461bcd60e51b8152808b0188905260116024820152704d61726b6574206e6f742061637469766560781b6044820152606490fd5b60019150148b611f21565b634e487b7160e01b8a5260218b5260248afd5b8580fd5b9050346106c35760203660031901126106c35761220c612de4565b835491906001600160a01b03906122263383861614612fb1565b169283156122405750506001600160a01b03191617815580f35b906020606492519162461bcd60e51b8352820152600f60248201526e496e76616c6964206164647265737360881b6044820152fd5b50503461022e578160031936011261022e57602090600c549051908152f35b50503461022e578160031936011261022e5760209051670de0b6b3a76400008152f35b50503461022e578060031936011261022e577f966c160e1c4dbc7df8d69af4ace01e9297c3cf016397b7914971f2fbfa32672d60206122f4612de4565b6122fc612e39565b855490916001600160a01b03916123169083163314612fb1565b1693848652600d83528086209115159160ff1981541660ff841617905551908152a280f35b9050346106c35760603660031901126106c3578035906001600160401b0382116106bf5761236b91369101612d89565b602435906001600160a01b03821682036106bf5760443593841515850361043d57509261239b916107c094613450565b935192835260208301919091526001600160a01b0316604082015290151560608201529081906080820190565b82843461043d57602036600319011261043d578235906001600160401b03821161043d57506124146020612402819560ff94369101612d89565b81855193828580945193849201612e16565b81016006815203019020541690519015158152f35b612dfa565b919050346106c357602090816003193601126106bf5782356001600160401b038111610b32576124619036908501612d89565b84546001600160a01b03939084163314801561269f575b61248190613260565b6124b08184516124a060ff8651928481818a01956104d0818389612e16565b8551809381928751928391612e16565b81016005815203019020916006830160ff8154168781101561268c5760026124d8911461329d565b6009840196875461a8c0810180911161267957421161263e57509082918860088601978854169881600a88019182549a8c8352600b88528a83208c81549061251f91613148565b90558b600c549061252f91612fea565b600c556affffffffffffffffffffff60a81b81541690555555600b850194855461255890612ed1565b908a601f8311976125d7966005946000937f74f6af4cc24e6b8524cdf3b8ae800154e13f1714e7cb824a54a6ac40e19af2649b61261f575b5050505501544210156125e257805460ff191690556125ae816130e4565b7f9efb756fb135fc86dcb75439e9c2572aa1aec5d0f919bc025b232fb843bf379c8980a26130e4565b92519384523393a480f35b805460ff191660011790556125f6816130e4565b7fc21481f47a1a989c413cfd9ed3ee7bcae2d7f8fb598d83bf7b0851bf452e44658980a26130e4565b612636928185601f9352209101861c810190613068565b87388e612590565b855162461bcd60e51b81529081018490526015602482015274111a5cdc1d5d19481dda5b991bddc818db1bdcd959605a1b6044820152606490fd5b634e487b7160e01b8a526011825260248afd5b634e487b7160e01b895260218852602489fd5b50338652600d81528286205460ff16612478565b50503461022e57602036600319011261022e5760209181906001600160a01b036126db612de4565b168152600b845220549051908152f35b9050346106c35760603660031901126106c3578035602435906044359361271c60018060a01b038754163314612fb1565b610bb861272d86610d818686612fea565b1161273d57506002556003555580f35b5162461bcd60e51b815260208185015260136024820152720a8dee8c2d840cccacae640e8dede40d0d2ced606b1b6044820152606490fd5b83833461022e57602092836003193601126106c35780356001600160401b0381116106bf576127a79036908301612d89565b906127c78584516124a060ff8651928481818a01956104d0818389612e16565b8101600581520301902090600682019060ff82541681811015612a8b5760026127f0911461329d565b600983015461a8c08101809111612a7857421115612a3d576008830160018060a01b03908181541692600a860154848a52600b8b52888a20612833828254613148565b9055600154895163a9059cbb60e01b8082526001600160a01b03881685830190815260208101949094529290918d91839188169082908f90829060400103925af1908115612a33579061288d918c91612a16575b506132de565b61289688613229565b9384151580612a0a575b61294b575b505050926105859260ff927fe2b1d963f1ec20d10d097a5196a0a9e7b5ff982020b428f20918fe52a2234edf7f175b08e6ee8bbceb85780e790adca99ec4fbd3bb124ffbf50bd35ed4375a69ac999a9b6129258661059e99600382198954161788555460a01c16869061ff00825491151560081b169061ff001916179055565b61292e8a6130e4565b928c51908152a35460081c169283156105a457600c0154936130e4565b8b9061295986600c54613148565b600c556001548b519384526001600160a01b038816858501908152602081018890528492908390036040019183918f91165af1908115612a00578a916129e3575b50156129a75780806128a5565b875162461bcd60e51b81529081018a9052601660248201527514995dd85c99081d1c985b9cd9995c8819985a5b195960521b6044820152606490fd5b6129fa91508b3d8d1161068e5761067f8183612d52565b8b61299a565b89513d8c823e3d90fd5b5084600c5410156128a0565b612a2d91508d803d1061068e5761067f8183612d52565b8d612887565b8a513d8d823e3d90fd5b845162461bcd60e51b81529081018790526015602482015274446973707574652077696e646f772061637469766560581b6044820152606490fd5b634e487b7160e01b875260118252602487fd5b634e487b7160e01b875260218252602487fd5b50503461022e578160031936011261022e576020906003549051908152f35b50503461022e57602036600319011261022e5760209160ff9082906001600160a01b03612ae8612de4565b168152600d855220541690519015158152f35b50503461022e578160031936011261022e5760015490516001600160a01b039091168152602090f35b82843461043d57602036600319011261043d578235906001600160401b03821161043d5750612b5b60209361096892369101612d89565b6131c5565b8391503461022e57602092836003193601126106c35781356001600160401b0381116106bf57612b939036908401612d89565b91612bb3858351611eea60ff8751928481818b01956104d0818389612e16565b8101600581520301902094600686019283549660ff881684811015612c8957612c5557600501544210612c1d575050506001612bf6939460ff19161790556130e4565b7fc21481f47a1a989c413cfd9ed3ee7bcae2d7f8fb598d83bf7b0851bf452e44658280a280f35b5162461bcd60e51b8152918201526014602482015273111958591b1a5b99481b9bdd081c995858da195960621b604482015260649150fd5b505162461bcd60e51b815291820152600f60248201526e26b0b935b2ba103737ba1037b832b760891b604482015260649150fd5b634e487b7160e01b885260218552602488fd5b9050346106c357826003193601126106c357338352602060098152612d1381848620548094612ccc821515613417565b3380895260098452878920899055600154885163a9059cbb60e01b81529283019182526020820193909352909384926001600160a01b03169183918a918391604090910190565b03925af1908115610c14577f5be4d22009fea85381595ed91090bc5c0bc92a93fe07ed7472c5888eb1993f8393949161185c91879161186657506133d9565b90601f801991011681019081106001600160401b03821117612d7357604052565b634e487b7160e01b600052604160045260246000fd5b81601f82011215612ddf578035906001600160401b038211612d735760405192612dbd601f8401601f191660200185612d52565b82845260208383010111612ddf57816000926020809301838601378301015290565b600080fd5b600435906001600160a01b0382168203612ddf57565b34612ddf576000366003190112612ddf57602060405160648152f35b60005b838110612e295750506000910152565b8181015183820152602001612e19565b602435908115158203612ddf57565b906004821015612e555752565b634e487b7160e01b600052602160045260246000fd5b6040600319820112612ddf57600435906001600160401b038211612ddf57612e9591600401612d89565b906024356001600160a01b0381168103612ddf5790565b90602091612ec581518092818552858086019101612e16565b601f01601f1916010190565b90600182811c92168015612f01575b6020831014612eeb57565b634e487b7160e01b600052602260045260246000fd5b91607f1691612ee0565b9060405191826000825492612f1f84612ed1565b908184526001948581169081600014612f8e5750600114612f4b575b5050612f4992500383612d52565b565b9093915060005260209081600020936000915b818310612f76575050612f4993508201013880612f3b565b85548884018501529485019487945091830191612f5e565b915050612f4994506020925060ff191682840152151560051b8201013880612f3b565b15612fb857565b60405162461bcd60e51b815260206004820152600a60248201526927b7363c9030b236b4b760b11b6044820152606490fd5b91908201809211612ff757565b634e487b7160e01b600052601160045260246000fd5b90816020910312612ddf57518015158103612ddf5790565b1561302c57565b60405162461bcd60e51b81526020600482015260146024820152731554d110c81d1c985b9cd9995c8819985a5b195960621b6044820152606490fd5b818110613073575050565b60008155600101613068565b9190601f811161308e57505050565b612f49926000526020600020906020601f840160051c830193106130ba575b601f0160051c0190613068565b90915081906130ad565b81156130ce570490565b634e487b7160e01b600052601260045260246000fd5b6130fc90602060405192828480945193849201612e16565b810103902090565b1561310b57565b60405162461bcd60e51b815260206004820152601560248201527413585c9ad95d08191bd95cc81b9bdd08195e1a5cdd605a1b6044820152606490fd5b91908203918211612ff757565b81810292918115918404141715612ff757565b80549068010000000000000000821015612d7357600182018082558210156131af576000526020600020019060018060a01b03166001600160601b0360a01b825416179055565b634e487b7160e01b600052603260045260246000fd5b6131e160206131fb928160405193828580945193849201612e16565b81016005815203019020600d600c82015491015490612fea565b6101f490818102918183041490151715612ff7576127109004620f424080821115613224575090565b905090565b6131e16020613245928160405193828580945193849201612e16565b606481029080820460641490151715612ff757612710900490565b1561326757565b60405162461bcd60e51b815260206004820152600e60248201526d139bdd08185d5d1a1bdc9a5e995960921b6044820152606490fd5b156132a457565b60405162461bcd60e51b8152602060048201526012602482015271139bc81858dd1a5d99481c1c9bdc1bdcd85b60721b6044820152606490fd5b156132e557565b60405162461bcd60e51b8152602060048201526012602482015271109bdb99081c995d1d5c9b8819985a5b195960721b6044820152606490fd5b1561332657565b60405162461bcd60e51b815260206004820152601060248201526f105b1c9958591e481c995cdbdb1d995960821b6044820152606490fd5b1561336557565b60405162461bcd60e51b815260206004820152600f60248201526e105b1c9958591e4818db185a5b5959608a1b6044820152606490fd5b156133a357565b60405162461bcd60e51b815260206004820152600e60248201526d139bc81dda5b9b9a5b99c818995d60921b6044820152606490fd5b156133e057565b60405162461bcd60e51b815260206004820152600f60248201526e151c985b9cd9995c8819985a5b1959608a1b6044820152606490fd5b1561341e57565b60405162461bcd60e51b815260206004820152600a6024820152694e6f207265776172647360b01b6044820152606490fd5b9091156134ac576020613470918160405193828580945193849201612e16565b8101600781520301902060018060a01b0380921660005260205260406000209182549060ff6002600186015495015492949383169260a01c1690565b60206134c5918160405193828580945193849201612e16565b8101600881520301902060018060a01b0380921660005260205260406000209182549060ff6002600186015495015492949383169260a01c1690565b61350b9042613148565b90808210156135395781603202916032830403612ff75761352b916130c4565b60960360968111612ff75790565b505060649056fea2646970667358221220151e1c70dc53238c583eebe051e051c4a373899736fa908882689e8c3223257164736f6c63430008140033",
  "linkReferences": {},
  "deployedLinkReferences": {}
}